:03000000025ED3CA
:0C5ED300787FE4F6D8FD758141025F1A6B
:10621700E49004F6F0A3F0A3F0A3124053000000AB
:1062270000E49004FDF0A3F0A3F0A3F0A3F0126B39
:10623700981268EB126A10126A49126A6412696C42
:10624700126BCE125FE97BFF7A36797112615312B6
:1062570000167FFF126CC7C2EDC2EFD2EE12001616
:0D626700D2EDD2EFC2EEE4FF126CC780E270
:10691800424C45206261756420726561642046615D
:106928006C736500424C4520626175642072656134
:0A69380064205375636365737300F8
:106B4F0053CB1F43CCE043CB1043CC10C2EDC2EF6D
:036B5F00D2EE2251
:05606E009005EEEFF0CB
:10607300E4A3F0A3F0126C107F01126CC77FFC1233
:106083006CC77F01126CC77F01126CC79005EEE0ED
:10609300FF126CC7126C209001A5E070037FFF22F2
:1060A3009001A5E0FF9005EFE0FCA3E0FDC39F7422
:1060B30080F8EC648098501F74002DF58274003CC6
:1060C300F583E0FF126CC79005F0E004F070D19007
:1060D30005EFE004F080C9900002E0B401037F0102
:0360E300227FFF1A
:0160E6002297
:10650300126C107F01126CC77FFC126CC77F0212E2
:106513006CC7E4FF126CC7126C209001A5E0640500
:1065230060047BFF8016900003E07BFFB4010D7ACB
:1065330069792C125B57900004E0FF227A6979187D
:06654300125B577FFF22EE
:0C0016007F547EF77D18DDFEDEFCDFFA73
:0100220022BB
:0E6C200000007F027EAF7D4BDDFEDEFCDFFA62
:016C2E002243
:0E6C2F0000007F0D7E9C7D53DDFEDEFCDFFA53
:016C3D002234
:0E6C3E0000007F017ED87D23DDFEDEFCDFFA44
:016C4C002225
:0E6C4D0000007F2B7E067DCBDDFEDEFCDFFA35
:016C5B002216
:0E6C5C0000007FFD7E237DDCDDFEDEFCDFFA26
:016C6A002207
:0E6C6B0000007F117ED07D1BDDFEDEFCDFFA17
:016C790022F8
:0E6C7A0000007F057E347DC3DDFEDEFCDFFA08
:016C880022E9
:040006007F0EDFFE8C
:01000A0022D3
:0E6C890000007F097E687D8BDDFEDEFCDFFAF9
:016C970022DA
:1052A50020696E64795F7265616474656D702073E1
:1052B50074617274200D0A00240349006D007000AA
:1052C50069006E006A0053006500720069006100A4
:1052D5006C004E0075006D00300031004003BFFCCE
:1052E500BFFCBFFC000001001200210000001000FF
:1052F500000000000000050000000000000006009E
:105305000000000000001000000000000000110077
:1053150088E1F3C000000000F00006020000010073
:105325001200210000000200A000A00200000003FE
:105335000000000000000200A000A0020000611BA8
:105345000206000000000500000000000000020742
:105355000100000000000500000000000000040737
:105365000000000000000507D00700000000060748
:10537500DC00000000000707002000000000120B01
:10538500FFFF0F0000000500000000000000000501
:1053950000000000000000050000000000000006FD
:1053A50000000000000000050000000000000005EE
:1053B50000000000000000060000000000010000E1
:1053C500000200000027000000872E0D00010001EB
:1053D50000020000008F2E0D0000000000000005F7
:0D53E50000000000000000060000000000B5
:08688B0041055BFF41055C00C3
:0B6274007B027F047A00E4FDFC7E0A40
:10627F009005B5EEF0A3EFF0A3ECF0A3EDF0A3EAD9
:10628F00F0A3EBF07F01126CBEE4FF126CBE900521
:10629F00B5A3E0FF126CBE9005B5E0FF126CBE9087
:1062AF0005B9A3E0FF126CBE9005B9E0FF126CBEFA
:1062BF009005B7A3E0FF126CBE9005B7E0FF026C2C
:0162CF00BE10
:1066B900900606EEF0A3EFF0E4FF126CBEE4FF12C1
:1066C9006CBE900606A3E0FF126CBE900606E0FFC2
:1066D900126CBEE4FF126CBEE4FF126CBEE4FF1242
:0766E9006CBEE4FF026CBE71
:10551E00E4FF90053BE090055EF0E490055DF090B1
:10552E00055DE0FEFD3395E0FC743C2DF5827405BF
:10553E003CF583E0FDEEFB3395E0FA745F2BF582CC
:10554E0074053AF583EDF090055DE004F0E0B40CDF
:10555E00CEE490055DF090055DE0FEFD3395E0FC38
:10556E0074482DF58274053CF583E0FDEEFB339512
:10557E00E0FA746B2BF58274053AF583EDF0900525
:10558E005DE004F0E0B402CE90055D740FF090057E
:10559E005DE0FEC3648094A0501AEEFD3395E0FCEE
:1055AE00745E2DF58274053CF583E4F090055DE0A4
:1055BE0004F080DAE490055DF090055DE0FEC364D2
:1055CE008094A0501BEEFD3395E0FC745E2DF582A9
:1055DE0074053CF583E02FFF90055DE004F080D963
:1055EE00EF90057DF0E490055DF090055DE0FFC362
:1055FE00648094A0501CEF3395E0FE745E2FF5820C
:10560E0074053EF583E0FF126CC790055DE004F073
:02561E0080D832
:015620002267
:1062D000E490053BF0FFEFFD3395E0FC743C2DF5B9
:1062E0008274053CF583E4F00FEFB40CE9E4FFEFB2
:1062F000FD3395E0FC74482DF58274053CF583E48C
:10630000F00FEFB402E9E4FFC3EF6480948050150E
:10631000EFFD3395E0FC744A2DF58274053CF5835E
:0A632000E4F00F80E3E490055AF06A
:01632A002250
:104B21009005807401F0E4A3F0A3F074FFA3F0A357
:104B3100F0E4A3F0A3F0A3F0A3F0A3F0A3F0A3F09B
:104B4100A3F0A3F0A3F0A3F0A37412F0E4A3F0C2C6
:104B510008C209A3F0900585E0FEA3E024A8F58230
:104B610074013EF583E064016003024C2B900585DE
:104B7100A3E0FF24A9F58274013EF583E09005923C
:104B8100F074AB2FF58274013EF583E0FE9005854C
:104B9100E0FCA3E0FD24AAF58274013CF583E07AF0
:104BA100002400FFEA3E900583F0A3EFF074AD2DE1
:104BB100F58274013CF583E0FE900585A3E024AC09
:104BC100F58274013CF583E02400FFEA3E90058103
:104BD100F0A3EFF0ED2408FFE43C900587F0FCA37F
:104BE100EFF0FD900581E0FAA3E0FBAE027802C38D
:104BF10033CE33CED8F92DFFEE3C900589F0A3EFEB
:104C0100F0EB2402FFE43AFEEF7802C333CE33CE59
:104C1100D8F9FF900586E02FF0900585E03EF07B06
:104C2100FFE4FD7F011259BE80057B44024DEE90E9
:104C31000583E07004A3E06405705E900588E024BC
:104C41000EFE900587E0340090058BF0A3CEF0E4D2
:104C510090057EF0A3F0C390057FE0940C90057E53
:104C6100E094005034E0FEA3E0FF90058CE02FFDBE
:104C710090058BE03EFC74A82DF58274013CF58310
:104C8100E0FD743C2FF58274053EF583EDF07BBBAE
:104C9100E4FD7F011259BE80FE900583E07004A3FC
:104CA100E064066003024B567BCCFD7F011259BEC6
:104CB100900592E06003024DEC7BDDFD7F0112590E
:104CC100BE900587E0FEA3E0FF24ACF58274013EAF
:104CD100F583E064C26003024DE0EF240CFFE43E83
:104CE10090058DF0A3EFF090053BE024FE60681481
:104CF1007003024DB324026003024DD6E490057E99
:104D0100F0A3F090057EE0FEA3E0FF90058EE02F7A
:104D1100FD90058DE03EFC74A82DF58274013CF5F3
:104D210083E0FD74482FF58274053EF583EDF07B39
:104D3100CCE4FD7F011259BE90057FE004F07006BE
:104D410090057EE004F0C390057FE0940290057E1B
:104D5100E0940040AE8075E490057EF0A3F09005EC
:104D61007EE0FEA3E0FF90058EE02FFD90058DE033
:104D71003EFC74A82DF58274013CF583E0FD744876
:104D81002FF58274053EF583EDF07BDDE4FD7F01B7
:104D91001259BE90057FE004F0700690057EE00494
:104DA100F0C390057FE0940290057EE0940040AE50
:104DB100801AE4900548F090058DE0FEA3E024A957
:104DC100F58274013EF583E0900549F090055CE0C1
:104DD10004F0024B56E490055BF0A3F0024B567BC6
:104DE10022E4FD7F011259BE024B567B33E4FD7F65
:044DF100011259BE94
:014DF500229B
:1064BC00E4900608F0A3F0FBFAFDFC7F027E0A12C2
:1064CC00627F7B0C7F03126278126274E4FBFAFD2C
:1064DC00FC7F067E0A12627F7B107A00E4FDFCFFD3
:1064EC007EF012627F126C209001A8E0B40107C20A
:0664FC00AC124B21D2ACF2
:016502002276
:1063D900E490060AF0A3F0FBFAFDFC7F027E0A12A4
:1063E900627F7B0D7A00E4FDFC7F037E0A12627FE7
:1063F900126274E4FBFAFDFC7F067E0A12627F7B5F
:10640900087A00E4FDFCFF7EF012627F126C209096
:0D64190001A8E0B40107C2AC124B21D2ACC7
:016426002253
:10632B00E490060CF0A3F07BFF7A5279A5126790EC
:10633B00E4FBFAFDFC7F027E0A12627F7B0E7A0081
:10634B00E4FDFC7F037E0A12627F126274E4FBFAA7
:10635B00FDFC7F067E0A12627F7B077A00E4FDFC60
:10636B00FF7EF012627F126B0F126C209001A8E07F
:0A637B00B40107C2AC124B21D2ACF2
:0163850022F5
:10658D00E4FF900000E060379001A5E0C39408504F
:10659D0003E4FE22E4FEEEFD3395E0FC74002DF5E0
:1065AD008274003CF583E02FFF0EEEB407E89000F7
:1065BD0007E0B507057E007F0122126C108000E414
:0265CD00FEFFCF
:0165CF0022A9
:10009E00EF14B42200400302233C9000B675F00327
:1000AE00A4C58325F0C5837302011C02012502013C
:1000BE002E0201300201320203A902013502014370
:1000CE0002015102015F02016D02017B02018F02EA
:1000DE0001A30201B70201F302020702026B020240
:1000EE007F0202930202A70202BB0202CF02233C4E
:1000FE0002030B0203470203A902035B02039602EB
:10010E0003A90203BC0203D40203A90203FC7FC0AD
:10011E00126CBE7F0680337F40126CBE7F03802A36
:10012E00802F8003020347E4FF126CBEE4FF126CC3
:10013E00BE7F108058E4FF126CBEE4FF126CBE7FCF
:10014E0011804AE4FF126CBEE4FF126CBEE4FF8025
:10015E003CE4FF126CBEE4FF126CBE7F01802EE405
:10016E00FF126CBEE4FF126CBE7F028020E4FF1211
:10017E006CBEE4FF126CBEE4FF126CBE7F03020382
:10018E00E5E4FF126CBEE4FF126CBE7F02126CBE81
:10019E00E4FF0203E5E4FF126CBEE4FF126CBE7FC7
:1001AE0061126CBE7F1B0203E57F01126CBEE4FF81
:1001BE00126CBE7F01126CBE7F07126CBEE4FF1282
:1001CE006CBEE4FF126CBEE4FF126CBEE4FF126C58
:1001DE00BEE4FF126CBEE4FF126CBE7F05126CBE55
:1001EE00E4FF0203E5E4FF126CBEE4FF126CBE7F77
:1001FE0002126CBE7F070203E57F01126CBEE4FFA4
:10020E00126CBE7F02126CBE7F07126CBE7F011293
:10021E006CBEE4FF126CBEE4FF126CBEE4FF126C07
:10022E00BE7F01126CBEE4FF126CBE7F01126CBE6B
:10023E007F07126CBEE4FF126CBEE4FF126CBEE4CC
:10024E00FF126CBEE4FF126CBEE4FF126CBEE4FF44
:10025E00126CBE7F05126CBEE4FF0203E5E4FF12D2
:10026E006CBEE4FF126CBE7F04126CBE7F070203ED
:10027E00E5E4FF126CBEE4FF126CBE7F05126CBE8D
:10028E007F070203E5E4FF126CBEE4FF126CBE7F33
:10029E0006126CBE7F070203E5E4FF126CBEE4FF9C
:1002AE00126CBE7F07126CBE7F070203E5E4FF12DD
:1002BE006CBEE4FF126CBE7F12126CBE7F0B02038B
:1002CE00E57F01126CBEE4FF126CBE7F01126CBEA4
:1002DE007F07126CBEE4FF126CBEE4FF126CBEE42C
:1002EE00FF126CBEE4FF126CBEE4FF126CBEE4FFA4
:1002FE00126CBE7F05126CBEE4FF0203E57F011295
:10030E006CBEE4FF126CBE7F0A126CBE7F01126CD3
:10031E00BE7FF8126CBE7F59126CBE7F0D126CBE82
:10032E00E4FF126CBEE4FF126CBEE4FF126CBE7FE3
:10033E0005126CBEE4FF0203E5E4FF126CBEE4FF9F
:10034E00126CBE7F05126CBEE4FF0203E57F011244
:10035E006CBEE4FF126CBE7F08126CBE7F01126C85
:10036E00BE7F01126CBE7F01126CBEE4FF126CBE2A
:10037E00E4FF126CBEE4FF126CBEE4FF126CBE7F93
:10038E0005126CBEE4FF804FE4FF126CBEE4FF1258
:10039E006CBE7F05126CBEE4FF803CE4FF126CBEA7
:1003AE00E4FF126CBE7F06126CBEE4FF80297F0153
:1003BE00126CBEE4FF126CBEE4FF126CBE7FF01234
:1003CE006CBE7F278016E4FF126CBEE4FF126CBE7B
:1003DE007F05126CBEE4FF126CBEE4FF126CBEE42D
:1003EE00FF126CBEE4FF126CBEE4FF0223397F01E4
:1003FE00126CBEE4FF126CBE7F01126CBE7F0C123B
:10040E006CBEE4FF126CBEE4FF126CBEE4FF126C15
:10041E00BEE4FF126CBE7F01126CBEE4FF126CBE16
:10042E007F02126CBE7F0C126CBE7F01126CBEE49A
:10043E00FF126CBEE4FF126CBEE4FF126CBE7F01B5
:10044E00126CBEE4FF126CBE7F03126CBE7F0C12E8
:10045E006CBE7F70126CBE7F0D126CBE7F18126C5C
:10046E00BEE4FF126CBE7F01126CBEE4FF126CBEC6
:10047E007F04126CBE7F0C126CBEE4FF126CBE7F4A
:10048E0001126CBE7F07126CBE7F14126CBE7F0110
:10049E00126CBEE4FF126CBE7F01126CBE7F0C129A
:1004AE006CBE7F01126CBEE4FF126CBEE4FF126CD8
:1004BE00BEE4FF126CBE7F01126CBEE4FF126CBE76
:1004CE007F02126CBE7F0C126CBE7F01126CBEE4FA
:1004DE00FF126CBEE4FF126CBEE4FF126CBE7F0115
:1004EE00126CBEE4FF126CBE7F03126CBE7F0C1248
:1004FE006CBE7F84126CBE7F0D126CBE7F18126CA8
:10050E00BEE4FF126CBE7F01126CBEE4FF126CBE25
:10051E007F04126CBE7F0C126CBEE4FF126CBE7FA9
:10052E0001126CBE7F07126CBE7F14126CBE7F016F
:10053E00126CBEE4FF126CBE7F01126CBE7F0C12F9
:10054E006CBE7F02126CBEE4FF126CBEE4FF126C36
:10055E00BEE4FF126CBE7F01126CBEE4FF126CBED5
:10056E007F02126CBE7F0C126CBE7F01126CBEE459
:10057E00FF126CBEE4FF126CBEE4FF126CBE7F0174
:10058E00126CBEE4FF126CBE7F03126CBE7F0C12A7
:10059E006CBE7F98126CBE7F0D126CBE7F18126CF3
:1005AE00BEE4FF126CBE7F01126CBEE4FF126CBE85
:1005BE007F04126CBE7F0C126CBEE4FF126CBE7F09
:1005CE0001126CBE7F07126CBE7F14126CBE7F01CF
:1005DE00126CBEE4FF126CBE7F01126CBE7F0C1259
:1005EE006CBE7F03126CBEE4FF126CBEE4FF126C95
:1005FE00BEE4FF126CBE7F01126CBEE4FF126CBE35
:10060E007F02126CBE7F0C126CBE7F01126CBEE4B8
:10061E00FF126CBEE4FF126CBEE4FF126CBE7F01D3
:10062E00126CBEE4FF126CBE7F03126CBE7F0C1206
:10063E006CBE7FAC126CBE7F0D126CBE7F18126C3E
:10064E00BEE4FF126CBE7F01126CBEE4FF126CBEE4
:10065E007F04126CBE7F0C126CBEE4FF126CBE7F68
:10066E0001126CBE7F07126CBE7F14126CBE7F012E
:10067E00126CBEE4FF126CBE7F01126CBE7F0C12B8
:10068E006CBE7F04126CBEE4FF126CBEE4FF126CF3
:10069E00BEE4FF126CBE7F01126CBEE4FF126CBE94
:1006AE007F02126CBE7F0C126CBE7F01126CBEE418
:1006BE00FF126CBEE4FF126CBEE4FF126CBE7F0133
:1006CE00126CBEE4FF126CBE7F03126CBE7F0C1266
:1006DE006CBE7FC0126CBE7F0D126CBE7F18126C8A
:1006EE00BEE4FF126CBE7F01126CBEE4FF126CBE44
:1006FE007F04126CBE7F0C126CBEE4FF126CBE7FC8
:10070E0001126CBE7F07126CBE7F14126CBE7F018D
:10071E00126CBEE4FF126CBE7F01126CBE7F0C1217
:10072E006CBE7F05126CBEE4FF126CBEE4FF126C51
:10073E00BEE4FF126CBE7F01126CBEE4FF126CBEF3
:10074E007F02126CBE7F0C126CBE7F01126CBEE477
:10075E00FF126CBEE4FF126CBEE4FF126CBE7F0192
:10076E00126CBEE4FF126CBE7F03126CBE7F0C12C5
:10077E006CBE7FD4126CBE7F0D126CBE7F18126CD5
:10078E00BEE4FF126CBE7F01126CBEE4FF126CBEA3
:10079E007F04126CBE7F0C126CBEE4FF126CBE7F27
:1007AE0001126CBE7F07126CBE7F14126CBE7F01ED
:1007BE00126CBEE4FF126CBE7F01126CBE7F0C1277
:1007CE006CBE7F06126CBEE4FF126CBEE4FF126CB0
:1007DE00BEE4FF126CBE7F01126CBEE4FF126CBE53
:1007EE007F02126CBE7F0C126CBE7F01126CBEE4D7
:1007FE00FF126CBEE4FF126CBEE4FF126CBE7F01F2
:10080E00126CBEE4FF126CBE7F03126CBE7F0C1224
:10081E006CBE7FE8126CBE7F0D126CBE7F18126C20
:10082E00BEE4FF126CBE7F01126CBEE4FF126CBE02
:10083E007F04126CBE7F0C126CBEE4FF126CBE7F86
:10084E0001126CBE7F07126CBE7F14126CBE7F014C
:10085E00126CBEE4FF126CBE7F01126CBE7F0C12D6
:10086E006CBE7F07126CBEE4FF126CBEE4FF126C0E
:10087E00BEE4FF126CBE7F01126CBEE4FF126CBEB2
:10088E007F02126CBE7F0C126CBE7F01126CBEE436
:10089E00FF126CBEE4FF126CBEE4FF126CBE7F0151
:1008AE00126CBEE4FF126CBE7F03126CBE7F0C1284
:1008BE006CBE7FFC126CBE7F0D126CBE7F18126C6C
:1008CE00BEE4FF126CBE7F01126CBEE4FF126CBE62
:1008DE007F04126CBE7F0C126CBEE4FF126CBE7FE6
:1008EE0001126CBE7F07126CBE7F14126CBE7F01AC
:1008FE00126CBEE4FF126CBE7F01126CBE7F0C1236
:10090E006CBE7F08126CBEE4FF126CBEE4FF126C6C
:10091E00BEE4FF126CBE7F01126CBEE4FF126CBE11
:10092E007F02126CBE7F0C126CBE7F01126CBEE495
:10093E00FF126CBEE4FF126CBEE4FF126CBE7F01B0
:10094E00126CBEE4FF126CBE7F03126CBE7F0C12E3
:10095E006CBE7F10126CBE7F0E126CBE7F18126CB6
:10096E00BEE4FF126CBE7F01126CBEE4FF126CBEC1
:10097E007F04126CBE7F0C126CBEE4FF126CBE7F45
:10098E0001126CBE7F07126CBE7F14126CBE7F010B
:10099E00126CBEE4FF126CBE7F01126CBE7F0C1295
:1009AE006CBE7F09126CBEE4FF126CBEE4FF126CCB
:1009BE00BEE4FF126CBE7F01126CBEE4FF126CBE71
:1009CE007F02126CBE7F0C126CBE7F01126CBEE4F5
:1009DE00FF126CBEE4FF126CBEE4FF126CBE7F0110
:1009EE00126CBEE4FF126CBE7F03126CBE7F0C1243
:1009FE006CBE7F24126CBE7F0E126CBE7F18126C02
:100A0E00BEE4FF126CBE7F01126CBEE4FF126CBE20
:100A1E007F04126CBE7F0C126CBEE4FF126CBE7FA4
:100A2E0001126CBE7F07126CBE7F14126CBE7F016A
:100A3E00126CBEE4FF126CBE7F01126CBE7F0C12F4
:100A4E006CBE7F0A126CBEE4FF126CBEE4FF126C29
:100A5E00BEE4FF126CBE7F01126CBEE4FF126CBED0
:100A6E007F02126CBE7F0C126CBE7F01126CBEE454
:100A7E00FF126CBEE4FF126CBEE4FF126CBE7F016F
:100A8E00126CBEE4FF126CBE7F03126CBE7F0C12A2
:100A9E006CBE7F38126CBE7F0E126CBE7F18126C4D
:100AAE00BEE4FF126CBE7F01126CBEE4FF126CBE80
:100ABE007F04126CBE7F0C126CBEE4FF126CBE7F04
:100ACE0001126CBE7F07126CBE7F14126CBE7F01CA
:100ADE00126CBEE4FF126CBE7F01126CBE7F0C1254
:100AEE006CBE7F0B126CBEE4FF126CBEE4FF126C88
:100AFE00BEE4FF126CBE7F01126CBEE4FF126CBE30
:100B0E007F02126CBE7F0C126CBE7F01126CBEE4B3
:100B1E00FF126CBEE4FF126CBEE4FF126CBE7F01CE
:100B2E00126CBEE4FF126CBE7F03126CBE7F0C1201
:100B3E006CBE7F4C126CBE7F0E126CBE7F18126C98
:100B4E00BEE4FF126CBE7F01126CBEE4FF126CBEDF
:100B5E007F04126CBE7F0C126CBEE4FF126CBE7F63
:100B6E0001126CBE7F07126CBE7F14126CBE7F0129
:100B7E00126CBEE4FF126CBE7F01126CBE7F0C12B3
:100B8E006CBE7F0C126CBEE4FF126CBEE4FF126CE6
:100B9E00BEE4FF126CBE7F01126CBEE4FF126CBE8F
:100BAE007F02126CBE7F0C126CBE7F01126CBEE413
:100BBE00FF126CBEE4FF126CBEE4FF126CBE7F012E
:100BCE00126CBEE4FF126CBE7F03126CBE7F0C1261
:100BDE006CBE7F60126CBE7F0E126CBE7F18126CE4
:100BEE00BEE4FF126CBE7F01126CBEE4FF126CBE3F
:100BFE007F04126CBE7F0C126CBEE4FF126CBE7FC3
:100C0E0001126CBE7F07126CBE7F14126CBE7F0188
:100C1E00126CBEE4FF126CBE7F01126CBE7F0C1212
:100C2E006CBE7F0D126CBEE4FF126CBEE4FF126C44
:100C3E00BEE4FF126CBE7F01126CBEE4FF126CBEEE
:100C4E007F02126CBE7F0C126CBEE4FF126CBEE40F
:100C5E00FF126CBEE4FF126CBEE4FF126CBE7F018D
:100C6E00126CBEE4FF126CBE7F03126CBE7F0C12C0
:100C7E006CBE7F60126CBE7F0E126CBE7F18126C43
:100C8E00BEE4FF126CBE7F01126CBEE4FF126CBE9E
:100C9E007F04126CBE7F0C126CBEE4FF126CBE7F22
:100CAE0001126CBE7F07126CBE7F14126CBE7F01E8
:100CBE00126CBEE4FF126CBE7F01126CBE7F0C1272
:100CCE006CBE7F0E126CBEE4FF126CBEE4FF126CA3
:100CDE00BEE4FF126CBE7F01126CBEE4FF126CBE4E
:100CEE007F02126CBE7F0C126CBEE4FF126CBEE46F
:100CFE00FF126CBEE4FF126CBEE4FF126CBE7F01ED
:100D0E00126CBEE4FF126CBE7F03126CBE7F0C121F
:100D1E006CBE7F60126CBE7F0E126CBE7F18126CA2
:100D2E00BEE4FF126CBE7F01126CBEE4FF126CBEFD
:100D3E007F04126CBE7F0C126CBEE4FF126CBE7F81
:100D4E0001126CBE7F07126CBE7F14126CBE7F0147
:100D5E00126CBEE4FF126CBE7F01126CBE7F0C12D1
:100D6E006CBE7F0F126CBEE4FF126CBEE4FF126C01
:100D7E00BEE4FF126CBE7F01126CBEE4FF126CBEAD
:100D8E007F02126CBE7F0C126CBEE4FF126CBEE4CE
:100D9E00FF126CBEE4FF126CBEE4FF126CBE7F014C
:100DAE00126CBEE4FF126CBE7F03126CBE7F0C127F
:100DBE006CBE7F60126CBE7F0E126CBE7F18126C02
:100DCE00BEE4FF126CBE7F01126CBEE4FF126CBE5D
:100DDE007F04126CBE7F0C126CBEE4FF126CBE7FE1
:100DEE0001126CBE7F07126CBE7F14126CBE7F01A7
:100DFE00126CBEE4FF126CBE7F01126CBE7F0C1231
:100E0E006CBE7F10126CBEE4FF126CBEE4FF126C5F
:100E1E00BEE4FF126CBE7F01126CBEE4FF126CBE0C
:100E2E007F02126CBE7F0C126CBEE4FF126CBEE42D
:100E3E00FF126CBEE4FF126CBEE4FF126CBE7F01AB
:100E4E00126CBEE4FF126CBE7F03126CBE7F0C12DE
:100E5E006CBE7F60126CBE7F0E126CBE7F18126C61
:100E6E00BEE4FF126CBE7F01126CBEE4FF126CBEBC
:100E7E007F04126CBE7F0C126CBEE4FF126CBE7F40
:100E8E0001126CBE7F07126CBE7F14126CBE7F0106
:100E9E00126CBEE4FF126CBE7F01126CBE7F0C1290
:100EAE006CBE7F11126CBEE4FF126CBEE4FF126CBE
:100EBE00BEE4FF126CBE7F01126CBEE4FF126CBE6C
:100ECE007F02126CBE7F0C126CBEE4FF126CBEE48D
:100EDE00FF126CBEE4FF126CBEE4FF126CBE7F010B
:100EEE00126CBEE4FF126CBE7F03126CBE7F0C123E
:100EFE006CBE7F60126CBE7F0E126CBE7F18126CC1
:100F0E00BEE4FF126CBE7F01126CBEE4FF126CBE1B
:100F1E007F04126CBE7F0C126CBEE4FF126CBE7F9F
:100F2E0001126CBE7F07126CBE7F14126CBE7F0165
:100F3E00126CBEE4FF126CBE7F01126CBE7F0C12EF
:100F4E006CBE7F12126CBEE4FF126CBEE4FF126C1C
:100F5E00BEE4FF126CBE7F01126CBEE4FF126CBECB
:100F6E007F02126CBE7F0C126CBEE4FF126CBEE4EC
:100F7E00FF126CBEE4FF126CBEE4FF126CBE7F016A
:100F8E00126CBEE4FF126CBE7F03126CBE7F0C129D
:100F9E006CBE7F60126CBE7F0E126CBE7F18126C20
:100FAE00BEE4FF126CBE7F01126CBEE4FF126CBE7B
:100FBE007F04126CBE7F0C126CBEE4FF126CBE7FFF
:100FCE0001126CBE7F07126CBE7F14126CBE7F01C5
:100FDE00126CBEE4FF126CBE7F01126CBE7F0C124F
:100FEE006CBE7F13126CBEE4FF126CBEE4FF126C7B
:100FFE00BEE4FF126CBE7F01126CBEE4FF126CBE2B
:10100E007F02126CBE7F0C126CBEE4FF126CBEE44B
:10101E00FF126CBEE4FF126CBEE4FF126CBE7F01C9
:10102E00126CBEE4FF126CBE7F03126CBE7F0C12FC
:10103E006CBE7F60126CBE7F0E126CBE7F18126C7F
:10104E00BEE4FF126CBE7F01126CBEE4FF126CBEDA
:10105E007F04126CBE7F0C126CBEE4FF126CBE7F5E
:10106E0001126CBE7F07126CBE7F14126CBE7F0124
:10107E00126CBEE4FF126CBE7F01126CBE7F0C12AE
:10108E006CBE7F14126CBEE4FF126CBEE4FF126CD9
:10109E00BEE4FF126CBE7F01126CBEE4FF126CBE8A
:1010AE007F02126CBE7F0C126CBEE4FF126CBEE4AB
:1010BE00FF126CBEE4FF126CBEE4FF126CBE7F0129
:1010CE00126CBEE4FF126CBE7F03126CBE7F0C125C
:1010DE006CBE7F60126CBE7F0E126CBE7F18126CDF
:1010EE00BEE4FF126CBE7F01126CBEE4FF126CBE3A
:1010FE007F04126CBE7F0C126CBEE4FF126CBE7FBE
:10110E0001126CBE7F07126CBE7F14126CBE7F0183
:10111E00126CBEE4FF126CBE7F01126CBE7F0C120D
:10112E006CBE7F15126CBEE4FF126CBEE4FF126C37
:10113E00BEE4FF126CBE7F01126CBEE4FF126CBEE9
:10114E007F02126CBE7F0C126CBEE4FF126CBEE40A
:10115E00FF126CBEE4FF126CBEE4FF126CBE7F0188
:10116E00126CBEE4FF126CBE7F03126CBE7F0C12BB
:10117E006CBE7F60126CBE7F0E126CBE7F18126C3E
:10118E00BEE4FF126CBE7F01126CBEE4FF126CBE99
:10119E007F04126CBE7F0C126CBEE4FF126CBE7F1D
:1011AE0001126CBE7F07126CBE7F14126CBE7F01E3
:1011BE00126CBEE4FF126CBE7F01126CBE7F0C126D
:1011CE006CBE7F16126CBEE4FF126CBEE4FF126C96
:1011DE00BEE4FF126CBE7F01126CBEE4FF126CBE49
:1011EE007F02126CBE7F0C126CBEE4FF126CBEE46A
:1011FE00FF126CBEE4FF126CBEE4FF126CBE7F01E8
:10120E00126CBEE4FF126CBE7F03126CBE7F0C121A
:10121E006CBE7F60126CBE7F0E126CBE7F18126C9D
:10122E00BEE4FF126CBE7F01126CBEE4FF126CBEF8
:10123E007F04126CBE7F0C126CBEE4FF126CBE7F7C
:10124E0001126CBE7F07126CBE7F14126CBE7F0142
:10125E00126CBEE4FF126CBE7F01126CBE7F0C12CC
:10126E006CBE7F17126CBEE4FF126CBEE4FF126CF4
:10127E00BEE4FF126CBE7F01126CBEE4FF126CBEA8
:10128E007F02126CBE7F0C126CBEE4FF126CBEE4C9
:10129E00FF126CBEE4FF126CBEE4FF126CBE7F0147
:1012AE00126CBEE4FF126CBE7F03126CBE7F0C127A
:1012BE006CBE7F60126CBE7F0E126CBE7F18126CFD
:1012CE00BEE4FF126CBE7F01126CBEE4FF126CBE58
:1012DE007F04126CBE7F0C126CBEE4FF126CBE7FDC
:1012EE0001126CBE7F07126CBE7F14126CBE7F01A2
:1012FE00126CBEE4FF126CBE7F01126CBE7F0C122C
:10130E006CBE7F18126CBEE4FF126CBEE4FF126C52
:10131E00BEE4FF126CBE7F01126CBEE4FF126CBE07
:10132E007F02126CBE7F0C126CBEE4FF126CBEE428
:10133E00FF126CBEE4FF126CBEE4FF126CBE7F01A6
:10134E00126CBEE4FF126CBE7F03126CBE7F0C12D9
:10135E006CBE7F60126CBE7F0E126CBE7F18126C5C
:10136E00BEE4FF126CBE7F01126CBEE4FF126CBEB7
:10137E007F04126CBE7F0C126CBEE4FF126CBE7F3B
:10138E0001126CBE7F07126CBE7F14126CBE7F0101
:10139E00126CBEE4FF126CBE7F01126CBE7F0C128B
:1013AE006CBE7F19126CBEE4FF126CBEE4FF126CB1
:1013BE00BEE4FF126CBE7F01126CBEE4FF126CBE67
:1013CE007F02126CBE7F0C126CBEE4FF126CBEE488
:1013DE00FF126CBEE4FF126CBEE4FF126CBE7F0106
:1013EE00126CBEE4FF126CBE7F03126CBE7F0C1239
:1013FE006CBE7F60126CBE7F0E126CBE7F18126CBC
:10140E00BEE4FF126CBE7F01126CBEE4FF126CBE16
:10141E007F04126CBE7F0C126CBEE4FF126CBE7F9A
:10142E0001126CBE7F07126CBE7F14126CBE7F0160
:10143E00126CBEE4FF126CBE7F01126CBE7F0C12EA
:10144E006CBE7F1A126CBEE4FF126CBEE4FF126C0F
:10145E00BEE4FF126CBE7F01126CBEE4FF126CBEC6
:10146E007F02126CBE7F0C126CBEE4FF126CBEE4E7
:10147E00FF126CBEE4FF126CBEE4FF126CBE7F0165
:10148E00126CBEE4FF126CBE7F03126CBE7F0C1298
:10149E006CBE7F60126CBE7F0E126CBE7F18126C1B
:1014AE00BEE4FF126CBE7F01126CBEE4FF126CBE76
:1014BE007F04126CBE7F0C126CBEE4FF126CBE7FFA
:1014CE0001126CBE7F07126CBE7F14126CBE7F01C0
:1014DE00126CBEE4FF126CBE7F01126CBE7F0C124A
:1014EE006CBE7F1B126CBEE4FF126CBEE4FF126C6E
:1014FE00BEE4FF126CBE7F01126CBEE4FF126CBE26
:10150E007F02126CBE7F0C126CBEE4FF126CBEE446
:10151E00FF126CBEE4FF126CBEE4FF126CBE7F01C4
:10152E00126CBEE4FF126CBE7F03126CBE7F0C12F7
:10153E006CBE7F60126CBE7F0E126CBE7F18126C7A
:10154E00BEE4FF126CBE7F01126CBEE4FF126CBED5
:10155E007F04126CBE7F0C126CBEE4FF126CBE7F59
:10156E0001126CBE7F07126CBE7F14126CBE7F011F
:10157E00126CBEE4FF126CBE7F01126CBE7F0C12A9
:10158E006CBE7F1C126CBEE4FF126CBEE4FF126CCC
:10159E00BEE4FF126CBE7F01126CBEE4FF126CBE85
:1015AE007F02126CBE7F0C126CBEE4FF126CBEE4A6
:1015BE00FF126CBEE4FF126CBEE4FF126CBE7F0124
:1015CE00126CBEE4FF126CBE7F03126CBE7F0C1257
:1015DE006CBE7F60126CBE7F0E126CBE7F18126CDA
:1015EE00BEE4FF126CBE7F01126CBEE4FF126CBE35
:1015FE007F04126CBE7F0C126CBEE4FF126CBE7FB9
:10160E0001126CBE7F07126CBE7F14126CBE7F017E
:10161E00126CBEE4FF126CBE7F01126CBE7F0C1208
:10162E006CBE7F1D126CBEE4FF126CBEE4FF126C2A
:10163E00BEE4FF126CBE7F01126CBEE4FF126CBEE4
:10164E007F02126CBE7F0C126CBEE4FF126CBEE405
:10165E00FF126CBEE4FF126CBEE4FF126CBE7F0183
:10166E00126CBEE4FF126CBE7F03126CBE7F0C12B6
:10167E006CBE7F60126CBE7F0E126CBE7F18126C39
:10168E00BEE4FF126CBE7F01126CBEE4FF126CBE94
:10169E007F04126CBE7F0C126CBEE4FF126CBE7F18
:1016AE0001126CBE7F07126CBE7F14126CBE7F01DE
:1016BE00126CBEE4FF126CBE7F01126CBE7F0C1268
:1016CE006CBE7F1E126CBEE4FF126CBEE4FF126C89
:1016DE00BEE4FF126CBE7F01126CBEE4FF126CBE44
:1016EE007F02126CBE7F0C126CBEE4FF126CBEE465
:1016FE00FF126CBEE4FF126CBEE4FF126CBE7F01E3
:10170E00126CBEE4FF126CBE7F03126CBE7F0C1215
:10171E006CBE7F60126CBE7F0E126CBE7F18126C98
:10172E00BEE4FF126CBE7F01126CBEE4FF126CBEF3
:10173E007F04126CBE7F0C126CBEE4FF126CBE7F77
:10174E0001126CBE7F07126CBE7F14126CBE7F013D
:10175E00126CBEE4FF126CBE7F01126CBE7F0C12C7
:10176E006CBE7F1F126CBEE4FF126CBEE4FF126CE7
:10177E00BEE4FF126CBE7F01126CBEE4FF126CBEA3
:10178E007F02126CBE7F0C126CBEE4FF126CBEE4C4
:10179E00FF126CBEE4FF126CBEE4FF126CBE7F0142
:1017AE00126CBEE4FF126CBE7F03126CBE7F0C1275
:1017BE006CBE7F60126CBE7F0E126CBE7F18126CF8
:1017CE00BEE4FF126CBE7F01126CBEE4FF126CBE53
:1017DE007F04126CBE7F0C126CBEE4FF126CBE7FD7
:1017EE0001126CBE7F07126CBE7F14126CBE7F019D
:1017FE00126CBEE4FF126CBE7F01126CBE7F0C1227
:10180E006CBE7F20126CBEE4FF126CBEE4FF126C45
:10181E00BEE4FF126CBE7F01126CBEE4FF126CBE02
:10182E007F02126CBE7F0C126CBEE4FF126CBEE423
:10183E00FF126CBEE4FF126CBEE4FF126CBE7F01A1
:10184E00126CBEE4FF126CBE7F03126CBE7F0C12D4
:10185E006CBE7F60126CBE7F0E126CBE7F18126C57
:10186E00BEE4FF126CBE7F01126CBEE4FF126CBEB2
:10187E007F04126CBE7F0C126CBEE4FF126CBE7F36
:10188E0001126CBE7F07126CBE7F14126CBE7F01FC
:10189E00126CBEE4FF126CBE7F01126CBE7F0C1286
:1018AE006CBE7F21126CBEE4FF126CBEE4FF126CA4
:1018BE00BEE4FF126CBE7F01126CBEE4FF126CBE62
:1018CE007F02126CBE7F0C126CBEE4FF126CBEE483
:1018DE00FF126CBEE4FF126CBEE4FF126CBE7F0101
:1018EE00126CBEE4FF126CBE7F03126CBE7F0C1234
:1018FE006CBE7F60126CBE7F0E126CBE7F18126CB7
:10190E00BEE4FF126CBE7F01126CBEE4FF126CBE11
:10191E007F04126CBE7F0C126CBEE4FF126CBE7F95
:10192E0001126CBE7F07126CBE7F14126CBE7F015B
:10193E00126CBEE4FF126CBE7F01126CBE7F0C12E5
:10194E006CBE7F22126CBEE4FF126CBEE4FF126C02
:10195E00BEE4FF126CBE7F01126CBEE4FF126CBEC1
:10196E007F02126CBE7F0C126CBEE4FF126CBEE4E2
:10197E00FF126CBEE4FF126CBEE4FF126CBE7F0160
:10198E00126CBEE4FF126CBE7F03126CBE7F0C1293
:10199E006CBE7F60126CBE7F0E126CBE7F18126C16
:1019AE00BEE4FF126CBE7F01126CBEE4FF126CBE71
:1019BE007F04126CBE7F0C126CBEE4FF126CBE7FF5
:1019CE0001126CBE7F07126CBE7F14126CBE7F01BB
:1019DE00126CBEE4FF126CBE7F01126CBE7F0C1245
:1019EE006CBE7F23126CBEE4FF126CBEE4FF126C61
:1019FE00BEE4FF126CBE7F01126CBEE4FF126CBE21
:101A0E007F02126CBE7F0C126CBEE4FF126CBEE441
:101A1E00FF126CBEE4FF126CBEE4FF126CBE7F01BF
:101A2E00126CBEE4FF126CBE7F03126CBE7F0C12F2
:101A3E006CBE7F60126CBE7F0E126CBE7F18126C75
:101A4E00BEE4FF126CBE7F01126CBEE4FF126CBED0
:101A5E007F04126CBE7F0C126CBEE4FF126CBE7F54
:101A6E0001126CBE7F07126CBE7F14126CBE7F011A
:101A7E00126CBEE4FF126CBE7F01126CBE7F0C12A4
:101A8E006CBE7F24126CBEE4FF126CBEE4FF126CBF
:101A9E00BEE4FF126CBE7F01126CBEE4FF126CBE80
:101AAE007F02126CBE7F0C126CBEE4FF126CBEE4A1
:101ABE00FF126CBEE4FF126CBEE4FF126CBE7F011F
:101ACE00126CBEE4FF126CBE7F03126CBE7F0C1252
:101ADE006CBE7F60126CBE7F0E126CBE7F18126CD5
:101AEE00BEE4FF126CBE7F01126CBEE4FF126CBE30
:101AFE007F04126CBE7F0C126CBEE4FF126CBE7FB4
:101B0E0001126CBE7F07126CBE7F14126CBE7F0179
:101B1E00126CBEE4FF126CBE7F01126CBE7F0C1203
:101B2E006CBE7F25126CBEE4FF126CBEE4FF126C1D
:101B3E00BEE4FF126CBE7F01126CBEE4FF126CBEDF
:101B4E007F02126CBE7F0C126CBEE4FF126CBEE400
:101B5E00FF126CBEE4FF126CBEE4FF126CBE7F017E
:101B6E00126CBEE4FF126CBE7F03126CBE7F0C12B1
:101B7E006CBE7F60126CBE7F0E126CBE7F18126C34
:101B8E00BEE4FF126CBE7F01126CBEE4FF126CBE8F
:101B9E007F04126CBE7F0C126CBEE4FF126CBE7F13
:101BAE0001126CBE7F07126CBE7F14126CBE7F01D9
:101BBE00126CBEE4FF126CBE7F01126CBE7F0C1263
:101BCE006CBE7F26126CBEE4FF126CBEE4FF126C7C
:101BDE00BEE4FF126CBE7F01126CBEE4FF126CBE3F
:101BEE007F02126CBE7F0C126CBEE4FF126CBEE460
:101BFE00FF126CBEE4FF126CBEE4FF126CBE7F01DE
:101C0E00126CBEE4FF126CBE7F03126CBE7F0C1210
:101C1E006CBE7F60126CBE7F0E126CBE7F18126C93
:101C2E00BEE4FF126CBE7F01126CBEE4FF126CBEEE
:101C3E007F04126CBE7F0C126CBEE4FF126CBE7F72
:101C4E0001126CBE7F07126CBE7F14126CBE7F0138
:101C5E00126CBEE4FF126CBE7F01126CBE7F0C12C2
:101C6E006CBE7F27126CBEE4FF126CBEE4FF126CDA
:101C7E00BEE4FF126CBE7F01126CBEE4FF126CBE9E
:101C8E007F02126CBE7F0C126CBEE4FF126CBEE4BF
:101C9E00FF126CBEE4FF126CBEE4FF126CBE7F013D
:101CAE00126CBEE4FF126CBE7F03126CBE7F0C1270
:101CBE006CBE7F60126CBE7F0E126CBE7F18126CF3
:101CCE00BEE4FF126CBE7F01126CBEE4FF126CBE4E
:101CDE007F04126CBE7F0C126CBEE4FF126CBE7FD2
:101CEE0001126CBE7F07126CBE7F14126CBE7F0198
:101CFE00126CBEE4FF126CBE7F01126CBE7F0C1222
:101D0E006CBE7F28126CBEE4FF126CBEE4FF126C38
:101D1E00BEE4FF126CBE7F01126CBEE4FF126CBEFD
:101D2E007F02126CBE7F0C126CBEE4FF126CBEE41E
:101D3E00FF126CBEE4FF126CBEE4FF126CBE7F019C
:101D4E00126CBEE4FF126CBE7F03126CBE7F0C12CF
:101D5E006CBE7F60126CBE7F0E126CBE7F18126C52
:101D6E00BEE4FF126CBE7F01126CBEE4FF126CBEAD
:101D7E007F04126CBE7F0C126CBEE4FF126CBE7F31
:101D8E0001126CBE7F07126CBE7F14126CBE7F01F7
:101D9E00126CBEE4FF126CBE7F01126CBE7F0C1281
:101DAE006CBE7F29126CBEE4FF126CBEE4FF126C97
:101DBE00BEE4FF126CBE7F01126CBEE4FF126CBE5D
:101DCE007F02126CBE7F0C126CBEE4FF126CBEE47E
:101DDE00FF126CBEE4FF126CBEE4FF126CBE7F01FC
:101DEE00126CBEE4FF126CBE7F03126CBE7F0C122F
:101DFE006CBE7F60126CBE7F0E126CBE7F18126CB2
:101E0E00BEE4FF126CBE7F01126CBEE4FF126CBE0C
:101E1E007F04126CBE7F0C126CBEE4FF126CBE7F90
:101E2E0001126CBE7F07126CBE7F14126CBE7F0156
:101E3E00126CBEE4FF126CBE7F01126CBE7F0C12E0
:101E4E006CBE7F2A126CBEE4FF126CBEE4FF126CF5
:101E5E00BEE4FF126CBE7F01126CBEE4FF126CBEBC
:101E6E007F02126CBE7F0C126CBEE4FF126CBEE4DD
:101E7E00FF126CBEE4FF126CBEE4FF126CBE7F015B
:101E8E00126CBEE4FF126CBE7F03126CBE7F0C128E
:101E9E006CBE7F60126CBE7F0E126CBE7F18126C11
:101EAE00BEE4FF126CBE7F01126CBEE4FF126CBE6C
:101EBE007F04126CBE7F0C126CBEE4FF126CBE7FF0
:101ECE0001126CBE7F07126CBE7F14126CBE7F01B6
:101EDE00126CBEE4FF126CBE7F01126CBE7F0C1240
:101EEE006CBE7F2B126CBEE4FF126CBEE4FF126C54
:101EFE00BEE4FF126CBE7F01126CBEE4FF126CBE1C
:101F0E007F02126CBE7F0C126CBEE4FF126CBEE43C
:101F1E00FF126CBEE4FF126CBEE4FF126CBE7F01BA
:101F2E00126CBEE4FF126CBE7F03126CBE7F0C12ED
:101F3E006CBE7F60126CBE7F0E126CBE7F18126C70
:101F4E00BEE4FF126CBE7F01126CBEE4FF126CBECB
:101F5E007F04126CBE7F0C126CBEE4FF126CBE7F4F
:101F6E0001126CBE7F07126CBE7F14126CBE7F0115
:101F7E00126CBEE4FF126CBE7F01126CBE7F0C129F
:101F8E006CBE7F2C126CBEE4FF126CBEE4FF126CB2
:101F9E00BEE4FF126CBE7F01126CBEE4FF126CBE7B
:101FAE007F02126CBE7F0C126CBEE4FF126CBEE49C
:101FBE00FF126CBEE4FF126CBEE4FF126CBE7F011A
:101FCE00126CBEE4FF126CBE7F03126CBE7F0C124D
:101FDE006CBE7F60126CBE7F0E126CBE7F18126CD0
:101FEE00BEE4FF126CBE7F01126CBEE4FF126CBE2B
:101FFE007F04126CBE7F0C126CBEE4FF126CBE7FAF
:10200E0001126CBE7F07126CBE7F14126CBE7F0174
:10201E00126CBEE4FF126CBE7F01126CBE7F0C12FE
:10202E006CBE7F2D126CBEE4FF126CBEE4FF126C10
:10203E00BEE4FF126CBE7F01126CBEE4FF126CBEDA
:10204E007F02126CBE7F0C126CBEE4FF126CBEE4FB
:10205E00FF126CBEE4FF126CBEE4FF126CBE7F0179
:10206E00126CBEE4FF126CBE7F03126CBE7F0C12AC
:10207E006CBE7F60126CBE7F0E126CBE7F18126C2F
:10208E00BEE4FF126CBE7F01126CBEE4FF126CBE8A
:10209E007F04126CBE7F0C126CBEE4FF126CBE7F0E
:1020AE0001126CBE7F07126CBE7F14126CBE7F01D4
:1020BE00126CBEE4FF126CBE7F01126CBE7F0C125E
:1020CE006CBE7F2E126CBEE4FF126CBEE4FF126C6F
:1020DE00BEE4FF126CBE7F01126CBEE4FF126CBE3A
:1020EE007F02126CBE7F0C126CBEE4FF126CBEE45B
:1020FE00FF126CBEE4FF126CBEE4FF126CBE7F01D9
:10210E00126CBEE4FF126CBE7F03126CBE7F0C120B
:10211E006CBE7F60126CBE7F0E126CBE7F18126C8E
:10212E00BEE4FF126CBE7F01126CBEE4FF126CBEE9
:10213E007F04126CBE7F0C126CBEE4FF126CBE7F6D
:10214E0001126CBE7F07126CBE7F14126CBE7F0133
:10215E00126CBEE4FF126CBE7F01126CBE7F0C12BD
:10216E006CBE7F2F126CBEE4FF126CBEE4FF126CCD
:10217E00BEE4FF126CBE7F01126CBEE4FF126CBE99
:10218E007F02126CBE7F0C126CBEE4FF126CBEE4BA
:10219E00FF126CBEE4FF126CBEE4FF126CBE7F0138
:1021AE00126CBEE4FF126CBE7F03126CBE7F0C126B
:1021BE006CBE7F60126CBE7F0E126CBE7F18126CEE
:1021CE00BEE4FF126CBE7F01126CBEE4FF126CBE49
:1021DE007F04126CBE7F0C126CBEE4FF126CBE7FCD
:1021EE0001126CBE7F07126CBE7F14126CBE7F0193
:1021FE00126CBEE4FF126CBE7F01126CBE7F0C121D
:10220E006CBE7F30126CBEE4FF126CBEE4FF126C2B
:10221E00BEE4FF126CBE7F01126CBEE4FF126CBEF8
:10222E007F02126CBE7F0C126CBEE4FF126CBEE419
:10223E00FF126CBEE4FF126CBEE4FF126CBE7F0197
:10224E00126CBEE4FF126CBE7F03126CBE7F0C12CA
:10225E006CBE7F60126CBE7F0E126CBE7F18126C4D
:10226E00BEE4FF126CBE7F01126CBEE4FF126CBEA8
:10227E007F04126CBE7F0C126CBEE4FF126CBE7F2C
:10228E0001126CBE7F07126CBE7F14126CBE7F01F2
:10229E00126CBEE4FF126CBE7F01126CBE7F0C127C
:1022AE006CBE7F31126CBEE4FF126CBEE4FF126C8A
:1022BE00BEE4FF126CBE7F01126CBEE4FF126CBE58
:1022CE007F02126CBE7F0C126CBEE4FF126CBEE479
:1022DE00FF126CBEE4FF126CBEE4FF126CBE7F01F7
:1022EE00126CBEE4FF126CBE7F03126CBE7F0C122A
:1022FE006CBE7F60126CBE7F0E126CBE7F18126CAD
:10230E00BEE4FF126CBE7F01126CBEE4FF126CBE07
:10231E007F04126CBE7F0C126CBEE4FF126CBE7F8B
:0F232E0001126CBE7F07126CBE7F14126CBE22B0
:05233D0090039EEFF08B
:102342009003A07424F078A17C037D017BFF7A5274
:1023520079BD7E00FF123ED79003C57408F078C69F
:102362007C037D017BFF7A5279E17E00FF123ED72A
:102372009003CE7408F078CF7C037D017BFF7A5204
:1023820079E97E00FF123ED79003D77408F078D81F
:102392007C037D017BFF7A5279F17E00FF123ED7EA
:1023A2009003E07408F078E17C037D017BFF7A52B0
:1023B20079F97E00FF123ED79003E97408F078EABB
:1023C2007C037D017BFF7A5379017E00FF123ED7A9
:1023D2009003F27408F078F37C037D017BFF7A535B
:1023E20079097E00FF123ED79003FB7408F078FC57
:1023F2007C037D017BFF7A5379117E00FF123ED769
:102402009004047408F078057C047D017BFF7A5304
:1024120079197E00FF123ED790040D7408F0780EF1
:102422007C047D017BFF7A5379217E00FF123ED727
:102432009004167408F078177C047D017BFF7A53B0
:1024420079297E00FF123ED790041F7408F078208D
:102452007C047D017BFF7A5379317E00FF123ED7E7
:102462009004287408F078297C047D017BFF7A535C
:1024720079397E00FF123ED79004317408F0783229
:102482007C047D017BFF7A5379417E00FF123ED7A7
:1024920090043A7408F0783B7C047D017BFF7A5308
:1024A20079497E00FF123ED79004437408F07844C5
:1024B2007C047D017BFF7A5379517E00FF123ED767
:1024C20090044C7408F0784D7C047D017BFF7A53B4
:1024D20079597E00FF123ED79004557408F0785661
:1024E2007C047D017BFF7A5379617E00FF123ED727
:1024F20090045E7408F0785F7C047D017BFF7A5360
:1025020079697E00FF123ED79004677408F07868FC
:102512007C047D017BFF7A5379717E00FF123ED7E6
:102522009004707408F078717C047D017BFF7A530B
:1025320079797E00FF123ED79004797408F0787A98
:102542007C047D017BFF7A5379817E00FF123ED7A6
:102552009004827408F078837C047D017BFF7A53B7
:1025620079897E00FF123ED7E490048BF0788C7C50
:10257200047D017BFF7A537991FE7F01123ED79051
:10258200048D7408F0788E7C047D017BFF7A537988
:10259200927E00FF123ED79004967408F078977CE2
:1025A200047D017BFF7A53799A7E00FF123ED79019
:1025B200049F7408F078A07C047D017BFF7A537934
:1025C200A27E00FF123ED79004A87408F078A97C7E
:1025D200047D017BFF7A5379AA7E00FF123ED790D9
:1025E20004B17408F078B27C047D017BFF7A5379E0
:1025F200B27E00FF123ED79004BA7408F078BB7C1A
:10260200047D017BFF7A5379BA7E00FF123ED79098
:1026120004C37420F078C47C047D017BFF7A537973
:10262200C27E00FF123ED79004E47408F078E57C85
:10263200047D017BFF7A5379E27E00FF123ED79040
:1026420004ED7408F078EE7C047D017BFF7A537907
:10265200EA7E00FF123ED790039EE014B4210040B0
:102662000302304B90267475F003A4C58325F0C590
:1026720083730226D70227250227730227C1022865
:102682000F02285D0228AB0228F902294702299588
:102692000229E3022A31022A7F022ACD022B1B02DF
:1026A2002B69022BB7022C05022C53022CA1022CFF
:1026B200A4022CF2022D40022D8E022DDC022E2AC3
:1026C200022E78022EC6022F14022F62022CA102C1
:1026D2002FB0022FFDE490039FF09003A0E0FF9043
:1026E200039FE0FEC3EF6480F8EE6480984003022B
:1026F200304EE0FFFD3395E0FC74A12DF5827403AA
:102702003CF583E0FEEF3395E0FC74A82DF582746E
:10271200013CF583E06E600302303D90039FE004CC
:10272200F080B7E490039FF09003C5E0FF90039F11
:10273200E0FEC3EF6480F8EE648098400302304EFE
:10274200E0FFFD3395E0FC74C62DF58274033CF581
:1027520083E0FEEF3395E0FC74A82DF58274013C12
:10276200F583E06E600302303D90039FE004F08049
:10277200B7E490039FF09003CEE0FF90039FE0FE4A
:10278200C3EF6480F8EE648098400302304EE0FFAD
:10279200FD3395E0FC74CF2DF58274033CF583E0A4
:1027A200FEEF3395E0FC74A82DF58274013CF583AD
:1027B200E06E600302303D90039FE004F080B7E4D6
:1027C20090039FF09003D7E0FF90039FE0FEC3EFDA
:1027D2006480F8EE648098400302304EE0FFFD33DF
:1027E20095E0FC74D82DF58274033CF583E0FEEF8E
:1027F2003395E0FC74A82DF58274013CF583E06EFC
:10280200600302303D90039FE004F080B7E4900340
:102812009FF09003E0E0FF90039FE0FEC3EF64802F
:10282200F8EE648098400302304EE0FFFD3395E0FD
:10283200FC74E12DF58274033CF583E0FEEF3395E1
:10284200E0FC74A82DF58274013CF583E06E600310
:1028520002303D90039FE004F080B7E490039FF0C4
:102862009003E9E0FF90039FE0FEC3EF6480F8EE7F
:10287200648098400302304EE0FFFD3395E0FC7423
:10288200EA2DF58274033CF583E0FEEF3395E0FC1C
:1028920074A82DF58274013CF583E06E600302306A
:1028A2003D90039FE004F080B7E490039FF0900313
:1028B200F2E0FF90039FE0FEC3EF6480F8EE6480D5
:1028C20098400302304EE0FFFD3395E0FC74F32D97
:1028D200F58274033CF583E0FEEF3395E0FC74A8C7
:1028E2002DF58274013CF583E06E600302303D9069
:1028F200039FE004F080B7E490039FF09003FBE0B5
:10290200FF90039FE0FEC3EF6480F8EE648098407E
:102912000302304EE0FFFD3395E0FC74FC2DF5829E
:1029220074033CF583E0FEEF3395E0FC74A82DF5CB
:102932008274013CF583E06E600302303D90039F98
:10294200E004F080B7E490039FF0900404E0FF906D
:10295200039FE0FEC3EF6480F8EE648098400302B8
:10296200304EE0FFFD3395E0FC74052DF5827404D2
:102972003CF583E0FEEF3395E0FC74A82DF58274FC
:10298200013CF583E06E600302303D90039FE0045A
:10299200F080B7E490039FF090040DE0FF90039F56
:1029A200E0FEC3EF6480F8EE648098400302304E8C
:1029B200E0FFFD3395E0FC740E2DF58274043CF5C6
:1029C20083E0FEEF3395E0FC74A82DF58274013CA0
:1029D200F583E06E600302303D90039FE004F080D7
:1029E200B7E490039FF0900416E0FF90039FE0FE8F
:1029F200C3EF6480F8EE648098400302304EE0FF3B
:102A0200FD3395E0FC74172DF58274043CF583E0E8
:102A1200FEEF3395E0FC74A82DF58274013CF5833A
:102A2200E06E600302303D90039FE004F080B7E463
:102A320090039FF090041FE0FF90039FE0FEC3EF1E
:102A42006480F8EE648098400302304EE0FFFD336C
:102A520095E0FC74202DF58274043CF583E0FEEFD2
:102A62003395E0FC74A82DF58274013CF583E06E89
:102A7200600302303D90039FE004F080B7E49003CE
:102A82009FF0900428E0FF90039FE0FEC3EF648074
:102A9200F8EE648098400302304EE0FFFD3395E08B
:102AA200FC74292DF58274043CF583E0FEEF339526
:102AB200E0FC74A82DF58274013CF583E06E60039E
:102AC20002303D90039FE004F080B7E490039FF052
:102AD200900431E0FF90039FE0FEC3EF6480F8EEC4
:102AE200648098400302304EE0FFFD3395E0FC74B1
:102AF200322DF58274043CF583E0FEEF3395E0FC61
:102B020074A82DF58274013CF583E06E60030230F7
:102B12003D90039FE004F080B7E490039FF090049F
:102B22003AE0FF90039FE0FEC3EF6480F8EE64801A
:102B320098400302304EE0FFFD3395E0FC743B2DDC
:102B4200F58274043CF583E0FEEF3395E0FC74A853
:102B52002DF58274013CF583E06E600302303D90F6
:102B6200039FE004F080B7E490039FF0900443E0F9
:102B7200FF90039FE0FEC3EF6480F8EE648098400C
:102B82000302304EE0FFFD3395E0FC74442DF582E4
:102B920074043CF583E0FEEF3395E0FC74A82DF558
:102BA2008274013CF583E06E600302303D90039F26
:102BB200E004F080B7E490039FF090044CE0FF90B3
:102BC200039FE0FEC3EF6480F8EE64809840030246
:102BD200304EE0FFFD3395E0FC744D2DF582740418
:102BE2003CF583E0FEEF3395E0FC74A82DF582748A
:102BF200013CF583E06E600302303D90039FE004E8
:102C0200F080B7E490039FF0900455E0FF90039F9B
:102C1200E0FEC3EF6480F8EE648098400302304E19
:102C2200E0FFFD3395E0FC74562DF58274043CF50B
:102C320083E0FEEF3395E0FC74A82DF58274013C2D
:102C4200F583E06E600302303D90039FE004F08064
:102C5200B7E490039FF090045EE0FF90039FE0FED4
:102C6200C3EF6480F8EE648098400302304EE0FFC8
:102C7200FD3395E0FC745F2DF58274043CF583E02E
:102C8200FEEF3395E0FC74A82DF58274013CF583C8
:102C9200E06E600302303D90039FE004F080B77F56
:102CA2000022E490039FF0900470E0FF90039FE005
:102CB200FEC3EF6480F8EE648098400302304EE079
:102CC200FFFD3395E0FC74712DF58274043CF583AD
:102CD200E0FEEF3395E0FC74A82DF58274013CF51B
:102CE20083E06E600302303D90039FE004F080B702
:102CF200E490039FF0900479E0FF90039FE0FEC30D
:102D0200EF6480F8EE648098400302304EE0FFFDED
:102D12003395E0FC747A2DF58274043CF583E0FE71
:102D2200EF3395E0FC74A82DF58274013CF583E045
:102D32006E600302303D90039FE004F080B7E490A0
:102D4200039FF0900482E0FF90039FE0FEC3EF64D4
:102D520080F8EE648098400302304EE0FFFD339528
:102D6200E0FC74832DF58274043CF583E0FEEF33BE
:102D720095E0FC74A82DF58274013CF583E06E6049
:102D82000302303D90039FE004F080B7E490039F7C
:102D9200F090048BE0FF90039FE0FEC3EF6480F8A5
:102DA200EE648098400302304EE0FFFD3395E0FC74
:102DB200748C2DF58274043CF583E0FEEF3395E0CC
:102DC200FC74A82DF58274013CF583E06E60030269
:102DD200303D90039FE004F080B7E490039FF090B1
:102DE200048DE0FF90039FE0FEC3EF6480F8EE6481
:102DF2008098400302304EE0FFFD3395E0FC748E74
:102E02002DF58274043CF583E0FEEF3395E0FC740B
:102E1200A82DF58274013CF583E06E600302303D1B
:102E220090039FE004F080B7E490039FF090049633
:102E3200E0FF90039FE0FEC3EF6480F8EE648098A9
:102E4200400302304EE0FFFD3395E0FC74972DF510
:102E52008274043CF583E0FEEF3395E0FC74A82D08
:102E6200F58274013CF583E06E600302303D90030D
:102E72009FE004F080B7E490039FF090049FE0FF8E
:102E820090039FE0FEC3EF6480F8EE6480984003F5
:102E920002304EE0FFFD3395E0FC74A02DF5827404
:102EA200043CF583E0FEEF3395E0FC74A82DF58237
:102EB20074013CF583E06E600302303D90039FE0B5
:102EC20004F080B7E490039FF09004A8E0FF900321
:102ED2009FE0FEC3EF6480F8EE6480984003023006
:102EE2004EE0FFFD3395E0FC74A92DF58274043C9D
:102EF200F583E0FEEF3395E0FC74A82DF5827401B2
:102F02003CF583E06E600302303D90039FE004F0E5
:102F120080B7E490039FF09004B1E0FF90039FE03C
:102F2200FEC3EF6480F8EE648098400302304EE006
:102F3200FFFD3395E0FC74B22DF58274043CF583F9
:102F4200E0FEEF3395E0FC74A82DF58274013CF5A8
:102F520083E06E600302303D90039FE004F080B78F
:102F6200E490039FF09004BAE0FF90039FE0FEC359
:102F7200EF6480F8EE648098400302304EE0FFFD7B
:102F82003395E0FC74BB2DF58274043CF583E0FEBE
:102F9200EF3395E0FC74A82DF58274013CF583E0D3
:102FA2006E600302303D90039FE004F080B7E4902E
:102FB200039FF09004E4E0FF90039FE0FEC3EF6400
:102FC20080F8EE648098400302304EE0FFFD3395B6
:102FD200E0FC74E52DF58274043CF583E0FEEF33EA
:102FE20095E0FC74A82DF58274013CF583E06E60D7
:102FF20002804890039FE004F080B8E490039FF0C1
:103002009004EDE0FF90039FE0FEC3EF6480F8EED2
:103012006480985037E0FFFD3395E0FC74EE2DF5A7
:103022008274043CF583E0FEEF3395E0FC74A82D36
:10303200F58274013CF583E06E600690039EE0FF2A
:0E3042002290039FE004F080B77F00227F0001
:01305000225D
:106BCE00E4F5957596FFC2A1C2A253E1EF43E21020
:016BDE002294
:096BF0007F0F126BF9D2FC7F0F3C
:076BF900AE071FEE70FA2247
:02682900AB07BB
:10682B007A80C2A3EDB40104C2A48002D2A4EAD33D
:10683B0094004011C2FCEA5B24FF92A7126BF0EAB2
:0E684B00C313FA80E9C2FCD2A7126BF0D2A3ED
:01685900221C
:106B25003EF583E5822DF582E43583F583E493FF15
:056B3500E4FD026829E7
:076CA7007FAE126CAE7F8D81
:056CAE007D01026829D0
:105FE900E4FFFE900502F0A3F00FBF00010EBE759D
:105FF900F8BF30F57FAE126CAE7FD5126CAE7F80E4
:10600900126CAE7FA8126CAE7F27126CAE7FD312D2
:106019006CAEE4FF126CAE7F40126CA97F14126C57
:10602900AE7FA1126CAE7FC8126CAE7FDA126CAE75
:106039007F12126CAE7F81126CAE7FAF126CAE7F95
:10604900D9126CAE7F25126CAE7FDB126CAE7F204D
:10605900126CAE7FA4126CAE7FA6126CAE7FAF122B
:056069006CAE0268BBF3
:106C0000126CA77F10126CAE126C89C2E9026C7A0A
:0B6CB300126CA77F10126CAEC2E92229
:106BDF00D2E97F8D126CAE7F14126CAE7FAF026C58
:016BEF00AEF7
:066C9800F0EB540FA3F025
:096C9E00EF540F44B0FF026CAE8C
:0869B200FF126C9EE92408FFAE
:1069BA00AC0774202CFC540FFF126CAEAF04EFC46A
:0869CA00540F4410FF026CAEF3
:1068BB00E4900504F0900504E0FFC394055020E438
:1068CB00F9126C9EE4FF1269BAE9C394605008E4B4
:0F68DB00FF126B350980F2900504E004F080D6BF
:0168EA00228B
:0B615300900502EBF0A3EAF0A3E9F0D6
:10615E00E4A3F0A3F0A3F0A3F0900505E0FFC39431
:10616E00055045E4A3F0126C9EE4FF1269BA900547
:10617E0006E0C394605029900502E0FBA3E0FAA369
:10618E00E0F9900507E475F001123FC085F082F545
:10619E0083123F16FF126B35900506E004F080CE99
:0861AE00900505E004F080B14A
:0161B60022C6
:0B452D009005D2EBF0A3EAF0A3E9F048
:10453800E4A3F0A3F09005D2E0FBA3E0FAA3E0F92E
:10454800123EFD70030248379005D5E0F9C3940C7C
:1045580050087F01126C9EE08014E9C39418400350
:104568000248377F03126C9E9005D5E024F475F05D
:1045780008A4FF1269BA9005D2E0FBA3E0FAA3E011
:10458800F9123EFDFFC3648094B0404DD3EF6480C0
:1045980094B95045E49005D6F09005D6E0FDC39453
:1045A8000840030246BA9005D2E0FBA3E0FAA3E074
:1045B800F9123EFDFF3395E0FEEFC4F8540FC868CA
:1045C800FFEEC454F048FE74312FF582742F126B3D
:1045D800259005D6E004F080C09005D2E0FBA3E06A
:1045E800FAA3E0F9123EFDFFC3648094E1404DD385
:1045F800EF648094FA5045E49005D6F09005D6E033
:10460800FDC3940840030246BA9005D2E0FBA3E03C
:10461800FAA3E0F9123EFDFF3395E0FEEFC4F8542B
:104628000FC868FFEEC454F048FE74212FF5827459
:104638002D126B259005D6E004F080C09005D2E0DD
:10464800FBA3E0FAA3E0F9123EFDFFC3648094C126
:10465800404AD3EF648094DA5042E49005D6F09053
:1046680005D6E0FDC3940850499005D2E0FBA3E0CD
:10467800FAA3E0F9123EFDFF3395E0FEEFC4F854CB
:104688000FC868FFEEC454F048FE74C12FF5827459
:1046980030126B259005D6E004F080C3E49005D66F
:1046A800F0E4FF126B359005D6E004F0E0C39408FF
:1046B80040EF9005D5E0F9C3940C50087F02126CC6
:1046C8009EE08014E9C3941840030248377F04121F
:1046D8006C9E9005D5E024F475F008A4FF1269BA21
:1046E8009005D2E0FBA3E0FAA3E0F9123EFDFFC378
:1046F800648094B0404DD3EF648094B95045E49001
:1047080005D6F09005D6E0FDC3940840030248247E
:104718009005D2E0FBA3E0FAA3E0F9123EFDFF33D7
:1047280095E0FEEFC4F8540FC868FFEEC454F04893
:10473800FE74392FF582742F126B259005D6E0048C
:10474800F080C09005D2E0FBA3E0FAA3E0F9123EA6
:10475800FDFFC3648094E1404DD3EF648094FA5028
:1047680045E49005D6F09005D6E0FDC394084003D3
:104778000248249005D2E0FBA3E0FAA3E0F9123E38
:10478800FDFF3395E0FEEFC4F8540FC868FFEEC490
:1047980054F048FE74292FF582742D126B2590056C
:1047A800D6E004F080C09005D2E0FBA3E0FAA3E0D5
:1047B800F9123EFDFFC3648094C1404AD3EF648080
:1047C80094DA5042E49005D6F09005D6E0FDC39403
:1047D8000850499005D2E0FBA3E0FAA3E0F9123EA5
:1047E800FDFF3395E0FEEFC4F8540FC868FFEEC430
:1047F80054F048FE74C92FF5827430126B25900569
:10480800D6E004F080C3E49005D6F0E4FF126B35DF
:104818009005D6E004F0E0C3940840EF9005D5E099
:0F48280004F09005D3E475F001123FAA02453D5C
:01483700225E
:0759BE00A9059005F1EFF0CF
:1059C500E4FCEBC4540FA3126C98AF011269BAE45E
:1059D500FC9005F2E0C454F02431F582E43432F54C
:1059E50083E5822C126B2B0CECB408E59005F1E0F5
:1059F50004FF126C9EAF011269BAE4FC9005F2E057
:105A0500C454F02439F582E43432F583E5822C124E
:105A15006B2B0CECB408E59005F1E01269B2E4FCDF
:105A2500EC64079005F3601BE0C454F02431F58263
:105A3500E43432F583E5822CF582E43583F583E49D
:105A450093801BE0C454F02431F582E43432F583AD
:105A5500E5822CF582E43583F583E4934401FF1256
:105A65006B350CECB408B99005F1E0041269B2E4A9
:105A7500FC9005F3E0C454F02439F582E43432F5A2
:0C5A850083E5822C126B2B0CECB408E5BE
:015A910022F2
:0B60E7009005E6EBF0A3EAF0A3E9F05F
:1060F200E4A3F09005E6E0FBA3E0FAA3E0F9A3E055
:10610200FFF582758300123F16FB6044EFC39406CD
:10611200500C9005E9E0C454F0FD7F018027900502
:10612200E9E0FFC3940C5028EF24FAC454F0FD9028
:1061320005E6E0FBA3E0FAA3E0F98F827583001283
:106142003F16FB7F031259BE9005E9E004F080A3DD
:01615200222A
:04562100AA07AC0523
:10562500E4F9EBC4540F90060E126C98AF0412699E
:10563500BA90060EE0FFC39400402BEFD3940950B7
:1056450025E490060EE075F005A429F582E435F011
:10565500F583E58224A1F582E5833430126B3009A8
:10566500E9B405DE803A90060EE0FFC3940A5003C4
:10567500025719EFD3940F4003025719E4F9900626
:105685000EE075F005A429F582E435F0F583E58291
:1056950024C4F582E5833430126B3009E9B405DEA4
:1056A500E4FF126B3590060FE0FFC39400402CEF2A
:1056B500D394095026E4F990060FE075F005A42966
:1056C500F582E435F0F583E58224A1F582E583349E
:1056D50030126B3009E9B405DE803490060FE0FF27
:1056E500C3940A402FEFD3940F5029E4F990060F85
:1056F500E075F005A429F582E435F0F583E582240B
:10570500C4F582E5833430126B3009E9B405DE7FD8
:0457150003126B35DB
:01571900226D
:0E5A92009005BBEBF0A3EAF0A3E9F0A3EDF062
:105AA000E4A3F0A3F09005BEE0FFA3E0FEC39F4097
:105AB00003025B56EEC394085019EE75F00CA4FD7A
:105AC0009005BBE0FBA3E0FAA3E0F9123EFDFB7FEB
:105AD00001806D9005BFE0FFC39410501BEF24F8C8
:105AE00075F00CA4FD9005BBE0FBA3E0FAA3E0F980
:105AF000123EFDFB7F0280489005BFE0FFC3941873
:105B0000501BEF24F075F00CA4FD9005BBE0FBA347
:105B1000E0FAA3E0F9123EFDFB7F0380239005BF6E
:105B2000E0FFC39420502FEF24E875F00CA4FD9003
:105B300005BBE0FBA3E0FAA3E0F9123EFDFB7F0406
:105B40001256219005BCE475F001123FAA9005BFE2
:065B5000E004F0025AA57A
:015B5600222C
:0766F000900512EDF0A90373
:1066F700E4FC126C9EE0FF1269BAE4FC75F005E950
:10670700A42CF582E435F0F583E58224B1F582E522
:1067170083342F126B300CECB405E1E4FF026B35C8
:0B5B57009005C1EBF0A3EAF0A3E9F019
:105B6200E4A3F0A3F0A3F0FDFF126A2E9005C1E0BA
:105B7200FBA3E0FAA3E0F9123EFDFB7003025C19FD
:105B82009005C4E0FFC39410500AEF75F006A4FD1F
:105B92007F01806D9005C4E0FFC39420501BEF2469
:105BA200F075F006A4FD9005C1E0FBA3E0FAA3E0C6
:105BB200F9123EFDFB7F0280489005C4E0FFC394CA
:105BC20030501BEF24E075F006A4FD9005C1E0FB08
:105BD200A3E0FAA3E0F9123EFDFB7F0380239005C8
:105BE200C4E0FFC39440502FEF24D075F006A4FD0B
:105BF2009005C1E0FBA3E0FAA3E0F9123EFDFB7FB2
:105C0200041266F09005C2E475F001123FAA9005F5
:075C1200C4E004F0025B6E28
:015C19002268
:026A2E00AC05B5
:106A3000A904126C9EAF041269BAE9C394605008AD
:086A4000E4FF126B350980F23E
:016A4800222B
:1069D2007401A807088002C333D8FCF59DE4F5BD15
:0F69E200EF4488F5BC7F02126AE1D2ADD2AF223A
:03002B00025CCBA9
:0D5CCB00C0E0C0F0C083C082C0D075D0081A
:105CD800900509E4F0A3F0FFFEA3F0A3F0C2ADF530
:105CE800BC126C3E7F03126ACA900509E4F0A3EF68
:105CF800F0126C3E7F03126ACA7E00900509E0FC30
:105D0800A3E0FDD39FEC9E401DED9FFBEC9EFAC3E4
:105D1800EB9423EA9400504EED2FFFEE3CC313FEA4
:105D2800EF13FFA38030C3ED9FEC9E502C90050924
:105D3800E0FCA3E0FDC3EF9DFDEE9CFCC3ED9423C6
:105D4800EC94005021E02FFF900509E03EC313FEBC
:105D5800EF13FF90050BEE8009900509E0FFA3E023
:085D6800A3CFF0A3EFF0D2ADD0
:0B5D7000D0D0D082D083D0F0D0E03241
:106ACA00E4F5BDEF4488F5BC00000000E5BC30E405
:076ADA00FB75BC00AFBD22FB
:10699000AC07E4123D529005D8E0F8A3E0F9A3E07B
:1069A000FAA3E0FB123B29E4FBFA79807843123C1E
:0269B000322291
:10694200E4FDFCF5BDF5BEEF4488F5BC0000000097
:10695200E5BC30E4FB75BC00AFBDEF75F004A4FDEF
:09696200ACF0AFBEED4FAE04FF36
:01696B002209
:10005E00AD07AC06E4123D4D9005C9E0F8A3E0F9FA
:10006E00A3E0FAA3E0FB123B29E4FBFA7980784483
:04007E00123C3222DC
:106AE100AE071FEE60107C137D88ED1DAA047001B6
:066AF1001C4A60EC80F479
:016AF700227C
:1068930042039C00004101A5004101A6004101A75C
:0168A30000F4
:1068EB0053B13F43B2C0E5A2543FF5A253877F7526
:1068FB009850438E40538EFE53890F438920758BDE
:0D690B00FA758DFAC2ABD28ED2ACD2AF229B
:096CBE002000FDEFD200F599223F
:10675D009005F4EBF0A3EAF0A3E9F09005F4E0FB6B
:10676D00A3E0FAA3E0F9123EFD60179005F4A3E44F
:10677D0075F001123FC0A9F0FA123EFDFF126CBE7A
:03678D0080D9228E
:030023000265D0A3
:1065D000C0E0C0F0C083C082C0D075D00830981B26
:1065E000C29890039CE475F001123FC0FE74A82588
:1065F000F0F58274013EF583E599F0309904C29973
:0D660000C200D0D0D082D083D0F0D0E032E4
:0300430002660D45
:10660D00C0E0C083C082C0D075D008E59A30E017D5
:10661D00539AFE9001A5E0FF04F074002FF582E47B
:10662D003400F583E59BF0E59A30E105539AFDC200
:0A663D0001D0D0D082D083D0E0322B
:096CC7002001FDEFD201F59B2232
:106790009005F7EBF0A3EAF0A3E9F09005F7E0FB32
:1067A000A3E0FAA3E0F9123EFD60179005F7A3E419
:1067B00075F001123FC0A9F0FA123EFDFF126CC73E
:0367C00080D9225B
:106A10005391FC43920353BAFE759A50438E04750A
:0E6A2000D7C075D6FD438E1075AF01D2AF22E0
:106B0F007E027FF49001A8E4F0A3DFFCDEFAE490AC
:056B1F00039CF0A3F04F
:016B2400224E
:0F6C10007F64900000E4F0A3DFFCE49001A5F0A6
:016C1F002252
:106A490043BA0275AC1043AC4043D10275D5D07539
:0B6A5900D4FF43D10843AF08D2AF22A6
:03008B00026A7F87
:106A7F00C0E0E5AC30E00653ACFE85AD80E5AC3050
:0A6A8F00E10553ACFDC202D0E03275
:096CD0002002FDEFD202F5AD2215
:1067C3009005FAEBF0A3EAF0A3E9F09005FAE0FBF9
:1067D300A3E0FAA3E0F9123EFD60179005FAA3E4E3
:1067E30075F001123FC0A9F0FA123EFDFF126CD002
:0367F30080D92228
:106A640043BA0475841043844043D12075D3D07550
:0B6A7400D2FF43D18043AF10D2AF220D
:03009300026647BB
:10664700C0E0C083C082C0D075D008E58430E017B1
:106657005384FE9001A7E0FF04F074DD2FF582E478
:106667003400F583E585F0E58430E1055384FDC208
:0A66770003D0D0D082D083D0E032EF
:096CD9002003FDEFD203F5852232
:1067F6009005FDEBF0A3EAF0A3E9F09005FDE0FBC0
:10680600A3E0FAA3E0F9123EFD60179005FDA3E4AC
:1068160075F001123FC0A9F0FA123EFDFF126CD9C5
:0368260080D922F4
:0D003600E4F5C7F5C5F5C675C380F5C42215
:106AB20075C78175C5018FC4EEF5C375C65A75C613
:076AC200A500AFC21200366F
:016AC90022AA
:106A990075C78175C5028FC4EEF5C3AF058FC27581
:096AA900C65A75C6A500020036AC
:106B3A0075C78175C5038FC4EEF5C375C65A75C688
:056B4A00A50002003669
:10571A009005A2EEF0A3EFF09005A6EBF0A3EAF055
:0B572A00A3E9F09005A4ECF0A3EDF063
:10573500E49005A9F0A3F0FFA3F0A3F0D3ED942026
:10574500EC94004001229005A2E0FCA3E0FDEC549E
:1057550001FEAF059005A5E02FFF9005A4E03EFEF4
:10576500D3EF9420EE940040037F0022AF05AE04F2
:10577500126B3AE49005A9F0A3F09005A4E0FEA30E
:10578500E0FF9005A9E0FCA3E0FDC39FEC9E5067F8
:105795009005A2E0FEA3E0FF9005A6E0FBA3E0FADA
:1057A500A3E0F98D828C83123F16FD126A9990054C
:1057B500A2E0FEA3E0FF126AB29005A6E0FBA3E01B
:1057C500FAA3E0F9A3E0FCA3E0F5828C83123F166F
:1057D5006F60061200367F00229005A3E004F0708A
:1057E500069005A2E004F09005AAE004F0708B9005
:0C57F50005A9E004F080831200367F015B
:015801002284
:10511F00900593EEF0A3EFF0900597EBF0A3EAF074
:0B512F00A3E9F0900595ECF0A3EDF073
:10513A00E490059AF0A3F0A3F0A3F0A3F0A3F0A3E0
:10514A00F0A3F0D3ED9420EC940040037F0022906A
:10515A000593E0FCA3E0FDEC5401FEAF0590059C2D
:10516A00F0A3EFF0900596E02FFF900595E03EFE44
:10517A00D3EF9420EE940040037F0022EC54FEFE0D
:10518A007F0090059EF0A3EFF0A3EEF0A3EFF0905E
:10519A00059AF0A3F09005A0E475F001123FC0AFA4
:1051AA00F0FE126AB290059AA3E02422F8A607E05C
:1051BA0004F0700690059AE004F0C390059BE09411
:1051CA002090059AE0940040CCE490059AF0A3F070
:1051DA00900595E0FEA3E0FF90059AE0FCA3E0FDB0
:1051EA00C39FEC9E5034900597E0FBA3E0FAA3E03E
:1051FA00F98D828C83123F16FF90059CE475F001AD
:10520A00123FC0742225F0F8A60790059BE004F02F
:10521A00700690059AE004F080B690059EE0FEA321
:10522A00E0FF126B3A90059EE0FFA3E0A3CFF0A344
:10523A00EFF0E490059AF0A3F090059AE0FCA3E061
:10524A00FDC39420EC9400504C9005A0E0FEA3E02E
:10525A00FF74222DF8E6FD126A99900593E0FEA3E9
:10526A00E0FF126AB290059AA3E02422F8E66F6082
:10527A00061200367F00229005A1E004F070069025
:10528A0005A0E004F090059BE004F0700690059AF2
:0A529A00E004F080A41200367F014A
:0152A40022E7
:0468A4004105E23296
:10672700E5A254CFF5A2E4F5D8F5E9F5F975D90254
:10673700F5F275EA2075FA2075DA4275F34075EBC4
:106747002075FB2075DB4275F48075EC2075FC2005
:0667570075DC42D2DE22D7
:10642700E4F5B4F5B343BA80F5F190FFF2F090FFCD
:10643700F07403F0A374E8F090FF20E4F0A3F0FCFD
:10644700FDFE7BE87A03F9F8123FD6E47B64FAF99C
:10645700F812654990FF22EEF0A3EFF0A37408F05D
:0B64670043F50443F58053BA7F80FE2C
:10647200E4F5CAF5C943BA80F5F190FFF2F090FF56
:10648200F07403F0A374E8F090FF30E4F0A3F0FCA2
:10649200FDFE7BE87A03F9F8123FD6E47B64FAF951
:1064A200F812654990FF32EEF0A3EFF0A37408F002
:0A64B20043F50843F58053BA7F223A
:1069F100EF75F064A4FFAEF0C374109F900611F020
:0F6A010074279E900610F0E49005E1F0026B748C
:03009B00025E28DA
:105E2800C0E0C0F0C083C082C0D075D000C000C040
:105E380001C002C003C004C005C006C0079005E148
:105E4800E070389005E5E0FF75F012A4F404F5D58C
:105E5800E4FCFDFE7B12FAF9F8123FD6C3E49FFF7B
:105E6800E49EFE74019DFDE49CFC78081240338F8B
:105E7800D4D2A09005E17401F080359005E3E0FFED
:105E880075F012A4F404F5D5E4FCFDFE7B12FAF9D2
:105E9800F8123FD6C3E49FFFE49EFE74019DFDE423
:105EA8009CFC78081240338FD4C2A09005E1E4F03E
:105EB800D007D006D005D004D003D002D001D0003E
:0B5EC800D0D0D082D083D0F0D0E032E8
:0A580200900502ECF0A3EDF0AB07F7
:10580C00A312405300000000EB1460191460221422
:10581C0060371460282404703090050412405346FD
:10582C00900000802E900504124053462CCC008032
:10583C002290050412405345ACC800801690050414
:10584C0012405344ACC000800A90050412405345EA
:10585C002CD0005394BF5393BF43BA80E4F5F1901E
:10586C00FFF27403F0900504E0FCA3E0FDA3E0FE5E
:10587C00A3E0FF123D8690FFF0EEF0A3EFF090FF57
:10588C0050E4F0A3F0FBFA79C87842900504E0FCF0
:10589C00A3E0FDA3E0FEA3E0FF123C32C004C00570
:1058AC00C006C007900502E0FCA3E0FDE4123D4DEC
:1058BC00D003D002D001D000123B29123D8690FFBC
:1058CC0052EEF0A3EFF0A37408F043F52043F580FB
:0358DC0053BA7F3D
:0158DF0022A6
:055F5F009005DCEFF0ED
:105F6400A312405346D800005395FB5395FB43BA04
:105F740080E4F5F190FFF27407F09005DDE0FCA3F6
:105F8400E0FDA3E0FEA3E0FF123D8690FFF0EEF0FB
:105F9400A3EFF090FF20E4F0A3F0FBFA79C8784275
:105FA4009005DDE0FCA3E0FDA3E0FEA3E0FF123CCE
:105FB40032C004C005C006C0079005DCE0FCE41252
:105FC4003D52D003D002D001D000123B29123D86AD
:105FD40090FF22EEF0A3EFF0A3E4F043F50443F5C1
:045FE4008053BA7FAD
:015FE8002296
:105C1A00900616EFF09005E2E024F6602724FB6078
:105C2A003A24FB605224E2606A24D87003025CB909
:105C3A0024556003025CCA900616E0640160030200
:105C4A005CCA802C900616E0B40102803F900616CA
:105C5A00E0F4706C9005E274058060900616E0B47A
:105C6A0001079005E274148052900616E0F4705011
:105C7A009005E2740A8044900616E0B40107900584
:105C8A00E274328036900616E0F470349005E274BD
:105C9A000F8028900616E0B401079005E2745A8036
:105CAA001A900616E0B4FF189005E27414800C905E
:105CBA000616E0B4FF0A9005E27432F0FF125F5F45
:015CCA0022B7
:10638600900612EEF0A3EFF0438E805389F090064C
:1063960012E0FEA3E0FFE4FCFD7B16FAF9F8123FDB
:1063A600D6EFF404F58A900612E0FEA3E0FFE4FCC3
:1063B600FD7B16FAF9F8123FD6C3E49FFFE49EFE72
:1063C60074019DFDE49CFC78081240338F8CC28DCD
:0363D600D28C2244
:106B6200E5A254F34404F5A2E4F5CF75CDC075CE89
:026B72005022AF
:03004B00026D053E
:066D050075CDC0D29132F1
:0A68A8004205EA00004205EC000082
:03000B00024F930E
:104F9300C0E0C0F0C083C082C0D075D000C000C0E4
:0D4FA30001C002C003C004C005C006C00765
:104FB00090050DE4F0A3124053000000009005EBB3
:104FC000E004F070069005EAE004F09005EDE004DE
:104FD000F070069005ECE004F09005EAA3E0FF1203
:104FE0006CBEC39005EBE094FA9005EAE0940050A3
:104FF000030250C01253F29005CD1240479005CDE8
:10500000E0FCA3E0FDA3E0FEA3E0FF123D86EF7508
:10501000F00A842430FBE4FD7F031266F09005CD96
:10502000E0FCA3E0FDA3E0FEA3E0FF123D86EF75E8
:10503000F00A84E5F02430FB7D067F031266F07BE6
:105040002E7D0C7F031266F0E4FFFE7DC87C42904B
:1050500005CDE0F8A3E0F9A3E0FAA3E0FB123B29B9
:10506000123D867C007D64123F557E007F0ACFCDC5
:10507000CFCECCCE123F55EF2430FB7D127F0312F2
:1050800066F0E4FFFE7DC87C429005CDE0F8A3E029
:10509000F9A3E0FAA3E0FB123B29123D867C007DD8
:1050A0000A123F55ED2430FB7D187F031266F09005
:1050B00005CD124053000000009005EAE4F0A3F093
:1050C000C39005EDE094B89005ECE0940B403512E8
:1050D00061B79005D1EFF075F00A842430FBE4FD50
:1050E0007F041266F09005D1E075F00A84E5F024A3
:1050F00030FB7D067F041266F09005D1E4F0900548
:04510000ECF0A3F03C
:10510400D007D006D005D004D003D002D001D000FF
:0B511400D0D0D082D083D0F0D0E032A9
:106AF800538E7F5389F0C2B9E4F58A758C70C28DC4
:076B0800D28CD2A9D2AF220A
:106B740053D1FD75D501E4F5D443D10843AF20D2F8
:026B8400AF223E
:03000300020012E6
:0100120032BB
:096CE200D2B2D288D2A8D2AF22AE
:03001300020026C2
:0100260032A7
:096CEB00D2B3C28AD2AAD2AF22B0
:0300530002002781
:0100270032A6
:066D0B00438F10D2AF22FD
:03005B0002002878
:0100280032A5
:066D1100438F20D2AF22E7
:030083000200294F
:0100290032A4
:066D1700438F40D2AF22C1
:0300330002000EBA
:04000E005387DF3203
:086CFD005387DFD2AED2AF22B3
:106B86007D3C7C00E4FF125802126C3E53F5DFC2D6
:026B9600862255
:106B98007D3C7C007F03125802126C6B53F5DFC2F8
:026BA800862243
:106BAA007D3C7C007F03125802126C5C53F5DFC2F5
:026BBA00862231
:096CF400AD07AC067F0402580252
:106BBC007D3C7C007F04125802126C7A53F5DFC2C4
:026BCC0086221F
:066D1D008FAA75AB802275
:106681002055534220636861726765200A002055D6
:106691005342206368617267652000205553422090
:1066A100206F6666736574200A00205553422020CE
:0866B1006F666673657420003A
:0468B2004106170A7A
:10696C0053CBF143CC0E53CBFE53CCFEC2E9D2EA4F
:10697C00D2EBD2E8E4F5B375B401C2C1D2E9126C22
:04698C0089D2C122C9
:1058E000E4900530F0A3F0A3F0A3F0A3F0A31240DE
:1058F0005300000000E4900539F0A3F07F04126922
:1059000042900532EEF0A3EFF0C3900531E09F9096
:105910000530E09E500F900532E0FFA3E090053087
:10592000CFF0A3EFF0120006900534E004F0E0C3DE
:10593000940A40C8900530E0FCA3E0FDE4123D4D20
:10594000A804A905AA06AB077F0A7ED77DA37C44DD
:10595000123C32900535124047900535E0FCA3E03B
:10596000FDA3E0FEA3E0FF123D867C007D64123FB4
:1059700043AC06AD07E4123D4DC004C005C006C0EF
:1059800007E4FFFE7DC87C42900535E0F8A3E0F90E
:10599000A3E0FAA3E0FB123B29D003D002D001D050
:1059A00000123A34123D86900539EEF0A3EFF090E4
:0D59B0000535E0FCA3E0FDA3E0FEA3E0FF51
:0159BD0022C7
:1061B700E4900512F01258E0900513124047E4FFEF
:1061C700FEFDFC900513E0F8A3E0F9A3E0FAA3E0D5
:1061D700FB123CCF60377FCD7ECC7D2C7CC09005F9
:1061E70013E0F8A3E0F9A3E0FAA3E0FB123A38E4DE
:1061F700FBFA79C87842123B297BFE7AFF79BF7890
:0F6207003F123C32123D86900512EFF0227F00CD
:016216002265
:1053F20090052612405300000000E490052AF0A315
:10540200F01258E090052C12404790052BE0C3940F
:105412000A50247F0512694290052BE025E02412F0
:10542200F582E43405F583EEF0A3EFF01200069066
:10543200052BE004F080D390051EE0FEA3E0FF9070
:105442000519E02FFF900518E03EFE900525E02F9C
:10545200FF900524E03EFE7C007D03123F55AD0720
:10546200AC06E4123D4D90052CE0F8A3E0F9A3E070
:10547200FAA3E0FB123B297BE77AFB7979783F12AA
:105482003B29E4FBFA79D478C3123A38E4FBFA797F
:10549200C87840123C32900526124047900526E01B
:1054A200FCA3E0FDA3E0FEA3E0FF123D867C007DAD
:1054B20064123F43AC06AD07E4123D4DC004C00583
:1054C200C006C007E4FFFE7DC87C42900526E0F8D6
:1054D200A3E0F9A3E0FAA3E0FB123B29D003D00238
:1054E200D001D000123A34123D8690052AEFF0E442
:1054F200FFFE7DAA7C42900526E0F8A3E0F9A3E036
:10550200FAA3E0FB123CCF60044002C2E9900526F8
:0B551200E0FCA3E0FDA3E0FEA3E0FF2F
:01551D00226B
:10685A004393805394FE7BFF3087137A66798112C3
:10686A0067F67BFF7A66798F125B577F01227A6619
:10687A00799C1267F67BFF7A6679AB125B577F00C9
:01688A0022EB
:104838004E4F203A20005331203A20005332203A7C
:1048480020005333203A20005334203A20005335B7
:10485800203A2000204D41494E204D454E55200A12
:10486800200020554846204D4F44452000205548FB
:1048780046204D4F4445200A2000204254204D4FE9
:1048880044452000204254204D4F4445200A200032
:104898002054455354204D4F44452000205445533F
:1048A80054204D4F4445200A20002042415454458D
:1048B8005254204D4F444520002042415454455203
:1048C80059204D4F4445200A200020425A204D4F80
:1048D8004445200020425A204D4F4445200A2000DC
:1048E800204F4C45445F74696D696E672073657429
:1048F8002000204F4C45445F74696D696E672073D2
:104908006574200A2000204F4C45445F425A2073AA
:1049180065742000204F4C45445F425A20736574EB
:10492800200A2000202153797374656D5F506F77DA
:1049380065725F5663635F4F4E5F4F4646200A209D
:10494800002055313420706F77657220676F6F646F
:1049580020002055313420706F77657220676F6FA3
:1049680064200A20002055313420706F776572204A
:104978004E47204F4350204F54502000205531348B
:1049880020706F776572204E47204F4350204F5458
:1049980050200A2000204E205653454C200020214C
:1049A8005653454C200A2000204E204259502000E2
:1049B8002021425950200A20002042415454455297
:1049C80059A1A14D4F444520494E20002042415451
:1049D80054455259A1A14D4F444520494E200A2023
:1049E8000020425A204D4F444520494E2000204285
:1049F8005A204D4F444520494E200A2000204F4C54
:104A08004544206765742072656164696E67207427
:104A1800696D696E672000204F4C45445F74696D6D
:104A2800696E67206765742072656164696E6720C6
:104A380074696D696E67200A2000204F4C45442038
:104A48006765742077726974696E672074696D6927
:104A58006E672000204F4C45445F74696D696E672E
:104A6800206765742077726974696E672074696D50
:104A7800696E67200A2000204F4C45445F74696DB9
:104A8800696E672073657420494E2000204F4C459D
:104A9800445F74696D696E672073657420494E20A0
:104AA8000A2000204F4C45445F425A207570200070
:104AB800204F4C45445F425A207570200A20002040
:104AC8004F4C45445F425A20646F776E2000204F58
:104AD8004C45445F425A20646F776E200A200020BC
:104AE8004F4C45445F425A2073657420494E20005C
:104AF800204F4C45445F425A2073657420494E202C
:104B08000A2000204E4F54205345542000204E4F79
:094B18005420534554200A2000EA
:0468B600410618007F
:105D7B00E4900600F0A3F0A3F07F03126ACA90062A
:105D8B0000EFF0C394CD40037F0022126C3E7F03E3
:105D9B00126ACA900601EFF0126C3E7F03126ACAB8
:105DAB00900602EFF0900601E02FFFE433C313EFF0
:105DBB0013900600F0126C3E7F03126ACAEFD39465
:105DCB00CD4002800A7F03126ACA126CBE80E69035
:105DDB000600E0C394125006126B867F01229006D8
:105DEB0000E0C3943B5006126B867F0222900600A4
:105DFB00E0C394695006126B867F0322900600E085
:105E0B00C3949B5006126B867F0422900600E0C35E
:0C5E1B0094CD5006126B867F05227F009C
:015E27002258
:104DF600E4900603F0A3F0A3F07F03126ACA9006BC
:104E060003EFF0C394CD4030126C3E7BFF7A4879B5
:104E16003812675D7FFF126CBE900603E0FF126CCE
:104E2600BE7BFF7A4879381267F6900603E0FF12D8
:104E36006CBE53F5DF7F0022126C7A7F03126ACABA
:104E4600900604EFF0126C3E7F03126ACA900605C4
:104E5600EFF0900604E02FFFE433C313EF13900640
:104E660003F0C3941250337BFF7A48793E12675D94
:104E76007FFF126CBE900603E0FF126CBE7BFF7ACA
:104E860048793E1267F6900603E0FF126CBE7D3C41
:104E96007C007F011258027F0122900603E0C39432
:104EA6003B50337BFF7A48794412675D7FFF126C73
:104EB600BE900603E0FF126CBE7BFF7A48793E1275
:104EC60067F6900603E0FF126CBE7D3C7C007F0215
:104ED6001258027F0222900603E0C3946950337B86
:104EE600FF7A48794A12675D7FFF126CBE9006030F
:104EF600E0FF126CBE7BFF7A48794A1267F690068D
:104F060003E0FF126CBE7D3C7C007F031258027FDB
:104F16000322900603E0C3949B50337BFF7A4879C3
:104F26005012675D7FFF126CBE900603E0FF126CA5
:104F3600BE7BFF7A48794A1267F6900603E0FF12B5
:104F46006CBE7D3C7C007F041258027F04229006D2
:104F560003E0C394CD50337BFF7A48795612675DE0
:104F66007FFF126CBE900603E0FF126CBE7BFF7AD9
:104F760048794A1267F6900603E0FF126CBE7D3C44
:0C4F86007C00E4FF1258027F05227F002F
:014F920022FC
:10417800900614E4F0A3EFF0900618E01240844192
:10418800AF0041E505421906425907429E0A42E33B
:104198000B43280C436A0D43B50F445614446B195E
:1041A80044C31E00004517900614E0FEA3E0FFEE8E
:1041B8007016EF24FE700302452C14700302452C80
:1041C80024FE60028002806C1268BB7BFF7A36791D
:1041D800711261537BFF7A48795C02452990061475
:1041E800E0FEA3E0FFEE7014EF24FD600D24FE70E6
:1041F8000302452C24037004807780301268BB7B4F
:10420800FF7A48796A12452D7BFF7A48797502450D
:1042180029900614E0FEA3E0FFEE7020EF24FD6075
:104228001324FE700302452C2403701090061874A2
:104238000702439590061874050243951268BB7BE4
:10424800FF7A48798212452D7BFF7A48798C02459E
:1042580029900614E0FEA3E0FFEE7025EF24FD6030
:104268001024FE6014240370189006187405024385
:10427800959006187406024395900618740A02432E
:10428800951268BB7BFF7A48799812452D7BFF7A97
:104298004879A4024529900614E0FEA3E0FFEE70D9
:1042A80025EF24FD601024FE601424037018900686
:1042B80018740B024395900618740D0243959006E6
