:0300000002657422
:0C657400787FE4F6D8FD7581420265BB1B
:106D9F0042542074657374200A20002042542054FA
:106DAF0045535420004465627567207465737420E1
:0C6DBF000A20006572726F72200A20002A
:1060A800E4900518F0A3F0A3F01270AA126E1C1267
:1060B8006FAE126F46126E8C1270E012660012708C
:1060C800617BFF7A36797E12676F12638C900518B0
:1060D800EFF0606424FE60301460311460321460A4
:1060E8003A2404704A9000F1E0D39400404A1271B7
:1060F8002F126B937B017A007900126D3B7B017A3A
:106108000079001262208030C2EE802CD2EE802806
:106118007BFF7A6D799F126CD5801D126B937BFF84
:106128007A6D79AA124BA17BFF7A6D79B480067BD0
:10613800FF7A6D79C2126D3B9000F1E0D394004074
:106148008912712F126B937B017A007900126D3BD3
:0C6158007B017A0079001261640260D2C1
:1070610053CB1F43CCE043CB1043CC10C2EDC2EF56
:03707100D2EE223A
:05668A00900574EFF023
:10668F00E4A3F0A3F01271017F011271A17FFC123C
:10669F0071A17F011271A17F011271A1900574E0A8
:1066AF00FF1271A11271119000F1E070037FFF22B0
:1066BF009000F1E0FF900575E0FCA3E0FDC39F742F
:1066CF0080F8EC648098501F74002DF58274003CA4
:1066DF00F583E0FF1271B3900576E004F070D1906E
:1066EF000575E004F080C9900002E0B401037F015A
:0366FF00227FFFF8
:016702002274
:106C6F001271017F011271A17FFC1271A17F0212BB
:106C7F0071A1E4FF1271A11271119000F1E064058E
:106C8F0060037FFF22900003E0B40104A3E0FF2222
:036C9F007FFF2252
:0C0016007F547EF77D18DDFEDEFCDFFA73
:0100220022BB
:0E71110000007F027EAF7D4BDDFEDEFCDFFA6C
:01711F00224D
:0E71200000007F0D7E9C7D53DDFEDEFCDFFA5D
:01712E00223E
:0E712F0000007F017ED87D23DDFEDEFCDFFA4E
:01713D00222F
:0E713E0000007F2B7E067DCBDDFEDEFCDFFA3F
:01714C002220
:0E714D0000007FFD7E237DDCDDFEDEFCDFFA30
:01715B002211
:0E715C0000007F117ED07D1BDDFEDEFCDFFA21
:01716A002202
:0E716B0000007F057E347DC3DDFEDEFCDFFA12
:0171790022F3
:040006007F0EDFFE8C
:01000A0022D3
:0E717A0000007F097E687D8BDDFEDEFCDFFA03
:0171880022E4
:10574F004E4F5420205265616420434D440A00207F
:10575F00696E64795F7265616474656D70207374CE
:10576F00617274200D0A0020696E64795F72656141
:10577F006474656D7020656E64200D0A0024034902
:10578F00006D00700069006E006A005300650072C2
:10579F0000690061006C004E0075006D0030003133
:1057AF00004003BFFCBFFCBFFC0000010012002142
:1057BF0000000010000000000000000500000000C5
:1057CF0000000006000000000000001000000000B4
:1057DF00000000110088E1F3C000000000F0000697
:1057EF0002000001001200210000000200A000A032
:1057FF0002000000030000000000000200A000A053
:10580F00020000611B0206000000000500000000FE
:10581F00000000020701000000000005000000006A
:10582F0000000004070000000000000507D007007B
:10583F000000000607DC0000000000070700200042
:10584F00000000120BFFFF0F00000005000000001A
:10585F00000000000500000000000000050000002F
:10586F00000000000600000000000000050000001E
:10587F00000000000500000000000000060000000E
:10588F000000010000000200000027000000872E2A
:10589F000D0001000100020000008F2E0D0000001E
:1058AF0000000000050000000000000006000000DE
:0258BF000000E7
:086DF500410492FF41049300E8
:0B67D3007B027F047A00E4FDFC7E0ADC
:1067DE00900553EEF0A3EFF0A3ECF0A3EDF0A3EAD7
:1067EE00F0A3EBF07F01127198E4FF1271989005FF
:1067FE0053A3E0FF127198900553E0FF1271989029
:10680E000557A3E0FF127198900557E0FF1271989B
:10681E00900555A3E0FF127198900555E0FF0271A7
:01682E0098D1
:106BCB00900583EEF0A3EFF0E4FF127198E4FF124F
:106BDB007198900583A3E0FF127198900583E0FFF5
:106BEB00127198E4FF127198E4FF127198E4FF128E
:076BFB007198E4FF0271989C
:105B3A00E4FF900472E0900495F0E4900494F090ED
:105B4A000494E0FEFD3395E0FC74732DF582740431
:105B5A003CF583E0FDEEFB3395E0FA74962BF58273
:105B6A0074043AF583EDF0900494E004F0E0B40C88
:105B7A00CEE4900494F0900494E0FEFD3395E0FCAA
:105B8A00747F2DF58274043CF583E0FDEEFB3395BA
:105B9A00E0FA74A22BF58274043AF583EDF09004CE
:105BAA0094E004F0E0B402CE900494740FF09004F0
:105BBA0094E0FEC3648094A0501AEEFD3395E0FC95
:105BCA0074952DF58274043CF583E4F0900494E016
:105BDA0004F080DAE4900494F0900494E0FEC36444
:105BEA008094A0501BEEFD3395E0FC74952DF58250
:105BFA0074043CF583E02FFF900494E004F080D90C
:105C0A00EF9004B4F0E4900494F0900494E0FFC39D
:105C1A00648094A0501CEF3395E0FE74952FF582B2
:105C2A0074043EF583E0FF1271A1900494E004F03D
:025C3A0080D810
:015C3C002245
:10682F00E4900472F0FFEFFD3395E0FC74732DF5E7
:10683F008274043CF583E4F00FEFB40CE9E4FFEF4E
:10684F00FD3395E0FC747F2DF58274043CF583E4F1
:10685F00F00FEFB402E9E4FFC3EF648094805015AA
:10686F00EFFD3395E0FC74812DF58274043CF583C4
:0A687F00E4F00F80E3E4900491F0D0
:0168890022EC
:105195009004F07401F0E4A3F0A3F074FFA3F0A36E
:1051A500F0E4A3F0A3F0A3F0A3F0A3F0A3F0A3F021
:1051B500A3F0A3F0A3F0A3F0A37412F0E4A3F0C24C
:1051C50011C212A3F09004F5E0FEA3E024F4F582E9
:1051D50074003EF583E06401600302542B9004F5EE
:1051E500A3E0FF24F5F58274003EF583E090050207
:1051F500F074F72FF58274003EF583E0FE9004F518
:10520500E0FCA3E0FD24F6F58274003CF583E07A2A
:10521500002400FFEA3E9004F3F0A3EFF074F92DAB
:10522500F58274003CF583E0FE9004F5A3E024F8D4
:10523500F58274003CF583E02400FFEA3E9004F11A
:10524500F0A3EFF0ED2408FFE43C9004F7F0FCA395
:10525500EFF0FD9004F1E0FAA3E0FBAE027802C3A3
:1052650033CE33CED8F92DFFEE3C9004F9F0A3EF01
:10527500F0EB2402FFE43AFEEF7802C333CE33CEDF
:10528500D8F9FF9004F6E02FF09004F5E03EF09099
:1052950004F3E07004A3E0640570619004F8E02471
:1052A5000EFE9004F7E034009004FBF0A3CEF0E48A
:1052B5009004EEF0A3F09004EEE0FEA3E0FF90046E
:1052C500FCE02FFD9004FBE03EFC74F42DF58274A8
:1052D500003CF583E0FD74732FF58274043EF5837D
:1052E500EDF09004EFE004F070069004EEE004F0B9
:1052F5009004EEE07004A3E0640C70BA9004F3E04F
:105305007004A3E0640660030251CA900502E060E0
:105315000302542B9004F7E0FEA3E0FF24F8F58286
:1053250074003EF583E064C2600302541FEF240C51
:10533500FFE43E9004FDF0A3EFF0900472E024FE3C
:10534500605C1470030253F224026003025415E4F6
:105355009004EEF0A3F09004EEE0FEA3E0FF9004CD
:10536500FEE02FFD9004FDE03EFC74F42DF5827403
:10537500003CF583E0FD747F2FF58274043EF583D0
:10538500EDF09004EFE004F070069004EEE004F018
:105395009004EEE07004A3E0640270BA8069E490C2
:1053A50004EEF0A3F09004EEE0FEA3E0FF9004FE0F
:1053B500E02FFD9004FDE03EFC74F42DF5827400B1
:1053C5003CF583E0FD747F2FF58274043EF583ED93
:1053D500F09004EFE004F070069004EEE004F09025
:1053E50004EEE07004A3E0640270BA801AE490044D
:1053F5007FF09004FDE0FEA3E024F5F58274003E05
:10540500F583E0900480F0900493E004F00251CA23
:10541500E4900492F0A3F00251CA7BFF7A57794FCA
:06542500126CD50251CA11
:01542B00225E
:106A1200E4900585F0A3F0FBFAFDFC7F027E0A12EA
:106A220067DE7B0C7F031267D71267D3E4FBFAFDA4
:106A3200FC7F067E0A1267DE7B107A00E4FDFCFF13
:106A42007EF01267DE1200169000F4E0B40107C275
:066A5200AC125195D2AC1C
:016A5800221B
:10692F00E4900587F0A3F0FBFAFDFC7F027E0A12CC
:10693F0067DE7B0D7A00E4FDFC7F037E0A1267DEC3
:10694F001267D3E4FBFAFDFC7F067E0A1267DE7B3B
:10695F00087A00E4FDFCFF7EF01267DE120016904D
:0D696F0000F4E0B40107C2AC125195D2ACA7
:01697C0022F8
:105FDF00E4900564F0A3F07BFF7A57795E126CD5DD
:105FEF00E4FBFAFDFC7F027E0A1267DE7B0E7A006D
:105FFF00E4FDFC7F037E0A1267DE1267D3E4FBFA2F
:10600F00FDFC7F067E0A1267DE7B077A00E4FDFC4B
:10601F00FF7EF01267DE12700C1200169002E8A3DA
:10602F00E0FF1271A19002E8E0FFA3E0900564CFBA
:10603F00F0A3EFF07F551271A1900564A3E0FF125A
:10604F0071A1E4900566F0A3F0900564E0FEA3E073
:10605F00FFA3E0FCA3E0FDC39FEE6480F8EC648037
:10606F0098501F74F42DF58274003CF583E0FF12F5
:10607F0071A1900567E004F07006900566E004F0EA
:10608F0080C79000F4E0B40107C2AC125195D2ACB6
:09609F007BFF7A577976026CD57B
:106A9D00E4FF900000E060379000F1E0C3940850EF
:106AAD0003E4FE22E4FEEEFD3395E0FC74002DF5CB
:106ABD008274003CF583E02FFF0EEEB407E89000E2
:106ACD0007E0B507057E007F01221271018000E409
:026ADD00FEFFBA
:016ADF002294
:10009E00EF14B42200400302233C9000B675F00327
:1000AE00A4C58325F0C5837302011C02012502013C
:1000BE002E0201300201320203A902013502014370
:1000CE0002015102015F02016D02017B02018F02EA
:1000DE0001A30201B70201F302020702026B020240
:1000EE007F0202930202A70202BB0202CF02233C4E
:1000FE0002030B0203470203A902035B02039602EB
:10010E0003A90203BC0203D40203A90203FC7FC0AD
:10011E001271987F0680337F401271987F03802A78
:10012E00802F8003020347E4FF127198E4FF1271DF
:10013E00987F108058E4FF127198E4FF1271987F37
:10014E0011804AE4FF127198E4FF127198E4FF8067
:10015E003CE4FF127198E4FF1271987F01802EE447
:10016E00FF127198E4FF1271987F028020E4FF1253
:10017E007198E4FF127198E4FF1271987F030203E5
:10018E00E5E4FF127198E4FF1271987F02127198E4
:10019E00E4FF0203E5E4FF127198E4FF1271987F09
:1001AE00611271987F1B0203E57F01127198E4FFC3
:1001BE001271987F011271987F07127198E4FF12E5
:1001CE007198E4FF127198E4FF127198E4FF1271B6
:1001DE0098E4FF127198E4FF1271987F05127198DE
:1001EE00E4FF0203E5E4FF127198E4FF1271987FB9
:1001FE00021271987F070203E57F01127198E4FFE6
:10020E001271987F021271987F071271987F0112F6
:10021E007198E4FF127198E4FF127198E4FF127165
:10022E00987F01127198E4FF1271987F01127198F4
:10023E007F07127198E4FF127198E4FF127198E42F
:10024E00FF127198E4FF127198E4FF127198E4FFA7
:10025E001271987F05127198E4FF0203E5E4FF1214
:10026E007198E4FF1271987F041271987F07020350
:10027E00E5E4FF127198E4FF1271987F05127198F0
:10028E007F070203E5E4FF127198E4FF1271987F75
:10029E00061271987F070203E5E4FF127198E4FFDE
:1002AE001271987F071271987F070203E5E4FF121F
:1002BE007198E4FF1271987F121271987F0B0203EE
:1002CE00E57F01127198E4FF1271987F0112719807
:1002DE007F07127198E4FF127198E4FF127198E48F
:1002EE00FF127198E4FF127198E4FF127198E4FF07
:1002FE001271987F05127198E4FF0203E57F0112D7
:10030E007198E4FF1271987F0A1271987F01127131
:10031E00987FF81271987F591271987F0D1271980B
:10032E00E4FF127198E4FF127198E4FF1271987F46
:10033E0005127198E4FF0203E5E4FF127198E4FFE1
:10034E001271987F05127198E4FF0203E57F011286
:10035E007198E4FF1271987F081271987F011271E3
:10036E00987F011271987F01127198E4FF127198B3
:10037E00E4FF127198E4FF127198E4FF1271987FF6
:10038E0005127198E4FF804FE4FF127198E4FF129A
:10039E0071987F05127198E4FF803CE4FF1271980A
:1003AE00E4FF1271987F06127198E4FF80297F0195
:1003BE00127198E4FF127198E4FF1271987FF01297
:1003CE0071987F278016E4FF127198E4FF127198DE
:1003DE007F05127198E4FF127198E4FF127198E490
:1003EE00FF127198E4FF127198E4FF0223397F0126
:1003FE00127198E4FF1271987F011271987F0C129E
:10040E007198E4FF127198E4FF127198E4FF127173
:10041E0098E4FF1271987F01127198E4FF1271989F
:10042E007F021271987F0C1271987F01127198E4FD
:10043E00FF127198E4FF127198E4FF1271987F0118
:10044E00127198E4FF1271987F031271987F0C124B
:10045E0071987F701271987F0D1271987F181271BA
:10046E0098E4FF1271987F01127198E4FF1271984F
:10047E007F041271987F0C127198E4FF1271987FAD
:10048E00011271987F071271987F141271987F0173
:10049E00127198E4FF1271987F011271987F0C12FD
:1004AE0071987F01127198E4FF127198E4FF127136
:1004BE0098E4FF1271987F01127198E4FF127198FF
:1004CE007F021271987F0C1271987F01127198E45D
:1004DE00FF127198E4FF127198E4FF1271987F0178
:1004EE00127198E4FF1271987F031271987F0C12AB
:1004FE0071987F841271987F0D1271987F18127106
:10050E0098E4FF1271987F01127198E4FF127198AE
:10051E007F041271987F0C127198E4FF1271987F0C
:10052E00011271987F071271987F141271987F01D2
:10053E00127198E4FF1271987F011271987F0C125C
:10054E0071987F02127198E4FF127198E4FF127194
:10055E0098E4FF1271987F01127198E4FF1271985E
:10056E007F021271987F0C1271987F01127198E4BC
:10057E00FF127198E4FF127198E4FF1271987F01D7
:10058E00127198E4FF1271987F031271987F0C120A
:10059E0071987F981271987F0D1271987F18127151
:1005AE0098E4FF1271987F01127198E4FF1271980E
:1005BE007F041271987F0C127198E4FF1271987F6C
:1005CE00011271987F071271987F141271987F0132
:1005DE00127198E4FF1271987F011271987F0C12BC
:1005EE0071987F03127198E4FF127198E4FF1271F3
:1005FE0098E4FF1271987F01127198E4FF127198BE
:10060E007F021271987F0C1271987F01127198E41B
:10061E00FF127198E4FF127198E4FF1271987F0136
:10062E00127198E4FF1271987F031271987F0C1269
:10063E0071987FAC1271987F0D1271987F1812719C
:10064E0098E4FF1271987F01127198E4FF1271986D
:10065E007F041271987F0C127198E4FF1271987FCB
:10066E00011271987F071271987F141271987F0191
:10067E00127198E4FF1271987F011271987F0C121B
:10068E0071987F04127198E4FF127198E4FF127151
:10069E0098E4FF1271987F01127198E4FF1271981D
:1006AE007F021271987F0C1271987F01127198E47B
:1006BE00FF127198E4FF127198E4FF1271987F0196
:1006CE00127198E4FF1271987F031271987F0C12C9
:1006DE0071987FC01271987F0D1271987F181271E8
:1006EE0098E4FF1271987F01127198E4FF127198CD
:1006FE007F041271987F0C127198E4FF1271987F2B
:10070E00011271987F071271987F141271987F01F0
:10071E00127198E4FF1271987F011271987F0C127A
:10072E0071987F05127198E4FF127198E4FF1271AF
:10073E0098E4FF1271987F01127198E4FF1271987C
:10074E007F021271987F0C1271987F01127198E4DA
:10075E00FF127198E4FF127198E4FF1271987F01F5
:10076E00127198E4FF1271987F031271987F0C1228
:10077E0071987FD41271987F0D1271987F18127133
:10078E0098E4FF1271987F01127198E4FF1271982C
:10079E007F041271987F0C127198E4FF1271987F8A
:1007AE00011271987F071271987F141271987F0150
:1007BE00127198E4FF1271987F011271987F0C12DA
:1007CE0071987F06127198E4FF127198E4FF12710E
:1007DE0098E4FF1271987F01127198E4FF127198DC
:1007EE007F021271987F0C1271987F01127198E43A
:1007FE00FF127198E4FF127198E4FF1271987F0155
:10080E00127198E4FF1271987F031271987F0C1287
:10081E0071987FE81271987F0D1271987F1812717E
:10082E0098E4FF1271987F01127198E4FF1271988B
:10083E007F041271987F0C127198E4FF1271987FE9
:10084E00011271987F071271987F141271987F01AF
:10085E00127198E4FF1271987F011271987F0C1239
:10086E0071987F07127198E4FF127198E4FF12716C
:10087E0098E4FF1271987F01127198E4FF1271983B
:10088E007F021271987F0C1271987F01127198E499
:10089E00FF127198E4FF127198E4FF1271987F01B4
:1008AE00127198E4FF1271987F031271987F0C12E7
:1008BE0071987FFC1271987F0D1271987F181271CA
:1008CE0098E4FF1271987F01127198E4FF127198EB
:1008DE007F041271987F0C127198E4FF1271987F49
:1008EE00011271987F071271987F141271987F010F
:1008FE00127198E4FF1271987F011271987F0C1299
:10090E0071987F08127198E4FF127198E4FF1271CA
:10091E0098E4FF1271987F01127198E4FF1271989A
:10092E007F021271987F0C1271987F01127198E4F8
:10093E00FF127198E4FF127198E4FF1271987F0113
:10094E00127198E4FF1271987F031271987F0C1246
:10095E0071987F101271987F0E1271987F18127114
:10096E0098E4FF1271987F01127198E4FF1271984A
:10097E007F041271987F0C127198E4FF1271987FA8
:10098E00011271987F071271987F141271987F016E
:10099E00127198E4FF1271987F011271987F0C12F8
:1009AE0071987F09127198E4FF127198E4FF127129
:1009BE0098E4FF1271987F01127198E4FF127198FA
:1009CE007F021271987F0C1271987F01127198E458
:1009DE00FF127198E4FF127198E4FF1271987F0173
:1009EE00127198E4FF1271987F031271987F0C12A6
:1009FE0071987F241271987F0E1271987F18127160
:100A0E0098E4FF1271987F01127198E4FF127198A9
:100A1E007F041271987F0C127198E4FF1271987F07
:100A2E00011271987F071271987F141271987F01CD
:100A3E00127198E4FF1271987F011271987F0C1257
:100A4E0071987F0A127198E4FF127198E4FF127187
:100A5E0098E4FF1271987F01127198E4FF12719859
:100A6E007F021271987F0C1271987F01127198E4B7
:100A7E00FF127198E4FF127198E4FF1271987F01D2
:100A8E00127198E4FF1271987F031271987F0C1205
:100A9E0071987F381271987F0E1271987F181271AB
:100AAE0098E4FF1271987F01127198E4FF12719809
:100ABE007F041271987F0C127198E4FF1271987F67
:100ACE00011271987F071271987F141271987F012D
:100ADE00127198E4FF1271987F011271987F0C12B7
:100AEE0071987F0B127198E4FF127198E4FF1271E6
:100AFE0098E4FF1271987F01127198E4FF127198B9
:100B0E007F021271987F0C1271987F01127198E416
:100B1E00FF127198E4FF127198E4FF1271987F0131
:100B2E00127198E4FF1271987F031271987F0C1264
:100B3E0071987F4C1271987F0E1271987F181271F6
:100B4E0098E4FF1271987F01127198E4FF12719868
:100B5E007F041271987F0C127198E4FF1271987FC6
:100B6E00011271987F071271987F141271987F018C
:100B7E00127198E4FF1271987F011271987F0C1216
:100B8E0071987F0C127198E4FF127198E4FF127144
:100B9E0098E4FF1271987F01127198E4FF12719818
:100BAE007F021271987F0C1271987F01127198E476
:100BBE00FF127198E4FF127198E4FF1271987F0191
:100BCE00127198E4FF1271987F031271987F0C12C4
:100BDE0071987F601271987F0E1271987F18127142
:100BEE0098E4FF1271987F01127198E4FF127198C8
:100BFE007F041271987F0C127198E4FF1271987F26
:100C0E00011271987F071271987F141271987F01EB
:100C1E00127198E4FF1271987F011271987F0C1275
:100C2E0071987F0D127198E4FF127198E4FF1271A2
:100C3E0098E4FF1271987F01127198E4FF12719877
:100C4E007F021271987F0C127198E4FF127198E472
:100C5E00FF127198E4FF127198E4FF1271987F01F0
:100C6E00127198E4FF1271987F031271987F0C1223
:100C7E0071987F601271987F0E1271987F181271A1
:100C8E0098E4FF1271987F01127198E4FF12719827
:100C9E007F041271987F0C127198E4FF1271987F85
:100CAE00011271987F071271987F141271987F014B
:100CBE00127198E4FF1271987F011271987F0C12D5
:100CCE0071987F0E127198E4FF127198E4FF127101
:100CDE0098E4FF1271987F01127198E4FF127198D7
:100CEE007F021271987F0C127198E4FF127198E4D2
:100CFE00FF127198E4FF127198E4FF1271987F0150
:100D0E00127198E4FF1271987F031271987F0C1282
:100D1E0071987F601271987F0E1271987F18127100
:100D2E0098E4FF1271987F01127198E4FF12719886
:100D3E007F041271987F0C127198E4FF1271987FE4
:100D4E00011271987F071271987F141271987F01AA
:100D5E00127198E4FF1271987F011271987F0C1234
:100D6E0071987F0F127198E4FF127198E4FF12715F
:100D7E0098E4FF1271987F01127198E4FF12719836
:100D8E007F021271987F0C127198E4FF127198E431
:100D9E00FF127198E4FF127198E4FF1271987F01AF
:100DAE00127198E4FF1271987F031271987F0C12E2
:100DBE0071987F601271987F0E1271987F18127160
:100DCE0098E4FF1271987F01127198E4FF127198E6
:100DDE007F041271987F0C127198E4FF1271987F44
:100DEE00011271987F071271987F141271987F010A
:100DFE00127198E4FF1271987F011271987F0C1294
:100E0E0071987F10127198E4FF127198E4FF1271BD
:100E1E0098E4FF1271987F01127198E4FF12719895
:100E2E007F021271987F0C127198E4FF127198E490
:100E3E00FF127198E4FF127198E4FF1271987F010E
:100E4E00127198E4FF1271987F031271987F0C1241
:100E5E0071987F601271987F0E1271987F181271BF
:100E6E0098E4FF1271987F01127198E4FF12719845
:100E7E007F041271987F0C127198E4FF1271987FA3
:100E8E00011271987F071271987F141271987F0169
:100E9E00127198E4FF1271987F011271987F0C12F3
:100EAE0071987F11127198E4FF127198E4FF12711C
:100EBE0098E4FF1271987F01127198E4FF127198F5
:100ECE007F021271987F0C127198E4FF127198E4F0
:100EDE00FF127198E4FF127198E4FF1271987F016E
:100EEE00127198E4FF1271987F031271987F0C12A1
:100EFE0071987F601271987F0E1271987F1812711F
:100F0E0098E4FF1271987F01127198E4FF127198A4
:100F1E007F041271987F0C127198E4FF1271987F02
:100F2E00011271987F071271987F141271987F01C8
:100F3E00127198E4FF1271987F011271987F0C1252
:100F4E0071987F12127198E4FF127198E4FF12717A
:100F5E0098E4FF1271987F01127198E4FF12719854
:100F6E007F021271987F0C127198E4FF127198E44F
:100F7E00FF127198E4FF127198E4FF1271987F01CD
:100F8E00127198E4FF1271987F031271987F0C1200
:100F9E0071987F601271987F0E1271987F1812717E
:100FAE0098E4FF1271987F01127198E4FF12719804
:100FBE007F041271987F0C127198E4FF1271987F62
:100FCE00011271987F071271987F141271987F0128
:100FDE00127198E4FF1271987F011271987F0C12B2
:100FEE0071987F13127198E4FF127198E4FF1271D9
:100FFE0098E4FF1271987F01127198E4FF127198B4
:10100E007F021271987F0C127198E4FF127198E4AE
:10101E00FF127198E4FF127198E4FF1271987F012C
:10102E00127198E4FF1271987F031271987F0C125F
:10103E0071987F601271987F0E1271987F181271DD
:10104E0098E4FF1271987F01127198E4FF12719863
:10105E007F041271987F0C127198E4FF1271987FC1
:10106E00011271987F071271987F141271987F0187
:10107E00127198E4FF1271987F011271987F0C1211
:10108E0071987F14127198E4FF127198E4FF127137
:10109E0098E4FF1271987F01127198E4FF12719813
:1010AE007F021271987F0C127198E4FF127198E40E
:1010BE00FF127198E4FF127198E4FF1271987F018C
:1010CE00127198E4FF1271987F031271987F0C12BF
:1010DE0071987F601271987F0E1271987F1812713D
:1010EE0098E4FF1271987F01127198E4FF127198C3
:1010FE007F041271987F0C127198E4FF1271987F21
:10110E00011271987F071271987F141271987F01E6
:10111E00127198E4FF1271987F011271987F0C1270
:10112E0071987F15127198E4FF127198E4FF127195
:10113E0098E4FF1271987F01127198E4FF12719872
:10114E007F021271987F0C127198E4FF127198E46D
:10115E00FF127198E4FF127198E4FF1271987F01EB
:10116E00127198E4FF1271987F031271987F0C121E
:10117E0071987F601271987F0E1271987F1812719C
:10118E0098E4FF1271987F01127198E4FF12719822
:10119E007F041271987F0C127198E4FF1271987F80
:1011AE00011271987F071271987F141271987F0146
:1011BE00127198E4FF1271987F011271987F0C12D0
:1011CE0071987F16127198E4FF127198E4FF1271F4
:1011DE0098E4FF1271987F01127198E4FF127198D2
:1011EE007F021271987F0C127198E4FF127198E4CD
:1011FE00FF127198E4FF127198E4FF1271987F014B
:10120E00127198E4FF1271987F031271987F0C127D
:10121E0071987F601271987F0E1271987F181271FB
:10122E0098E4FF1271987F01127198E4FF12719881
:10123E007F041271987F0C127198E4FF1271987FDF
:10124E00011271987F071271987F141271987F01A5
:10125E00127198E4FF1271987F011271987F0C122F
:10126E0071987F17127198E4FF127198E4FF127152
:10127E0098E4FF1271987F01127198E4FF12719831
:10128E007F021271987F0C127198E4FF127198E42C
:10129E00FF127198E4FF127198E4FF1271987F01AA
:1012AE00127198E4FF1271987F031271987F0C12DD
:1012BE0071987F601271987F0E1271987F1812715B
:1012CE0098E4FF1271987F01127198E4FF127198E1
:1012DE007F041271987F0C127198E4FF1271987F3F
:1012EE00011271987F071271987F141271987F0105
:1012FE00127198E4FF1271987F011271987F0C128F
:10130E0071987F18127198E4FF127198E4FF1271B0
:10131E0098E4FF1271987F01127198E4FF12719890
:10132E007F021271987F0C127198E4FF127198E48B
:10133E00FF127198E4FF127198E4FF1271987F0109
:10134E00127198E4FF1271987F031271987F0C123C
:10135E0071987F601271987F0E1271987F181271BA
:10136E0098E4FF1271987F01127198E4FF12719840
:10137E007F041271987F0C127198E4FF1271987F9E
:10138E00011271987F071271987F141271987F0164
:10139E00127198E4FF1271987F011271987F0C12EE
:1013AE0071987F19127198E4FF127198E4FF12710F
:1013BE0098E4FF1271987F01127198E4FF127198F0
:1013CE007F021271987F0C127198E4FF127198E4EB
:1013DE00FF127198E4FF127198E4FF1271987F0169
:1013EE00127198E4FF1271987F031271987F0C129C
:1013FE0071987F601271987F0E1271987F1812711A
:10140E0098E4FF1271987F01127198E4FF1271989F
:10141E007F041271987F0C127198E4FF1271987FFD
:10142E00011271987F071271987F141271987F01C3
:10143E00127198E4FF1271987F011271987F0C124D
:10144E0071987F1A127198E4FF127198E4FF12716D
:10145E0098E4FF1271987F01127198E4FF1271984F
:10146E007F021271987F0C127198E4FF127198E44A
:10147E00FF127198E4FF127198E4FF1271987F01C8
:10148E00127198E4FF1271987F031271987F0C12FB
:10149E0071987F601271987F0E1271987F18127179
:1014AE0098E4FF1271987F01127198E4FF127198FF
:1014BE007F041271987F0C127198E4FF1271987F5D
:1014CE00011271987F071271987F141271987F0123
:1014DE00127198E4FF1271987F011271987F0C12AD
:1014EE0071987F1B127198E4FF127198E4FF1271CC
:1014FE0098E4FF1271987F01127198E4FF127198AF
:10150E007F021271987F0C127198E4FF127198E4A9
:10151E00FF127198E4FF127198E4FF1271987F0127
:10152E00127198E4FF1271987F031271987F0C125A
:10153E0071987F601271987F0E1271987F181271D8
:10154E0098E4FF1271987F01127198E4FF1271985E
:10155E007F041271987F0C127198E4FF1271987FBC
:10156E00011271987F071271987F141271987F0182
:10157E00127198E4FF1271987F011271987F0C120C
:10158E0071987F1C127198E4FF127198E4FF12712A
:10159E0098E4FF1271987F01127198E4FF1271980E
:1015AE007F021271987F0C127198E4FF127198E409
:1015BE00FF127198E4FF127198E4FF1271987F0187
:1015CE00127198E4FF1271987F031271987F0C12BA
:1015DE0071987F601271987F0E1271987F18127138
:1015EE0098E4FF1271987F01127198E4FF127198BE
:1015FE007F041271987F0C127198E4FF1271987F1C
:10160E00011271987F071271987F141271987F01E1
:10161E00127198E4FF1271987F011271987F0C126B
:10162E0071987F1D127198E4FF127198E4FF127188
:10163E0098E4FF1271987F01127198E4FF1271986D
:10164E007F021271987F0C127198E4FF127198E468
:10165E00FF127198E4FF127198E4FF1271987F01E6
:10166E00127198E4FF1271987F031271987F0C1219
:10167E0071987F601271987F0E1271987F18127197
:10168E0098E4FF1271987F01127198E4FF1271981D
:10169E007F041271987F0C127198E4FF1271987F7B
:1016AE00011271987F071271987F141271987F0141
:1016BE00127198E4FF1271987F011271987F0C12CB
:1016CE0071987F1E127198E4FF127198E4FF1271E7
:1016DE0098E4FF1271987F01127198E4FF127198CD
:1016EE007F021271987F0C127198E4FF127198E4C8
:1016FE00FF127198E4FF127198E4FF1271987F0146
:10170E00127198E4FF1271987F031271987F0C1278
:10171E0071987F601271987F0E1271987F181271F6
:10172E0098E4FF1271987F01127198E4FF1271987C
:10173E007F041271987F0C127198E4FF1271987FDA
:10174E00011271987F071271987F141271987F01A0
:10175E00127198E4FF1271987F011271987F0C122A
:10176E0071987F1F127198E4FF127198E4FF127145
:10177E0098E4FF1271987F01127198E4FF1271982C
:10178E007F021271987F0C127198E4FF127198E427
:10179E00FF127198E4FF127198E4FF1271987F01A5
:1017AE00127198E4FF1271987F031271987F0C12D8
:1017BE0071987F601271987F0E1271987F18127156
:1017CE0098E4FF1271987F01127198E4FF127198DC
:1017DE007F041271987F0C127198E4FF1271987F3A
:1017EE00011271987F071271987F141271987F0100
:1017FE00127198E4FF1271987F011271987F0C128A
:10180E0071987F20127198E4FF127198E4FF1271A3
:10181E0098E4FF1271987F01127198E4FF1271988B
:10182E007F021271987F0C127198E4FF127198E486
:10183E00FF127198E4FF127198E4FF1271987F0104
:10184E00127198E4FF1271987F031271987F0C1237
:10185E0071987F601271987F0E1271987F181271B5
:10186E0098E4FF1271987F01127198E4FF1271983B
:10187E007F041271987F0C127198E4FF1271987F99
:10188E00011271987F071271987F141271987F015F
:10189E00127198E4FF1271987F011271987F0C12E9
:1018AE0071987F21127198E4FF127198E4FF127102
:1018BE0098E4FF1271987F01127198E4FF127198EB
:1018CE007F021271987F0C127198E4FF127198E4E6
:1018DE00FF127198E4FF127198E4FF1271987F0164
:1018EE00127198E4FF1271987F031271987F0C1297
:1018FE0071987F601271987F0E1271987F18127115
:10190E0098E4FF1271987F01127198E4FF1271989A
:10191E007F041271987F0C127198E4FF1271987FF8
:10192E00011271987F071271987F141271987F01BE
:10193E00127198E4FF1271987F011271987F0C1248
:10194E0071987F22127198E4FF127198E4FF127160
:10195E0098E4FF1271987F01127198E4FF1271984A
:10196E007F021271987F0C127198E4FF127198E445
:10197E00FF127198E4FF127198E4FF1271987F01C3
:10198E00127198E4FF1271987F031271987F0C12F6
:10199E0071987F601271987F0E1271987F18127174
:1019AE0098E4FF1271987F01127198E4FF127198FA
:1019BE007F041271987F0C127198E4FF1271987F58
:1019CE00011271987F071271987F141271987F011E
:1019DE00127198E4FF1271987F011271987F0C12A8
:1019EE0071987F23127198E4FF127198E4FF1271BF
:1019FE0098E4FF1271987F01127198E4FF127198AA
:101A0E007F021271987F0C127198E4FF127198E4A4
:101A1E00FF127198E4FF127198E4FF1271987F0122
:101A2E00127198E4FF1271987F031271987F0C1255
:101A3E0071987F601271987F0E1271987F181271D3
:101A4E0098E4FF1271987F01127198E4FF12719859
:101A5E007F041271987F0C127198E4FF1271987FB7
:101A6E00011271987F071271987F141271987F017D
:101A7E00127198E4FF1271987F011271987F0C1207
:101A8E0071987F24127198E4FF127198E4FF12711D
:101A9E0098E4FF1271987F01127198E4FF12719809
:101AAE007F021271987F0C127198E4FF127198E404
:101ABE00FF127198E4FF127198E4FF1271987F0182
:101ACE00127198E4FF1271987F031271987F0C12B5
:101ADE0071987F601271987F0E1271987F18127133
:101AEE0098E4FF1271987F01127198E4FF127198B9
:101AFE007F041271987F0C127198E4FF1271987F17
:101B0E00011271987F071271987F141271987F01DC
:101B1E00127198E4FF1271987F011271987F0C1266
:101B2E0071987F25127198E4FF127198E4FF12717B
:101B3E0098E4FF1271987F01127198E4FF12719868
:101B4E007F021271987F0C127198E4FF127198E463
:101B5E00FF127198E4FF127198E4FF1271987F01E1
:101B6E00127198E4FF1271987F031271987F0C1214
:101B7E0071987F601271987F0E1271987F18127192
:101B8E0098E4FF1271987F01127198E4FF12719818
:101B9E007F041271987F0C127198E4FF1271987F76
:101BAE00011271987F071271987F141271987F013C
:101BBE00127198E4FF1271987F011271987F0C12C6
:101BCE0071987F26127198E4FF127198E4FF1271DA
:101BDE0098E4FF1271987F01127198E4FF127198C8
:101BEE007F021271987F0C127198E4FF127198E4C3
:101BFE00FF127198E4FF127198E4FF1271987F0141
:101C0E00127198E4FF1271987F031271987F0C1273
:101C1E0071987F601271987F0E1271987F181271F1
:101C2E0098E4FF1271987F01127198E4FF12719877
:101C3E007F041271987F0C127198E4FF1271987FD5
:101C4E00011271987F071271987F141271987F019B
:101C5E00127198E4FF1271987F011271987F0C1225
:101C6E0071987F27127198E4FF127198E4FF127138
:101C7E0098E4FF1271987F01127198E4FF12719827
:101C8E007F021271987F0C127198E4FF127198E422
:101C9E00FF127198E4FF127198E4FF1271987F01A0
:101CAE00127198E4FF1271987F031271987F0C12D3
:101CBE0071987F601271987F0E1271987F18127151
:101CCE0098E4FF1271987F01127198E4FF127198D7
:101CDE007F041271987F0C127198E4FF1271987F35
:101CEE00011271987F071271987F141271987F01FB
:101CFE00127198E4FF1271987F011271987F0C1285
:101D0E0071987F28127198E4FF127198E4FF127196
:101D1E0098E4FF1271987F01127198E4FF12719886
:101D2E007F021271987F0C127198E4FF127198E481
:101D3E00FF127198E4FF127198E4FF1271987F01FF
:101D4E00127198E4FF1271987F031271987F0C1232
:101D5E0071987F601271987F0E1271987F181271B0
:101D6E0098E4FF1271987F01127198E4FF12719836
:101D7E007F041271987F0C127198E4FF1271987F94
:101D8E00011271987F071271987F141271987F015A
:101D9E00127198E4FF1271987F011271987F0C12E4
:101DAE0071987F29127198E4FF127198E4FF1271F5
:101DBE0098E4FF1271987F01127198E4FF127198E6
:101DCE007F021271987F0C127198E4FF127198E4E1
:101DDE00FF127198E4FF127198E4FF1271987F015F
:101DEE00127198E4FF1271987F031271987F0C1292
:101DFE0071987F601271987F0E1271987F18127110
:101E0E0098E4FF1271987F01127198E4FF12719895
:101E1E007F041271987F0C127198E4FF1271987FF3
:101E2E00011271987F071271987F141271987F01B9
:101E3E00127198E4FF1271987F011271987F0C1243
:101E4E0071987F2A127198E4FF127198E4FF127153
:101E5E0098E4FF1271987F01127198E4FF12719845
:101E6E007F021271987F0C127198E4FF127198E440
:101E7E00FF127198E4FF127198E4FF1271987F01BE
:101E8E00127198E4FF1271987F031271987F0C12F1
:101E9E0071987F601271987F0E1271987F1812716F
:101EAE0098E4FF1271987F01127198E4FF127198F5
:101EBE007F041271987F0C127198E4FF1271987F53
:101ECE00011271987F071271987F141271987F0119
:101EDE00127198E4FF1271987F011271987F0C12A3
:101EEE0071987F2B127198E4FF127198E4FF1271B2
:101EFE0098E4FF1271987F01127198E4FF127198A5
:101F0E007F021271987F0C127198E4FF127198E49F
:101F1E00FF127198E4FF127198E4FF1271987F011D
:101F2E00127198E4FF1271987F031271987F0C1250
:101F3E0071987F601271987F0E1271987F181271CE
:101F4E0098E4FF1271987F01127198E4FF12719854
:101F5E007F041271987F0C127198E4FF1271987FB2
:101F6E00011271987F071271987F141271987F0178
:101F7E00127198E4FF1271987F011271987F0C1202
:101F8E0071987F2C127198E4FF127198E4FF127110
:101F9E0098E4FF1271987F01127198E4FF12719804
:101FAE007F021271987F0C127198E4FF127198E4FF
:101FBE00FF127198E4FF127198E4FF1271987F017D
:101FCE00127198E4FF1271987F031271987F0C12B0
:101FDE0071987F601271987F0E1271987F1812712E
:101FEE0098E4FF1271987F01127198E4FF127198B4
:101FFE007F041271987F0C127198E4FF1271987F12
:10200E00011271987F071271987F141271987F01D7
:10201E00127198E4FF1271987F011271987F0C1261
:10202E0071987F2D127198E4FF127198E4FF12716E
:10203E0098E4FF1271987F01127198E4FF12719863
:10204E007F021271987F0C127198E4FF127198E45E
:10205E00FF127198E4FF127198E4FF1271987F01DC
:10206E00127198E4FF1271987F031271987F0C120F
:10207E0071987F601271987F0E1271987F1812718D
:10208E0098E4FF1271987F01127198E4FF12719813
:10209E007F041271987F0C127198E4FF1271987F71
:1020AE00011271987F071271987F141271987F0137
:1020BE00127198E4FF1271987F011271987F0C12C1
:1020CE0071987F2E127198E4FF127198E4FF1271CD
:1020DE0098E4FF1271987F01127198E4FF127198C3
:1020EE007F021271987F0C127198E4FF127198E4BE
:1020FE00FF127198E4FF127198E4FF1271987F013C
:10210E00127198E4FF1271987F031271987F0C126E
:10211E0071987F601271987F0E1271987F181271EC
:10212E0098E4FF1271987F01127198E4FF12719872
:10213E007F041271987F0C127198E4FF1271987FD0
:10214E00011271987F071271987F141271987F0196
:10215E00127198E4FF1271987F011271987F0C1220
:10216E0071987F2F127198E4FF127198E4FF12712B
:10217E0098E4FF1271987F01127198E4FF12719822
:10218E007F021271987F0C127198E4FF127198E41D
:10219E00FF127198E4FF127198E4FF1271987F019B
:1021AE00127198E4FF1271987F031271987F0C12CE
:1021BE0071987F601271987F0E1271987F1812714C
:1021CE0098E4FF1271987F01127198E4FF127198D2
:1021DE007F041271987F0C127198E4FF1271987F30
:1021EE00011271987F071271987F141271987F01F6
:1021FE00127198E4FF1271987F011271987F0C1280
:10220E0071987F30127198E4FF127198E4FF127189
:10221E0098E4FF1271987F01127198E4FF12719881
:10222E007F021271987F0C127198E4FF127198E47C
:10223E00FF127198E4FF127198E4FF1271987F01FA
:10224E00127198E4FF1271987F031271987F0C122D
:10225E0071987F601271987F0E1271987F181271AB
:10226E0098E4FF1271987F01127198E4FF12719831
:10227E007F041271987F0C127198E4FF1271987F8F
:10228E00011271987F071271987F141271987F0155
:10229E00127198E4FF1271987F011271987F0C12DF
:1022AE0071987F31127198E4FF127198E4FF1271E8
:1022BE0098E4FF1271987F01127198E4FF127198E1
:1022CE007F021271987F0C127198E4FF127198E4DC
:1022DE00FF127198E4FF127198E4FF1271987F015A
:1022EE00127198E4FF1271987F031271987F0C128D
:1022FE0071987F601271987F0E1271987F1812710B
:10230E0098E4FF1271987F01127198E4FF12719890
:10231E007F041271987F0C127198E4FF1271987FEE
:0F232E00011271987F071271987F141271982213
:05233D009002EAEFF040
:102342009002EC7424F078ED7C027D017BFF7A57D9
:10235200798C7E00FF1240969003117408F0781277
:102362007C037D017BFF7A5779B07E00FF12409695
:1023720090031A7408F0781B7C037D017BFF7A5767
:1023820079B87E00FF1240969003237408F07824F7
:102392007C037D017BFF7A5779C07E00FF12409655
:1023A20090032C7408F0782D7C037D017BFF7A5713
:1023B20079C87E00FF1240969003357408F0783693
:1023C2007C037D017BFF7A5779D07E00FF12409615
:1023D20090033E7408F0783F7C037D017BFF7A57BF
:1023E20079D87E00FF1240969003477408F078482F
:1023F2007C037D017BFF7A5779E07E00FF124096D5
:102402009003507408F078517C037D017BFF7A576A
:1024120079E87E00FF1240969003597408F0785ACA
:102422007C037D017BFF7A5779F07E00FF12409694
:102432009003627408F078637C037D017BFF7A5716
:1024420079F87E00FF12409690036B7408F0786C66
:102452007C037D017BFF7A5879007E00FF12409653
:102462009003747408F078757C037D017BFF7A58C1
:1024720079087E00FF12409690037D7408F0787E02
:102482007C037D017BFF7A5879107E00FF12409613
:102492009003867408F078877C037D017BFF7A586D
:1024A20079187E00FF12409690038F7408F078909E
:1024B2007C037D017BFF7A5879207E00FF124096D3
:1024C2009003987408F078997C037D017BFF7A5819
:1024D20079287E00FF1240969003A17408F078A23A
:1024E2007C037D017BFF7A5879307E00FF12409693
:1024F2009003AA7408F078AB7C037D017BFF7A58C5
:1025020079387E00FF1240969003B37408F078B4D5
:102512007C037D017BFF7A5879407E00FF12409652
:102522009003BC7408F078BD7C037D017BFF7A5870
:1025320079487E00FF1240969003C57408F078C671
:102542007C037D017BFF7A5879507E00FF12409612
:102552009003CE7408F078CF7C037D017BFF7A581C
:1025620079587E00FF124096E49003D7F078D87C29
:10257200037D017BFF7A587960FE7F0112409690BD
:1025820003D97408F078DA7C037D017BFF7A5879ED
:10259200617E00FF1240969003E27408F078E37CBB
:1025A200037D017BFF7A5879697E00FF1240969085
:1025B20003EB7408F078EC7C037D017BFF7A587999
:1025C200717E00FF1240969003F47408F078F57C57
:1025D200037D017BFF7A5879797E00FF1240969045
:1025E20003FD7408F078FE7C037D017BFF7A587945
:1025F200817E00FF1240969004067408F078077CF2
:10260200047D017BFF7A5879897E00FF1240969003
:10261200040F7420F078107C047D017BFF7A5879D6
:10262200917E00FF1240969004307408F078317C5D
:10263200047D017BFF7A5879B17E00FF12409690AB
:1026420004397408F0783A7C047D017BFF7A58796A
:10265200B97E00FF1240969002EAE014B4210040D5
:102662000302305890267475F003A4C58325F0C583
:1026720083730226D70227250227730227C1022865
:102682000F02285D0228AB0228F902294702299588
:102692000229E3022A31022A7F022ACD022B1B02DF
:1026A2002B69022BB7022C12022C60022CAE022CD8
:1026B200B1022CFF022D4D022D9B022DE9022E3775
:1026C200022E85022ED3022F21022F6F022CAE0280
:1026D2002FBD02300AE49002EBF09002ECE0FF9092
:1026E20002EBE0FEC3EF6480F8EE648098400302E0
:1026F200305BE0FFFD3395E0FC74ED2DF582740252
:102702003CF583E0FEEF3395E0FC74F42DF5827422
:10271200003CF583E06E6003022C559002EBE0046E
:10272200F080B7E49002EBF0900311E0FF9002EB2F
:10273200E0FEC3EF6480F8EE648098400302305BF1
:10274200E0FFFD3395E0FC74122DF58274033CF535
:1027520083E0FEEF3395E0FC74F42DF58274003CC7
:10276200F583E06E6003022C559002EBE004F080EA
:10277200B7E49002EBF090031AE0FF9002EBE0FE68
:10278200C3EF6480F8EE648098400302305BE0FFA0
:10279200FD3395E0FC741B2DF58274033CF583E058
:1027A200FEEF3395E0FC74F42DF58274003CF58362
:1027B200E06E6003022C559002EBE004F080B7E477
:1027C2009002EBF0900323E0FF9002EBE0FEC3EFF8
:1027D2006480F8EE648098400302305BE0FFFD33D2
:1027E20095E0FC74242DF58274033CF583E0FEEF42
:1027F2003395E0FC74F42DF58274003CF583E06EB1
:102802006003022C559002EBE004F080B7E49002E2
:10281200EBF090032CE0FF9002EBE0FEC3EF64804C
:10282200F8EE648098400302305BE0FFFD3395E0F0
:10283200FC742D2DF58274033CF583E0FEEF339595
:10284200E0FC74F42DF58274003CF583E06E6003C5
:10285200022C559002EBE004F080B7E49002EBF01A
:10286200900335E0FF9002EBE0FEC3EF6480F8EEE8
:10287200648098400302305BE0FFFD3395E0FC7416
:10288200362DF58274033CF583E0FEEF3395E0FCD0
:1028920074F42DF58274003CF583E06E6003022C23
:1028A200559002EBE004F080B7E49002EBF0900365
:1028B2003EE0FF9002EBE0FEC3EF6480F8EE64803E
:1028C20098400302305BE0FFFD3395E0FC743F2D3E
:1028D200F58274033CF583E0FEEF3395E0FC74F47B
:1028E2002DF58274003CF583E06E6003022C559056
:1028F20002EBE004F080B7E49002EBF0900347E0D3
:10290200FF9002EBE0FEC3EF6480F8EE6480984033
:102912000302305BE0FFFD3395E0FC74482DF58245
:1029220074033CF583E0FEEF3395E0FC74F42DF57F
:102932008274003CF583E06E6003022C559002EB3A
:10294200E004F080B7E49002EBF0900350E0FF90D7
:1029520002EBE0FEC3EF6480F8EE6480984003026D
:10296200305BE0FFFD3395E0FC74512DF58274037A
:102972003CF583E0FEEF3395E0FC74F42DF58274B0
:10298200003CF583E06E6003022C559002EBE004FC
:10299200F080B7E49002EBF0900359E0FF9002EB75
:1029A200E0FEC3EF6480F8EE648098400302305B7F
:1029B200E0FFFD3395E0FC745A2DF58274033CF57B
:1029C20083E0FEEF3395E0FC74F42DF58274003C55
:1029D200F583E06E6003022C559002EBE004F08078
:1029E200B7E49002EBF0900362E0FF9002EBE0FEAE
:1029F200C3EF6480F8EE648098400302305BE0FF2E
:102A0200FD3395E0FC74632DF58274033CF583E09D
:102A1200FEEF3395E0FC74F42DF58274003CF583EF
:102A2200E06E6003022C559002EBE004F080B7E404
:102A32009002EBF090036BE0FF9002EBE0FEC3EF3D
:102A42006480F8EE648098400302305BE0FFFD335F
:102A520095E0FC746C2DF58274033CF583E0FEEF87
:102A62003395E0FC74F42DF58274003CF583E06E3E
:102A72006003022C559002EBE004F080B7E4900270
:102A8200EBF0900374E0FF9002EBE0FEC3EF648092
:102A9200F8EE648098400302305BE0FFFD3395E07E
:102AA200FC74752DF58274033CF583E0FEEF3395DB
:102AB200E0FC74F42DF58274003CF583E06E600353
:102AC200022C559002EBE004F080B7E49002EBF0A8
:102AD20090037DE0FF9002EBE0FEC3EF6480F8EE2E
:102AE200648098400302305BE0FFFD3395E0FC74A4
:102AF2007E2DF58274033CF583E0FEEF3395E0FC16
:102B020074F42DF58274003CF583E06E6003022CB0
:102B1200559002EBE004F080B7E49002EBF09003F2
:102B220086E0FF9002EBE0FEC3EF6480F8EE648083
:102B320098400302305BE0FFFD3395E0FC74872D83
:102B4200F58274033CF583E0FEEF3395E0FC74F408
:102B52002DF58274003CF583E06E6003022C5590E3
:102B620002EBE004F080B7E49002EBF090038FE018
:102B7200FF9002EBE0FEC3EF6480F8EE64809840C1
:102B82000302305BE0FFFD3395E0FC74902DF5828B
:102B920074033CF583E0FEEF3395E0FC74F42DF50D
:102BA2008274003CF583E06E6003022C559002EBC8
:102BB200E004F080B7E49002EBF0900398E0FF901D
:102BC20002EBE0FEC3EF6480F8EE648098400302FB
:102BD200305BE0FFFD3395E0FC74992DF5827403C0
:102BE2003CF583E0FEEF3395E0FC74F42DF582743E
:102BF200003CF583E06E60107FBB1271A19002EB86
:102C0200E0FF1271A102304A9002EBE004F080AAC8
:102C1200E49002EBF09003A1E0FF9002EBE0FEC330
:102C2200EF6480F8EE648098400302305BE0FFFDC1
:102C32003395E0FC74A22DF58274033CF583E0FE2B
:102C4200EF3395E0FC74F42DF58274003CF583E0DB
:102C52006E600302304A9002EBE004F080B7E49029
:102C620002EBF09003AAE0FF9002EBE0FEC3EF64F8
:102C720080F8EE648098400302305BE0FFFD3395FC
:102C8200E0FC74AB2DF58274033CF583E0FEEF3378
:102C920095E0FC74F42DF58274003CF583E06E60DF
:102CA2000302304A9002EBE004F080B77F0022E496
:102CB2009002EBF09003BCE0FF9002EBE0FEC3EF6A
:102CC2006480F8EE648098400302305BE0FFFD33DD
:102CD20095E0FC74BD2DF58274033CF583E0FEEFB4
:102CE2003395E0FC74F42DF58274003CF583E06EBC
:102CF200600302304A9002EBE004F080B7E49002F5
:102D0200EBF09003C5E0FF9002EBE0FEC3EF6480BE
:102D1200F8EE648098400302305BE0FFFD3395E0FB
:102D2200FC74C62DF58274033CF583E0FEEF339507
:102D3200E0FC74F42DF58274003CF583E06E6003D0
:102D420002304A9002EBE004F080B7E49002EBF02C
:102D52009003CEE0FF9002EBE0FEC3EF6480F8EE5A
:102D6200648098400302305BE0FFFD3395E0FC7421
:102D7200CF2DF58274033CF583E0FEEF3395E0FC42
:102D820074F42DF58274003CF583E06E600302302A
:102D92004A9002EBE004F080B7E49002EBF090037B
:102DA200D7E0FF9002EBE0FEC3EF6480F8EE6480B0
:102DB20098400302305BE0FFFD3395E0FC74D82DB0
:102DC200F58274033CF583E0FEEF3395E0FC74F486
:102DD2002DF58274003CF583E06E600302304A9068
:102DE20002EBE004F080B7E49002EBF09003D9E04C
:102DF200FF9002EBE0FEC3EF6480F8EE648098403F
:102E02000302305BE0FFFD3395E0FC74DA2DF582BE
:102E120074033CF583E0FEEF3395E0FC74F42DF58A
:102E22008274003CF583E06E600302304A9002EB4C
:102E3200E004F080B7E49002EBF09003E2E0FF9050
:102E420002EBE0FEC3EF6480F8EE64809840030278
:102E5200305BE0FFFD3395E0FC74E32DF5827403F3
:102E62003CF583E0FEEF3395E0FC74F42DF58274BB
:102E7200003CF583E06E600302304A9002EBE0040E
:102E8200F080B7E49002EBF09003EBE0FF9002EBEE
:102E9200E0FEC3EF6480F8EE648098400302305B8A
:102EA200E0FFFD3395E0FC74EC2DF58274033CF5F4
:102EB20083E0FEEF3395E0FC74F42DF58274003C60
:102EC200F583E06E600302304A9002EBE004F0808A
:102ED200B7E49002EBF09003F4E0FF9002EBE0FE27
:102EE200C3EF6480F8EE648098400302305BE0FF39
:102EF200FD3395E0FC74F52DF58274033CF583E017
:102F0200FEEF3395E0FC74F42DF58274003CF583FA
:102F1200E06E600302304A9002EBE004F080B7E416
:102F22009002EBF09003FDE0FF9002EBE0FEC3EFB6
:102F32006480F8EE648098400302305BE0FFFD336A
:102F420095E0FC74FE2DF58274033CF583E0FEEF00
:102F52003395E0FC74F42DF58274003CF583E06E49
:102F6200600302304A9002EBE004F080B7E4900282
:102F7200EBF0900406E0FF9002EBE0FEC3EF64800A
:102F8200F8EE648098400302305BE0FFFD3395E089
:102F9200FC74072DF58274043CF583E0FEEF339553
:102FA200E0FC74F42DF58274003CF583E06E60035E
:102FB20002304A9002EBE004F080B7E49002EBF0BA
:102FC200900430E0FF9002EBE0FEC3EF6480F8EE85
:102FD200648098400302305BE0FFFD3395E0FC74AF
:102FE200312DF58274043CF583E0FEEF3395E0FC6D
:102FF20074F42DF58274003CF583E06E6002804823
:103002009002EBE004F080B8E49002EBF090043917
:10301200E0FF9002EBE0FEC3EF6480F8EE6480987C
:103022005037E0FFFD3395E0FC743A2DF5827404CD
:103032003CF583E0FEEF3395E0FC74F42DF58274E9
:10304200003CF583E06E60069002EAE0FF22900207
:0B305200EBE004F080B77F00227F005D
:01305D002250
:1070E000E4F5957596FFC2A1C2A253E1EF43E21009
:0170F000227D
:0970F1007F0F1270FAD2FC7F0F30
:0770FA00AE071FEE70FA2241
:026D6E00AB0771
:106D70007A80C2A3EDB40104C2A48002D2A4EAD3F3
:106D800094004011C2FCEA5B24FF92A71270F1EA62
:0E6D9000C313FA80E9C2FCD2A71270F1D2A39D
:016D9E0022D2
:107022003EF583E5822DF582E43583F583E493FF13
:05703200E4FD026D6E9B
:05000E007D01026D6E92
:10660000E4FFFE90051BF0A3F00FBF00010EBE7566
:10661000F8BF30F57FAE12000E7FD512000E7F80DE
:1066200012000E7FA812000E7F2712000E7FD312D9
:10663000000EE4FF12000E7F4012000E7F8D12004C
:106640000E7F1412000E7FA112000E7FC812000EE2
:106650007FDA12000E7F1212000E7F8112000E7F71
:10666000AF12000E7FD912000E7F2512000E7FDBC5
:1066700012000E7F2012000E7FA412000E7FA612C1
:0A668000000E7FAF12000E026B93B4
:106B9300E490051DF0A3F090051DE0FFC39405509C
:106BA30026E4A3F012718FE4FF126EB690051EE087
:106BB300C39460500AE4FF127032E004F080ED9059
:076BC300051DE004F080D085
:016BCA0022A8
:0B676F0090051BEBF0A3EAF0A3E9F09B
:10677A00E4A3F0A3F0A3F0A3F090051EE0FFC394F6
:10678A00055045E4A3F012718FE4FF126EB690052E
:10679A001FE0C39460502990051BE0FBA3E0FAA315
:1067AA00E0F9900520E475F00112419185F082F537
:1067BA00831240D5FF12703290051FE004F080CE9C
:0867CA0090051EE004F080B10F
:0167D20022A4
:06718900F0EB540FA3F02F
:09718F00EF540F44B0FF02000EA2
:086EAE00FF12718FE92408FFB7
:106EB600AC0774202CFC540FFF12000EAF04EFC475
:086EC600540F4410FF02000EFE
:0B4BA10090051BEBF0A3EAF0A3E9F085
:104BAC00E4A3F0A3F090051BE0FBA3E0FAA3E0F96B
:104BBC001240BC7003024EAB90051EE0F9C3940C7E
:104BCC0050087F0112718FE08014E9C394184003E0
:104BDC00024EAB7F0312718F90051EE024F475F02A
:104BEC0008A4FF126EB690051BE0FBA3E0FAA3E04D
:104BFC00F91240BCFFC3648094B0404DD3EF648085
:104C0C0094B95045E490051FF090051FE0FDC39446
:104C1C00084003024D2E90051BE0FBA3E0FAA3E035
:104C2C00F91240BCFF3395E0FEEFC4F8540FC8688E
:104C3C00FFEEC454F048FE743E2FF582742F1270B0
:104C4C002290051FE004F080C090051BE0FBA3E060
:104C5C00FAA3E0F91240BCFFC3648094E1404DD349
:104C6C00EF648094FA5045E490051FF090051FE026
:104C7C00FDC394084003024D2E90051BE0FBA3E0FE
:104C8C00FAA3E0F91240BCFF3395E0FEEFC4F854F0
:104C9C000FC868FFEEC454F048FE742E2FF58274D2
:104CAC002D12702290051FE004F080C090051BE0CF
:104CBC00FBA3E0FAA3E0F91240BCFFC3648094C1EB
:104CCC00404AD3EF648094DA5042E490051FF09090
:104CDC00051FE0FDC39408504990051BE0FBA3E0C1
:104CEC00FAA3E0F91240BCFF3395E0FEEFC4F85490
:104CFC000FC868FFEEC454F048FE74CE2FF58274D2
:104D0C003012702290051FE004F080C3E490051F60
:104D1C00F0E4FF12703290051FE004F0E0C3940839
:104D2C0040EF90051EE0F9C3940C50087F021271FD
:104D3C008FE08014E9C394184003024EAB7F041239
:104D4C00718F90051EE024F475F008A4FF126EB666
:104D5C0090051BE0FBA3E0FAA3E0F91240BCFFC3F3
:104D6C00648094B0404DD3EF648094B95045E49086
:104D7C00051FF090051FE0FDC394084003024E98F8
:104D8C0090051BE0FBA3E0FAA3E0F91240BCFF3353
:104D9C0095E0FEEFC4F8540FC868FFEEC454F04819
:104DAC00FE74462FF582742F12702290051FE004BA
:104DBC00F080C090051BE0FBA3E0FAA3E0F91240E1
:104DCC00BCFFC3648094E1404DD3EF648094FA50EF
:104DDC0045E490051FF090051FE0FDC394084003C7
:104DEC00024E9890051BE0FBA3E0FAA3E0F91240F9
:104DFC00BCFF3395E0FEEFC4F8540FC868FFEEC457
:104E0C0054F048FE74362FF582742D1270229005E2
:104E1C001FE004F080C090051BE0FBA3E0FAA3E0C8
:104E2C00F91240BCFFC3648094C1404AD3EF648044
:104E3C0094DA5042E490051FF090051FE0FDC394F6
:104E4C0008504990051BE0FBA3E0FAA3E0F91240DF
:104E5C00BCFF3395E0FEEFC4F8540FC868FFEEC4F6
:104E6C0054F048FE74D62FF58274301270229005DF
:104E7C001FE004F080C3E490051FF0E4FF127032D1
:104E8C0090051FE004F0E0C3940840EF90051EE08D
:0F4E9C0004F090051CE475F00112417B024BB14C
:014EAB0022E4
:075F0B00A905900577EFF0F6
:105F1200E4FCEBC4540FA3127189AF01126EB6E414
:105F2200FC900578E0C454F0243EF582E43432F566
:105F320083E5822C1270280CECB408E5900577E01A
:105F420004FF12718FAF01126EB6E4FC900578E087
:105F5200C454F02446F582E43432F583E5822C12EF
:105F620070280CECB408E5900577E0126EAEE4FC04
:105F7200EC6407900579601BE0C454F0243EF5827E
:105F8200E43432F583E5822CF582E43583F583E44B
:105F920093801BE0C454F0243EF582E43432F5834E
:105FA200E5822CF582E43583F583E4934401FF1204
:105FB20070320CECB408B9900577E004126EAEE4CE
:105FC200FC900579E0C454F02446F582E43432F5BD
:0C5FD20083E5822C1270280CECB408E56A
:015FDE0022A0
:0B670300900568EBF0A3EAF0A3E9F0BA
:10670E00E4A3F0900568E0FBA3E0FAA3E0F9A3E0B0
:10671E00FFF5827583001240D5FB6044EFC39406EB
:10672E00500C90056BE0C454F0FD7F01802790055E
:10673E006BE0FFC3940C5028EF24FAC454F0FD9084
:10674E000568E0FBA3E0FAA3E0F98F8275830012DF
:10675E0040D5FB7F03125F0B90056BE004F080A326
:01676E002208
:045C3D00AA07AC0501
:105C4100E4F9EBC4540F900520127189AF04126E70
:105C5100B6900520E0FFC39400402BEFD394095088
:105C610025E4900520E075F005A429F582E435F0DE
:105C7100F583E58224AEF582E583343012702D0977
:105C8100E9B405DE803A900520E0FFC3940A500391
:105C9100025D35EFD3940F4003025D35E4F99005C1
:105CA10020E075F005A429F582E435F0F583E5825D
:105CB10024D1F582E583343012702D09E9B405DE73
:105CC100E4FF127032900521E0FFC39400402CEFF5
:105CD100D394095026E4F9900521E075F005A42933
:105CE100F582E435F0F583E58224AEF582E583346F
:105CF1003012702D09E9B405DE8034900521E0FFF2
:105D0100C3940A402FEFD3940F5029E4F990052151
:105D1100E075F005A429F582E435F0F583E58224E8
:105D2100D1F582E583343012702D09E9B405DE7FA7
:045D310003127032B7
:015D3500224B
:0B61640090051BEBF0A3EAF0A3E9F0AC
:10616F00E4A3F0A3F090051BE0FBA3E0FAA3E0F992
:10617F001240BCFB700302621F90051EE0FFC39428
:10618F0008500AEF75F00CA4FD7F01806D90051E7D
:10619F00E0FFC39410501BEF24F875F00CA4FD9092
:1061AF00051BE0FBA3E0FAA3E0F91240BCFB7F0262
:1061BF00804890051EE0FFC39418501BEF24F07524
:1061CF00F00CA4FD90051BE0FBA3E0FAA3E0F9128D
:1061DF0040BCFB7F03802390051EE0FFC39420503B
:1061EF002FEF24E875F00CA4FD90051BE0FBA3E056
:1061FF00FAA3E0F91240BCFB7F04125C3D90051C32
:10620F00E475F00112417B90051EE004F002617409
:01621F00225C
:076C0200900520EDF0A9034D
:106C0900E4FC12718FE0FF126EB6E4FC75F005E941
:106C1900A42CF582E435F0F583E58224BEF582E5FE
:106C290083342F12702D0CECB405E1E4FF027032AD
:0B62200090051BEBF0A3EAF0A3E9F0EF
:10622B00E4A3F0A3F090051BE0FBA3E0FAA3E0F9D5
:10623B001240BCFB70030262DB90051EE0FFC394AF
:10624B0010500AEF75F006A4FD7F01806D90051EBE
:10625B00E0FFC39420501BEF24F075F006A4FD90D3
:10626B00051BE0FBA3E0FAA3E0F91240BCFB7F02A5
:10627B00804890051EE0FFC39430501BEF24E0755F
:10628B00F006A4FD90051BE0FBA3E0FAA3E0F912D6
:10629B0040BCFB7F03802390051EE0FFC39440505E
:1062AB002FEF24D075F006A4FD90051BE0FBA3E0B7
:1062BB00FAA3E0F91240BCFB7F04126C0290051CA0
:1062CB00E475F00112417B90051EE004F002623090
:0162DB0022A0
:106ECE007401A807088002C333D8FCF59DE4F5BD14
:0F6EDE00EF4488F5BC7F02126FF5D2ADD2AF2220
:03002B000262DC92
:0D62DC00C0E0C0F0C083C082C0D075D00803
:1062E900900526E4F0A3F0FFFEA3F0A3F0C2ADF5FC
:1062F900BC12712F7F03126FDE900526E4F0A3EF25
:10630900F012712F7F03126FDE7E00900526E0FCEC
:10631900A3E0FDD39FEC9E401DED9FFBEC9EFAC3CD
:10632900EB9423EA9400504EED2FFFEE3CC313FE8D
:10633900EF13FFA38030C3ED9FEC9E502C900526F0
:10634900E0FCA3E0FDC3EF9DFDEE9CFCC3ED9423AF
:10635900EC94005021E02FFF900526E03EC313FE88
:10636900EF13FF900528EE8009900526E0FFA3E0D2
:08637900A3CFF0A3EFF0D2ADB9
:0B638100D0D0D082D083D0F0D0E0322A
:106FDE00E4F5BDEF4488F5BC00000000E5BC30E4EC
:076FEE00FB75BC00AFBD22E2
:106E6A00AC07E4123D5F900560E0F8A3E0F9A3E007
:106E7A00FAA3E0FB123B36E4FBFA79807843123C32
:026E8A003F22A5
:106DCB00E4FDFCF5BDF5BEEF4488F5BC000000000A
:106DDB00E5BC30E4FB75BC00AFBDEF75F004A4FD62
:096DEB00ACF0AFBEED4FAE04FFA9
:016DF400227C
:10005E00AD07AC06E4123D5A90055BE0F8A3E0F95B
:10006E00A3E0FAA3E0FB123B36E4FBFA7980784476
:04007E00123C3F22CF
:106FF500AE071FEE60107C137D88ED1DAA0470019D
:067005001C4A60EC80F45F
:01700B002262
:0C6DFD004100F1004100F2004100F300F1
:106E1C00E5A2543FF5A253877F759850438E40539B
:106E2C008EFE53890F438920758BFA758DFAC2AB90
:076E3C00D28ED2ACD2AF22CE
:097198002009FDEFD209F599224E
:106CA20090057AEBF0A3EAF0A3E9F090057AE0FB15
:106CB200A3E0FAA3E0F91240BC601790057AA3E4BE
:106CC20075F001124191A9F0FA1240BCFF127198BD
:036CD20080D92244
:03002300026AE08E
:106AE000C0E0C0F0C083C082C0D075D00830981B11
:106AF000C2989002E8E475F001124191FE74F42509
:106B0000F0F58274003EF583E599F0309904C2995E
:0D6B1000C209D0D0D082D083D0F0D0E032C6
:03004300026B59F4
:106B5900C0E0C083C082C0D075D008E59A30E01784
:106B6900539AFE9000F1E0FF04F074002FF582E4DF
:106B79003400F583E59BF0E59A30E105539AFDC2AF
:0A6B89000AD0D0D082D083D0E032D1
:0971A100200AFDEFD20AF59B2241
:106CD50090051BEBF0A3EAF0A3E9F090051BE0FBA0
:106CE500A3E0FAA3E0F91240BC601790051BA3E4EA
:106CF50075F001124191A9F0FA1240BCFF1271A181
:036D050080D92210
:106FAE0053BAFE759A50438E0475D7C075D6FD43FD
:086FBE008E1075AF01D2AF2265
:10700C007E027FF49000F4E4F0A3DFFCDEFAE4905F
:05701C0002E8F0A3F002
:01702100224C
:0F7101007F64900000E4F0A3DFFCE49000F1F065
:01711000225C
:106F2B0053BAFD75AC1043AC4043D10275D5C07557
:0B6F3B00D4FD43D10843AF08D2AF22C1
:03008B00026F61A0
:106F6100C0E0E5AC30E00653ACFE85AD80E5AC3069
:0A6F7100E10553ACFDC20BD0E03285
:0971AA00200BFDEFD20BF5AD2224
:106D080090057DEBF0A3EAF0A3E9F090057DE0FBA8
:106D1800A3E0FAA3E0F91240BC601790057DA3E454
:106D280075F001124191A9F0FA1240BCFF1271AA44
:036D380080D922DD
:106F460043BA0475841043844043D12075D3D07569
:0B6F5600D2FF43D18043AF10D2AF2226
:03009300026F7B7E
:106F7B00C0E0E58430E0065384FE858580E58430EF
:0A6F8B00E1055384FDC20CD0E03292
:0971B300200CFDEFD20CF5852241
:106D3B0090051BEBF0A3EAF0A3E9F090051BE0FB39
:106D4B00A3E0FAA3E0F91240BC601790051BA3E483
:106D5B0075F001124191A9F0FA1240BCFF1271B308
:036D6B0080D922AA
:0D003600E4F5C7F5C5F5C675C380F5C42215
:106FC60075C78175C5018FC4EEF5C375C65A75C6FA
:076FD600A500AFC212003656
:016FDD002291
:106F950075C78175C5028FC4EEF5C3AF058FC27580
:096FA500C65A75C6A500020036AB
:1070370075C78175C5038FC4EEF5C375C65A75C686
:05704700A50002003667
:105E2300900539EEF0A3EFF090053DEBF0A3EAF017
:0B5E3300A3E9F090053BECF0A3EDF0BC
:105E3E00E4900540F0A3F0FFA3F0A3F0D3ED94207F
:105E4E00EC9400400122900539E0FCA3E0FDEC54F7
:105E5E0001FEAF0590053CE02FFF90053BE03EFEB6
:105E6E00D3EF9420EE940040037F0022AF05AE04E2
:105E7E00127037E4900540F0A3F090053BE0FEA3CE
:105E8E00E0FF900540E0FCA3E0FDC39FEC9E506751
:105E9E00900539E0FEA3E0FF90053DE0FBA3E0FA9C
:105EAE00A3E0F98D828C831240D5FD126F9590057B
:105EBE0039E0FEA3E0FF126FC690053DE0FBA3E0C4
:105ECE00FAA3E0F9A3E0FCA3E0F5828C831240D59F
:105EDE006F60061200367F002290053AE004F070E3
:105EEE0006900539E004F0900541E004F0708B90C7
:0C5EFE000540E004F080831200367F01B4
:015F0A002274
:1055C90090052AEEF0A3EFF090052EEBF0A3EAF098
:0B55D900A3E9F090052CECF0A3EDF02E
:1055E400E4900531F0A3F0A3F0A3F0A3F0A3F0A39B
:1055F400F0A3F0D3ED9420EC940040037F002290BC
:10560400052AE0FCA3E0FDEC5401FEAF0590053350
:10561400F0A3EFF090052DE02FFF90052CE03EFE67
:10562400D3EF9420EE940040037F0022EC54FEFE5E
:105634007F00900535F0A3EFF0A3EEF0A3EFF09018
:105644000531F0A3F0900537E475F001124191AFF4
:10565400F0FE126FC6900531A3E02423F8A607E0FC
:1056640004F07006900531E004F0C3900532E09434
:1056740020900531E0940040CCE4900531F0A3F093
:1056840090052CE0FEA3E0FF900531E0FCA3E0FDD3
:10569400C39FEC9E503490052EE0FBA3E0FAA3E0F8
:1056A400F98D828C831240D5FF900533E475F001A7
:1056B400124191742325F0F8A607900532E004F016
:1056C4007006900531E004F080B6900535E0FEA345
:1056D400E0FF127037900535E0FFA3E0A3CFF0A3FD
:1056E400EFF0E4900531F0A3F0900531E0FCA3E085
:1056F400FDC39420EC9400504C900537E0FEA3E0E9
:10570400FF74232DF8E6FD126F9590052AE0FEA3A1
:10571400E0FF126FC6900531A3E02423F8E66F6022
:10572400061200367F0022900538E004F0700690DF
:105734000537E004F0900532E004F070069005317E
:0A574400E004F080A41200367F019B
:01574E002238
:106C3900E5A254CFF5A2E4F5D8F5E9F5F975D9023D
:106C4900F5F275EA2075FA2075DA4275F34075EBAD
:106C59002075FB2075DB4275F48075EC2075FC20EE
:066C690075DC42D2DE22C0
:10697D00E4F5B4F5B343BA80F5F190FFF2F090FF72
:10698D00F07403F0A374E8F090FF20E4F0A3F0FCA2
:10699D00FDFE7BE87A03F9F81241A7E47B64FAF96E
:1069AD00F8126A5990FF22EEF0A3EFF0A37408F0ED
:0B69BD0043F50443F58053BA7F80FED1
:1069C800E4F5CAF5C943BA80F5F190FFF2F090FFFB
:1069D800F07403F0A374E8F090FF30E4F0A3F0FC47
:1069E800FDFE7BE87A03F9F81241A7E47B64FAF923
:1069F800F8126A5990FF32EEF0A3EFF0A37408F092
:0A6A080043F50843F58053BA7F22DE
:106EED00EF75F064A4FFAEF0C374109F90058AF0A7
:0F6EFD0074279E900589F0E490056CF002708672
:03009B00026439C3
:10643900C0E0C0F0C083C082C0D075D000C000C029
:1064490001C002C003C004C005C006C00790056CA6
:10645900E0703890056FE0FF75F012A4F404F5D5EB
:10646900E4FCFDFE7B12FAF9F81241A7C3E49FFF91
:10647900E49EFE74019DFDE49CFC78081242048FA1
:10648900D4D2A090056C7401F0803590056DE0FFC1
:1064990075F012A4F404F5D5E4FCFDFE7B12FAF9BB
:1064A900F81241A7C3E49FFFE49EFE74019DFDE439
:1064B9009CFC78081242048FD4C2A090056CE4F0C9
:1064C900D007D006D005D004D003D002D001D00027
:0B64D900D0D0D082D083D0F0D0E032D1
:0A5D360090051EECF0A3EDF0AB07A2
:105D4000A312422400000000E4900524F0A3F0EB2D
:105D50001460191460221460371460282404703011
:105D600090052012422446900000802E90052012BB
:105D70004224462CCC00802290052012422445ACBF
:105D8000C800801690052012422444ACC000800A4E
:105D9000900520124224452CD000E4F594F593435D
:105DA000BA80F5F190FFF27403F0900520E0FCA3B7
:105DB000E0FDA3E0FEA3E0FF123D9390FFF0EEF0C4
:105DC000A3EFF090FF50E4F0A3F0FBFA79C878421B
:105DD000900520E0FCA3E0FDA3E0FEA3E0FF123C61
:105DE0003FC004C005C006C00790051EE0FCA3E04C
:105DF000FDE4123D5AD003D002D001D000123B3650
:105E0000123D9390FF52EEF0A3EFF0900524EEF0D8
:105E1000A3EFF090FF547408F043F52043F580534E
:025E2000BA7F47
:015E2200225D
:10688A0090058BEEF0A3EFF0438E805389F09005CC
:10689A008BE0FEA3E0FFE4FCFD7B16FAF9F8124157
:1068AA00A7EFF404F58A90058BE0FEA3E0FFE4FC71
:1068BA00FD7B16FAF9F81241A7C3E49FFFE49EFE96
:1068CA0074019DFDE49CFC78081242048F8CC28DF1
:0368DA00D28C223B
:10707400E5A254F34404F5A2E4F5CF75CDC075CE72
:02708400502298
:03004B000271DF60
:0671DF0075CDC0D2913213
:0A6E0900420570000042057200000F
:03000B000268DDAB
:1068DD00C0E0C083C082C0D0900571E004F07006A6
:1068ED00900570E004F0900573E004F070069005DB
:1068FD0072E004F0900570E07004A3E064FA700695
:10690D00900570F0A3F0900572E0B40B0CA3E0B409
:10691D00B807900572E4F0A3F0D0D0D082D083D028
:02692D00E03256
:10704C00538E7F5389F0E4F58A758C70C28DD28C87
:05705C00D2A9D2AF2211
:1070860053D1FD75D501E4F5D443D10843AF20D2E1
:02709600AF2227
:0300030002002ACE
:01002A0032A3
:0971BC00D2B2D288D2A8D2AF22CF
:0300130002002EBA
:01002E00329F
:0971C500D2B3C28AD2AAD2AF22D1
:0300530002002F79
:01002F00329E
:0671E500438F10D2AF221F
:03005B0002003070
:01003000329D
:0671EB00438F20D2AF2209
:0300830002003147
:01003100329C
:0671F100438F40D2AF22E3
:03003300020026A2
:040026005387DF32EB
:0871D7005387DFD2AED2AF22D4
:107098007D3C7C00E4FF125D3612712F53F5DFC290
:0270A80086223E
:1070AA007D3C7C007F03125D3612715C53F5DFC2B2
:0270BA0086222C
:1070BC007D3C7C007F03125D3612714D53F5DFC2AF
:0270CC0086221A
:0971CE00AD07AC067F04025D363A
:1070CE007D3C7C007F04125D3612716B53F5DFC27E
:0270DE00862208
:0671F7008FAA75AB802297
:106B1D0042415420256425200A200020555342204F
:106B2D00636861726765200A002055534220206F0B
:106B3D006666736574200A00000000000000000006
:0C6B4D000000000000000000000000003C
:046E13004105170A14
:106E8C0053CBF143CC0E43CB0143CC01C2E9D2EA44
:106E9C00D2EBE4F5B375B401C2C1D2E912717AD266
:026EAC00C12201
:105A2B00E490054CF0A312422400000000E4900522
:105A3B0051F0A3F07F04126DCB90054CE025E024D0
:105A4B0003F582E43405F583EEF0A3EFF0120006C4
:105A5B0090054CE004F0E0C3940A40D890050FE0A9
:105A6B00FEA3E0FF90050AE02FFF900509E03EFE44
:105A7B00900516E02FFD900515E03EFCE4123D5A13
:105A8B00A804A905AA06AB077F0A7ED77DA37C4491
:105A9B00123C3FE4FBFA79407840123B3690054DBF
:105AAB0012421890054DE0FCA3E0FDA3E0FEA3E03D
:105ABB00FF123D937C007D64124114AC06AD07E4EC
:105ACB00123D5AC004C005C006C007E4FFFE7DC8E6
:105ADB007C4290054DE0F8A3E0F9A3E0FAA3E0FBCC
:105AEB00123B36D003D002D001D000123A41123D06
:105AFB0093900551EEF0A3EFF090054CE0FFC394AB
:105B0B000A5018EF25E02403F582E43405F583E40D
:105B1B00F0A3F090054CE004F080DEE4900517F064
:0E5B2B0090054DE0FCA3E0FDA3E0FEA3E0FF2B
:015B39002249
:1064E40078D57C047D017BFF7A6B79457E007F142F
:1064F400124096E49004E9F0125A2B9004EA1242F6
:1065040018E4FFFEFDFC9004EAE0F8A3E0F9A3E040
:10651400FAA3E0FB123CDC6054E4FFFE7DC87C423D
:106524009004EAE0F8A3E0F9A3E0FAA3E0FB123B4D
:10653400367B667A6679867840123C3F123D9390AA
:1065440004E9EFF090044574FFF0A3746BF0A374B6
:106554001DF0A3EFF07B017A0479D51243CE7B01C1
:0F6564007A0479D5126D3B9004E9E0FF227F00A5
:016573002205
:1058C1009004CB12422400000000E49004CFF0A326
:1058D100F0125A2B9004D11242189004D0E0C394D4
:1058E1000A50247F05126DCB9004D0E025E024B549
:1058F100F582E43404F583EEF0A3EFF01200069094
:1059010004D0E004F080D39004C1E0FEA3E0FF9056
:1059110004BCE02FFF9004BBE03EFE9004C8E02FE2
:10592100FF9004C7E03EFE7C007D031241269004F7
:10593100C9EEF0A3EFF0FDAC06E4123D5A9004D19C
:10594100E0F8A3E0F9A3E0FAA3E0FB123B367BE722
:105951007AFB7979783F123B36E4FBFA790378C414
:10596100123A45E4FBFA79C87840123C3F9004CBE7
:105971001242189004CBE0FCA3E0FDA3E0FEA3E0FB
:10598100FF123D937C007D64124114AC06AD07E427
:10599100123D5AC004C005C006C007E4FFFE7DC821
:1059A1007C429004CBE0F8A3E0F9A3E0FAA3E0FB8A
:1059B100123B36D003D002D001D000123A41123D41
:1059C100939004CFEFF0E4FFFE7DAA7C429004CBDC
:1059D100E0F8A3E0F9A3E0FAA3E0FB123CDC6004E9
:1059E1004002C2E97FEE1271B39004C9E0FF127167
:1059F100B39004C9A3E0FF1271B37FEF1271B390AA
:105A010004CBE0FCA3E0FDA3E0FEA3E0FF123D9385
:105A11001271B39004CFE0FF1271B39004CBE0FC9C
:095A2100A3E0FDA3E0FEA3E0FFF9
:015A2A002259
:106F0C004393805394FE7BFF30870A7A6B79281267
:0F6F1C006D3B7F01227A6B7936126D3B7F00222D
:104EAC004E4F203A20005331203A20005332203A02
:104EBC0020005333203A20005334203A200053353D
:104ECC00203A2000204D41494E204D454E55200A98
:104EDC00200020554846204D4F4445200020554881
:104EEC0046204D4F4445200A2000204254204D4F6F
:104EFC0044452000204254204D4F4445200A2000B8
:104F0C002054455354204D4F4445200020544553C4
:104F1C0054204D4F4445200A200020424154544512
:104F2C005254204D4F444520002042415454455288
:104F3C0059204D4F4445200A200020425A204D4F05
:104F4C004445200020425A204D4F4445200A200061
:104F5C00204F4C45445F74696D696E6720736574AE
:104F6C002000204F4C45445F74696D696E67207357
:104F7C006574200A2000204F4C45445F425A207330
:104F8C0065742000204F4C45445F425A2073657471
:104F9C00200A2000202153797374656D5F506F7760
:104FAC0065725F5663635F4F4E5F4F4646200A2023
:104FBC00002055313420706F77657220676F6F64F5
:104FCC0020002055313420706F77657220676F6F29
:104FDC0064200A20002055313420706F77657220D0
:104FEC004E47204F4350204F545020002055313411
:104FFC0020706F776572204E47204F4350204F54DE
:10500C0050200A2000204E205653454C20002021D1
:10501C005653454C200A2000204E20425950200067
:10502C002021425950200A2000204241545445521C
:10503C0059A1A14D4F444520494E200020424154D6
:10504C0054455259A1A14D4F444520494E200A20A8
:10505C000020425A204D4F444520494E200020420A
:10506C005A204D4F444520494E200A2000204F4CD9
:10507C004544206765742072656164696E672074AD
:10508C00696D696E672000204F4C45445F74696DF3
:10509C00696E67206765742072656164696E67204C
:1050AC0074696D696E67200A2000204F4C454420BE
:1050BC006765742077726974696E672074696D69AD
:1050CC006E672000204F4C45445F74696D696E67B4
:1050DC00206765742077726974696E672074696DD6
:1050EC00696E67200A2000204F4C45445F74696D3F
:1050FC00696E672073657420494E2000204F4C4523
:10510C00445F74696D696E672073657420494E2025
:10511C000A2000204F4C45445F425A2075702000F5
:10512C00204F4C45445F425A207570200A200020C5
:10513C004F4C45445F425A20646F776E2000204FDD
:10514C004C45445F425A20646F776E200A20002041
:10515C004F4C45445F425A2073657420494E2000E1
:10516C00204F4C45445F425A2073657420494E20B1
:10517C000A2000204E4F54205345542000204E4FFF
:09518C005420534554200A200070
:046E170041058F00A2
:10638C00E490051BF0A3F0A3F07F03126FDE9005E1
:10639C001BEFF0C394CD40037F002212712F7F03BB
:1063AC00126FDE90051CEFF012712F7F03126FDE5F
:1063BC0090051DEFF090051CE02FFFE433C313EFA5
:1063CC001390051BF012712F7F03126FDEEFD39425
:1063DC00CD4002800A7F03126FDE12719880E69026
:1063EC00051BE0C3941250061270987F0122900591
:1063FC001BE0C3943B50061270987F022290051B41
:10640C00E0C3946950061270987F032290051BE03C
:10641C00C3949B50061270987F042290051BE0C316
:0C642C0094CD50061270987F05227F006E
:016438002241
:10542C00E4900580F0A3F0A3F07F03126FDE9005EB
:10543C0080EFF0C394CD403012712F7BFF7A4E7900
:10544C00AC126CA27FFF127198900580E0FF127174
:10545C00987BFF7A4E79AC126D3B900580E0FF1281
:10546C0071B353F5DF7F002212716B7F03126FDE75
:10547C00900581EFF012712F7F03126FDE90058281
:10548C00EFF0900581E02FFFE433C313EF13900589
:10549C0080F0C3941250337BFF7A4E79B2126CA217
:1054AC007FFF127198900580E0FF1271987BFF7A54
:1054BC004E79B2126D3B900580E0FF1271B37D3CCA
:1054CC007C007F01125D367F0122900580E0C39441
:1054DC003B50337BFF7A4E79B8126CA27FFF12716E
:1054EC0098900580E0FF1271987BFF7A4E79B2128A
:1054FC006D3B900580E0FF1271B37D3C7C007F0218
:10550C00125D367F0222900580E0C3946950337B94
:10551C00FF7A4E79BE126CA27FFF127198900580B3
:10552C00E0FF1271987BFF7A4E79BE126D3B9005AD
:10553C0080E0FF1271B37D3C7C007F03125D367FEF
:10554C000322900580E0C3949B50337BFF7A4E7905
:10555C00C4126CA27FFF127198900580E0FF12714B
:10556C00987BFF7A4E79BE126D3B900580E0FF125E
:10557C0071B37D3C7C007F04125D367F0422900564
:10558C0080E0C394CD50337BFF7A4E79CA126CA263
:10559C007FFF127198900580E0FF1271987BFF7A63
:1055AC004E79BE126D3B900580E0FF1271B37D3CCD
:0C55BC007C00E4FF125D367F05227F00BA
:0155C80022C0
:1047EC0090058DE4F0A3EFF090058FE01242754830
:1047FC002300485905488D0648CD0749120A4957E8
:10480C000B499C0C49DE0D4A290F4ACA144ADF1980
:10481C004B371E00004B8B90058DE0FEA3E0FFEEA6
:10482C007016EF24FE7003024BA0147003024BA011
:10483C0024FE60028002806C126B937BFF7A3679C7
:10484C007E12676F7BFF7A4E79D0024B9D90058D5F
:10485C00E0FEA3E0FFEE7014EF24FD600D24FE706B
:10486C0003024BA02403700480778030126B937B7F
:10487C00FF7A4E79DE124BA17BFF7A4E79E9024B1F
:10488C009D90058DE0FEA3E0FFEE7020EF24FD600F
:10489C001324FE7003024BA02403701090058F7438
:1048AC0007024A0990058F7405024A09126B937B23
:1048BC00FF7A4E79F6124BA17BFF7A4F7900024BAF
:1048CC009D90058DE0FEA3E0FFEE7025EF24FD60CA
:1048DC001024FE60142403701890058F7405024A8E
:1048EC000990058F7406024A0990058F740A024AD2
:1048FC0009126B937BFF7A4F790C124BA17BFF7AD9
:10490C004F7918024B9D90058DE0FEA3E0FFEE70F1
:10491C0025EF24FD601024FE60142403701890050C
:10492C008F740B024A0990058F740D024A09900589
:10493C008F740F024A09126B937BFF7A4F79261200
:10494C004BA17BFF7A4F7935024B9D90058DE0FE94
:10495C00A3E0FFEE7025EF24FD601024FE6014240C
:10496C0003701890058F740C024A0990058F740A15
:10497C00024A0990058F7414024A09126B937BFF4B
:10498C007A4F7946124BA17BFF7A4F7950024B9D9F
:10499C0090058DE0FEA3E0FFEE7022EF24FD600F8A
:1049AC0024FE60122403701590058F740D804E90B8
:1049BC00058F740B804790058F74198040126B9390
:1049CC007BFF7A4F795C124BA17BFF7A4F796E0299
:1049DC004B9D90058DE0FEA3E0FFEE702BEF24FDC8
:1049EC00600F24FE60122403701E90058F740A80E1
:1049FC000C90058F740C800590058F741EF0E4905C
:104A0C00058DF0A3F00247F4126B937BFF7A4F797C
:104A1C0082124BA17BFF7A4F7990024B9D90058DB2
:104A2C00E0FEA3E0FFEE6003024AB5EF24FD60490F
:104A3C0024FE605D240370717BFF7A4F79A0126DA8
:104A4C003BB2E920E903024BA012717A30E815124F
:104A5C006B937BFF7A4F79BD124BA17BFF7A4F7919
:104A6C00CE024B9D126B937BFF7A4F79E1124BA1D7
:104A7C007BFF7A4F79F8024B9D126B937BFF7A5038
:104A8C007911124BA17BFF7A50791A126D3BB2EA65
:104A9C0022126B937BFF7A507924124BA17BFF7A05
:104AAC0050792C126D3BB2EB22126B937BFF7A5038
:104ABC007935124BA17BFF7A507948024B9D126BD2
:104ACC00937BFF7A50795D124BA17BFF7A50796A08
:104ADC00024B9D90058DE0FEA3E0FFEE7039EF24B4
:104AEC00FD602024FE7003024BA024037029126B7E
:104AFC00937BFF7A507979124BA17BFF7A50799393
:104B0C00024B9D126B937BFF7A5079B6124BA17BB3
