:03000000025FB5E7
:0C5FB500787FE4F6D8FD758141025FFCA6
:1069A000636F6E6E656374204F4B2000636F6E6E75
:0B69B000656374206572726F72200036
:10569E00E49002EAF0A3F0A3F0A31240750000001C
:1056AE0000E49002F1F090032EF0A3F0A3F0A3F02B
:1056BE00126B54126831126A561269BB1269D612F5
:1056CE006920126B8A126041126B0B126BAB126364
:1056DE003C126ACB1266227F0112009E126BBB7FB8
:1056EE000112233DEF7BFF70067A6979A080047A60
:1056FE006979AC125CF19002EB7401F0126ACB90F6
:10570E0002EBE0FF12009E126BBB9002EBE004F086
:10571E00E0D3942140E6126C24125E5D9002EAEF13
:10572E00F012633C7B017A0079F4125C35E490034D
:10573E002FF0126ACB9002EAE024FE60111460187A
:10574E002402701CE4900330F01261448012E49045
:10575E000330F01264408008E4900330F012639737
:10576E0090032FE004F0E0C3940540C69002EAE0F7
:10577E0060A4900331E0D39400400990033074018B
:10578E00F0E4A3F0900330E06002801590032EE069
:10579E0004F0E0C3941E4004E4FEFF22E49004BC37
:0757AE00F012543D025724E4
:106B0B0053CB1F43CCE043CB1043CC10C2EDC2EFB1
:036B1B00D2EE2295
:0560CB00900528EFF034
:1060D000E4A3F0A3F0126BAB7F01126C427FFC12C1
:1060E0006C427F01126C427F01126C42900528E0E5
:1060F000FF126C42126BBB9000F1E070037FFF2235
:106100009000F1E0FF900529E0FCA3E0FDC39F743F
:1061100080F8EC648098501F74002DF58274003C68
:10612000F583E0FF126C4290052AE004F070D190F4
:106130000529E004F080C9900002E0B401037F016A
:03614000227FFFBC
:016143002239
:10673600126BAB7F01126C427FFC126C427F02121D
:106746006C42E4FF126C42126BBB9000F1E06405F0
:1067560060037FFF22900003E0B40104A3E0FF2260
:036766007FFF2290
:0C0016007F547EF77D18DDFEDEFCDFFA73
:0100220022BB
:0E6BBB0000007F027EAF7D4BDDFEDEFCDFFAC8
:016BC90022A9
:0E6BCA0000007F0D7E9C7D53DDFEDEFCDFFAB9
:016BD800229A
:0E6BD90000007F017ED87D23DDFEDEFCDFFAAA
:016BE700228B
:0E6BE80000007F2B7E067DCBDDFEDEFCDFFA9B
:016BF600227C
:0E6BF70000007FFD7E237DDCDDFEDEFCDFFA8C
:016C0500226C
:0E6C060000007F117ED07D1BDDFEDEFCDFFA7C
:016C1400225D
:0E6C150000007F057E347DC3DDFEDEFCDFFA6D
:016C2300224E
:040006007F0EDFFE8C
:01000A0022D3
:0E6C240000007F097E687D8BDDFEDEFCDFFA5E
:016C3200223F
:104DDA00204E4F54205265616420434D44200020E8
:104DEA00696E64795F7265616473656E736F72630D
:104DFA006F646520656E64200020696E64795F7255
:104E0A006561647273736920656E64200020696E3F
:104E1A0064795F7265616474656D70207374617220
:104E2A0074200D0A0020696E64795F72656164748A
:104E3A00656D7020656E64200D0A0020696E6479C4
:104E4A005F7265616474656D7020656E642000240C
:104E5A000349006D00700069006E006A0053006526
:104E6A00007200690061006C004E0075006D003030
:104E7A000031004003BFFCBFFCBFFC000001001270
:104E8A0000210000001000000000000000050000E2
:104E9A0000000000000600000000000000100000F2
:104EAA000000000000110088E1F3C000000000F0DB
:104EBA00000602000001001200210000000200A00A
:104ECA0000A002000000030000000000000200A091
:104EDA0000A0020000611B0206000000000500009D
:104EEA0000000000000207010000000000050000A9
:104EFA00000000000004070000000000000507D0C1
:104F0A0007000000000607DC000000000007070099
:104F1A002000000000120BFFFF0F00000005000038
:104F2A00000000000000050000000000000005006D
:104F3A00000000000000060000000000000005005C
:104F4A00000000000000050000000000000006004C
:104F5A00000000000100000002000000270000001D
:104F6A00872E0D0001000100020000008F2E0D00A7
:104F7A00000000000000050000000000000006001C
:044F8A000000000023
:086860004104DCFF4104DD00EE
:0B62E0007B027F047A00E4FDFC7E0AD4
:1062EB00900336EEF0A3EFF0A3ECF0A3EDF0A3EAEE
:1062FB00F0A3EBF07F01126A4DE4FF126A4D90039D
:10630B0036A3E0FF126A4D900336E0FF126A4D9000
:10631B00033AA3E0FF126A4D90033AE0FF126A4D75
:10632B00900338A3E0FF126A4D900338E0FF026A36
:01633B004D14
:1066920090053AEEF0A3EFF0E4FF126A4DE4FF1228
:1066A2006A4D90053AA3E0FF126A4D90053AE0FF69
:1066B200126A4DE4FF126A4DE4FF126A4DE4FF12C2
:0766C2006A4DE4FF026A4D7E
:10543D00E4FF9004BCE0900333F0E4900332F0906D
:10544D000332E0FEFD3395E0FC74BD2DF58274044E
:10545D003CF583E0FDEEFB3395E0FA74342BF582D9
:10546D0074033AF583EDF0900332E004F0E0B40CF0
:10547D00CEE4900332F0900332E0FEFD3395E0FC74
:10548D0074C92DF58274043CF583E0FDEEFB339574
:10549D00E0FA74402BF58274033AF583EDF0900336
:1054AD0032E004F0E0B402CE900332740FF09003BA
:1054BD0032E0FEC3648094A0501AEEFD3395E0FCFB
:1054CD0074332DF58274033CF583E4F0900332E0E0
:1054DD0004F080DAE4900332F0900332E0FEC3640E
:1054ED008094A0501BEEFD3395E0FC74332DF582B6
:1054FD0074033CF583E02FFF900332E004F080D974
:10550D00EF900352F0E4900332F0900332E0FFC3CA
:10551D00648094A0504EEF3395E0FE74332FF582E6
:10552D0074033EF583E0FF126C42900332E0FE758A
:10553D00F010123EFDFD04FFEE75F010123EFDAEB3
:10554D00F0ED2EFD900332E0FB3395E0FA74332B32
:10555D00F58274033AF583E0FB1266C9900332E0DD
:04556D0004F080A620
:015571002217
:10633C00E49004BCF0FFEFFD3395E0FC74BD2DF54B
:10634C008274043CF583E4F00FEFB40CE9E4FFEF46
:10635C00FD3395E0FC74C92DF58274043CF583E49F
:10636C00F00FEFB402E9E4FFC3EF648094805015A2
:10637C00EFFD3395E0FC74CB2DF58274043CF58372
:0A638C00E4F00F80E3E49004DBF07E
:0163960022E4
:104B43009003387401F0E4A3F0A3F074FFA3F0A37F
:104B5300F0E4A3F0A3F0A3F0A3F0A3F0A3F0A3F079
:104B6300A3F0A3F0A3F0A3F0A37412F0E4A3F0C2A4
:104B730008C209A3F090033DE0FEA3E024F4F5820C
:104B830074003EF583E064016003024DD990033D58
:104B9300A3E0FF24F5F58274003EF583E090034A19
:104BA300F074F72FF58274003EF583E0FE90033D29
:104BB300E0FCA3E0FD24F6F58274003CF583E07A83
:104BC300002400FFEA3E90033BF0A3EFF074F92DBD
:104BD300F58274003CF583E0FE90033DA3E024F8E6
:104BE300F58274003CF583E02400FFEA3E9003392C
:104BF300F0A3EFF0ED2408FFE43C90033FF0FCA3A7
:104C0300EFF0FD900339E0FAA3E0FBAE027802C3B4
:104C130033CE33CED8F92DFFEE3C900341F0A3EF12
:104C2300F0EB2402FFE43AFEEF7802C333CE33CE37
:104C3300D8F9FF90033EE02FF090033DE03EF09063
:104C4300033BE07004A3E064057061900340E0243B
:104C53000EFE90033FE03400900343F0A3CEF0E454
:104C6300900336F0A3F0900336E0FEA3E0FF900339
:104C730044E02FFD900343E03EFC74F42DF5827471
:104C8300003CF583E0FD74BD2FF58274043EF5838B
:104C9300EDF0900337E004F07006900336E004F083
:104CA300900336E07004A3E0640C70BA90033BE019
:104CB3007004A3E064066003024B7890034AE0604B
:104CC30003024DD990033FE0FEA3E0FF24F8F582F1
:104CD30074003EF583E064C26003024DCDEF240C03
:104CE300FFE43E900345F0A3EFF09004BCE024FE04
:104CF300605C147003024DA024026003024DC3E400
:104D0300900336F0A3F0900336E0FEA3E0FF900398
:104D130046E02FFD900345E03EFC74F42DF58274CC
:104D2300003CF583E0FD74C92FF58274043EF583DE
:104D3300EDF0900337E004F07006900336E004F0E2
:104D4300900336E07004A3E0640270BA8069E490D3
:104D53000336F0A3F0900336E0FEA3E0FF90034692
:104D6300E02FFD900345E03EFC74F42DF5827400C2
:104D73003CF583E0FD74C92FF58274043EF583EDA1
:104D8300F0900337E004F07006900336E004F090EF
:104D93000336E07004A3E0640270BA801AE490045E
:104DA300C9F0900345E0FEA3E024F5F58274003ECC
:104DB300F583E09004CAF09004DDE004F0024B7840
:104DC300E49004DCF0A3F0024B787BFF7A4D79DAB0
:064DD300125C35024B7872
:014DD90022B7
:10644000E4900332F0A3F0FBFAFDFC7F027E0A1217
:1064500062EB7B0C7F031262E41262E0E4FBFAFD64
:10646000FC7F067E0A1262EB7B107A00E4FDFCFFE3
:106470007EF01262EB1200169000F4E0B40107C245
:0F648000AC124B43D2AC7BFF7A4D79E9025CF151
:10639700E4900332F0A3F0FBFAFDFC7F027E0A12C1
:1063A70062EB7B0D7A00E4FDFC7F037E0A1262EB51
:1063B7001262E0E4FBFAFDFC7F067E0A1262EB7BC9
:1063C700087A00E4FDFCFF7EF01262EB12001690E3
:1063D70000F4E0B40107C2AC124B43D2AC7BFF7AA6
:0663E7004E7903025CF197
:10614400E4900332F0A3F07BFF7A4E79171267696B
:10615400E4FBFAFDFC7F027E0A1262EB7B0E7A00FE
:10616400E4FDFC7F037E0A1262EB1262E0E4FBFAB8
:10617400FDFC7F067E0A1262EB7B077A00E4FDFCDD
:10618400FF7EF01262EB126ACB126BBB9000F4E05C
:10619400B40107C2AC124B43D2AC7BFF7A4E792FC9
:0C61A4001267697BFF7A4E7945025CF1BE
:10656800E4FF900000E060379000F1E0C394085029
:1065780003E4FE22E4FEEEFD3395E0FC74002DF505
:106588008274003CF583E02FFF0EEEB407E890001C
:1065980007E0B507057E007F0122126BAB8000E49F
:0265A800FEFFF4
:0165AA0022CE
:10009E00EF14B42200400302233C9000B675F00327
:1000AE00A4C58325F0C5837302011C02012502013C
:1000BE002E0201300201320203A902013502014370
:1000CE0002015102015F02016D02017B02018F02EA
:1000DE0001A30201B70201F302020702026B020240
:1000EE007F0202930202A70202BB0202CF02233C4E
:1000FE0002030B0203470203A902035B02039602EB
:10010E0003A90203BC0203D40203A90203FC7FC0AD
:10011E00126A4D7F0680337F40126A4D7F03802A1C
:10012E00802F8003020347E4FF126A4DE4FF126A38
:10013E004D7F108058E4FF126A4DE4FF126A4D7F26
:10014E0011804AE4FF126A4DE4FF126A4DE4FF800B
:10015E003CE4FF126A4DE4FF126A4D7F01802EE4EB
:10016E00FF126A4DE4FF126A4D7F028020E4FF12F7
:10017E006A4DE4FF126A4DE4FF126A4D7F030203DB
:10018E00E5E4FF126A4DE4FF126A4D7F02126A4DDA
:10019E00E4FF0203E5E4FF126A4DE4FF126A4D7FAD
:1001AE0061126A4D7F1B0203E57F01126A4DE4FF67
:1001BE00126A4D7F01126A4D7F07126A4DE4FF12DB
:1001CE006A4DE4FF126A4DE4FF126A4DE4FF126AB3
:1001DE004DE4FF126A4DE4FF126A4D7F05126A4D1F
:1001EE00E4FF0203E5E4FF126A4DE4FF126A4D7F5D
:1001FE0002126A4D7F070203E57F01126A4DE4FF8A
:10020E00126A4D7F02126A4D7F07126A4D7F0112EC
:10021E006A4DE4FF126A4DE4FF126A4DE4FF126A62
:10022E004D7F01126A4DE4FF126A4D7F01126A4D35
:10023E007F07126A4DE4FF126A4DE4FF126A4DE425
:10024E00FF126A4DE4FF126A4DE4FF126A4DE4FF9D
:10025E00126A4D7F05126A4DE4FF0203E5E4FF12B8
:10026E006A4DE4FF126A4D7F04126A4D7F07020346
:10027E00E5E4FF126A4DE4FF126A4D7F05126A4DE6
:10028E007F070203E5E4FF126A4DE4FF126A4D7F19
:10029E0006126A4D7F070203E5E4FF126A4DE4FF82
:1002AE00126A4D7F07126A4D7F070203E5E4FF12C3
:1002BE006A4DE4FF126A4D7F12126A4D7F0B0203E4
:1002CE00E57F01126A4DE4FF126A4D7F01126A4DFD
:1002DE007F07126A4DE4FF126A4DE4FF126A4DE485
:1002EE00FF126A4DE4FF126A4DE4FF126A4DE4FFFD
:1002FE00126A4D7F05126A4DE4FF0203E57F01127B
:10030E006A4DE4FF126A4D7F0A126A4D7F01126A2E
:10031E004D7FF8126A4D7F59126A4D7F0D126A4D4C
:10032E00E4FF126A4DE4FF126A4DE4FF126A4D7F3C
:10033E0005126A4DE4FF0203E5E4FF126A4DE4FF85
:10034E00126A4D7F05126A4DE4FF0203E57F01122A
:10035E006A4DE4FF126A4D7F08126A4D7F01126AE0
:10036E004D7F01126A4D7F01126A4DE4FF126A4DF4
:10037E00E4FF126A4DE4FF126A4DE4FF126A4D7FEC
:10038E0005126A4DE4FF804FE4FF126A4DE4FF123E
:10039E006A4D7F05126A4DE4FF803CE4FF126A4D00
:1003AE00E4FF126A4D7F06126A4DE4FF80297F0139
:1003BE00126A4DE4FF126A4DE4FF126A4D7FF0128D
:1003CE006A4D7F278016E4FF126A4DE4FF126A4DD4
:1003DE007F05126A4DE4FF126A4DE4FF126A4DE486
:1003EE00FF126A4DE4FF126A4DE4FF0223397F01CA
:1003FE00126A4DE4FF126A4D7F01126A4D7F0C1294
:10040E006A4DE4FF126A4DE4FF126A4DE4FF126A70
:10041E004DE4FF126A4D7F01126A4DE4FF126A4DE0
:10042E007F02126A4D7F0C126A4D7F01126A4DE4F3
:10043E00FF126A4DE4FF126A4DE4FF126A4D7F010E
:10044E00126A4DE4FF126A4D7F03126A4D7F0C1241
:10045E006A4D7F70126A4D7F0D126A4D7F18126AB7
:10046E004DE4FF126A4D7F01126A4DE4FF126A4D90
:10047E007F04126A4D7F0C126A4DE4FF126A4D7FA3
:10048E0001126A4D7F07126A4D7F14126A4D7F0169
:10049E00126A4DE4FF126A4D7F01126A4D7F0C12F3
:1004AE006A4D7F01126A4DE4FF126A4DE4FF126A33
:1004BE004DE4FF126A4D7F01126A4DE4FF126A4D40
:1004CE007F02126A4D7F0C126A4D7F01126A4DE453
:1004DE00FF126A4DE4FF126A4DE4FF126A4D7F016E
:1004EE00126A4DE4FF126A4D7F03126A4D7F0C12A1
:1004FE006A4D7F84126A4D7F0D126A4D7F18126A03
:10050E004DE4FF126A4D7F01126A4DE4FF126A4DEF
:10051E007F04126A4D7F0C126A4DE4FF126A4D7F02
:10052E0001126A4D7F07126A4D7F14126A4D7F01C8
:10053E00126A4DE4FF126A4D7F01126A4D7F0C1252
:10054E006A4D7F02126A4DE4FF126A4DE4FF126A91
:10055E004DE4FF126A4D7F01126A4DE4FF126A4D9F
:10056E007F02126A4D7F0C126A4D7F01126A4DE4B2
:10057E00FF126A4DE4FF126A4DE4FF126A4D7F01CD
:10058E00126A4DE4FF126A4D7F03126A4D7F0C1200
:10059E006A4D7F98126A4D7F0D126A4D7F18126A4E
:1005AE004DE4FF126A4D7F01126A4DE4FF126A4D4F
:1005BE007F04126A4D7F0C126A4DE4FF126A4D7F62
:1005CE0001126A4D7F07126A4D7F14126A4D7F0128
:1005DE00126A4DE4FF126A4D7F01126A4D7F0C12B2
:1005EE006A4D7F03126A4DE4FF126A4DE4FF126AF0
:1005FE004DE4FF126A4D7F01126A4DE4FF126A4DFF
:10060E007F02126A4D7F0C126A4D7F01126A4DE411
:10061E00FF126A4DE4FF126A4DE4FF126A4D7F012C
:10062E00126A4DE4FF126A4D7F03126A4D7F0C125F
:10063E006A4D7FAC126A4D7F0D126A4D7F18126A99
:10064E004DE4FF126A4D7F01126A4DE4FF126A4DAE
:10065E007F04126A4D7F0C126A4DE4FF126A4D7FC1
:10066E0001126A4D7F07126A4D7F14126A4D7F0187
:10067E00126A4DE4FF126A4D7F01126A4D7F0C1211
:10068E006A4D7F04126A4DE4FF126A4DE4FF126A4E
:10069E004DE4FF126A4D7F01126A4DE4FF126A4D5E
:1006AE007F02126A4D7F0C126A4D7F01126A4DE471
:1006BE00FF126A4DE4FF126A4DE4FF126A4D7F018C
:1006CE00126A4DE4FF126A4D7F03126A4D7F0C12BF
:1006DE006A4D7FC0126A4D7F0D126A4D7F18126AE5
:1006EE004DE4FF126A4D7F01126A4DE4FF126A4D0E
:1006FE007F04126A4D7F0C126A4DE4FF126A4D7F21
:10070E0001126A4D7F07126A4D7F14126A4D7F01E6
:10071E00126A4DE4FF126A4D7F01126A4D7F0C1270
:10072E006A4D7F05126A4DE4FF126A4DE4FF126AAC
:10073E004DE4FF126A4D7F01126A4DE4FF126A4DBD
:10074E007F02126A4D7F0C126A4D7F01126A4DE4D0
:10075E00FF126A4DE4FF126A4DE4FF126A4D7F01EB
:10076E00126A4DE4FF126A4D7F03126A4D7F0C121E
:10077E006A4D7FD4126A4D7F0D126A4D7F18126A30
:10078E004DE4FF126A4D7F01126A4DE4FF126A4D6D
:10079E007F04126A4D7F0C126A4DE4FF126A4D7F80
:1007AE0001126A4D7F07126A4D7F14126A4D7F0146
:1007BE00126A4DE4FF126A4D7F01126A4D7F0C12D0
:1007CE006A4D7F06126A4DE4FF126A4DE4FF126A0B
:1007DE004DE4FF126A4D7F01126A4DE4FF126A4D1D
:1007EE007F02126A4D7F0C126A4D7F01126A4DE430
:1007FE00FF126A4DE4FF126A4DE4FF126A4D7F014B
:10080E00126A4DE4FF126A4D7F03126A4D7F0C127D
:10081E006A4D7FE8126A4D7F0D126A4D7F18126A7B
:10082E004DE4FF126A4D7F01126A4DE4FF126A4DCC
:10083E007F04126A4D7F0C126A4DE4FF126A4D7FDF
:10084E0001126A4D7F07126A4D7F14126A4D7F01A5
:10085E00126A4DE4FF126A4D7F01126A4D7F0C122F
:10086E006A4D7F07126A4DE4FF126A4DE4FF126A69
:10087E004DE4FF126A4D7F01126A4DE4FF126A4D7C
:10088E007F02126A4D7F0C126A4D7F01126A4DE48F
:10089E00FF126A4DE4FF126A4DE4FF126A4D7F01AA
:1008AE00126A4DE4FF126A4D7F03126A4D7F0C12DD
:1008BE006A4D7FFC126A4D7F0D126A4D7F18126AC7
:1008CE004DE4FF126A4D7F01126A4DE4FF126A4D2C
:1008DE007F04126A4D7F0C126A4DE4FF126A4D7F3F
:1008EE0001126A4D7F07126A4D7F14126A4D7F0105
:1008FE00126A4DE4FF126A4D7F01126A4D7F0C128F
:10090E006A4D7F08126A4DE4FF126A4DE4FF126AC7
:10091E004DE4FF126A4D7F01126A4DE4FF126A4DDB
:10092E007F02126A4D7F0C126A4D7F01126A4DE4EE
:10093E00FF126A4DE4FF126A4DE4FF126A4D7F0109
:10094E00126A4DE4FF126A4D7F03126A4D7F0C123C
:10095E006A4D7F10126A4D7F0E126A4D7F18126A11
:10096E004DE4FF126A4D7F01126A4DE4FF126A4D8B
:10097E007F04126A4D7F0C126A4DE4FF126A4D7F9E
:10098E0001126A4D7F07126A4D7F14126A4D7F0164
:10099E00126A4DE4FF126A4D7F01126A4D7F0C12EE
:1009AE006A4D7F09126A4DE4FF126A4DE4FF126A26
:1009BE004DE4FF126A4D7F01126A4DE4FF126A4D3B
:1009CE007F02126A4D7F0C126A4D7F01126A4DE44E
:1009DE00FF126A4DE4FF126A4DE4FF126A4D7F0169
:1009EE00126A4DE4FF126A4D7F03126A4D7F0C129C
:1009FE006A4D7F24126A4D7F0E126A4D7F18126A5D
:100A0E004DE4FF126A4D7F01126A4DE4FF126A4DEA
:100A1E007F04126A4D7F0C126A4DE4FF126A4D7FFD
:100A2E0001126A4D7F07126A4D7F14126A4D7F01C3
:100A3E00126A4DE4FF126A4D7F01126A4D7F0C124D
:100A4E006A4D7F0A126A4DE4FF126A4DE4FF126A84
:100A5E004DE4FF126A4D7F01126A4DE4FF126A4D9A
:100A6E007F02126A4D7F0C126A4D7F01126A4DE4AD
:100A7E00FF126A4DE4FF126A4DE4FF126A4D7F01C8
:100A8E00126A4DE4FF126A4D7F03126A4D7F0C12FB
:100A9E006A4D7F38126A4D7F0E126A4D7F18126AA8
:100AAE004DE4FF126A4D7F01126A4DE4FF126A4D4A
:100ABE007F04126A4D7F0C126A4DE4FF126A4D7F5D
:100ACE0001126A4D7F07126A4D7F14126A4D7F0123
:100ADE00126A4DE4FF126A4D7F01126A4D7F0C12AD
:100AEE006A4D7F0B126A4DE4FF126A4DE4FF126AE3
:100AFE004DE4FF126A4D7F01126A4DE4FF126A4DFA
:100B0E007F02126A4D7F0C126A4D7F01126A4DE40C
:100B1E00FF126A4DE4FF126A4DE4FF126A4D7F0127
:100B2E00126A4DE4FF126A4D7F03126A4D7F0C125A
:100B3E006A4D7F4C126A4D7F0E126A4D7F18126AF3
:100B4E004DE4FF126A4D7F01126A4DE4FF126A4DA9
:100B5E007F04126A4D7F0C126A4DE4FF126A4D7FBC
:100B6E0001126A4D7F07126A4D7F14126A4D7F0182
:100B7E00126A4DE4FF126A4D7F01126A4D7F0C120C
:100B8E006A4D7F0C126A4DE4FF126A4DE4FF126A41
:100B9E004DE4FF126A4D7F01126A4DE4FF126A4D59
:100BAE007F02126A4D7F0C126A4D7F01126A4DE46C
:100BBE00FF126A4DE4FF126A4DE4FF126A4D7F0187
:100BCE00126A4DE4FF126A4D7F03126A4D7F0C12BA
:100BDE006A4D7F60126A4D7F0E126A4D7F18126A3F
:100BEE004DE4FF126A4D7F01126A4DE4FF126A4D09
:100BFE007F04126A4D7F0C126A4DE4FF126A4D7F1C
:100C0E0001126A4D7F07126A4D7F14126A4D7F01E1
:100C1E00126A4DE4FF126A4D7F01126A4D7F0C126B
:100C2E006A4D7F0D126A4DE4FF126A4DE4FF126A9F
:100C3E004DE4FF126A4D7F01126A4DE4FF126A4DB8
:100C4E007F02126A4D7F0C126A4DE4FF126A4DE468
:100C5E00FF126A4DE4FF126A4DE4FF126A4D7F01E6
:100C6E00126A4DE4FF126A4D7F03126A4D7F0C1219
:100C7E006A4D7F60126A4D7F0E126A4D7F18126A9E
:100C8E004DE4FF126A4D7F01126A4DE4FF126A4D68
:100C9E007F04126A4D7F0C126A4DE4FF126A4D7F7B
:100CAE0001126A4D7F07126A4D7F14126A4D7F0141
:100CBE00126A4DE4FF126A4D7F01126A4D7F0C12CB
:100CCE006A4D7F0E126A4DE4FF126A4DE4FF126AFE
:100CDE004DE4FF126A4D7F01126A4DE4FF126A4D18
:100CEE007F02126A4D7F0C126A4DE4FF126A4DE4C8
:100CFE00FF126A4DE4FF126A4DE4FF126A4D7F0146
:100D0E00126A4DE4FF126A4D7F03126A4D7F0C1278
:100D1E006A4D7F60126A4D7F0E126A4D7F18126AFD
:100D2E004DE4FF126A4D7F01126A4DE4FF126A4DC7
:100D3E007F04126A4D7F0C126A4DE4FF126A4D7FDA
:100D4E0001126A4D7F07126A4D7F14126A4D7F01A0
:100D5E00126A4DE4FF126A4D7F01126A4D7F0C122A
:100D6E006A4D7F0F126A4DE4FF126A4DE4FF126A5C
:100D7E004DE4FF126A4D7F01126A4DE4FF126A4D77
:100D8E007F02126A4D7F0C126A4DE4FF126A4DE427
:100D9E00FF126A4DE4FF126A4DE4FF126A4D7F01A5
:100DAE00126A4DE4FF126A4D7F03126A4D7F0C12D8
:100DBE006A4D7F60126A4D7F0E126A4D7F18126A5D
:100DCE004DE4FF126A4D7F01126A4DE4FF126A4D27
:100DDE007F04126A4D7F0C126A4DE4FF126A4D7F3A
:100DEE0001126A4D7F07126A4D7F14126A4D7F0100
:100DFE00126A4DE4FF126A4D7F01126A4D7F0C128A
:100E0E006A4D7F10126A4DE4FF126A4DE4FF126ABA
:100E1E004DE4FF126A4D7F01126A4DE4FF126A4DD6
:100E2E007F02126A4D7F0C126A4DE4FF126A4DE486
:100E3E00FF126A4DE4FF126A4DE4FF126A4D7F0104
:100E4E00126A4DE4FF126A4D7F03126A4D7F0C1237
:100E5E006A4D7F60126A4D7F0E126A4D7F18126ABC
:100E6E004DE4FF126A4D7F01126A4DE4FF126A4D86
:100E7E007F04126A4D7F0C126A4DE4FF126A4D7F99
:100E8E0001126A4D7F07126A4D7F14126A4D7F015F
:100E9E00126A4DE4FF126A4D7F01126A4D7F0C12E9
:100EAE006A4D7F11126A4DE4FF126A4DE4FF126A19
:100EBE004DE4FF126A4D7F01126A4DE4FF126A4D36
:100ECE007F02126A4D7F0C126A4DE4FF126A4DE4E6
:100EDE00FF126A4DE4FF126A4DE4FF126A4D7F0164
:100EEE00126A4DE4FF126A4D7F03126A4D7F0C1297
:100EFE006A4D7F60126A4D7F0E126A4D7F18126A1C
:100F0E004DE4FF126A4D7F01126A4DE4FF126A4DE5
:100F1E007F04126A4D7F0C126A4DE4FF126A4D7FF8
:100F2E0001126A4D7F07126A4D7F14126A4D7F01BE
:100F3E00126A4DE4FF126A4D7F01126A4D7F0C1248
:100F4E006A4D7F12126A4DE4FF126A4DE4FF126A77
:100F5E004DE4FF126A4D7F01126A4DE4FF126A4D95
:100F6E007F02126A4D7F0C126A4DE4FF126A4DE445
:100F7E00FF126A4DE4FF126A4DE4FF126A4D7F01C3
:100F8E00126A4DE4FF126A4D7F03126A4D7F0C12F6
:100F9E006A4D7F60126A4D7F0E126A4D7F18126A7B
:100FAE004DE4FF126A4D7F01126A4DE4FF126A4D45
:100FBE007F04126A4D7F0C126A4DE4FF126A4D7F58
:100FCE0001126A4D7F07126A4D7F14126A4D7F011E
:100FDE00126A4DE4FF126A4D7F01126A4D7F0C12A8
:100FEE006A4D7F13126A4DE4FF126A4DE4FF126AD6
:100FFE004DE4FF126A4D7F01126A4DE4FF126A4DF5
:10100E007F02126A4D7F0C126A4DE4FF126A4DE4A4
:10101E00FF126A4DE4FF126A4DE4FF126A4D7F0122
:10102E00126A4DE4FF126A4D7F03126A4D7F0C1255
:10103E006A4D7F60126A4D7F0E126A4D7F18126ADA
:10104E004DE4FF126A4D7F01126A4DE4FF126A4DA4
:10105E007F04126A4D7F0C126A4DE4FF126A4D7FB7
:10106E0001126A4D7F07126A4D7F14126A4D7F017D
:10107E00126A4DE4FF126A4D7F01126A4D7F0C1207
:10108E006A4D7F14126A4DE4FF126A4DE4FF126A34
:10109E004DE4FF126A4D7F01126A4DE4FF126A4D54
:1010AE007F02126A4D7F0C126A4DE4FF126A4DE404
:1010BE00FF126A4DE4FF126A4DE4FF126A4D7F0182
:1010CE00126A4DE4FF126A4D7F03126A4D7F0C12B5
:1010DE006A4D7F60126A4D7F0E126A4D7F18126A3A
:1010EE004DE4FF126A4D7F01126A4DE4FF126A4D04
:1010FE007F04126A4D7F0C126A4DE4FF126A4D7F17
:10110E0001126A4D7F07126A4D7F14126A4D7F01DC
:10111E00126A4DE4FF126A4D7F01126A4D7F0C1266
:10112E006A4D7F15126A4DE4FF126A4DE4FF126A92
:10113E004DE4FF126A4D7F01126A4DE4FF126A4DB3
:10114E007F02126A4D7F0C126A4DE4FF126A4DE463
:10115E00FF126A4DE4FF126A4DE4FF126A4D7F01E1
:10116E00126A4DE4FF126A4D7F03126A4D7F0C1214
:10117E006A4D7F60126A4D7F0E126A4D7F18126A99
:10118E004DE4FF126A4D7F01126A4DE4FF126A4D63
:10119E007F04126A4D7F0C126A4DE4FF126A4D7F76
:1011AE0001126A4D7F07126A4D7F14126A4D7F013C
:1011BE00126A4DE4FF126A4D7F01126A4D7F0C12C6
:1011CE006A4D7F16126A4DE4FF126A4DE4FF126AF1
:1011DE004DE4FF126A4D7F01126A4DE4FF126A4D13
:1011EE007F02126A4D7F0C126A4DE4FF126A4DE4C3
:1011FE00FF126A4DE4FF126A4DE4FF126A4D7F0141
:10120E00126A4DE4FF126A4D7F03126A4D7F0C1273
:10121E006A4D7F60126A4D7F0E126A4D7F18126AF8
:10122E004DE4FF126A4D7F01126A4DE4FF126A4DC2
:10123E007F04126A4D7F0C126A4DE4FF126A4D7FD5
:10124E0001126A4D7F07126A4D7F14126A4D7F019B
:10125E00126A4DE4FF126A4D7F01126A4D7F0C1225
:10126E006A4D7F17126A4DE4FF126A4DE4FF126A4F
:10127E004DE4FF126A4D7F01126A4DE4FF126A4D72
:10128E007F02126A4D7F0C126A4DE4FF126A4DE422
:10129E00FF126A4DE4FF126A4DE4FF126A4D7F01A0
:1012AE00126A4DE4FF126A4D7F03126A4D7F0C12D3
:1012BE006A4D7F60126A4D7F0E126A4D7F18126A58
:1012CE004DE4FF126A4D7F01126A4DE4FF126A4D22
:1012DE007F04126A4D7F0C126A4DE4FF126A4D7F35
:1012EE0001126A4D7F07126A4D7F14126A4D7F01FB
:1012FE00126A4DE4FF126A4D7F01126A4D7F0C1285
:10130E006A4D7F18126A4DE4FF126A4DE4FF126AAD
:10131E004DE4FF126A4D7F01126A4DE4FF126A4DD1
:10132E007F02126A4D7F0C126A4DE4FF126A4DE481
:10133E00FF126A4DE4FF126A4DE4FF126A4D7F01FF
:10134E00126A4DE4FF126A4D7F03126A4D7F0C1232
:10135E006A4D7F60126A4D7F0E126A4D7F18126AB7
:10136E004DE4FF126A4D7F01126A4DE4FF126A4D81
:10137E007F04126A4D7F0C126A4DE4FF126A4D7F94
:10138E0001126A4D7F07126A4D7F14126A4D7F015A
:10139E00126A4DE4FF126A4D7F01126A4D7F0C12E4
:1013AE006A4D7F19126A4DE4FF126A4DE4FF126A0C
:1013BE004DE4FF126A4D7F01126A4DE4FF126A4D31
:1013CE007F02126A4D7F0C126A4DE4FF126A4DE4E1
:1013DE00FF126A4DE4FF126A4DE4FF126A4D7F015F
:1013EE00126A4DE4FF126A4D7F03126A4D7F0C1292
:1013FE006A4D7F60126A4D7F0E126A4D7F18126A17
:10140E004DE4FF126A4D7F01126A4DE4FF126A4DE0
:10141E007F04126A4D7F0C126A4DE4FF126A4D7FF3
:10142E0001126A4D7F07126A4D7F14126A4D7F01B9
:10143E00126A4DE4FF126A4D7F01126A4D7F0C1243
:10144E006A4D7F1A126A4DE4FF126A4DE4FF126A6A
:10145E004DE4FF126A4D7F01126A4DE4FF126A4D90
:10146E007F02126A4D7F0C126A4DE4FF126A4DE440
:10147E00FF126A4DE4FF126A4DE4FF126A4D7F01BE
:10148E00126A4DE4FF126A4D7F03126A4D7F0C12F1
:10149E006A4D7F60126A4D7F0E126A4D7F18126A76
:1014AE004DE4FF126A4D7F01126A4DE4FF126A4D40
:1014BE007F04126A4D7F0C126A4DE4FF126A4D7F53
:1014CE0001126A4D7F07126A4D7F14126A4D7F0119
:1014DE00126A4DE4FF126A4D7F01126A4D7F0C12A3
:1014EE006A4D7F1B126A4DE4FF126A4DE4FF126AC9
:1014FE004DE4FF126A4D7F01126A4DE4FF126A4DF0
:10150E007F02126A4D7F0C126A4DE4FF126A4DE49F
:10151E00FF126A4DE4FF126A4DE4FF126A4D7F011D
:10152E00126A4DE4FF126A4D7F03126A4D7F0C1250
:10153E006A4D7F60126A4D7F0E126A4D7F18126AD5
:10154E004DE4FF126A4D7F01126A4DE4FF126A4D9F
:10155E007F04126A4D7F0C126A4DE4FF126A4D7FB2
:10156E0001126A4D7F07126A4D7F14126A4D7F0178
:10157E00126A4DE4FF126A4D7F01126A4D7F0C1202
:10158E006A4D7F1C126A4DE4FF126A4DE4FF126A27
:10159E004DE4FF126A4D7F01126A4DE4FF126A4D4F
:1015AE007F02126A4D7F0C126A4DE4FF126A4DE4FF
:1015BE00FF126A4DE4FF126A4DE4FF126A4D7F017D
:1015CE00126A4DE4FF126A4D7F03126A4D7F0C12B0
:1015DE006A4D7F60126A4D7F0E126A4D7F18126A35
:1015EE004DE4FF126A4D7F01126A4DE4FF126A4DFF
:1015FE007F04126A4D7F0C126A4DE4FF126A4D7F12
:10160E0001126A4D7F07126A4D7F14126A4D7F01D7
:10161E00126A4DE4FF126A4D7F01126A4D7F0C1261
:10162E006A4D7F1D126A4DE4FF126A4DE4FF126A85
:10163E004DE4FF126A4D7F01126A4DE4FF126A4DAE
:10164E007F02126A4D7F0C126A4DE4FF126A4DE45E
:10165E00FF126A4DE4FF126A4DE4FF126A4D7F01DC
:10166E00126A4DE4FF126A4D7F03126A4D7F0C120F
:10167E006A4D7F60126A4D7F0E126A4D7F18126A94
:10168E004DE4FF126A4D7F01126A4DE4FF126A4D5E
:10169E007F04126A4D7F0C126A4DE4FF126A4D7F71
:1016AE0001126A4D7F07126A4D7F14126A4D7F0137
:1016BE00126A4DE4FF126A4D7F01126A4D7F0C12C1
:1016CE006A4D7F1E126A4DE4FF126A4DE4FF126AE4
:1016DE004DE4FF126A4D7F01126A4DE4FF126A4D0E
:1016EE007F02126A4D7F0C126A4DE4FF126A4DE4BE
:1016FE00FF126A4DE4FF126A4DE4FF126A4D7F013C
:10170E00126A4DE4FF126A4D7F03126A4D7F0C126E
:10171E006A4D7F60126A4D7F0E126A4D7F18126AF3
:10172E004DE4FF126A4D7F01126A4DE4FF126A4DBD
:10173E007F04126A4D7F0C126A4DE4FF126A4D7FD0
:10174E0001126A4D7F07126A4D7F14126A4D7F0196
:10175E00126A4DE4FF126A4D7F01126A4D7F0C1220
:10176E006A4D7F1F126A4DE4FF126A4DE4FF126A42
:10177E004DE4FF126A4D7F01126A4DE4FF126A4D6D
:10178E007F02126A4D7F0C126A4DE4FF126A4DE41D
:10179E00FF126A4DE4FF126A4DE4FF126A4D7F019B
:1017AE00126A4DE4FF126A4D7F03126A4D7F0C12CE
:1017BE006A4D7F60126A4D7F0E126A4D7F18126A53
:1017CE004DE4FF126A4D7F01126A4DE4FF126A4D1D
:1017DE007F04126A4D7F0C126A4DE4FF126A4D7F30
:1017EE0001126A4D7F07126A4D7F14126A4D7F01F6
:1017FE00126A4DE4FF126A4D7F01126A4D7F0C1280
:10180E006A4D7F20126A4DE4FF126A4DE4FF126AA0
:10181E004DE4FF126A4D7F01126A4DE4FF126A4DCC
:10182E007F02126A4D7F0C126A4DE4FF126A4DE47C
:10183E00FF126A4DE4FF126A4DE4FF126A4D7F01FA
:10184E00126A4DE4FF126A4D7F03126A4D7F0C122D
:10185E006A4D7F60126A4D7F0E126A4D7F18126AB2
:10186E004DE4FF126A4D7F01126A4DE4FF126A4D7C
:10187E007F04126A4D7F0C126A4DE4FF126A4D7F8F
:10188E0001126A4D7F07126A4D7F14126A4D7F0155
:10189E00126A4DE4FF126A4D7F01126A4D7F0C12DF
:1018AE006A4D7F21126A4DE4FF126A4DE4FF126AFF
:1018BE004DE4FF126A4D7F01126A4DE4FF126A4D2C
:1018CE007F02126A4D7F0C126A4DE4FF126A4DE4DC
:1018DE00FF126A4DE4FF126A4DE4FF126A4D7F015A
:1018EE00126A4DE4FF126A4D7F03126A4D7F0C128D
:1018FE006A4D7F60126A4D7F0E126A4D7F18126A12
:10190E004DE4FF126A4D7F01126A4DE4FF126A4DDB
:10191E007F04126A4D7F0C126A4DE4FF126A4D7FEE
:10192E0001126A4D7F07126A4D7F14126A4D7F01B4
:10193E00126A4DE4FF126A4D7F01126A4D7F0C123E
:10194E006A4D7F22126A4DE4FF126A4DE4FF126A5D
:10195E004DE4FF126A4D7F01126A4DE4FF126A4D8B
:10196E007F02126A4D7F0C126A4DE4FF126A4DE43B
:10197E00FF126A4DE4FF126A4DE4FF126A4D7F01B9
:10198E00126A4DE4FF126A4D7F03126A4D7F0C12EC
:10199E006A4D7F60126A4D7F0E126A4D7F18126A71
:1019AE004DE4FF126A4D7F01126A4DE4FF126A4D3B
:1019BE007F04126A4D7F0C126A4DE4FF126A4D7F4E
:1019CE0001126A4D7F07126A4D7F14126A4D7F0114
:1019DE00126A4DE4FF126A4D7F01126A4D7F0C129E
:1019EE006A4D7F23126A4DE4FF126A4DE4FF126ABC
:1019FE004DE4FF126A4D7F01126A4DE4FF126A4DEB
:101A0E007F02126A4D7F0C126A4DE4FF126A4DE49A
:101A1E00FF126A4DE4FF126A4DE4FF126A4D7F0118
:101A2E00126A4DE4FF126A4D7F03126A4D7F0C124B
:101A3E006A4D7F60126A4D7F0E126A4D7F18126AD0
:101A4E004DE4FF126A4D7F01126A4DE4FF126A4D9A
:101A5E007F04126A4D7F0C126A4DE4FF126A4D7FAD
:101A6E0001126A4D7F07126A4D7F14126A4D7F0173
:101A7E00126A4DE4FF126A4D7F01126A4D7F0C12FD
:101A8E006A4D7F24126A4DE4FF126A4DE4FF126A1A
:101A9E004DE4FF126A4D7F01126A4DE4FF126A4D4A
:101AAE007F02126A4D7F0C126A4DE4FF126A4DE4FA
:101ABE00FF126A4DE4FF126A4DE4FF126A4D7F0178
:101ACE00126A4DE4FF126A4D7F03126A4D7F0C12AB
:101ADE006A4D7F60126A4D7F0E126A4D7F18126A30
:101AEE004DE4FF126A4D7F01126A4DE4FF126A4DFA
:101AFE007F04126A4D7F0C126A4DE4FF126A4D7F0D
:101B0E0001126A4D7F07126A4D7F14126A4D7F01D2
:101B1E00126A4DE4FF126A4D7F01126A4D7F0C125C
:101B2E006A4D7F25126A4DE4FF126A4DE4FF126A78
:101B3E004DE4FF126A4D7F01126A4DE4FF126A4DA9
:101B4E007F02126A4D7F0C126A4DE4FF126A4DE459
:101B5E00FF126A4DE4FF126A4DE4FF126A4D7F01D7
:101B6E00126A4DE4FF126A4D7F03126A4D7F0C120A
:101B7E006A4D7F60126A4D7F0E126A4D7F18126A8F
:101B8E004DE4FF126A4D7F01126A4DE4FF126A4D59
:101B9E007F04126A4D7F0C126A4DE4FF126A4D7F6C
:101BAE0001126A4D7F07126A4D7F14126A4D7F0132
:101BBE00126A4DE4FF126A4D7F01126A4D7F0C12BC
:101BCE006A4D7F26126A4DE4FF126A4DE4FF126AD7
:101BDE004DE4FF126A4D7F01126A4DE4FF126A4D09
:101BEE007F02126A4D7F0C126A4DE4FF126A4DE4B9
:101BFE00FF126A4DE4FF126A4DE4FF126A4D7F0137
:101C0E00126A4DE4FF126A4D7F03126A4D7F0C1269
:101C1E006A4D7F60126A4D7F0E126A4D7F18126AEE
:101C2E004DE4FF126A4D7F01126A4DE4FF126A4DB8
:101C3E007F04126A4D7F0C126A4DE4FF126A4D7FCB
:101C4E0001126A4D7F07126A4D7F14126A4D7F0191
:101C5E00126A4DE4FF126A4D7F01126A4D7F0C121B
:101C6E006A4D7F27126A4DE4FF126A4DE4FF126A35
:101C7E004DE4FF126A4D7F01126A4DE4FF126A4D68
:101C8E007F02126A4D7F0C126A4DE4FF126A4DE418
:101C9E00FF126A4DE4FF126A4DE4FF126A4D7F0196
:101CAE00126A4DE4FF126A4D7F03126A4D7F0C12C9
:101CBE006A4D7F60126A4D7F0E126A4D7F18126A4E
:101CCE004DE4FF126A4D7F01126A4DE4FF126A4D18
:101CDE007F04126A4D7F0C126A4DE4FF126A4D7F2B
:101CEE0001126A4D7F07126A4D7F14126A4D7F01F1
:101CFE00126A4DE4FF126A4D7F01126A4D7F0C127B
:101D0E006A4D7F28126A4DE4FF126A4DE4FF126A93
:101D1E004DE4FF126A4D7F01126A4DE4FF126A4DC7
:101D2E007F02126A4D7F0C126A4DE4FF126A4DE477
:101D3E00FF126A4DE4FF126A4DE4FF126A4D7F01F5
:101D4E00126A4DE4FF126A4D7F03126A4D7F0C1228
:101D5E006A4D7F60126A4D7F0E126A4D7F18126AAD
:101D6E004DE4FF126A4D7F01126A4DE4FF126A4D77
:101D7E007F04126A4D7F0C126A4DE4FF126A4D7F8A
:101D8E0001126A4D7F07126A4D7F14126A4D7F0150
:101D9E00126A4DE4FF126A4D7F01126A4D7F0C12DA
:101DAE006A4D7F29126A4DE4FF126A4DE4FF126AF2
:101DBE004DE4FF126A4D7F01126A4DE4FF126A4D27
:101DCE007F02126A4D7F0C126A4DE4FF126A4DE4D7
:101DDE00FF126A4DE4FF126A4DE4FF126A4D7F0155
:101DEE00126A4DE4FF126A4D7F03126A4D7F0C1288
:101DFE006A4D7F60126A4D7F0E126A4D7F18126A0D
:101E0E004DE4FF126A4D7F01126A4DE4FF126A4DD6
:101E1E007F04126A4D7F0C126A4DE4FF126A4D7FE9
:101E2E0001126A4D7F07126A4D7F14126A4D7F01AF
:101E3E00126A4DE4FF126A4D7F01126A4D7F0C1239
:101E4E006A4D7F2A126A4DE4FF126A4DE4FF126A50
:101E5E004DE4FF126A4D7F01126A4DE4FF126A4D86
:101E6E007F02126A4D7F0C126A4DE4FF126A4DE436
:101E7E00FF126A4DE4FF126A4DE4FF126A4D7F01B4
:101E8E00126A4DE4FF126A4D7F03126A4D7F0C12E7
:101E9E006A4D7F60126A4D7F0E126A4D7F18126A6C
:101EAE004DE4FF126A4D7F01126A4DE4FF126A4D36
:101EBE007F04126A4D7F0C126A4DE4FF126A4D7F49
:101ECE0001126A4D7F07126A4D7F14126A4D7F010F
:101EDE00126A4DE4FF126A4D7F01126A4D7F0C1299
:101EEE006A4D7F2B126A4DE4FF126A4DE4FF126AAF
:101EFE004DE4FF126A4D7F01126A4DE4FF126A4DE6
:101F0E007F02126A4D7F0C126A4DE4FF126A4DE495
:101F1E00FF126A4DE4FF126A4DE4FF126A4D7F0113
:101F2E00126A4DE4FF126A4D7F03126A4D7F0C1246
:101F3E006A4D7F60126A4D7F0E126A4D7F18126ACB
:101F4E004DE4FF126A4D7F01126A4DE4FF126A4D95
:101F5E007F04126A4D7F0C126A4DE4FF126A4D7FA8
:101F6E0001126A4D7F07126A4D7F14126A4D7F016E
:101F7E00126A4DE4FF126A4D7F01126A4D7F0C12F8
:101F8E006A4D7F2C126A4DE4FF126A4DE4FF126A0D
:101F9E004DE4FF126A4D7F01126A4DE4FF126A4D45
:101FAE007F02126A4D7F0C126A4DE4FF126A4DE4F5
:101FBE00FF126A4DE4FF126A4DE4FF126A4D7F0173
:101FCE00126A4DE4FF126A4D7F03126A4D7F0C12A6
:101FDE006A4D7F60126A4D7F0E126A4D7F18126A2B
:101FEE004DE4FF126A4D7F01126A4DE4FF126A4DF5
:101FFE007F04126A4D7F0C126A4DE4FF126A4D7F08
:10200E0001126A4D7F07126A4D7F14126A4D7F01CD
:10201E00126A4DE4FF126A4D7F01126A4D7F0C1257
:10202E006A4D7F2D126A4DE4FF126A4DE4FF126A6B
:10203E004DE4FF126A4D7F01126A4DE4FF126A4DA4
:10204E007F02126A4D7F0C126A4DE4FF126A4DE454
:10205E00FF126A4DE4FF126A4DE4FF126A4D7F01D2
:10206E00126A4DE4FF126A4D7F03126A4D7F0C1205
:10207E006A4D7F60126A4D7F0E126A4D7F18126A8A
:10208E004DE4FF126A4D7F01126A4DE4FF126A4D54
:10209E007F04126A4D7F0C126A4DE4FF126A4D7F67
:1020AE0001126A4D7F07126A4D7F14126A4D7F012D
:1020BE00126A4DE4FF126A4D7F01126A4D7F0C12B7
:1020CE006A4D7F2E126A4DE4FF126A4DE4FF126ACA
:1020DE004DE4FF126A4D7F01126A4DE4FF126A4D04
:1020EE007F02126A4D7F0C126A4DE4FF126A4DE4B4
:1020FE00FF126A4DE4FF126A4DE4FF126A4D7F0132
:10210E00126A4DE4FF126A4D7F03126A4D7F0C1264
:10211E006A4D7F60126A4D7F0E126A4D7F18126AE9
:10212E004DE4FF126A4D7F01126A4DE4FF126A4DB3
:10213E007F04126A4D7F0C126A4DE4FF126A4D7FC6
:10214E0001126A4D7F07126A4D7F14126A4D7F018C
:10215E00126A4DE4FF126A4D7F01126A4D7F0C1216
:10216E006A4D7F2F126A4DE4FF126A4DE4FF126A28
:10217E004DE4FF126A4D7F01126A4DE4FF126A4D63
:10218E007F02126A4D7F0C126A4DE4FF126A4DE413
:10219E00FF126A4DE4FF126A4DE4FF126A4D7F0191
:1021AE00126A4DE4FF126A4D7F03126A4D7F0C12C4
:1021BE006A4D7F60126A4D7F0E126A4D7F18126A49
:1021CE004DE4FF126A4D7F01126A4DE4FF126A4D13
:1021DE007F04126A4D7F0C126A4DE4FF126A4D7F26
:1021EE0001126A4D7F07126A4D7F14126A4D7F01EC
:1021FE00126A4DE4FF126A4D7F01126A4D7F0C1276
:10220E006A4D7F30126A4DE4FF126A4DE4FF126A86
:10221E004DE4FF126A4D7F01126A4DE4FF126A4DC2
:10222E007F02126A4D7F0C126A4DE4FF126A4DE472
:10223E00FF126A4DE4FF126A4DE4FF126A4D7F01F0
:10224E00126A4DE4FF126A4D7F03126A4D7F0C1223
:10225E006A4D7F60126A4D7F0E126A4D7F18126AA8
:10226E004DE4FF126A4D7F01126A4DE4FF126A4D72
:10227E007F04126A4D7F0C126A4DE4FF126A4D7F85
:10228E0001126A4D7F07126A4D7F14126A4D7F014B
:10229E00126A4DE4FF126A4D7F01126A4D7F0C12D5
:1022AE006A4D7F31126A4DE4FF126A4DE4FF126AE5
:1022BE004DE4FF126A4D7F01126A4DE4FF126A4D22
:1022CE007F02126A4D7F0C126A4DE4FF126A4DE4D2
:1022DE00FF126A4DE4FF126A4DE4FF126A4D7F0150
:1022EE00126A4DE4FF126A4D7F03126A4D7F0C1283
:1022FE006A4D7F60126A4D7F0E126A4D7F18126A08
:10230E004DE4FF126A4D7F01126A4DE4FF126A4DD1
:10231E007F04126A4D7F0C126A4DE4FF126A4D7FE4
:0F232E0001126A4D7F07126A4D7F14126A4D2209
:05233D00900332EFF0F7
:102342009003347424F078357C037D017BFF7A4E50
:1023520079597E00FF123ED79003597408F0785ADB
:102362007C037D017BFF7A4E797D7E00FF123ED792
:102372009003627408F078637C037D017BFF7A4EE0
:1023820079857E00FF123ED790036B7408F0786C5B
:102392007C037D017BFF7A4E798D7E00FF123ED752
:1023A2009003747408F078757C037D017BFF7A4E8C
:1023B20079957E00FF123ED790037D7408F0787EF7
:1023C2007C037D017BFF7A4E799D7E00FF123ED712
:1023D2009003867408F078877C037D017BFF7A4E38
:1023E20079A57E00FF123ED790038F7408F0789093
:1023F2007C037D017BFF7A4E79AD7E00FF123ED7D2
:102402009003987408F078997C037D017BFF7A4EE3
:1024120079B57E00FF123ED79003A17408F078A22E
:102422007C037D017BFF7A4E79BD7E00FF123ED791
:102432009003AA7408F078AB7C037D017BFF7A4E8F
:1024420079C57E00FF123ED79003B37408F078B4CA
:102452007C037D017BFF7A4E79CD7E00FF123ED751
:102462009003BC7408F078BD7C037D017BFF7A4E3B
:1024720079D57E00FF123ED79003C57408F078C666
:102482007C037D017BFF7A4E79DD7E00FF123ED711
:102492009003CE7408F078CF7C037D017BFF7A4EE7
:1024A20079E57E00FF123ED79003D77408F078D802
:1024B2007C037D017BFF7A4E79ED7E00FF123ED7D1
:1024C2009003E07408F078E17C037D017BFF7A4E93
:1024D20079F57E00FF123ED79003E97408F078EA9E
:1024E2007C037D017BFF7A4E79FD7E00FF123ED791
:1024F2009003F27408F078F37C037D017BFF7A4F3E
:1025020079057E00FF123ED79003FB7408F078FC39
:102512007C037D017BFF7A4F790D7E00FF123ED74F
:102522009004047408F078057C047D017BFF7A4FE7
:1025320079157E00FF123ED790040D7408F0780ED4
:102542007C047D017BFF7A4F791D7E00FF123ED70E
:102552009004167408F078177C047D017BFF7A4F93
:1025620079257E00FF123ED7E490041FF078207C8C
:10257200047D017BFF7A4F792DFE7F01123ED790B9
:1025820004217408F078227C047D017BFF7A4F7964
:102592002E7E00FF123ED790042A7408F0782B7C1E
:1025A200047D017BFF7A4F79367E00FF123ED79081
:1025B20004337408F078347C047D017BFF7A4F7910
:1025C2003E7E00FF123ED790043C7408F0783D7CBA
:1025D200047D017BFF7A4F79467E00FF123ED79041
:1025E20004457408F078467C047D017BFF7A4F79BC
:1025F2004E7E00FF123ED790044E7408F0784F7C56
:10260200047D017BFF7A4F79567E00FF123ED79000
:1026120004577420F078587C047D017BFF7A4F794F
:102622005E7E00FF123ED79004787408F078797CC1
:10263200047D017BFF7A4F797E7E00FF123ED790A8
:1026420004817408F078827C047D017BFF7A4F79E3
:10265200867E00FF123ED7900332E014B421004080
:102662000302304B90267475F003A4C58325F0C590
:1026720083730226D70227250227730227C1022865
:102682000F02285D0228AB0228F902294702299588
:102692000229E3022A31022A7F022ACD022B1B02DF
:1026A2002B69022BB7022C05022C53022CA1022CFF
:1026B200A4022CF2022D40022D8E022DDC022E2AC3
:1026C200022E78022EC6022F14022F62022CA102C1
:1026D2002FB0022FFDE4900333F0900334E0FF901B
:1026E2000333E0FEC3EF6480F8EE64809840030297
:1026F200304EE0FFFD3395E0FC74352DF582740316
:102702003CF583E0FEEF3395E0FC74F42DF5827422
:10271200003CF583E06E600302303D900333E00439
:10272200F080B7E4900333F0900359E0FF90033355
:10273200E0FEC3EF6480F8EE648098400302304EFE
:10274200E0FFFD3395E0FC745A2DF58274033CF5ED
:1027520083E0FEEF3395E0FC74F42DF58274003CC7
:10276200F583E06E600302303D900333E004F080B5
:10277200B7E4900333F0900362E0FF900333E0FE8E
:10278200C3EF6480F8EE648098400302304EE0FFAD
:10279200FD3395E0FC74632DF58274033CF583E010
:1027A200FEEF3395E0FC74F42DF58274003CF58362
:1027B200E06E600302303D900333E004F080B7E442
:1027C200900333F090036BE0FF900333E0FEC3EF1E
:1027D2006480F8EE648098400302304EE0FFFD33DF
:1027E20095E0FC746C2DF58274033CF583E0FEEFFA
:1027F2003395E0FC74F42DF58274003CF583E06EB1
:10280200600302303D900333E004F080B7E49003AC
:1028120033F0900374E0FF900333E0FEC3EF648073
:10282200F8EE648098400302304EE0FFFD3395E0FD
:10283200FC74752DF58274033CF583E0FEEF33954D
:10284200E0FC74F42DF58274003CF583E06E6003C5
:1028520002303D900333E004F080B7E4900333F09C
:1028620090037DE0FF900333E0FEC3EF6480F8EE57
:10287200648098400302304EE0FFFD3395E0FC7423
:102882007E2DF58274033CF583E0FEEF3395E0FC88
:1028920074F42DF58274003CF583E06E600302301F
:1028A2003D900333E004F080B7E4900333F09003EB
:1028B20086E0FF900333E0FEC3EF6480F8EE6480AD
:1028C20098400302304EE0FFFD3395E0FC74872D03
:1028D200F58274033CF583E0FEEF3395E0FC74F47B
:1028E2002DF58274003CF583E06E600302303D906A
:1028F2000333E004F080B7E4900333F090038FE0F9
:10290200FF900333E0FEC3EF6480F8EE64809840EA
:102912000302304EE0FFFD3395E0FC74902DF5820A
:1029220074033CF583E0FEEF3395E0FC74F42DF57F
:102932008274003CF583E06E600302303D90033305
:10294200E004F080B7E4900333F0900398E0FF9046
:102952000333E0FEC3EF6480F8EE64809840030224
:10296200304EE0FFFD3395E0FC74992DF58274033F
:102972003CF583E0FEEF3395E0FC74F42DF58274B0
:10298200003CF583E06E600302303D900333E004C7
:10299200F080B7E4900333F09003A1E0FF9003339B
:1029A200E0FEC3EF6480F8EE648098400302304E8C
:1029B200E0FFFD3395E0FC74A22DF58274033CF533
:1029C20083E0FEEF3395E0FC74F42DF58274003C55
:1029D200F583E06E600302303D900333E004F08043
:1029E200B7E4900333F09003AAE0FF900333E0FED4
:1029F200C3EF6480F8EE648098400302304EE0FF3B
:102A0200FD3395E0FC74AB2DF58274033CF583E055
:102A1200FEEF3395E0FC74F42DF58274003CF583EF
:102A2200E06E600302303D900333E004F080B7E4CF
:102A3200900333F09003B3E0FF900333E0FEC3EF63
:102A42006480F8EE648098400302304EE0FFFD336C
:102A520095E0FC74B42DF58274033CF583E0FEEF3F
:102A62003395E0FC74F42DF58274003CF583E06E3E
:102A7200600302303D900333E004F080B7E490033A
:102A820033F09003BCE0FF900333E0FEC3EF6480B9
:102A9200F8EE648098400302304EE0FFFD3395E08B
:102AA200FC74BD2DF58274033CF583E0FEEF339593
:102AB200E0FC74F42DF58274003CF583E06E600353
:102AC20002303D900333E004F080B7E4900333F02A
:102AD2009003C5E0FF900333E0FEC3EF6480F8EE9D
:102AE200648098400302304EE0FFFD3395E0FC74B1
:102AF200C62DF58274033CF583E0FEEF3395E0FCCE
:102B020074F42DF58274003CF583E06E60030230AC
:102B12003D900333E004F080B7E4900333F0900378
:102B2200CEE0FF900333E0FEC3EF6480F8EE6480F2
:102B320098400302304EE0FFFD3395E0FC74CF2D48
:102B4200F58274033CF583E0FEEF3395E0FC74F408
:102B52002DF58274003CF583E06E600302303D90F7
:102B62000333E004F080B7E4900333F09003D7E03E
:102B7200FF900333E0FEC3EF6480F8EE6480984078
:102B82000302304EE0FFFD3395E0FC74D82DF58250
:102B920074033CF583E0FEEF3395E0FC74F42DF50D
:102BA2008274003CF583E06E600302303D90033393
:102BB200E004F080B7E4900333F09003E0E0FF908C
:102BC2000333E0FEC3EF6480F8EE648098400302B2
:102BD200304EE0FFFD3395E0FC74E12DF582740385
:102BE2003CF583E0FEEF3395E0FC74F42DF582743E
:102BF200003CF583E06E600302303D900333E00455
:102C0200F080B7E4900333F09003E9E0FF900333E0
:102C1200E0FEC3EF6480F8EE648098400302304E19
:102C2200E0FFFD3395E0FC74EA2DF58274033CF578
:102C320083E0FEEF3395E0FC74F42DF58274003CE2
:102C4200F583E06E600302303D900333E004F080D0
:102C5200B7E4900333F09003F2E0FF900333E0FE19
:102C6200C3EF6480F8EE648098400302304EE0FFC8
:102C7200FD3395E0FC74F32DF58274033CF583E09B
:102C8200FEEF3395E0FC74F42DF58274003CF5837D
:102C9200E06E600302303D900333E004F080B77FC2
:102CA2000022E4900333F0900404E0FF900333E049
:102CB200FEC3EF6480F8EE648098400302304EE079
:102CC200FFFD3395E0FC74052DF58274043CF58319
:102CD200E0FEEF3395E0FC74F42DF58274003CF5D0
:102CE20083E06E600302303D900333E004F080B76E
:102CF200E4900333F090040DE0FF900333E0FEC351
:102D0200EF6480F8EE648098400302304EE0FFFDED
:102D12003395E0FC740E2DF58274043CF583E0FEDD
:102D2200EF3395E0FC74F42DF58274003CF583E0FA
:102D32006E600302303D900333E004F080B7E4900C
:102D42000333F0900416E0FF900333E0FEC3EF6418
:102D520080F8EE648098400302304EE0FFFD339528
:102D6200E0FC74172DF58274043CF583E0FEEF332A
:102D720095E0FC74F42DF58274003CF583E06E60FE
:102D82000302303D900333E004F080B7E490033354
:102D9200F090041FE0FF900333E0FEC3EF6480F87D
:102DA200EE648098400302304EE0FFFD3395E0FC74
:102DB20074202DF58274043CF583E0FEEF3395E038
:102DC200FC74F42DF58274003CF583E06E6003021E
:102DD200303D900333E004F080B7E4900333F09089
:102DE2000421E0FF900333E0FEC3EF6480F8EE6459
:102DF2008098400302304EE0FFFD3395E0FC7422E0
:102E02002DF58274043CF583E0FEEF3395E0FC740B
:102E1200F42DF58274003CF583E06E600302303DD0
:102E2200900333E004F080B7E4900333F090042A77
:102E3200E0FF900333E0FEC3EF6480F8EE64809815
:102E4200400302304EE0FFFD3395E0FC742B2DF57C
:102E52008274043CF583E0FEEF3395E0FC74F42DBC
:102E6200F58274003CF583E06E600302303D90030E
:102E720033E004F080B7E4900333F0900433E0FFD2
:102E8200900333E0FEC3EF6480F8EE648098400361
:102E920002304EE0FFFD3395E0FC74342DF5827470
:102EA200043CF583E0FEEF3395E0FC74F42DF582EB
:102EB20074003CF583E06E600302303D900333E022
:102EC20004F080B7E4900333F090043CE0FF9003F9
:102ED20033E0FEC3EF6480F8EE6480984003023072
:102EE2004EE0FFFD3395E0FC743D2DF58274043C09
:102EF200F583E0FEEF3395E0FC74F42DF582740067
:102F02003CF583E06E600302303D900333E004F051
:102F120080B7E4900333F0900445E0FF900333E080
:102F2200FEC3EF6480F8EE648098400302304EE006
:102F3200FFFD3395E0FC74462DF58274043CF58365
:102F4200E0FEEF3395E0FC74F42DF58274003CF55D
:102F520083E06E600302303D900333E004F080B7FB
:102F6200E4900333F090044EE0FF900333E0FEC39D
:102F7200EF6480F8EE648098400302304EE0FFFD7B
:102F82003395E0FC744F2DF58274043CF583E0FE2A
:102F9200EF3395E0FC74F42DF58274003CF583E088
:102FA2006E600302303D900333E004F080B7E4909A
:102FB2000333F0900478E0FF900333E0FEC3EF6444
:102FC20080F8EE648098400302304EE0FFFD3395B6
:102FD200E0FC74792DF58274043CF583E0FEEF3356
:102FE20095E0FC74F42DF58274003CF583E06E608C
:102FF200028048900333E004F080B8E4900333F099
:10300200900481E0FF900333E0FEC3EF6480F8EEAA
:103012006480985037E0FFFD3395E0FC74822DF513
:103022008274043CF583E0FEEF3395E0FC74F42DEA
:10303200F58274003CF583E06E6006900332E0FF97
:0E30420022900333E004F080B77F00227F006D
:01305000225D
:106B8A00E4F5957596FFC2A1C2A253E1EF43E21064
:016B9A0022D8
:096B9B007F0F126BA4D2FC7F0FE6
:076BA400AE071FEE70FA229C
:0267CF00AB0716
:1067D1007A80C2A3EDB40104C2A48002D2A4EAD398
:1067E10094004011C2FCEA5B24FF92A7126B9BEA62
:0E67F100C313FA80E9C2FCD2A7126B9BD2A39D
:0167FF002277
:106AE1003EF583E5822DF582E43583F583E493FF5A
:056AF100E4FD0267CF87
:05000E007D010267CF37
:10604100E4FFFE900332F0A3F00FBF00010EBE7516
:10605100F8BF30F57FAE12000E7FD512000E7F80A3
:1060610012000E7FA812000E7F2712000E7FD3129E
:10607100000EE4FF12000E7F4012000E7F8D120011
:106081000E7F1412000E7FA112000E7FC812000EA7
:106091007FDA12000E7F1212000E7F8112000E7F36
:1060A100AF12000E7FD912000E7F2512000E7FDB8A
:1060B10012000E7F2012000E7FA412000E7FA61286
:0A60C100000E7FAF12000E026622EF
:10662200E4900334F0A3F0900334E0FFC3940550E8
:1066320026E4A3F0126C39E4FF12694A900335E0B4
:10664200C39460500AE4FF126AF1E004F080ED9016
:076652000334E004F080D0E6
:01665900221E
:0B621C00900500EBF0A3EAF0A3E9F00E
:10622700E4A3F0A3F0A3F0A3F0900503E0FFC39469
:10623700055045E4A3F0126C39E4FF12694A900552
:1062470004E0C394605029900500E0FBA3E0FAA3A3
:10625700E0F9900505E475F001123FE285F082F55B
:1062670083123F38FF126AF1900504E004F080CEF4
:08627700900503E004F080B182
:01627F0022FC
:066C3300F0EB540FA3F08A
:096C3900EF540F44B0FF02000EFD
:08694200FF126C39E92408FF83
:10694A00AC0774202CFC540FFF12000EAF04EFC4E6
:08695A00540F4410FF02000E6F
:0B454F00900512EBF0A3EAF0A3E9F0E6
:10455A00E4A3F0A3F0900512E0FBA3E0FAA3E0F9CC
:10456A00123F1F7003024859900515E0F9C3940CD5
:10457A0050087F01126C39E08014E9C39418400393
:10458A000248597F03126C39900515E024F475F03E
:10459A0008A4FF12694A900512E0FBA3E0FAA3E01F
:1045AA00F9123F1FFFC3648094B0404DD3EF64807B
:1045BA0094B95045E4900516F0900516E0FDC394B1
:1045CA000840030246DC900512E0FBA3E0FAA3E0F0
:1045DA00F9123F1FFF3395E0FEEFC4F8540FC86885
:1045EA00FFEEC454F048FE74312FF582742F126A1C
:1045FA00E1900516E004F080C0900512E0FBA3E00C
:10460A00FAA3E0F9123F1FFFC3648094E1404DD33F
:10461A00EF648094FA5045E4900516F0900516E090
:10462A00FDC3940840030246DC900512E0FBA3E0B8
:10463A00FAA3E0F9123F1FFF3395E0FEEFC4F854E6
:10464A000FC868FFEEC454F048FE74212FF5827437
:10465A002D126AE1900516E004F080C0900512E080
:10466A00FBA3E0FAA3E0F9123F1FFFC3648094C1E1
:10467A00404AD3EF648094DA5042E4900516F090F1
:10468A000516E0FDC394085049900512E0FBA3E02B
:10469A00FAA3E0F9123F1FFF3395E0FEEFC4F85486
:1046AA000FC868FFEEC454F048FE74C12FF5827437
:1046BA0030126AE1900516E004F080C3E490051612
:1046CA00F0E4FF126AF1900516E004F0E0C39408E2
:1046DA0040EF900515E0F9C3940C50087F02126C64
:1046EA0039E08014E9C3941840030248597F041240
:1046FA006C39900515E024F475F008A4FF12694A94
:10470A00900512E0FBA3E0FAA3E0F9123F1FFFC3F2
:10471A00648094B0404DD3EF648094B95045E490DE
:10472A000516F0900516E0FDC394084003024846BA
:10473A00900512E0FBA3E0FAA3E0F9123F1FFF3352
:10474A0095E0FEEFC4F8540FC868FFEEC454F04871
:10475A00FE74392FF582742F126AE1900516E0046F
:10476A00F080C0900512E0FBA3E0FAA3E0F9123F43
:10477A001FFFC3648094E1404DD3EF648094FA50E4
:10478A0045E4900516F0900516E0FDC39408400331
:10479A00024846900512E0FBA3E0FAA3E0F9123FB3
:1047AA001FFF3395E0FEEFC4F8540FC868FFEEC44C
:1047BA0054F048FE74292FF582742D126AE190058F
:1047CA0016E004F080C0900512E0FBA3E0FAA3E033
:1047DA00F9123F1FFFC3648094C1404AD3EF64803B
:1047EA0094DA5042E4900516F0900516E0FDC39461
:1047FA00085049900512E0FBA3E0FAA3E0F9123F42
:10480A001FFF3395E0FEEFC4F8540FC868FFEEC4EB
:10481A0054F048FE74C92FF5827430126AE190058B
:10482A0016E004F080C3E4900516F0E4FF126AF182
:10483A00900516E004F0E0C3940840EF900515E0F7
:0F484A0004F0900513E475F001123FCC02455FB6
:01485900223C
:075B6100A90590052BEFF0F0
:105B6800E4FCEBC4540FA3126C33AF0112694AE48E
:105B7800FC90052CE0C454F02431F582E43432F56D
:105B880083E5822C126AE70CECB408E590052BE05B
:105B980004FF126C39AF0112694AE4FC90052CE04D
:105BA800C454F02439F582E43432F583E5822C12AA
:105BB8006AE70CECB408E590052BE0126942E4FCB6
:105BC800EC640790052D601BE0C454F02431F58285
:105BD800E43432F583E5822CF582E43583F583E4F9
:105BE80093801BE0C454F02431F582E43432F58309
:105BF800E5822CF582E43583F583E4934401FF12B2
:105C08006AF10CECB408B990052BE004126942E47F
:105C1800FC90052DE0C454F02439F582E43432F5C3
:0C5C280083E5822C126AE70CECB408E55E
:015C3400224D
:0B61B00090051CEBF0A3EAF0A3E9F05F
:1061BB00E4A3F090051CE0FBA3E0FAA3E0F9A3E055
:1061CB00FFF582758300123F38FB6044EFC39406E2
:1061DB00500C90051FE0C454F0FD7F018027900503
:1061EB001FE0FFC3940C5028EF24FAC454F0FD9029
:1061FB00051CE0FBA3E0FAA3E0F98F827583001284
:10620B003F38FB7F03125B6190051FE004F080A316
:01621B002260
:0457B500AA07AC058E
:1057B900E4F9EBC4540F900350126C33AF0412692F
:1057C9004A900350E0FFC39400402BEFD394095053
:1057D90025E4900350E075F005A429F582E435F03D
:1057E900F583E58224A1F582E5833430126AEC0958
:1057F900E9B405DE803A900350E0FFC3940A5003F0
:105809000258ADEFD3940F40030258ADE4F9900369
:1058190050E075F005A429F582E435F0F583E582B9
:1058290024C4F582E5833430126AEC09E9B405DE53
:10583900E4FF126AF1900351E0FFC39400402CEF9A
:10584900D394095026E4F9900351E075F005A42991
:10585900F582E435F0F583E58224A1F582E5833408
:1058690030126AEC09E9B405DE8034900351E0FF97
:10587900C3940A402FEFD3940F5029E4F9900351B0
:10588900E075F005A429F582E435F0F583E5822475
:10589900C4F582E5833430126AEC09E9B405DE7F88
:0458A90003126AF18B
:0158AD0022D8
:0B5C350090034BEBF0A3EAF0A3E9F0B2
:105C4000E4A3F0A3F090034BE0FBA3E0FAA3E0F998
:105C5000123F1FFB7003025CF090034EE0FFC39401
:105C600008500AEF75F00CA4FD7F01806D90034E83
:105C7000E0FFC39410501BEF24F875F00CA4FD90C6
:105C8000034BE0FBA3E0FAA3E0F9123F1FFB7F0206
:105C9000804890034EE0FFC39418501BEF24F0752A
:105CA000F00CA4FD90034BE0FBA3E0FAA3E0F91293
:105CB0003F1FFB7F03802390034EE0FFC3942050DF
:105CC0002FEF24E875F00CA4FD90034BE0FBA3E05C
:105CD000FAA3E0F9123F1FFB7F041257B590034C63
:105CE000E475F001123FCC90034EE004F0025C45F5
:015CF0002291
:0766C900900493EDF0A9031A
:1066D000E4FC126C39E0FF12694AE4FC75F005E94C
:1066E000A42CF582E435F0F583E58224B1F582E54A
:1066F00083342F126AEC0CECB405E1E4FF026AF17A
:0B5CF100900336EBF0A3EAF0A3E9F00B
:105CFC00E4A3F0A3F0900336E0FBA3E0FAA3E0F9F1
:105D0C00123F1FFB7003025DAC900339E0FFC3949C
:105D1C0010500AEF75F006A4FD7F01806D900339D9
:105D2C00E0FFC39420501BEF24F075F006A4FD9007
:105D3C000336E0FBA3E0FAA3E0F9123F1FFB7F025E
:105D4C008048900339E0FFC39430501BEF24E0757A
:105D5C00F006A4FD900336E0FBA3E0FAA3E0F912F1
:105D6C003F1FFB7F038023900339E0FFC394405017
:105D7C002FEF24D075F006A4FD900336E0FBA3E0D2
:105D8C00FAA3E0F9123F1FFB7F041266C990033798
:105D9C00E475F001123FCC900339E004F0025D0190
:015DAC0022D4
:106962007401A807088002C333D8FCF59DE4F5BD85
:0F697200EF4488F5BC7F02126A9DD2ADD2AF22EE
:03002B00025DADC6
:0D5DAD00C0E0C0F0C083C082C0D075D00837
:105DBA0090048AE4F0A3F0FFFEA3F0A3F0C2ADF5CD
:105DCA00BC126BD97F03126A8690048AE4F0A3EFAF
:105DDA00F0126BD97F03126A867E0090048AE0FC77
:105DEA00A3E0FDD39FEC9E401DED9FFBEC9EFAC302
:105DFA00EB9423EA9400504EED2FFFEE3CC313FEC2
:105E0A00EF13FFA38030C3ED9FEC9E502C90048AC1
:105E1A00E0FCA3E0FDC3EF9DFDEE9CFCC3ED9423E3
:105E2A00EC94005021E02FFF90048AE03EC313FE59
:105E3A00EF13FF90048CEE800990048AE0FFA3E040
:085E4A00A3CFF0A3EFF0D2ADED
:0B5E5200D0D0D082D083D0F0D0E0325E
:106A8600E4F5BDEF4488F5BC00000000E5BC30E449
:076A9600FB75BC00AFBD223F
:1068FE00AC07E4123D52900518E0F8A3E0F9A3E0CE
:10690E00FAA3E0FB123B29E4FBFA79807843123CB0
:02691E00322223
:10688C00E4FDFCF5BDF5BEEF4488F5BC000000004E
:10689C00E5BC30E4FB75BC00AFBDEF75F004A4FDA6
:0968AC00ACF0AFBEED4FAE04FFED
:0168B50022C0
:10005E00AD07AC06E4123D4D900509E0F8A3E0F9BA
:10006E00A3E0FAA3E0FB123B29E4FBFA7980784483
:04007E00123C3222DC
:106A9D00AE071FEE60107C137D88ED1DAA047001FA
:066AAD001C4A60EC80F4BD
:016AB30022C0
:106868004202E800004100F1004100F2004100F35B
:01687800001F
:1068310053B13F43B2C0E5A2543F4440F5A2538750
:106841007F759850438E40538EFE53890F438920A4
:0F685100758BFA758DFAC2ABD28ED2ACD2AF2254
:0F6A3E00A3E475F001123FE2A9F0FA123F1FFF27
:096A4D002000FDEFD200F59922B2
:1068B60090052EEBF0A3EAF0A3E9F090052EE0FB9D
:1068C600A3E0FAA3E0F9123F1F600890052E126AB2
:0468D6003E80E822F6
:030023000265ABC8
:1065AB00C0E0C0F0C083C082C0D075D00830981B4B
:1065BB00C2989002E8E475F001123FE2FE74F425F4
:1065CB00F0F58274003EF583E599F0309904C29999
:0D65DB00C200D0D0D082D083D0F0D0E0320A
:030043000265E86B
:1065E800C0E0C083C082C0D075D008E59A30E017FB
:1065F800539AFE9000F1E0FF04F074002FF582E456
:106608003400F583E59BF0E59A30E105539AFDC225
:0A66180001D0D0D082D083D0E03250
:096C42002001FDEFD201F59B22B7
:10676900900336EBF0A3EAF0A3E9F0900336E0FBDF
:10677900A3E0FAA3E0F9123F1F6017900336A3E4E0
:1067890075F001123FE2A9F0FA123F1FFF126C42A5
:0367990080D92282
:106A560053BAFE759A50438E0475D7C075D6FD435A
:086A66008E1075AF01D2AF22C2
:106ACB007E027FF49000F4E4F0A3DFFCDEFAE490A6
:056ADB0002E8F0A3F049
:016AE0002293
:0F6BAB007F64900000E4F0A3DFFCE49000F1F0C1
:016BBA0022B8
:1069BB0043BA0275AC1043AC4043D10275D5D075C8
:0B69CB00D4FF43D10843AF08D2AF2235
:03008B000269F116
:1069F100C0E0E5AC30E00653ACFE85AD80E5AC30DF
:0A6A0100E10553ACFDC202D0E03203
:096C4B002002FDEFD202F5AD229A
:10679C00900531EBF0A3EAF0A3E9F0900531E0FBB2
:1067AC00A3E0FAA3E0F9123F1F6017900531A3E4B0
:1067BC0075F001123FE2A9F0FA123F1FFF126C4B69
:0367CC0080D9224F
:1069D60043BA0475841043844043D12075D3D075DF
:0B69E600D2FF43D18043AF10D2AF229C
:03009300026A0BF3
:106A0B00C0E0E58430E0065384FE858580E5843064
:0A6A1B00E1055384FDC203D0E03210
:096C54002003FDEFD203F58522B7
:1068DA00900534EBF0A3EAF0A3E9F0900534E0FB6D
:1068EA00A3E0FAA3E0F9123F1F6008900534126A88
:0468FA003E80E822D2
:0D003600E4F5C7F5C5F5C675C380F5C42215
:106A6E0075C78175C5018FC4EEF5C375C65A75C657
:076A7E00A500AFC2120036B3
:016A850022EE
:106A250075C78175C5028FC4EEF5C3AF058FC275F5
:096A3500C65A75C6A50002003620
:106AF60075C78175C5038FC4EEF5C375C65A75C6CD
:056B0600A500020036AD
:10599B009004EDEEF0A3EFF09004F1EBF0A3EAF03E
:0B59AB00A3E9F09004EFECF0A3EDF096
:1059B600E49004F4F0A3F0FFA3F0A3F0D3ED942059
:1059C600EC94004001229004EDE0FCA3E0FDEC54D1
:1059D60001FEAF059004F0E02FFF9004EFE03EFEDD
:1059E600D3EF9420EE940040037F0022AF05AE046F
:1059F600126AF6E49004F4F0A3F09004EFE0FEA33C
:105A0600E0FF9004F4E0FCA3E0FDC39FEC9E50672A
:105A16009004EDE0FEA3E0FF9004F1E0FBA3E0FAC2
:105A2600A3E0F98D828C83123F38FD126A2590041B
:105A3600EDE0FEA3E0FF126A6E9004F1E0FBA3E046
:105A4600FAA3E0F9A3E0FCA3E0F5828C83123F38C9
:105A56006F60061200367F00229004EEE004F070BC
:105A6600069004EDE004F09004F5E004F0708B90ED
:0C5A760004F4E004F080831200367F018D
:015A82002201
:1052B7009004DEEEF0A3EFF09004E2EBF0A3EAF047
:0B52C700A3E9F09004E0ECF0A3EDF090
:1052D200E49004E5F0A3F0A3F0A3F0A3F0A3F0A3FD
:1052E200F0A3F0D3ED9420EC940040037F002290D1
:1052F20004DEE0FCA3E0FDEC5401FEAF059004E700
:10530200F0A3EFF09004E1E02FFF9004E0E03EFE16
:10531200D3EF9420EE940040037F0022EC54FEFE73
:105322007F009004E9F0A3EFF0A3EEF0A3EFF0907A
:1053320004E5F0A3F09004EBE475F001123FE2AF54
:10534200F0FE126A6E9004E5A3E02422F8A607E0BC
:1053520004F070069004E5E004F0C39004E6E094E3
:10536200209004E5E0940040CCE49004E5F0A3F042
:105372009004E0E0FEA3E0FF9004E5E0FCA3E0FD82
:10538200C39FEC9E50349004E2E0FBA3E0FAA3E05A
:10539200F98D828C83123F38FF9004E7E475F001A7
:1053A200123FE2742225F0F8A6079004E6E004F02A
:1053B20070069004E5E004F080B69004E9E0FEA3F4
:1053C200E0FF126AF69004E9E0FFA3E0A3CFF0A3A6
:1053D200EFF0E49004E5F0A3F09004E5E0FCA3E034
:1053E200FDC39420EC9400504C9004EBE0FEA3E04B
:1053F200FF74222DF8E6FD126A259004DEE0FEA37A
:10540200E0FF126A6E9004E5A3E02422F8E66F60E2
:10541200061200367F00229004ECE004F070069041
:1054220004EBE004F09004E6E004F070069004E57A
:0A543200E004F080A41200367F01B0
:01543C00224D
:10670000E5A254CFF5A2E4F5D8F5E9F5F975D9027B
:10671000F5F275EA2075FA2075DA4275F34075EBEB
:106720002075FB2075DB4275F48075EC2075FC202C
:0667300075DC42D2DE22FE
:10648F00E4F5B4F5B343BA80F5F190FFF2F090FF65
:10649F00F07403F0A374E8F090FF20E4F0A3F0FC95
:1064AF00FDFE7BE87A03F9F8123FF8E47B64FAF912
:1064BF00F812652490FF22EEF0A3EFF0A37408F01A
:0B64CF0043F50443F58053BA7F80FEC4
:1064DA00E4F5CAF5C943BA80F5F190FFF2F090FFEE
:1064EA00F07403F0A374E8F090FF30E4F0A3F0FC3A
:1064FA00FDFE7BE87A03F9F8123FF8E47B64FAF9C7
:10650A00F812652490FF32EEF0A3EFF0A37408F0BE
:0A651A0043F50843F58053BA7F22D1
:10698100EF75F064A4FFAEF0C374109F90053DF065
:0F69910074279E90053CF0E4900520F0026B30D7
:03009B00025F0AF7
:105F0A00C0E0C0F0C083C082C0D075D000C000C05D
:105F1A0001C002C003C004C005C006C00790052026
:105F2A00E07038900523E0FF75F012A4F404F5D56B
:105F3A00E4FCFDFE7B12FAF9F8123FF8C3E49FFF76
:105F4A00E49EFE74019DFDE49CFC78081240558F86
:105F5A00D4D2A09005207401F08035900521E0FF8D
:105F6A0075F012A4F404F5D5E4FCFDFE7B12FAF9EF
:105F7A00F8123FF8C3E49FFFE49EFE74019DFDE41E
:105F8A009CFC78081240558FD4C2A0900520E4F0FA
:105F9A00D007D006D005D004D003D002D001D0005B
:0B5FAA00D0D0D082D083D0F0D0E03205
:0A58AE00900335ECF0A3EDF0AB071A
:1058B800A312407500000000E490033BF0A3F0EB56
:1058C800146019146022146037146028240470309E
:1058D80090033712407546900000802E90033712CF
:1058E8004075462CCC00802290033712407545AC99
:1058F800C800801690033712407544ACC000800A77
:10590800900337124075452CD000E4F594F5934385
:10591800BA80F5F190FFF27403F0900337E0FCA32E
:10592800E0FDA3E0FEA3E0FF123D8690FFF0EEF05D
:10593800A3EFF090FF50E4F0A3F0FBFA79C87842A7
:10594800900337E0FCA3E0FDA3E0FEA3E0FF123CD8
:1059580032C004C005C006C007900335E0FCA3E0D0
:10596800FDE4123D4DD003D002D001D000123B29F6
:10597800123D8690FF52EEF0A3EFF090033BEEF05D
:10598800A3EFF090FF547408F043F52043F58053DB
:02599800BA7FD4
:01599A0022EA
:1063ED0090053EEEF0A3EFF0438E805389F09005BB
:1063FD003EE0FEA3E0FFE4FCFD7B16FAF9F8123F48
:10640D00F8EFF404F58A90053EE0FEA3E0FFE4FC0E
:10641D00FD7B16FAF9F8123FF8C3E49FFFE49EFEE8
:10642D0074019DFDE49CFC78081240558F8CC28D43
:03643D00D28C22DC
:106B1E00E5A254F34404F5A2E4F5CF75CDC075CECD
:026B2E005022F3
:03004B00026C80C4
:066C800075CDC0D2913277
:0A687900420524000042052600003D
:03000B0002512B74
:10512B00C0E0C0F0C083C082C0D075D000C000C04A
:0D513B0001C002C003C004C005C006C007CB
:1051480090048EE4F0A3124075000000009005253D
:10515800E004F07006900524E004F0900527E004D0
:10516800F07006900526E004F0900524A3E0FF12F5
:105178006A4DC3900525E094FA900524E094005008
:105188000302525812557290050D12406990050D90
:10519800E0FCA3E0FDA3E0FEA3E0FF123D86EF756F
:1051A800F00A842430FBE4FD7F031266C990050DE4
:1051B800E0FCA3E0FDA3E0FEA3E0FF123D86EF754F
:1051C800F00A84E5F02430FB7D067F031266C97B74
:1051D8002E7D0C7F031266C9E4FFFE7DC87C4290D9
:1051E800050DE0F8A3E0F9A3E0FAA3E0FB123B29E0
:1051F800123D867C007D64123F777E007F0ACFCD0A
:10520800CFCECCCE123F77EF2430FB7D127F031236
:1052180066C9E4FFFE7DC87C4290050DE0F8A3E076
:10522800F9A3E0FAA3E0FB123B29123D867C007D3E
:105238000A123F77ED2430FB7D187F031266C99070
:10524800050D12407500000000900524E4F0A3F05D
:10525800C3900527E094B8900526E0940B403512DA
:105268006280900511EFF075F00A842430FBE4FDAC
:105278007F041266C9900511E075F00A84E5F024F0
:1052880030FB7D067F041266C9900511E4F0900595
:0452980026F0A3F069
:10529C00D007D006D005D004D003D002D001D00066
:0B52AC00D0D0D082D083D0F0D0E03210
:106AB400538E7F5389F0C2B9E4F58A758C70C28D08
:076AC400D28CD2A9D2AF224F
:106B300053D1FD75D501E4F5D443D10843AF20D23C
:026B4000AF2282
:0300030002002ACE
:01002A0032A3
:096C5D00D2B2D288D2A8D2AF2233
:0300130002002EBA
:01002E00329F
:096C6600D2B3C28AD2AAD2AF2235
:0300530002002F79
:01002F00329E
:066C8600438F10D2AF2283
:03005B0002003070
:01003000329D
:066C8C00438F20D2AF226D
:0300830002003147
:01003100329C
:066C9200438F40D2AF2247
:03003300020026A2
:040026005387DF32EB
:086C78005387DFD2AED2AF2238
:106B42007D3C7C00E4FF1258AE126BD953F5DFC2D4
:026B5200862299
:106B54007D3C7C007F031258AE126C0653F5DFC2F5
:026B6400862287
:106B66007D3C7C007F031258AE126BF753F5DFC2F3
:026B7600862275
:096C6F00AD07AC067F040258AE2B
:106B78007D3C7C007F041258AE126C1553F5DFC2C1
:026B8800862263
:066C98008FAA75AB8022FB
:10665A002055534220636861726765200A002055FD
:10666A0053422063686172676520002055534220B7
:10667A00206F6666736574200A00205553422020F5
:08668A006F6666736574200061
:046883004105420A7F
:1069200053CBF143CC0E43CB0143CC01C2E9D2EAB5
:10693000D2EBE4F5B375B401C2C1D2E9126C24D232
:02694000C12272
:105A8300E49004B1F0A3F0A3F0A3F0A3F0A31240B9
:105A93007500000000E49004BAF0A3F07F041268DC
:105AA3008C9004B3EEF0A3EFF0C39004B2E09F90A8
:105AB30004B1E09E500F9004B3E0FFA3E09004B163
:105AC300CFF0A3EFF01200069004B5E004F0E0C3BA
:105AD300940A40C89004B1E0FCA3E0FDE4123D4DFC
:105AE300A804A905AA06AB077F0A7ED77DA37C4439
:105AF300123C329004B61240699004B6E0FCA3E075
:105B0300FDA3E0FEA3E0FF123D867C007D64123F0F
:105B130065AC06AD07E4123D4DC004C005C006C028
:105B230007E4FFFE7DC87C429004B6E0F8A3E0F9E9
:105B3300A3E0FAA3E0FB123B29D003D002D001D0AB
:105B430000123A34123D869004BAEEF0A3EFF090BF
:0D5B530004B6E0FCA3E0FDA3E0FEA3E0FF2C
:015B60002222
:10628000E4900493F0125A83900494124069E4FF5E
:10629000FEFDFC900494E0F8A3E0F9A3E0FAA3E08B
:1062A000FB123CCF60377FCD7ECC7D2C7CC0900430
:1062B00094E0F8A3E0F9A3E0FAA3E0FB123A38E493
:1062C000FBFA79C87842123B297BFE7AFF79BF78C6
:0F62D0003F123C32123D86900493EFF0227F0084
:0162DF00229C
:105572009004A712407500000000E49004ABF0A371
:10558200F0125A839004AD1240699004ACE0C394C7
:105592000A50247F0512688C9004ACE025E0249325
:1055A200F582E43404F583EEF0A3EFF012000690E6
:1055B20004ACE004F080D390049FE0FEA3E0FF90EF
:1055C200049AE02FFF900499E03EFE9004A6E02F9B
:1055D200FF9004A5E03EFE7C007D03123F77AD07FD
:1055E200AC06E4123D4D9004ADE0F8A3E0F9A3E06F
:1055F200FAA3E0FB123B297BE77AFB7979783F1229
:105602003B29E4FBFA79D478C3123A38E4FBFA79FD
:10561200C87840123C329004A71240699004A7E077
:10562200FCA3E0FDA3E0FEA3E0FF123D867C007D2B
:1056320064123F65AC06AD07E4123D4DC004C005DF
:10564200C006C007E4FFFE7DC87C429004A7E0F8D4
:10565200A3E0F9A3E0FAA3E0FB123B29D003D002B6
:10566200D001D000123A34123D869004ABEFF0E440
:10567200FFFE7DAA7C429004A7E0F8A3E0F9A3E034
:10568200FAA3E0FB123CCF60044002C2E99004A7F7
:0B569200E0FCA3E0FDA3E0FEA3E0FFAE
:01569D0022EA
:106800004393805394FE7BFF3087137A66795A1244
:1068100068DA7BFF7A667968125CF17F01227A661A
:1068200079751268DA7BFF7A667984125CF17F00F1
:016830002245
:10485A004E4F203A20005331203A20005332203A5A
:10486A0020005333203A20005334203A2000533595
:10487A00203A2000204D41494E204D454E55200AF0
:10488A00200020554846204D4F44452000205548D9
:10489A0046204D4F4445200A2000204254204D4FC7
:1048AA0044452000204254204D4F4445200A200010
:1048BA002054455354204D4F44452000205445531D
:1048CA0054204D4F4445200A20002042415454456B
:1048DA005254204D4F4445200020424154544552E1
:1048EA0059204D4F4445200A200020425A204D4F5E
:1048FA004445200020425A204D4F4445200A2000BA
:10490A00204F4C45445F74696D696E672073657406
:10491A002000204F4C45445F74696D696E672073AF
:10492A006574200A2000204F4C45445F425A207388
:10493A0065742000204F4C45445F425A20736574C9
:10494A00200A2000202153797374656D5F506F77B8
:10495A0065725F5663635F4F4E5F4F4646200A207B
:10496A00002055313420706F77657220676F6F644D
:10497A0020002055313420706F77657220676F6F81
:10498A0064200A20002055313420706F7765722028
:10499A004E47204F4350204F545020002055313469
:1049AA0020706F776572204E47204F4350204F5436
:1049BA0050200A2000204E205653454C200020212A
:1049CA005653454C200A2000204E204259502000C0
:1049DA002021425950200A20002042415454455275
:1049EA0059A1A14D4F444520494E2000204241542F
:1049FA0054455259A1A14D4F444520494E200A2001
:104A0A000020425A204D4F444520494E2000204262
:104A1A005A204D4F444520494E200A2000204F4C31
:104A2A004544206765742072656164696E67207405
:104A3A00696D696E672000204F4C45445F74696D4B
:104A4A00696E67206765742072656164696E6720A4
:104A5A0074696D696E67200A2000204F4C45442016
:104A6A006765742077726974696E672074696D6905
:104A7A006E672000204F4C45445F74696D696E670C
:104A8A00206765742077726974696E672074696D2E
:104A9A00696E67200A2000204F4C45445F74696D97
:104AAA00696E672073657420494E2000204F4C457B
:104ABA00445F74696D696E672073657420494E207E
:104ACA000A2000204F4C45445F425A20757020004E
:104ADA00204F4C45445F425A207570200A2000201E
:104AEA004F4C45445F425A20646F776E2000204F36
:104AFA004C45445F425A20646F776E200A2000209A
:104B0A004F4C45445F425A2073657420494E200039
:104B1A00204F4C45445F425A2073657420494E2009
:104B2A000A2000204E4F54205345542000204E4F57
:094B3A005420534554200A2000C8
:046887004105430084
:105E5D00E4900332F0A3F0A3F07F03126A8690035F
:105E6D0032EFF0C394CD40037F0022126BD97F0334
:105E7D00126A86900333EFF0126BD97F03126A8694
:105E8D00900334EFF0900333E02FFFE433C313EFAF
:105E9D0013900332F0126BD97F03126A86EFD394FD
:105EAD00CD4002800A7F03126A86126A4D80E69009
:105EBD000332E0C394125006126B427F012290030D
:105ECD0032E0C3943B5006126B427F0222900332A4
:105EDD00E0C394695006126B427F0322900332E0B7
:105EED00C3949B5006126B427F0422900332E0C391
:0C5EFD0094CD5006126B427F05227F00FE
:015F09002275
:104F8E00E4900537F0A3F0A3F07F03126A86900534
:104F9E0037EFF0C394CD4030126BD97BFF7A48794E
:104FAE005A1268B67FFF126A4D900537E0FF126AFB
:104FBE004D7BFF7A48795A1268DA900537E0FF1276
:104FCE006A4D53F5DF7F0022126C157F03126A863D
:104FDE00900538EFF0126BD97F03126A869005396F
:104FEE00EFF0900538E02FFFE433C313EF13900575
:104FFE0037F0C3941250337BFF7A4879601268B64B
:10500E007FFF126A4D900537E0FF126A4D7BFF7AE3
:10501E004879601268DA900537E0FF126A4D7D3CE0
:10502E007C007F011258AE7F0122900537E0C394B9
:10503E003B50337BFF7A4879661268B67FFF126A5F
:10504E004D900537E0FF126A4D7BFF7A487960126A
:10505E0068DA900537E0FF126A4D7D3C7C007F02D6
:10506E001258AE7F0222900537E0C3946950337B0D
:10507E00FF7A48796C1268B67FFF126A4D90053739
:10508E00E0FF126A4D7BFF7A48796C1268DA900560
:10509E0037E0FF126A4D7D3C7C007F031258AE7FD5
:1050AE000322900537E0C3949B50337BFF7A4879F7
:1050BE00721268B67FFF126A4D900537E0FF126AD2
:1050CE004D7BFF7A48796C1268DA900537E0FF1253
:1050DE006A4D7D3C7C007F041258AE7F0422900501
:1050EE0037E0C394CD50337BFF7A4879781268B697
:1050FE007FFF126A4D900537E0FF126A4D7BFF7AF3
:10510E0048796C1268DA900537E0FF126A4D7D3CE3
:0C511E007C00E4FF1258AE7F05227F00E9
:01512A002262
:10419A00900540E4F0A3EFF0900543E01240A641F9
:1041AA00D100420705423B06427B0742C00A43054B
:1041BA000B434A0C438C0D43D70F447814448D1992
:1041CA0044E51E00004539900540E0FEA3E0FFEEFD
:1041DA007016EF24FE700302454E14700302454E1A
:1041EA0024FE60028002806C1266227BFF7A367996
:1041FA007112621C7BFF7A48797E02454B9005401A
:10420A00E0FEA3E0FFEE7014EF24FD600D24FE70C3
:10421A000302454E24037004807780301266227BA5
:10422A00FF7A48798C12454F7BFF7A487997024585
:10423A004B900540E0FEA3E0FFEE7020EF24FD6006
:10424A001324FE700302454E240370109005437434
:10425A00070243B790054374050243B71266227BEF
:10426A00FF7A4879A412454F7BFF7A4879AE024516
:10427A004B900540E0FEA3E0FFEE7025EF24FD60C1
:10428A001024FE6014240370189005437405024339
:10429A00B790054374060243B7900543740A024374
:1042AA00B71266227BFF7A4879BA12454F7BFF7AAA
:1042BA004879C602454B900540E0FEA3E0FFEE7048
:1042CA0025EF24FD601024FE601424037018900565
:1042DA0043740B0243B7900543740D0243B790052C
:1042EA0043740F0243B71266227BFF7A4879D412CD
:1042FA00454F7BFF7A4879E302454B900540E0FE43
:10430A00A3E0FFEE7025EF24FD601024FE60142464
:10431A00037018900543740C0243B7900543740A5E
:10432A000243B790054374140243B71266227BFF17
:10433A007A4879F412454F7BFF7A4879FE02454B59
:10434A00900540E0FEA3E0FFEE7022EF24FD600F2F
:10435A0024FE601224037015900543740D804E905C
:10436A000543740B804790054374198040126622F6
:10437A007BFF7A49790A12454F7BFF7A49791C02F9
:10438A00454B900540E0FEA3E0FFEE702BEF24FDC5
:10439A00600F24FE60122403701E900543740A8085
:1043AA000C900543740C8005900543741EF0E4904C
