:03000000024AE7CA
:0C4AE700787FE4F6D8FD758141024B2E6B
:104EC500E490069DF012518512526E7F0912550627
:104ED500D2C9438702C2C912491E90069DEFF060F0
:104EE500EF1460EC24FD6002800F900714E070025F
:104EF50080DEE4900714F0800490069DE0FF123CEC
:034F05002B80CD31
:0900360012543E12543EC2842211
:054B73009006FCEFF0CC
:104B7800E4A3F0A3F012540F7F011254B07FFC128B
:104B880054B07F011254B07F011254B09006FCE07B
:104B9800FF1254B012542F9002F4E070037FFF22EA
:104BA8009002F4E0FF9006FDE0FCA3E0FDC39F74D3
:104BB80080F8EC648098501F74E02DF58274023CF4
:104BC800F583E0FF1254A79006FEE004F070D19040
:104BD80006FDE004F080C99002E2E0B401037F0121
:034BE800227FFF2A
:014BEB0022A7
:10502F0012540F7F011254B07FFC1254B07F021242
:10503F0054B0E4FF1254B012542F9002F4E0640500
:10504F0060037FFF229002E3E0B40104A3E0FF229C
:03505F007FFF22AE
:0C0006007F547EF77D18DDFEDEFCDFFA83
:0100120022CB
:0E542F0000007F027EAF7D4BDDFEDEFCDFFA6B
:01543D00224C
:0E543E0000007F0D7E9C7D53DDFEDEFCDFFA5C
:01544C00223D
:0E544D0000007F017ED87D23DDFEDEFCDFFA4D
:01545B00222E
:0E545C0000007F2B7E067DCBDDFEDEFCDFFA3E
:01546A00221F
:0E546B0000007FFD7E237DDCDDFEDEFCDFFA2F
:015479002210
:0E547A0000007F117ED07D1BDDFEDEFCDFFA20
:015488002201
:0E54890000007F057E347DC3DDFEDEFCDFFA11
:0154970022F2
:040026007F0EDFFE6C
:01002A0022B3
:0E54980000007F097E687D8BDDFEDEFCDFFA02
:0154A60022E3
:104125004E4F5420205265616420434D440A0020BF
:10413500696E64795F7265616474656D702073740E
:10414500617274200D0A0020696E64795F72656181
:104155006474656D7020656E64200D0A0024034942
:10416500006D00700069006E006A00530065007202
:1041750000690061006C004E0075006D0030003173
:10418500004003BFFCBFFCBFFC0000010012002182
:104195000000001000000000000000050000000005
:1041A50000000006000000000000001000000000F4
:1041B500000000110088E1F3C000000000F00006D7
:1041C50002000001001200210000000200A000A072
:1041D50002000000030000000000000200A000A093
:1041E500020000611B02060000000005000000003F
:1041F50000000002070100000000000500000000AB
:1042050000000004070000000000000507D00700BB
:104215000000000607DC0000000000070700200082
:10422500000000120BFFFF0F00000005000000005A
:10423500000000000500000000000000050000006F
:10424500000000000600000000000000050000005E
:10425500000000000500000000000000060000004E
:104265000000010000000200000027000000872E6A
:104275000D0001000100020000008F2E0D0000005E
:10428500000000000500000000000000060000001E
:02429500000027
:08369300410665FF41066600D7
:0B4C4D007B027F047A00E4FDFC7E0A7D
:104C58009006D8EEF0A3EFF0A3ECF0A3EDF0A3EAF2
:104C6800F0A3EBF07F011254A7E4FF1254A79006BB
:104C7800D8A3E0FF1254A79006D8E0FF1254A790DB
:104C880006DCA3E0FF1254A79006DCE0FF1254A74D
:104C98009006DAA3E0FF1254A79006DAE0FF025468
:014CA800A764
:104FC20090070BEEF0A3EFF0E4FF1254A7E4FF12F8
:104FD20054A790070BA3E0FF1254A790070BE0FF22
:104FE2001254A7E4FF1254A7E4FF1254A7E4FF12DD
:074FF20054A7E4FF0254A7DD
:1043CB00E4FF900645E0900668F0E4900667F090F5
:1043DB000667E0FEFD3395E0FC74462DF58274060E
:1043EB003CF583E0FDEEFB3395E0FA74692BF58227
:1043FB0074063AF583EDF0900667E004F0E0B40C38
:10440B00CEE4900667F0900667E0FEFD3395E0FC86
:10441B0074522DF58274063CF583E0FDEEFB33956B
:10442B00E0FA74752BF58274063AF583EDF090067D
:10443B0067E004F0E0B402CE900667740FF09006CC
:10444B0067E0FEC3648094A0501AEEFD3395E0FC48
:10445B0074682DF58274063CF583E4F0900667E0F2
:10446B0004F080DAE4900667F0900667E0FEC36420
:10447B008094A0501BEEFD3395E0FC74682DF58203
:10448B0074063CF583E02FFF900667E004F080D9BB
:10449B00EF900687F0E4900667F0900667E0FFC3A5
:1044AB00648094A0501CEF3395E0FE74682FF58266
:1044BB0074063EF583E0FF1254B0900667E004F0FB
:0244CB0080D897
:0144CD0022CC
:104CA900E4900645F0FFEFFD3395E0FC74462DF5E1
:104CB9008274063CF583E4F00FEFB40CE9E4FFEFEE
:104CC900FD3395E0FC74522DF58274063CF583E4BE
:104CD900F00FEFB402E9E4FFC3EF6480948050154C
:104CE900EFFD3395E0FC74542DF58274063CF58391
:0A4CF900E4F00F80E3E4900664F09D
:014D0300228D
:1039940090068A7401F0E4A3F0A3F074FFA3F0A3EB
:1039A400F0E4A3F0A3F0A3F0A3F0A3F0A3F0A3F03A
:1039B400A3F0A3F0A3F0A3F0A37412F0E4A3F0C265
:1039C40008C209A3F090068FE0FEA3E024F7F58275
:1039D40074023EF583E064016003023C2A90068F82
:1039E400A3E0FF24F8F58274023EF583E090069C80
:1039F400F074FA2FF58274023EF583E0FE90068F90
:103A0400E0FCA3E0FD24F9F58274023CF583E07A3E
:103A1400002400FFEA3E90068DF0A3EFF074FC2D25
:103A2400F58274023CF583E0FE90068FA3E024FB4C
:103A3400F58274023CF583E02400FFEA3E90068B95
:103A4400F0A3EFF0ED2408FFE43C900691F0FCA312
:103A5400EFF0FD90068BE0FAA3E0FBAE027802C320
:103A640033CE33CED8F92DFFEE3C900693F0A3EF7E
:103A7400F0EB2402FFE43AFEEF7802C333CE33CEF8
:103A8400D8F9FF900690E02FF090068FE03EF0907A
:103A9400068DE07004A3E064057061900692E02452
:103AA4000EFE900691E03400900695F0A3CEF0E46B
:103AB400900688F0A3F0900688E0FEA3E0FF90064D
:103AC40096E02FFD900695E03EFC74F72DF5827488
:103AD400023CF583E0FD74462FF582E43406F58359
:103AE400EDF0900689E004F07006900688E004F09A
:103AF400900688E07004A3E0640C70BA90068DE030
:103B04007004A3E0640660030239C990069CE06077
:103B140003023C2A900691E0FEA3E0FF24FBF58219
:103B240074023EF583E064C26003023C1EEF240C81
:103B3400FFE43E900697F0A3EFF0900645E024FEE4
:103B4400605C147003023BF124026003023C14E441
:103B5400900688F0A3F0900688E0FEA3E0FF9006AC
:103B640098E02FFD900697E03EFC74F72DF58274E3
:103B7400023CF583E0FD74522FF582E43406F583AC
:103B8400EDF0900689E004F07006900688E004F0F9
:103B9400900688E07004A3E0640270BA8069E4903F
:103BA4000688F0A3F0900688E0FEA3E0FF90069854
:103BB400E02FFD900697E03EFC74F72DF582740229
:103BC4003CF583E0FD74522FF582E43406F583ED71
:103BD400F0900689E004F07006900688E004F09006
:103BE4000688E07004A3E0640270BA801AE49006C8
:103BF40052F0900697E0FEA3E024F8F58274023EAA
:103C0400F583E0900653F0900666E004F00239C9AB
:103C1400E4900665F0A3F00239C97BFF7A41792567
:063C24001250950239C99F
:013C2A002277
:104E3A00E490070DF0A3F0FBFAFDFC7F027E0A1254
:104E4A004C587B0C7F03124C51124C4DE4FBFAFD7B
:104E5A00FC7F067E0A124C587B107A00E4FDFCFFA8
:104E6A007EF0124C581200069002F7E0B40107C215
:064E7A00AC123994D2AC29
:014E8000220F
:104D5700E490070FF0A3F0FBFAFDFC7F027E0A1236
:104D67004C587B0D7A00E4FDFC7F037E0A124C58F9
:104D7700124C4DE4FBFAFDFC7F067E0A124C587B71
:104D8700087A00E4FDFCFF7EF0124C5812000690F2
:0D4D970002F7E0B40107C2AC123994D2ACAF
:014DA40022EC
:1047A500E49006F4F0A3F07BFF7A4179341250953A
:1047B500E4FBFAFDFC7F027E0A124C587B0E7A0060
:1047C500E4FDFC7F037E0A124C58124C4DE4FBFAC3
:1047D500FDFC7F067E0A124C587B077A00E4FDFC3F
:1047E500FF7EF0124C5812534D1200069004EBA3B5
:1047F500E0FF1254B09004EBE0FFA3E09006F4CF85
:10480500F0A3EFF07F551254B09006F4A3E0FF1229
:1048150054B0E49006F6F0A3F09006F4E0FEA3E0B1
:10482500FFA3E0FCA3E0FDC39FEE6480F8EC648089
:1048350098501F74F72DF58274023CF583E0FF1242
:1048450054B09006F7E004F070069006F6E004F028
:1048550080C79002F7E0B40107C2AC123994D2AC1C
:094865007BFF7A41794C02509569
:104F0800E4FF9002E0E060379002F4E0C3940850B8
:104F180003E4FE22E4FEEEFD3395E0FC74E02DF59B
:104F28008274023CF583E02FFF0EEEB407E890028E
:104F3800E7E0B507057E007F012212540F8000E4E8
:024F4800FEFF6A
:014F4A002244
:10009600EF14B4220040030223349000AE75F0033F
:1000A600A4C58325F0C5837302011402011D020154
:1000B6002602012802012A0203A102012D02013BA8
:1000C600020149020157020165020173020187021A
:1000D600019B0201AF0201EB0201FF020263020271
:1000E6007702028B02029F0202B30202C702233486
:1000F60002030302033F0203A102035302038E021B
:1001060003A10203B40203CC0203A10203F47FC0DD
:100116001254A77F0680337F401254A77F03802A9C
:10012600802F800302033FE4FF1254A7E4FF12541A
:10013600A77F108058E4FF1254A7E4FF1254A77F4C
:1001460011804AE4FF1254A7E4FF1254A7E4FF808B
:100156003CE4FF1254A7E4FF1254A77F01802EE46B
:10016600FF1254A7E4FF1254A77F028020E4FF1277
:1001760054A7E4FF1254A7E4FF1254A77F03020317
:10018600DDE4FF1254A7E4FF1254A77F021254A71E
:10019600E4FF0203DDE4FF1254A7E4FF1254A77F35
:1001A600611254A77F1B0203DD7F011254A7E4FFEF
:1001B6001254A77F011254A77F071254A7E4FF1217
:1001C60054A7E4FF1254A7E4FF1254A7E4FF125405
:1001D600A7E4FF1254A7E4FF1254A77F051254A701
:1001E600E4FF0203DDE4FF1254A7E4FF1254A77FE5
:1001F600021254A77F070203DD7F011254A7E4FF12
:100206001254A77F021254A77F071254A77F011228
:1002160054A7E4FF1254A7E4FF1254A7E4FF1254B4
:10022600A77F011254A7E4FF1254A77F011254A717
:100236007F071254A7E4FF1254A7E4FF1254A7E461
:10024600FF1254A7E4FF1254A7E4FF1254A7E4FFD9
:100256001254A77F051254A7E4FF0203DDE4FF1240
:1002660054A7E4FF1254A77F041254A77F07020382
:10027600DDE4FF1254A7E4FF1254A77F051254A72A
:100286007F070203DDE4FF1254A7E4FF1254A77FA1
:10029600061254A77F070203DDE4FF1254A7E4FF0A
:1002A6001254A77F071254A77F070203DDE4FF124B
:1002B60054A7E4FF1254A77F121254A77F0B020320
:1002C600DD7F011254A7E4FF1254A77F011254A741
:1002D6007F071254A7E4FF1254A7E4FF1254A7E4C1
:1002E600FF1254A7E4FF1254A7E4FF1254A7E4FF39
:1002F6001254A77F051254A7E4FF0203DD7F011203
:1003060054A7E4FF1254A77F0A1254A77F01125480
:10031600A77FF81254A77F591254A77F0D1254A72E
:10032600E4FF1254A7E4FF1254A7E4FF1254A77F78
:10033600051254A7E4FF0203DDE4FF1254A7E4FF0D
:100346001254A77F051254A7E4FF0203DD7F0112B2
:1003560054A7E4FF1254A77F081254A77F01125432
:10036600A77F011254A77F011254A7E4FF1254A7D6
:10037600E4FF1254A7E4FF1254A7E4FF1254A77F28
:10038600051254A7E4FF804FE4FF1254A7E4FF12BE
:1003960054A77F051254A7E4FF803CE4FF1254A73C
:1003A600E4FF1254A77F061254A7E4FF80297F01B9
:1003B6001254A7E4FF1254A7E4FF1254A77FF012C9
:1003C60054A77F278016E4FF1254A7E4FF1254A710
:1003D6007F051254A7E4FF1254A7E4FF1254A7E4C2
:1003E600FF1254A7E4FF1254A7E4FF0223317F0152
:1003F6001254A7E4FF1254A77F011254A77F0C12D0
:1004060054A7E4FF1254A7E4FF1254A7E4FF1254C2
:10041600A7E4FF1254A77F011254A7E4FF1254A7C2
:100426007F021254A77F0C1254A77F011254A7E42F
:10043600FF1254A7E4FF1254A7E4FF1254A77F014A
:100446001254A7E4FF1254A77F031254A77F0C127D
:1004560054A77F701254A77F0D1254A77F18125409
:10046600A7E4FF1254A77F011254A7E4FF1254A772
:100476007F041254A77F0C1254A7E4FF1254A77FDF
:10048600011254A77F071254A77F141254A77F01A5
:100496001254A7E4FF1254A77F011254A77F0C122F
:1004A60054A77F011254A7E4FF1254A7E4FF125485
:1004B600A7E4FF1254A77F011254A7E4FF1254A722
:1004C6007F021254A77F0C1254A77F011254A7E48F
:1004D600FF1254A7E4FF1254A7E4FF1254A77F01AA
:1004E6001254A7E4FF1254A77F031254A77F0C12DD
:1004F60054A77F841254A77F0D1254A77F18125455
:10050600A7E4FF1254A77F011254A7E4FF1254A7D1
:100516007F041254A77F0C1254A7E4FF1254A77F3E
:10052600011254A77F071254A77F141254A77F0104
:100536001254A7E4FF1254A77F011254A77F0C128E
:1005460054A77F021254A7E4FF1254A7E4FF1254E3
:10055600A7E4FF1254A77F011254A7E4FF1254A781
:100566007F021254A77F0C1254A77F011254A7E4EE
:10057600FF1254A7E4FF1254A7E4FF1254A77F0109
:100586001254A7E4FF1254A77F031254A77F0C123C
:1005960054A77F981254A77F0D1254A77F181254A0
:1005A600A7E4FF1254A77F011254A7E4FF1254A731
:1005B6007F041254A77F0C1254A7E4FF1254A77F9E
:1005C600011254A77F071254A77F141254A77F0164
:1005D6001254A7E4FF1254A77F011254A77F0C12EE
:1005E60054A77F031254A7E4FF1254A7E4FF125442
:1005F600A7E4FF1254A77F011254A7E4FF1254A7E1
:100606007F021254A77F0C1254A77F011254A7E44D
:10061600FF1254A7E4FF1254A7E4FF1254A77F0168
:100626001254A7E4FF1254A77F031254A77F0C129B
:1006360054A77FAC1254A77F0D1254A77F181254EB
:10064600A7E4FF1254A77F011254A7E4FF1254A790
:100656007F041254A77F0C1254A7E4FF1254A77FFD
:10066600011254A77F071254A77F141254A77F01C3
:100676001254A7E4FF1254A77F011254A77F0C124D
:1006860054A77F041254A7E4FF1254A7E4FF1254A0
:10069600A7E4FF1254A77F011254A7E4FF1254A740
:1006A6007F021254A77F0C1254A77F011254A7E4AD
:1006B600FF1254A7E4FF1254A7E4FF1254A77F01C8
:1006C6001254A7E4FF1254A77F031254A77F0C12FB
:1006D60054A77FC01254A77F0D1254A77F18125437
:1006E600A7E4FF1254A77F011254A7E4FF1254A7F0
:1006F6007F041254A77F0C1254A7E4FF1254A77F5D
:10070600011254A77F071254A77F141254A77F0122
:100716001254A7E4FF1254A77F011254A77F0C12AC
:1007260054A77F051254A7E4FF1254A7E4FF1254FE
:10073600A7E4FF1254A77F011254A7E4FF1254A79F
:100746007F021254A77F0C1254A77F011254A7E40C
:10075600FF1254A7E4FF1254A7E4FF1254A77F0127
:100766001254A7E4FF1254A77F031254A77F0C125A
:1007760054A77FD41254A77F0D1254A77F18125482
:10078600A7E4FF1254A77F011254A7E4FF1254A74F
:100796007F041254A77F0C1254A7E4FF1254A77FBC
:1007A600011254A77F071254A77F141254A77F0182
:1007B6001254A7E4FF1254A77F011254A77F0C120C
:1007C60054A77F061254A7E4FF1254A7E4FF12545D
:1007D600A7E4FF1254A77F011254A7E4FF1254A7FF
:1007E6007F021254A77F0C1254A77F011254A7E46C
:1007F600FF1254A7E4FF1254A7E4FF1254A77F0187
:100806001254A7E4FF1254A77F031254A77F0C12B9
:1008160054A77FE81254A77F0D1254A77F181254CD
:10082600A7E4FF1254A77F011254A7E4FF1254A7AE
:100836007F041254A77F0C1254A7E4FF1254A77F1B
:10084600011254A77F071254A77F141254A77F01E1
:100856001254A7E4FF1254A77F011254A77F0C126B
:1008660054A77F071254A7E4FF1254A7E4FF1254BB
:10087600A7E4FF1254A77F011254A7E4FF1254A75E
:100886007F021254A77F0C1254A77F011254A7E4CB
:10089600FF1254A7E4FF1254A7E4FF1254A77F01E6
:1008A6001254A7E4FF1254A77F031254A77F0C1219
:1008B60054A77FFC1254A77F0D1254A77F18125419
:1008C600A7E4FF1254A77F011254A7E4FF1254A70E
:1008D6007F041254A77F0C1254A7E4FF1254A77F7B
:1008E600011254A77F071254A77F141254A77F0141
:1008F6001254A7E4FF1254A77F011254A77F0C12CB
:1009060054A77F081254A7E4FF1254A7E4FF125419
:10091600A7E4FF1254A77F011254A7E4FF1254A7BD
:100926007F021254A77F0C1254A77F011254A7E42A
:10093600FF1254A7E4FF1254A7E4FF1254A77F0145
:100946001254A7E4FF1254A77F031254A77F0C1278
:1009560054A77F101254A77F0E1254A77F18125463
:10096600A7E4FF1254A77F011254A7E4FF1254A76D
:100976007F041254A77F0C1254A7E4FF1254A77FDA
:10098600011254A77F071254A77F141254A77F01A0
:100996001254A7E4FF1254A77F011254A77F0C122A
:1009A60054A77F091254A7E4FF1254A7E4FF125478
:1009B600A7E4FF1254A77F011254A7E4FF1254A71D
:1009C6007F021254A77F0C1254A77F011254A7E48A
:1009D600FF1254A7E4FF1254A7E4FF1254A77F01A5
:1009E6001254A7E4FF1254A77F031254A77F0C12D8
:1009F60054A77F241254A77F0E1254A77F181254AF
:100A0600A7E4FF1254A77F011254A7E4FF1254A7CC
:100A16007F041254A77F0C1254A7E4FF1254A77F39
:100A2600011254A77F071254A77F141254A77F01FF
:100A36001254A7E4FF1254A77F011254A77F0C1289
:100A460054A77F0A1254A7E4FF1254A7E4FF1254D6
:100A5600A7E4FF1254A77F011254A7E4FF1254A77C
:100A66007F021254A77F0C1254A77F011254A7E4E9
:100A7600FF1254A7E4FF1254A7E4FF1254A77F0104
:100A86001254A7E4FF1254A77F031254A77F0C1237
:100A960054A77F381254A77F0E1254A77F181254FA
:100AA600A7E4FF1254A77F011254A7E4FF1254A72C
:100AB6007F041254A77F0C1254A7E4FF1254A77F99
:100AC600011254A77F071254A77F141254A77F015F
:100AD6001254A7E4FF1254A77F011254A77F0C12E9
:100AE60054A77F0B1254A7E4FF1254A7E4FF125435
:100AF600A7E4FF1254A77F011254A7E4FF1254A7DC
:100B06007F021254A77F0C1254A77F011254A7E448
:100B1600FF1254A7E4FF1254A7E4FF1254A77F0163
:100B26001254A7E4FF1254A77F031254A77F0C1296
:100B360054A77F4C1254A77F0E1254A77F18125445
:100B4600A7E4FF1254A77F011254A7E4FF1254A78B
:100B56007F041254A77F0C1254A7E4FF1254A77FF8
:100B6600011254A77F071254A77F141254A77F01BE
:100B76001254A7E4FF1254A77F011254A77F0C1248
:100B860054A77F0C1254A7E4FF1254A7E4FF125493
:100B9600A7E4FF1254A77F011254A7E4FF1254A73B
:100BA6007F021254A77F0C1254A77F011254A7E4A8
:100BB600FF1254A7E4FF1254A7E4FF1254A77F01C3
:100BC6001254A7E4FF1254A77F031254A77F0C12F6
:100BD60054A77F601254A77F0E1254A77F18125491
:100BE600A7E4FF1254A77F011254A7E4FF1254A7EB
:100BF6007F041254A77F0C1254A7E4FF1254A77F58
:100C0600011254A77F071254A77F141254A77F011D
:100C16001254A7E4FF1254A77F011254A77F0C12A7
:100C260054A77F0D1254A7E4FF1254A7E4FF1254F1
:100C3600A7E4FF1254A77F011254A7E4FF1254A79A
:100C46007F021254A77F0C1254A7E4FF1254A7E4A4
:100C5600FF1254A7E4FF1254A7E4FF1254A77F0122
:100C66001254A7E4FF1254A77F031254A77F0C1255
:100C760054A77F601254A77F0E1254A77F181254F0
:100C8600A7E4FF1254A77F011254A7E4FF1254A74A
:100C96007F041254A77F0C1254A7E4FF1254A77FB7
:100CA600011254A77F071254A77F141254A77F017D
:100CB6001254A7E4FF1254A77F011254A77F0C1207
:100CC60054A77F0E1254A7E4FF1254A7E4FF125450
:100CD600A7E4FF1254A77F011254A7E4FF1254A7FA
:100CE6007F021254A77F0C1254A7E4FF1254A7E404
:100CF600FF1254A7E4FF1254A7E4FF1254A77F0182
:100D06001254A7E4FF1254A77F031254A77F0C12B4
:100D160054A77F601254A77F0E1254A77F1812544F
:100D2600A7E4FF1254A77F011254A7E4FF1254A7A9
:100D36007F041254A77F0C1254A7E4FF1254A77F16
:100D4600011254A77F071254A77F141254A77F01DC
:100D56001254A7E4FF1254A77F011254A77F0C1266
:100D660054A77F0F1254A7E4FF1254A7E4FF1254AE
:100D7600A7E4FF1254A77F011254A7E4FF1254A759
:100D86007F021254A77F0C1254A7E4FF1254A7E463
:100D9600FF1254A7E4FF1254A7E4FF1254A77F01E1
:100DA6001254A7E4FF1254A77F031254A77F0C1214
:100DB60054A77F601254A77F0E1254A77F181254AF
:100DC600A7E4FF1254A77F011254A7E4FF1254A709
:100DD6007F041254A77F0C1254A7E4FF1254A77F76
:100DE600011254A77F071254A77F141254A77F013C
:100DF6001254A7E4FF1254A77F011254A77F0C12C6
:100E060054A77F101254A7E4FF1254A7E4FF12540C
:100E1600A7E4FF1254A77F011254A7E4FF1254A7B8
:100E26007F021254A77F0C1254A7E4FF1254A7E4C2
:100E3600FF1254A7E4FF1254A7E4FF1254A77F0140
:100E46001254A7E4FF1254A77F031254A77F0C1273
:100E560054A77F601254A77F0E1254A77F1812540E
:100E6600A7E4FF1254A77F011254A7E4FF1254A768
:100E76007F041254A77F0C1254A7E4FF1254A77FD5
:100E8600011254A77F071254A77F141254A77F019B
:100E96001254A7E4FF1254A77F011254A77F0C1225
:100EA60054A77F111254A7E4FF1254A7E4FF12546B
:100EB600A7E4FF1254A77F011254A7E4FF1254A718
:100EC6007F021254A77F0C1254A7E4FF1254A7E422
:100ED600FF1254A7E4FF1254A7E4FF1254A77F01A0
:100EE6001254A7E4FF1254A77F031254A77F0C12D3
:100EF60054A77F601254A77F0E1254A77F1812546E
:100F0600A7E4FF1254A77F011254A7E4FF1254A7C7
:100F16007F041254A77F0C1254A7E4FF1254A77F34
:100F2600011254A77F071254A77F141254A77F01FA
:100F36001254A7E4FF1254A77F011254A77F0C1284
:100F460054A77F121254A7E4FF1254A7E4FF1254C9
:100F5600A7E4FF1254A77F011254A7E4FF1254A777
:100F66007F021254A77F0C1254A7E4FF1254A7E481
:100F7600FF1254A7E4FF1254A7E4FF1254A77F01FF
:100F86001254A7E4FF1254A77F031254A77F0C1232
:100F960054A77F601254A77F0E1254A77F181254CD
:100FA600A7E4FF1254A77F011254A7E4FF1254A727
:100FB6007F041254A77F0C1254A7E4FF1254A77F94
:100FC600011254A77F071254A77F141254A77F015A
:100FD6001254A7E4FF1254A77F011254A77F0C12E4
:100FE60054A77F131254A7E4FF1254A7E4FF125428
:100FF600A7E4FF1254A77F011254A7E4FF1254A7D7
:101006007F021254A77F0C1254A7E4FF1254A7E4E0
:10101600FF1254A7E4FF1254A7E4FF1254A77F015E
:101026001254A7E4FF1254A77F031254A77F0C1291
:1010360054A77F601254A77F0E1254A77F1812542C
:10104600A7E4FF1254A77F011254A7E4FF1254A786
:101056007F041254A77F0C1254A7E4FF1254A77FF3
:10106600011254A77F071254A77F141254A77F01B9
:101076001254A7E4FF1254A77F011254A77F0C1243
:1010860054A77F141254A7E4FF1254A7E4FF125486
:10109600A7E4FF1254A77F011254A7E4FF1254A736
:1010A6007F021254A77F0C1254A7E4FF1254A7E440
:1010B600FF1254A7E4FF1254A7E4FF1254A77F01BE
:1010C6001254A7E4FF1254A77F031254A77F0C12F1
:1010D60054A77F601254A77F0E1254A77F1812548C
:1010E600A7E4FF1254A77F011254A7E4FF1254A7E6
:1010F6007F041254A77F0C1254A7E4FF1254A77F53
:10110600011254A77F071254A77F141254A77F0118
:101116001254A7E4FF1254A77F011254A77F0C12A2
:1011260054A77F151254A7E4FF1254A7E4FF1254E4
:10113600A7E4FF1254A77F011254A7E4FF1254A795
:101146007F021254A77F0C1254A7E4FF1254A7E49F
:10115600FF1254A7E4FF1254A7E4FF1254A77F011D
:101166001254A7E4FF1254A77F031254A77F0C1250
:1011760054A77F601254A77F0E1254A77F181254EB
:10118600A7E4FF1254A77F011254A7E4FF1254A745
:101196007F041254A77F0C1254A7E4FF1254A77FB2
:1011A600011254A77F071254A77F141254A77F0178
:1011B6001254A7E4FF1254A77F011254A77F0C1202
:1011C60054A77F161254A7E4FF1254A7E4FF125443
:1011D600A7E4FF1254A77F011254A7E4FF1254A7F5
:1011E6007F021254A77F0C1254A7E4FF1254A7E4FF
:1011F600FF1254A7E4FF1254A7E4FF1254A77F017D
:101206001254A7E4FF1254A77F031254A77F0C12AF
:1012160054A77F601254A77F0E1254A77F1812544A
:10122600A7E4FF1254A77F011254A7E4FF1254A7A4
:101236007F041254A77F0C1254A7E4FF1254A77F11
:10124600011254A77F071254A77F141254A77F01D7
:101256001254A7E4FF1254A77F011254A77F0C1261
:1012660054A77F171254A7E4FF1254A7E4FF1254A1
:10127600A7E4FF1254A77F011254A7E4FF1254A754
:101286007F021254A77F0C1254A7E4FF1254A7E45E
:10129600FF1254A7E4FF1254A7E4FF1254A77F01DC
:1012A6001254A7E4FF1254A77F031254A77F0C120F
:1012B60054A77F601254A77F0E1254A77F181254AA
:1012C600A7E4FF1254A77F011254A7E4FF1254A704
:1012D6007F041254A77F0C1254A7E4FF1254A77F71
:1012E600011254A77F071254A77F141254A77F0137
:1012F6001254A7E4FF1254A77F011254A77F0C12C1
:1013060054A77F181254A7E4FF1254A7E4FF1254FF
:10131600A7E4FF1254A77F011254A7E4FF1254A7B3
:101326007F021254A77F0C1254A7E4FF1254A7E4BD
:10133600FF1254A7E4FF1254A7E4FF1254A77F013B
:101346001254A7E4FF1254A77F031254A77F0C126E
:1013560054A77F601254A77F0E1254A77F18125409
:10136600A7E4FF1254A77F011254A7E4FF1254A763
:101376007F041254A77F0C1254A7E4FF1254A77FD0
:10138600011254A77F071254A77F141254A77F0196
:101396001254A7E4FF1254A77F011254A77F0C1220
:1013A60054A77F191254A7E4FF1254A7E4FF12545E
:1013B600A7E4FF1254A77F011254A7E4FF1254A713
:1013C6007F021254A77F0C1254A7E4FF1254A7E41D
:1013D600FF1254A7E4FF1254A7E4FF1254A77F019B
:1013E6001254A7E4FF1254A77F031254A77F0C12CE
:1013F60054A77F601254A77F0E1254A77F18125469
:10140600A7E4FF1254A77F011254A7E4FF1254A7C2
:101416007F041254A77F0C1254A7E4FF1254A77F2F
:10142600011254A77F071254A77F141254A77F01F5
:101436001254A7E4FF1254A77F011254A77F0C127F
:1014460054A77F1A1254A7E4FF1254A7E4FF1254BC
:10145600A7E4FF1254A77F011254A7E4FF1254A772
:101466007F021254A77F0C1254A7E4FF1254A7E47C
:10147600FF1254A7E4FF1254A7E4FF1254A77F01FA
:101486001254A7E4FF1254A77F031254A77F0C122D
:1014960054A77F601254A77F0E1254A77F181254C8
:1014A600A7E4FF1254A77F011254A7E4FF1254A722
:1014B6007F041254A77F0C1254A7E4FF1254A77F8F
:1014C600011254A77F071254A77F141254A77F0155
:1014D6001254A7E4FF1254A77F011254A77F0C12DF
:1014E60054A77F1B1254A7E4FF1254A7E4FF12541B
:1014F600A7E4FF1254A77F011254A7E4FF1254A7D2
:101506007F021254A77F0C1254A7E4FF1254A7E4DB
:10151600FF1254A7E4FF1254A7E4FF1254A77F0159
:101526001254A7E4FF1254A77F031254A77F0C128C
:1015360054A77F601254A77F0E1254A77F18125427
:10154600A7E4FF1254A77F011254A7E4FF1254A781
:101556007F041254A77F0C1254A7E4FF1254A77FEE
:10156600011254A77F071254A77F141254A77F01B4
:101576001254A7E4FF1254A77F011254A77F0C123E
:1015860054A77F1C1254A7E4FF1254A7E4FF125479
:10159600A7E4FF1254A77F011254A7E4FF1254A731
:1015A6007F021254A77F0C1254A7E4FF1254A7E43B
:1015B600FF1254A7E4FF1254A7E4FF1254A77F01B9
:1015C6001254A7E4FF1254A77F031254A77F0C12EC
:1015D60054A77F601254A77F0E1254A77F18125487
:1015E600A7E4FF1254A77F011254A7E4FF1254A7E1
:1015F6007F041254A77F0C1254A7E4FF1254A77F4E
:10160600011254A77F071254A77F141254A77F0113
:101616001254A7E4FF1254A77F011254A77F0C129D
:1016260054A77F1D1254A7E4FF1254A7E4FF1254D7
:10163600A7E4FF1254A77F011254A7E4FF1254A790
:101646007F021254A77F0C1254A7E4FF1254A7E49A
:10165600FF1254A7E4FF1254A7E4FF1254A77F0118
:101666001254A7E4FF1254A77F031254A77F0C124B
:1016760054A77F601254A77F0E1254A77F181254E6
:10168600A7E4FF1254A77F011254A7E4FF1254A740
:101696007F041254A77F0C1254A7E4FF1254A77FAD
:1016A600011254A77F071254A77F141254A77F0173
:1016B6001254A7E4FF1254A77F011254A77F0C12FD
:1016C60054A77F1E1254A7E4FF1254A7E4FF125436
:1016D600A7E4FF1254A77F011254A7E4FF1254A7F0
:1016E6007F021254A77F0C1254A7E4FF1254A7E4FA
:1016F600FF1254A7E4FF1254A7E4FF1254A77F0178
:101706001254A7E4FF1254A77F031254A77F0C12AA
:1017160054A77F601254A77F0E1254A77F18125445
:10172600A7E4FF1254A77F011254A7E4FF1254A79F
:101736007F041254A77F0C1254A7E4FF1254A77F0C
:10174600011254A77F071254A77F141254A77F01D2
:101756001254A7E4FF1254A77F011254A77F0C125C
:1017660054A77F1F1254A7E4FF1254A7E4FF125494
:10177600A7E4FF1254A77F011254A7E4FF1254A74F
:101786007F021254A77F0C1254A7E4FF1254A7E459
:10179600FF1254A7E4FF1254A7E4FF1254A77F01D7
:1017A6001254A7E4FF1254A77F031254A77F0C120A
:1017B60054A77F601254A77F0E1254A77F181254A5
:1017C600A7E4FF1254A77F011254A7E4FF1254A7FF
:1017D6007F041254A77F0C1254A7E4FF1254A77F6C
:1017E600011254A77F071254A77F141254A77F0132
:1017F6001254A7E4FF1254A77F011254A77F0C12BC
:1018060054A77F201254A7E4FF1254A7E4FF1254F2
:10181600A7E4FF1254A77F011254A7E4FF1254A7AE
:101826007F021254A77F0C1254A7E4FF1254A7E4B8
:10183600FF1254A7E4FF1254A7E4FF1254A77F0136
:101846001254A7E4FF1254A77F031254A77F0C1269
:1018560054A77F601254A77F0E1254A77F18125404
:10186600A7E4FF1254A77F011254A7E4FF1254A75E
:101876007F041254A77F0C1254A7E4FF1254A77FCB
:10188600011254A77F071254A77F141254A77F0191
:101896001254A7E4FF1254A77F011254A77F0C121B
:1018A60054A77F211254A7E4FF1254A7E4FF125451
:1018B600A7E4FF1254A77F011254A7E4FF1254A70E
:1018C6007F021254A77F0C1254A7E4FF1254A7E418
:1018D600FF1254A7E4FF1254A7E4FF1254A77F0196
:1018E6001254A7E4FF1254A77F031254A77F0C12C9
:1018F60054A77F601254A77F0E1254A77F18125464
:10190600A7E4FF1254A77F011254A7E4FF1254A7BD
:101916007F041254A77F0C1254A7E4FF1254A77F2A
:10192600011254A77F071254A77F141254A77F01F0
:101936001254A7E4FF1254A77F011254A77F0C127A
:1019460054A77F221254A7E4FF1254A7E4FF1254AF
:10195600A7E4FF1254A77F011254A7E4FF1254A76D
:101966007F021254A77F0C1254A7E4FF1254A7E477
:10197600FF1254A7E4FF1254A7E4FF1254A77F01F5
:101986001254A7E4FF1254A77F031254A77F0C1228
:1019960054A77F601254A77F0E1254A77F181254C3
:1019A600A7E4FF1254A77F011254A7E4FF1254A71D
:1019B6007F041254A77F0C1254A7E4FF1254A77F8A
:1019C600011254A77F071254A77F141254A77F0150
:1019D6001254A7E4FF1254A77F011254A77F0C12DA
:1019E60054A77F231254A7E4FF1254A7E4FF12540E
:1019F600A7E4FF1254A77F011254A7E4FF1254A7CD
:101A06007F021254A77F0C1254A7E4FF1254A7E4D6
:101A1600FF1254A7E4FF1254A7E4FF1254A77F0154
:101A26001254A7E4FF1254A77F031254A77F0C1287
:101A360054A77F601254A77F0E1254A77F18125422
:101A4600A7E4FF1254A77F011254A7E4FF1254A77C
:101A56007F041254A77F0C1254A7E4FF1254A77FE9
:101A6600011254A77F071254A77F141254A77F01AF
:101A76001254A7E4FF1254A77F011254A77F0C1239
:101A860054A77F241254A7E4FF1254A7E4FF12546C
:101A9600A7E4FF1254A77F011254A7E4FF1254A72C
:101AA6007F021254A77F0C1254A7E4FF1254A7E436
:101AB600FF1254A7E4FF1254A7E4FF1254A77F01B4
:101AC6001254A7E4FF1254A77F031254A77F0C12E7
:101AD60054A77F601254A77F0E1254A77F18125482
:101AE600A7E4FF1254A77F011254A7E4FF1254A7DC
:101AF6007F041254A77F0C1254A7E4FF1254A77F49
:101B0600011254A77F071254A77F141254A77F010E
:101B16001254A7E4FF1254A77F011254A77F0C1298
:101B260054A77F251254A7E4FF1254A7E4FF1254CA
:101B3600A7E4FF1254A77F011254A7E4FF1254A78B
:101B46007F021254A77F0C1254A7E4FF1254A7E495
:101B5600FF1254A7E4FF1254A7E4FF1254A77F0113
:101B66001254A7E4FF1254A77F031254A77F0C1246
:101B760054A77F601254A77F0E1254A77F181254E1
:101B8600A7E4FF1254A77F011254A7E4FF1254A73B
:101B96007F041254A77F0C1254A7E4FF1254A77FA8
:101BA600011254A77F071254A77F141254A77F016E
:101BB6001254A7E4FF1254A77F011254A77F0C12F8
:101BC60054A77F261254A7E4FF1254A7E4FF125429
:101BD600A7E4FF1254A77F011254A7E4FF1254A7EB
:101BE6007F021254A77F0C1254A7E4FF1254A7E4F5
:101BF600FF1254A7E4FF1254A7E4FF1254A77F0173
:101C06001254A7E4FF1254A77F031254A77F0C12A5
:101C160054A77F601254A77F0E1254A77F18125440
:101C2600A7E4FF1254A77F011254A7E4FF1254A79A
:101C36007F041254A77F0C1254A7E4FF1254A77F07
:101C4600011254A77F071254A77F141254A77F01CD
:101C56001254A7E4FF1254A77F011254A77F0C1257
:101C660054A77F271254A7E4FF1254A7E4FF125487
:101C7600A7E4FF1254A77F011254A7E4FF1254A74A
:101C86007F021254A77F0C1254A7E4FF1254A7E454
:101C9600FF1254A7E4FF1254A7E4FF1254A77F01D2
:101CA6001254A7E4FF1254A77F031254A77F0C1205
:101CB60054A77F601254A77F0E1254A77F181254A0
:101CC600A7E4FF1254A77F011254A7E4FF1254A7FA
:101CD6007F041254A77F0C1254A7E4FF1254A77F67
:101CE600011254A77F071254A77F141254A77F012D
:101CF6001254A7E4FF1254A77F011254A77F0C12B7
:101D060054A77F281254A7E4FF1254A7E4FF1254E5
:101D1600A7E4FF1254A77F011254A7E4FF1254A7A9
:101D26007F021254A77F0C1254A7E4FF1254A7E4B3
:101D3600FF1254A7E4FF1254A7E4FF1254A77F0131
:101D46001254A7E4FF1254A77F031254A77F0C1264
:101D560054A77F601254A77F0E1254A77F181254FF
:101D6600A7E4FF1254A77F011254A7E4FF1254A759
:101D76007F041254A77F0C1254A7E4FF1254A77FC6
:101D8600011254A77F071254A77F141254A77F018C
:101D96001254A7E4FF1254A77F011254A77F0C1216
:101DA60054A77F291254A7E4FF1254A7E4FF125444
:101DB600A7E4FF1254A77F011254A7E4FF1254A709
:101DC6007F021254A77F0C1254A7E4FF1254A7E413
:101DD600FF1254A7E4FF1254A7E4FF1254A77F0191
:101DE6001254A7E4FF1254A77F031254A77F0C12C4
:101DF60054A77F601254A77F0E1254A77F1812545F
:101E0600A7E4FF1254A77F011254A7E4FF1254A7B8
:101E16007F041254A77F0C1254A7E4FF1254A77F25
:101E2600011254A77F071254A77F141254A77F01EB
:101E36001254A7E4FF1254A77F011254A77F0C1275
:101E460054A77F2A1254A7E4FF1254A7E4FF1254A2
:101E5600A7E4FF1254A77F011254A7E4FF1254A768
:101E66007F021254A77F0C1254A7E4FF1254A7E472
:101E7600FF1254A7E4FF1254A7E4FF1254A77F01F0
:101E86001254A7E4FF1254A77F031254A77F0C1223
:101E960054A77F601254A77F0E1254A77F181254BE
:101EA600A7E4FF1254A77F011254A7E4FF1254A718
:101EB6007F041254A77F0C1254A7E4FF1254A77F85
:101EC600011254A77F071254A77F141254A77F014B
:101ED6001254A7E4FF1254A77F011254A77F0C12D5
:101EE60054A77F2B1254A7E4FF1254A7E4FF125401
:101EF600A7E4FF1254A77F011254A7E4FF1254A7C8
:101F06007F021254A77F0C1254A7E4FF1254A7E4D1
:101F1600FF1254A7E4FF1254A7E4FF1254A77F014F
:101F26001254A7E4FF1254A77F031254A77F0C1282
:101F360054A77F601254A77F0E1254A77F1812541D
:101F4600A7E4FF1254A77F011254A7E4FF1254A777
:101F56007F041254A77F0C1254A7E4FF1254A77FE4
:101F6600011254A77F071254A77F141254A77F01AA
:101F76001254A7E4FF1254A77F011254A77F0C1234
:101F860054A77F2C1254A7E4FF1254A7E4FF12545F
:101F9600A7E4FF1254A77F011254A7E4FF1254A727
:101FA6007F021254A77F0C1254A7E4FF1254A7E431
:101FB600FF1254A7E4FF1254A7E4FF1254A77F01AF
:101FC6001254A7E4FF1254A77F031254A77F0C12E2
:101FD60054A77F601254A77F0E1254A77F1812547D
:101FE600A7E4FF1254A77F011254A7E4FF1254A7D7
:101FF6007F041254A77F0C1254A7E4FF1254A77F44
:10200600011254A77F071254A77F141254A77F0109
:102016001254A7E4FF1254A77F011254A77F0C1293
:1020260054A77F2D1254A7E4FF1254A7E4FF1254BD
:10203600A7E4FF1254A77F011254A7E4FF1254A786
:102046007F021254A77F0C1254A7E4FF1254A7E490
:10205600FF1254A7E4FF1254A7E4FF1254A77F010E
:102066001254A7E4FF1254A77F031254A77F0C1241
:1020760054A77F601254A77F0E1254A77F181254DC
:10208600A7E4FF1254A77F011254A7E4FF1254A736
:102096007F041254A77F0C1254A7E4FF1254A77FA3
:1020A600011254A77F071254A77F141254A77F0169
:1020B6001254A7E4FF1254A77F011254A77F0C12F3
:1020C60054A77F2E1254A7E4FF1254A7E4FF12541C
:1020D600A7E4FF1254A77F011254A7E4FF1254A7E6
:1020E6007F021254A77F0C1254A7E4FF1254A7E4F0
:1020F600FF1254A7E4FF1254A7E4FF1254A77F016E
:102106001254A7E4FF1254A77F031254A77F0C12A0
:1021160054A77F601254A77F0E1254A77F1812543B
:10212600A7E4FF1254A77F011254A7E4FF1254A795
:102136007F041254A77F0C1254A7E4FF1254A77F02
:10214600011254A77F071254A77F141254A77F01C8
:102156001254A7E4FF1254A77F011254A77F0C1252
:1021660054A77F2F1254A7E4FF1254A7E4FF12547A
:10217600A7E4FF1254A77F011254A7E4FF1254A745
:102186007F021254A77F0C1254A7E4FF1254A7E44F
:10219600FF1254A7E4FF1254A7E4FF1254A77F01CD
:1021A6001254A7E4FF1254A77F031254A77F0C1200
:1021B60054A77F601254A77F0E1254A77F1812549B
:1021C600A7E4FF1254A77F011254A7E4FF1254A7F5
:1021D6007F041254A77F0C1254A7E4FF1254A77F62
:1021E600011254A77F071254A77F141254A77F0128
:1021F6001254A7E4FF1254A77F011254A77F0C12B2
:1022060054A77F301254A7E4FF1254A7E4FF1254D8
:10221600A7E4FF1254A77F011254A7E4FF1254A7A4
:102226007F021254A77F0C1254A7E4FF1254A7E4AE
:10223600FF1254A7E4FF1254A7E4FF1254A77F012C
:102246001254A7E4FF1254A77F031254A77F0C125F
:1022560054A77F601254A77F0E1254A77F181254FA
:10226600A7E4FF1254A77F011254A7E4FF1254A754
:102276007F041254A77F0C1254A7E4FF1254A77FC1
:10228600011254A77F071254A77F141254A77F0187
:102296001254A7E4FF1254A77F011254A77F0C1211
:1022A60054A77F311254A7E4FF1254A7E4FF125437
:1022B600A7E4FF1254A77F011254A7E4FF1254A704
:1022C6007F021254A77F0C1254A7E4FF1254A7E40E
:1022D600FF1254A7E4FF1254A7E4FF1254A77F018C
:1022E6001254A7E4FF1254A77F031254A77F0C12BF
:1022F60054A77F601254A77F0E1254A77F1812545A
:10230600A7E4FF1254A77F011254A7E4FF1254A7B3
:102316007F041254A77F0C1254A7E4FF1254A77F20
:0F232600011254A77F071254A77F141254A72245
:052335009004EDEFF043
:10233A009004EF7424F078F07C047D017BFF7A41ED
:10234A0079627E00FF1234839005147408F07815C0
:10235A007C057D017BFF7A4179867E00FF123483FA
:10236A0090051D7408F0781E7C057D017BFF7A417B
:10237A00798E7E00FF1234839005267408F0782740
:10238A007C057D017BFF7A4179967E00FF123483BA
:10239A0090052F7408F078307C057D017BFF7A4127
:1023AA00799E7E00FF1234839005387408F07839DC
:1023BA007C057D017BFF7A4179A67E00FF1234837A
:1023CA009005417408F078427C057D017BFF7A41D3
:1023DA0079AE7E00FF12348390054A7408F0784B78
:1023EA007C057D017BFF7A4179B67E00FF1234833A
:1023FA009005537408F078547C057D017BFF7A417F
:10240A0079BE7E00FF12348390055C7408F0785D13
:10241A007C057D017BFF7A4179C67E00FF123483F9
:10242A009005657408F078667C057D017BFF7A412A
:10243A0079CE7E00FF12348390056E7408F0786FAF
:10244A007C057D017BFF7A4179D67E00FF123483B9
:10245A009005777408F078787C057D017BFF7A41D6
:10246A0079DE7E00FF1234839005807408F078814B
:10247A007C057D017BFF7A4179E67E00FF12348379
:10248A009005897408F0788A7C057D017BFF7A4182
:10249A0079EE7E00FF1234839005927408F07893E7
:1024AA007C057D017BFF7A4179F67E00FF12348339
:1024BA0090059B7408F0789C7C057D017BFF7A412E
:1024CA0079FE7E00FF1234839005A47408F078A583
:1024DA007C057D017BFF7A4279067E00FF123483F8
:1024EA009005AD7408F078AE7C057D017BFF7A42D9
:1024FA00790E7E00FF1234839005B67408F078B71F
:10250A007C057D017BFF7A4279167E00FF123483B7
:10251A009005BF7408F078C07C057D017BFF7A4284
:10252A00791E7E00FF1234839005C87408F078C9BA
:10253A007C057D017BFF7A4279267E00FF12348377
:10254A009005D17408F078D27C057D017BFF7A4230
:10255A00792E7E00FF123483E49005DAF078DB7C72
:10256A00057D017BFF7A427936FE7F011234839022
:10257A0005DC7408F078DD7C057D017BFF7A427901
:10258A00377E00FF1234839005E57408F078E67C04
:10259A00057D017BFF7A42793F7E00FF12348390EA
:1025AA0005EE7408F078EF7C057D017BFF7A4279AD
:1025BA00477E00FF1234839005F77408F078F87CA0
:1025CA00057D017BFF7A42794F7E00FF12348390AA
:1025DA0006007408F078017C067D017BFF7A427957
:1025EA00577E00FF1234839006097408F0780A7C3B
:1025FA00067D017BFF7A42795F7E00FF1234839069
:10260A0006127420F078137C067D017BFF7A4279EA
:10261A00677E00FF1234839006337408F078347CA6
:10262A00067D017BFF7A4279877E00FF1234839010
:10263A00063C7408F0783D7C067D017BFF7A42797E
:10264A008F7E00FF1234839004EDE014B421004021
:10265A000302305090266C75F003A4C58325F0C59B
:10266A0083730226CF02271D02276B0227B902288D
:10267A00070228550228A30228F102293F02298DC0
:10268A000229DB022A29022A77022AC5022B13020F
:10269A002B61022BAF022C0A022C58022CA6022C08
:1026AA00A9022CF7022D45022D93022DE1022E2FAD
:1026BA00022E7D022ECB022F19022F67022CA602B0
:1026CA002FB5023002E49004EEF09004EFE0FF90A0
:1026DA0004EEE0FEC3EF6480F8EE648098400302E3
:1026EA003053E0FFFD3395E0FC74F02DF58274045D
:1026FA003CF583E0FEEF3395E0FC74F72DF5827428
:10270A00023CF583E06E6003022C4D9004EEE00477
:10271A00F080B7E49004EEF0900514E0FF9004EE28
:10272A00E0FEC3EF6480F8EE648098400302305301
:10273A00E0FFFD3395E0FC74152DF58274053CF538
:10274A0083E0FEEF3395E0FC74F72DF58274023CCA
:10275A00F583E06E6003022C4D9004EEE004F080F5
:10276A00B7E49004EEF090051DE0FF9004EEE0FE61
:10277A00C3EF6480F8EE6480984003023053E0FFB0
:10278A00FD3395E0FC741E2DF58274053CF583E05B
:10279A00FEEF3395E0FC74F72DF58274023CF58365
:1027AA00E06E6003022C4D9004EEE004F080B7E482
:1027BA009004EEF0900526E0FF9004EEE0FEC3EFF1
:1027CA006480F8EE6480984003023053E0FFFD33E2
:1027DA0095E0FC74272DF58274053CF583E0FEEF45
:1027EA003395E0FC74F72DF58274023CF583E06EB4
:1027FA006003022C4D9004EEE004F080B7E49004EC
:10280A00EEF090052FE0FF9004EEE0FEC3EF648047
:10281A00F8EE6480984003023053E0FFFD3395E000
:10282A00FC74302DF58274053CF583E0FEEF339598
:10283A00E0FC74F72DF58274023CF583E06E6003C8
:10284A00022C4D9004EEE004F080B7E49004EEF020
:10285A00900538E0FF9004EEE0FEC3EF6480F8EEE6
:10286A006480984003023053E0FFFD3395E0FC7426
:10287A00392DF58274053CF583E0FEEF3395E0FCD3
:10288A0074F72DF58274023CF583E06E6003022C26
:10289A004D9004EEE004F080B7E49004EEF0900569
:1028AA0041E0FF9004EEE0FEC3EF6480F8EE64803E
:1028BA00984003023053E0FFFD3395E0FC74422D4B
:1028CA00F58274053CF583E0FEEF3395E0FC74F77E
:1028DA002DF58274023CF583E06E6003022C4D9064
:1028EA0004EEE004F080B7E49004EEF090054AE0CC
:1028FA00FF9004EEE0FEC3EF6480F8EE6480984037
:10290A0003023053E0FFFD3395E0FC744B2DF58252
:10291A0074053CF583E0FEEF3395E0FC74F72DF582
:10292A008274023CF583E06E6003022C4D9004EE43
:10293A00E004F080B7E49004EEF0900553E0FF90D5
:10294A0004EEE0FEC3EF6480F8EE64809840030270
:10295A003053E0FFFD3395E0FC74542DF582740585
:10296A003CF583E0FEEF3395E0FC74F72DF58274B5
:10297A00023CF583E06E6003022C4D9004EEE00405
:10298A00F080B7E49004EEF090055CE0FF9004EE6E
:10299A00E0FEC3EF6480F8EE64809840030230538F
:1029AA00E0FFFD3395E0FC745D2DF58274053CF57E
:1029BA0083E0FEEF3395E0FC74F72DF58274023C58
:1029CA00F583E06E6003022C4D9004EEE004F08083
:1029DA00B7E49004EEF0900565E0FF9004EEE0FEA7
:1029EA00C3EF6480F8EE6480984003023053E0FF3E
:1029FA00FD3395E0FC74662DF58274053CF583E0A1
:102A0A00FEEF3395E0FC74F72DF58274023CF583F2
:102A1A00E06E6003022C4D9004EEE004F080B7E40F
:102A2A009004EEF090056EE0FF9004EEE0FEC3EF36
:102A3A006480F8EE6480984003023053E0FFFD336F
:102A4A0095E0FC746F2DF58274053CF583E0FEEF8A
:102A5A003395E0FC74F72DF58274023CF583E06E41
:102A6A006003022C4D9004EEE004F080B7E4900479
:102A7A00EEF0900577E0FF9004EEE0FEC3EF64808D
:102A8A00F8EE6480984003023053E0FFFD3395E08E
:102A9A00FC74782DF58274053CF583E0FEEF3395DE
:102AAA00E0FC74F72DF58274023CF583E06E600356
:102ABA00022C4D9004EEE004F080B7E49004EEF0AE
:102ACA00900580E0FF9004EEE0FEC3EF6480F8EE2C
:102ADA006480984003023053E0FFFD3395E0FC74B4
:102AEA00812DF58274053CF583E0FEEF3395E0FC19
:102AFA0074F72DF58274023CF583E06E6003022CB4
:102B0A004D9004EEE004F080B7E49004EEF09005F6
:102B1A0089E0FF9004EEE0FEC3EF6480F8EE648083
:102B2A00984003023053E0FFFD3395E0FC748A2D90
:102B3A00F58274053CF583E0FEEF3395E0FC74F70B
:102B4A002DF58274023CF583E06E6003022C4D90F1
:102B5A0004EEE004F080B7E49004EEF0900592E011
:102B6A00FF9004EEE0FEC3EF6480F8EE64809840C4
:102B7A0003023053E0FFFD3395E0FC74932DF58298
:102B8A0074053CF583E0FEEF3395E0FC74F72DF510
:102B9A008274023CF583E06E6003022C4D9004EED1
:102BAA00E004F080B7E49004EEF090059BE0FF901B
:102BBA0004EEE0FEC3EF6480F8EE648098400302FE
:102BCA003053E0FFFD3395E0FC749C2DF5827405CB
:102BDA003CF583E0FEEF3395E0FC74F72DF5827443
:102BEA00023CF583E06E60107FBB1254B09004EE95
:102BFA00E0FF1254B00230429004EEE004F080AAE2
:102C0A00E49004EEF09005A4E0FF9004EEE0FEC329
:102C1A00EF6480F8EE6480984003023053E0FFFDD1
:102C2A003395E0FC74A52DF58274053CF583E0FE2E
:102C3A00EF3395E0FC74F72DF58274023CF583E0DE
:102C4A006E60030230429004EEE004F080B7E49034
:102C5A0004EEF09005ADE0FF9004EEE0FEC3EF64F1
:102C6A0080F8EE6480984003023053E0FFFD33950C
:102C7A00E0FC74AE2DF58274053CF583E0FEEF337B
:102C8A0095E0FC74F72DF58274023CF583E06E60E2
:102C9A00030230429004EEE004F080B77F0022E4A1
:102CAA009004EEF09005BFE0FF9004EEE0FEC3EF63
:102CBA006480F8EE6480984003023053E0FFFD33ED
:102CCA0095E0FC74C02DF58274053CF583E0FEEFB7
:102CDA003395E0FC74F72DF58274023CF583E06EBF
:102CEA0060030230429004EEE004F080B7E49004FE
:102CFA00EEF09005C8E0FF9004EEE0FEC3EF6480BA
:102D0A00F8EE6480984003023053E0FFFD3395E00B
:102D1A00FC74C92DF58274053CF583E0FEEF33950A
:102D2A00E0FC74F72DF58274023CF583E06E6003D3
:102D3A000230429004EEE004F080B7E49004EEF032
:102D4A009005D1E0FF9004EEE0FEC3EF6480F8EE58
:102D5A006480984003023053E0FFFD3395E0FC7431
:102D6A00D22DF58274053CF583E0FEEF3395E0FC45
:102D7A0074F72DF58274023CF583E06E600302302D
:102D8A00429004EEE004F080B7E49004EEF090057F
:102D9A00DAE0FF9004EEE0FEC3EF6480F8EE6480B0
:102DAA00984003023053E0FFFD3395E0FC74DB2DBD
:102DBA00F58274053CF583E0FEEF3395E0FC74F789
:102DCA002DF58274023CF583E06E60030230429076
:102DDA0004EEE004F080B7E49004EEF09005DCE045
:102DEA00FF9004EEE0FEC3EF6480F8EE6480984042
:102DFA0003023053E0FFFD3395E0FC74DD2DF582CC
:102E0A0074053CF583E0FEEF3395E0FC74F72DF58D
:102E1A008274023CF583E06E60030230429004EE55
:102E2A00E004F080B7E49004EEF09005E5E0FF904E
:102E3A0004EEE0FEC3EF6480F8EE6480984003027B
:102E4A003053E0FFFD3395E0FC74E62DF5827405FE
:102E5A003CF583E0FEEF3395E0FC74F72DF58274C0
:102E6A00023CF583E06E60030230429004EEE00417
:102E7A00F080B7E49004EEF09005EEE0FF9004EEE7
:102E8A00E0FEC3EF6480F8EE64809840030230539A
:102E9A00E0FFFD3395E0FC74EF2DF58274053CF5F7
:102EAA0083E0FEEF3395E0FC74F72DF58274023C63
:102EBA00F583E06E60030230429004EEE004F08095
:102ECA00B7E49004EEF09005F7E0FF9004EEE0FE20
:102EDA00C3EF6480F8EE6480984003023053E0FF49
:102EEA00FD3395E0FC74F82DF58274053CF583E01A
:102EFA00FEEF3395E0FC74F72DF58274023CF583FE
:102F0A00E06E60030230429004EEE004F080B7E421
:102F1A009004EEF0900600E0FF9004EEE0FEC3EFAE
:102F2A006480F8EE6480984003023053E0FFFD337A
:102F3A0095E0FC74012DF58274063CF583E0FEEF02
:102F4A003395E0FC74F72DF58274023CF583E06E4C
:102F5A0060030230429004EEE004F080B7E490048B
:102F6A00EEF0900609E0FF9004EEE0FEC3EF648005
:102F7A00F8EE6480984003023053E0FFFD3395E099
:102F8A00FC740A2DF58274063CF583E0FEEF339556
:102F9A00E0FC74F72DF58274023CF583E06E600361
:102FAA000230429004EEE004F080B7E49004EEF0C0
:102FBA00900633E0FF9004EEE0FEC3EF6480F8EE83
:102FCA006480984003023053E0FFFD3395E0FC74BF
:102FDA00342DF58274063CF583E0FEEF3395E0FC70
:102FEA0074F72DF58274023CF583E06E6002804826
:102FFA009004EEE004F080B8E49004EEF090063C11
:10300A00E0FF9004EEE0FEC3EF6480F8EE6480987F
:10301A005037E0FFFD3395E0FC743D2DF5827406D0
:10302A003CF583E0FEEF3395E0FC74F72DF58274EE
:10303A00023CF583E06E60069004EDE0FF22900406
:0B304A00EEE004F080B77F00227F0062
:013055002258
:10369B0061E00100000000000000000000000000DD
:1036AB00000000000000000000000000000000000F
:1036BB0000000000000000000000000000000000FF
:1036CB000000000000002214FF5522000800080033
:1036DB00082214081422080008000800007F3C0789
:1036EB003C7F007F44442C370000000000000000AA
:1036FB000000000000000000000806403100007FC1
:10370B0049494949497F00000000003F2424243FD8
:10371B00A464243F242424200000000000000000A7
:10372B00000000000000000080000000000000000E
:10373B00000000000000000000000000008000807E
:10374B00008000808E8A8E000001020202010000C0
:10375B0000000000000000000020207E80027E425E
:10376B00427E427E42427E0200020CF1012132AACD
:10377B00A4A4A4AA320101010000000000C3C300ED
:10378B000000000101010101010000010101010123
:10379B000100000000030300000000010101010112
:1037AB00010000000000000000FC0202028C00007F
:1037BB0000000000000000000020203F202000003F
:1037CB00203F202020100F00000000060600000004
:1037DB0000000000000000000000000000000000DE
:1037EB0000000000000000000000000000000000CE
:1037FB0000000000000000000000000000000000BE
:10380B0000000000000000000000000000000000AD
:10381B000000000000000000000808F80808000085
:10382B0008F808080810E000000000181800000055
:10383B00000808080808080000080808080808001D
:10384B00000808080808080000080808080808000D
:10385B0000080808080808000008080808080800FD
:10386B0000080808080808000008080808080800ED
:10387B00000000006100000000070810100807009E
:10388B0000F008040408F000000008081F00000006
:10389B0000000404FC040400000E101010100F00B4
:1038AB00000C142444840C00000C101010110E009A
:1038BB000018048484443800000001020C1F00002F
:1038CB000060A02424FC2424001F111111101000EF
:1038DB000098040404887000000708111109000007
:1038EB0000F088040404F8000018101011161800DA
:1038FB000000007C80000000000E111010110E0063
:10390B000038448484443800000F1010100807005E
:10391B00008048444488F0000000031C07000000AE
:10392B00043CC44040E41C04101F1111110E000094
:10393B0004FC040404887000030C101010101C000D
:10394B00E018040404081000101F101010080700E2
:10395B0004FC04040408F000101F111117100800D8
:10396B0004FC0404C4041800101F111117100800E4
:08397B0004FC0400C000000080
:10521300EF339284EFA2E69283A2E59282A2E49214
:1052230081A2E39280A2E292C6A2E192C51392FF09
:015233002258
:10512E00C454F02400F582E43400F583E5822EF5B4
:08513E0082E43583F583E0FFF4
:10514600D2A5D2A4C2A3C2A600001252130000D256
:05515600A600D2A32217
:0E51AC001251BA7F221251BA7F021251BA0F6D
:1051BA00D2A5C2A4C2A3C2A600001252130000D2F2
:0551CA00A600D2A322A3
:104A5400E4F595759601F5B375B401C2C112549885
:104A6400D2C1120026007FAE1251BA7FD51251BABC
:104A74007F801251BA007FA81251BA7F271251BA0F
:104A8400007FD31251BAE4FF1251BA007F40125191
:104A9400BA7F8D1251BA7F141251BA7FA11251BA42
:104AA4007FC81251BA007FDA1251BA7F121251BA7A
:104AB400007F811251BA7FAF1251BA007FD91251CF
:104AC400BA7F251251BA007FDB1251BA7F201251EE
:104AD400BA007FA41251BA007FA61251BA007FAF68
:034AE4000251BAC2
:1052BD007FAE1251BA007F8D1251BA7F101251BAC2
:0952CD0000125498C2E902548950
:10538D007FAE1251BA007F8D1251BA7F101251BAF1
:04539D0000C2E9223F
:10536300D2E91254987F8D1251BA7F141251BA00A8
:055373007FAF0251BAFA
:0E49BF009006C7EBF0A3EAF0A3E9F0A3EDF039
:1049CD00E49006CEF0A3F0FEFD7F201251BAE4FF75
:1049DD001251BA7F211251BA9006CAE0FF1251BA94
:1049ED00A3E0FF1251BA7F221251BAA3E0FF125178
:1049FD00BAA3E0FF1251BA9006CCE0FD9006CDE0CF
:104A0D00FFEDD39F50409006CAE0FE9006CBE0FF2D
:104A1D00EED39F502E9006C7E0FBA3E0FAA3E0F97A
:104A2D009006CEE0F8A3E0F58288831234C2FF121F
:104A3D0051469006CFE004F070069006CEE004F0EB
:064A4D000E80C80D80B6CA
:014A53002240
:064297009006DE123588DE
:10429D00E4FBFA792078419006DEE0FCA3E0FDA373
:1042AD00E0FEA3E0FF1232571233329006E2EFF038
:1042BD00FCE41232FEA804A905AA06AB079006DE9F
:1042CD00E0FCA3E0FDA3E0FEA3E0FF1230591233A2
:1042DD00329006E3EFF09006DEE0FCA3E0FDA3E0F4
:1042ED00FEA3E0FF1233327C007D0A1234EFAC06E0
:1042FD00AD07E41232F9C004C005C006C007E4FFE3
:10430D00FE7D207C419006DEE0F8A3E0F9A3E0FA03
:10431D00A3E0FB12314ED003D002D001D0001230F9
:10432D0059123332AD077F201251BAE4FF1251BA40
:10433D007F211251BA7F2E1251BA7F351251ACE442
:10434D00FEEE64069006E2601AE0C454F02400F517
:10435D0082E43400F583E5822EF582E43583F5831E
:10436D00E0801AE0C454F02400F582E43400F583B3
:10437D00E5822EF582E43583F583E04401FF125189
:10438D00460EEEB410BB7F211251BA7F361251BAD0
:10439D007F3D1251ACE4FE9006E3E012512E0EEE7D
:1043AD00B410F47F211251BA7F461251BA7F4D12CB
:0D43BD0051ACE4FEED12512E0EEEB410F7DF
:0143CA0022D0
:105234007401A807088002C333D8FCF59DE4F5BDCA
:0F524400EF4488F5BC7F02125336D2ADD2AF22B1
:03002B0002486E1A
:0D486E00C0E0C0F0C083C082C0D075D0088B
:10487B009006A9E4F0A3F0FFFEA3F0A3F0C2ADF500
:10488B00BC12544D7F0312531F9006A9E4F0A3EF03
:10489B00F012544D7F0312531F7E009006A9E0FCCB
:1048AB00A3E0FDD39FEC9E401DED9FFBEC9EFAC356
:1048BB00EB9423EA9400504EED2FFFEE3CC313FE16
:1048CB00EF13FFA38030C3ED9FEC9E502C9006A9F5
:1048DB00E0FCA3E0FDC3EF9DFDEE9CFCC3ED942338
:1048EB00EC94005021E02FFF9006A9E03EC313FE8D
:1048FB00EF13FF9006ABEE80099006A9E0FFA3E053
:08490B00A3CFF0A3EFF0D2AD41
:0B491300D0D0D082D083D0F0D0E032B2
:10531F00E4F5BDEF4488F5BC00000000E5BC30E4C7
:07532F00FB75BC00AFBD22BD
:1051CF00AC07E41232FE9006EBE0F8A3E0F9A3E09F
:1051DF00FAA3E0FB12314EE4FBFA798078431232E6
:0251EF00572245
:10515B00E4FDFCF5BDF5BEEF4488F5BC0000000096
:10516B00E5BC30E4FB75BC00AFBDEF75F004A4FDEE
:09517B00ACF0AFBEED4FAE04FF35
:015184002208
:10005E00AD07AC06E41232F99006E6E0F8A3E0F93B
:10006E00A3E0FAA3E0FB12314EE4FBFA7980784468
:04007E0012325722C1
:10533600AE071FEE60107C137D88ED1DAA04700178
:065346001C4A60EC80F43B
:01534C00223E
:0C3983004102F4004102F5004102F60090
:10518500E5A2543FF5A253877F759850438E40534F
:105195008EFE53890F438920758BFA758DFAC2AB44
:0751A500D28ED2ACD2AF2282
:0954A7002000FDEFD200F599226E
:105062009006FFEBF0A3EAF0A3E9F09006FFE0FB65
:10507200A3E0FAA3E0F91234A960179006FFA3E4B3
:1050820075F001123501A9F0FA1234A9FF1254A7E2
:0350920080D922A0
:03002300024F4B3E
:104F4B00C0E0C0F0C083C082C0D075D00830981BC1
:104F5B00C2989004EBE475F001123501FE74F7254D
:104F6B00F0F58274023EF583E599F0309904C2990D
:0D4F7B00C200D0D0D082D083D0F0D0E03280
:03004300024F88E1
:104F8800C0E0C083C082C0D075D008E59A30E01771
:104F9800539AFE9002F4E0FF04F074E02FF582E4E7
:104FA8003402F583E59BF0E59A30E105539AFDC29A
:0A4FB80001D0D0D082D083D0E032C7
:0954B0002001FDEFD201F59B2261
:10509500900702EBF0A3EAF0A3E9F0900702E0FB2A
:1050A500A3E0FAA3E0F91234A96017900702A3E47C
:1050B50075F001123501A9F0FA1234A9FF1254B0A6
:0350C50080D9226D
:1052EF0053BAFE759A50438E0475D7C075D6FD43D9
:0852FF008E1075AF01D2AF2241
:10534D007E027FF49002F7E4F0A3DFFCDEFAE49036
:05535D0004EBF0A3F0D9
:015362002228
:0F540F007F649002E0E4F0A3DFFCE49002F4F08D
:01541E00226B
:1052530053BAFD75AC1043AC4043D10275D5C0754C
:0B526300D4FD43D10843AF08D2AF22B6
:03008B0002528995
:10528900C0E0E5AC30E00653ACFE85AD80E5AC305E
:0A529900E10553ACFDC202D0E03283
:0954B9002002FDEFD202F5AD2244
:1050C800900705EBF0A3EAF0A3E9F0900705E0FBF1
:1050D800A3E0FAA3E0F91234A96017900705A3E446
:1050E80075F001123501A9F0FA1234A9FF1254B96A
:0350F80080D9223A
:10526E0043BA0475841043844043D12075D3C0756E
:0B527E00D2FD43D18043AF10D2AF221D
:030093000252A373
:1052A300C0E0E58430E0065384FE858580E58430E4
:0A52B300E1055384FDC203D0E03290
:0954C2002003FDEFD203F5852261
:1050FB009006A0EBF0A3EAF0A3E9F09006A0E0FB8A
:10510B00A3E0FAA3E0F91234A960179006A0A3E478
:10511B0075F001123501A9F0FA1234A9FF1254C22D
:03512B0080D92206
:0D001600E4F5C7F5C5F5C675C380F5C42235
:1053070075C78175C5018FC4EEF5C375C65A75C6D5
:07531700A500AFC212001651
:01531E00226C
:1052D60075C78175C5028FC4EEF5C3AF058FC2755C
:0952E600C65A75C6A500020016A7
:1053780075C78175C5038FC4EEF5C375C65A75C662
:05538800A50002001663
:1046BD009006BCEEF0A3EFF09006C0EBF0A3EAF08D
:0B46CD00A3E9F09006BEECF0A3EDF0B6
:1046D800E49006C3F0A3F0FFA3F0A3F0D3ED942079
:1046E800EC94004001229006BCE0FCA3E0FDEC54F1
:1046F80001FEAF059006BFE02FFF9006BEE03EFE2C
:10470800D3EF9420EE940040037F0022AF05AE045F
:10471800125378E49006C3F0A3F09006BEE0FEA31F
:10472800E0FF9006C3E0FCA3E0FDC39FEC9E50674A
:104738009006BCE0FEA3E0FF9006C0E0FBA3E0FA11
:10474800A3E0F98D828C831234C2FD1252D69006F2
:10475800BCE0FEA3E0FF1253079006C0E0FBA3E015
:10476800FAA3E0F9A3E0FCA3E0F5828C831234C23B
:104778006F60061200167F00229006BDE004F070FC
:10478800069006BCE004F09006C4E004F0708B903C
:0C47980006C3E004F080831200167F01CD
:0147A40022F2
:103F9F009006ADEEF0A3EFF09006B1EBF0A3EAF0D0
:0B3FAF00A3E9F09006AFECF0A3EDF0EA
:103FBA00E49006B4F0A3F0A3F0A3F0A3F0A3F0A357
:103FCA00F0A3F0D3ED9420EC940040037F002290FC
:103FDA0006ADE0FCA3E0FDEC5401FEAF059006B689
:103FEA00F0A3EFF09006B0E02FFF9006AFE03EFEA0
:103FFA00D3EF9420EE940040037F0022EC54FEFE9F
:10400A007F009006B8F0A3EFF0A3EEF0A3EFF090D4
:10401A0006B4F0A3F09006BAE475F001123501AFC8
:10402A00F0FE1253079006B4A3E02422F8A607E094
:10403A0004F070069006B4E004F0C39006B5E0946C
:10404A00209006B4E0940040CCE49006B4F0A3F0CB
:10405A009006AFE0FEA3E0FF9006B4E0FCA3E0FD0B
:10406A00C39FEC9E50349006B1E0FBA3E0FAA3E0B4
:10407A00F98D828C831234C2FF9006B6E475F00182
:10408A00123501742225F0F8A6079006B5E004F06F
:10409A0070069006B4E004F080B69006B8E0FEA37D
:1040AA00E0FF1253789006B8E0FFA3E0A3CFF0A395
:1040BA00EFF0E49006B4F0A3F09006B4E0FCA3E0BD
:1040CA00FDC39420EC9400504C9006BAE0FEA3E0A5
:1040DA00FF74222DF8E6FD1252D69006ADE0FEA33B
:1040EA00E0FF1253079006B4A3E02422F8E66F60BB
:1040FA00061200167F00229006BBE004F0700690BC
:10410A0006BAE004F09006B5E004F070069006B432
:0A411A00E004F080A41200167F01FB
:014124002278
:104FF900E5A254CFF5A2E4F5D8F5E9F5F975D9029A
:10500900F5F275EA2075FA2075DA4275F34075EB09
:105019002075FB2075DB4275F48075EC2075FC204A
:0650290075DC42D2DE221C
:104DA500E4F5B4F5B343BA80F5F190FFF2F090FF66
:104DB500F07403F0A374E8F090FF20E4F0A3F0FC96
:104DC500FDFE7BE87A03F9F8123517E47B64FAF9FE
:104DD500F8124E8190FF22EEF0A3EFF0A37408F0D5
:0B4DE50043F50443F58053BA7F80FEC5
:104DF000E4F5CAF5C943BA80F5F190FFF2F090FFEF
:104E0000F07403F0A374E8F090FF30E4F0A3F0FC3A
:104E1000FDFE7BE87A03F9F8123517E47B64FAF9B2
:104E2000F8124E8190FF32EEF0A3EFF0A37408F079
:0A4E300043F50843F58053BA7F22D2
:0A45D0009006A1ECF0A3EDF0AB079C
:1045DA00A312359400000000E49006A7F0A3F0EBC4
:1045EA00146019146022146037146028240470308F
:1045FA009006A312359446900000802E9006A312CE
:10460A003594462CCC0080229006A312359445ACF2
:10461A00C80080169006A312359444ACC000800AE4
:10462A009006A3123594452CD000E4F594F59343F3
:10463A00BA80F5F190FFF27403F09006A3E0FCA3B0
:10464A00E0FDA3E0FEA3E0FF12333290FFF0EEF0AC
:10465A00A3EFF090FF50E4F0A3F0FBFA79C8784298
:10466A009006A3E0FCA3E0FDA3E0FEA3E0FF123264
:10467A0057C004C005C006C0079006A1E0FCA3E02D
:10468A00FDE41232F9D003D002D001D00012314E2B
:10469A0012333290FF52EEF0A3EFF09006A7EEF03D
:1046AA00A3EFF090FF547408F043F52043F58053CC
:0246BA00BA7FC5
:0146BC0022DB
:104D0400900711EEF0A3EFF0438E805389F09007E3
:104D140011E0FEA3E0FFE4FCFD7B16FAF9F812357E
:104D240017EFF404F58A900711E0FEA3E0FFE4FC1A
:104D3400FD7B16FAF9F8123517C3E49FFFE49EFED3
:104D440074019DFDE49CFC78081235748F8CC28D2F
:034D5400D28C22DC
:10541F00E5A254F3F5A2E4F5CF75CDC075CE5022B9
:03004B000254EE6E
:0654EE0075CDC0D2913221
:1053A100438E805389F0758A01758C01D28CD2A904
:0353B100D2AF2256
:03000300020032C6
:01003200329B
:0954CB00D2B2D288D2A8D2AF22DD
:0300130002003FA9
:01003F00328E
:0954D400D2B3C28AD2AAD2AF22DF
:0300530002004068
:01004000328D
:0654F400438F10D2AF222D
:03005B000200415F
:01004100328C
:0654FA00438F20D2AF2217
:0300830002004236
:01004200328B
:06550000438F40D2AF22F0
:0300330002002E9A
:04002E005387DF32E3
:0854E6005387DFD2AED2AF22E2
:1053C7007D3C7C00E4FF1245D012544D53F5DFC2FB
:0253D70086222C
:1053D9007D3C7C007F021245D012547A53F5DFC21E
:0253E90086221A
:1053EB007D3C7C007F031245D012546B53F5DFC21A
:0253FB00862208
:0954DD00AD07AC067F040245D0C6
:1053FD007D3C7C007F041245D012548953F5DFC2E9
:02540D008622F5
:065506008FAA75AB8022A4
:1053B400E4F5CB75CC0E43CB0143CC01C2E9D2EA70
:0353C400D2EB2207
:104BEC00E49006EFF0A3123594000000007F04124D
:104BFC00531F9006EFEFF0C0079006EB1235944070
:104C0C00866666D0071251CF9006F01235887FFF6A
:104C1C001254A79006EFE0FF1254A79006F0E0FCA8
:104C2C00A3E0FDA3E0FEA3E0FF1233321254A790E1
:104C3C0006F0E0FCA3E0FDA3E0FEA3E0FF1233329C
:014C4C002245
:1051F100E4900713F07F0512531F900713EFF07F20
:10520100FF1254A7900713E0FF1254A7900713E071
:01521100FF9D
:015212002279
:1044CE004E4F203A20005331203A20005332203AEA
:1044DE0020005333203A20005334203A2000533525
:1044EE00203A2000204D41494E204D454E55200A80
:1044FE00200020554846204D4F4445200A200020DC
:10450E004254204D4F4445200A2000205445535418
:10451E00204D4F4445200A2000204241545445521C
:10452E0059204D4F4445200A200020425A204D4F1D
:10453E004445200A2000202153797374656D5F5025
:10454E006F7765725F5663635F4F4E5F4F464620CF
:10455E000A20002055313420706F77657220676F06
:10456E006F64200A20002055313420706F776572F9
:10457E00204E47204F4350204F5450200A200020F9
:10458E00215653454C200A20002021425950200A22
:10459E0020002042415454455259A1A14D4F44454B
:1045AE0020494E200A200020425A204D4F444520DB
:1045BE00494E200A2000204E4F5420534554200AC5
:0245CE002000CB
:04398F0041071400D8
:10491E00E490069EF0A3F0A3F07F0312531F9006BF
:10492E009EEFF0C394CD40037F002212544D7F03BF
:10493E0012531F90069FEFF012544D7F0312531F18
:10494E009006A0EFF090069FE02FFFE433C313EF25
:10495E001390069EF012544D7F0312531FEFD39403
:10496E00CD40F290069EE0C3941250061253C77FBC
:10497E00012290069EE0C3943B50061253C77F025D
:10498E002290069EE0C3946950061253C77F0322FD
:10499E0090069EE0C3949B50061253C77F0422904C
:1049AE00069EE0C394CD50061253C77F05227F00AA
:0149BE0022D6
:103E0200E4900708F0A3F0A3F07F0312531F90077A
:103E120008EFF0C394CD403012544D7BFF7A4479C1
:103E2200CE1250627FFF1254A7900708E0FF12548F
:103E3200A77BFF7A4479CE1250FB900708E0FF126D
:103E420054C253F5DF7F00221254897F0312531F9D
:103E5200900709EFF012544D7F0312531F90070A87
:103E6200EFF0900709E02FFFE433C313EF1390073D
:103E720008F0C3941250337BFF7A4479D412506213
:103E82007FFF1254A7900708E0FF1254A77BFF7A26
:103E92004479D41250FB900708E0FF1254C27D3CD3
:103EA2007C007F011245D07F0122900708E0C39475
:103EB2003B50337BFF7A4479DA1250627FFF12540F
:103EC200A7900708E0FF1254A77BFF7A4479D41227
:103ED20050FB900708E0FF1254C27D3C7C007F0239
:103EE2001245D07F0222900708E0C3946950337BC9
:103EF200FF7A4479E01250627FFF1254A7900708BC
:103F0200E0FF1254A77BFF7A4479E01250FB90073E
:103F120008E0FF1254C27D3C7C007F031245D07F33
:103F22000322900708E0C3949B50337BFF7A4479C5
:103F3200E61250627FFF1254A7900708E0FF125466
:103F4200A77BFF7A4479E01250FB900708E0FF124A
:103F520054C27D3C7C007F041245D07F042290072E
:103F620008E0C394CD50337BFF7A4479EC1250625F
:103F72007FFF1254A7900708E0FF1254A77BFF7A35
:103F82004479E01250FB900708E0FF1254C27D3CD6
:0C3F92007C00E4FF1245D07F05227F0078
:013F9E002200
:103C2B0090069EE4F0A3EFF0900714E024FB6055A0
:103C3B0014607A147003023CEC24FD7003023D22E5
:103C4B00147003023D5824FC7003023D9624FB7054
:103C5B0003023DF024146003023DF890069EE0FE43
:103C6B00A3E0FFEE7016EF24FE7003023E0114700A
:103C7B0003023E0124FE6002800280547BFF7A44E3
:103C8B0079F2023DFE90069EE0FEA3E0FFEE70147B
:103C9B00EF24FD600D24FE7003023E01240370042B
:103CAB00805E80247BFF7A457900023DFE90069E64
:103CBB00E0FEA3E0FFEE7020EF24FD601324FE7006
:103CCB0003023E01240370109007147407023D8316
:103CDB009007147405023D837BFF7A45790D023DF5
:103CEB00FE90069EE0FEA3E0FFEE7022EF24FD6047
:103CFB000F24FE601224037015900714740580784E
:103D0B0090071474068071900714740A806A7BFF05
:103D1B007A457919023DFE90069EE0FEA3E0FFEE88
:103D2B007022EF24FD600F24FE60122403701590A7
:103D3B000714740B8042900714740B803B9007148C
:103D4B00740F80347BFF7A457927023DFE90069EE7
:103D5B00E0FEA3E0FFEE702BEF24FD600F24FE606E
:103D6B00122403701E900714740A800C90071474AD
:103D7B000A80059007147414F0E490069EF0A3F0EB
:103D8B00023C337BFF7A457938806890069EE0FED3
:103D9B00A3E0FFEE7047EF24FD602A24FE6032247F
:103DAB0003703A7BFF7A4579441250FBB2E930E954
:103DBB00451254987BFF30E8067A45796180347A56
:103DCB00457974802E7BFF7A45798D1250FBB2EAD0
:103DDB00227BFF7A4579971250FBB2EB227BFF7A5D
:103DEB004579A0800E7BFF7A4579B580067BFF7AFB
:063DFB004579C41250FBE3
:013E0100229E
:1030560002339EE86480F8E933E83360110460F0D7
:10306600ED33EC337009E8FCE9FDEAFEEBFF2204E0
:1030760060DED3EB9FEA9EE99DE8C2E78CF0C2F7DB
:1030860095F0400CE8CCF8E9CDF9EACEFAEBCFFBA7
:1030960012336985D0F05804700320D5B3E8047064
:1030A600075002B2D50233A892D5EC0460F7E4CCFF
:1030B600C0E0C398F8603B94186008400DD0E0FB70
:1030C600023380E4FBFAC9FC8028E830E406E4C950
:1030D600FBE4CAFCE830E305E4C9CACBFCE85407C4
:1030E6006010F8C3E913F9EA13FAEB13FBEC13FCCF
:1030F600D8F130F52FC3E49CFCEF9BFFEE9AFEED72
:1031060099FDD0E0FBEF4E4D4C701222DB030233EB
:10311600A5EC2CFCEF33FFEE33FEED33FDED30E78F
:10312600EB023380EF2BFFEE3AFEED39FDD0E0FBEC
:1031360050130BBB00030233A8ED13FDEE13FEEF95
:0831460013FFEC13FC023380BF
:10314E00EC4D6011E8497017ED33EC3304600DE47B
:10315E00FCFFFEFD22E933E8330470F802339E12C1
:10316E00336958046009E4CC2481500628500902C2
:10317E0033A82840030233A5C0E0EB4A7044B9805F
:10318E0006D0E0FB023394EF4E701CBD8008EBFFBF
:10319E00EAFEE9FD80EBE98DF0A4FEE5F0023237A0
:1031AE00E9CDF9EAFEEBFFEF89F0A4FCE5F0CE895C
:1031BE00F0A42EFFE435F0CD89F0A42DFEE435F019
:1031CE008067EF4E7005BD80D780C3EF8BF0A4AC47
:1031DE00F0EE8BF0A42CFCE435F0F8EF8AF0A42C82
:1031EE00E5F038FCE433CB8DF0A42CFCE5F03BF895
:1031FE00EE8AF0A42CFCE5F038F8E433CF89F0A485
:10320E002CFCE5F038CF3400CE89F0A42FFFE5F08A
:10321E003EFEE433C98DF0A42EFEE5F039CD8AF0E2
:10322E00A42FFFE5F03EFEE43DFD33D0E0FB50075A
:10323E000BBB000F0233A8EC2CFCEF33FFEE33FE7A
:06324E00ED33FD023380A8
:103254000233A8EC5D046005E85904700302339E50
:10326400123369580460F6EC4860F2EC7004FDFE19
:10327400FF22C860DB2481C85009C398600250064D
:103284000233A59850CAF582E9294B4A7005AB82EE
:1032940002339475F0007C1A7880C3EF9BEE9AEDAC
:1032A40099400DC3EF9BFFEE9AFEED99FDE842F0C5
:1032B400DC23ACF0D0E0FFD0E0FED0E0FDAB822018
:1032C400E7101BEB60BAEC2CFCEF33FFEE33FEEDA2
:1032D40033FD023380E803F830E705C0F075F000F1
:1032E400EF2FFFEE33FEED33FD40B830E7C280AA86
:1032F40075F020800E75F010800575F0087D007E55
:10330400007F003392D530D503123566EC3340107C
:10331400EF33FFEE33FEED33FDEC33FCD5F0ED225D
:0E332400E5F0247EA2D513CC92E7CDCEFF2299
:10333200EDD2E7CD33EC3392D524814006E4FFFE93
:10334200FDFC22FCE4CFCECDCC24E0501174FF80F2
:10335200EDC3CC13CCCD13CDCE13CECF13CF04708F
:07336200F030D5DE023566F4
:10336900E9D2E7C933E833F892D5EDD2E7CD33ECAA
:0733790033FC5002B2D52223
:10338000EC30E7100FBF000C0EBE00080DBD0004AE
:103390000BEB6014A2D5EB13FCED92E7FD2274FF5A
:1033A000FCFDFEFF22E480F8A2D574FF13FC7D80B3
:0333B000E480EFC7
:104AF300024EC5E493A3F8E493A34003F68001F2C6
:104B030008DFF48029E493A3F85407240CC8C333C3
:104B1300C4540F4420C8834004F456800146F6DF92
:104B2300E4800B0102040810204080903693E47E59
:104B3300019360BCA3FF543F30E509541FFEE49387
:104B4300A360010ECF54C025E060A840B8E493A34E
:104B5300FAE493A3F8E493A3C8C582C8CAC583CA79
:104B6300F0A3C8C582C8CAC583CADFE9DEE780BE31
:013993000033
:1033B300E709F608DFFA8046E709F208DFFA803EFC
:1033C30088828C83E709F0A3DFFA8032E309F608E9
:1033D300DFFA8078E309F208DFFA807088828C8351
:1033E300E309F0A3DFFA806489828A83E0A3F60805
:1033F300DFFA805889828A83E0A3F208DFFA804CDF
:1034030080D280FA80C680D4806980F280338010B5
:1034130080A680EA809A80A880DA80E280CA80331E
:1034230089828A83ECFAE493A3C8C582C8CCC58396
:10343300CCF0A3C8C582C8CCC583CCDFE9DEE78066
:103443000D89828A83E493A3F608DFF9ECFAA9F0E5
:10345300EDFB2289828A83ECFAE0A3C8C582C8CC3B
:10346300C583CCF0A3C8C582C8CCC583CCDFEADE54
:10347300E880DB89828A83E493A3F208DFF980CCB6
:1034830088F0EF60010E4E60C388F0ED2402B404AF
:103493000050B9F582EB2402B4040050AF23234556
:0634A30082239034037344
:1034A900BB010689828A83E0225002E722BBFE0221
:0934B900E32289828A83E4932254
:1034C200BB010CE58229F582E5833AF583E02250BF
:1034D20006E92582F8E622BBFE06E92582F8E22209
:0D34E200E58229F582E5833AF583E4932223
:1034EF00EF8DF0A4A8F0CF8CF0A428CE8DF0A42EF1
:0234FF00FE22AB
:10350100A3F8E0C5F025F0F0E5821582700215837D
:06351100E0C838F0E822DA
:10351700E88FF0A4CC8BF0A42CFCE98EF0A42CFC53
:103527008AF0EDA42CFCEA8EF0A4CDA8F08BF0A4D1
:103537002DCC3825F0FDE98FF0A42CCD35F0FCEB30
:103547008EF0A4FEA9F0EB8FF0A4CFC5F02ECD39F5
:0F355700FEE43CFCEAA42DCE35F0FDE43CFC2262
:104E8100C2D5E830E70FB2D5E4C39BFBE49AFAE45C
:104E910099F9E498F8EC30E717B2D5124EB712360B
:104EA10001E4C39BFBE49AFAE499F9E498F88003DE
:104EB10012360130D50DE4C39FFFE49EFEE49DFD53
:044EC100E49CFC224F
:0E356600C3E49FFFE49EFEE49DFDE49CFC2276
:10357400E86010ECA2E713FCED13FDEE13FEEF136D
:04358400FFD8F0225A
:0C358800ECF0A3EDF0A3EEF0A3EFF022B6
:10359400A8828583F0D083D0821235AB1235AB126A
:1035A40035AB1235ABE473E493A3C583C5F0C5838F
:1035B400C8C582C8F0A3C583C5F0C583C8C582C881
:0135C40022E4
:1035C50075F008758200EF2FFFEE33FECD33CDCCBD
:1035D50033CCC58233C5829BED9AEC99E582984040
:1035E5000CF582EE9BFEED9AFDEC99FC0FD5F0D61D
:1035F500E4CEFBE4CDFAE4CCF9A88222B800C1B947
:103605000059BA002DEC8BF084CFCECDFCE5F0CB84
:10361500F97818EF2FFFEE33FEED33FDEC33FCEBBD
:1036250033FB10D703994004EB99FB0FD8E5E4F978
:10363500FA227818EF2FFFEE33FEED33FDEC33FC65
:10364500C933C910D7059BE99A4007EC9BFCE99A59
:10365500F90FD8E0E4C9FAE4CCFB2275F010EF2F9E
:10366500FFEE33FEED33FDCC33CCC833C810D7079E
:103675009BEC9AE899400AED9BFDEC9AFCE899F8D9
:0E3685000FD5F0DAE4CDFBE4CCFAE4C8F9226C
:00000001FF
