:03000000024A2091
:0C4A2000787FE4F6D8FD758141024A67FA
:10517F00E490069DF012507B1251647F0912541671
:0A518F0012485790069DEFF080F6DD
:0900360012534E12534EC28422F3
:054AAC009006FCEFF094
:104AB100E4A3F0A3F012531F7F011253C07FFC1235
:104AC10053C07F011253C07F011253C09006FCE016
:104AD100FF1253C012533F9002F4E070037FFF2294
:104AE1009002F4E0FF9006FDE0FCA3E0FDC39F749B
:104AF10080F8EC648098501F74E02DF58274023CBC
:104B0100F583E0FF1253B79006FEE004F070D190F8
:104B110006FDE004F080C99002E2E0B401037F01E8
:034B2100227FFFF1
:014B2400226E
:104F250012531F7F011253C07FFC1253C07F021220
:104F350053C0E4FF1253C012533F9002F4E06405DE
:104F450060037FFF229002E3E0B40104A3E0FF22A7
:034F55007FFF22B9
:0C0006007F547EF77D18DDFEDEFCDFFA83
:0100120022CB
:0E533F0000007F027EAF7D4BDDFEDEFCDFFA5C
:01534D00223D
:0E534E0000007F0D7E9C7D53DDFEDEFCDFFA4D
:01535C00222E
:0E535D0000007F017ED87D23DDFEDEFCDFFA3E
:01536B00221F
:0E536C0000007F2B7E067DCBDDFEDEFCDFFA2F
:01537A002210
:0E537B0000007FFD7E237DDCDDFEDEFCDFFA20
:015389002201
:0E538A0000007F117ED07D1BDDFEDEFCDFFA11
:0153980022F2
:0E53990000007F057E347DC3DDFEDEFCDFFA02
:0153A70022E3
:040026007F0EDFFE6C
:01002A0022B3
:0E53A80000007F097E687D8BDDFEDEFCDFFAF3
:0153B60022D4
:103F4E004E4F5420205265616420434D440A002098
:103F5E00696E64795F7265616474656D70207374E7
:103F6E00617274200D0A0020696E64795F7265615A
:103F7E006474656D7020656E64200D0A002403491B
:103F8E00006D00700069006E006A005300650072DB
:103F9E0000690061006C004E0075006D003000314C
:103FAE00004003BFFCBFFCBFFC000001001200215B
:103FBE0000000010000000000000000500000000DE
:103FCE0000000006000000000000001000000000CD
:103FDE00000000110088E1F3C000000000F00006B0
:103FEE0002000001001200210000000200A000A04B
:103FFE0002000000030000000000000200A000A06C
:10400E00020000611B020600000000050000000017
:10401E000000000207010000000000050000000083
:10402E0000000004070000000000000507D0070094
:10403E000000000607DC000000000007070020005B
:10404E00000000120BFFFF0F000000050000000033
:10405E000000000005000000000000000500000048
:10406E000000000006000000000000000500000037
:10407E000000000005000000000000000600000027
:10408E000000010000000200000027000000872E43
:10409E000D0001000100020000008F2E0D00000037
:1040AE0000000000050000000000000006000000F7
:0240BE00000000
:08369300410665FF41066600D7
:0B4B86007B027F047A00E4FDFC7E0A45
:104B91009006D8EEF0A3EFF0A3ECF0A3EDF0A3EABA
:104BA100F0A3EBF07F011253B7E4FF1253B7900665
:104BB100D8A3E0FF1253B79006D8E0FF1253B79085
:104BC10006DCA3E0FF1253B79006DCE0FF1253B7F7
:104BD1009006DAA3E0FF1253B79006DAE0FF025322
:014BE100B71C
:104EB80090070EEEF0A3EFF0E4FF1253B7E4FF12F1
:104EC80053B790070EA3E0FF1253B790070EE0FF09
:104ED8001253B7E4FF1253B7E4FF1253B7E4FF12BB
:074EE80053B7E4FF0253B7CA
:10434E00E4FF900645E0900668F0E4900667F09072
:10435E000667E0FEFD3395E0FC74462DF58274068B
:10436E003CF583E0FDEEFB3395E0FA74692BF582A4
:10437E0074063AF583EDF0900667E004F0E0B40CB5
:10438E00CEE4900667F0900667E0FEFD3395E0FC04
:10439E0074522DF58274063CF583E0FDEEFB3395E9
:1043AE00E0FA74752BF58274063AF583EDF09006FB
:1043BE0067E004F0E0B402CE900667740FF090064A
:1043CE0067E0FEC3648094A0501AEEFD3395E0FCC6
:1043DE0074682DF58274063CF583E4F0900667E070
:1043EE0004F080DAE4900667F0900667E0FEC3649E
:1043FE008094A0501BEEFD3395E0FC74682DF58281
:10440E0074063CF583E02FFF900667E004F080D938
:10441E00EF900687F0E4900667F0900667E0FFC322
:10442E00648094A0501CEF3395E0FE74682FF582E3
:10443E0074063EF583E0FF1253C0900667E004F069
:02444E0080D814
:014450002249
:104BE200E4900645F0FFEFFD3395E0FC74462DF5A9
:104BF2008274063CF583E4F00FEFB40CE9E4FFEFB6
:104C0200FD3395E0FC74522DF58274063CF583E485
:104C1200F00FEFB402E9E4FFC3EF64809480501513
:104C2200EFFD3395E0FC74542DF58274063CF58358
:0A4C3200E4F00F80E3E4900664F064
:014C3C002255
:1039940090068A7401F0E4A3F0A3F074FFA3F0A3EB
:1039A400F0E4A3F0A3F0A3F0A3F0A3F0A3F0A3F03A
:1039B400A3F0A3F0A3F0A3F0A37412F0E4A3F0C265
:1039C40008C209A3F090068FE0FEA3E024F7F58275
:1039D40074023EF583E064016003023C2A90068F82
:1039E400A3E0FF24F8F58274023EF583E090069C80
:1039F400F074FA2FF58274023EF583E0FE90068F90
:103A0400E0FCA3E0FD24F9F58274023CF583E07A3E
:103A1400002400FFEA3E90068DF0A3EFF074FC2D25
:103A2400F58274023CF583E0FE90068FA3E024FB4C
:103A3400F58274023CF583E02400FFEA3E90068B95
:103A4400F0A3EFF0ED2408FFE43C900691F0FCA312
:103A5400EFF0FD90068BE0FAA3E0FBAE027802C320
:103A640033CE33CED8F92DFFEE3C900693F0A3EF7E
:103A7400F0EB2402FFE43AFEEF7802C333CE33CEF8
:103A8400D8F9FF900690E02FF090068FE03EF0907A
:103A9400068DE07004A3E064057061900692E02452
:103AA4000EFE900691E03400900695F0A3CEF0E46B
:103AB400900688F0A3F0900688E0FEA3E0FF90064D
:103AC40096E02FFD900695E03EFC74F72DF5827488
:103AD400023CF583E0FD74462FF582E43406F58359
:103AE400EDF0900689E004F07006900688E004F09A
:103AF400900688E07004A3E0640C70BA90068DE030
:103B04007004A3E0640660030239C990069CE06077
:103B140003023C2A900691E0FEA3E0FF24FBF58219
:103B240074023EF583E064C26003023C1EEF240C81
:103B3400FFE43E900697F0A3EFF0900645E024FEE4
:103B4400605C147003023BF124026003023C14E441
:103B5400900688F0A3F0900688E0FEA3E0FF9006AC
:103B640098E02FFD900697E03EFC74F72DF58274E3
:103B7400023CF583E0FD74522FF582E43406F583AC
:103B8400EDF0900689E004F07006900688E004F0F9
:103B9400900688E07004A3E0640270BA8069E4903F
:103BA4000688F0A3F0900688E0FEA3E0FF90069854
:103BB400E02FFD900697E03EFC74F72DF582740229
:103BC4003CF583E0FD74522FF582E43406F583ED71
:103BD400F0900689E004F07006900688E004F09006
:103BE4000688E07004A3E0640270BA801AE49006C8
:103BF40052F0900697E0FEA3E024F8F58274023EAA
:103C0400F583E0900653F0900666E004F00239C9AB
:103C1400E4900665F0A3F00239C97BFF7A3F794E40
:063C2400124F8B0239C9AA
:013C2A002277
:104D7300E4900710F0A3F0FBFAFDFC7F027E0A1219
:104D83004B917B0C7F03124B8A124B86E4FBFAFD9B
:104D9300FC7F067E0A124B917B107A00E4FDFCFF38
:104DA3007EF0124B911200069002F7E0B40107C2A5
:064DB300AC123994D2ACF1
:014DB90022D7
:104C9000E4900712F0A3F0FBFAFDFC7F027E0A12FB
:104CA0004B917B0D7A00E4FDFC7F037E0A124B9151
:104CB000124B86E4FBFAFDFC7F067E0A124B917BC9
:104CC000087A00E4FDFCFF7EF0124B911200069082
:0D4CD00002F7E0B40107C2AC123994D2AC77
:014CDD0022B4
:10462600E49006F4F0A3F07BFF7A3F795D124F8B9E
:10463600E4FBFAFDFC7F027E0A124B917B0E7A00A8
:10464600E4FDFC7F037E0A124B91124B86E4FBFAD3
:10465600FDFC7F067E0A124B917B077A00E4FDFC87
:10466600FF7EF0124B9112525D1200069004EBA3EE
:10467600E0FF1253C09004EBE0FFA3E09006F4CFF6
:10468600F0A3EFF07F551253C09006F4A3E0FF129B
:1046960053C0E49006F6F0A3F09006F4E0FEA3E023
:1046A600FFA3E0FCA3E0FDC39FEE6480F8EC64800A
:1046B60098501F74F72DF58274023CF583E0FF12C3
:1046C60053C09006F7E004F070069006F6E004F09A
:1046D60080C79002F7E0B40107C2AC123994D2AC9D
:0946E6007BFF7A3F7975024F8BCE
:104DFE00E4FF9002E0E060379002F4E0C3940850C4
:104E0E0003E4FE22E4FEEEFD3395E0FC74E02DF5A6
:104E1E008274023CF583E02FFF0EEEB407E8900299
:104E2E00E7E0B507057E007F012212531F8000E4E4
:024E3E00FEFF75
:014E4000224F
:10009600EF14B4220040030223349000AE75F0033F
:1000A600A4C58325F0C5837302011402011D020154
:1000B6002602012802012A0203A102012D02013BA8
:1000C600020149020157020165020173020187021A
:1000D600019B0201AF0201EB0201FF020263020271
:1000E6007702028B02029F0202B30202C702233486
:1000F60002030302033F0203A102035302038E021B
:1001060003A10203B40203CC0203A10203F47FC0DD
:100116001253B77F0680337F401253B77F03802A7E
:10012600802F800302033FE4FF1253B7E4FF12530C
:10013600B77F108058E4FF1253B7E4FF1253B77F1E
:1001460011804AE4FF1253B7E4FF1253B7E4FF806D
:100156003CE4FF1253B7E4FF1253B77F01802EE44D
:10016600FF1253B7E4FF1253B77F028020E4FF1259
:1001760053B7E4FF1253B7E4FF1253B77F030203EA
:10018600DDE4FF1253B7E4FF1253B77F021253B7F1
:10019600E4FF0203DDE4FF1253B7E4FF1253B77F17
:1001A600611253B77F1B0203DD7F011253B7E4FFD1
:1001B6001253B77F011253B77F071253B7E4FF12EA
:1001C60053B7E4FF1253B7E4FF1253B7E4FF1253D9
:1001D600B7E4FF1253B7E4FF1253B77F051253B7C4
:1001E600E4FF0203DDE4FF1253B7E4FF1253B77FC7
:1001F600021253B77F070203DD7F011253B7E4FFF4
:100206001253B77F021253B77F071253B77F0112FB
:1002160053B7E4FF1253B7E4FF1253B7E4FF125388
:10022600B77F011253B7E4FF1253B77F011253B7DA
:100236007F071253B7E4FF1253B7E4FF1253B7E434
:10024600FF1253B7E4FF1253B7E4FF1253B7E4FFAC
:100256001253B77F051253B7E4FF0203DDE4FF1222
:1002660053B7E4FF1253B77F041253B77F07020355
:10027600DDE4FF1253B7E4FF1253B77F051253B7FD
:100286007F070203DDE4FF1253B7E4FF1253B77F83
:10029600061253B77F070203DDE4FF1253B7E4FFEC
:1002A6001253B77F071253B77F070203DDE4FF122D
:1002B60053B7E4FF1253B77F121253B77F0B0203F3
:1002C600DD7F011253B7E4FF1253B77F011253B714
:1002D6007F071253B7E4FF1253B7E4FF1253B7E494
:1002E600FF1253B7E4FF1253B7E4FF1253B7E4FF0C
:1002F6001253B77F051253B7E4FF0203DD7F0112E5
:1003060053B7E4FF1253B77F0A1253B77F01125354
:10031600B77FF81253B77F591253B77F0D1253B7F1
:10032600E4FF1253B7E4FF1253B7E4FF1253B77F4B
:10033600051253B7E4FF0203DDE4FF1253B7E4FFEF
:100346001253B77F051253B7E4FF0203DD7F011294
:1003560053B7E4FF1253B77F081253B77F01125306
:10036600B77F011253B77F011253B7E4FF1253B799
:10037600E4FF1253B7E4FF1253B7E4FF1253B77FFB
:10038600051253B7E4FF804FE4FF1253B7E4FF12A0
:1003960053B77F051253B7E4FF803CE4FF1253B70F
:1003A600E4FF1253B77F061253B7E4FF80297F019B
:1003B6001253B7E4FF1253B7E4FF1253B77FF0129C
:1003C60053B77F278016E4FF1253B7E4FF1253B7E3
:1003D6007F051253B7E4FF1253B7E4FF1253B7E495
:1003E600FF1253B7E4FF1253B7E4FF0223317F0134
:1003F6001253B7E4FF1253B77F011253B77F0C12A3
:1004060053B7E4FF1253B7E4FF1253B7E4FF125396
:10041600B7E4FF1253B77F011253B7E4FF1253B785
:100426007F021253B77F0C1253B77F011253B7E402
:10043600FF1253B7E4FF1253B7E4FF1253B77F011D
:100446001253B7E4FF1253B77F031253B77F0C1250
:1004560053B77F701253B77F0D1253B77F181253DD
:10046600B7E4FF1253B77F011253B7E4FF1253B735
:100476007F041253B77F0C1253B7E4FF1253B77FB2
:10048600011253B77F071253B77F141253B77F0178
:100496001253B7E4FF1253B77F011253B77F0C1202
:1004A60053B77F011253B7E4FF1253B7E4FF125359
:1004B600B7E4FF1253B77F011253B7E4FF1253B7E5
:1004C6007F021253B77F0C1253B77F011253B7E462
:1004D600FF1253B7E4FF1253B7E4FF1253B77F017D
:1004E6001253B7E4FF1253B77F031253B77F0C12B0
:1004F60053B77F841253B77F0D1253B77F18125329
:10050600B7E4FF1253B77F011253B7E4FF1253B794
:100516007F041253B77F0C1253B7E4FF1253B77F11
:10052600011253B77F071253B77F141253B77F01D7
:100536001253B7E4FF1253B77F011253B77F0C1261
:1005460053B77F021253B7E4FF1253B7E4FF1253B7
:10055600B7E4FF1253B77F011253B7E4FF1253B744
:100566007F021253B77F0C1253B77F011253B7E4C1
:10057600FF1253B7E4FF1253B7E4FF1253B77F01DC
:100586001253B7E4FF1253B77F031253B77F0C120F
:1005960053B77F981253B77F0D1253B77F18125374
:1005A600B7E4FF1253B77F011253B7E4FF1253B7F4
:1005B6007F041253B77F0C1253B7E4FF1253B77F71
:1005C600011253B77F071253B77F141253B77F0137
:1005D6001253B7E4FF1253B77F011253B77F0C12C1
:1005E60053B77F031253B7E4FF1253B7E4FF125316
:1005F600B7E4FF1253B77F011253B7E4FF1253B7A4
:100606007F021253B77F0C1253B77F011253B7E420
:10061600FF1253B7E4FF1253B7E4FF1253B77F013B
:100626001253B7E4FF1253B77F031253B77F0C126E
:1006360053B77FAC1253B77F0D1253B77F181253BF
:10064600B7E4FF1253B77F011253B7E4FF1253B753
:100656007F041253B77F0C1253B7E4FF1253B77FD0
:10066600011253B77F071253B77F141253B77F0196
:100676001253B7E4FF1253B77F011253B77F0C1220
:1006860053B77F041253B7E4FF1253B7E4FF125374
:10069600B7E4FF1253B77F011253B7E4FF1253B703
:1006A6007F021253B77F0C1253B77F011253B7E480
:1006B600FF1253B7E4FF1253B7E4FF1253B77F019B
:1006C6001253B7E4FF1253B77F031253B77F0C12CE
:1006D60053B77FC01253B77F0D1253B77F1812530B
:1006E600B7E4FF1253B77F011253B7E4FF1253B7B3
:1006F6007F041253B77F0C1253B7E4FF1253B77F30
:10070600011253B77F071253B77F141253B77F01F5
:100716001253B7E4FF1253B77F011253B77F0C127F
:1007260053B77F051253B7E4FF1253B7E4FF1253D2
:10073600B7E4FF1253B77F011253B7E4FF1253B762
:100746007F021253B77F0C1253B77F011253B7E4DF
:10075600FF1253B7E4FF1253B7E4FF1253B77F01FA
:100766001253B7E4FF1253B77F031253B77F0C122D
:1007760053B77FD41253B77F0D1253B77F18125356
:10078600B7E4FF1253B77F011253B7E4FF1253B712
:100796007F041253B77F0C1253B7E4FF1253B77F8F
:1007A600011253B77F071253B77F141253B77F0155
:1007B6001253B7E4FF1253B77F011253B77F0C12DF
:1007C60053B77F061253B7E4FF1253B7E4FF125331
:1007D600B7E4FF1253B77F011253B7E4FF1253B7C2
:1007E6007F021253B77F0C1253B77F011253B7E43F
:1007F600FF1253B7E4FF1253B7E4FF1253B77F015A
:100806001253B7E4FF1253B77F031253B77F0C128C
:1008160053B77FE81253B77F0D1253B77F181253A1
:10082600B7E4FF1253B77F011253B7E4FF1253B771
:100836007F041253B77F0C1253B7E4FF1253B77FEE
:10084600011253B77F071253B77F141253B77F01B4
:100856001253B7E4FF1253B77F011253B77F0C123E
:1008660053B77F071253B7E4FF1253B7E4FF12538F
:10087600B7E4FF1253B77F011253B7E4FF1253B721
:100886007F021253B77F0C1253B77F011253B7E49E
:10089600FF1253B7E4FF1253B7E4FF1253B77F01B9
:1008A6001253B7E4FF1253B77F031253B77F0C12EC
:1008B60053B77FFC1253B77F0D1253B77F181253ED
:1008C600B7E4FF1253B77F011253B7E4FF1253B7D1
:1008D6007F041253B77F0C1253B7E4FF1253B77F4E
:1008E600011253B77F071253B77F141253B77F0114
:1008F6001253B7E4FF1253B77F011253B77F0C129E
:1009060053B77F081253B7E4FF1253B7E4FF1253ED
:10091600B7E4FF1253B77F011253B7E4FF1253B780
:100926007F021253B77F0C1253B77F011253B7E4FD
:10093600FF1253B7E4FF1253B7E4FF1253B77F0118
:100946001253B7E4FF1253B77F031253B77F0C124B
:1009560053B77F101253B77F0E1253B77F18125337
:10096600B7E4FF1253B77F011253B7E4FF1253B730
:100976007F041253B77F0C1253B7E4FF1253B77FAD
:10098600011253B77F071253B77F141253B77F0173
:100996001253B7E4FF1253B77F011253B77F0C12FD
:1009A60053B77F091253B7E4FF1253B7E4FF12534C
:1009B600B7E4FF1253B77F011253B7E4FF1253B7E0
:1009C6007F021253B77F0C1253B77F011253B7E45D
:1009D600FF1253B7E4FF1253B7E4FF1253B77F0178
:1009E6001253B7E4FF1253B77F031253B77F0C12AB
:1009F60053B77F241253B77F0E1253B77F18125383
:100A0600B7E4FF1253B77F011253B7E4FF1253B78F
:100A16007F041253B77F0C1253B7E4FF1253B77F0C
:100A2600011253B77F071253B77F141253B77F01D2
:100A36001253B7E4FF1253B77F011253B77F0C125C
:100A460053B77F0A1253B7E4FF1253B7E4FF1253AA
:100A5600B7E4FF1253B77F011253B7E4FF1253B73F
:100A66007F021253B77F0C1253B77F011253B7E4BC
:100A7600FF1253B7E4FF1253B7E4FF1253B77F01D7
:100A86001253B7E4FF1253B77F031253B77F0C120A
:100A960053B77F381253B77F0E1253B77F181253CE
:100AA600B7E4FF1253B77F011253B7E4FF1253B7EF
:100AB6007F041253B77F0C1253B7E4FF1253B77F6C
:100AC600011253B77F071253B77F141253B77F0132
:100AD6001253B7E4FF1253B77F011253B77F0C12BC
:100AE60053B77F0B1253B7E4FF1253B7E4FF125309
:100AF600B7E4FF1253B77F011253B7E4FF1253B79F
:100B06007F021253B77F0C1253B77F011253B7E41B
:100B1600FF1253B7E4FF1253B7E4FF1253B77F0136
:100B26001253B7E4FF1253B77F031253B77F0C1269
:100B360053B77F4C1253B77F0E1253B77F18125319
:100B4600B7E4FF1253B77F011253B7E4FF1253B74E
:100B56007F041253B77F0C1253B7E4FF1253B77FCB
:100B6600011253B77F071253B77F141253B77F0191
:100B76001253B7E4FF1253B77F011253B77F0C121B
:100B860053B77F0C1253B7E4FF1253B7E4FF125367
:100B9600B7E4FF1253B77F011253B7E4FF1253B7FE
:100BA6007F021253B77F0C1253B77F011253B7E47B
:100BB600FF1253B7E4FF1253B7E4FF1253B77F0196
:100BC6001253B7E4FF1253B77F031253B77F0C12C9
:100BD60053B77F601253B77F0E1253B77F18125365
:100BE600B7E4FF1253B77F011253B7E4FF1253B7AE
:100BF6007F041253B77F0C1253B7E4FF1253B77F2B
:100C0600011253B77F071253B77F141253B77F01F0
:100C16001253B7E4FF1253B77F011253B77F0C127A
:100C260053B77F0D1253B7E4FF1253B7E4FF1253C5
:100C3600B7E4FF1253B77F011253B7E4FF1253B75D
:100C46007F021253B77F0C1253B7E4FF1253B7E477
:100C5600FF1253B7E4FF1253B7E4FF1253B77F01F5
:100C66001253B7E4FF1253B77F031253B77F0C1228
:100C760053B77F601253B77F0E1253B77F181253C4
:100C8600B7E4FF1253B77F011253B7E4FF1253B70D
:100C96007F041253B77F0C1253B7E4FF1253B77F8A
:100CA600011253B77F071253B77F141253B77F0150
:100CB6001253B7E4FF1253B77F011253B77F0C12DA
:100CC60053B77F0E1253B7E4FF1253B7E4FF125324
:100CD600B7E4FF1253B77F011253B7E4FF1253B7BD
:100CE6007F021253B77F0C1253B7E4FF1253B7E4D7
:100CF600FF1253B7E4FF1253B7E4FF1253B77F0155
:100D06001253B7E4FF1253B77F031253B77F0C1287
:100D160053B77F601253B77F0E1253B77F18125323
:100D2600B7E4FF1253B77F011253B7E4FF1253B76C
:100D36007F041253B77F0C1253B7E4FF1253B77FE9
:100D4600011253B77F071253B77F141253B77F01AF
:100D56001253B7E4FF1253B77F011253B77F0C1239
:100D660053B77F0F1253B7E4FF1253B7E4FF125382
:100D7600B7E4FF1253B77F011253B7E4FF1253B71C
:100D86007F021253B77F0C1253B7E4FF1253B7E436
:100D9600FF1253B7E4FF1253B7E4FF1253B77F01B4
:100DA6001253B7E4FF1253B77F031253B77F0C12E7
:100DB60053B77F601253B77F0E1253B77F18125383
:100DC600B7E4FF1253B77F011253B7E4FF1253B7CC
:100DD6007F041253B77F0C1253B7E4FF1253B77F49
:100DE600011253B77F071253B77F141253B77F010F
:100DF6001253B7E4FF1253B77F011253B77F0C1299
:100E060053B77F101253B7E4FF1253B7E4FF1253E0
:100E1600B7E4FF1253B77F011253B7E4FF1253B77B
:100E26007F021253B77F0C1253B7E4FF1253B7E495
:100E3600FF1253B7E4FF1253B7E4FF1253B77F0113
:100E46001253B7E4FF1253B77F031253B77F0C1246
:100E560053B77F601253B77F0E1253B77F181253E2
:100E6600B7E4FF1253B77F011253B7E4FF1253B72B
:100E76007F041253B77F0C1253B7E4FF1253B77FA8
:100E8600011253B77F071253B77F141253B77F016E
:100E96001253B7E4FF1253B77F011253B77F0C12F8
:100EA60053B77F111253B7E4FF1253B7E4FF12533F
:100EB600B7E4FF1253B77F011253B7E4FF1253B7DB
:100EC6007F021253B77F0C1253B7E4FF1253B7E4F5
:100ED600FF1253B7E4FF1253B7E4FF1253B77F0173
:100EE6001253B7E4FF1253B77F031253B77F0C12A6
:100EF60053B77F601253B77F0E1253B77F18125342
:100F0600B7E4FF1253B77F011253B7E4FF1253B78A
:100F16007F041253B77F0C1253B7E4FF1253B77F07
:100F2600011253B77F071253B77F141253B77F01CD
:100F36001253B7E4FF1253B77F011253B77F0C1257
:100F460053B77F121253B7E4FF1253B7E4FF12539D
:100F5600B7E4FF1253B77F011253B7E4FF1253B73A
:100F66007F021253B77F0C1253B7E4FF1253B7E454
:100F7600FF1253B7E4FF1253B7E4FF1253B77F01D2
:100F86001253B7E4FF1253B77F031253B77F0C1205
:100F960053B77F601253B77F0E1253B77F181253A1
:100FA600B7E4FF1253B77F011253B7E4FF1253B7EA
:100FB6007F041253B77F0C1253B7E4FF1253B77F67
:100FC600011253B77F071253B77F141253B77F012D
:100FD6001253B7E4FF1253B77F011253B77F0C12B7
:100FE60053B77F131253B7E4FF1253B7E4FF1253FC
:100FF600B7E4FF1253B77F011253B7E4FF1253B79A
:101006007F021253B77F0C1253B7E4FF1253B7E4B3
:10101600FF1253B7E4FF1253B7E4FF1253B77F0131
:101026001253B7E4FF1253B77F031253B77F0C1264
:1010360053B77F601253B77F0E1253B77F18125300
:10104600B7E4FF1253B77F011253B7E4FF1253B749
:101056007F041253B77F0C1253B7E4FF1253B77FC6
:10106600011253B77F071253B77F141253B77F018C
:101076001253B7E4FF1253B77F011253B77F0C1216
:1010860053B77F141253B7E4FF1253B7E4FF12535A
:10109600B7E4FF1253B77F011253B7E4FF1253B7F9
:1010A6007F021253B77F0C1253B7E4FF1253B7E413
:1010B600FF1253B7E4FF1253B7E4FF1253B77F0191
:1010C6001253B7E4FF1253B77F031253B77F0C12C4
:1010D60053B77F601253B77F0E1253B77F18125360
:1010E600B7E4FF1253B77F011253B7E4FF1253B7A9
:1010F6007F041253B77F0C1253B7E4FF1253B77F26
:10110600011253B77F071253B77F141253B77F01EB
:101116001253B7E4FF1253B77F011253B77F0C1275
:1011260053B77F151253B7E4FF1253B7E4FF1253B8
:10113600B7E4FF1253B77F011253B7E4FF1253B758
:101146007F021253B77F0C1253B7E4FF1253B7E472
:10115600FF1253B7E4FF1253B7E4FF1253B77F01F0
:101166001253B7E4FF1253B77F031253B77F0C1223
:1011760053B77F601253B77F0E1253B77F181253BF
:10118600B7E4FF1253B77F011253B7E4FF1253B708
:101196007F041253B77F0C1253B7E4FF1253B77F85
:1011A600011253B77F071253B77F141253B77F014B
:1011B6001253B7E4FF1253B77F011253B77F0C12D5
:1011C60053B77F161253B7E4FF1253B7E4FF125317
:1011D600B7E4FF1253B77F011253B7E4FF1253B7B8
:1011E6007F021253B77F0C1253B7E4FF1253B7E4D2
:1011F600FF1253B7E4FF1253B7E4FF1253B77F0150
:101206001253B7E4FF1253B77F031253B77F0C1282
:1012160053B77F601253B77F0E1253B77F1812531E
:10122600B7E4FF1253B77F011253B7E4FF1253B767
:101236007F041253B77F0C1253B7E4FF1253B77FE4
:10124600011253B77F071253B77F141253B77F01AA
:101256001253B7E4FF1253B77F011253B77F0C1234
:1012660053B77F171253B7E4FF1253B7E4FF125375
:10127600B7E4FF1253B77F011253B7E4FF1253B717
:101286007F021253B77F0C1253B7E4FF1253B7E431
:10129600FF1253B7E4FF1253B7E4FF1253B77F01AF
:1012A6001253B7E4FF1253B77F031253B77F0C12E2
:1012B60053B77F601253B77F0E1253B77F1812537E
:1012C600B7E4FF1253B77F011253B7E4FF1253B7C7
:1012D6007F041253B77F0C1253B7E4FF1253B77F44
:1012E600011253B77F071253B77F141253B77F010A
:1012F6001253B7E4FF1253B77F011253B77F0C1294
:1013060053B77F181253B7E4FF1253B7E4FF1253D3
:10131600B7E4FF1253B77F011253B7E4FF1253B776
:101326007F021253B77F0C1253B7E4FF1253B7E490
:10133600FF1253B7E4FF1253B7E4FF1253B77F010E
:101346001253B7E4FF1253B77F031253B77F0C1241
:1013560053B77F601253B77F0E1253B77F181253DD
:10136600B7E4FF1253B77F011253B7E4FF1253B726
:101376007F041253B77F0C1253B7E4FF1253B77FA3
:10138600011253B77F071253B77F141253B77F0169
:101396001253B7E4FF1253B77F011253B77F0C12F3
:1013A60053B77F191253B7E4FF1253B7E4FF125332
:1013B600B7E4FF1253B77F011253B7E4FF1253B7D6
:1013C6007F021253B77F0C1253B7E4FF1253B7E4F0
:1013D600FF1253B7E4FF1253B7E4FF1253B77F016E
:1013E6001253B7E4FF1253B77F031253B77F0C12A1
:1013F60053B77F601253B77F0E1253B77F1812533D
:10140600B7E4FF1253B77F011253B7E4FF1253B785
:101416007F041253B77F0C1253B7E4FF1253B77F02
:10142600011253B77F071253B77F141253B77F01C8
:101436001253B7E4FF1253B77F011253B77F0C1252
:1014460053B77F1A1253B7E4FF1253B7E4FF125390
:10145600B7E4FF1253B77F011253B7E4FF1253B735
:101466007F021253B77F0C1253B7E4FF1253B7E44F
:10147600FF1253B7E4FF1253B7E4FF1253B77F01CD
:101486001253B7E4FF1253B77F031253B77F0C1200
:1014960053B77F601253B77F0E1253B77F1812539C
:1014A600B7E4FF1253B77F011253B7E4FF1253B7E5
:1014B6007F041253B77F0C1253B7E4FF1253B77F62
:1014C600011253B77F071253B77F141253B77F0128
:1014D6001253B7E4FF1253B77F011253B77F0C12B2
:1014E60053B77F1B1253B7E4FF1253B7E4FF1253EF
:1014F600B7E4FF1253B77F011253B7E4FF1253B795
:101506007F021253B77F0C1253B7E4FF1253B7E4AE
:10151600FF1253B7E4FF1253B7E4FF1253B77F012C
:101526001253B7E4FF1253B77F031253B77F0C125F
:1015360053B77F601253B77F0E1253B77F181253FB
:10154600B7E4FF1253B77F011253B7E4FF1253B744
:101556007F041253B77F0C1253B7E4FF1253B77FC1
:10156600011253B77F071253B77F141253B77F0187
:101576001253B7E4FF1253B77F011253B77F0C1211
:1015860053B77F1C1253B7E4FF1253B7E4FF12534D
:10159600B7E4FF1253B77F011253B7E4FF1253B7F4
:1015A6007F021253B77F0C1253B7E4FF1253B7E40E
:1015B600FF1253B7E4FF1253B7E4FF1253B77F018C
:1015C6001253B7E4FF1253B77F031253B77F0C12BF
:1015D60053B77F601253B77F0E1253B77F1812535B
:1015E600B7E4FF1253B77F011253B7E4FF1253B7A4
:1015F6007F041253B77F0C1253B7E4FF1253B77F21
:10160600011253B77F071253B77F141253B77F01E6
:101616001253B7E4FF1253B77F011253B77F0C1270
:1016260053B77F1D1253B7E4FF1253B7E4FF1253AB
:10163600B7E4FF1253B77F011253B7E4FF1253B753
:101646007F021253B77F0C1253B7E4FF1253B7E46D
:10165600FF1253B7E4FF1253B7E4FF1253B77F01EB
:101666001253B7E4FF1253B77F031253B77F0C121E
:1016760053B77F601253B77F0E1253B77F181253BA
:10168600B7E4FF1253B77F011253B7E4FF1253B703
:101696007F041253B77F0C1253B7E4FF1253B77F80
:1016A600011253B77F071253B77F141253B77F0146
:1016B6001253B7E4FF1253B77F011253B77F0C12D0
:1016C60053B77F1E1253B7E4FF1253B7E4FF12530A
:1016D600B7E4FF1253B77F011253B7E4FF1253B7B3
:1016E6007F021253B77F0C1253B7E4FF1253B7E4CD
:1016F600FF1253B7E4FF1253B7E4FF1253B77F014B
:101706001253B7E4FF1253B77F031253B77F0C127D
:1017160053B77F601253B77F0E1253B77F18125319
:10172600B7E4FF1253B77F011253B7E4FF1253B762
:101736007F041253B77F0C1253B7E4FF1253B77FDF
:10174600011253B77F071253B77F141253B77F01A5
:101756001253B7E4FF1253B77F011253B77F0C122F
:1017660053B77F1F1253B7E4FF1253B7E4FF125368
:10177600B7E4FF1253B77F011253B7E4FF1253B712
:101786007F021253B77F0C1253B7E4FF1253B7E42C
:10179600FF1253B7E4FF1253B7E4FF1253B77F01AA
:1017A6001253B7E4FF1253B77F031253B77F0C12DD
:1017B60053B77F601253B77F0E1253B77F18125379
:1017C600B7E4FF1253B77F011253B7E4FF1253B7C2
:1017D6007F041253B77F0C1253B7E4FF1253B77F3F
:1017E600011253B77F071253B77F141253B77F0105
:1017F6001253B7E4FF1253B77F011253B77F0C128F
:1018060053B77F201253B7E4FF1253B7E4FF1253C6
:10181600B7E4FF1253B77F011253B7E4FF1253B771
:101826007F021253B77F0C1253B7E4FF1253B7E48B
:10183600FF1253B7E4FF1253B7E4FF1253B77F0109
:101846001253B7E4FF1253B77F031253B77F0C123C
:1018560053B77F601253B77F0E1253B77F181253D8
:10186600B7E4FF1253B77F011253B7E4FF1253B721
:101876007F041253B77F0C1253B7E4FF1253B77F9E
:10188600011253B77F071253B77F141253B77F0164
:101896001253B7E4FF1253B77F011253B77F0C12EE
:1018A60053B77F211253B7E4FF1253B7E4FF125325
:1018B600B7E4FF1253B77F011253B7E4FF1253B7D1
:1018C6007F021253B77F0C1253B7E4FF1253B7E4EB
:1018D600FF1253B7E4FF1253B7E4FF1253B77F0169
:1018E6001253B7E4FF1253B77F031253B77F0C129C
:1018F60053B77F601253B77F0E1253B77F18125338
:10190600B7E4FF1253B77F011253B7E4FF1253B780
:101916007F041253B77F0C1253B7E4FF1253B77FFD
:10192600011253B77F071253B77F141253B77F01C3
:101936001253B7E4FF1253B77F011253B77F0C124D
:1019460053B77F221253B7E4FF1253B7E4FF125383
:10195600B7E4FF1253B77F011253B7E4FF1253B730
:101966007F021253B77F0C1253B7E4FF1253B7E44A
:10197600FF1253B7E4FF1253B7E4FF1253B77F01C8
:101986001253B7E4FF1253B77F031253B77F0C12FB
:1019960053B77F601253B77F0E1253B77F18125397
:1019A600B7E4FF1253B77F011253B7E4FF1253B7E0
:1019B6007F041253B77F0C1253B7E4FF1253B77F5D
:1019C600011253B77F071253B77F141253B77F0123
:1019D6001253B7E4FF1253B77F011253B77F0C12AD
:1019E60053B77F231253B7E4FF1253B7E4FF1253E2
:1019F600B7E4FF1253B77F011253B7E4FF1253B790
:101A06007F021253B77F0C1253B7E4FF1253B7E4A9
:101A1600FF1253B7E4FF1253B7E4FF1253B77F0127
:101A26001253B7E4FF1253B77F031253B77F0C125A
:101A360053B77F601253B77F0E1253B77F181253F6
:101A4600B7E4FF1253B77F011253B7E4FF1253B73F
:101A56007F041253B77F0C1253B7E4FF1253B77FBC
:101A6600011253B77F071253B77F141253B77F0182
:101A76001253B7E4FF1253B77F011253B77F0C120C
:101A860053B77F241253B7E4FF1253B7E4FF125340
:101A9600B7E4FF1253B77F011253B7E4FF1253B7EF
:101AA6007F021253B77F0C1253B7E4FF1253B7E409
:101AB600FF1253B7E4FF1253B7E4FF1253B77F0187
:101AC6001253B7E4FF1253B77F031253B77F0C12BA
:101AD60053B77F601253B77F0E1253B77F18125356
:101AE600B7E4FF1253B77F011253B7E4FF1253B79F
:101AF6007F041253B77F0C1253B7E4FF1253B77F1C
:101B0600011253B77F071253B77F141253B77F01E1
:101B16001253B7E4FF1253B77F011253B77F0C126B
:101B260053B77F251253B7E4FF1253B7E4FF12539E
:101B3600B7E4FF1253B77F011253B7E4FF1253B74E
:101B46007F021253B77F0C1253B7E4FF1253B7E468
:101B5600FF1253B7E4FF1253B7E4FF1253B77F01E6
:101B66001253B7E4FF1253B77F031253B77F0C1219
:101B760053B77F601253B77F0E1253B77F181253B5
:101B8600B7E4FF1253B77F011253B7E4FF1253B7FE
:101B96007F041253B77F0C1253B7E4FF1253B77F7B
:101BA600011253B77F071253B77F141253B77F0141
:101BB6001253B7E4FF1253B77F011253B77F0C12CB
:101BC60053B77F261253B7E4FF1253B7E4FF1253FD
:101BD600B7E4FF1253B77F011253B7E4FF1253B7AE
:101BE6007F021253B77F0C1253B7E4FF1253B7E4C8
:101BF600FF1253B7E4FF1253B7E4FF1253B77F0146
:101C06001253B7E4FF1253B77F031253B77F0C1278
:101C160053B77F601253B77F0E1253B77F18125314
:101C2600B7E4FF1253B77F011253B7E4FF1253B75D
:101C36007F041253B77F0C1253B7E4FF1253B77FDA
:101C4600011253B77F071253B77F141253B77F01A0
:101C56001253B7E4FF1253B77F011253B77F0C122A
:101C660053B77F271253B7E4FF1253B7E4FF12535B
:101C7600B7E4FF1253B77F011253B7E4FF1253B70D
:101C86007F021253B77F0C1253B7E4FF1253B7E427
:101C9600FF1253B7E4FF1253B7E4FF1253B77F01A5
:101CA6001253B7E4FF1253B77F031253B77F0C12D8
:101CB60053B77F601253B77F0E1253B77F18125374
:101CC600B7E4FF1253B77F011253B7E4FF1253B7BD
:101CD6007F041253B77F0C1253B7E4FF1253B77F3A
:101CE600011253B77F071253B77F141253B77F0100
:101CF6001253B7E4FF1253B77F011253B77F0C128A
:101D060053B77F281253B7E4FF1253B7E4FF1253B9
:101D1600B7E4FF1253B77F011253B7E4FF1253B76C
:101D26007F021253B77F0C1253B7E4FF1253B7E486
:101D3600FF1253B7E4FF1253B7E4FF1253B77F0104
:101D46001253B7E4FF1253B77F031253B77F0C1237
:101D560053B77F601253B77F0E1253B77F181253D3
:101D6600B7E4FF1253B77F011253B7E4FF1253B71C
:101D76007F041253B77F0C1253B7E4FF1253B77F99
:101D8600011253B77F071253B77F141253B77F015F
:101D96001253B7E4FF1253B77F011253B77F0C12E9
:101DA60053B77F291253B7E4FF1253B7E4FF125318
:101DB600B7E4FF1253B77F011253B7E4FF1253B7CC
:101DC6007F021253B77F0C1253B7E4FF1253B7E4E6
:101DD600FF1253B7E4FF1253B7E4FF1253B77F0164
:101DE6001253B7E4FF1253B77F031253B77F0C1297
:101DF60053B77F601253B77F0E1253B77F18125333
:101E0600B7E4FF1253B77F011253B7E4FF1253B77B
:101E16007F041253B77F0C1253B7E4FF1253B77FF8
:101E2600011253B77F071253B77F141253B77F01BE
:101E36001253B7E4FF1253B77F011253B77F0C1248
:101E460053B77F2A1253B7E4FF1253B7E4FF125376
:101E5600B7E4FF1253B77F011253B7E4FF1253B72B
:101E66007F021253B77F0C1253B7E4FF1253B7E445
:101E7600FF1253B7E4FF1253B7E4FF1253B77F01C3
:101E86001253B7E4FF1253B77F031253B77F0C12F6
:101E960053B77F601253B77F0E1253B77F18125392
:101EA600B7E4FF1253B77F011253B7E4FF1253B7DB
:101EB6007F041253B77F0C1253B7E4FF1253B77F58
:101EC600011253B77F071253B77F141253B77F011E
:101ED6001253B7E4FF1253B77F011253B77F0C12A8
:101EE60053B77F2B1253B7E4FF1253B7E4FF1253D5
:101EF600B7E4FF1253B77F011253B7E4FF1253B78B
:101F06007F021253B77F0C1253B7E4FF1253B7E4A4
:101F1600FF1253B7E4FF1253B7E4FF1253B77F0122
:101F26001253B7E4FF1253B77F031253B77F0C1255
:101F360053B77F601253B77F0E1253B77F181253F1
:101F4600B7E4FF1253B77F011253B7E4FF1253B73A
:101F56007F041253B77F0C1253B7E4FF1253B77FB7
:101F6600011253B77F071253B77F141253B77F017D
:101F76001253B7E4FF1253B77F011253B77F0C1207
:101F860053B77F2C1253B7E4FF1253B7E4FF125333
:101F9600B7E4FF1253B77F011253B7E4FF1253B7EA
:101FA6007F021253B77F0C1253B7E4FF1253B7E404
:101FB600FF1253B7E4FF1253B7E4FF1253B77F0182
:101FC6001253B7E4FF1253B77F031253B77F0C12B5
:101FD60053B77F601253B77F0E1253B77F18125351
:101FE600B7E4FF1253B77F011253B7E4FF1253B79A
:101FF6007F041253B77F0C1253B7E4FF1253B77F17
:10200600011253B77F071253B77F141253B77F01DC
:102016001253B7E4FF1253B77F011253B77F0C1266
:1020260053B77F2D1253B7E4FF1253B7E4FF125391
:10203600B7E4FF1253B77F011253B7E4FF1253B749
:102046007F021253B77F0C1253B7E4FF1253B7E463
:10205600FF1253B7E4FF1253B7E4FF1253B77F01E1
:102066001253B7E4FF1253B77F031253B77F0C1214
:1020760053B77F601253B77F0E1253B77F181253B0
:10208600B7E4FF1253B77F011253B7E4FF1253B7F9
:102096007F041253B77F0C1253B7E4FF1253B77F76
:1020A600011253B77F071253B77F141253B77F013C
:1020B6001253B7E4FF1253B77F011253B77F0C12C6
:1020C60053B77F2E1253B7E4FF1253B7E4FF1253F0
:1020D600B7E4FF1253B77F011253B7E4FF1253B7A9
:1020E6007F021253B77F0C1253B7E4FF1253B7E4C3
:1020F600FF1253B7E4FF1253B7E4FF1253B77F0141
:102106001253B7E4FF1253B77F031253B77F0C1273
:1021160053B77F601253B77F0E1253B77F1812530F
:10212600B7E4FF1253B77F011253B7E4FF1253B758
:102136007F041253B77F0C1253B7E4FF1253B77FD5
:10214600011253B77F071253B77F141253B77F019B
:102156001253B7E4FF1253B77F011253B77F0C1225
:1021660053B77F2F1253B7E4FF1253B7E4FF12534E
:10217600B7E4FF1253B77F011253B7E4FF1253B708
:102186007F021253B77F0C1253B7E4FF1253B7E422
:10219600FF1253B7E4FF1253B7E4FF1253B77F01A0
:1021A6001253B7E4FF1253B77F031253B77F0C12D3
:1021B60053B77F601253B77F0E1253B77F1812536F
:1021C600B7E4FF1253B77F011253B7E4FF1253B7B8
:1021D6007F041253B77F0C1253B7E4FF1253B77F35
:1021E600011253B77F071253B77F141253B77F01FB
:1021F6001253B7E4FF1253B77F011253B77F0C1285
:1022060053B77F301253B7E4FF1253B7E4FF1253AC
:10221600B7E4FF1253B77F011253B7E4FF1253B767
:102226007F021253B77F0C1253B7E4FF1253B7E481
:10223600FF1253B7E4FF1253B7E4FF1253B77F01FF
:102246001253B7E4FF1253B77F031253B77F0C1232
:1022560053B77F601253B77F0E1253B77F181253CE
:10226600B7E4FF1253B77F011253B7E4FF1253B717
:102276007F041253B77F0C1253B7E4FF1253B77F94
:10228600011253B77F071253B77F141253B77F015A
:102296001253B7E4FF1253B77F011253B77F0C12E4
:1022A60053B77F311253B7E4FF1253B7E4FF12530B
:1022B600B7E4FF1253B77F011253B7E4FF1253B7C7
:1022C6007F021253B77F0C1253B7E4FF1253B7E4E1
:1022D600FF1253B7E4FF1253B7E4FF1253B77F015F
:1022E6001253B7E4FF1253B77F031253B77F0C1292
:1022F60053B77F601253B77F0E1253B77F1812532E
:10230600B7E4FF1253B77F011253B7E4FF1253B776
:102316007F041253B77F0C1253B7E4FF1253B77FF3
:0F232600011253B77F071253B77F141253B72218
:052335009004EDEFF043
:10233A009004EF7424F078F07C047D017BFF7A3FEF
:10234A00798B7E00FF1234839005147408F0781597
:10235A007C057D017BFF7A3F79AF7E00FF123483D3
:10236A0090051D7408F0781E7C057D017BFF7A3F7D
:10237A0079B77E00FF1234839005267408F0782717
:10238A007C057D017BFF7A3F79BF7E00FF12348393
:10239A0090052F7408F078307C057D017BFF7A3F29
:1023AA0079C77E00FF1234839005387408F07839B3
:1023BA007C057D017BFF7A3F79CF7E00FF12348353
:1023CA009005417408F078427C057D017BFF7A3FD5
:1023DA0079D77E00FF12348390054A7408F0784B4F
:1023EA007C057D017BFF7A3F79DF7E00FF12348313
:1023FA009005537408F078547C057D017BFF7A3F81
:10240A0079E77E00FF12348390055C7408F0785DEA
:10241A007C057D017BFF7A3F79EF7E00FF123483D2
:10242A009005657408F078667C057D017BFF7A3F2C
:10243A0079F77E00FF12348390056E7408F0786F86
:10244A007C057D017BFF7A3F79FF7E00FF12348392
:10245A009005777408F078787C057D017BFF7A40D7
:10246A0079077E00FF1234839005807408F0788122
:10247A007C057D017BFF7A40790F7E00FF12348351
:10248A009005897408F0788A7C057D017BFF7A4083
:10249A0079177E00FF1234839005927408F07893BE
:1024AA007C057D017BFF7A40791F7E00FF12348311
:1024BA0090059B7408F0789C7C057D017BFF7A402F
:1024CA0079277E00FF1234839005A47408F078A55A
:1024DA007C057D017BFF7A40792F7E00FF123483D1
:1024EA009005AD7408F078AE7C057D017BFF7A40DB
:1024FA0079377E00FF1234839005B67408F078B7F6
:10250A007C057D017BFF7A40793F7E00FF12348390
:10251A009005BF7408F078C07C057D017BFF7A4086
:10252A0079477E00FF1234839005C87408F078C991
:10253A007C057D017BFF7A40794F7E00FF12348350
:10254A009005D17408F078D27C057D017BFF7A4032
:10255A0079577E00FF123483E49005DAF078DB7C49
:10256A00057D017BFF7A40795FFE7F0112348390FB
:10257A0005DC7408F078DD7C057D017BFF7A407903
:10258A00607E00FF1234839005E57408F078E67CDB
:10259A00057D017BFF7A4079687E00FF12348390C3
:1025AA0005EE7408F078EF7C057D017BFF7A4079AF
:1025BA00707E00FF1234839005F77408F078F87C77
:1025CA00057D017BFF7A4079787E00FF1234839083
:1025DA0006007408F078017C067D017BFF7A407959
:1025EA00807E00FF1234839006097408F0780A7C12
:1025FA00067D017BFF7A4079887E00FF1234839042
:10260A0006127420F078137C067D017BFF7A4079EC
:10261A00907E00FF1234839006337408F078347C7D
:10262A00067D017BFF7A4079B07E00FF12348390E9
:10263A00063C7408F0783D7C067D017BFF7A407980
:10264A00B87E00FF1234839004EDE014B4210040F8
:10265A000302305090266C75F003A4C58325F0C59B
:10266A0083730226CF02271D02276B0227B902288D
:10267A00070228550228A30228F102293F02298DC0
:10268A000229DB022A29022A77022AC5022B13020F
:10269A002B61022BAF022C0A022C58022CA6022C08
:1026AA00A9022CF7022D45022D93022DE1022E2FAD
:1026BA00022E7D022ECB022F19022F67022CA602B0
:1026CA002FB5023002E49004EEF09004EFE0FF90A0
:1026DA0004EEE0FEC3EF6480F8EE648098400302E3
:1026EA003053E0FFFD3395E0FC74F02DF58274045D
:1026FA003CF583E0FEEF3395E0FC74F72DF5827428
:10270A00023CF583E06E6003022C4D9004EEE00477
:10271A00F080B7E49004EEF0900514E0FF9004EE28
:10272A00E0FEC3EF6480F8EE648098400302305301
:10273A00E0FFFD3395E0FC74152DF58274053CF538
:10274A0083E0FEEF3395E0FC74F72DF58274023CCA
:10275A00F583E06E6003022C4D9004EEE004F080F5
:10276A00B7E49004EEF090051DE0FF9004EEE0FE61
:10277A00C3EF6480F8EE6480984003023053E0FFB0
:10278A00FD3395E0FC741E2DF58274053CF583E05B
:10279A00FEEF3395E0FC74F72DF58274023CF58365
:1027AA00E06E6003022C4D9004EEE004F080B7E482
:1027BA009004EEF0900526E0FF9004EEE0FEC3EFF1
:1027CA006480F8EE6480984003023053E0FFFD33E2
:1027DA0095E0FC74272DF58274053CF583E0FEEF45
:1027EA003395E0FC74F72DF58274023CF583E06EB4
:1027FA006003022C4D9004EEE004F080B7E49004EC
:10280A00EEF090052FE0FF9004EEE0FEC3EF648047
:10281A00F8EE6480984003023053E0FFFD3395E000
:10282A00FC74302DF58274053CF583E0FEEF339598
:10283A00E0FC74F72DF58274023CF583E06E6003C8
:10284A00022C4D9004EEE004F080B7E49004EEF020
:10285A00900538E0FF9004EEE0FEC3EF6480F8EEE6
:10286A006480984003023053E0FFFD3395E0FC7426
:10287A00392DF58274053CF583E0FEEF3395E0FCD3
:10288A0074F72DF58274023CF583E06E6003022C26
:10289A004D9004EEE004F080B7E49004EEF0900569
:1028AA0041E0FF9004EEE0FEC3EF6480F8EE64803E
:1028BA00984003023053E0FFFD3395E0FC74422D4B
:1028CA00F58274053CF583E0FEEF3395E0FC74F77E
:1028DA002DF58274023CF583E06E6003022C4D9064
:1028EA0004EEE004F080B7E49004EEF090054AE0CC
:1028FA00FF9004EEE0FEC3EF6480F8EE6480984037
:10290A0003023053E0FFFD3395E0FC744B2DF58252
:10291A0074053CF583E0FEEF3395E0FC74F72DF582
:10292A008274023CF583E06E6003022C4D9004EE43
:10293A00E004F080B7E49004EEF0900553E0FF90D5
:10294A0004EEE0FEC3EF6480F8EE64809840030270
:10295A003053E0FFFD3395E0FC74542DF582740585
:10296A003CF583E0FEEF3395E0FC74F72DF58274B5
:10297A00023CF583E06E6003022C4D9004EEE00405
:10298A00F080B7E49004EEF090055CE0FF9004EE6E
:10299A00E0FEC3EF6480F8EE64809840030230538F
:1029AA00E0FFFD3395E0FC745D2DF58274053CF57E
:1029BA0083E0FEEF3395E0FC74F72DF58274023C58
:1029CA00F583E06E6003022C4D9004EEE004F08083
:1029DA00B7E49004EEF0900565E0FF9004EEE0FEA7
:1029EA00C3EF6480F8EE6480984003023053E0FF3E
:1029FA00FD3395E0FC74662DF58274053CF583E0A1
:102A0A00FEEF3395E0FC74F72DF58274023CF583F2
:102A1A00E06E6003022C4D9004EEE004F080B7E40F
:102A2A009004EEF090056EE0FF9004EEE0FEC3EF36
:102A3A006480F8EE6480984003023053E0FFFD336F
:102A4A0095E0FC746F2DF58274053CF583E0FEEF8A
:102A5A003395E0FC74F72DF58274023CF583E06E41
:102A6A006003022C4D9004EEE004F080B7E4900479
:102A7A00EEF0900577E0FF9004EEE0FEC3EF64808D
:102A8A00F8EE6480984003023053E0FFFD3395E08E
:102A9A00FC74782DF58274053CF583E0FEEF3395DE
:102AAA00E0FC74F72DF58274023CF583E06E600356
:102ABA00022C4D9004EEE004F080B7E49004EEF0AE
:102ACA00900580E0FF9004EEE0FEC3EF6480F8EE2C
:102ADA006480984003023053E0FFFD3395E0FC74B4
:102AEA00812DF58274053CF583E0FEEF3395E0FC19
:102AFA0074F72DF58274023CF583E06E6003022CB4
:102B0A004D9004EEE004F080B7E49004EEF09005F6
:102B1A0089E0FF9004EEE0FEC3EF6480F8EE648083
:102B2A00984003023053E0FFFD3395E0FC748A2D90
:102B3A00F58274053CF583E0FEEF3395E0FC74F70B
:102B4A002DF58274023CF583E06E6003022C4D90F1
:102B5A0004EEE004F080B7E49004EEF0900592E011
:102B6A00FF9004EEE0FEC3EF6480F8EE64809840C4
:102B7A0003023053E0FFFD3395E0FC74932DF58298
:102B8A0074053CF583E0FEEF3395E0FC74F72DF510
:102B9A008274023CF583E06E6003022C4D9004EED1
:102BAA00E004F080B7E49004EEF090059BE0FF901B
:102BBA0004EEE0FEC3EF6480F8EE648098400302FE
:102BCA003053E0FFFD3395E0FC749C2DF5827405CB
:102BDA003CF583E0FEEF3395E0FC74F72DF5827443
:102BEA00023CF583E06E60107FBB1253C09004EE86
:102BFA00E0FF1253C00230429004EEE004F080AAD3
:102C0A00E49004EEF09005A4E0FF9004EEE0FEC329
:102C1A00EF6480F8EE6480984003023053E0FFFDD1
:102C2A003395E0FC74A52DF58274053CF583E0FE2E
:102C3A00EF3395E0FC74F72DF58274023CF583E0DE
:102C4A006E60030230429004EEE004F080B7E49034
:102C5A0004EEF09005ADE0FF9004EEE0FEC3EF64F1
:102C6A0080F8EE6480984003023053E0FFFD33950C
:102C7A00E0FC74AE2DF58274053CF583E0FEEF337B
:102C8A0095E0FC74F72DF58274023CF583E06E60E2
:102C9A00030230429004EEE004F080B77F0022E4A1
:102CAA009004EEF09005BFE0FF9004EEE0FEC3EF63
:102CBA006480F8EE6480984003023053E0FFFD33ED
:102CCA0095E0FC74C02DF58274053CF583E0FEEFB7
:102CDA003395E0FC74F72DF58274023CF583E06EBF
:102CEA0060030230429004EEE004F080B7E49004FE
:102CFA00EEF09005C8E0FF9004EEE0FEC3EF6480BA
:102D0A00F8EE6480984003023053E0FFFD3395E00B
:102D1A00FC74C92DF58274053CF583E0FEEF33950A
:102D2A00E0FC74F72DF58274023CF583E06E6003D3
:102D3A000230429004EEE004F080B7E49004EEF032
:102D4A009005D1E0FF9004EEE0FEC3EF6480F8EE58
:102D5A006480984003023053E0FFFD3395E0FC7431
:102D6A00D22DF58274053CF583E0FEEF3395E0FC45
:102D7A0074F72DF58274023CF583E06E600302302D
:102D8A00429004EEE004F080B7E49004EEF090057F
:102D9A00DAE0FF9004EEE0FEC3EF6480F8EE6480B0
:102DAA00984003023053E0FFFD3395E0FC74DB2DBD
:102DBA00F58274053CF583E0FEEF3395E0FC74F789
:102DCA002DF58274023CF583E06E60030230429076
:102DDA0004EEE004F080B7E49004EEF09005DCE045
:102DEA00FF9004EEE0FEC3EF6480F8EE6480984042
:102DFA0003023053E0FFFD3395E0FC74DD2DF582CC
:102E0A0074053CF583E0FEEF3395E0FC74F72DF58D
:102E1A008274023CF583E06E60030230429004EE55
:102E2A00E004F080B7E49004EEF09005E5E0FF904E
:102E3A0004EEE0FEC3EF6480F8EE6480984003027B
:102E4A003053E0FFFD3395E0FC74E62DF5827405FE
:102E5A003CF583E0FEEF3395E0FC74F72DF58274C0
:102E6A00023CF583E06E60030230429004EEE00417
:102E7A00F080B7E49004EEF09005EEE0FF9004EEE7
:102E8A00E0FEC3EF6480F8EE64809840030230539A
:102E9A00E0FFFD3395E0FC74EF2DF58274053CF5F7
:102EAA0083E0FEEF3395E0FC74F72DF58274023C63
:102EBA00F583E06E60030230429004EEE004F08095
:102ECA00B7E49004EEF09005F7E0FF9004EEE0FE20
:102EDA00C3EF6480F8EE6480984003023053E0FF49
:102EEA00FD3395E0FC74F82DF58274053CF583E01A
:102EFA00FEEF3395E0FC74F72DF58274023CF583FE
:102F0A00E06E60030230429004EEE004F080B7E421
:102F1A009004EEF0900600E0FF9004EEE0FEC3EFAE
:102F2A006480F8EE6480984003023053E0FFFD337A
:102F3A0095E0FC74012DF58274063CF583E0FEEF02
:102F4A003395E0FC74F72DF58274023CF583E06E4C
:102F5A0060030230429004EEE004F080B7E490048B
:102F6A00EEF0900609E0FF9004EEE0FEC3EF648005
:102F7A00F8EE6480984003023053E0FFFD3395E099
:102F8A00FC740A2DF58274063CF583E0FEEF339556
:102F9A00E0FC74F72DF58274023CF583E06E600361
:102FAA000230429004EEE004F080B7E49004EEF0C0
:102FBA00900633E0FF9004EEE0FEC3EF6480F8EE83
:102FCA006480984003023053E0FFFD3395E0FC74BF
:102FDA00342DF58274063CF583E0FEEF3395E0FC70
:102FEA0074F72DF58274023CF583E06E6002804826
:102FFA009004EEE004F080B8E49004EEF090063C11
:10300A00E0FF9004EEE0FEC3EF6480F8EE6480987F
:10301A005037E0FFFD3395E0FC743D2DF5827406D0
:10302A003CF583E0FEEF3395E0FC74F72DF58274EE
:10303A00023CF583E06E60069004EDE0FF22900406
:0B304A00EEE004F080B77F00227F0062
:013055002258
:10369B0061E00100000000000000000000000000DD
:1036AB00000000000000000000000000000000000F
:1036BB0000000000000000000000000000000000FF
:1036CB000000000000002214FF5522000800080033
:1036DB00082214081422080008000800007F3C0789
:1036EB003C7F007F44442C370000000000000000AA
:1036FB000000000000000000000806403100007FC1
:10370B0049494949497F00000000003F2424243FD8
:10371B00A464243F242424200000000000000000A7
:10372B00000000000000000080000000000000000E
:10373B00000000000000000000000000008000807E
:10374B00008000808E8A8E000001020202010000C0
:10375B0000000000000000000020207E80027E425E
:10376B00427E427E42427E0200020CF1012132AACD
:10377B00A4A4A4AA320101010000000000C3C300ED
:10378B000000000101010101010000010101010123
:10379B000100000000030300000000010101010112
:1037AB00010000000000000000FC0202028C00007F
:1037BB0000000000000000000020203F202000003F
:1037CB00203F202020100F00000000060600000004
:1037DB0000000000000000000000000000000000DE
:1037EB0000000000000000000000000000000000CE
:1037FB0000000000000000000000000000000000BE
:10380B0000000000000000000000000000000000AD
:10381B000000000000000000000808F80808000085
:10382B0008F808080810E000000000181800000055
:10383B00000808080808080000080808080808001D
:10384B00000808080808080000080808080808000D
:10385B0000080808080808000008080808080800FD
:10386B0000080808080808000008080808080800ED
:10387B00000000006100000000070810100807009E
:10388B0000F008040408F000000008081F00000006
:10389B0000000404FC040400000E101010100F00B4
:1038AB00000C142444840C00000C101010110E009A
:1038BB000018048484443800000001020C1F00002F
:1038CB000060A02424FC2424001F111111101000EF
:1038DB000098040404887000000708111109000007
:1038EB0000F088040404F8000018101011161800DA
:1038FB000000007C80000000000E111010110E0063
:10390B000038448484443800000F1010100807005E
:10391B00008048444488F0000000031C07000000AE
:10392B00043CC44040E41C04101F1111110E000094
:10393B0004FC040404887000030C101010101C000D
:10394B00E018040404081000101F101010080700E2
:10395B0004FC04040408F000101F111117100800D8
:10396B0004FC0404C4041800101F111117100800E4
:08397B0004FC0400C000000080
:10510900EF339284EFA2E69283A2E59282A2E4921F
:1051190081A2E39280A2E292C6A2E192C51392FF14
:015129002263
:10502400C454F02400F582E43400F583E5822EF5BF
:0850340082E43583F583E0FFFF
:10503C00D2A5D2A4C2A3C2A600001251090000D26C
:05504C00A600D2A32222
:0E50A2001250B07F221250B07F021250B00F99
:1050B000D2A5C2A4C2A3C2A600001251090000D208
:0550C000A600D2A322AE
:10498D00E4F595759601F5B375B401C2C11253A83E
:10499D00D2C1120026007FAE1250B07FD51250B09A
:1049AD007F801250B0007FA81250B07F271250B0F8
:1049BD00007FD31250B0E4FF1250B0007F40125070
:1049CD00B07F8D1250B07F141250B07FA11250B035
:1049DD007FC81250B0007FDA1250B07F121250B063
:1049ED00007F811250B07FAF1250B0007FD91250AE
:1049FD00B07F251250B0007FDB1250B07F201250D7
:104A0D00B0007FA41250B0007FA61250B0007FAF4F
:034A1D000250B094
:1051CD007FAE1250B0007F8D1250B07F101250B0D4
:0951DD00001253A8C2E902539923
:10529D007FAE1250B0007F8D1250B07F101250B003
:0452AD0000C2E92230
:10527300D2E91253A87F8D1250B07F141250B000A0
:055283007FAF0250B0F6
:0E48F8009006C7EBF0A3EAF0A3E9F0A3EDF001
:10490600E49006CEF0A3F0FEFD7F201250B0E4FF47
:104916001250B07F211250B09006CAE0FF1250B07C
:10492600A3E0FF1250B07F221250B0A3E0FF125056
:10493600B0A3E0FF1250B09006CCE0FD9006CDE0AB
:10494600FFEDD39F50409006CAE0FE9006CBE0FFF5
:10495600EED39F502E9006C7E0FBA3E0FAA3E0F942
:104966009006CEE0F8A3E0F58288831234C2FF12E7
:10497600503C9006CFE004F070069006CEE004F0BE
:064986000E80C80D80B692
:01498C002208
:06421A009006DE1235885B
:10422000E4FBFA792078419006DEE0FCA3E0FDA3F0
:10423000E0FEA3E0FF1232571233329006E2EFF0B5
:10424000FCE41232FEA804A905AA06AB079006DE1C
:10425000E0FCA3E0FDA3E0FEA3E0FF12305912331F
:10426000329006E3EFF09006DEE0FCA3E0FDA3E071
:10427000FEA3E0FF1233327C007D0A1234EFAC065D
:10428000AD07E41232F9C004C005C006C007E4FF60
:10429000FE7D207C419006DEE0F8A3E0F9A3E0FA81
:1042A000A3E0FB12314ED003D002D001D000123077
:1042B00059123332AD077F201250B0E4FF1250B0D4
:1042C0007F211250B07F2E1250B07F351250A2E4E1
:1042D000FEEE64069006E2601AE0C454F02400F595
:1042E00082E43400F583E5822EF582E43583F5839C
:1042F000E0801AE0C454F02400F582E43400F58331
:10430000E5822EF582E43583F583E04401FF125007
:104310003C0EEEB410BB7F211250B07F361250B06D
:104320007F3D1250A2E4FE9006E3E01250240EEE10
:10433000B410F47F211250B07F461250B07F4D125E
:0D43400050A2E4FEED1250240EEEB410F772
:01434D00224D
:10512A007401A807088002C333D8FCF59DE4F5BDD5
:0F513A00EF4488F5BC7F02125246D2ADD2AF22AD
:03002B000247A7E2
:0D47A700C0E0C0F0C083C082C0D075D00853
:1047B4009006A9E4F0A3F0FFFEA3F0A3F0C2ADF5C8
:1047C400BC12535D7F0312522F9006A9E4F0A3EFAD
:1047D400F012535D7F0312522F7E009006A9E0FC75
:1047E400A3E0FDD39FEC9E401DED9FFBEC9EFAC31E
:1047F400EB9423EA9400504EED2FFFEE3CC313FEDE
:10480400EF13FFA38030C3ED9FEC9E502C9006A9BC
:10481400E0FCA3E0FDC3EF9DFDEE9CFCC3ED9423FF
:10482400EC94005021E02FFF9006A9E03EC313FE54
:10483400EF13FF9006ABEE80099006A9E0FFA3E01A
:08484400A3CFF0A3EFF0D2AD09
:0B484C00D0D0D082D083D0F0D0E0327A
:10522F00E4F5BDEF4488F5BC00000000E5BC30E4B8
:07523F00FB75BC00AFBD22AE
:1050C500AC07E41232FE9006EBE0F8A3E0F9A3E0AA
:1050D500FAA3E0FB12314EE4FBFA798078431232F1
:0250E500572250
:10505100E4FDFCF5BDF5BEEF4488F5BC00000000A1
:10506100E5BC30E4FB75BC00AFBDEF75F004A4FDF9
:09507100ACF0AFBEED4FAE04FF40
:01507A002213
:10005E00AD07AC06E41232F99006E6E0F8A3E0F93B
:10006E00A3E0FAA3E0FB12314EE4FBFA7980784468
:04007E0012325722C1
:10524600AE071FEE60107C137D88ED1DAA04700169
:065256001C4A60EC80F42C
:01525C00222F
:0C3983004102F4004102F5004102F60090
:10507B00E5A2543FF5A253877F759850438E40535A
:10508B008EFE53890F438920758BFA758DFAC2AB4F
:07509B00D28ED2ACD2AF228D
:0953B7002000FDEFD200F599225F
:104F58009006FFEBF0A3EAF0A3E9F09006FFE0FB70
:104F6800A3E0FAA3E0F91234A960179006FFA3E4BE
:104F780075F001123501A9F0FA1234A9FF1253B7DE
:034F880080D922AB
:03002300024E4149
:104E4100C0E0C0F0C083C082C0D075D00830981BCC
:104E5100C2989004EBE475F001123501FE74F72558
:104E6100F0F58274023EF583E599F0309904C29918
:0D4E7100C200D0D0D082D083D0F0D0E0328B
:03004300024E7EEC
:104E7E00C0E0C083C082C0D075D008E59A30E0177C
:104E8E00539AFE9002F4E0FF04F074E02FF582E4F2
:104E9E003402F583E59BF0E59A30E105539AFDC2A5
:0A4EAE0001D0D0D082D083D0E032D2
:0953C0002001FDEFD201F59B2252
:104F8B00900702EBF0A3EAF0A3E9F0900702E0FB35
:104F9B00A3E0FAA3E0F91234A96017900702A3E487
:104FAB0075F001123501A9F0FA1234A9FF1253C0A2
:034FBB0080D92278
:1051FF0053BAFE759A50438E0475D7C075D6FD43CA
:08520F008E1075AF01D2AF2231
:10525D007E027FF49002F7E4F0A3DFFCDEFAE49027
:05526D0004EBF0A3F0CA
:015272002219
:0F531F007F649002E0E4F0A3DFFCE49002F4F07E
:01532E00225C
:1051490053BAFD75AC1043AC4043D10275D5C07557
:0B515900D4FD43D10843AF08D2AF22C1
:03008B0002519986
:10519900C0E0E5AC30E00653ACFE85AD80E5AC304F
:0A51A900E10553ACFDC202D0E03274
:0953C9002002FDEFD202F5AD2235
:104FBE00900705EBF0A3EAF0A3E9F0900705E0FBFC
:104FCE00A3E0FAA3E0F91234A96017900705A3E451
:104FDE0075F001123501A9F0FA1234A9FF1253C966
:034FEE0080D92245
:1051640043BA0475841043844043D12075D3C07579
:0B517400D2FD43D18043AF10D2AF2228
:030093000251B364
:1051B300C0E0E58430E0065384FE858580E58430D5
:0A51C300E1055384FDC203D0E03281
:0953D2002003FDEFD203F5852252
:104FF100900708EBF0A3EAF0A3E9F0900708E0FBC3
:10500100A3E0FAA3E0F91234A96017900708A3E41A
:1050110075F001123501A9F0FA1234A9FF1253D229
:0350210080D92211
:0D001600E4F5C7F5C5F5C675C380F5C42235
:1052170075C78175C5018FC4EEF5C375C65A75C6C6
:07522700A500AFC212001642
:01522E00225D
:1051E60075C78175C5028FC4EEF5C3AF058FC2754D
:0951F600C65A75C6A50002001698
:1052880075C78175C5038FC4EEF5C375C65A75C653
:05529800A50002001654
:10453E009006BCEEF0A3EFF09006C0EBF0A3EAF00D
:0B454E00A3E9F09006BEECF0A3EDF036
:10455900E49006C3F0A3F0FFA3F0A3F0D3ED9420F9
:10456900EC94004001229006BCE0FCA3E0FDEC5471
:1045790001FEAF059006BFE02FFF9006BEE03EFEAC
:10458900D3EF9420EE940040037F0022AF05AE04E0
:10459900125288E49006C3F0A3F09006BEE0FEA391
:1045A900E0FF9006C3E0FCA3E0FDC39FEC9E5067CB
:1045B9009006BCE0FEA3E0FF9006C0E0FBA3E0FA92
:1045C900A3E0F98D828C831234C2FD1251E6900664
:1045D900BCE0FEA3E0FF1252179006C0E0FBA3E087
:1045E900FAA3E0F9A3E0FCA3E0F5828C831234C2BC
:1045F9006F60061200167F00229006BDE004F0707D
:10460900069006BCE004F09006C4E004F0708B90BC
:0C46190006C3E004F080831200167F014D
:014625002272
:103DC8009006ADEEF0A3EFF09006B1EBF0A3EAF0A9
:0B3DD800A3E9F09006AFECF0A3EDF0C3
:103DE300E49006B4F0A3F0A3F0A3F0A3F0A3F0A330
:103DF300F0A3F0D3ED9420EC940040037F002290D5
:103E030006ADE0FCA3E0FDEC5401FEAF059006B661
:103E1300F0A3EFF09006B0E02FFF9006AFE03EFE78
:103E2300D3EF9420EE940040037F0022EC54FEFE77
:103E33007F009006B8F0A3EFF0A3EEF0A3EFF090AD
:103E430006B4F0A3F09006BAE475F001123501AFA1
:103E5300F0FE1252179006B4A3E02422F8A607E05E
:103E630004F070069006B4E004F0C39006B5E09445
:103E7300209006B4E0940040CCE49006B4F0A3F0A4
:103E83009006AFE0FEA3E0FF9006B4E0FCA3E0FDE4
:103E9300C39FEC9E50349006B1E0FBA3E0FAA3E08D
:103EA300F98D828C831234C2FF9006B6E475F0015B
:103EB300123501742225F0F8A6079006B5E004F048
:103EC30070069006B4E004F080B69006B8E0FEA356
:103ED300E0FF1252889006B8E0FFA3E0A3CFF0A35F
:103EE300EFF0E49006B4F0A3F09006B4E0FCA3E096
:103EF300FDC39420EC9400504C9006BAE0FEA3E07E
:103F0300FF74222DF8E6FD1251E69006ADE0FEA304
:103F1300E0FF1252179006B4A3E02422F8E66F6084
:103F2300061200167F00229006BBE004F070069094
:103F330006BAE004F09006B5E004F070069006B40B
:0A3F4300E004F080A41200167F01D4
:013F4D002251
:104EEF00E5A254CFF5A2E4F5D8F5E9F5F975D902A5
:104EFF00F5F275EA2075FA2075DA4275F34075EB15
:104F0F002075FB2075DB4275F48075EC2075FC2055
:064F1F0075DC42D2DE2227
:104CDE00E4F5B4F5B343BA80F5F190FFF2F090FF2E
:104CEE00F07403F0A374E8F090FF20E4F0A3F0FC5E
:104CFE00FDFE7BE87A03F9F8123517E47B64FAF9C6
:104D0E00F8124DBA90FF22EEF0A3EFF0A37408F064
:0B4D1E0043F50443F58053BA7F80FE8C
:104D2900E4F5CAF5C943BA80F5F190FFF2F090FFB6
:104D3900F07403F0A374E8F090FF30E4F0A3F0FC02
:104D4900FDFE7BE87A03F9F8123517E47B64FAF97A
:104D5900F8124DBA90FF32EEF0A3EFF0A37408F009
:0A4D690043F50843F58053BA7F229A
:0A4451009006A1ECF0A3EDF0AB071C
:10445B00A312359400000000E49006A7F0A3F0EB44
:10446B00146019146022146037146028240470300F
:10447B009006A312359446900000802E9006A3124E
:10448B003594462CCC0080229006A312359445AC73
:10449B00C80080169006A312359444ACC000800A65
:1044AB009006A3123594452CD000E4F594F5934374
:1044BB00BA80F5F190FFF27403F09006A3E0FCA331
:1044CB00E0FDA3E0FEA3E0FF12333290FFF0EEF02D
:1044DB00A3EFF090FF50E4F0A3F0FBFA79C8784219
:1044EB009006A3E0FCA3E0FDA3E0FEA3E0FF1232E5
:1044FB0057C004C005C006C0079006A1E0FCA3E0AE
:10450B00FDE41232F9D003D002D001D00012314EAB
:10451B0012333290FF52EEF0A3EFF09006A7EEF0BD
:10452B00A3EFF090FF547408F043F52043F580534C
:02453B00BA7F45
:01453D00225B
:104C3D00900714EEF0A3EFF0438E805389F09007A8
:104C4D0014E0FEA3E0FFE4FCFD7B16FAF9F8123543
:104C5D0017EFF404F58A900714E0FEA3E0FFE4FCDF
:104C6D00FD7B16FAF9F8123517C3E49FFFE49EFE9B
:104C7D0074019DFDE49CFC78081235748F8CC28DF7
:034C8D00D28C22A4
:10532F00E5A254F3F5A2E4F5CF75CDC075CE5022AA
:03004B000253FE5F
:0653FE0075CDC0D2913212
:1052B100438E805389F0758A01758C01D28CD2A9F5
:0352C100D2AF2247
:03000300020032C6
:01003200329B
:0953DB00D2B2D288D2A8D2AF22CE
:0300130002003FA9
:01003F00328E
:0953E400D2B3C28AD2AAD2AF22D0
:0300530002004068
:01004000328D
:06540400438F10D2AF221D
:03005B000200415F
:01004100328C
:06540A00438F20D2AF2207
:0300830002004236
:01004200328B
:06541000438F40D2AF22E1
:0300330002002E9A
:04002E005387DF32E3
:0853F6005387DFD2AED2AF22D3
:1052D7007D3C7C00E4FF12445112535D53F5DFC25D
:0252E70086221D
:1052E9007D3C7C007F0212445112538A53F5DFC280
:0252F90086220B
:1052FB007D3C7C007F0312445112537B53F5DFC27C
:02530B008622F8
:0953ED00AD07AC067F0402445137
:10530D007D3C7C007F0412445112539953F5DFC24A
:02531D008622E6
:065416008FAA75AB802295
:1052C400E4F5CB75CC0E43CB0143CC01C2E9D2EA61
:0352D400D2EB22F8
:104B2500E49006EFF0A3123594000000007F041214
:104B3500522F9006EFEFF0C0079006EB1235944028
:104B4500866666D0071250C59006F01235887FFF3D
:104B55001253B79006EFE0FF1253B79006F0E0FC52
:104B6500A3E0FDA3E0FEA3E0FF1233321253B7909A
:104B750006F0E0FCA3E0FDA3E0FEA3E0FF12333264
:014B8500220D
:1050E700E4900716F07F0512522F900716EFF07F16
:1050F700FF1253B7900716E0FF1253B7900716E059
:01510700FFA8
:015108002284
:1046EF004E4F203A20005331203A20005332203AC7
:1046FF0020005333203A20005334203A2000533502
:10470F00203A20004D41494E204D454E55200A007C
:10471F00554846204D4F4445200A004254204D4FE6
:10472F004445200A0054455354204D4F4445200A18
:10473F000042415454455259204D4F4445200A00E0
:10474F00425A204D4F4445200A0055313420706F96
:10475F0077657220676F6F64200055313420706F5A
:10476F00776572204E47204F4350204F5450200002
:10477F0042415454455259A1A14D4F444520494EF1
:10478F000A00425A204D4F444520494E0A004E4FD1
:08479F005420534554200A0088
:04398F0041071800D4
:10485700E490069EF0A3F0A3F07F0312522F900678
:104867009EEFF0C394CD40037F002212535D7F0378
:1048770012522F90069FEFF012535D7F0312522FB3
:104887009006A0EFF090069FE02FFFE433C313EFED
:104897001390069EF012535D7F0312522FEFD394AD
:1048A700CD40F290069EE0C3941250061252D77F75
:1048B700012290069EE0C3943B50061252D77F0216
:1048C7002290069EE0C3946950061252D77F0322B6
:1048D70090069EE0C3949B50061252D77F04229005
:1048E700069EE0C394CD50061252D77F05227F0063
:0148F700229E
:103C2B00E490070BF0A3F0A3F07F0312522F900741
:103C3B000BEFF0C394CD403012535D7BFF7A467986
:103C4B00EF124F587FFF1253B790070BE0FF125341
:103C5B00B77BFF7A4679EF124FF190070BE0FF121B
:103C6B0053D253F5DF7F00221253997F0312522F49
:103C7B0090070CEFF012535D7F0312522F90070D3C
:103C8B00EFF090070CE02FFFE433C313EF13900713
:103C9B000BF0C3941250337BFF7A4679F5124F58D1
:103CAB007FFF1253B790070BE0FF1253B77BFF7ADE
:103CBB004679F5124FF190070BE0FF1253D27D3C82
:103CCB007C007F011244517F012290070BE0C394CB
:103CDB003B50337BFF7A4679FB124F587FFF1253D1
:103CEB00B790070BE0FF1253B77BFF7A4679F512BB
:103CFB004FF190070BE0FF1253D27D3C7C007F020B
:103D0B001244517F022290070BE0C3946950337B1E
:103D1B00FF7A477901124F587FFF1253B790070B69
:103D2B00E0FF1253B77BFF7A477901124FF19007EF
:103D3B000BE0FF1253D27D3C7C007F031244517F7A
:103D4B00032290070BE0C3949B50337BFF7A477998
:103D5B0007124F587FFF1253B790070BE0FF125318
:103D6B00B77BFF7A477901124FF190070BE0FF12F7
:103D7B0053D27D3C7C007F041244517F0422900778
:103D8B000BE0C394CD50337BFF7A47790D124F581C
:103D9B007FFF1253B790070BE0FF1253B77BFF7AED
:103DAB00477901124FF190070BE0FF1253D27D3C84
:0C3DBB007C00E4FF1244517F05227F00D1
:013DC70022D9
:0540C000900717EFF06E
:1040C500900718E024FB603B14605014607124FDD8
:1040D500700302417214700302419924FC700302BB
:1040E50041CE24FB700302420824146003024210EF
:1040F500900717E024FB700280347BFF7A47791321
:10410500124F58900717E024FD600504700480469F
:1041150080147BFF7A47791F124F58900717E024C8
:10412500FD600B04701090071874070241BC9007DE
:104135001874050241BC7BFF7A47792A124F5890C3
:104145000717E024FD600F24FE601224037015900C
:104155000718740580619007187406805A9007182F
:10416500740A80537BFF7A477934124F58900717AA
:10417500E024FD600824FE600B2403700E900718F0
:10418500740B8033900718740F802C7BFF7A477966
:1041950040124F58900717E024FD600F24FE60126F
:1041A5002403701C900718740A800C900718740A71
:1041B50080059007187414F0E4900717F00240C5C5
:1041C5007BFF7A47794F124F58900717E024FD601F
:1041D5002124FE602124037021B2E930E925125320
:1041E500A87BFF30E8067A47795980147A477969C0
:1041F500800EB2EA800DB2EB80097BFF7A47797FAA
:10420500124F587BFF7A47799180067BFF7A477971
:044215009D124F584F
:014219002282
:1030560002339EE86480F8E933E83360110460F0D7
:10306600ED33EC337009E8FCE9FDEAFEEBFF2204E0
:1030760060DED3EB9FEA9EE99DE8C2E78CF0C2F7DB
:1030860095F0400CE8CCF8E9CDF9EACEFAEBCFFBA7
:1030960012336985D0F05804700320D5B3E8047064
:1030A600075002B2D50233A892D5EC0460F7E4CCFF
:1030B600C0E0C398F8603B94186008400DD0E0FB70
:1030C600023380E4FBFAC9FC8028E830E406E4C950
:1030D600FBE4CAFCE830E305E4C9CACBFCE85407C4
:1030E6006010F8C3E913F9EA13FAEB13FBEC13FCCF
:1030F600D8F130F52FC3E49CFCEF9BFFEE9AFEED72
:1031060099FDD0E0FBEF4E4D4C701222DB030233EB
:10311600A5EC2CFCEF33FFEE33FEED33FDED30E78F
:10312600EB023380EF2BFFEE3AFEED39FDD0E0FBEC
:1031360050130BBB00030233A8ED13FDEE13FEEF95
:0831460013FFEC13FC023380BF
:10314E00EC4D6011E8497017ED33EC3304600DE47B
:10315E00FCFFFEFD22E933E8330470F802339E12C1
:10316E00336958046009E4CC2481500628500902C2
:10317E0033A82840030233A5C0E0EB4A7044B9805F
:10318E0006D0E0FB023394EF4E701CBD8008EBFFBF
:10319E00EAFEE9FD80EBE98DF0A4FEE5F0023237A0
:1031AE00E9CDF9EAFEEBFFEF89F0A4FCE5F0CE895C
:1031BE00F0A42EFFE435F0CD89F0A42DFEE435F019
:1031CE008067EF4E7005BD80D780C3EF8BF0A4AC47
:1031DE00F0EE8BF0A42CFCE435F0F8EF8AF0A42C82
:1031EE00E5F038FCE433CB8DF0A42CFCE5F03BF895
:1031FE00EE8AF0A42CFCE5F038F8E433CF89F0A485
:10320E002CFCE5F038CF3400CE89F0A42FFFE5F08A
:10321E003EFEE433C98DF0A42EFEE5F039CD8AF0E2
:10322E00A42FFFE5F03EFEE43DFD33D0E0FB50075A
:10323E000BBB000F0233A8EC2CFCEF33FFEE33FE7A
:06324E00ED33FD023380A8
:103254000233A8EC5D046005E85904700302339E50
:10326400123369580460F6EC4860F2EC7004FDFE19
:10327400FF22C860DB2481C85009C398600250064D
:103284000233A59850CAF582E9294B4A7005AB82EE
:1032940002339475F0007C1A7880C3EF9BEE9AEDAC
:1032A40099400DC3EF9BFFEE9AFEED99FDE842F0C5
:1032B400DC23ACF0D0E0FFD0E0FED0E0FDAB822018
:1032C400E7101BEB60BAEC2CFCEF33FFEE33FEEDA2
:1032D40033FD023380E803F830E705C0F075F000F1
:1032E400EF2FFFEE33FEED33FD40B830E7C280AA86
:1032F40075F020800E75F010800575F0087D007E55
:10330400007F003392D530D503123566EC3340107C
:10331400EF33FFEE33FEED33FDEC33FCD5F0ED225D
:0E332400E5F0247EA2D513CC92E7CDCEFF2299
:10333200EDD2E7CD33EC3392D524814006E4FFFE93
:10334200FDFC22FCE4CFCECDCC24E0501174FF80F2
:10335200EDC3CC13CCCD13CDCE13CECF13CF04708F
:07336200F030D5DE023566F4
:10336900E9D2E7C933E833F892D5EDD2E7CD33ECAA
:0733790033FC5002B2D52223
:10338000EC30E7100FBF000C0EBE00080DBD0004AE
:103390000BEB6014A2D5EB13FCED92E7FD2274FF5A
:1033A000FCFDFEFF22E480F8A2D574FF13FC7D80B3
:0333B000E480EFC7
:104A2C0002517FE493A3F8E493A34003F68001F2D0
:104A3C0008DFF48029E493A3F85407240CC8C3338B
:104A4C00C4540F4420C8834004F456800146F6DF5A
:104A5C00E4800B0102040810204080903693E47E21
:104A6C00019360BCA3FF543F30E509541FFEE4934F
:104A7C00A360010ECF54C025E060A840B8E493A316
:104A8C00FAE493A3F8E493A3C8C582C8CAC583CA41
:104A9C00F0A3C8C582C8CAC583CADFE9DEE780BEF9
:013993000033
:1033B300E709F608DFFA8046E709F208DFFA803EFC
:1033C30088828C83E709F0A3DFFA8032E309F608E9
:1033D300DFFA8078E309F208DFFA807088828C8351
:1033E300E309F0A3DFFA806489828A83E0A3F60805
:1033F300DFFA805889828A83E0A3F208DFFA804CDF
:1034030080D280FA80C680D4806980F280338010B5
:1034130080A680EA809A80A880DA80E280CA80331E
:1034230089828A83ECFAE493A3C8C582C8CCC58396
:10343300CCF0A3C8C582C8CCC583CCDFE9DEE78066
:103443000D89828A83E493A3F608DFF9ECFAA9F0E5
:10345300EDFB2289828A83ECFAE0A3C8C582C8CC3B
:10346300C583CCF0A3C8C582C8CCC583CCDFEADE54
:10347300E880DB89828A83E493A3F208DFF980CCB6
:1034830088F0EF60010E4E60C388F0ED2402B404AF
:103493000050B9F582EB2402B4040050AF23234556
:0634A30082239034037344
:1034A900BB010689828A83E0225002E722BBFE0221
:0934B900E32289828A83E4932254
:1034C200BB010CE58229F582E5833AF583E02250BF
:1034D20006E92582F8E622BBFE06E92582F8E22209
:0D34E200E58229F582E5833AF583E4932223
:1034EF00EF8DF0A4A8F0CF8CF0A428CE8DF0A42EF1
:0234FF00FE22AB
:10350100A3F8E0C5F025F0F0E5821582700215837D
:06351100E0C838F0E822DA
:10351700E88FF0A4CC8BF0A42CFCE98EF0A42CFC53
:103527008AF0EDA42CFCEA8EF0A4CDA8F08BF0A4D1
:103537002DCC3825F0FDE98FF0A42CCD35F0FCEB30
:103547008EF0A4FEA9F0EB8FF0A4CFC5F02ECD39F5
:0F355700FEE43CFCEAA42DCE35F0FDE43CFC2262
:104DBA00C2D5E830E70FB2D5E4C39BFBE49AFAE424
:104DCA0099F9E498F8EC30E717B2D5124DF012369B
:104DDA0001E4C39BFBE49AFAE499F9E498F88003A6
:104DEA0012360130D50DE4C39FFFE49EFEE49DFD1B
:044DFA00E49CFC2217
:0E356600C3E49FFFE49EFEE49DFDE49CFC2276
:10357400E86010ECA2E713FCED13FDEE13FEEF136D
:04358400FFD8F0225A
:0C358800ECF0A3EDF0A3EEF0A3EFF022B6
:10359400A8828583F0D083D0821235AB1235AB126A
:1035A40035AB1235ABE473E493A3C583C5F0C5838F
:1035B400C8C582C8F0A3C583C5F0C583C8C582C881
:0135C40022E4
:1035C50075F008758200EF2FFFEE33FECD33CDCCBD
:1035D50033CCC58233C5829BED9AEC99E582984040
:1035E5000CF582EE9BFEED9AFDEC99FC0FD5F0D61D
:1035F500E4CEFBE4CDFAE4CCF9A88222B800C1B947
:103605000059BA002DEC8BF084CFCECDFCE5F0CB84
:10361500F97818EF2FFFEE33FEED33FDEC33FCEBBD
:1036250033FB10D703994004EB99FB0FD8E5E4F978
:10363500FA227818EF2FFFEE33FEED33FDEC33FC65
:10364500C933C910D7059BE99A4007EC9BFCE99A59
:10365500F90FD8E0E4C9FAE4CCFB2275F010EF2F9E
:10366500FFEE33FEED33FDCC33CCC833C810D7079E
:103675009BEC9AE899400AED9BFDEC9AFCE899F8D9
:0E3685000FD5F0DAE4CDFBE4CCFAE4C8F9226C
:00000001FF
