:0300000002604754
:0C604700787FE4F6D8FD75814102608E80
:106A380065786974696E6720736C656570206D6F21
:106A4800646500656E746572696E6720736C656550
:076A580070206D6F64650002
:10633300E4900442F0A3F0A3F0A312407500000020
:1063430000E4900449F0A3F0A3F0A3F0A3F0126DCE
:10635300051269DF126C07126B6C126B87126AA746
:10636300126D3B12615D126CBC7BFF7A3679711240
:10637300639B126DF6125EEF900442EFF024FD6012
:106383000C240270ED7BFF7A6A793880067BFF7AF2
:086393006A794B1257F980DA18
:106CBC0053CB1F43CCE043CB1043CC10C2EDC2EFFF
:036CCC00D2EE22E3
:0561E200900535EFF00F
:1061E700E4A3F0A3F0126D7D7F01126E2B7FFC12EA
:1061F7006E2B7F01126E2B7F01126E2B900535E0FF
:10620700FF126E2B126D8D9000F1E070037FFF225D
:106217009000F1E0FF900536E0FCA3E0FDC39F741A
:1062270080F8EC648098501F74002DF58274003C50
:10623700F583E0FF126E2B900537E004F070D190E4
:106247000536E004F080C9900002E0B401037F0145
:03625700227FFFA4
:01625A002221
:10688400126D7D7F01126E2B7FFC126E2B7F021224
:106894006E2BE4FF126E2B126D8D9000F1E06405F7
:1068A40060037FFF22900003E0B40104A3E0FF2211
:0368B4007FFF2241
:0C0016007F547EF77D18DDFEDEFCDFFA73
:0100220022BB
:0E6D8D0000007F027EAF7D4BDDFEDEFCDFFAF4
:016D9B0022D5
:0E6D9C0000007F0D7E9C7D53DDFEDEFCDFFAE5
:016DAA0022C6
:0E6DAB0000007F017ED87D23DDFEDEFCDFFAD6
:016DB90022B7
:0E6DBA0000007F2B7E067DCBDDFEDEFCDFFAC7
:016DC80022A8
:0E6DC90000007FFD7E237DDCDDFEDEFCDFFAB8
:016DD7002299
:0E6DD80000007F117ED07D1BDDFEDEFCDFFAA9
:016DE600228A
:0E6DE70000007F057E347DC3DDFEDEFCDFFA9A
:016DF500227B
:040006007F0EDFFE8C
:01000A0022D3
:0E6DF60000007F097E687D8BDDFEDEFCDFFA8B
:016E0400226B
:104DDA00204E4F54205265616420434D44200020E8
:104DEA00696E64795F7265616473656E736F72630D
:104DFA006F646520656E64200020696E64795F7255
:104E0A006561647273736920656E64200020696E3F
:104E1A0064795F7265616474656D70207374617220
:104E2A0074200D0A0020696E64795F72656164748A
:104E3A00656D7020656E64200D0A0020696E6479C4
:104E4A005F7265616474656D7020656E642000240C
:104E5A000349006D00700069006E006A0053006526
:104E6A00007200690061006C004E0075006D003030
:104E7A000031004003BFFCBFFCBFFC000001001270
:104E8A0000210000001000000000000000050000E2
:104E9A0000000000000600000000000000100000F2
:104EAA000000000000110088E1F3C000000000F0DB
:104EBA00000602000001001200210000000200A00A
:104ECA0000A002000000030000000000000200A091
:104EDA0000A0020000611B0206000000000500009D
:104EEA0000000000000207010000000000050000A9
:104EFA00000000000004070000000000000507D0C1
:104F0A0007000000000607DC000000000007070099
:104F1A002000000000120BFFFF0F00000005000038
:104F2A00000000000000050000000000000005006D
:104F3A00000000000000060000000000000005005C
:104F4A00000000000000050000000000000006004C
:104F5A00000000000100000002000000270000001D
:104F6A00872E0D0001000100020000008F2E0D00A7
:104F7A00000000000000050000000000000006001C
:044F8A000000000023
:08697F004104A9FF4104AA0034
:0B645F007B027F047A00E4FDFC7E0A53
:10646A00900503EEF0A3EFF0A3ECF0A3EDF0A3EA9E
:10647A00F0A3EBF07F01126BFEE4FF126BFE9005B6
:10648A0003A3E0FF126BFE900503E0FF126BFE9080
:10649A000507A3E0FF126BFE900507E0FF126BFEF3
:1064AA00900505A3E0FF126BFE900505E0FF026B65
:0164BA00FEE3
:1068170090054AEEF0A3EFF0E4FF126BFEE4FF12DF
:106827006BFE90054AA3E0FF126BFE90054AE0FF5E
:10683700126BFEE4FF126BFEE4FF126BFEE4FF1225
:076847006BFEE4FF026BFE93
:10559C00E4FF900489E09004ACF0E49004ABF0904C
:1055AC0004ABE0FEFD3395E0FC748A2DF5827404A7
:1055BC003CF583E0FDEEFB3395E0FA74AD2BF58200
:1055CC0074043AF583EDF09004ABE004F0E0B40C15
:1055DC00CEE49004ABF09004ABE0FEFD3395E0FC20
:1055EC0074962DF58274043CF583E0FDEEFB339547
:1055FC00E0FA74B92BF58274043AF583EDF090045B
:10560C00ABE004F0E0B402CE9004AB740FF0900465
:10561C00ABE0FEC3648094A0501AEEFD3395E0FC21
:10562C0074AC2DF58274043CF583E4F09004ABE08B
:10563C0004F080DAE49004ABF09004ABE0FEC364B9
:10564C008094A0501BEEFD3395E0FC74AC2DF582DC
:10565C0074043CF583E02FFF9004ABE004F080D998
:10566C00EF9004CBF0E49004ABF09004ABE0FFC3FC
:10567C00648094A0504AEF3395E0FE74AC2FF58211
:10568C0074043EF583E0FF126E2B9004ABE0FE75C4
:10569C00F010123EFD04FFEE75F010123EFDADF061
:1056AC009004ABE0FB3395E0FA74AC2BF5827404F8
:1056BC003AF583E0FB12591D9004ABE004F080AA8C
:0156CC0022BB
:1064BB00E4900489F0FFEFFD3395E0FC748A2DF531
:1064CB008274043CF583E4F00FEFB40CE9E4FFEFC6
:1064DB00FD3395E0FC74962DF58274043CF583E452
:1064EB00F00FEFB402E9E4FFC3EF64809480501522
:1064FB00EFFD3395E0FC74982DF58274043CF58325
:0A650B00E4F00F80E3E49004A8F030
:016515002263
:104B43009004CE7401F0E4A3F0A3F074FFA3F0A3E8
:104B5300F0E4A3F0A3F0A3F0A3F0A3F0A3F0A3F079
:104B6300A3F0A3F0A3F0A3F0A37412F0E4A3F0C2A4
:104B730008C209A3F09004D3E0FEA3E024F4F58275
:104B830074003EF583E064016003024DD99004D3C1
:104B9300A3E0FF24F5F58274003EF583E09004E082
:104BA300F074F72FF58274003EF583E0FE9004D392
:104BB300E0FCA3E0FD24F6F58274003CF583E07A83
:104BC300002400FFEA3E9004D1F0A3EFF074F92D26
:104BD300F58274003CF583E0FE9004D3A3E024F84F
:104BE300F58274003CF583E02400FFEA3E9004CF95
:104BF300F0A3EFF0ED2408FFE43C9004D5F0FCA310
:104C0300EFF0FD9004CFE0FAA3E0FBAE027802C31D
:104C130033CE33CED8F92DFFEE3C9004D7F0A3EF7B
:104C2300F0EB2402FFE43AFEEF7802C333CE33CE37
:104C3300D8F9FF9004D4E02FF09004D3E03EF09035
:104C430004D1E07004A3E0640570619004D6E0240D
:104C53000EFE9004D5E034009004D9F0A3CEF0E426
:104C63009004CCF0A3F09004CCE0FEA3E0FF90040A
:104C7300DAE02FFD9004D9E03EFC74F42DF5827444
:104C8300003CF583E0FD748A2FF58274043EF583BE
:104C9300EDF09004CDE004F070069004CCE004F055
:104CA3009004CCE07004A3E0640C70BA9004D1E0EB
:104CB3007004A3E064066003024B789004E0E060B4
:104CC30003024DD99004D5E0FEA3E0FF24F8F5825A
:104CD30074003EF583E064C26003024DCDEF240C03
:104CE300FFE43E9004DBF0A3EFF0900489E024FEA0
:104CF300605C147003024DA024026003024DC3E400
:104D03009004CCF0A3F09004CCE0FEA3E0FF900469
:104D1300DCE02FFD9004DBE03EFC74F42DF582749F
:104D2300003CF583E0FD74962FF58274043EF58311
:104D3300EDF09004CDE004F070069004CCE004F0B4
:104D43009004CCE07004A3E0640270BA8069E4903C
:104D530004CCF0A3F09004CCE0FEA3E0FF9004DCCD
:104D6300E02FFD9004DBE03EFC74F42DF58274002B
:104D73003CF583E0FD74962FF58274043EF583EDD4
:104D8300F09004CDE004F070069004CCE004F090C1
:104D930004CCE07004A3E0640270BA801AE49004C7
:104DA30096F09004DBE0FEA3E024F5F58274003E68
:104DB300F583E0900497F09004AAE004F0024B78A6
:104DC300E49004A9F0A3F0024B787BFF7A4D79DAE3
:064DD30012543D024B7872
:014DD90022B7
:1065BF00E490054CF0A3F0FBFAFDFC7F027E0A127B
:1065CF00646A7B0C7F0312646312645FE4FBFAFD61
:1065DF00FC7F067E0A12646A7B107A00E4FDFCFFE2
:1065EF007EF012646A1200169000F4E0B40107C244
:0F65FF00AC124B43D2AC7BFF7A4D79E90257F9CE
:10651600E490054EF0A3F0FBFAFDFC7F027E0A1222
:10652600646A7B0D7A00E4FDFC7F037E0A12646ACE
:1065360012645FE4FBFAFDFC7F067E0A12646A7B46
:10654600087A00E4FDFCFF7EF012646A12001690E1
:1065560000F4E0B40107C2AC124B43D2AC7BFF7A25
:066566004E79030257F913
:10625B00E4900550F0A3F07BFF7A4E79171268B7E4
:10626B00E4FBFAFDFC7F027E0A12646A7B0E7A0065
:10627B00E4FDFC7F037E0A12646A12645FE4FBFA9E
:10628B00FDFC7F067E0A12646A7B077A00E4FDFC44
:10629B00FF7EF012646A126C7C126D8D9000F4E03C
:1062AB00B40107C2AC124B43D2AC7BFF7A4E792FB1
:0C62BB001268B77BFF7A4E79450257F954
:1066E700E4FF900000E060379000F1E0C3940850A9
:1066F70003E4FE22E4FEEEFD3395E0FC74002DF585
:106707008274003CF583E02FFF0EEEB407E890009B
:1067170007E0B507057E007F0122126D7D8000E44A
:02672700FEFF73
:01672900224D
:10009E00EF14B42200400302233C9000B675F00327
:1000AE00A4C58325F0C5837302011C02012502013C
:1000BE002E0201300201320203A902013502014370
:1000CE0002015102015F02016D02017B02018F02EA
:1000DE0001A30201B70201F302020702026B020240
:1000EE007F0202930202A70202BB0202CF02233C4E
:1000FE0002030B0203470203A902035B02039602EB
:10010E0003A90203BC0203D40203A90203FC7FC0AD
:10011E00126BFE7F0680337F40126BFE7F03802AB8
:10012E00802F8003020347E4FF126BFEE4FF126B85
:10013E00FE7F108058E4FF126BFEE4FF126BFE7F11
:10014E0011804AE4FF126BFEE4FF126BFEE4FF80A7
:10015E003CE4FF126BFEE4FF126BFE7F01802EE487
:10016E00FF126BFEE4FF126BFE7F028020E4FF1293
:10017E006BFEE4FF126BFEE4FF126BFE7F030203C5
:10018E00E5E4FF126BFEE4FF126BFE7F02126BFEC4
:10019E00E4FF0203E5E4FF126BFEE4FF126BFE7F49
:1001AE0061126BFE7F1B0203E57F01126BFEE4FF03
:1001BE00126BFE7F01126BFE7F07126BFEE4FF12C5
:1001CE006BFEE4FF126BFEE4FF126BFEE4FF126B9C
:1001DE00FEE4FF126BFEE4FF126BFE7F05126BFE58
:1001EE00E4FF0203E5E4FF126BFEE4FF126BFE7FF9
:1001FE0002126BFE7F070203E57F01126BFEE4FF26
:10020E00126BFE7F02126BFE7F07126BFE7F0112D6
:10021E006BFEE4FF126BFEE4FF126BFEE4FF126B4B
:10022E00FE7F01126BFEE4FF126BFE7F01126BFE6E
:10023E007F07126BFEE4FF126BFEE4FF126BFEE40F
:10024E00FF126BFEE4FF126BFEE4FF126BFEE4FF87
:10025E00126BFE7F05126BFEE4FF0203E5E4FF1254
:10026E006BFEE4FF126BFE7F04126BFE7F07020330
:10027E00E5E4FF126BFEE4FF126BFE7F05126BFED0
:10028E007F070203E5E4FF126BFEE4FF126BFE7FB5
:10029E0006126BFE7F070203E5E4FF126BFEE4FF1E
:1002AE00126BFE7F07126BFE7F070203E5E4FF125F
:1002BE006BFEE4FF126BFE7F12126BFE7F0B0203CE
:1002CE00E57F01126BFEE4FF126BFE7F01126BFEE7
:1002DE007F07126BFEE4FF126BFEE4FF126BFEE46F
:1002EE00FF126BFEE4FF126BFEE4FF126BFEE4FFE7
:1002FE00126BFE7F05126BFEE4FF0203E57F011217
:10030E006BFEE4FF126BFE7F0A126BFE7F01126B17
:10031E00FE7FF8126BFE7F59126BFE7F0D126BFE85
:10032E00E4FF126BFEE4FF126BFEE4FF126BFE7F26
:10033E0005126BFEE4FF0203E5E4FF126BFEE4FF21
:10034E00126BFE7F05126BFEE4FF0203E57F0112C6
:10035E006BFEE4FF126BFE7F08126BFE7F01126BC9
:10036E00FE7F01126BFE7F01126BFEE4FF126BFE2D
:10037E00E4FF126BFEE4FF126BFEE4FF126BFE7FD6
:10038E0005126BFEE4FF804FE4FF126BFEE4FF12DA
:10039E006BFE7F05126BFEE4FF803CE4FF126BFEEA
:1003AE00E4FF126BFE7F06126BFEE4FF80297F01D5
:1003BE00126BFEE4FF126BFEE4FF126BFE7FF01277
:1003CE006BFE7F278016E4FF126BFEE4FF126BFEBE
:1003DE007F05126BFEE4FF126BFEE4FF126BFEE470
:1003EE00FF126BFEE4FF126BFEE4FF0223397F0166
:1003FE00126BFEE4FF126BFE7F01126BFE7F0C127E
:10040E006BFEE4FF126BFEE4FF126BFEE4FF126B59
:10041E00FEE4FF126BFE7F01126BFEE4FF126BFE19
:10042E007F02126BFE7F0C126BFE7F01126BFEE4DD
:10043E00FF126BFEE4FF126BFEE4FF126BFE7F01F8
:10044E00126BFEE4FF126BFE7F03126BFE7F0C122B
:10045E006BFE7F70126BFE7F0D126BFE7F18126BA0
:10046E00FEE4FF126BFE7F01126BFEE4FF126BFEC9
:10047E007F04126BFE7F0C126BFEE4FF126BFE7F8D
:10048E0001126BFE7F07126BFE7F14126BFE7F0153
:10049E00126BFEE4FF126BFE7F01126BFE7F0C12DD
:1004AE006BFE7F01126BFEE4FF126BFEE4FF126B1C
:1004BE00FEE4FF126BFE7F01126BFEE4FF126BFE79
:1004CE007F02126BFE7F0C126BFE7F01126BFEE43D
:1004DE00FF126BFEE4FF126BFEE4FF126BFE7F0158
:1004EE00126BFEE4FF126BFE7F03126BFE7F0C128B
:1004FE006BFE7F84126BFE7F0D126BFE7F18126BEC
:10050E00FEE4FF126BFE7F01126BFEE4FF126BFE28
:10051E007F04126BFE7F0C126BFEE4FF126BFE7FEC
:10052E0001126BFE7F07126BFE7F14126BFE7F01B2
:10053E00126BFEE4FF126BFE7F01126BFE7F0C123C
:10054E006BFE7F02126BFEE4FF126BFEE4FF126B7A
:10055E00FEE4FF126BFE7F01126BFEE4FF126BFED8
:10056E007F02126BFE7F0C126BFE7F01126BFEE49C
:10057E00FF126BFEE4FF126BFEE4FF126BFE7F01B7
:10058E00126BFEE4FF126BFE7F03126BFE7F0C12EA
:10059E006BFE7F98126BFE7F0D126BFE7F18126B37
:1005AE00FEE4FF126BFE7F01126BFEE4FF126BFE88
:1005BE007F04126BFE7F0C126BFEE4FF126BFE7F4C
:1005CE0001126BFE7F07126BFE7F14126BFE7F0112
:1005DE00126BFEE4FF126BFE7F01126BFE7F0C129C
:1005EE006BFE7F03126BFEE4FF126BFEE4FF126BD9
:1005FE00FEE4FF126BFE7F01126BFEE4FF126BFE38
:10060E007F02126BFE7F0C126BFE7F01126BFEE4FB
:10061E00FF126BFEE4FF126BFEE4FF126BFE7F0116
:10062E00126BFEE4FF126BFE7F03126BFE7F0C1249
:10063E006BFE7FAC126BFE7F0D126BFE7F18126B82
:10064E00FEE4FF126BFE7F01126BFEE4FF126BFEE7
:10065E007F04126BFE7F0C126BFEE4FF126BFE7FAB
:10066E0001126BFE7F07126BFE7F14126BFE7F0171
:10067E00126BFEE4FF126BFE7F01126BFE7F0C12FB
:10068E006BFE7F04126BFEE4FF126BFEE4FF126B37
:10069E00FEE4FF126BFE7F01126BFEE4FF126BFE97
:1006AE007F02126BFE7F0C126BFE7F01126BFEE45B
:1006BE00FF126BFEE4FF126BFEE4FF126BFE7F0176
:1006CE00126BFEE4FF126BFE7F03126BFE7F0C12A9
:1006DE006BFE7FC0126BFE7F0D126BFE7F18126BCE
:1006EE00FEE4FF126BFE7F01126BFEE4FF126BFE47
:1006FE007F04126BFE7F0C126BFEE4FF126BFE7F0B
:10070E0001126BFE7F07126BFE7F14126BFE7F01D0
:10071E00126BFEE4FF126BFE7F01126BFE7F0C125A
:10072E006BFE7F05126BFEE4FF126BFEE4FF126B95
:10073E00FEE4FF126BFE7F01126BFEE4FF126BFEF6
:10074E007F02126BFE7F0C126BFE7F01126BFEE4BA
:10075E00FF126BFEE4FF126BFEE4FF126BFE7F01D5
:10076E00126BFEE4FF126BFE7F03126BFE7F0C1208
:10077E006BFE7FD4126BFE7F0D126BFE7F18126B19
:10078E00FEE4FF126BFE7F01126BFEE4FF126BFEA6
:10079E007F04126BFE7F0C126BFEE4FF126BFE7F6A
:1007AE0001126BFE7F07126BFE7F14126BFE7F0130
:1007BE00126BFEE4FF126BFE7F01126BFE7F0C12BA
:1007CE006BFE7F06126BFEE4FF126BFEE4FF126BF4
:1007DE00FEE4FF126BFE7F01126BFEE4FF126BFE56
:1007EE007F02126BFE7F0C126BFE7F01126BFEE41A
:1007FE00FF126BFEE4FF126BFEE4FF126BFE7F0135
:10080E00126BFEE4FF126BFE7F03126BFE7F0C1267
:10081E006BFE7FE8126BFE7F0D126BFE7F18126B64
:10082E00FEE4FF126BFE7F01126BFEE4FF126BFE05
:10083E007F04126BFE7F0C126BFEE4FF126BFE7FC9
:10084E0001126BFE7F07126BFE7F14126BFE7F018F
:10085E00126BFEE4FF126BFE7F01126BFE7F0C1219
:10086E006BFE7F07126BFEE4FF126BFEE4FF126B52
:10087E00FEE4FF126BFE7F01126BFEE4FF126BFEB5
:10088E007F02126BFE7F0C126BFE7F01126BFEE479
:10089E00FF126BFEE4FF126BFEE4FF126BFE7F0194
:1008AE00126BFEE4FF126BFE7F03126BFE7F0C12C7
:1008BE006BFE7FFC126BFE7F0D126BFE7F18126BB0
:1008CE00FEE4FF126BFE7F01126BFEE4FF126BFE65
:1008DE007F04126BFE7F0C126BFEE4FF126BFE7F29
:1008EE0001126BFE7F07126BFE7F14126BFE7F01EF
:1008FE00126BFEE4FF126BFE7F01126BFE7F0C1279
:10090E006BFE7F08126BFEE4FF126BFEE4FF126BB0
:10091E00FEE4FF126BFE7F01126BFEE4FF126BFE14
:10092E007F02126BFE7F0C126BFE7F01126BFEE4D8
:10093E00FF126BFEE4FF126BFEE4FF126BFE7F01F3
:10094E00126BFEE4FF126BFE7F03126BFE7F0C1226
:10095E006BFE7F10126BFE7F0E126BFE7F18126BFA
:10096E00FEE4FF126BFE7F01126BFEE4FF126BFEC4
:10097E007F04126BFE7F0C126BFEE4FF126BFE7F88
:10098E0001126BFE7F07126BFE7F14126BFE7F014E
:10099E00126BFEE4FF126BFE7F01126BFE7F0C12D8
:1009AE006BFE7F09126BFEE4FF126BFEE4FF126B0F
:1009BE00FEE4FF126BFE7F01126BFEE4FF126BFE74
:1009CE007F02126BFE7F0C126BFE7F01126BFEE438
:1009DE00FF126BFEE4FF126BFEE4FF126BFE7F0153
:1009EE00126BFEE4FF126BFE7F03126BFE7F0C1286
:1009FE006BFE7F24126BFE7F0E126BFE7F18126B46
:100A0E00FEE4FF126BFE7F01126BFEE4FF126BFE23
:100A1E007F04126BFE7F0C126BFEE4FF126BFE7FE7
:100A2E0001126BFE7F07126BFE7F14126BFE7F01AD
:100A3E00126BFEE4FF126BFE7F01126BFE7F0C1237
:100A4E006BFE7F0A126BFEE4FF126BFEE4FF126B6D
:100A5E00FEE4FF126BFE7F01126BFEE4FF126BFED3
:100A6E007F02126BFE7F0C126BFE7F01126BFEE497
:100A7E00FF126BFEE4FF126BFEE4FF126BFE7F01B2
:100A8E00126BFEE4FF126BFE7F03126BFE7F0C12E5
:100A9E006BFE7F38126BFE7F0E126BFE7F18126B91
:100AAE00FEE4FF126BFE7F01126BFEE4FF126BFE83
:100ABE007F04126BFE7F0C126BFEE4FF126BFE7F47
:100ACE0001126BFE7F07126BFE7F14126BFE7F010D
:100ADE00126BFEE4FF126BFE7F01126BFE7F0C1297
:100AEE006BFE7F0B126BFEE4FF126BFEE4FF126BCC
:100AFE00FEE4FF126BFE7F01126BFEE4FF126BFE33
:100B0E007F02126BFE7F0C126BFE7F01126BFEE4F6
:100B1E00FF126BFEE4FF126BFEE4FF126BFE7F0111
:100B2E00126BFEE4FF126BFE7F03126BFE7F0C1244
:100B3E006BFE7F4C126BFE7F0E126BFE7F18126BDC
:100B4E00FEE4FF126BFE7F01126BFEE4FF126BFEE2
:100B5E007F04126BFE7F0C126BFEE4FF126BFE7FA6
:100B6E0001126BFE7F07126BFE7F14126BFE7F016C
:100B7E00126BFEE4FF126BFE7F01126BFE7F0C12F6
:100B8E006BFE7F0C126BFEE4FF126BFEE4FF126B2A
:100B9E00FEE4FF126BFE7F01126BFEE4FF126BFE92
:100BAE007F02126BFE7F0C126BFE7F01126BFEE456
:100BBE00FF126BFEE4FF126BFEE4FF126BFE7F0171
:100BCE00126BFEE4FF126BFE7F03126BFE7F0C12A4
:100BDE006BFE7F60126BFE7F0E126BFE7F18126B28
:100BEE00FEE4FF126BFE7F01126BFEE4FF126BFE42
:100BFE007F04126BFE7F0C126BFEE4FF126BFE7F06
:100C0E0001126BFE7F07126BFE7F14126BFE7F01CB
:100C1E00126BFEE4FF126BFE7F01126BFE7F0C1255
:100C2E006BFE7F0D126BFEE4FF126BFEE4FF126B88
:100C3E00FEE4FF126BFE7F01126BFEE4FF126BFEF1
:100C4E007F02126BFE7F0C126BFEE4FF126BFEE452
:100C5E00FF126BFEE4FF126BFEE4FF126BFE7F01D0
:100C6E00126BFEE4FF126BFE7F03126BFE7F0C1203
:100C7E006BFE7F60126BFE7F0E126BFE7F18126B87
:100C8E00FEE4FF126BFE7F01126BFEE4FF126BFEA1
:100C9E007F04126BFE7F0C126BFEE4FF126BFE7F65
:100CAE0001126BFE7F07126BFE7F14126BFE7F012B
:100CBE00126BFEE4FF126BFE7F01126BFE7F0C12B5
:100CCE006BFE7F0E126BFEE4FF126BFEE4FF126BE7
:100CDE00FEE4FF126BFE7F01126BFEE4FF126BFE51
:100CEE007F02126BFE7F0C126BFEE4FF126BFEE4B2
:100CFE00FF126BFEE4FF126BFEE4FF126BFE7F0130
:100D0E00126BFEE4FF126BFE7F03126BFE7F0C1262
:100D1E006BFE7F60126BFE7F0E126BFE7F18126BE6
:100D2E00FEE4FF126BFE7F01126BFEE4FF126BFE00
:100D3E007F04126BFE7F0C126BFEE4FF126BFE7FC4
:100D4E0001126BFE7F07126BFE7F14126BFE7F018A
:100D5E00126BFEE4FF126BFE7F01126BFE7F0C1214
:100D6E006BFE7F0F126BFEE4FF126BFEE4FF126B45
:100D7E00FEE4FF126BFE7F01126BFEE4FF126BFEB0
:100D8E007F02126BFE7F0C126BFEE4FF126BFEE411
:100D9E00FF126BFEE4FF126BFEE4FF126BFE7F018F
:100DAE00126BFEE4FF126BFE7F03126BFE7F0C12C2
:100DBE006BFE7F60126BFE7F0E126BFE7F18126B46
:100DCE00FEE4FF126BFE7F01126BFEE4FF126BFE60
:100DDE007F04126BFE7F0C126BFEE4FF126BFE7F24
:100DEE0001126BFE7F07126BFE7F14126BFE7F01EA
:100DFE00126BFEE4FF126BFE7F01126BFE7F0C1274
:100E0E006BFE7F10126BFEE4FF126BFEE4FF126BA3
:100E1E00FEE4FF126BFE7F01126BFEE4FF126BFE0F
:100E2E007F02126BFE7F0C126BFEE4FF126BFEE470
:100E3E00FF126BFEE4FF126BFEE4FF126BFE7F01EE
:100E4E00126BFEE4FF126BFE7F03126BFE7F0C1221
:100E5E006BFE7F60126BFE7F0E126BFE7F18126BA5
:100E6E00FEE4FF126BFE7F01126BFEE4FF126BFEBF
:100E7E007F04126BFE7F0C126BFEE4FF126BFE7F83
:100E8E0001126BFE7F07126BFE7F14126BFE7F0149
:100E9E00126BFEE4FF126BFE7F01126BFE7F0C12D3
:100EAE006BFE7F11126BFEE4FF126BFEE4FF126B02
:100EBE00FEE4FF126BFE7F01126BFEE4FF126BFE6F
:100ECE007F02126BFE7F0C126BFEE4FF126BFEE4D0
:100EDE00FF126BFEE4FF126BFEE4FF126BFE7F014E
:100EEE00126BFEE4FF126BFE7F03126BFE7F0C1281
:100EFE006BFE7F60126BFE7F0E126BFE7F18126B05
:100F0E00FEE4FF126BFE7F01126BFEE4FF126BFE1E
:100F1E007F04126BFE7F0C126BFEE4FF126BFE7FE2
:100F2E0001126BFE7F07126BFE7F14126BFE7F01A8
:100F3E00126BFEE4FF126BFE7F01126BFE7F0C1232
:100F4E006BFE7F12126BFEE4FF126BFEE4FF126B60
:100F5E00FEE4FF126BFE7F01126BFEE4FF126BFECE
:100F6E007F02126BFE7F0C126BFEE4FF126BFEE42F
:100F7E00FF126BFEE4FF126BFEE4FF126BFE7F01AD
:100F8E00126BFEE4FF126BFE7F03126BFE7F0C12E0
:100F9E006BFE7F60126BFE7F0E126BFE7F18126B64
:100FAE00FEE4FF126BFE7F01126BFEE4FF126BFE7E
:100FBE007F04126BFE7F0C126BFEE4FF126BFE7F42
:100FCE0001126BFE7F07126BFE7F14126BFE7F0108
:100FDE00126BFEE4FF126BFE7F01126BFE7F0C1292
:100FEE006BFE7F13126BFEE4FF126BFEE4FF126BBF
:100FFE00FEE4FF126BFE7F01126BFEE4FF126BFE2E
:10100E007F02126BFE7F0C126BFEE4FF126BFEE48E
:10101E00FF126BFEE4FF126BFEE4FF126BFE7F010C
:10102E00126BFEE4FF126BFE7F03126BFE7F0C123F
:10103E006BFE7F60126BFE7F0E126BFE7F18126BC3
:10104E00FEE4FF126BFE7F01126BFEE4FF126BFEDD
:10105E007F04126BFE7F0C126BFEE4FF126BFE7FA1
:10106E0001126BFE7F07126BFE7F14126BFE7F0167
:10107E00126BFEE4FF126BFE7F01126BFE7F0C12F1
:10108E006BFE7F14126BFEE4FF126BFEE4FF126B1D
:10109E00FEE4FF126BFE7F01126BFEE4FF126BFE8D
:1010AE007F02126BFE7F0C126BFEE4FF126BFEE4EE
:1010BE00FF126BFEE4FF126BFEE4FF126BFE7F016C
:1010CE00126BFEE4FF126BFE7F03126BFE7F0C129F
:1010DE006BFE7F60126BFE7F0E126BFE7F18126B23
:1010EE00FEE4FF126BFE7F01126BFEE4FF126BFE3D
:1010FE007F04126BFE7F0C126BFEE4FF126BFE7F01
:10110E0001126BFE7F07126BFE7F14126BFE7F01C6
:10111E00126BFEE4FF126BFE7F01126BFE7F0C1250
:10112E006BFE7F15126BFEE4FF126BFEE4FF126B7B
:10113E00FEE4FF126BFE7F01126BFEE4FF126BFEEC
:10114E007F02126BFE7F0C126BFEE4FF126BFEE44D
:10115E00FF126BFEE4FF126BFEE4FF126BFE7F01CB
:10116E00126BFEE4FF126BFE7F03126BFE7F0C12FE
:10117E006BFE7F60126BFE7F0E126BFE7F18126B82
:10118E00FEE4FF126BFE7F01126BFEE4FF126BFE9C
:10119E007F04126BFE7F0C126BFEE4FF126BFE7F60
:1011AE0001126BFE7F07126BFE7F14126BFE7F0126
:1011BE00126BFEE4FF126BFE7F01126BFE7F0C12B0
:1011CE006BFE7F16126BFEE4FF126BFEE4FF126BDA
:1011DE00FEE4FF126BFE7F01126BFEE4FF126BFE4C
:1011EE007F02126BFE7F0C126BFEE4FF126BFEE4AD
:1011FE00FF126BFEE4FF126BFEE4FF126BFE7F012B
:10120E00126BFEE4FF126BFE7F03126BFE7F0C125D
:10121E006BFE7F60126BFE7F0E126BFE7F18126BE1
:10122E00FEE4FF126BFE7F01126BFEE4FF126BFEFB
:10123E007F04126BFE7F0C126BFEE4FF126BFE7FBF
:10124E0001126BFE7F07126BFE7F14126BFE7F0185
:10125E00126BFEE4FF126BFE7F01126BFE7F0C120F
:10126E006BFE7F17126BFEE4FF126BFEE4FF126B38
:10127E00FEE4FF126BFE7F01126BFEE4FF126BFEAB
:10128E007F02126BFE7F0C126BFEE4FF126BFEE40C
:10129E00FF126BFEE4FF126BFEE4FF126BFE7F018A
:1012AE00126BFEE4FF126BFE7F03126BFE7F0C12BD
:1012BE006BFE7F60126BFE7F0E126BFE7F18126B41
:1012CE00FEE4FF126BFE7F01126BFEE4FF126BFE5B
:1012DE007F04126BFE7F0C126BFEE4FF126BFE7F1F
:1012EE0001126BFE7F07126BFE7F14126BFE7F01E5
:1012FE00126BFEE4FF126BFE7F01126BFE7F0C126F
:10130E006BFE7F18126BFEE4FF126BFEE4FF126B96
:10131E00FEE4FF126BFE7F01126BFEE4FF126BFE0A
:10132E007F02126BFE7F0C126BFEE4FF126BFEE46B
:10133E00FF126BFEE4FF126BFEE4FF126BFE7F01E9
:10134E00126BFEE4FF126BFE7F03126BFE7F0C121C
:10135E006BFE7F60126BFE7F0E126BFE7F18126BA0
:10136E00FEE4FF126BFE7F01126BFEE4FF126BFEBA
:10137E007F04126BFE7F0C126BFEE4FF126BFE7F7E
:10138E0001126BFE7F07126BFE7F14126BFE7F0144
:10139E00126BFEE4FF126BFE7F01126BFE7F0C12CE
:1013AE006BFE7F19126BFEE4FF126BFEE4FF126BF5
:1013BE00FEE4FF126BFE7F01126BFEE4FF126BFE6A
:1013CE007F02126BFE7F0C126BFEE4FF126BFEE4CB
:1013DE00FF126BFEE4FF126BFEE4FF126BFE7F0149
:1013EE00126BFEE4FF126BFE7F03126BFE7F0C127C
:1013FE006BFE7F60126BFE7F0E126BFE7F18126B00
:10140E00FEE4FF126BFE7F01126BFEE4FF126BFE19
:10141E007F04126BFE7F0C126BFEE4FF126BFE7FDD
:10142E0001126BFE7F07126BFE7F14126BFE7F01A3
:10143E00126BFEE4FF126BFE7F01126BFE7F0C122D
:10144E006BFE7F1A126BFEE4FF126BFEE4FF126B53
:10145E00FEE4FF126BFE7F01126BFEE4FF126BFEC9
:10146E007F02126BFE7F0C126BFEE4FF126BFEE42A
:10147E00FF126BFEE4FF126BFEE4FF126BFE7F01A8
:10148E00126BFEE4FF126BFE7F03126BFE7F0C12DB
:10149E006BFE7F60126BFE7F0E126BFE7F18126B5F
:1014AE00FEE4FF126BFE7F01126BFEE4FF126BFE79
:1014BE007F04126BFE7F0C126BFEE4FF126BFE7F3D
:1014CE0001126BFE7F07126BFE7F14126BFE7F0103
:1014DE00126BFEE4FF126BFE7F01126BFE7F0C128D
:1014EE006BFE7F1B126BFEE4FF126BFEE4FF126BB2
:1014FE00FEE4FF126BFE7F01126BFEE4FF126BFE29
:10150E007F02126BFE7F0C126BFEE4FF126BFEE489
:10151E00FF126BFEE4FF126BFEE4FF126BFE7F0107
:10152E00126BFEE4FF126BFE7F03126BFE7F0C123A
:10153E006BFE7F60126BFE7F0E126BFE7F18126BBE
:10154E00FEE4FF126BFE7F01126BFEE4FF126BFED8
:10155E007F04126BFE7F0C126BFEE4FF126BFE7F9C
:10156E0001126BFE7F07126BFE7F14126BFE7F0162
:10157E00126BFEE4FF126BFE7F01126BFE7F0C12EC
:10158E006BFE7F1C126BFEE4FF126BFEE4FF126B10
:10159E00FEE4FF126BFE7F01126BFEE4FF126BFE88
:1015AE007F02126BFE7F0C126BFEE4FF126BFEE4E9
:1015BE00FF126BFEE4FF126BFEE4FF126BFE7F0167
:1015CE00126BFEE4FF126BFE7F03126BFE7F0C129A
:1015DE006BFE7F60126BFE7F0E126BFE7F18126B1E
:1015EE00FEE4FF126BFE7F01126BFEE4FF126BFE38
:1015FE007F04126BFE7F0C126BFEE4FF126BFE7FFC
:10160E0001126BFE7F07126BFE7F14126BFE7F01C1
:10161E00126BFEE4FF126BFE7F01126BFE7F0C124B
:10162E006BFE7F1D126BFEE4FF126BFEE4FF126B6E
:10163E00FEE4FF126BFE7F01126BFEE4FF126BFEE7
:10164E007F02126BFE7F0C126BFEE4FF126BFEE448
:10165E00FF126BFEE4FF126BFEE4FF126BFE7F01C6
:10166E00126BFEE4FF126BFE7F03126BFE7F0C12F9
:10167E006BFE7F60126BFE7F0E126BFE7F18126B7D
:10168E00FEE4FF126BFE7F01126BFEE4FF126BFE97
:10169E007F04126BFE7F0C126BFEE4FF126BFE7F5B
:1016AE0001126BFE7F07126BFE7F14126BFE7F0121
:1016BE00126BFEE4FF126BFE7F01126BFE7F0C12AB
:1016CE006BFE7F1E126BFEE4FF126BFEE4FF126BCD
:1016DE00FEE4FF126BFE7F01126BFEE4FF126BFE47
:1016EE007F02126BFE7F0C126BFEE4FF126BFEE4A8
:1016FE00FF126BFEE4FF126BFEE4FF126BFE7F0126
:10170E00126BFEE4FF126BFE7F03126BFE7F0C1258
:10171E006BFE7F60126BFE7F0E126BFE7F18126BDC
:10172E00FEE4FF126BFE7F01126BFEE4FF126BFEF6
:10173E007F04126BFE7F0C126BFEE4FF126BFE7FBA
:10174E0001126BFE7F07126BFE7F14126BFE7F0180
:10175E00126BFEE4FF126BFE7F01126BFE7F0C120A
:10176E006BFE7F1F126BFEE4FF126BFEE4FF126B2B
:10177E00FEE4FF126BFE7F01126BFEE4FF126BFEA6
:10178E007F02126BFE7F0C126BFEE4FF126BFEE407
:10179E00FF126BFEE4FF126BFEE4FF126BFE7F0185
:1017AE00126BFEE4FF126BFE7F03126BFE7F0C12B8
:1017BE006BFE7F60126BFE7F0E126BFE7F18126B3C
:1017CE00FEE4FF126BFE7F01126BFEE4FF126BFE56
:1017DE007F04126BFE7F0C126BFEE4FF126BFE7F1A
:1017EE0001126BFE7F07126BFE7F14126BFE7F01E0
:1017FE00126BFEE4FF126BFE7F01126BFE7F0C126A
:10180E006BFE7F20126BFEE4FF126BFEE4FF126B89
:10181E00FEE4FF126BFE7F01126BFEE4FF126BFE05
:10182E007F02126BFE7F0C126BFEE4FF126BFEE466
:10183E00FF126BFEE4FF126BFEE4FF126BFE7F01E4
:10184E00126BFEE4FF126BFE7F03126BFE7F0C1217
:10185E006BFE7F60126BFE7F0E126BFE7F18126B9B
:10186E00FEE4FF126BFE7F01126BFEE4FF126BFEB5
:10187E007F04126BFE7F0C126BFEE4FF126BFE7F79
:10188E0001126BFE7F07126BFE7F14126BFE7F013F
:10189E00126BFEE4FF126BFE7F01126BFE7F0C12C9
:1018AE006BFE7F21126BFEE4FF126BFEE4FF126BE8
:1018BE00FEE4FF126BFE7F01126BFEE4FF126BFE65
:1018CE007F02126BFE7F0C126BFEE4FF126BFEE4C6
:1018DE00FF126BFEE4FF126BFEE4FF126BFE7F0144
:1018EE00126BFEE4FF126BFE7F03126BFE7F0C1277
:1018FE006BFE7F60126BFE7F0E126BFE7F18126BFB
:10190E00FEE4FF126BFE7F01126BFEE4FF126BFE14
:10191E007F04126BFE7F0C126BFEE4FF126BFE7FD8
:10192E0001126BFE7F07126BFE7F14126BFE7F019E
:10193E00126BFEE4FF126BFE7F01126BFE7F0C1228
:10194E006BFE7F22126BFEE4FF126BFEE4FF126B46
:10195E00FEE4FF126BFE7F01126BFEE4FF126BFEC4
:10196E007F02126BFE7F0C126BFEE4FF126BFEE425
:10197E00FF126BFEE4FF126BFEE4FF126BFE7F01A3
:10198E00126BFEE4FF126BFE7F03126BFE7F0C12D6
:10199E006BFE7F60126BFE7F0E126BFE7F18126B5A
:1019AE00FEE4FF126BFE7F01126BFEE4FF126BFE74
:1019BE007F04126BFE7F0C126BFEE4FF126BFE7F38
:1019CE0001126BFE7F07126BFE7F14126BFE7F01FE
:1019DE00126BFEE4FF126BFE7F01126BFE7F0C1288
:1019EE006BFE7F23126BFEE4FF126BFEE4FF126BA5
:1019FE00FEE4FF126BFE7F01126BFEE4FF126BFE24
:101A0E007F02126BFE7F0C126BFEE4FF126BFEE484
:101A1E00FF126BFEE4FF126BFEE4FF126BFE7F0102
:101A2E00126BFEE4FF126BFE7F03126BFE7F0C1235
:101A3E006BFE7F60126BFE7F0E126BFE7F18126BB9
:101A4E00FEE4FF126BFE7F01126BFEE4FF126BFED3
:101A5E007F04126BFE7F0C126BFEE4FF126BFE7F97
:101A6E0001126BFE7F07126BFE7F14126BFE7F015D
:101A7E00126BFEE4FF126BFE7F01126BFE7F0C12E7
:101A8E006BFE7F24126BFEE4FF126BFEE4FF126B03
:101A9E00FEE4FF126BFE7F01126BFEE4FF126BFE83
:101AAE007F02126BFE7F0C126BFEE4FF126BFEE4E4
:101ABE00FF126BFEE4FF126BFEE4FF126BFE7F0162
:101ACE00126BFEE4FF126BFE7F03126BFE7F0C1295
:101ADE006BFE7F60126BFE7F0E126BFE7F18126B19
:101AEE00FEE4FF126BFE7F01126BFEE4FF126BFE33
:101AFE007F04126BFE7F0C126BFEE4FF126BFE7FF7
:101B0E0001126BFE7F07126BFE7F14126BFE7F01BC
:101B1E00126BFEE4FF126BFE7F01126BFE7F0C1246
:101B2E006BFE7F25126BFEE4FF126BFEE4FF126B61
:101B3E00FEE4FF126BFE7F01126BFEE4FF126BFEE2
:101B4E007F02126BFE7F0C126BFEE4FF126BFEE443
:101B5E00FF126BFEE4FF126BFEE4FF126BFE7F01C1
:101B6E00126BFEE4FF126BFE7F03126BFE7F0C12F4
:101B7E006BFE7F60126BFE7F0E126BFE7F18126B78
:101B8E00FEE4FF126BFE7F01126BFEE4FF126BFE92
:101B9E007F04126BFE7F0C126BFEE4FF126BFE7F56
:101BAE0001126BFE7F07126BFE7F14126BFE7F011C
:101BBE00126BFEE4FF126BFE7F01126BFE7F0C12A6
:101BCE006BFE7F26126BFEE4FF126BFEE4FF126BC0
:101BDE00FEE4FF126BFE7F01126BFEE4FF126BFE42
:101BEE007F02126BFE7F0C126BFEE4FF126BFEE4A3
:101BFE00FF126BFEE4FF126BFEE4FF126BFE7F0121
:101C0E00126BFEE4FF126BFE7F03126BFE7F0C1253
:101C1E006BFE7F60126BFE7F0E126BFE7F18126BD7
:101C2E00FEE4FF126BFE7F01126BFEE4FF126BFEF1
:101C3E007F04126BFE7F0C126BFEE4FF126BFE7FB5
:101C4E0001126BFE7F07126BFE7F14126BFE7F017B
:101C5E00126BFEE4FF126BFE7F01126BFE7F0C1205
:101C6E006BFE7F27126BFEE4FF126BFEE4FF126B1E
:101C7E00FEE4FF126BFE7F01126BFEE4FF126BFEA1
:101C8E007F02126BFE7F0C126BFEE4FF126BFEE402
:101C9E00FF126BFEE4FF126BFEE4FF126BFE7F0180
:101CAE00126BFEE4FF126BFE7F03126BFE7F0C12B3
:101CBE006BFE7F60126BFE7F0E126BFE7F18126B37
:101CCE00FEE4FF126BFE7F01126BFEE4FF126BFE51
:101CDE007F04126BFE7F0C126BFEE4FF126BFE7F15
:101CEE0001126BFE7F07126BFE7F14126BFE7F01DB
:101CFE00126BFEE4FF126BFE7F01126BFE7F0C1265
:101D0E006BFE7F28126BFEE4FF126BFEE4FF126B7C
:101D1E00FEE4FF126BFE7F01126BFEE4FF126BFE00
:101D2E007F02126BFE7F0C126BFEE4FF126BFEE461
:101D3E00FF126BFEE4FF126BFEE4FF126BFE7F01DF
:101D4E00126BFEE4FF126BFE7F03126BFE7F0C1212
:101D5E006BFE7F60126BFE7F0E126BFE7F18126B96
:101D6E00FEE4FF126BFE7F01126BFEE4FF126BFEB0
:101D7E007F04126BFE7F0C126BFEE4FF126BFE7F74
:101D8E0001126BFE7F07126BFE7F14126BFE7F013A
:101D9E00126BFEE4FF126BFE7F01126BFE7F0C12C4
:101DAE006BFE7F29126BFEE4FF126BFEE4FF126BDB
:101DBE00FEE4FF126BFE7F01126BFEE4FF126BFE60
:101DCE007F02126BFE7F0C126BFEE4FF126BFEE4C1
:101DDE00FF126BFEE4FF126BFEE4FF126BFE7F013F
:101DEE00126BFEE4FF126BFE7F03126BFE7F0C1272
:101DFE006BFE7F60126BFE7F0E126BFE7F18126BF6
:101E0E00FEE4FF126BFE7F01126BFEE4FF126BFE0F
:101E1E007F04126BFE7F0C126BFEE4FF126BFE7FD3
:101E2E0001126BFE7F07126BFE7F14126BFE7F0199
:101E3E00126BFEE4FF126BFE7F01126BFE7F0C1223
:101E4E006BFE7F2A126BFEE4FF126BFEE4FF126B39
:101E5E00FEE4FF126BFE7F01126BFEE4FF126BFEBF
:101E6E007F02126BFE7F0C126BFEE4FF126BFEE420
:101E7E00FF126BFEE4FF126BFEE4FF126BFE7F019E
:101E8E00126BFEE4FF126BFE7F03126BFE7F0C12D1
:101E9E006BFE7F60126BFE7F0E126BFE7F18126B55
:101EAE00FEE4FF126BFE7F01126BFEE4FF126BFE6F
:101EBE007F04126BFE7F0C126BFEE4FF126BFE7F33
:101ECE0001126BFE7F07126BFE7F14126BFE7F01F9
:101EDE00126BFEE4FF126BFE7F01126BFE7F0C1283
:101EEE006BFE7F2B126BFEE4FF126BFEE4FF126B98
:101EFE00FEE4FF126BFE7F01126BFEE4FF126BFE1F
:101F0E007F02126BFE7F0C126BFEE4FF126BFEE47F
:101F1E00FF126BFEE4FF126BFEE4FF126BFE7F01FD
:101F2E00126BFEE4FF126BFE7F03126BFE7F0C1230
:101F3E006BFE7F60126BFE7F0E126BFE7F18126BB4
:101F4E00FEE4FF126BFE7F01126BFEE4FF126BFECE
:101F5E007F04126BFE7F0C126BFEE4FF126BFE7F92
:101F6E0001126BFE7F07126BFE7F14126BFE7F0158
:101F7E00126BFEE4FF126BFE7F01126BFE7F0C12E2
:101F8E006BFE7F2C126BFEE4FF126BFEE4FF126BF6
:101F9E00FEE4FF126BFE7F01126BFEE4FF126BFE7E
:101FAE007F02126BFE7F0C126BFEE4FF126BFEE4DF
:101FBE00FF126BFEE4FF126BFEE4FF126BFE7F015D
:101FCE00126BFEE4FF126BFE7F03126BFE7F0C1290
:101FDE006BFE7F60126BFE7F0E126BFE7F18126B14
:101FEE00FEE4FF126BFE7F01126BFEE4FF126BFE2E
:101FFE007F04126BFE7F0C126BFEE4FF126BFE7FF2
:10200E0001126BFE7F07126BFE7F14126BFE7F01B7
:10201E00126BFEE4FF126BFE7F01126BFE7F0C1241
:10202E006BFE7F2D126BFEE4FF126BFEE4FF126B54
:10203E00FEE4FF126BFE7F01126BFEE4FF126BFEDD
:10204E007F02126BFE7F0C126BFEE4FF126BFEE43E
:10205E00FF126BFEE4FF126BFEE4FF126BFE7F01BC
:10206E00126BFEE4FF126BFE7F03126BFE7F0C12EF
:10207E006BFE7F60126BFE7F0E126BFE7F18126B73
:10208E00FEE4FF126BFE7F01126BFEE4FF126BFE8D
:10209E007F04126BFE7F0C126BFEE4FF126BFE7F51
:1020AE0001126BFE7F07126BFE7F14126BFE7F0117
:1020BE00126BFEE4FF126BFE7F01126BFE7F0C12A1
:1020CE006BFE7F2E126BFEE4FF126BFEE4FF126BB3
:1020DE00FEE4FF126BFE7F01126BFEE4FF126BFE3D
:1020EE007F02126BFE7F0C126BFEE4FF126BFEE49E
:1020FE00FF126BFEE4FF126BFEE4FF126BFE7F011C
:10210E00126BFEE4FF126BFE7F03126BFE7F0C124E
:10211E006BFE7F60126BFE7F0E126BFE7F18126BD2
:10212E00FEE4FF126BFE7F01126BFEE4FF126BFEEC
:10213E007F04126BFE7F0C126BFEE4FF126BFE7FB0
:10214E0001126BFE7F07126BFE7F14126BFE7F0176
:10215E00126BFEE4FF126BFE7F01126BFE7F0C1200
:10216E006BFE7F2F126BFEE4FF126BFEE4FF126B11
:10217E00FEE4FF126BFE7F01126BFEE4FF126BFE9C
:10218E007F02126BFE7F0C126BFEE4FF126BFEE4FD
:10219E00FF126BFEE4FF126BFEE4FF126BFE7F017B
:1021AE00126BFEE4FF126BFE7F03126BFE7F0C12AE
:1021BE006BFE7F60126BFE7F0E126BFE7F18126B32
:1021CE00FEE4FF126BFE7F01126BFEE4FF126BFE4C
:1021DE007F04126BFE7F0C126BFEE4FF126BFE7F10
:1021EE0001126BFE7F07126BFE7F14126BFE7F01D6
:1021FE00126BFEE4FF126BFE7F01126BFE7F0C1260
:10220E006BFE7F30126BFEE4FF126BFEE4FF126B6F
:10221E00FEE4FF126BFE7F01126BFEE4FF126BFEFB
:10222E007F02126BFE7F0C126BFEE4FF126BFEE45C
:10223E00FF126BFEE4FF126BFEE4FF126BFE7F01DA
:10224E00126BFEE4FF126BFE7F03126BFE7F0C120D
:10225E006BFE7F60126BFE7F0E126BFE7F18126B91
:10226E00FEE4FF126BFE7F01126BFEE4FF126BFEAB
:10227E007F04126BFE7F0C126BFEE4FF126BFE7F6F
:10228E0001126BFE7F07126BFE7F14126BFE7F0135
:10229E00126BFEE4FF126BFE7F01126BFE7F0C12BF
:1022AE006BFE7F31126BFEE4FF126BFEE4FF126BCE
:1022BE00FEE4FF126BFE7F01126BFEE4FF126BFE5B
:1022CE007F02126BFE7F0C126BFEE4FF126BFEE4BC
:1022DE00FF126BFEE4FF126BFEE4FF126BFE7F013A
:1022EE00126BFEE4FF126BFE7F03126BFE7F0C126D
:1022FE006BFE7F60126BFE7F0E126BFE7F18126BF1
:10230E00FEE4FF126BFE7F01126BFEE4FF126BFE0A
:10231E007F04126BFE7F0C126BFEE4FF126BFE7FCE
:0F232E0001126BFE7F07126BFE7F14126BFE22F3
:05233D009002EAEFF040
:102342009002EC7424F078ED7C027D017BFF7A4EE2
:1023520079597E00FF123ED79003117408F078126B
:102362007C037D017BFF7A4E797D7E00FF123ED792
:1023720090031A7408F0781B7C037D017BFF7A4E70
:1023820079857E00FF123ED79003237408F07824EB
:102392007C037D017BFF7A4E798D7E00FF123ED752
:1023A20090032C7408F0782D7C037D017BFF7A4E1C
:1023B20079957E00FF123ED79003357408F0783687
:1023C2007C037D017BFF7A4E799D7E00FF123ED712
:1023D20090033E7408F0783F7C037D017BFF7A4EC8
:1023E20079A57E00FF123ED79003477408F0784823
:1023F2007C037D017BFF7A4E79AD7E00FF123ED7D2
:102402009003507408F078517C037D017BFF7A4E73
:1024120079B57E00FF123ED79003597408F0785ABE
:102422007C037D017BFF7A4E79BD7E00FF123ED791
:102432009003627408F078637C037D017BFF7A4E1F
:1024420079C57E00FF123ED790036B7408F0786C5A
:102452007C037D017BFF7A4E79CD7E00FF123ED751
:102462009003747408F078757C037D017BFF7A4ECB
:1024720079D57E00FF123ED790037D7408F0787EF6
:102482007C037D017BFF7A4E79DD7E00FF123ED711
:102492009003867408F078877C037D017BFF7A4E77
:1024A20079E57E00FF123ED790038F7408F0789092
:1024B2007C037D017BFF7A4E79ED7E00FF123ED7D1
:1024C2009003987408F078997C037D017BFF7A4E23
:1024D20079F57E00FF123ED79003A17408F078A22E
:1024E2007C037D017BFF7A4E79FD7E00FF123ED791
:1024F2009003AA7408F078AB7C037D017BFF7A4FCE
:1025020079057E00FF123ED79003B37408F078B4C9
:102512007C037D017BFF7A4F790D7E00FF123ED74F
:102522009003BC7408F078BD7C037D017BFF7A4F79
:1025320079157E00FF123ED79003C57408F078C665
:102542007C037D017BFF7A4F791D7E00FF123ED70F
:102552009003CE7408F078CF7C037D017BFF7A4F25
:1025620079257E00FF123ED7E49003D7F078D87C1D
:10257200037D017BFF7A4F792DFE7F01123ED790BA
:1025820003D97408F078DA7C037D017BFF7A4F79F6
:102592002E7E00FF123ED79003E27408F078E37CAF
:1025A200037D017BFF7A4F79367E00FF123ED79082
:1025B20003EB7408F078EC7C037D017BFF7A4F79A2
:1025C2003E7E00FF123ED79003F47408F078F57C4B
:1025D200037D017BFF7A4F79467E00FF123ED79042
:1025E20003FD7408F078FE7C037D017BFF7A4F794E
:1025F2004E7E00FF123ED79004067408F078077CE6
:10260200047D017BFF7A4F79567E00FF123ED79000
:10261200040F7420F078107C047D017BFF7A4F79DF
:102622005E7E00FF123ED79004307408F078317C51
:10263200047D017BFF7A4F797E7E00FF123ED790A8
:1026420004397408F0783A7C047D017BFF7A4F7973
:10265200867E00FF123ED79002EAE014B4210040C9
:102662000302304B90267475F003A4C58325F0C590
:1026720083730226D70227250227730227C1022865
:102682000F02285D0228AB0228F902294702299588
:102692000229E3022A31022A7F022ACD022B1B02DF
:1026A2002B69022BB7022C05022C53022CA1022CFF
:1026B200A4022CF2022D40022D8E022DDC022E2AC3
:1026C200022E78022EC6022F14022F62022CA102C1
:1026D2002FB0022FFDE49002EBF09002ECE0FF90AD
:1026E20002EBE0FEC3EF6480F8EE648098400302E0
:1026F200304EE0FFFD3395E0FC74ED2DF58274025F
:102702003CF583E0FEEF3395E0FC74F42DF5827422
:10271200003CF583E06E600302303D9002EBE00482
:10272200F080B7E49002EBF0900311E0FF9002EB2F
:10273200E0FEC3EF6480F8EE648098400302304EFE
:10274200E0FFFD3395E0FC74122DF58274033CF535
:1027520083E0FEEF3395E0FC74F42DF58274003CC7
:10276200F583E06E600302303D9002EBE004F080FE
:10277200B7E49002EBF090031AE0FF9002EBE0FE68
:10278200C3EF6480F8EE648098400302304EE0FFAD
:10279200FD3395E0FC741B2DF58274033CF583E058
:1027A200FEEF3395E0FC74F42DF58274003CF58362
:1027B200E06E600302303D9002EBE004F080B7E48B
:1027C2009002EBF0900323E0FF9002EBE0FEC3EFF8
:1027D2006480F8EE648098400302304EE0FFFD33DF
:1027E20095E0FC74242DF58274033CF583E0FEEF42
:1027F2003395E0FC74F42DF58274003CF583E06EB1
:10280200600302303D9002EBE004F080B7E49002F6
:10281200EBF090032CE0FF9002EBE0FEC3EF64804C
:10282200F8EE648098400302304EE0FFFD3395E0FD
:10283200FC742D2DF58274033CF583E0FEEF339595
:10284200E0FC74F42DF58274003CF583E06E6003C5
:1028520002303D9002EBE004F080B7E49002EBF02E
:10286200900335E0FF9002EBE0FEC3EF6480F8EEE8
:10287200648098400302304EE0FFFD3395E0FC7423
:10288200362DF58274033CF583E0FEEF3395E0FCD0
:1028920074F42DF58274003CF583E06E600302301F
:1028A2003D9002EBE004F080B7E49002EBF090037D
:1028B2003EE0FF9002EBE0FEC3EF6480F8EE64803E
:1028C20098400302304EE0FFFD3395E0FC743F2D4B
:1028D200F58274033CF583E0FEEF3395E0FC74F47B
:1028E2002DF58274003CF583E06E600302303D906A
:1028F20002EBE004F080B7E49002EBF0900347E0D3
:10290200FF9002EBE0FEC3EF6480F8EE6480984033
:102912000302304EE0FFFD3395E0FC74482DF58252
:1029220074033CF583E0FEEF3395E0FC74F42DF57F
:102932008274003CF583E06E600302303D9002EB4E
:10294200E004F080B7E49002EBF0900350E0FF90D7
:1029520002EBE0FEC3EF6480F8EE6480984003026D
:10296200304EE0FFFD3395E0FC74512DF582740387
:102972003CF583E0FEEF3395E0FC74F42DF58274B0
:10298200003CF583E06E600302303D9002EBE00410
:10299200F080B7E49002EBF0900359E0FF9002EB75
:1029A200E0FEC3EF6480F8EE648098400302304E8C
:1029B200E0FFFD3395E0FC745A2DF58274033CF57B
:1029C20083E0FEEF3395E0FC74F42DF58274003C55
:1029D200F583E06E600302303D9002EBE004F0808C
:1029E200B7E49002EBF0900362E0FF9002EBE0FEAE
:1029F200C3EF6480F8EE648098400302304EE0FF3B
:102A0200FD3395E0FC74632DF58274033CF583E09D
:102A1200FEEF3395E0FC74F42DF58274003CF583EF
:102A2200E06E600302303D9002EBE004F080B7E418
:102A32009002EBF090036BE0FF9002EBE0FEC3EF3D
:102A42006480F8EE648098400302304EE0FFFD336C
:102A520095E0FC746C2DF58274033CF583E0FEEF87
:102A62003395E0FC74F42DF58274003CF583E06E3E
:102A7200600302303D9002EBE004F080B7E4900284
:102A8200EBF0900374E0FF9002EBE0FEC3EF648092
:102A9200F8EE648098400302304EE0FFFD3395E08B
:102AA200FC74752DF58274033CF583E0FEEF3395DB
:102AB200E0FC74F42DF58274003CF583E06E600353
:102AC20002303D9002EBE004F080B7E49002EBF0BC
:102AD20090037DE0FF9002EBE0FEC3EF6480F8EE2E
:102AE200648098400302304EE0FFFD3395E0FC74B1
:102AF2007E2DF58274033CF583E0FEEF3395E0FC16
:102B020074F42DF58274003CF583E06E60030230AC
:102B12003D9002EBE004F080B7E49002EBF090030A
:102B220086E0FF9002EBE0FEC3EF6480F8EE648083
:102B320098400302304EE0FFFD3395E0FC74872D90
:102B4200F58274033CF583E0FEEF3395E0FC74F408
:102B52002DF58274003CF583E06E600302303D90F7
:102B620002EBE004F080B7E49002EBF090038FE018
:102B7200FF9002EBE0FEC3EF6480F8EE64809840C1
:102B82000302304EE0FFFD3395E0FC74902DF58298
:102B920074033CF583E0FEEF3395E0FC74F42DF50D
:102BA2008274003CF583E06E600302303D9002EBDC
:102BB200E004F080B7E49002EBF0900398E0FF901D
:102BC20002EBE0FEC3EF6480F8EE648098400302FB
:102BD200304EE0FFFD3395E0FC74992DF5827403CD
:102BE2003CF583E0FEEF3395E0FC74F42DF582743E
:102BF200003CF583E06E600302303D9002EBE0049E
:102C0200F080B7E49002EBF09003A1E0FF9002EBBA
:102C1200E0FEC3EF6480F8EE648098400302304E19
:102C2200E0FFFD3395E0FC74A22DF58274033CF5C0
:102C320083E0FEEF3395E0FC74F42DF58274003CE2
:102C4200F583E06E600302303D9002EBE004F08019
:102C5200B7E49002EBF09003AAE0FF9002EBE0FEF3
:102C6200C3EF6480F8EE648098400302304EE0FFC8
:102C7200FD3395E0FC74AB2DF58274033CF583E0E3
:102C8200FEEF3395E0FC74F42DF58274003CF5837D
:102C9200E06E600302303D9002EBE004F080B77F0B
:102CA2000022E49002EBF09003BCE0FF9002EBE024
:102CB200FEC3EF6480F8EE648098400302304EE079
:102CC200FFFD3395E0FC74BD2DF58274033CF58362
:102CD200E0FEEF3395E0FC74F42DF58274003CF5D0
:102CE20083E06E600302303D9002EBE004F080B7B7
:102CF200E49002EBF09003C5E0FF9002EBE0FEC32C
:102D0200EF6480F8EE648098400302304EE0FFFDED
:102D12003395E0FC74C62DF58274033CF583E0FE26
:102D2200EF3395E0FC74F42DF58274003CF583E0FA
:102D32006E600302303D9002EBE004F080B7E49055
:102D420002EBF09003CEE0FF9002EBE0FEC3EF64F3
:102D520080F8EE648098400302304EE0FFFD339528
:102D6200E0FC74CF2DF58274033CF583E0FEEF3373
:102D720095E0FC74F42DF58274003CF583E06E60FE
:102D82000302303D9002EBE004F080B7E49002EBE6
:102D9200F09003D7E0FF9002EBE0FEC3EF6480F80F
:102DA200EE648098400302304EE0FFFD3395E0FC74
:102DB20074D82DF58274033CF583E0FEEF3395E081
:102DC200FC74F42DF58274003CF583E06E6003021E
:102DD200303D9002EBE004F080B7E49002EBF0901B
:102DE20003D9E0FF9002EBE0FEC3EF6480F8EE64EB
:102DF2008098400302304EE0FFFD3395E0FC74DA28
:102E02002DF58274033CF583E0FEEF3395E0FC740C
:102E1200F42DF58274003CF583E06E600302303DD0
:102E22009002EBE004F080B7E49002EBF09003E252
:102E3200E0FF9002EBE0FEC3EF6480F8EE6480985E
:102E4200400302304EE0FFFD3395E0FC74E32DF5C4
:102E52008274033CF583E0FEEF3395E0FC74F42DBD
:102E6200F58274003CF583E06E600302303D90020F
:102E7200EBE004F080B7E49002EBF09003EBE0FFAC
:102E82009002EBE0FEC3EF6480F8EE6480984003AA
:102E920002304EE0FFFD3395E0FC74EC2DF58274B8
:102EA200033CF583E0FEEF3395E0FC74F42DF582EC
:102EB20074003CF583E06E600302303D9002EBE06B
:102EC20004F080B7E49002EBF09003F4E0FF90028C
:102ED200EBE0FEC3EF6480F8EE64809840030230BA
:102EE2004EE0FFFD3395E0FC74F52DF58274033C52
:102EF200F583E0FEEF3395E0FC74F42DF582740067
:102F02003CF583E06E600302303D9002EBE004F09A
:102F120080B7E49002EBF09003FDE0FF9002EBE05B
:102F2200FEC3EF6480F8EE648098400302304EE006
:102F3200FFFD3395E0FC74FE2DF58274033CF583AE
:102F4200E0FEEF3395E0FC74F42DF58274003CF55D
:102F520083E06E600302303D9002EBE004F080B744
:102F6200E49002EBF0900406E0FF9002EBE0FEC377
:102F7200EF6480F8EE648098400302304EE0FFFD7B
:102F82003395E0FC74072DF58274043CF583E0FE72
:102F9200EF3395E0FC74F42DF58274003CF583E088
:102FA2006E600302303D9002EBE004F080B7E490E3
:102FB20002EBF0900430E0FF9002EBE0FEC3EF641E
:102FC20080F8EE648098400302304EE0FFFD3395B6
:102FD200E0FC74312DF58274043CF583E0FEEF339E
:102FE20095E0FC74F42DF58274003CF583E06E608C
:102FF2000280489002EBE004F080B8E49002EBF02B
:10300200900439E0FF9002EBE0FEC3EF6480F8EE3B
:103012006480985037E0FFFD3395E0FC743A2DF55B
:103022008274043CF583E0FEEF3395E0FC74F42DEA
:10303200F58274003CF583E06E60069002EAE0FFE0
:0E304200229002EBE004F080B77F00227F00B6
:01305000225D
:106D3B00E4F5957596FFC2A1C2A253E1EF43E210B1
:016D4B002225
:096D5D007F0F126D66D2FC7F0F5E
:076D6600AE071FEE70FA22D8
:02691D00AB07C6
:10691F007A80C2A3EDB40104C2A48002D2A4EAD348
:10692F0094004011C2FCEA5B24FF92A7126D5DEA4E
:0E693F00C313FA80E9C2FCD2A7126D5DD2A389
:01694D002227
:106C92003EF583E5822DF582E43583F583E493FFA7
:056CA200E4FD02691D84
:076E14007FAE126E1B7F8DA3
:056E1B007D0102691D6C
:10615D00E4FFFE90044EF0A3F00FBF00010EBE75DC
:10616D00F8BF30F57FAE126E1B7FD5126E1B7F8090
:10617D00126E1B7FA8126E1B7F27126E1B7FD31210
:10618D006E1BE4FF126E1B7F40126E167F14126E93
:10619D001B7FA1126E1B7FC8126E1B7FDA126E1B46
:1061AD007F12126E1B7F81126E1B7FAF126E1B7FD3
:1061BD00D9126E1B7F25126E1B7FDB126E1B7F208B
:1061CD00126E1B7FA4126E1B7FA6126E1B7FAF1269
:0561DD006E1B0269AF1A
:106D6D00126E147F10126E1B126DF6C2E9026DE7E2
:0B6E2000126E147F10126E1BC2E922DC
:106D4C00D2E97F8D126E1B7F14126E1B7FAF026E09
:016D5C001B1B
:066E0500F0EB540FA3F0B6
:096E0B00EF540F44B0FF026E1BAE
:086B0E00FF126E0BE92408FFE1
:106B1600AC0774202CFC540FFF126E1BAF04EFC49D
:086B2600540F4410FF026E1B26
:1069AF00E4900450F0900450E0FFC394055020E4AD
:1069BF00F9126E0BE4FF126B16E9C394605008E4F2
:0F69CF00FF126CA20980F2900450E004F080D611
:0169DE002296
:0B639B0090044EEBF0A3EAF0A3E9F041
:1063A600E4A3F0A3F0A3F0A3F0900451E0FFC3949C
:1063B600055045E4A3F0126E0BE4FF126B16900431
:1063C60052E0C39460502990044EE0FBA3E0FAA388
:1063D600E0F9900453E475F001123FE285F082F58E
:1063E60083123F38FF126CA2900452E004F080CE74
:0863F600900451E004F080B1B5
:0163FE00227C
:0B454F00900514EBF0A3EAF0A3E9F0E4
:10455A00E4A3F0A3F0900514E0FBA3E0FAA3E0F9CA
:10456A00123F1F7003024859900517E0F9C3940CD3
:10457A0050087F01126E0BE08014E9C394184003BF
:10458A000248597F03126E0B900517E024F475F068
:10459A0008A4FF126B16900514E0FBA3E0FAA3E04F
:1045AA00F9123F1FFFC3648094B0404DD3EF64807B
:1045BA0094B95045E4900518F0900518E0FDC394AD
:1045CA000840030246DC900514E0FBA3E0FAA3E0EE
:1045DA00F9123F1FFF3395E0FEEFC4F8540FC86885
:1045EA00FFEEC454F048FE74312FF582742F126C1A
:1045FA0092900518E004F080C0900514E0FBA3E057
:10460A00FAA3E0F9123F1FFFC3648094E1404DD33F
:10461A00EF648094FA5045E4900518F0900518E08C
:10462A00FDC3940840030246DC900514E0FBA3E0B6
:10463A00FAA3E0F9123F1FFF3395E0FEEFC4F854E6
:10464A000FC868FFEEC454F048FE74212FF5827437
:10465A002D126C92900518E004F080C0900514E0C9
:10466A00FBA3E0FAA3E0F9123F1FFFC3648094C1E1
:10467A00404AD3EF648094DA5042E4900518F090EF
:10468A000518E0FDC394085049900514E0FBA3E027
:10469A00FAA3E0F9123F1FFF3395E0FEEFC4F85486
:1046AA000FC868FFEEC454F048FE74C12FF5827437
:1046BA0030126C92900518E004F080C3E49005185B
:1046CA00F0E4FF126CA2900518E004F0E0C394082D
:1046DA0040EF900517E0F9C3940C50087F02126E60
:1046EA000BE08014E9C3941840030248597F04126E
:1046FA006E0B900517E024F475F008A4FF126B16F0
:10470A00900514E0FBA3E0FAA3E0F9123F1FFFC3F0
:10471A00648094B0404DD3EF648094B95045E490DE
:10472A000518F0900518E0FDC394084003024846B6
:10473A00900514E0FBA3E0FAA3E0F9123F1FFF3350
:10474A0095E0FEEFC4F8540FC868FFEEC454F04871
:10475A00FE74392FF582742F126C92900518E004BA
:10476A00F080C0900514E0FBA3E0FAA3E0F9123F41
:10477A001FFFC3648094E1404DD3EF648094FA50E4
:10478A0045E4900518F0900518E0FDC3940840032D
:10479A00024846900514E0FBA3E0FAA3E0F9123FB1
:1047AA001FFF3395E0FEEFC4F8540FC868FFEEC44C
:1047BA0054F048FE74292FF582742D126C929005DC
:1047CA0018E004F080C0900514E0FBA3E0FAA3E02F
:1047DA00F9123F1FFFC3648094C1404AD3EF64803B
:1047EA0094DA5042E4900518F0900518E0FDC3945D
:1047FA00085049900514E0FBA3E0FAA3E0F9123F40
:10480A001FFF3395E0FEEFC4F8540FC868FFEEC4EB
:10481A0054F048FE74C92FF5827430126C929005D8
:10482A0018E004F080C3E4900518F0E4FF126CA2CB
:10483A00900518E004F0E0C3940840EF900517E0F3
:0F484A0004F0900515E475F001123FCC02455FB4
:01485900223C
:075CBA00A905900538EFF089
:105CC100E4FCEBC4540FA3126E05AF01126B16E492
:105CD100FC900539E0C454F02431F582E43432F506
:105CE10083E5822C126C980CECB408E5900538E041
:105CF10004FF126E0BAF01126B16E4FC900539E044
:105D0100C454F02439F582E43432F583E5822C124F
:105D11006C980CECB408E5900538E0126B0EE4FCCD
:105D2100EC640790053A601BE0C454F02431F5821D
:105D3100E43432F583E5822CF582E43583F583E49E
:105D410093801BE0C454F02431F582E43432F583AE
:105D5100E5822CF582E43583F583E4934401FF1257
:105D61006CA20CECB408B9900538E004126B0EE497
:105D7100FC90053AE0C454F02439F582E43432F55C
:0C5D810083E5822C126C980CECB408E551
:015D8D0022F3
:0B62C70090052DEBF0A3EAF0A3E9F036
:1062D200E4A3F090052DE0FBA3E0FAA3E0F9A3E02C
:1062E200FFF582758300123F38FB6044EFC39406CA
:1062F200500C900530E0C454F0FD7F0180279005DA
:1063020030E0FFC3940C5028EF24FAC454F0FD90FF
:10631200052DE0FBA3E0FAA3E0F98F82758300125A
:106322003F38FB7F03125CBA900530E004F080A393
:016332002248
:04591D00AA07AC0524
:10592100E4F9EBC4540F900552126E05AF04126BEB
:1059310016900552E0FFC39400402BEFD394095019
:1059410025E4900552E075F005A429F582E435F0CF
:10595100F583E58224A1F582E5833430126C9D093B
:10596100E9B405DE803A900552E0FFC3940A500382
:10597100025A15EFD3940F4003025A15E4F990052A
:1059810052E075F005A429F582E435F0F583E5824E
:1059910024C4F582E5833430126C9D09E9B405DE37
:1059A100E4FF126CA2900553E0FFC39400402CEF7A
:1059B100D394095026E4F9900553E075F005A42924
:1059C100F582E435F0F583E58224A1F582E583349F
:1059D10030126C9D09E9B405DE8034900553E0FF77
:1059E100C3940A402FEFD3940F5029E4F990055343
:1059F100E075F005A429F582E435F0F583E582240C
:105A0100C4F582E5833430126C9D09E9B405DE7F6B
:045A110003126CA26E
:015A1500226E
:0B543D00900519EBF0A3EAF0A3E9F0E2
:10544800E4126AED900519E0FBA3E0FAA3E0F91273
:105458003F1FFB70030254FA90051CE0FFC3940839
:10546800500AEF75F00CA4FD7F01807090051CE0D8
:10547800FFC39410501BEF24F875F00CA4FD9005A1
:1054880019E0FBA3E0FAA3E0F9123F1FFB7F0280BB
:105498004B90051CE0FFC39418501BEF24F075F0E7
:1054A8000CA4FD900519E0FBA3E0FAA3E0F9123F74
:1054B8001FFB7F03802690051CE0FFC39420400358
:1054C80002559BEF24E875F00CA4FD900519E0FB4C
:1054D800A3E0FAA3E0F9123F1FFB7F0412591D90C5
:1054E800051AE475F001123FCC90051CE004F002A7
:1054F800544C90051CE0FFC394085016EF7F01122E
:10550800672A90051CE00475F006A4FD7B207F0146
:10551800807590051CE0FFC394105019EF24F07FAC
:105528000212672A90051CE024F175F006A4FD7BA1
:10553800207F02805290051CE0FFC394185020EF92
:1055480024E075F006A4FD7B207F031267319005E7
:105558001CE024E175F006A4FD7B207F03802890E1
:10556800051CE0FFC39420502AEF24D075F006A450
:10557800FD7B207F0412673190051CE024D175F073
:1055880006A4FD7B207F0412673190051CE004F01F
:035598000254FAC0
:01559B0022ED
:07672A0075F006A4FD7B20C1
:07673100900460EDF0A903E4
:10673800E4FC126E0BE0FF126B16E4FC75F005E941
:10674800A42CF582E435F0F583E58224B1F582E5E1
:1067580083342F126C9D0CECB405E1E4FF026CA2AB
:0B57F90090044EEBF0A3EAF0A3E9F0EF
:10580400E4A3F0126AED90044EE0FBA3E0FAA3E0F7
:10581400F9123F1FFB70030258B5900451E0FFC317
:105824009410500AEF75F006A4FD7F01806D90047A
:1058340051E0FFC39420501BEF24F075F006A4FD43
:1058440090044EE0FBA3E0FAA3E0F9123F1FFB7FB4
:10585400028048900451E0FFC39430501BEF24E0D1
:1058640075F006A4FD90044EE0FBA3E0FAA3E0F972
:10587400123F1FFB7F038023900451E0FFC3944039
:10588400502FEF24D075F006A4FD90044EE0FBA346
:10589400E0FAA3E0F9123F1FFB7F04126731900482
:1058A4004FE475F001123FCC900451E004F002582B
:1058B4000A900451E0FFC39410500CEF75F006A455
:1058C400FD7B207F018046900451E0FFC39420506B
:1058D4000EEF24F075F006A4FD7B207F02802E904D
:1058E4000451E0FFC39430500EEF24E075F006A499
:1058F400FD7B207F038016900451E0FFC394405049
:1059040017EF24D075F006A4FD7B207F04126731C5
:08591400900451E004F08099B9
:01591C002268
:066AED00A3F0A3F0FDFF81
:026AF300AC05F0
:106AF500A904126E0BAF04126B16E9C3946050081B
:086B0500E4FF126CA20980F20A
:016B0D002265
:106B2E007401A807088002C333D8FCF59DE4F5BDB7
:0F6B3E00EF4488F5BC7F02126C4ED2ADD2AF226D
:03002B00025E3F33
:0D5E3F00C0E0C0F0C083C082C0D075D008A4
:105E4C00900457E4F0A3F0FFFEA3F0A3F0C2ADF56D
:105E5C00BC126DAB7F03126C37900457E4F0A3EFC8
:105E6C00F0126DAB7F03126C377E00900457E0FC90
:105E7C00A3E0FDD39FEC9E401DED9FFBEC9EFAC36F
:105E8C00EB9423EA9400504EED2FFFEE3CC313FE2F
:105E9C00EF13FFA38030C3ED9FEC9E502C90045762
:105EAC00E0FCA3E0FDC3EF9DFDEE9CFCC3ED942351
:105EBC00EC94005021E02FFF900457E03EC313FEFA
:105ECC00EF13FF900459EE8009900457E0FFA3E014
:085EDC00A3CFF0A3EFF0D2AD5B
:0B5EE400D0D0D082D083D0F0D0E032CC
:106C3700E4F5BDEF4488F5BC00000000E5BC30E496
:076C4700FB75BC00AFBD228C
:106ACB00AC07E4123D5290051FE0F8A3E0F9A3E0F8
:106ADB00FAA3E0FB123B29E4FBFA79807843123CE2
:026AEB00322255
:106A0E00E4FDFCF5BDF5BEEF4488F5BC00000000CA
:106A1E00E5BC30E4FB75BC00AFBDEF75F004A4FD22
:096A2E00ACF0AFBEED4FAE04FF69
:016A3700223C
:10005E00AD07AC06E4123D4D90050BE0F8A3E0F9B8
:10006E00A3E0FAA3E0FB123B29E4FBFA7980784483
:04007E00123C3222DC
:106C4E00AE071FEE60107C137D88ED1DAA04700147
:066C5E001C4A60EC80F40A
:016C6400220D
:106987004202E800004100F1004100F2004100F33B
:0169970000FF
:1069DF0053B13F43B2C0E5A2543F4440F5A25387A1
:1069EF007F759850438E40538EFE53890F438920F5
:0F69FF00758BFA758DFAC2ABD28ED2ACD2AF22A5
:0F6BEF00A3E475F001123FE2A9F0FA123F1FFF75
:096BFE002000FDEFD200F5992200
:106A5F0090053BEBF0A3EAF0A3E9F090053BE0FBD8
:106A6F00A3E0FAA3E0F9123F1F600890053B126BF9
:046A7F00EF80E8229A
:0300230002676809
:10676800C0E0C0F0C083C082C0D075D00830981B8C
:10677800C2989002E8E475F001123FE2FE74F42535
:10678800F0F58274003EF583E599F0309904C299DA
:0D679800C200D0D0D082D083D0F0D0E0324B
:030043000267A5AC
:1067A500C0E0C083C082C0D075D008E59A30E0173C
:1067B500539AFE9000F1E0FF04F074002FF582E497
:1067C5003400F583E59BF0E59A30E105539AFDC267
:0A67D50001D0D0D082D083D0E03292
:096E2B002001FDEFD201F59B22CC
:1068B70090053EEBF0A3EAF0A3E9F090053EE0FB7C
:1068C700A3E0FAA3E0F9123F1F601790053EA3E487
:1068D70075F001123FE2A9F0FA123F1FFF126E2B6B
:0368E70080D92233
:106C070053BAFE759A50438E0475D7C075D6FD43A7
:086C17008E1075AF01D2AF220F
:106C7C007E027FF49000F4E4F0A3DFFCDEFAE490F3
:056C8C0002E8F0A3F096
:016C910022E0
:0F6D7D007F64900000E4F0A3DFFCE49000F1F0ED
:016D8C0022E4
:106B6C0043BA0275AC1043AC4043D10275D5D07515
:0B6B7C00D4FF43D10843AF08D2AF2282
:03008B00026BA263
:106BA200C0E0E5AC30E00653ACFE85AD80E5AC302C
:0A6BB200E10553ACFDC202D0E03251
:096E34002002FDEFD202F5AD22AF
:1068EA00900541EBF0A3EAF0A3E9F0900541E0FB43
:1068FA00A3E0FAA3E0F9123F1F6017900541A3E451
:10690A0075F001123FE2A9F0FA123F1FFF126E342E
:03691A0080D922FF
:106B870043BA0475841043844043D12075D3D0752C
:0B6B9700D2FF43D18043AF10D2AF22E9
:03009300026BBC41
:106BBC00C0E0E58430E0065384FE858580E58430B2
:0A6BCC00E1055384FDC203D0E0325E
:096E3D002003FDEFD203F58522CC
:106A8300900544EBF0A3EAF0A3E9F0900544E0FBA2
:106A9300A3E0FAA3E0F9123F1F6008900544126BCC
:046AA300EF80E82276
:0D003600E4F5C7F5C5F5C675C380F5C42215
:106C1F0075C78175C5018FC4EEF5C375C65A75C6A4
:076C2F00A500AFC212003600
:016C3600223B
:106BD60075C78175C5028FC4EEF5C3AF058FC27543
:096BE600C65A75C6A5000200366E
:106CA70075C78175C5038FC4EEF5C375C65A75C61A
:056CB700A500020036FB
:105A16009004F0EEF0A3EFF09004F4EBF0A3EAF0BC
:0B5A2600A3E9F09004F2ECF0A3EDF017
:105A3100E49004F7F0A3F0FFA3F0A3F0D3ED9420DA
:105A4100EC94004001229004F0E0FCA3E0FDEC5452
:105A510001FEAF059004F3E02FFF9004F2E03EFE5B
:105A6100D3EF9420EE940040037F0022AF05AE04F3
:105A7100126CA7E49004F7F0A3F09004F2E0FEA307
:105A8100E0FF9004F7E0FCA3E0FDC39FEC9E5067AC
:105A91009004F0E0FEA3E0FF9004F4E0FBA3E0FA41
:105AA100A3E0F98D828C83123F38FD126BD69004EE
:105AB100F0E0FEA3E0FF126C1F9004F4E0FBA3E012
:105AC100FAA3E0F9A3E0FCA3E0F5828C83123F384E
:105AD1006F60061200367F00229004F1E004F0703E
:105AE100069004F0E004F09004F8E004F0708B906C
:0C5AF10004F7E004F080831200367F010F
:015AFD002286
:1052B7009004E1EEF0A3EFF09004E5EBF0A3EAF041
:0B52C700A3E9F09004E3ECF0A3EDF08D
:1052D200E49004E8F0A3F0A3F0A3F0A3F0A3F0A3FA
:1052E200F0A3F0D3ED9420EC940040037F002290D1
:1052F20004E1E0FCA3E0FDEC5401FEAF059004EAFA
:10530200F0A3EFF09004E4E02FFF9004E3E03EFE10
:10531200D3EF9420EE940040037F0022EC54FEFE73
:105322007F009004ECF0A3EFF0A3EEF0A3EFF09077
:1053320004E8F0A3F09004EEE475F001123FE2AF4E
:10534200F0FE126C1F9004E8A3E02422F8A607E006
:1053520004F070069004E8E004F0C39004E9E094DD
:10536200209004E8E0940040CCE49004E8F0A3F03C
:105372009004E3E0FEA3E0FF9004E8E0FCA3E0FD7C
:10538200C39FEC9E50349004E5E0FBA3E0FAA3E057
:10539200F98D828C83123F38FF9004EAE475F001A4
:1053A200123FE2742225F0F8A6079004E9E004F027
:1053B20070069004E8E004F080B69004ECE0FEA3EE
:1053C200E0FF126CA79004ECE0FFA3E0A3CFF0A3F0
:1053D200EFF0E49004E8F0A3F09004E8E0FCA3E02E
:1053E200FDC39420EC9400504C9004EEE0FEA3E048
:1053F200FF74222DF8E6FD126BD69004E1E0FEA3C5
:10540200E0FF126C1F9004E8A3E02422F8E66F602C
:10541200061200367F00229004EFE004F07006903E
:1054220004EEE004F09004E9E004F070069004E871
:0A543200E004F080A41200367F01B0
:01543C00224D
:04699800410529325A
:10684E00E5A254CFF5A2E4F5D8F5E9F5F975D9022C
:10685E00F5F275EA2075FA2075DA4275F34075EB9C
:10686E002075FB2075DB4275F48075EC2075FC20DD
:06687E0075DC42D2DE22AF
:10660E00E4F5B4F5B343BA80F5F190FFF2F090FFE4
:10661E00F07403F0A374E8F090FF20E4F0A3F0FC14
:10662E00FDFE7BE87A03F9F8123FF8E47B64FAF991
:10663E00F81266A390FF22EEF0A3EFF0A37408F019
:0B664E0043F50443F58053BA7F80FE43
:10665900E4F5CAF5C943BA80F5F190FFF2F090FF6D
:10666900F07403F0A374E8F090FF30E4F0A3F0FCB9
:10667900FDFE7BE87A03F9F8123FF8E47B64FAF946
:10668900F81266A390FF32EEF0A3EFF0A37408F0BE
:0A66990043F50843F58053BA7F2251
:106B4D00EF75F064A4FFAEF0C374109F900555F07F
:0F6B5D0074279E900554F0E4900528F0026CE137
:03009B00025F9C65
:105F9C00C0E0C0F0C083C082C0D075D000C000C0CB
:105FAC0001C002C003C004C005C006C0079005288C
:105FBC00E0703890052CE0FF75F012A4F404F5D5D0
:105FCC00E4FCFDFE7B12FAF9F8123FF8C3E49FFFE4
:105FDC00E49EFE74019DFDE49CFC78081240558FF4
:105FEC00D4D2A09005287401F0803590052AE0FFEA
:105FFC0075F012A4F404F5D5E4FCFDFE7B12FAF95D
:10600C00F8123FF8C3E49FFFE49EFE74019DFDE48B
:10601C009CFC78081240558FD4C2A0900528E4F05F
:10602C00D007D006D005D004D003D002D001D000C8
:0B603C00D0D0D082D083D0F0D0E03272
:0A5AFE00900451ECF0A3EDF0AB07AB
:105B0800A312407500000000EB1460191460221401
:105B1800603714602824047030900453124075468E
:105B2800900000802E900453124075462CCC0080C3
:105B38002290045312407545ACC800801690045357
:105B480012407544ACC000800A9004531240754559
:105B58002CD0005394BF5393BF43BA80E4F5F1901F
:105B6800FFF27403F0900453E0FCA3E0FDA3E0FE11
:105B7800A3E0FF123D8690FFF0EEF0A3EFF090FF58
:105B880050E4F0A3F0FBFA79C87842900453E0FCA3
:105B9800A3E0FDA3E0FEA3E0FF123C32C004C00571
:105BA800C006C007900451E0FCA3E0FDE4123D4D9F
:105BB800D003D002D001D000123B29123D8690FFBD
:105BC80052EEF0A3EFF0A37408F043F52043F580FC
:035BD80053BA7F3E
:015BDB0022A7
:0560D300900523EFF031
:1060D800A312407546D800005395FB5395FB43BA6D
:1060E80080E4F5F190FFF27407F0900524E0FCA33A
:1060F800E0FDA3E0FEA3E0FF123D8690FFF0EEF086
:10610800A3EFF090FF20E4F0A3F0FBFA79C87842FF
:10611800900524E0FCA3E0FDA3E0FEA3E0FF123C11
:1061280032C004C005C006C007900523E0FCE41295
:106138003D52D003D002D001D000123B29123D8637
:1061480090FF22EEF0A3EFF0A3E4F043F50443F54B
:046158008053BA7F37
:01615C002220
:105D8E0090055AEFF0900529E024F6602724FB6079
:105D9E003A24FB605224E2606A24D87003025E2D1E
:105DAE0024556003025E3E90055AE06401600302D2
:105DBE005E3E802C90055AE0B40102803F90055A59
:105DCE00E0F4706C9005297405806090055AE0B47B
:105DDE0001079005297414805290055AE0F4705012
:105DEE00900529740A804490055AE0B40107900585
:105DFE00297432803690055AE0F470349005297477
:105E0E000F802890055AE0B40107900529745A8036
:105E1E001A90055AE0B4FF189005297414800C905E
:105E2E00055AE0B4FF0A9005297432F0FF1260D3D0
:015E3E002241
:10656C00900556EEF0A3EFF0438E805389F0900522
:10657C0056E0FEA3E0FFE4FCFD7B16FAF9F8123FAF
:10658C00F8EFF404F58A900556E0FEA3E0FFE4FC76
:10659C00FD7B16FAF9F8123FF8C3E49FFFE49EFE68
:1065AC0074019DFDE49CFC78081240558F8CC28DC3
:0365BC00D28C225C
:106CCF00E5A254F34404F5A2E4F5CF75CDC075CE1B
:026CDF00502241
:03004B00026E69D9
:066E690075CDC0D291328C
:0A699C0042053100004205330000FF
:03000B0002512B74
:10512B00C0E0C0F0C083C082C0D075D000C000C04A
:0D513B0001C002C003C004C005C006C007CB
:1051480090045BE4F0A31240750000000090053263
:10515800E004F07006900531E004F0900534E004B6
:10516800F07006900533E004F0900531A3E0FF12DB
:105178006BFEC3900532E094FA900531E09400503C
:10518800030252581256CD90050F12406990050F30
:10519800E0FCA3E0FDA3E0FEA3E0FF123D86EF756F
:1051A800F00A842430FBE4FD7F0312673190050F79
:1051B800E0FCA3E0FDA3E0FEA3E0FF123D86EF754F
:1051C800F00A84E5F02430FB7D067F031267317B0B
:1051D8002E7D0C7F03126731E4FFFE7DC87C429070
:1051E800050FE0F8A3E0F9A3E0FAA3E0FB123B29DE
:1051F800123D867C007D64123F777E007F0ACFCD0A
:10520800CFCECCCE123F77EF2430FB7D127F031236
:105218006731E4FFFE7DC87C4290050FE0F8A3E00B
:10522800F9A3E0FAA3E0FB123B29123D867C007D3E
:105238000A123F77ED2430FB7D187F031267319007
:10524800050F12407500000000900531E4F0A3F04E
:10525800C3900534E094B8900533E0940B403512C0
:1052680063FF900513EFF075F00A842430FBE4FD2A
:105278007F04126731900513E075F00A84E5F02485
:1052880030FB7D067F04126731900513E4F090052A
:0452980033F0A3F05C
:10529C00D007D006D005D004D003D002D001D00066
:0B52AC00D0D0D082D083D0F0D0E03210
:106C6500538E7F5389F0C2B9E4F58A758C70C28D55
:076C7500D28CD2A9D2AF229C
:106CE10053D1FD75D501E4F5D443D10843AF20D28A
:026CF100AF22D0
:03000300020012E6
:0100120032BB
:096E4600D2B2D288D2A8D2AF2248
:03001300020026C2
:0100260032A7
:096E4F00D2B3C28AD2AAD2AF224A
:0300530002002781
:0100270032A6
:066E6F00438F10D2AF2298
:03005B0002002878
:0100280032A5
:066E7500438F20D2AF2282
:030083000200294F
:0100290032A4
:066E7B00438F40D2AF225C
:0300330002000EBA
:04000E005387DF3203
:086E61005387DFD2AED2AF224D
:106CF3007D3C7C00E4FF125AFE126DAB53F5DFC2FC
:026D03008622E6
:106D05007D3C7C007F03125AFE126DD853F5DFC21D
:026D15008622D4
:106D17007D3C7C007F03125AFE126DC953F5DFC21A
:026D27008622C2
:096E5800AD07AC067F04025AFEEE
:106D29007D3C7C007F04125AFE126DE753F5DFC2E9
:026D39008622B0
:066E81008FAA75AB802210
:1067DF002055534220636861726765200A00205577
:1067EF005342206368617267652000205553422031
:1067FF00206F6666736574200A002055534220206F
:08680F006F66667365742000DA
:0469A60041055B0A42
:106AA70053CBF143CC0E53CBFE53CCFEC2E9D2EA13
:106AB700D2EBD2E8E4F5B375B401C2C1D2E9126DE5
:046AC700F6D2C12220
:105BDC00E490047EF0A3F0A3F0A3F0A3F0A3124092
:105BEC007500000000E4900487F0A3F07F04126AB3
:105BFC000E900480EEF0A3EFF0C390047FE09F9032
:105C0C00047EE09E500F900480E0FFA3E090047EA1
:105C1C00CFF0A3EFF0120006900482E004F0E0C392
:105C2C00940A40C890047EE0FCA3E0FDE4123D4DD4
:105C3C00A804A905AA06AB077F0A7ED77DA37C44DE
:105C4C00123C32900483124069900483E0FCA3E080
:105C5C00FDA3E0FEA3E0FF123D867C007D64123FB5
:105C6C0065AC06AD07E4123D4DC004C005C006C0CE
:105C7C0007E4FFFE7DC87C42900483E0F8A3E0F9C2
:105C8C00A3E0FAA3E0FB123B29D003D002D001D051
:105C9C0000123A34123D86900487EEF0A3EFF09098
:0D5CAC000483E0FCA3E0FDA3E0FEA3E0FF05
:015CB90022C8
:1063FF00E4900460F0125BDC900461124069E4FFEA
:10640F00FEFDFC900461E0F8A3E0F9A3E0FAA3E03D
:10641F00FB123CCF60377FCD7ECC7D2C7CC09004AF
:10642F0061E0F8A3E0F9A3E0FAA3E0FB123A38E445
:10643F00FBFA79C87842123B297BFE7AFF79BF7845
:0F644F003F123C32123D86900460EFF0227F0036
:01645E00221B
:1056CD0090047412407500000000E4900478F0A37B
:1056DD00F0125BDC90047A124069900479E0C39477
:1056ED000A50247F05126A0E900479E025E02460AB
:1056FD00F582E43404F583EEF0A3EFF0120006908A
:10570D000479E004F080D390046CE0FEA3E0FF90F8
:10571D000467E02FFF900466E03EFE900473E02FD7
:10572D00FF900472E03EFE7C007D03123F77AD07D3
:10573D00AC06E4123D4D90047AE0F8A3E0F9A3E045
:10574D00FAA3E0FB123B297BE77AFB7979783F12CC
:10575D003B29E4FBFA79D478C3123A38E4FBFA79A1
:10576D00C87840123C32900474124069900474E081
:10577D00FCA3E0FDA3E0FEA3E0FF123D867C007DCF
:10578D0064123F65AC06AD07E4123D4DC004C00583
:10579D00C006C007E4FFFE7DC87C42900474E0F8AB
:1057AD00A3E0F9A3E0FAA3E0FB123B29D003D0025A
:1057BD00D001D000123A34123D86900478EFF0E417
:1057CD00FFFE7DAA7C42900474E0F8A3E0F9A3E00B
:1057DD00FAA3E0FB123CCF60044002C2E9900474CE
:0B57ED00E0FCA3E0FDA3E0FEA3E0FF52
:0157F800228E
:10694E004393805394FE7BFF3087137A6779DF126F
:10695E006A837BFF7A6779ED1257F97F01227A6796
:10696E0079FA126A837BFF7A6879091257F97F00E8
:01697E0022F6
:10485A004E4F203A20005331203A20005332203A5A
:10486A0020005333203A20005334203A2000533595
:10487A00203A2000204D41494E204D454E55200AF0
:10488A00200020554846204D4F44452000205548D9
:10489A0046204D4F4445200A2000204254204D4FC7
:1048AA0044452000204254204D4F4445200A200010
:1048BA002054455354204D4F44452000205445531D
:1048CA0054204D4F4445200A20002042415454456B
:1048DA005254204D4F4445200020424154544552E1
:1048EA0059204D4F4445200A200020425A204D4F5E
:1048FA004445200020425A204D4F4445200A2000BA
:10490A00204F4C45445F74696D696E672073657406
:10491A002000204F4C45445F74696D696E672073AF
:10492A006574200A2000204F4C45445F425A207388
:10493A0065742000204F4C45445F425A20736574C9
:10494A00200A2000202153797374656D5F506F77B8
:10495A0065725F5663635F4F4E5F4F4646200A207B
:10496A00002055313420706F77657220676F6F644D
:10497A0020002055313420706F77657220676F6F81
:10498A0064200A20002055313420706F7765722028
:10499A004E47204F4350204F545020002055313469
:1049AA0020706F776572204E47204F4350204F5436
:1049BA0050200A2000204E205653454C200020212A
:1049CA005653454C200A2000204E204259502000C0
:1049DA002021425950200A20002042415454455275
:1049EA0059A1A14D4F444520494E2000204241542F
:1049FA0054455259A1A14D4F444520494E200A2001
:104A0A000020425A204D4F444520494E2000204262
:104A1A005A204D4F444520494E200A2000204F4C31
:104A2A004544206765742072656164696E67207405
:104A3A00696D696E672000204F4C45445F74696D4B
:104A4A00696E67206765742072656164696E6720A4
:104A5A0074696D696E67200A2000204F4C45442016
:104A6A006765742077726974696E672074696D6905
:104A7A006E672000204F4C45445F74696D696E670C
:104A8A00206765742077726974696E672074696D2E
:104A9A00696E67200A2000204F4C45445F74696D97
:104AAA00696E672073657420494E2000204F4C457B
:104ABA00445F74696D696E672073657420494E207E
:104ACA000A2000204F4C45445F425A20757020004E
:104ADA00204F4C45445F425A207570200A2000201E
:104AEA004F4C45445F425A20646F776E2000204F36
:104AFA004C45445F425A20646F776E200A2000209A
:104B0A004F4C45445F425A2073657420494E200039
:104B1A00204F4C45445F425A2073657420494E2009
:104B2A000A2000204E4F54205345542000204E4F57
:094B3A005420534554200A2000C8
:0469AA0041055C0047
:105EEF00E490044EF0A3F0A3F07F03126C379004FC
:105EFF004EEFF0C394CD40037F0022126DAB7F03B2
:105F0F00126C3790044FEFF0126DAB7F03126C37AA
:105F1F00900450EFF090044FE02FFFE433C313EFE2
:105F2F001390044EF0126DAB7F03126C37EFD394C6
:105F3F00CD4002800A7F03126C37126BFE80E69011
:105F4F00044EE0C394125006126CF37F01229004AA
:105F5F004EE0C3943B5006126CF37F022290044E26
:105F6F00E0C394695006126CF37F032290044EE055
:105F7F00C3949B5006126CF37F042290044EE0C32F
:0C5F8F0094CD5006126CF37F05227F00B9
:015F9B0022E3
:104F8E00E4900547F0A3F0A3F07F03126C37900571
:104F9E0047EFF0C394CD4030126DAB7BFF7A48796A
:104FAE005A126A5F7FFF126BFE900547E0FF126B8D
:104FBE00FE7BFF7A48795A126A83900547E0FF120A
:104FCE006BFE53F5DF7F0022126DE77F03126C3705
:104FDE00900548EFF0126DAB7F03126C37900549C8
:104FEE00EFF0900548E02FFFE433C313EF13900565
:104FFE0047F0C3941250337BFF7A487960126A5F90
:10500E007FFF126BFE900547E0FF126BFE7BFF7A6F
:10501E00487960126A83900547E0FF126BFE7D3C73
:10502E007C007F01125AFE7F0122900547E0C39457
:10503E003B50337BFF7A487966126A5F7FFF126BB3
:10504E00FE900547E0FF126BFE7BFF7A48796012F7
:10505E006A83900547E0FF126BFE7D3C7C007F0269
:10506E00125AFE7F0222900547E0C3946950337BAB
:10507E00FF7A48796C126A5F7FFF126BFE900547CC
:10508E00E0FF126BFE7BFF7A48796C126A83900503
:10509E0047E0FF126BFE7D3C7C007F03125AFE7FC1
:1050AE000322900547E0C3949B50337BFF7A4879E7
:1050BE0072126A5F7FFF126BFE900547E0FF126B64
:1050CE00FE7BFF7A48796C126A83900547E0FF12E7
:1050DE006BFE7D3C7C007F04125AFE7F04229005FD
:1050EE0047E0C394CD50337BFF7A487978126A5FDC
:1050FE007FFF126BFE900547E0FF126BFE7BFF7A7F
:10510E0048796C126A83900547E0FF126BFE7D3C76
:0C511E007C00E4FF125AFE7F05227F0097
:01512A002262
:10419A00900558E4F0A3EFF090055CE01240A641C8
