:03000000025E326B
:0C5E3200787FE4F6D8FD758141025E79AE
:1061AB00E4900557F0A3F0A3F0A3123F27000000E3
:1061BB0000E490055EF0A3F0A3F0A3F0A3F0126C43
:1061CB00C2126996126B55126B73126B8E126A4563
:1061DB00126D0A125FD4126C79C2EE126CF87F61E9
:1061EB001266757F03126A8D7F01126A697F011235
:1061FB006AB1ABF8E4FD7F0312547FABF97D107FDE
:06620B000312547F80FE27
:10614300424C452073657420626175642053756306
:106153006365737300424C452073657420626175F7
:10616300642046616C736500424C4520626175642E
:1061730020726561642046616C73653100424C4551
:106183002062617564207265616420537563636581
:10619300737300424C4520626175642072656164CB
:0861A3002046616C73653200B7
:106C790053CB1F43CCE043CB1043CC10C2EDC2EF42
:036C8900D2EE2226
:055C6B009005FBEFF0C5
:105C7000E4A3F0A3F0126D4C7F01126E007FFC12C2
:105C80006E007F01126E007F01126E009005FBE036
:105C9000FF126E00126D5C9001A5E070037FFF2281
:105CA0009001A5E0FF9005FCE0FCA3E0FDC39F741C
:105CB00080F8EC648098501F74002DF58274003CCD
:105CC000F583E0FF126E009005FDE004F070D190C6
:105CD00005FCE004F080C9900002E09001A5B40149
:105CE00015E0FBE4FD7F0312547F7BFF7A6179436B
:105CF0001258F47F0122E0FBE4FD7F0312547F7B06
:0A5D0000FF7A6179581258F47FFF12
:015D0A002276
:10642B00126D4C7F01126E007FFC126E007F021208
:10643B006E00E4FF126E00126DB69001A5E0FB64D6
:10644B0005600FE4FD7F0312547F7BFF7A61796B4C
:10645B008018900003E0B4010B7BFF7A6179801206
:10646B0058F480FE7BFF7A6179961258F47FFF22F5
:0C0016007F547EF77D18DDFEDEFCDFFA73
:0100220022BB
:0E6D5C0000007F027EAF7D4BDDFEDEFCDFFA25
:016D6A002206
:0E6D6B0000007F0D7E9C7D53DDFEDEFCDFFA16
:016D790022F7
:0E6D7A0000007F017ED87D23DDFEDEFCDFFA07
:016D880022E8
:0E6D890000007F2B7E067DCBDDFEDEFCDFFAF8
:016D970022D9
:0E6D980000007FFD7E237DDCDDFEDEFCDFFAE9
:016DA60022CA
:0E6DA70000007F117ED07D1BDDFEDEFCDFFADA
:016DB50022BB
:0E6DB60000007F057E347DC3DDFEDEFCDFFACB
:016DC40022AC
:040006007F0EDFFE8C
:01000A0022D3
:0E6DC50000007F097E687D8BDDFEDEFCDFFABC
:016DD300229D
:104FED0020696E64795F7265616474656D7020739C
:104FFD0074617274200D0A00240349006D00700065
:10500D0069006E006A00530065007200690061005E
:10501D006C004E0075006D00300031004003BFFC88
:10502D00BFFCBFFC000001001200210000001000B9
:10503D000000000000000500000000000000060058
:10504D000000000000001000000000000000110032
:10505D0088E1F3C000000000F0000602000001002E
:10506D001200210000000200A000A00200000003B9
:10507D000000000000000200A000A0020000611B63
:10508D0002060000000005000000000000000207FD
:10509D0001000000000005000000000000000407F2
:1050AD000000000000000507D00700000000060703
:1050BD00DC00000000000707002000000000120BBC
:1050CD00FFFF0F00000005000000000000000005BC
:1050DD0000000000000000050000000000000006B8
:1050ED0000000000000000050000000000000005A9
:1050FD00000000000000000600000000000100009C
:10510D00000200000027000000872E0D00010001A5
:10511D0000020000008F2E0D0000000000000005B1
:0D512D00000000000000000600000000006F
:08690700410516FF41051700D0
:0B6271007B027F047A00E4FDFC7E0A43
:10627C009005BCEEF0A3EFF0A3ECF0A3EDF0A3EAD5
:10628C00F0A3EBF07F01126DF7E4FF126DF79005B0
:10629C00BCA3E0FF126DF79005BCE0FF126DF79008
:1062AC0005C0A3E0FF126DF79005C0E0FF126DF77B
:1062BC009005BEA3E0FF126DF79005BEE0FF026DE6
:0162CC00F7DA
:10679D00900610EEF0A3EFF0E4FF126DF7E4FF1298
:1067AD006DF7900610A3E0FF126DF7900610E0FF55
:1067BD00126DF7E4FF126DF7E4FF126DF7E4FF12AF
:0767CD006DF7E4FF026DF718
:10537C00E4FF9004F6E0900519F0E4900518F09025
:10538C000518E0FEFD3395E0FC74F72DF5827404EE
:10539C003CF583E0FDEEFB3395E0FA741A2BF582B5
:1053AC0074053AF583EDF0900518E004F0E0B40CC8
:1053BC00CEE4900518F0900518E0FEFD3395E0FC66
:1053CC0074032DF58274053CF583E0FDEEFB3395FB
:1053DC00E0FA74262BF58274053AF583EDF090050E
:1053EC0018E004F0E0B402CE900518740FF09005AC
:1053FC0018E0FEC3648094A0501AEEFD3395E0FCD7
:10540C0074192DF58274053CF583E4F0900518E0D1
:10541C0004F080DAE4900518F0900518E0FEC364FF
:10542C008094A0501BEEFD3395E0FC74192DF58291
:10543C0074053CF583E02FFF900518E004F080D94B
:10544C00EF900538F0E4900518F0900518E0FFC3D4
:10545C00648094A0501CEF3395E0FE74192FF582F4
:10546C0074053EF583E0FF126E00900518E004F021
:02547C0080D8D6
:01547E00220B
:1062CD00E49004F6F0FFEFFD3395E0FC74F72DF547
:1062DD008274043CF583E4F00FEFB40CE9E4FFEFB6
:1062ED00FD3395E0FC74032DF58274053CF583E4D4
:1062FD00F00FEFB402E9E4FFC3EF64809480501512
:10630D00EFFD3395E0FC74052DF58274053CF583A6
:0A631D00E4F00F80E3E4900515F0B2
:016327002253
:1049F5009005757401F0E4A3F0A3F074FFA3F0A390
:104A0500F0E4A3F0A3F0A3F0A3F0A3F0A3F0A3F0C8
:104A1500A3F0A3F0A3F0A3F0A37412F0E4A3F0C2F3
:104A250008C209A3F090057AE0FEA3E024A8F58268
:104A350074013EF583E064016003024AFF90057A44
:104A4500A3E0FF24A9F58274013EF583E090058774
:104A5500F074AB2FF58274013EF583E0FE90057A84
:104A6500E0FCA3E0FD24AAF58274013CF583E07A1D
:104A7500002400FFEA3E900578F0A3EFF074AD2D19
:104A8500F58274013CF583E0FE90057AA3E024AC41
:104A9500F58274013CF583E02400FFEA3E9005763B
:104AA500F0A3EFF0ED2408FFE43C90057CF0FCA3B7
:104AB500EFF0FD900576E0FAA3E0FBAE027802C3C5
:104AC50033CE33CED8F92DFFEE3C90057EF0A3EF23
:104AD500F0EB2402FFE43AFEEF7802C333CE33CE87
:104AE500D8F9FF90057BE02FF090057AE03EF07B4A
:104AF500FFE4FD7F0112547F80057B44024CC29088
:104B05000578E07004A3E06405705E90057DE024FF
:104B15000EFE90057CE03400900580F0A3CEF0E415
:104B2500900573F0A3F0C3900574E0940C900573A1
:104B3500E094005034E0FEA3E0FF900581E02FFDF6
:104B4500900580E03EFC74A82DF58274013CF58348
:104B5500E0FD74F72FF58274043EF583EDF07BBB21
:104B6500E4FD7F0112547F80FE900578E07004A378
:104B7500E064066003024A2A7BCCFD7F0112547F64
:104B8500900587E06003024CC07BDDFD7F01125478
:104B95007F90057CE0FEA3E0FF24ACF58274013E26
:104BA500F583E064C26003024CB4EF240CFFE43EDD
:104BB500900582F0A3EFF09004F6E024FE606814FF
:104BC5007003024C8724026003024CAAE49005732B
:104BD500F0A3F0900573E0FEA3E0FF900583E02FBE
:104BE500FD900582E03EFC74A82DF58274013CF52C
:104BF50083E0FD74032FF58274053EF583EDF07BAC
:104C0500CCE4FD7F0112547F900574E004F070063A
:104C1500900573E004F0C3900574E0940290057369
:104C2500E0940040AE8075E4900573F0A3F0900524
:104C350073E0FEA3E0FF900583E02FFD900582E081
:104C45003EFC74A82DF58274013CF583E0FD7403E8
:104C55002FF58274053EF583EDF07BDDE4FD7F01E4
:104C650012547F900574E004F07006900573E0041B
:104C7500F0C3900574E09402900573E0940040AE93
:104C8500801AE4900503F0900582E0FEA3E024A9D4
:104C9500F58274013EF583E0900504F0900517E078
:104CA50004F0024A2AE4900516F0A3F0024A2A7B92
:104CB50022E4FD7F0112547F024A2A7B33E4FD7F03
:044CC5000112547F05
:014CC90022C8
:1065A700E4900612F0A3F0FBFAFDFC7F027E0A12CC
:1065B700627C7B0C7F03126275126271E4FBFAFD49
:1065C700FC7F067E0A12627C7B107A00E4FDFCFFEA
:1065D7007EF012627C126D5C9001A8E0B40107C2E4
:0665E700AC1249F5D2AC34
:0165ED00228B
:10647B00E4900614F0A3F0FBFAFDFC7F027E0A12F7
:10648B00627C7B0D7A00E4FDFC7F037E0A12627C4A
:10649B00126271E4FBFAFDFC7F067E0A12627C7BC2
:1064AB00087A00E4FDFCFF7EF012627C126D5C90BA
:0D64BB0001A8E0B40107C2AC1249F5D2AC53
:0164C80022B1
:10632800E4900616F0A3F07BFF7A4F79ED12683DF2
:10633800E4FBFAFDFC7F027E0A12627C7B0E7A0087
:10634800E4FDFC7F037E0A12627C126271E4FBFAB0
:10635800FDFC7F067E0A12627C7B077A00E4FDFC66
:10636800FF7EF012627C126C39126D5C9001A8E01D
:0A637800B40107C2AC1249F5D2AC23
:0163820022F8
:10663200E4FF900000E060379001A5E0C3940850A9
:1066420003E4FE22E4FEEEFD3395E0FC74002DF53A
:106652008274003CF583E02FFF0EEEB407E8900051
:1066620007E0B507057E007F0122126D4C8000E431
:02667200FEFF29
:016674002203
:10009E00EF14B42200400302233C9000B675F00327
:1000AE00A4C58325F0C5837302011C02012502013C
:1000BE002E0201300201320203A902013502014370
:1000CE0002015102015F02016D02017B02018F02EA
:1000DE0001A30201B70201F302020702026B020240
:1000EE007F0202930202A70202BB0202CF02233C4E
:1000FE0002030B0203470203A902035B02039602EB
:10010E0003A90203BC0203D40203A90203FC7FC0AD
:10011E00126DF77F0680337F40126DF77F03802AC2
:10012E00802F8003020347E4FF126DF7E4FF126D88
:10013E00F77F108058E4FF126DF7E4FF126DF77F22
:10014E0011804AE4FF126DF7E4FF126DF7E4FF80B1
:10015E003CE4FF126DF7E4FF126DF77F01802EE491
:10016E00FF126DF7E4FF126DF77F028020E4FF129D
:10017E006DF7E4FF126DF7E4FF126DF77F030203D4
:10018E00E5E4FF126DF7E4FF126DF77F02126DF7D3
:10019E00E4FF0203E5E4FF126DF7E4FF126DF77F53
:1001AE0061126DF77F1B0203E57F01126DF7E4FF0D
:1001BE00126DF77F01126DF77F07126DF7E4FF12D4
:1001CE006DF7E4FF126DF7E4FF126DF7E4FF126DA9
:1001DE00F7E4FF126DF7E4FF126DF77F05126DF76E
:1001EE00E4FF0203E5E4FF126DF7E4FF126DF77F03
:1001FE0002126DF77F070203E57F01126DF7E4FF30
:10020E00126DF77F02126DF77F07126DF77F0112E5
:10021E006DF7E4FF126DF7E4FF126DF7E4FF126D58
:10022E00F77F01126DF7E4FF126DF77F01126DF784
:10023E007F07126DF7E4FF126DF7E4FF126DF7E41E
:10024E00FF126DF7E4FF126DF7E4FF126DF7E4FF96
:10025E00126DF77F05126DF7E4FF0203E5E4FF125E
:10026E006DF7E4FF126DF77F04126DF77F0702033F
:10027E00E5E4FF126DF7E4FF126DF77F05126DF7DF
:10028E007F070203E5E4FF126DF7E4FF126DF77FBF
:10029E0006126DF77F070203E5E4FF126DF7E4FF28
:1002AE00126DF77F07126DF77F070203E5E4FF1269
:1002BE006DF7E4FF126DF77F12126DF77F0B0203DD
:1002CE00E57F01126DF7E4FF126DF77F01126DF7F6
:1002DE007F07126DF7E4FF126DF7E4FF126DF7E47E
:1002EE00FF126DF7E4FF126DF7E4FF126DF7E4FFF6
:1002FE00126DF77F05126DF7E4FF0203E57F011221
:10030E006DF7E4FF126DF77F0A126DF77F01126D24
:10031E00F77FF8126DF77F59126DF77F0D126DF79B
:10032E00E4FF126DF7E4FF126DF7E4FF126DF77F35
:10033E0005126DF7E4FF0203E5E4FF126DF7E4FF2B
:10034E00126DF77F05126DF7E4FF0203E57F0112D0
:10035E006DF7E4FF126DF77F08126DF77F01126DD6
:10036E00F77F01126DF77F01126DF7E4FF126DF743
:10037E00E4FF126DF7E4FF126DF7E4FF126DF77FE5
:10038E0005126DF7E4FF804FE4FF126DF7E4FF12E4
:10039E006DF77F05126DF7E4FF803CE4FF126DF7F9
:1003AE00E4FF126DF77F06126DF7E4FF80297F01DF
:1003BE00126DF7E4FF126DF7E4FF126DF77FF01286
:1003CE006DF77F278016E4FF126DF7E4FF126DF7CD
:1003DE007F05126DF7E4FF126DF7E4FF126DF7E47F
:1003EE00FF126DF7E4FF126DF7E4FF0223397F0170
:1003FE00126DF7E4FF126DF77F01126DF77F0C128D
:10040E006DF7E4FF126DF7E4FF126DF7E4FF126D66
:10041E00F7E4FF126DF77F01126DF7E4FF126DF72F
:10042E007F02126DF77F0C126DF77F01126DF7E4EC
:10043E00FF126DF7E4FF126DF7E4FF126DF77F0107
:10044E00126DF7E4FF126DF77F03126DF77F0C123A
:10045E006DF77F70126DF77F0D126DF77F18126DAD
:10046E00F7E4FF126DF77F01126DF7E4FF126DF7DF
:10047E007F04126DF77F0C126DF7E4FF126DF77F9C
:10048E0001126DF77F07126DF77F14126DF77F0162
:10049E00126DF7E4FF126DF77F01126DF77F0C12EC
:1004AE006DF77F01126DF7E4FF126DF7E4FF126D29
:1004BE00F7E4FF126DF77F01126DF7E4FF126DF78F
:1004CE007F02126DF77F0C126DF77F01126DF7E44C
:1004DE00FF126DF7E4FF126DF7E4FF126DF77F0167
:1004EE00126DF7E4FF126DF77F03126DF77F0C129A
:1004FE006DF77F84126DF77F0D126DF77F18126DF9
:10050E00F7E4FF126DF77F01126DF7E4FF126DF73E
:10051E007F04126DF77F0C126DF7E4FF126DF77FFB
:10052E0001126DF77F07126DF77F14126DF77F01C1
:10053E00126DF7E4FF126DF77F01126DF77F0C124B
:10054E006DF77F02126DF7E4FF126DF7E4FF126D87
:10055E00F7E4FF126DF77F01126DF7E4FF126DF7EE
:10056E007F02126DF77F0C126DF77F01126DF7E4AB
:10057E00FF126DF7E4FF126DF7E4FF126DF77F01C6
:10058E00126DF7E4FF126DF77F03126DF77F0C12F9
:10059E006DF77F98126DF77F0D126DF77F18126D44
:1005AE00F7E4FF126DF77F01126DF7E4FF126DF79E
:1005BE007F04126DF77F0C126DF7E4FF126DF77F5B
:1005CE0001126DF77F07126DF77F14126DF77F0121
:1005DE00126DF7E4FF126DF77F01126DF77F0C12AB
:1005EE006DF77F03126DF7E4FF126DF7E4FF126DE6
:1005FE00F7E4FF126DF77F01126DF7E4FF126DF74E
:10060E007F02126DF77F0C126DF77F01126DF7E40A
:10061E00FF126DF7E4FF126DF7E4FF126DF77F0125
:10062E00126DF7E4FF126DF77F03126DF77F0C1258
:10063E006DF77FAC126DF77F0D126DF77F18126D8F
:10064E00F7E4FF126DF77F01126DF7E4FF126DF7FD
:10065E007F04126DF77F0C126DF7E4FF126DF77FBA
:10066E0001126DF77F07126DF77F14126DF77F0180
:10067E00126DF7E4FF126DF77F01126DF77F0C120A
:10068E006DF77F04126DF7E4FF126DF7E4FF126D44
:10069E00F7E4FF126DF77F01126DF7E4FF126DF7AD
:1006AE007F02126DF77F0C126DF77F01126DF7E46A
:1006BE00FF126DF7E4FF126DF7E4FF126DF77F0185
:1006CE00126DF7E4FF126DF77F03126DF77F0C12B8
:1006DE006DF77FC0126DF77F0D126DF77F18126DDB
:1006EE00F7E4FF126DF77F01126DF7E4FF126DF75D
:1006FE007F04126DF77F0C126DF7E4FF126DF77F1A
:10070E0001126DF77F07126DF77F14126DF77F01DF
:10071E00126DF7E4FF126DF77F01126DF77F0C1269
:10072E006DF77F05126DF7E4FF126DF7E4FF126DA2
:10073E00F7E4FF126DF77F01126DF7E4FF126DF70C
:10074E007F02126DF77F0C126DF77F01126DF7E4C9
:10075E00FF126DF7E4FF126DF7E4FF126DF77F01E4
:10076E00126DF7E4FF126DF77F03126DF77F0C1217
:10077E006DF77FD4126DF77F0D126DF77F18126D26
:10078E00F7E4FF126DF77F01126DF7E4FF126DF7BC
:10079E007F04126DF77F0C126DF7E4FF126DF77F79
:1007AE0001126DF77F07126DF77F14126DF77F013F
:1007BE00126DF7E4FF126DF77F01126DF77F0C12C9
:1007CE006DF77F06126DF7E4FF126DF7E4FF126D01
:1007DE00F7E4FF126DF77F01126DF7E4FF126DF76C
:1007EE007F02126DF77F0C126DF77F01126DF7E429
:1007FE00FF126DF7E4FF126DF7E4FF126DF77F0144
:10080E00126DF7E4FF126DF77F03126DF77F0C1276
:10081E006DF77FE8126DF77F0D126DF77F18126D71
:10082E00F7E4FF126DF77F01126DF7E4FF126DF71B
:10083E007F04126DF77F0C126DF7E4FF126DF77FD8
:10084E0001126DF77F07126DF77F14126DF77F019E
:10085E00126DF7E4FF126DF77F01126DF77F0C1228
:10086E006DF77F07126DF7E4FF126DF7E4FF126D5F
:10087E00F7E4FF126DF77F01126DF7E4FF126DF7CB
:10088E007F02126DF77F0C126DF77F01126DF7E488
:10089E00FF126DF7E4FF126DF7E4FF126DF77F01A3
:1008AE00126DF7E4FF126DF77F03126DF77F0C12D6
:1008BE006DF77FFC126DF77F0D126DF77F18126DBD
:1008CE00F7E4FF126DF77F01126DF7E4FF126DF77B
:1008DE007F04126DF77F0C126DF7E4FF126DF77F38
:1008EE0001126DF77F07126DF77F14126DF77F01FE
:1008FE00126DF7E4FF126DF77F01126DF77F0C1288
:10090E006DF77F08126DF7E4FF126DF7E4FF126DBD
:10091E00F7E4FF126DF77F01126DF7E4FF126DF72A
:10092E007F02126DF77F0C126DF77F01126DF7E4E7
:10093E00FF126DF7E4FF126DF7E4FF126DF77F0102
:10094E00126DF7E4FF126DF77F03126DF77F0C1235
:10095E006DF77F10126DF77F0E126DF77F18126D07
:10096E00F7E4FF126DF77F01126DF7E4FF126DF7DA
:10097E007F04126DF77F0C126DF7E4FF126DF77F97
:10098E0001126DF77F07126DF77F14126DF77F015D
:10099E00126DF7E4FF126DF77F01126DF77F0C12E7
:1009AE006DF77F09126DF7E4FF126DF7E4FF126D1C
:1009BE00F7E4FF126DF77F01126DF7E4FF126DF78A
:1009CE007F02126DF77F0C126DF77F01126DF7E447
:1009DE00FF126DF7E4FF126DF7E4FF126DF77F0162
:1009EE00126DF7E4FF126DF77F03126DF77F0C1295
:1009FE006DF77F24126DF77F0E126DF77F18126D53
:100A0E00F7E4FF126DF77F01126DF7E4FF126DF739
:100A1E007F04126DF77F0C126DF7E4FF126DF77FF6
:100A2E0001126DF77F07126DF77F14126DF77F01BC
:100A3E00126DF7E4FF126DF77F01126DF77F0C1246
:100A4E006DF77F0A126DF7E4FF126DF7E4FF126D7A
:100A5E00F7E4FF126DF77F01126DF7E4FF126DF7E9
:100A6E007F02126DF77F0C126DF77F01126DF7E4A6
:100A7E00FF126DF7E4FF126DF7E4FF126DF77F01C1
:100A8E00126DF7E4FF126DF77F03126DF77F0C12F4
:100A9E006DF77F38126DF77F0E126DF77F18126D9E
:100AAE00F7E4FF126DF77F01126DF7E4FF126DF799
:100ABE007F04126DF77F0C126DF7E4FF126DF77F56
:100ACE0001126DF77F07126DF77F14126DF77F011C
:100ADE00126DF7E4FF126DF77F01126DF77F0C12A6
:100AEE006DF77F0B126DF7E4FF126DF7E4FF126DD9
:100AFE00F7E4FF126DF77F01126DF7E4FF126DF749
:100B0E007F02126DF77F0C126DF77F01126DF7E405
:100B1E00FF126DF7E4FF126DF7E4FF126DF77F0120
:100B2E00126DF7E4FF126DF77F03126DF77F0C1253
:100B3E006DF77F4C126DF77F0E126DF77F18126DE9
:100B4E00F7E4FF126DF77F01126DF7E4FF126DF7F8
:100B5E007F04126DF77F0C126DF7E4FF126DF77FB5
:100B6E0001126DF77F07126DF77F14126DF77F017B
:100B7E00126DF7E4FF126DF77F01126DF77F0C1205
:100B8E006DF77F0C126DF7E4FF126DF7E4FF126D37
:100B9E00F7E4FF126DF77F01126DF7E4FF126DF7A8
:100BAE007F02126DF77F0C126DF77F01126DF7E465
:100BBE00FF126DF7E4FF126DF7E4FF126DF77F0180
:100BCE00126DF7E4FF126DF77F03126DF77F0C12B3
:100BDE006DF77F60126DF77F0E126DF77F18126D35
:100BEE00F7E4FF126DF77F01126DF7E4FF126DF758
:100BFE007F04126DF77F0C126DF7E4FF126DF77F15
:100C0E0001126DF77F07126DF77F14126DF77F01DA
:100C1E00126DF7E4FF126DF77F01126DF77F0C1264
:100C2E006DF77F0D126DF7E4FF126DF7E4FF126D95
:100C3E00F7E4FF126DF77F01126DF7E4FF126DF707
:100C4E007F02126DF77F0C126DF7E4FF126DF7E461
:100C5E00FF126DF7E4FF126DF7E4FF126DF77F01DF
:100C6E00126DF7E4FF126DF77F03126DF77F0C1212
:100C7E006DF77F60126DF77F0E126DF77F18126D94
:100C8E00F7E4FF126DF77F01126DF7E4FF126DF7B7
:100C9E007F04126DF77F0C126DF7E4FF126DF77F74
:100CAE0001126DF77F07126DF77F14126DF77F013A
:100CBE00126DF7E4FF126DF77F01126DF77F0C12C4
:100CCE006DF77F0E126DF7E4FF126DF7E4FF126DF4
:100CDE00F7E4FF126DF77F01126DF7E4FF126DF767
:100CEE007F02126DF77F0C126DF7E4FF126DF7E4C1
:100CFE00FF126DF7E4FF126DF7E4FF126DF77F013F
:100D0E00126DF7E4FF126DF77F03126DF77F0C1271
:100D1E006DF77F60126DF77F0E126DF77F18126DF3
:100D2E00F7E4FF126DF77F01126DF7E4FF126DF716
:100D3E007F04126DF77F0C126DF7E4FF126DF77FD3
:100D4E0001126DF77F07126DF77F14126DF77F0199
:100D5E00126DF7E4FF126DF77F01126DF77F0C1223
:100D6E006DF77F0F126DF7E4FF126DF7E4FF126D52
:100D7E00F7E4FF126DF77F01126DF7E4FF126DF7C6
:100D8E007F02126DF77F0C126DF7E4FF126DF7E420
:100D9E00FF126DF7E4FF126DF7E4FF126DF77F019E
:100DAE00126DF7E4FF126DF77F03126DF77F0C12D1
:100DBE006DF77F60126DF77F0E126DF77F18126D53
:100DCE00F7E4FF126DF77F01126DF7E4FF126DF776
:100DDE007F04126DF77F0C126DF7E4FF126DF77F33
:100DEE0001126DF77F07126DF77F14126DF77F01F9
:100DFE00126DF7E4FF126DF77F01126DF77F0C1283
:100E0E006DF77F10126DF7E4FF126DF7E4FF126DB0
:100E1E00F7E4FF126DF77F01126DF7E4FF126DF725
:100E2E007F02126DF77F0C126DF7E4FF126DF7E47F
:100E3E00FF126DF7E4FF126DF7E4FF126DF77F01FD
:100E4E00126DF7E4FF126DF77F03126DF77F0C1230
:100E5E006DF77F60126DF77F0E126DF77F18126DB2
:100E6E00F7E4FF126DF77F01126DF7E4FF126DF7D5
:100E7E007F04126DF77F0C126DF7E4FF126DF77F92
:100E8E0001126DF77F07126DF77F14126DF77F0158
:100E9E00126DF7E4FF126DF77F01126DF77F0C12E2
:100EAE006DF77F11126DF7E4FF126DF7E4FF126D0F
:100EBE00F7E4FF126DF77F01126DF7E4FF126DF785
:100ECE007F02126DF77F0C126DF7E4FF126DF7E4DF
:100EDE00FF126DF7E4FF126DF7E4FF126DF77F015D
:100EEE00126DF7E4FF126DF77F03126DF77F0C1290
:100EFE006DF77F60126DF77F0E126DF77F18126D12
:100F0E00F7E4FF126DF77F01126DF7E4FF126DF734
:100F1E007F04126DF77F0C126DF7E4FF126DF77FF1
:100F2E0001126DF77F07126DF77F14126DF77F01B7
:100F3E00126DF7E4FF126DF77F01126DF77F0C1241
:100F4E006DF77F12126DF7E4FF126DF7E4FF126D6D
:100F5E00F7E4FF126DF77F01126DF7E4FF126DF7E4
:100F6E007F02126DF77F0C126DF7E4FF126DF7E43E
:100F7E00FF126DF7E4FF126DF7E4FF126DF77F01BC
:100F8E00126DF7E4FF126DF77F03126DF77F0C12EF
:100F9E006DF77F60126DF77F0E126DF77F18126D71
:100FAE00F7E4FF126DF77F01126DF7E4FF126DF794
:100FBE007F04126DF77F0C126DF7E4FF126DF77F51
:100FCE0001126DF77F07126DF77F14126DF77F0117
:100FDE00126DF7E4FF126DF77F01126DF77F0C12A1
:100FEE006DF77F13126DF7E4FF126DF7E4FF126DCC
:100FFE00F7E4FF126DF77F01126DF7E4FF126DF744
:10100E007F02126DF77F0C126DF7E4FF126DF7E49D
:10101E00FF126DF7E4FF126DF7E4FF126DF77F011B
:10102E00126DF7E4FF126DF77F03126DF77F0C124E
:10103E006DF77F60126DF77F0E126DF77F18126DD0
:10104E00F7E4FF126DF77F01126DF7E4FF126DF7F3
:10105E007F04126DF77F0C126DF7E4FF126DF77FB0
:10106E0001126DF77F07126DF77F14126DF77F0176
:10107E00126DF7E4FF126DF77F01126DF77F0C1200
:10108E006DF77F14126DF7E4FF126DF7E4FF126D2A
:10109E00F7E4FF126DF77F01126DF7E4FF126DF7A3
:1010AE007F02126DF77F0C126DF7E4FF126DF7E4FD
:1010BE00FF126DF7E4FF126DF7E4FF126DF77F017B
:1010CE00126DF7E4FF126DF77F03126DF77F0C12AE
:1010DE006DF77F60126DF77F0E126DF77F18126D30
:1010EE00F7E4FF126DF77F01126DF7E4FF126DF753
:1010FE007F04126DF77F0C126DF7E4FF126DF77F10
:10110E0001126DF77F07126DF77F14126DF77F01D5
:10111E00126DF7E4FF126DF77F01126DF77F0C125F
:10112E006DF77F15126DF7E4FF126DF7E4FF126D88
:10113E00F7E4FF126DF77F01126DF7E4FF126DF702
:10114E007F02126DF77F0C126DF7E4FF126DF7E45C
:10115E00FF126DF7E4FF126DF7E4FF126DF77F01DA
:10116E00126DF7E4FF126DF77F03126DF77F0C120D
:10117E006DF77F60126DF77F0E126DF77F18126D8F
:10118E00F7E4FF126DF77F01126DF7E4FF126DF7B2
:10119E007F04126DF77F0C126DF7E4FF126DF77F6F
:1011AE0001126DF77F07126DF77F14126DF77F0135
:1011BE00126DF7E4FF126DF77F01126DF77F0C12BF
:1011CE006DF77F16126DF7E4FF126DF7E4FF126DE7
:1011DE00F7E4FF126DF77F01126DF7E4FF126DF762
:1011EE007F02126DF77F0C126DF7E4FF126DF7E4BC
:1011FE00FF126DF7E4FF126DF7E4FF126DF77F013A
:10120E00126DF7E4FF126DF77F03126DF77F0C126C
:10121E006DF77F60126DF77F0E126DF77F18126DEE
:10122E00F7E4FF126DF77F01126DF7E4FF126DF711
:10123E007F04126DF77F0C126DF7E4FF126DF77FCE
:10124E0001126DF77F07126DF77F14126DF77F0194
:10125E00126DF7E4FF126DF77F01126DF77F0C121E
:10126E006DF77F17126DF7E4FF126DF7E4FF126D45
:10127E00F7E4FF126DF77F01126DF7E4FF126DF7C1
:10128E007F02126DF77F0C126DF7E4FF126DF7E41B
:10129E00FF126DF7E4FF126DF7E4FF126DF77F0199
:1012AE00126DF7E4FF126DF77F03126DF77F0C12CC
:1012BE006DF77F60126DF77F0E126DF77F18126D4E
:1012CE00F7E4FF126DF77F01126DF7E4FF126DF771
:1012DE007F04126DF77F0C126DF7E4FF126DF77F2E
:1012EE0001126DF77F07126DF77F14126DF77F01F4
:1012FE00126DF7E4FF126DF77F01126DF77F0C127E
:10130E006DF77F18126DF7E4FF126DF7E4FF126DA3
:10131E00F7E4FF126DF77F01126DF7E4FF126DF720
:10132E007F02126DF77F0C126DF7E4FF126DF7E47A
:10133E00FF126DF7E4FF126DF7E4FF126DF77F01F8
:10134E00126DF7E4FF126DF77F03126DF77F0C122B
:10135E006DF77F60126DF77F0E126DF77F18126DAD
:10136E00F7E4FF126DF77F01126DF7E4FF126DF7D0
:10137E007F04126DF77F0C126DF7E4FF126DF77F8D
:10138E0001126DF77F07126DF77F14126DF77F0153
:10139E00126DF7E4FF126DF77F01126DF77F0C12DD
:1013AE006DF77F19126DF7E4FF126DF7E4FF126D02
:1013BE00F7E4FF126DF77F01126DF7E4FF126DF780
:1013CE007F02126DF77F0C126DF7E4FF126DF7E4DA
:1013DE00FF126DF7E4FF126DF7E4FF126DF77F0158
:1013EE00126DF7E4FF126DF77F03126DF77F0C128B
:1013FE006DF77F60126DF77F0E126DF77F18126D0D
:10140E00F7E4FF126DF77F01126DF7E4FF126DF72F
:10141E007F04126DF77F0C126DF7E4FF126DF77FEC
:10142E0001126DF77F07126DF77F14126DF77F01B2
:10143E00126DF7E4FF126DF77F01126DF77F0C123C
:10144E006DF77F1A126DF7E4FF126DF7E4FF126D60
:10145E00F7E4FF126DF77F01126DF7E4FF126DF7DF
:10146E007F02126DF77F0C126DF7E4FF126DF7E439
:10147E00FF126DF7E4FF126DF7E4FF126DF77F01B7
:10148E00126DF7E4FF126DF77F03126DF77F0C12EA
:10149E006DF77F60126DF77F0E126DF77F18126D6C
:1014AE00F7E4FF126DF77F01126DF7E4FF126DF78F
:1014BE007F04126DF77F0C126DF7E4FF126DF77F4C
:1014CE0001126DF77F07126DF77F14126DF77F0112
:1014DE00126DF7E4FF126DF77F01126DF77F0C129C
:1014EE006DF77F1B126DF7E4FF126DF7E4FF126DBF
:1014FE00F7E4FF126DF77F01126DF7E4FF126DF73F
:10150E007F02126DF77F0C126DF7E4FF126DF7E498
:10151E00FF126DF7E4FF126DF7E4FF126DF77F0116
:10152E00126DF7E4FF126DF77F03126DF77F0C1249
:10153E006DF77F60126DF77F0E126DF77F18126DCB
:10154E00F7E4FF126DF77F01126DF7E4FF126DF7EE
:10155E007F04126DF77F0C126DF7E4FF126DF77FAB
:10156E0001126DF77F07126DF77F14126DF77F0171
:10157E00126DF7E4FF126DF77F01126DF77F0C12FB
:10158E006DF77F1C126DF7E4FF126DF7E4FF126D1D
:10159E00F7E4FF126DF77F01126DF7E4FF126DF79E
:1015AE007F02126DF77F0C126DF7E4FF126DF7E4F8
:1015BE00FF126DF7E4FF126DF7E4FF126DF77F0176
:1015CE00126DF7E4FF126DF77F03126DF77F0C12A9
:1015DE006DF77F60126DF77F0E126DF77F18126D2B
:1015EE00F7E4FF126DF77F01126DF7E4FF126DF74E
:1015FE007F04126DF77F0C126DF7E4FF126DF77F0B
:10160E0001126DF77F07126DF77F14126DF77F01D0
:10161E00126DF7E4FF126DF77F01126DF77F0C125A
:10162E006DF77F1D126DF7E4FF126DF7E4FF126D7B
:10163E00F7E4FF126DF77F01126DF7E4FF126DF7FD
:10164E007F02126DF77F0C126DF7E4FF126DF7E457
:10165E00FF126DF7E4FF126DF7E4FF126DF77F01D5
:10166E00126DF7E4FF126DF77F03126DF77F0C1208
:10167E006DF77F60126DF77F0E126DF77F18126D8A
:10168E00F7E4FF126DF77F01126DF7E4FF126DF7AD
:10169E007F04126DF77F0C126DF7E4FF126DF77F6A
:1016AE0001126DF77F07126DF77F14126DF77F0130
:1016BE00126DF7E4FF126DF77F01126DF77F0C12BA
:1016CE006DF77F1E126DF7E4FF126DF7E4FF126DDA
:1016DE00F7E4FF126DF77F01126DF7E4FF126DF75D
:1016EE007F02126DF77F0C126DF7E4FF126DF7E4B7
:1016FE00FF126DF7E4FF126DF7E4FF126DF77F0135
:10170E00126DF7E4FF126DF77F03126DF77F0C1267
:10171E006DF77F60126DF77F0E126DF77F18126DE9
:10172E00F7E4FF126DF77F01126DF7E4FF126DF70C
:10173E007F04126DF77F0C126DF7E4FF126DF77FC9
:10174E0001126DF77F07126DF77F14126DF77F018F
:10175E00126DF7E4FF126DF77F01126DF77F0C1219
:10176E006DF77F1F126DF7E4FF126DF7E4FF126D38
:10177E00F7E4FF126DF77F01126DF7E4FF126DF7BC
:10178E007F02126DF77F0C126DF7E4FF126DF7E416
:10179E00FF126DF7E4FF126DF7E4FF126DF77F0194
:1017AE00126DF7E4FF126DF77F03126DF77F0C12C7
:1017BE006DF77F60126DF77F0E126DF77F18126D49
:1017CE00F7E4FF126DF77F01126DF7E4FF126DF76C
:1017DE007F04126DF77F0C126DF7E4FF126DF77F29
:1017EE0001126DF77F07126DF77F14126DF77F01EF
:1017FE00126DF7E4FF126DF77F01126DF77F0C1279
:10180E006DF77F20126DF7E4FF126DF7E4FF126D96
:10181E00F7E4FF126DF77F01126DF7E4FF126DF71B
:10182E007F02126DF77F0C126DF7E4FF126DF7E475
:10183E00FF126DF7E4FF126DF7E4FF126DF77F01F3
:10184E00126DF7E4FF126DF77F03126DF77F0C1226
:10185E006DF77F60126DF77F0E126DF77F18126DA8
:10186E00F7E4FF126DF77F01126DF7E4FF126DF7CB
:10187E007F04126DF77F0C126DF7E4FF126DF77F88
:10188E0001126DF77F07126DF77F14126DF77F014E
:10189E00126DF7E4FF126DF77F01126DF77F0C12D8
:1018AE006DF77F21126DF7E4FF126DF7E4FF126DF5
:1018BE00F7E4FF126DF77F01126DF7E4FF126DF77B
:1018CE007F02126DF77F0C126DF7E4FF126DF7E4D5
:1018DE00FF126DF7E4FF126DF7E4FF126DF77F0153
:1018EE00126DF7E4FF126DF77F03126DF77F0C1286
:1018FE006DF77F60126DF77F0E126DF77F18126D08
:10190E00F7E4FF126DF77F01126DF7E4FF126DF72A
:10191E007F04126DF77F0C126DF7E4FF126DF77FE7
:10192E0001126DF77F07126DF77F14126DF77F01AD
:10193E00126DF7E4FF126DF77F01126DF77F0C1237
:10194E006DF77F22126DF7E4FF126DF7E4FF126D53
:10195E00F7E4FF126DF77F01126DF7E4FF126DF7DA
:10196E007F02126DF77F0C126DF7E4FF126DF7E434
:10197E00FF126DF7E4FF126DF7E4FF126DF77F01B2
:10198E00126DF7E4FF126DF77F03126DF77F0C12E5
:10199E006DF77F60126DF77F0E126DF77F18126D67
:1019AE00F7E4FF126DF77F01126DF7E4FF126DF78A
:1019BE007F04126DF77F0C126DF7E4FF126DF77F47
:1019CE0001126DF77F07126DF77F14126DF77F010D
:1019DE00126DF7E4FF126DF77F01126DF77F0C1297
:1019EE006DF77F23126DF7E4FF126DF7E4FF126DB2
:1019FE00F7E4FF126DF77F01126DF7E4FF126DF73A
:101A0E007F02126DF77F0C126DF7E4FF126DF7E493
:101A1E00FF126DF7E4FF126DF7E4FF126DF77F0111
:101A2E00126DF7E4FF126DF77F03126DF77F0C1244
:101A3E006DF77F60126DF77F0E126DF77F18126DC6
:101A4E00F7E4FF126DF77F01126DF7E4FF126DF7E9
:101A5E007F04126DF77F0C126DF7E4FF126DF77FA6
:101A6E0001126DF77F07126DF77F14126DF77F016C
:101A7E00126DF7E4FF126DF77F01126DF77F0C12F6
:101A8E006DF77F24126DF7E4FF126DF7E4FF126D10
:101A9E00F7E4FF126DF77F01126DF7E4FF126DF799
:101AAE007F02126DF77F0C126DF7E4FF126DF7E4F3
:101ABE00FF126DF7E4FF126DF7E4FF126DF77F0171
:101ACE00126DF7E4FF126DF77F03126DF77F0C12A4
:101ADE006DF77F60126DF77F0E126DF77F18126D26
:101AEE00F7E4FF126DF77F01126DF7E4FF126DF749
:101AFE007F04126DF77F0C126DF7E4FF126DF77F06
:101B0E0001126DF77F07126DF77F14126DF77F01CB
:101B1E00126DF7E4FF126DF77F01126DF77F0C1255
:101B2E006DF77F25126DF7E4FF126DF7E4FF126D6E
:101B3E00F7E4FF126DF77F01126DF7E4FF126DF7F8
:101B4E007F02126DF77F0C126DF7E4FF126DF7E452
:101B5E00FF126DF7E4FF126DF7E4FF126DF77F01D0
:101B6E00126DF7E4FF126DF77F03126DF77F0C1203
:101B7E006DF77F60126DF77F0E126DF77F18126D85
:101B8E00F7E4FF126DF77F01126DF7E4FF126DF7A8
:101B9E007F04126DF77F0C126DF7E4FF126DF77F65
:101BAE0001126DF77F07126DF77F14126DF77F012B
:101BBE00126DF7E4FF126DF77F01126DF77F0C12B5
:101BCE006DF77F26126DF7E4FF126DF7E4FF126DCD
:101BDE00F7E4FF126DF77F01126DF7E4FF126DF758
:101BEE007F02126DF77F0C126DF7E4FF126DF7E4B2
:101BFE00FF126DF7E4FF126DF7E4FF126DF77F0130
:101C0E00126DF7E4FF126DF77F03126DF77F0C1262
:101C1E006DF77F60126DF77F0E126DF77F18126DE4
:101C2E00F7E4FF126DF77F01126DF7E4FF126DF707
:101C3E007F04126DF77F0C126DF7E4FF126DF77FC4
:101C4E0001126DF77F07126DF77F14126DF77F018A
:101C5E00126DF7E4FF126DF77F01126DF77F0C1214
:101C6E006DF77F27126DF7E4FF126DF7E4FF126D2B
:101C7E00F7E4FF126DF77F01126DF7E4FF126DF7B7
:101C8E007F02126DF77F0C126DF7E4FF126DF7E411
:101C9E00FF126DF7E4FF126DF7E4FF126DF77F018F
:101CAE00126DF7E4FF126DF77F03126DF77F0C12C2
:101CBE006DF77F60126DF77F0E126DF77F18126D44
:101CCE00F7E4FF126DF77F01126DF7E4FF126DF767
:101CDE007F04126DF77F0C126DF7E4FF126DF77F24
:101CEE0001126DF77F07126DF77F14126DF77F01EA
:101CFE00126DF7E4FF126DF77F01126DF77F0C1274
:101D0E006DF77F28126DF7E4FF126DF7E4FF126D89
:101D1E00F7E4FF126DF77F01126DF7E4FF126DF716
:101D2E007F02126DF77F0C126DF7E4FF126DF7E470
:101D3E00FF126DF7E4FF126DF7E4FF126DF77F01EE
:101D4E00126DF7E4FF126DF77F03126DF77F0C1221
:101D5E006DF77F60126DF77F0E126DF77F18126DA3
:101D6E00F7E4FF126DF77F01126DF7E4FF126DF7C6
:101D7E007F04126DF77F0C126DF7E4FF126DF77F83
:101D8E0001126DF77F07126DF77F14126DF77F0149
:101D9E00126DF7E4FF126DF77F01126DF77F0C12D3
:101DAE006DF77F29126DF7E4FF126DF7E4FF126DE8
:101DBE00F7E4FF126DF77F01126DF7E4FF126DF776
:101DCE007F02126DF77F0C126DF7E4FF126DF7E4D0
:101DDE00FF126DF7E4FF126DF7E4FF126DF77F014E
:101DEE00126DF7E4FF126DF77F03126DF77F0C1281
:101DFE006DF77F60126DF77F0E126DF77F18126D03
:101E0E00F7E4FF126DF77F01126DF7E4FF126DF725
:101E1E007F04126DF77F0C126DF7E4FF126DF77FE2
:101E2E0001126DF77F07126DF77F14126DF77F01A8
:101E3E00126DF7E4FF126DF77F01126DF77F0C1232
:101E4E006DF77F2A126DF7E4FF126DF7E4FF126D46
:101E5E00F7E4FF126DF77F01126DF7E4FF126DF7D5
:101E6E007F02126DF77F0C126DF7E4FF126DF7E42F
:101E7E00FF126DF7E4FF126DF7E4FF126DF77F01AD
:101E8E00126DF7E4FF126DF77F03126DF77F0C12E0
:101E9E006DF77F60126DF77F0E126DF77F18126D62
:101EAE00F7E4FF126DF77F01126DF7E4FF126DF785
:101EBE007F04126DF77F0C126DF7E4FF126DF77F42
:101ECE0001126DF77F07126DF77F14126DF77F0108
:101EDE00126DF7E4FF126DF77F01126DF77F0C1292
:101EEE006DF77F2B126DF7E4FF126DF7E4FF126DA5
:101EFE00F7E4FF126DF77F01126DF7E4FF126DF735
:101F0E007F02126DF77F0C126DF7E4FF126DF7E48E
:101F1E00FF126DF7E4FF126DF7E4FF126DF77F010C
:101F2E00126DF7E4FF126DF77F03126DF77F0C123F
:101F3E006DF77F60126DF77F0E126DF77F18126DC1
:101F4E00F7E4FF126DF77F01126DF7E4FF126DF7E4
:101F5E007F04126DF77F0C126DF7E4FF126DF77FA1
:101F6E0001126DF77F07126DF77F14126DF77F0167
:101F7E00126DF7E4FF126DF77F01126DF77F0C12F1
:101F8E006DF77F2C126DF7E4FF126DF7E4FF126D03
:101F9E00F7E4FF126DF77F01126DF7E4FF126DF794
:101FAE007F02126DF77F0C126DF7E4FF126DF7E4EE
:101FBE00FF126DF7E4FF126DF7E4FF126DF77F016C
:101FCE00126DF7E4FF126DF77F03126DF77F0C129F
:101FDE006DF77F60126DF77F0E126DF77F18126D21
:101FEE00F7E4FF126DF77F01126DF7E4FF126DF744
:101FFE007F04126DF77F0C126DF7E4FF126DF77F01
:10200E0001126DF77F07126DF77F14126DF77F01C6
:10201E00126DF7E4FF126DF77F01126DF77F0C1250
:10202E006DF77F2D126DF7E4FF126DF7E4FF126D61
:10203E00F7E4FF126DF77F01126DF7E4FF126DF7F3
:10204E007F02126DF77F0C126DF7E4FF126DF7E44D
:10205E00FF126DF7E4FF126DF7E4FF126DF77F01CB
:10206E00126DF7E4FF126DF77F03126DF77F0C12FE
:10207E006DF77F60126DF77F0E126DF77F18126D80
:10208E00F7E4FF126DF77F01126DF7E4FF126DF7A3
:10209E007F04126DF77F0C126DF7E4FF126DF77F60
:1020AE0001126DF77F07126DF77F14126DF77F0126
:1020BE00126DF7E4FF126DF77F01126DF77F0C12B0
:1020CE006DF77F2E126DF7E4FF126DF7E4FF126DC0
:1020DE00F7E4FF126DF77F01126DF7E4FF126DF753
:1020EE007F02126DF77F0C126DF7E4FF126DF7E4AD
:1020FE00FF126DF7E4FF126DF7E4FF126DF77F012B
:10210E00126DF7E4FF126DF77F03126DF77F0C125D
:10211E006DF77F60126DF77F0E126DF77F18126DDF
:10212E00F7E4FF126DF77F01126DF7E4FF126DF702
:10213E007F04126DF77F0C126DF7E4FF126DF77FBF
:10214E0001126DF77F07126DF77F14126DF77F0185
:10215E00126DF7E4FF126DF77F01126DF77F0C120F
:10216E006DF77F2F126DF7E4FF126DF7E4FF126D1E
:10217E00F7E4FF126DF77F01126DF7E4FF126DF7B2
:10218E007F02126DF77F0C126DF7E4FF126DF7E40C
:10219E00FF126DF7E4FF126DF7E4FF126DF77F018A
:1021AE00126DF7E4FF126DF77F03126DF77F0C12BD
:1021BE006DF77F60126DF77F0E126DF77F18126D3F
:1021CE00F7E4FF126DF77F01126DF7E4FF126DF762
:1021DE007F04126DF77F0C126DF7E4FF126DF77F1F
:1021EE0001126DF77F07126DF77F14126DF77F01E5
:1021FE00126DF7E4FF126DF77F01126DF77F0C126F
:10220E006DF77F30126DF7E4FF126DF7E4FF126D7C
:10221E00F7E4FF126DF77F01126DF7E4FF126DF711
:10222E007F02126DF77F0C126DF7E4FF126DF7E46B
:10223E00FF126DF7E4FF126DF7E4FF126DF77F01E9
:10224E00126DF7E4FF126DF77F03126DF77F0C121C
:10225E006DF77F60126DF77F0E126DF77F18126D9E
:10226E00F7E4FF126DF77F01126DF7E4FF126DF7C1
:10227E007F04126DF77F0C126DF7E4FF126DF77F7E
:10228E0001126DF77F07126DF77F14126DF77F0144
:10229E00126DF7E4FF126DF77F01126DF77F0C12CE
:1022AE006DF77F31126DF7E4FF126DF7E4FF126DDB
:1022BE00F7E4FF126DF77F01126DF7E4FF126DF771
:1022CE007F02126DF77F0C126DF7E4FF126DF7E4CB
:1022DE00FF126DF7E4FF126DF7E4FF126DF77F0149
:1022EE00126DF7E4FF126DF77F03126DF77F0C127C
:1022FE006DF77F60126DF77F0E126DF77F18126DFE
:10230E00F7E4FF126DF77F01126DF7E4FF126DF720
:10231E007F04126DF77F0C126DF7E4FF126DF77FDD
:0F232E0001126DF77F07126DF77F14126DF72202
:05233D0090039EEFF08B
:102342009003A07424F078A17C037D017BFF7A5076
:1023520079057E00FF123DAB9003C57408F078C684
:102362007C037D017BFF7A5079297E00FF123DAB11
:102372009003CE7408F078CF7C037D017BFF7A5006
:1023820079317E00FF123DAB9003D77408F078D804
:102392007C037D017BFF7A5079397E00FF123DABD1
:1023A2009003E07408F078E17C037D017BFF7A50B2
:1023B20079417E00FF123DAB9003E97408F078EAA0
:1023C2007C037D017BFF7A5079497E00FF123DAB91
:1023D2009003F27408F078F37C037D017BFF7A505E
:1023E20079517E00FF123DAB9003FB7408F078FC3C
:1023F2007C037D017BFF7A5079597E00FF123DAB51
:102402009004047408F078057C047D017BFF7A5007
:1024120079617E00FF123DAB90040D7408F0780ED6
:102422007C047D017BFF7A5079697E00FF123DAB0F
:102432009004167408F078177C047D017BFF7A50B3
:1024420079717E00FF123DAB90041F7408F0782072
:102452007C047D017BFF7A5079797E00FF123DABCF
:102462009004287408F078297C047D017BFF7A505F
:1024720079817E00FF123DAB9004317408F078320E
:102482007C047D017BFF7A5079897E00FF123DAB8F
:1024920090043A7408F0783B7C047D017BFF7A500B
:1024A20079917E00FF123DAB9004437408F07844AA
:1024B2007C047D017BFF7A5079997E00FF123DAB4F
:1024C20090044C7408F0784D7C047D017BFF7A50B7
:1024D20079A17E00FF123DAB9004557408F0785646
:1024E2007C047D017BFF7A5079A97E00FF123DAB0F
:1024F20090045E7408F0785F7C047D017BFF7A5063
:1025020079B17E00FF123DAB9004677408F07868E1
:102512007C047D017BFF7A5079B97E00FF123DABCE
:102522009004707408F078717C047D017BFF7A500E
:1025320079C17E00FF123DAB9004797408F0787A7D
:102542007C047D017BFF7A5079C97E00FF123DAB8E
:102552009004827408F078837C047D017BFF7A50BA
:1025620079D17E00FF123DABE490048BF0788C7C35
:10257200047D017BFF7A5079D9FE7F01123DAB9039
:10258200048D7408F0788E7C047D017BFF7A50798B
:10259200DA7E00FF123DAB9004967408F078977CC7
:1025A200047D017BFF7A5079E27E00FF123DAB9001
:1025B200049F7408F078A07C047D017BFF7A507937
:1025C200EA7E00FF123DAB9004A87408F078A97C63
:1025D200047D017BFF7A5079F27E00FF123DAB90C1
:1025E20004B17408F078B27C047D017BFF7A5079E3
:1025F200FA7E00FF123DAB9004BA7408F078BB7CFF
:10260200047D017BFF7A5179027E00FF123DAB907F
:1026120004C37420F078C47C047D017BFF7A517975
:102622000A7E00FF123DAB9004E47408F078E57C6A
:10263200047D017BFF7A51792A7E00FF123DAB9027
:1026420004ED7408F078EE7C047D017BFF7A517909
:10265200327E00FF123DAB90039EE014B421004095
:102662000302304B90267475F003A4C58325F0C590
:1026720083730226D70227250227730227C1022865
:102682000F02285D0228AB0228F902294702299588
:102692000229E3022A31022A7F022ACD022B1B02DF
:1026A2002B69022BB7022C05022C53022CA1022CFF
:1026B200A4022CF2022D40022D8E022DDC022E2AC3
:1026C200022E78022EC6022F14022F62022CA102C1
:1026D2002FB0022FFDE490039FF09003A0E0FF9043
:1026E200039FE0FEC3EF6480F8EE6480984003022B
:1026F200304EE0FFFD3395E0FC74A12DF5827403AA
:102702003CF583E0FEEF3395E0FC74A82DF582746E
:10271200013CF583E06E600302303D90039FE004CC
:10272200F080B7E490039FF09003C5E0FF90039F11
:10273200E0FEC3EF6480F8EE648098400302304EFE
:10274200E0FFFD3395E0FC74C62DF58274033CF581
:1027520083E0FEEF3395E0FC74A82DF58274013C12
:10276200F583E06E600302303D90039FE004F08049
:10277200B7E490039FF09003CEE0FF90039FE0FE4A
:10278200C3EF6480F8EE648098400302304EE0FFAD
:10279200FD3395E0FC74CF2DF58274033CF583E0A4
:1027A200FEEF3395E0FC74A82DF58274013CF583AD
:1027B200E06E600302303D90039FE004F080B7E4D6
:1027C20090039FF09003D7E0FF90039FE0FEC3EFDA
:1027D2006480F8EE648098400302304EE0FFFD33DF
:1027E20095E0FC74D82DF58274033CF583E0FEEF8E
:1027F2003395E0FC74A82DF58274013CF583E06EFC
:10280200600302303D90039FE004F080B7E4900340
:102812009FF09003E0E0FF90039FE0FEC3EF64802F
:10282200F8EE648098400302304EE0FFFD3395E0FD
:10283200FC74E12DF58274033CF583E0FEEF3395E1
:10284200E0FC74A82DF58274013CF583E06E600310
:1028520002303D90039FE004F080B7E490039FF0C4
:102862009003E9E0FF90039FE0FEC3EF6480F8EE7F
:10287200648098400302304EE0FFFD3395E0FC7423
:10288200EA2DF58274033CF583E0FEEF3395E0FC1C
:1028920074A82DF58274013CF583E06E600302306A
:1028A2003D90039FE004F080B7E490039FF0900313
:1028B200F2E0FF90039FE0FEC3EF6480F8EE6480D5
:1028C20098400302304EE0FFFD3395E0FC74F32D97
:1028D200F58274033CF583E0FEEF3395E0FC74A8C7
:1028E2002DF58274013CF583E06E600302303D9069
:1028F200039FE004F080B7E490039FF09003FBE0B5
:10290200FF90039FE0FEC3EF6480F8EE648098407E
:102912000302304EE0FFFD3395E0FC74FC2DF5829E
:1029220074033CF583E0FEEF3395E0FC74A82DF5CB
:102932008274013CF583E06E600302303D90039F98
:10294200E004F080B7E490039FF0900404E0FF906D
:10295200039FE0FEC3EF6480F8EE648098400302B8
:10296200304EE0FFFD3395E0FC74052DF5827404D2
:102972003CF583E0FEEF3395E0FC74A82DF58274FC
:10298200013CF583E06E600302303D90039FE0045A
:10299200F080B7E490039FF090040DE0FF90039F56
:1029A200E0FEC3EF6480F8EE648098400302304E8C
:1029B200E0FFFD3395E0FC740E2DF58274043CF5C6
:1029C20083E0FEEF3395E0FC74A82DF58274013CA0
:1029D200F583E06E600302303D90039FE004F080D7
:1029E200B7E490039FF0900416E0FF90039FE0FE8F
:1029F200C3EF6480F8EE648098400302304EE0FF3B
:102A0200FD3395E0FC74172DF58274043CF583E0E8
:102A1200FEEF3395E0FC74A82DF58274013CF5833A
:102A2200E06E600302303D90039FE004F080B7E463
:102A320090039FF090041FE0FF90039FE0FEC3EF1E
:102A42006480F8EE648098400302304EE0FFFD336C
:102A520095E0FC74202DF58274043CF583E0FEEFD2
:102A62003395E0FC74A82DF58274013CF583E06E89
:102A7200600302303D90039FE004F080B7E49003CE
:102A82009FF0900428E0FF90039FE0FEC3EF648074
:102A9200F8EE648098400302304EE0FFFD3395E08B
:102AA200FC74292DF58274043CF583E0FEEF339526
:102AB200E0FC74A82DF58274013CF583E06E60039E
:102AC20002303D90039FE004F080B7E490039FF052
:102AD200900431E0FF90039FE0FEC3EF6480F8EEC4
:102AE200648098400302304EE0FFFD3395E0FC74B1
:102AF200322DF58274043CF583E0FEEF3395E0FC61
:102B020074A82DF58274013CF583E06E60030230F7
:102B12003D90039FE004F080B7E490039FF090049F
:102B22003AE0FF90039FE0FEC3EF6480F8EE64801A
:102B320098400302304EE0FFFD3395E0FC743B2DDC
:102B4200F58274043CF583E0FEEF3395E0FC74A853
:102B52002DF58274013CF583E06E600302303D90F6
:102B6200039FE004F080B7E490039FF0900443E0F9
:102B7200FF90039FE0FEC3EF6480F8EE648098400C
:102B82000302304EE0FFFD3395E0FC74442DF582E4
:102B920074043CF583E0FEEF3395E0FC74A82DF558
:102BA2008274013CF583E06E600302303D90039F26
:102BB200E004F080B7E490039FF090044CE0FF90B3
:102BC200039FE0FEC3EF6480F8EE64809840030246
:102BD200304EE0FFFD3395E0FC744D2DF582740418
:102BE2003CF583E0FEEF3395E0FC74A82DF582748A
:102BF200013CF583E06E600302303D90039FE004E8
:102C0200F080B7E490039FF0900455E0FF90039F9B
:102C1200E0FEC3EF6480F8EE648098400302304E19
:102C2200E0FFFD3395E0FC74562DF58274043CF50B
:102C320083E0FEEF3395E0FC74A82DF58274013C2D
:102C4200F583E06E600302303D90039FE004F08064
:102C5200B7E490039FF090045EE0FF90039FE0FED4
:102C6200C3EF6480F8EE648098400302304EE0FFC8
:102C7200FD3395E0FC745F2DF58274043CF583E02E
:102C8200FEEF3395E0FC74A82DF58274013CF583C8
:102C9200E06E600302303D90039FE004F080B77F56
:102CA2000022E490039FF0900470E0FF90039FE005
:102CB200FEC3EF6480F8EE648098400302304EE079
:102CC200FFFD3395E0FC74712DF58274043CF583AD
:102CD200E0FEEF3395E0FC74A82DF58274013CF51B
:102CE20083E06E600302303D90039FE004F080B702
:102CF200E490039FF0900479E0FF90039FE0FEC30D
:102D0200EF6480F8EE648098400302304EE0FFFDED
:102D12003395E0FC747A2DF58274043CF583E0FE71
:102D2200EF3395E0FC74A82DF58274013CF583E045
:102D32006E600302303D90039FE004F080B7E490A0
:102D4200039FF0900482E0FF90039FE0FEC3EF64D4
:102D520080F8EE648098400302304EE0FFFD339528
:102D6200E0FC74832DF58274043CF583E0FEEF33BE
:102D720095E0FC74A82DF58274013CF583E06E6049
:102D82000302303D90039FE004F080B7E490039F7C
:102D9200F090048BE0FF90039FE0FEC3EF6480F8A5
:102DA200EE648098400302304EE0FFFD3395E0FC74
:102DB200748C2DF58274043CF583E0FEEF3395E0CC
:102DC200FC74A82DF58274013CF583E06E60030269
:102DD200303D90039FE004F080B7E490039FF090B1
:102DE200048DE0FF90039FE0FEC3EF6480F8EE6481
:102DF2008098400302304EE0FFFD3395E0FC748E74
:102E02002DF58274043CF583E0FEEF3395E0FC740B
:102E1200A82DF58274013CF583E06E600302303D1B
:102E220090039FE004F080B7E490039FF090049633
:102E3200E0FF90039FE0FEC3EF6480F8EE648098A9
:102E4200400302304EE0FFFD3395E0FC74972DF510
:102E52008274043CF583E0FEEF3395E0FC74A82D08
:102E6200F58274013CF583E06E600302303D90030D
:102E72009FE004F080B7E490039FF090049FE0FF8E
:102E820090039FE0FEC3EF6480F8EE6480984003F5
:102E920002304EE0FFFD3395E0FC74A02DF5827404
:102EA200043CF583E0FEEF3395E0FC74A82DF58237
:102EB20074013CF583E06E600302303D90039FE0B5
:102EC20004F080B7E490039FF09004A8E0FF900321
:102ED2009FE0FEC3EF6480F8EE6480984003023006
:102EE2004EE0FFFD3395E0FC74A92DF58274043C9D
:102EF200F583E0FEEF3395E0FC74A82DF5827401B2
:102F02003CF583E06E600302303D90039FE004F0E5
:102F120080B7E490039FF09004B1E0FF90039FE03C
:102F2200FEC3EF6480F8EE648098400302304EE006
:102F3200FFFD3395E0FC74B22DF58274043CF583F9
:102F4200E0FEEF3395E0FC74A82DF58274013CF5A8
:102F520083E06E600302303D90039FE004F080B78F
:102F6200E490039FF09004BAE0FF90039FE0FEC359
:102F7200EF6480F8EE648098400302304EE0FFFD7B
:102F82003395E0FC74BB2DF58274043CF583E0FEBE
:102F9200EF3395E0FC74A82DF58274013CF583E0D3
:102FA2006E600302303D90039FE004F080B7E4902E
:102FB200039FF09004E4E0FF90039FE0FEC3EF6400
:102FC20080F8EE648098400302304EE0FFFD3395B6
:102FD200E0FC74E52DF58274043CF583E0FEEF33EA
:102FE20095E0FC74A82DF58274013CF583E06E60D7
:102FF20002804890039FE004F080B8E490039FF0C1
:103002009004EDE0FF90039FE0FEC3EF6480F8EED2
:103012006480985037E0FFFD3395E0FC74EE2DF5A7
:103022008274043CF583E0FEEF3395E0FC74A82D36
:10303200F58274013CF583E06E600690039EE0FF2A
:0E3042002290039FE004F080B77F00227F0001
:01305000225D
:106D0A00E4F5957596FFC2A1C2A253E1EF43E210E2
:016D1A002256
:096D2C007F0F126D35D2FC7F0FC0
:076D3500AE071FEE70FA2209
:0268D600AB070E
:1068D8007A80C2A3EDB40104C2A48002D2A4EAD390
:1068E80094004011C2FCEA5B24FF92A7126D2CEAC7
:0E68F800C313FA80E9C2FCD2A7126D2CD2A302
:01690600226E
:106C4F003EF583E5822DF582E43583F583E493FFEA
:056C5F00E4FD0268D60F
:076DD4007FAE126DDB7F8D25
:056DDB007D010268D6F5
:105FD400E4FFFE900563F0A3F00FBF00010EBE7551
:105FE400F8BF30F57FAE126DDB7FD5126DDB7F809D
:105FF400126DDB7FA8126DDB7F27126DDB7FD3125E
:106004006DDBE4FF126DDB7F40126DD67F14126DE1
:10601400DB7FA1126DDB7FC8126DDB7FDA126DDBD3
:106024007F12126DDB7F81126DDB7FAF126DDB7F20
:10603400D9126DDB7F25126DDB7FDB126DDB7F20D8
:10604400126DDB7FA4126DDB7FA6126DDB7FAF12B6
:056054006DDB0269375D
:106D3C00126DD47F10126DDB126DC5C2E9026DB6F7
:0B6DEC00126DD47F10126DDBC2E92293
:106D1B00D2E97F8D126DDB7F14126DDB7FAF026DBD
:016D2B00DB8C
:066AF700900563E004FFBE
:106AFD00EFD3940440087FB4126DDB7F0122EF5475
:0A6B0D000F44B0FF126DDB7F002281
:0B69670090061AE0FF126AFDA3E0FF9B
:10697200AC07ECD3946040037F012274202CFC54BA
:106982000FFF126DDBAF04EFC4540F4410FF126D02
:04699200DB7F002285
:10693700E4900565F0900565E0FFC394055020E4F9
:10694700F9126AFDE4FF126972E9C394605008E422
:0F695700FF126C5F0980F2900565E004F080D6B6
:01696600220E
:0B60D6009005B5EBF0A3EAF0A3E9F0A1
:1060E100E4A3F0A3F0A3F0A3F0E94A70037F012237
:1060F1009005B8E0FFC394055045E4A3F0126AFD92
:10610100E4FF1269729005B9E0C3946050299005CB
:10611100B5E0FBA3E0FAA3E0F99005BAE475F0015C
:10612100123E9485F082F583123DEAFF126C5F9076
:1061310005B9E004F080CE9005B8E004F080B17FAD
:01614100005D
:01614200223A
:105D0B00900564EDF0A3EBF0A3EAF0A3E9F09005A6
:035D1B0063EFF043
:105D1E00E4900569F0EFD394045029900564E0FFF8
:105D2E0094605020A3E0FBA3E0FAA3E04A4B60147A
:105D3E00A3E0FDEF2DFFE433FED3EF9460EE64801D
:105D4E00948040037F012290056312696A90056872
:105D5E00E0FFA3E0FEC39F5037EEFF900564E02FF7
:105D6E00FFE433FEC3EF9460EE648094805021A371
:105D7E00E0FBA3E0FAA3E0F9900569E0F5827583F4
:105D8E0000123DEAFF126C5F900569E004F080BDE1
:025D9E007F0084
:015DA00022E0
:0B4401009005D9EBF0A3EAF0A3E9F06E
:10440C00E4A3F0A3F09005D9E0FBA3E0FAA3E0F954
:10441C00123DD1700302470B9005DCE0F9C3940CFC
:10442C0050087F01126AFDE08014E9C39418400320
:10443C0002470B7F03126AFD9005DCE024F475F053
:10444C0008A4FF1269729005D9E0FBA3E0FAA3E07F
:10445C00F9123DD1FFC3648094B0404DD3EF64801A
:10446C0094B95045E49005DDF09005DDE0FDC39472
:10447C0008400302458E9005D9E0FBA3E0FAA3E0C7
:10448C00F9123DD1FF3395E0FEEFC4F8540FC86824
:10449C00FFEEC454F048FE74312FF582742F126C69
:1044AC004F9005DDE004F080C09005D9E0FBA3E05F
:1044BC00FAA3E0F9123DD1FFC3648094E1404DD3DF
:1044CC00EF648094FA5045E49005DDF09005DDE052
:1044DC00FDC39408400302458E9005D9E0FBA3E090
:1044EC00FAA3E0F9123DD1FF3395E0FEEFC4F85486
:1044FC000FC868FFEEC454F048FE74212FF5827487
:10450C002D126C4F9005DDE004F080C09005D9E0D1
:10451C00FBA3E0FAA3E0F9123DD1FFC3648094C180
:10452C00404AD3EF648094DA5042E49005DDF09079
:10453C0005DDE0FDC3940850499005D9E0FBA3E0EC
:10454C00FAA3E0F9123DD1FF3395E0FEEFC4F85425
:10455C000FC868FFEEC454F048FE74C12FF5827486
:10456C0030126C4F9005DDE004F080C3E49005DD63
:10457C00F0E4FF126C5F9005DDE004F0E0C39408FA
:10458C0040EF9005DCE0F9C3940C50087F02126AEE
:10459C00FDE08014E9C39418400302470B7F04121A
:1045AC006AFD9005DCE024F475F008A4FF12697232
:1045BC009005D9E0FBA3E0FAA3E0F9123DD1FFC3CB
:1045CC00648094B0404DD3EF648094B95045E4902E
:1045DC0005DDF09005DDE0FDC3940840030246F8CC
:1045EC009005D9E0FBA3E0FAA3E0F9123DD1FF332B
:1045FC0095E0FEEFC4F8540FC868FFEEC454F048C1
:10460C00FE74392FF582742F126C4F9005DDE00487
:10461C00F080C09005D9E0FBA3E0FAA3E0F9123DCD
:10462C00D1FFC3648094E1404DD3EF648094FA5081
:10463C0045E49005DDF09005DDE0FDC394084003F2
:10464C000246F89005D9E0FBA3E0FAA3E0F9123D8D
:10465C00D1FF3395E0FEEFC4F8540FC868FFEEC4E9
:10466C0054F048FE74292FF582742D126C4F90056E
:10467C00DDE004F080C09005D9E0FBA3E0FAA3E0F4
:10468C00F9123DD1FFC3648094C1404AD3EF6480DA
:10469C0094DA5042E49005DDF09005DDE0FDC39422
:1046AC000850499005D9E0FBA3E0FAA3E0F9123DCC
:1046BC00D1FF3395E0FEEFC4F8540FC868FFEEC489
:1046CC0054F048FE74C92FF5827430126C4F90056B
:1046DC00DDE004F080C3E49005DDF0E4FF126C5FD4
:1046EC009005DDE004F0E0C3940840EF9005DCE0B9
:0F46FC0004F09005DAE475F001123E7E024411DD
:01470B00228B
:08547F00A905900563EFF0FDA3
:10548700E4FCEBC4540FA3F0EB540FA3F0EDD3945B
:10549700045005E9946040037F0122900563E0FF13
:1054A700126AFDAF01126972E4FC900564E0C4540E
:1054B700F02431F582E43432F583E5822C126C5501
:1054C7000CECB408E5126AF7AF01126972E4FC90BC
:1054D7000564E0C454F02439F582E43432F583E5F9
:1054E700822C126C550CECB408E5900563E0FF12B2
:1054F7006AFDE92408FF126972E4FCEC6407900571
:1055070065601BE0C454F02431F582E43432F5833E
:10551700E5822CF582E43583F583E493801BE0C4B0
:1055270054F02431F582E43432F583E5822CF58298
:10553700E43583F583E4934401FF126C5F0CECB40C
:1055470008B9126AF7E92408FF126972E4FC9005AA
:1055570065E0C454F02439F582E43432F583E582FA
:0B5567002C126C550CECB408E57F0022
:015572002216
:0E5EBE009005DEEBF0A3EAF0A3E9F0A3EDF00F
:105ECC00E4A3F09005DEE0FBA3E0FAA3E04A4B70FC
:105EDC00037F01229005E1E0FFA3E0FEC39F505B2E
:105EEC00EEC39406501EE0FFC454F0FD9005DEE0B6
:105EFC00FBA3E0FAA3E0F98F82758300123DEAFB65
:105F0C007F0180279005E2E0FFC3940C5022EF2420
:105F1C00FAC454F0FD9005DEE0FBA3E0FAA3E0F92F
:105F2C008F82758300123DEAFB7F0312547F80033E
:0D5F3C007F01229005E2E004F080997F00D3
:015F49002235
:04526600AA07AC05E2
:10526A00E4F9EBC4540F900618F0EB540FA3F0EADC
:10527A00D394045005EC946040037F0122AF0212DC
:10528A006AFDAF04126972900618E0FFC3940040E9
:10529A002CEFD394095026E4F9900618E075F0052E
:1052AA00A429F582E435F0F583E58224A1F582E5A7
:1052BA00833430126C5A09E9B405DE803990061835
:1052CA00E0FFC3940A402CEFD3940F5026E4F990E0
:1052DA000618E075F005A429F582E435F0F583E5B2
:1052EA008224C4F582E5833430126C5A09E9B40584
:1052FA00DE80037F0022E4FF126C5F900619E0FF54
:10530A00C39400402CEFD394095026E4F99006196F
:10531A00E075F005A429F582E435F0F583E58224E9
:10532A00A1F582E5833430126C5A09E9B405DE80AE
:10533A0039900619E0FFC3940A402CEFD3940F501A
:10534A0026E4F9900619E075F005A429F582E435FA
:10535A00F0F583E58224C4F582E5833430126C5A71
:10536A0009E9B405DE80037F00227F03126C5F7FA8
:01537A000032
:01537B00220F
:0E5817009005C2EBF0A3EAF0A3E9F0A3EDF0D8
:10582500E4A3F0A3F09005C2E0FBA3E0FAA3E04AED
:105835004B70037F01229005C5E0FFA3E0FEC39FE7
:1058450040030258F1EEC394085019EE75F00CA40C
:10585500FD9005C2E0FBA3E0FAA3E0F9123DD1FB00
:105865007F01806D9005C6E0FFC39410501BEF24A7
:10587500F875F00CA4FD9005C2E0FBA3E0FAA3E0E7
:10588500F9123DD1FB7F0280489005C6E0FFC39425
:1058950018501BEF24F075F00CA4FD9005C2E0FB39
:1058A500A3E0FAA3E0F9123DD1FB7F038023900525
:1058B500C6E0FFC39420501EEF24E875F00CA4FD4C
:1058C5009005C2E0FBA3E0FAA3E0F9123DD1FB7F0E
:1058D5000412526680037F01229005C3E475F0012E
:0E58E500123E7E9005C6E004F002583B7F00A4
:0158F3002292
:0C60590090061BEDF090061AEFF0A90372
:10606500E4FCEFD394045006A3E0946040037F0161
:1060750022E9C39420502E797F126967E4FC75F0FC
:1060850005E9A42CF582E435F0F583E58224B1F524
:1060950082E583342F126C5A0CECB405E1E4FF124F
:1060A5006C5F7F0122126967E4FC75F005E9A42C99
:1060B500F582E435F0F583E58224B1F582E5833494
:1060C5002F126C5A0CECB405E1E4FF126C5F7F00F3
:0160D50022A8
:0C5DA100900565EDF0900564EFF0A9039B
:105DAD00E4FCEFD394045006A3E0946040037F011C
:105DBD0022E9C394205038797F90056412696AE412
:105DCD00FC75F005E9A42CF582E435F0F583E58248
:105DDD0024B1F582E583342FF583E49325E0FF129A
:105DED006C5F0CECB405DAE4FF126C5F7F0122905E
:105DFD00056412696AE4FC75F005E9A42CF582E4EA
:105E0D0035F0F583E58224B1F582E583342FF583F2
:105E1D00E49325E0FF126C5F0CECB405DAE4FF129D
:045E2D006C5F7F0027
:015E3100224E
:0B58F4009005C8EBF0A3EAF0A3E9F078
:1058FF00E4A3F0A3F0A3F09005C8E0FBA3E0FAA3A4
:10590F00E0F9123DD1FB70030259B19005CBE0FFD6
:10591F00C39410500AEF75F006A4FD7F01806D90BF
:10592F0005CBE0FFC39420501BEF24F075F006A4C5
:10593F00FD9005C8E0FBA3E0FAA3E0F9123DD1FB0F
:10594F007F0280489005CBE0FFC39430501BEF24BB
:10595F00E075F006A4FD9005C8E0FBA3E0FAA3E014
:10596F00F9123DD1FB7F0380239005CBE0FFC39459
:10597F0040502FEF24D075F006A4FD9005C8E0FB32
:10598F00A3E0FAA3E0F9123DD1FB7F041260599016
:10599F0005C9E475F001123E7E9005CBE004F002DC
:0259AF00590697
:0159B10022D3
:0269C500AC051F
:1069C700A904EFD394045005EC946040037F01229F
:1069D700126AFDAF04126972E9C394605008E4FFBC
:0869E700126C5F0980F27F00D1
:0169EF002285
:106B17007401A807088002C333D8FCF59DE4F5BDCE
:0F6B2700EF4488F5BC7F02126C0BD2ADD2AF22C7
:03002B00025A6313
:0D5A6300C0E0C0F0C083C082C0D075D00884
:105A700090056AE4F0A3F0FFFEA3F0A3F0C2ADF539
:105A8000BC126D7A7F03126BF490056AE4F0A3EF09
:105A9000F0126D7A7F03126BF47E0090056AE0FCD1
:105AA000A3E0FDD39FEC9E401DED9FFBEC9EFAC34F
:105AB000EB9423EA9400504EED2FFFEE3CC313FE0F
:105AC000EF13FFA38030C3ED9FEC9E502C90056A2E
:105AD000E0FCA3E0FDC3EF9DFDEE9CFCC3ED942331
:105AE000EC94005021E02FFF90056AE03EC313FEC6
:105AF000EF13FF90056CEE800990056AE0FFA3E0CC
:085B0000A3CFF0A3EFF0D2AD3A
:0B5B0800D0D0D082D083D0F0D0E032AB
:106BF400E4F5BDEF4488F5BC00000000E5BC30E4DA
:076C0400FB75BC00AFBD22CF
:106AD500AC07E4123C269005E4E0F8A3E0F9A3E056
:106AE500FAA3E0FB1239FDE4FBFA79807843123B07
:026AF500062277
:106A1B00E4FDFCF5BDF5BEEF4488F5BC00000000BD
:106A2B00E5BC30E4FB75BC00AFBDEF75F004A4FD15
:096A3B00ACF0AFBEED4FAE04FF5C
:016A4400222F
:10005E00AD07AC06E4123C219005D0E0F8A3E0F920
:10006E00A3E0FAA3E0FB1239FDE4FBFA79807844B1
:04007E00123B062209
:106C0B00AE071FEE60107C137D88ED1DAA0470018A
:066C1B001C4A60EC80F44D
:016C21002250
:10690F0042039C00004101A5004101A6004101A7DF
:01691F000077
:1069960053B13F43B2C0E5A2543FF5A253877F757A
:1069A6009850438E40538EFE53890F438920758B32
:0F69B600FA758DFAC2ABD28ED2BCD2ACD2AF2260
:096DF7002000FDEFD200F5992205
:10680A009005FEEBF0A3EAF0A3E9F09005FEE0FBA9
:10681A00A3E0FAA3E0F9123DD160179005FEA3E4C4
:10682A0075F001123E94A9F0FA123DD1FF126DF7EC
:03683A0080D922E0
:030023000266B4BE
:1066B400C0E0C0F0C083C082C0D075D00830981B41
:1066C400C29890039CE475F001123E94FE74A825D0
:1066D400F0F58274013EF583E599F0309904C2998E
:0D66E400C200D0D0D082D083D0F0D0E03200
:030043000266F161
:1066F100C0E0C083C082C0D075D008E59A30E017F1
:10670100539AFE9001A5E0FF04F074002FF582E496
:106711003400F583E59BF0E59A30E105539AFDC21B
:0A67210001D0D0D082D083D0E03246
:096E00002001FDEFD201F59B22F7
:10683D00900601EBF0A3EAF0A3E9F0900601E0FB6E
:10684D00A3E0FAA3E0F9123DD16017900601A3E48D
:10685D0075F001123E94A9F0FA123DD1FF126E00AF
:03686D0080D922AD
:106B55005391FC43920353BAFE759A50438E0475C4
:0E6B6500D7C075D6FD438E1075AF01D2AF229A
:106C39007E027FF49001A8E4F0A3DFFCDEFAE49081
:056C4900039CF0A3F024
:016C4E002223
:0F6D4C007F64900000E4F0A3DFFCE49001A5F069
:016D5B002215
:106B730043BA0275AC1043AC4043D10275D5D0750E
:0B6B8300D4FF43D10843AF08D2AF227B
:03008B00026BA95C
:106BA900C0E0E5AC30E00653ACFE85AD80E5AC3025
:0A6BB900E10553ACFDC202D0E0324A
:096E09002002FDEFD202F5AD22DA
:10687000900604EBF0A3EAF0A3E9F0900604E0FB35
:10688000A3E0FAA3E0F9123DD16017900604A3E457
:1068900075F001123E94A9F0FA123DD1FF126E0973
:0368A00080D9227A
:106B8E0043BA0475841043844043D12075D3D07525
:0B6B9E00D2FF43D18043AF10D2AF22E2
:0300930002672BD6
:10672B00C0E0C083C082C0D075D008E58430E017CC
:10673B005384FE9001A7E0FF04F074DD2FF582E493
:10674B003400F583E585F0E58430E1055384FDC223
:0A675B0003D0D0D082D083D0E0320A
:096E12002003FDEFD203F58522F7
:1068A300900607EBF0A3EAF0A3E9F0900607E0FBFC
:1068B300A3E0FAA3E0F9123DD16017900607A3E421
:1068C30075F001123E94A9F0FA123DD1FF126E1237
:0368D30080D92247
:0D003600E4F5C7F5C5F5C675C380F5C42215
:106BDC0075C78175C5018FC4EEF5C375C65A75C6E8
:076BEC00A500AFC212003644
:016BF300227F
:106BC30075C78175C5028FC4EEF5C3AF058FC27556
:096BD300C65A75C6A50002003681
:106C640075C78175C5038FC4EEF5C375C65A75C65D
:056C7400A5000200363E
:10557300900597EEF0A3EFF090059BEBF0A3EAF014
:0B558300A3E9F0900599ECF0A3EDF017
:10558E00E490059EF0A3F0FFA3F0A3F0D3ED9420DA
:10559E00EC9400400122900597E0FCA3E0FDEC5452
:1055AE0001FEAF0590059AE02FFF900599E03EFEB3
:1055BE00D3EF9420EE940040037F0022AF05AE049B
:1055CE00126C64E490059EF0A3F0900599E0FEA3A2
:1055DE00E0FF90059EE0FCA3E0FDC39FEC9E5067AC
:1055EE00900597E0FEA3E0FF90059BE0FBA3E0FA99
:1055FE00A3E0F98D828C83123DEAFD126BC39005F8
:10560E0097E0FEA3E0FF126BDC90059BE0FBA3E0AE
:10561E00FAA3E0F9A3E0FCA3E0F5828C83123DEA45
:10562E006F60061200367F0022900598E004F0703D
:10563E0006900597E004F090059FE004F0708B90C3
:0C564E00059EE004F080831200367F010E
:01565A00222D
:104E6700900588EEF0A3EFF090058CEBF0A3EAF045
:0B4E7700A3E9F090058AECF0A3EDF039
:104E8200E490058FF0A3F0A3F0A3F0A3F0A3F0A3A6
:104E9200F0A3F0D3ED9420EC940040037F00229025
:104EA2000588E0FCA3E0FDEC5401FEAF05900591FE
:104EB200F0A3EFF090058BE02FFF90058AE03EFE15
:104EC200D3EF9420EE940040037F0022EC54FEFEC8
:104ED2007F00900593F0A3EFF0A3EEF0A3EFF09024
:104EE200058FF0A3F0900595E475F001123E94AFA2
:104EF200F0FE126BDC90058FA3E02422F8A607E0F7
:104F020004F0700690058FE004F0C3900590E094E1
:104F12002090058FE0940040CCE490058FF0A3F040
:104F220090058AE0FEA3E0FF90058FE0FCA3E0FD80
:104F3200C39FEC9E503490058CE0FBA3E0FAA3E003
:104F4200F98D828C83123DEAFF900591E475F001A0
:104F5200123E94742225F0F8A607900590E004F022
:104F6200700690058FE004F080B6900593E0FEA3F2
:104F7200E0FF126C64900593E0FFA3E0A3CFF0A3DF
:104F8200EFF0E490058FF0A3F090058FE0FCA3E032
:104F9200FDC39420EC9400504C900595E0FEA3E0F4
:104FA200FF74222DF8E6FD126BC3900588E0FEA384
:104FB200E0FF126BDC90058FA3E02422F8E66F601D
:104FC200061200367F0022900596E004F0700690EB
:104FD2000595E004F0900590E004F0700690058FCE
:0A4FE200E004F080A41200367F0105
:014FEC0022A2
:046920004105EE320D
:1067D400E5A254CFF5A2E4F5D8F5E9F5F975D902A7
:1067E400F5F275EA2075FA2075DA4275F34075EB17
:1067F4002075FB2075DB4275F48075EC2075FC2058
:0668040075DC42D2DE2229
:1064C900E4F5B4F5B343BA80F5F190FFF2F090FF2B
:1064D900F07403F0A374E8F090FF20E4F0A3F0FC5B
:1064E900FDFE7BE87A03F9F8123EAAE47B64FAF927
:1064F900F81265EE90FF22EEF0A3EFF0A37408F016
:0B65090043F50443F58053BA7F80FE89
:10651400E4F5CAF5C943BA80F5F190FFF2F090FFB3
:10652400F07403F0A374E8F090FF30E4F0A3F0FCFF
:10653400FDFE7BE87A03F9F8123EAAE47B64FAF9DB
:10654400F81265EE90FF32EEF0A3EFF0A37408F0BA
:0A65540043F50843F58053BA7F2297
:106B3600EF75F064A4FFAEF0C374109F90061DF0CD
:0F6B460074279E90061CF0E49005EDF0026C9E03
:03009B00025BC045
:105BC000C0E0C0F0C083C082C0D075D000C000C0AB
:105BD00001C002C003C004C005C006C0079005EDA7
:105BE000E070389005F1E0FF75F012A4F404F5D5EB
:105BF000E4FCFDFE7B12FAF9F8123EAAC3E49FFF13
:105C0000E49EFE74019DFDE49CFC7808123F078F22
:105C1000D4D2A09005ED7401F080359005EFE0FF3F
:105C200075F012A4F404F5D5E4FCFDFE7B12FAF93C
:105C3000F8123EAAC3E49FFFE49EFE74019DFDE4BA
:105C40009CFC7808123F078FD4C2A09005EDE4F0C9
:105C5000D007D006D005D004D003D002D001D000A8
:0B5C6000D0D0D082D083D0F0D0E03252
:0A565B00900563ECF0A3EDF0AB073F
:10566500A3123F2700000000EB14601914602214F8
:10567500603714602824047030900565123F274672
:10568500900000802E900565123F27462CCC0080A7
:1056950022900565123F2745ACC800801690056528
:1056A500123F2744ACC000800A900565123F27458C
:1056B5002CD0005394BF5393BF43BA80E4F5F190C7
:1056C500FFF27403F0900565E0FCA3E0FDA3E0FEA6
:1056D500A3E0FF123C5A90FFF0EEF0A3EFF090FF2D
:1056E50050E4F0A3F0FBFA79C87842900565E0FC38
:1056F500A3E0FDA3E0FEA3E0FF123B06C004C00546
:10570500C006C007900563E0FCA3E0FDE4123C2160
:10571500D003D002D001D0001239FD123C5A90FFBF
:1057250052EEF0A3EFF0A37408F043F52043F580A3
:0357350053BA7FE5
:01573800224E
:055F4A009005E8EFF0F6
:105F4F00A3123F2746D800005395FB5395FB43BA46
:105F5F0080E4F5F190FFF27407F09005E9E0FCA3FF
:105F6F00E0FDA3E0FEA3E0FF123C5A90FFF0EEF03D
:105F7F00A3EFF090FF20E4F0A3F0FBFA79C878428A
:105F8F009005E9E0FCA3E0FDA3E0FEA3E0FF123BD8
:105F9F0006C004C005C006C0079005E8E0FCE41287
:105FAF003C26D003D002D001D0001239FD123C5A4A
:105FBF0090FF22EEF0A3EFF0A3E4F043F50443F5D6
:045FCF008053BA7FC2
:015FD30022AB
:1059B200900622EFF09005EEE024F6602724FB60CB
:1059C2003A24FB605224E2606A24D87003025A51DE
:1059D20024556003025A62900622E06401600302C9
:1059E2005A62802C900622E0B40102803F90062287
:1059F200E0F4706C9005EE74058060900622E0B4CD
:105A020001079005EE74148052900622E0F4705063
:105A12009005EE740A8044900622E0B401079005D6
:105A2200EE74328036900622E0F470349005EE7403
:105A32000F8028900622E0B401079005EE745A8088
:105A42001A900622E0B4FF189005EE7414800C90B0
:105A52000622E0B4FF0A9005EE7432F0FF125F4AAC
:015A62002221
:1063D80090061EEEF0A3EFF0438E805389F09006EE
:1063E8001EE0FEA3E0FFE4FCFD7B16FAF9F8123E7E
:1063F800AAEFF404F58A90061EE0FEA3E0FFE4FC91
:10640800FD7B16FAF9F8123EAAC3E49FFFE49EFE4C
:1064180074019DFDE49CFC7808123F078F8CC28DA7
:03642800D28C22F1
:106C8C00E5A254F34404F5A2E4F5CF75CDC075CE5E
:026C9C00502284
:03004B00026E3E04
:066E3E0075CDC0D29132B7
:0A6924004205F700004205F90000EB
:03000B000263830A
:10638300C0E0C0F0C083C082C0D075D000C000C0E0
:0763930004C005C006C007AD
:10639A0090056EE4F0A3123F27000000009005F874
:1063AA00E004F070069005F7E004F09005FAE004C6
:0963BA00F070069005F9E004F012
:1063C300D007D006D005D004D000D0D0D082D0835F
:0563D300D0F0D0E03223
:106C2200538E7F5389F0C2B9E4F58A758C70C28D98
:076C3200D28CD2A9D2AF22DF
:10655E00C39005F8E094FA9005F7E09400401A1203
:10656E00513A9005D4123F1B9005D4123F270000DC
:10657E000000E49005F7F0A3F0C39005FAE094B89C
:10658E009005F9E0940B40101262119005D8EFF0CF
:09659E00E4F09005F9F0A3F022ED
:106C9E0053D1FD75D501E4F5D443D10843AF20D2CD
:026CAE00AF2213
:03000300020012E6
:0100120032BB
:096E1B00D2B2D288D2A8D2AF2273
:03001300020026C2
:0100260032A7
:096E2400D2B3C28AD2AAD2AF2275
:0300530002002781
:0100270032A6
:066E4400438F10D2AF22C3
:03005B0002002878
:0100280032A5
:066E4A00438F20D2AF22AD
:030083000200294F
:0100290032A4
:066E5000438F40D2AF2287
:0300330002000EBA
:04000E005387DF3203
:086E36005387DFD2AED2AF2278
:106CB0007D3C7C00E4FF12565B126D7A53F5DFC217
:026CC00086222A
:106CC2007D3C7C007F0312565B126DA753F5DFC239
:026CD200862218
:106CD4007D3C7C007F0312565B126D9853F5DFC236
:026CE400862206
:096E2D00AD07AC067F0402565BC0
:106CE6007D3C7C007F0412565B126DB653F5DFC205
:026CF6008622F4
:0B6DE000AD07EE4480AE058EAAF5ABB7
:016DEB002285
:106765002055534220636861726765200A002055F1
:1067750053422063686172676520002055534220AB
:10678500206F6666736574200A00205553422020E9
:086795006F6666736574200055
:04692E004106230AF1
:106A450053CBF143CC0E53CBFE53CCFEC2E9D2EA75
:106A5500D2EBD2E8E4F5B375B401C2C1D2E9126D47
:046A6500C5D2C122B3
:10573900E49005A2F0A3F0A3F0A3F0A3F0A3123F15
:105749002700000000E49005ABF0A3F07F04126A83
:105759001B9005A4EEF0A3EFF0C39005A3E09F9082
:1057690005A2E09E500F9005A4E0FFA3E09005A2DA
:10577900CFF0A3EFF01200069005A6E004F0E0C315
:10578900940A40C89005A2E0FCA3E0FDE4123C2184
:10579900A804A905AA06AB077F0A7ED77DA37C4486
:1057A900123B069005A7123F1B9005A7E0FCA3E05A
:1057B900FDA3E0FEA3E0FF123C5A7C007D64123E8B
:1057C90017AC06AD07E4123C21C004C005C006C0F1
:1057D90007E4FFFE7DC87C429005A7E0F8A3E0F945
:1057E900A3E0FAA3E0FB1239FDD003D002D001D027
:1057F90000123908123C5A9005ABEEF0A3EFF09075
:0D58090005A7E0FCA3E0FDA3E0FEA3E0FF87
:01581600226F
:10621100E49005F2F01257399005F3123F1BE4FFA9
:10622100FEFDFC9005F3E0F8A3E0F9A3E0FAA3E09A
:10623100FB123BA360377FCD7ECC7D2C7CC09005CB
:10624100F3E0F8A3E0F9A3E0FAA3E0FB12390CE4D0
:10625100FBFA79C878421239FD7BFE7AFF79BF7863
:0F6261003F123B06123C5A9005F2EFF0227F00ED
:01627000220B
:10513A0090054D123F2700000000E4900551F0A3AE
:10514A00F0125739900553123F1B900552E0C39451
:10515A000A50247F05126A1B900552E025E0243983
:10516A00F582E43405F583EEF0A3EFF01200069021
:10517A000552E004F080D3900545E0FEA3E0FF90DD
:10518A000540E02FFF90053FE03EFE90054CE02FE2
:10519A00FF90054BE03EFE7C007D03123E29AD07E1
:1051AA00AC06E4123C21900553E0F8A3E0F9A3E031
:1051BA00FAA3E0FB1239FD7BE77AFB7979783F1293
:1051CA0039FDE4FBFA79D478C312390CE4FBFA7995
:1051DA00C87840123B0690054D123F1B90054DE0E2
:1051EA00FCA3E0FDA3E0FEA3E0FF123C5A7C007D95
:1051FA0064123E17AC06AD07E4123C21C004C00598
:10520A00C006C007E4FFFE7DC87C4290054DE0F869
:10521A00A3E0F9A3E0FAA3E0FB1239FDD003D00220
:10522A00D001D000123908123C5A900551EFF0E42F
:10523A00FFFE7DAA7C4290054DE0F8A3E0F9A3E0C9
:10524A00FAA3E0FB123BA360044002C2E990054DB9
:0B525A00E0FCA3E0FDA3E0FEA3E0FFEA
:015265002226
:1069F0007BFF3087137A6779651268A37BFF7A671C
:106A000079731258F47F01227A6779801268A37B28
:0B6A1000FF7A67798F1258F47F002294
:10470C004E4F203A20005331203A20005332203AA9
:10471C0020005333203A20005334203A20005335E4
:10472C00203A2000204D41494E204D454E55200A3F
:10473C00200020554846204D4F4445200020554828
:10474C0046204D4F4445200A2000204254204D4F16
:10475C0044452000204254204D4F4445200A20005F
:10476C002054455354204D4F44452000205445536C
:10477C0054204D4F4445200A2000204241545445BA
:10478C005254204D4F444520002042415454455230
:10479C0059204D4F4445200A200020425A204D4FAD
:1047AC004445200020425A204D4F4445200A200009
:1047BC00204F4C45445F74696D696E672073657456
:1047CC002000204F4C45445F74696D696E672073FF
:1047DC006574200A2000204F4C45445F425A2073D8
:1047EC0065742000204F4C45445F425A2073657419
:1047FC00200A2000202153797374656D5F506F7708
:10480C0065725F5663635F4F4E5F4F4646200A20CA
:10481C00002055313420706F77657220676F6F649C
:10482C0020002055313420706F77657220676F6FD0
:10483C0064200A20002055313420706F7765722077
:10484C004E47204F4350204F5450200020553134B8
:10485C0020706F776572204E47204F4350204F5485
:10486C0050200A2000204E205653454C2000202179
:10487C005653454C200A2000204E2042595020000F
:10488C002021425950200A200020424154544552C4
:10489C0059A1A14D4F444520494E2000204241547E
:1048AC0054455259A1A14D4F444520494E200A2050
:1048BC000020425A204D4F444520494E20002042B2
:1048CC005A204D4F444520494E200A2000204F4C81
:1048DC004544206765742072656164696E67207455
:1048EC00696D696E672000204F4C45445F74696D9B
:1048FC00696E67206765742072656164696E6720F4
:10490C0074696D696E67200A2000204F4C45442065
:10491C006765742077726974696E672074696D6954
:10492C006E672000204F4C45445F74696D696E675B
:10493C00206765742077726974696E672074696D7D
:10494C00696E67200A2000204F4C45445F74696DE6
:10495C00696E672073657420494E2000204F4C45CA
:10496C00445F74696D696E672073657420494E20CD
:10497C000A2000204F4C45445F425A20757020009D
:10498C00204F4C45445F425A207570200A2000206D
:10499C004F4C45445F425A20646F776E2000204F85
:1049AC004C45445F425A20646F776E200A200020E9
:1049BC004F4C45445F425A2073657420494E200089
:1049CC00204F4C45445F425A2073657420494E2059
:1049DC000A2000204E4F54205345542000204E4FA7
:0949EC005420534554200A200018
:0469320041062400F6
:105B1300E490060AF0A3F0A3F07F03126BF490065F
:105B23000AEFF0C394CD40037F0022126D7A7F0306
:105B3300126BF490060BEFF0126D7A7F03126BF485
:105B430090060CEFF090060BE02FFFE433C313EF46
:105B53001390060AF0126D7A7F03126BF4EFD3945D
:105B6300CD4002800A7F03126BF4126DF780E6903A
:105B7300060AE0C394125006126CB07F012290060D
:105B83000AE0C3943B5006126CB07F022290060ACF
:105B9300E0C394695006126CB07F032290060AE0BA
:105BA300C3949B5006126CB07F042290060AE0C394
:0C5BB30094CD5006126CB07F05227F00DC
:015BBF0022C3
:104CCA00E490060DF0A3F0A3F07F03126BF49006B4
:104CDA000DEFF0C394CD4030126D7A7BFF7A47799D
:104CEA000C12680A7FFF126DF790060DE0FF126D35
:104CFA00F77BFF7A47790C1268A390060DE0FF1242
:104D0A006DF753F5DF7F0022126DB67F03126BF445
:104D1A0090060EEFF0126D7A7F03126BF490060F75
:104D2A00EFF090060EE02FFFE433C313EF13900663
:104D3A000DF0C3941250337BFF7A47791212680A36
:104D4A007FFF126DF790060DE0FF126DF77BFF7A79
:104D5A004779121268A390060DE0FF126DF77D3CA9
:104D6A007C007F0112565B7F012290060DE0C394FE
:104D7A003B50337BFF7A47791812680A7FFF126D1E
:104D8A00F790060DE0FF126DF77BFF7A4779121252
:104D9A0068A390060DE0FF126DF77D3C7C007F0250
:104DAA0012565B7F022290060DE0C3946950337B52
:104DBA00FF7A47791E12680A7FFF126DF790060D77
:104DCA00E0FF126DF77BFF7A47791E1268A39006FF
:104DDA000DE0FF126DF77D3C7C007F0312565B7F6E
:104DEA00032290060DE0C3949B50337BFF7A4779E8
:104DFA002412680A7FFF126DF790060DE0FF126D0C
