:03000000025E4D50
:0C5E4D00787FE4F6D8FD758141025E9478
:10633800E4900557F0A3F0A3F0A3123F2700000054
:1063480000E490055EF0A3F0A3F0A3F0A3F0126CB4
:10635800B21269C9126AF1126B63126B7E126A4D2E
:10636800126CFA125FEF126C69C2EE126CE87F6170
:106378001267D77F03126B2B7F01126B0F7F0112FD
:076388006B47126DB580FBAD
:10615E00424C4520736574206261756420537563EB
:10616E006365737300424C452073657420626175DC
:10617E00642046616C736500424C45206261756413
:10618E0020726561642046616C73653100424C4536
:10619E002062617564207265616420537563636566
:1061AE00737300424C4520626175642072656164B0
:0861BE002046616C736532009C
:106C690053CB1F43CCE043CB1043CC10C2EDC2EF52
:036C7900D2EE2236
:055D1C009005FBEFF013
:105D2100E4A3F0A3F0126D3C7F01126DE47FFC123D
:105D31006DE47F01126DE47F01126DE49005FBE0DB
:105D4100FF126DE4126D4C9001A5E070037FFF22FC
:105D51009001A5E0FF9005FCE0FCA3E0FDC39F746A
:105D610080F8EC648098501F74002DF58274003C1B
:105D7100F583E0FF126DE49005FDE004F070D19031
:105D810005FCE004F080C9900002E09001A5B40197
:105D910015E0FBE4FD7F0312547F7BFF7A61795E9E
:105DA1001258F47F0122E0FBE4FD7F0312547F7B54
:0A5DB100FF7A6179731258F47FFF46
:015DBB0022C5
:10643700126D3C7F01126DE47FFC126DE47F021246
:106447006DE4E4FF126DE4126DA69001A5E0FB6414
:1064570005600FE4FD7F0312547F7BFF7A61798625
:106467008018900003E0B4010B7BFF7A61799B12DF
:1064770058F480FE7BFF7A6179B11258F47FFF22CE
:0C0016007F547EF77D18DDFEDEFCDFFA73
:0100220022BB
:0E6D4C0000007F027EAF7D4BDDFEDEFCDFFA35
:016D5A002216
:0E6D5B0000007F0D7E9C7D53DDFEDEFCDFFA26
:016D69002207
:0E6D6A0000007F017ED87D23DDFEDEFCDFFA17
:016D780022F8
:0E6D790000007F2B7E067DCBDDFEDEFCDFFA08
:016D870022E9
:0E6D880000007FFD7E237DDCDDFEDEFCDFFAF9
:016D960022DA
:0E6D970000007F117ED07D1BDDFEDEFCDFFAEA
:016DA50022CB
:0E6DA60000007F057E347DC3DDFEDEFCDFFADB
:016DB40022BC
:040006007F0EDFFE8C
:01000A0022D3
:0E6DB50000007F097E687D8BDDFEDEFCDFFACC
:016DC30022AD
:104FED0020696E64795F7265616474656D7020739C
:104FFD0074617274200D0A00240349006D00700065
:10500D0069006E006A00530065007200690061005E
:10501D006C004E0075006D00300031004003BFFC88
:10502D00BFFCBFFC000001001200210000001000B9
:10503D000000000000000500000000000000060058
:10504D000000000000001000000000000000110032
:10505D0088E1F3C000000000F0000602000001002E
:10506D001200210000000200A000A00200000003B9
:10507D000000000000000200A000A0020000611B63
:10508D0002060000000005000000000000000207FD
:10509D0001000000000005000000000000000407F2
:1050AD000000000000000507D00700000000060703
:1050BD00DC00000000000707002000000000120BBC
:1050CD00FFFF0F00000005000000000000000005BC
:1050DD0000000000000000050000000000000006B8
:1050ED0000000000000000050000000000000005A9
:1050FD00000000000000000600000000000100009C
:10510D00000200000027000000872E0D00010001A5
:10511D0000020000008F2E0D0000000000000005B1
:0D512D00000000000000000600000000006F
:08693A00410516FF410517009D
:0B6226007B027F047A00E4FDFC7E0A8E
:106231009005BCEEF0A3EFF0A3ECF0A3EDF0A3EA20
:10624100F0A3EBF07F01126DDBE4FF126DDB900533
:10625100BCA3E0FF126DDB9005BCE0FF126DDB908B
:1062610005C0A3E0FF126DDB9005C0E0FF126DDBFE
:106271009005BEA3E0FF126DDB9005BEE0FF026D4D
:01628100DB41
:10676A00900613EEF0A3EFF0E4FF126DDBE4FF12E4
:10677A006DDB900613A3E0FF126DDB900613E0FFBA
:10678A00126DDBE4FF126DDBE4FF126DDBE4FF1236
:07679A006DDBE4FF026DDB83
:10537C00E4FF9004F6E0900519F0E4900518F09025
:10538C000518E0FEFD3395E0FC74F72DF5827404EE
:10539C003CF583E0FDEEFB3395E0FA741A2BF582B5
:1053AC0074053AF583EDF0900518E004F0E0B40CC8
:1053BC00CEE4900518F0900518E0FEFD3395E0FC66
:1053CC0074032DF58274053CF583E0FDEEFB3395FB
:1053DC00E0FA74262BF58274053AF583EDF090050E
:1053EC0018E004F0E0B402CE900518740FF09005AC
:1053FC0018E0FEC3648094A0501AEEFD3395E0FCD7
:10540C0074192DF58274053CF583E4F0900518E0D1
:10541C0004F080DAE4900518F0900518E0FEC364FF
:10542C008094A0501BEEFD3395E0FC74192DF58291
:10543C0074053CF583E02FFF900518E004F080D94B
:10544C00EF900538F0E4900518F0900518E0FFC3D4
:10545C00648094A0501CEF3395E0FE74192FF582F4
:10546C0074053EF583E0FF126DE4900518E004F03E
:02547C0080D8D6
:01547E00220B
:10628200E49004F6F0FFEFFD3395E0FC74F72DF592
:106292008274043CF583E4F00FEFB40CE9E4FFEF01
:1062A200FD3395E0FC74032DF58274053CF583E41F
:1062B200F00FEFB402E9E4FFC3EF6480948050155D
:1062C200EFFD3395E0FC74052DF58274053CF583F2
:0A62D200E4F00F80E3E4900515F0FE
:0162DC00229F
:1049F5009005757401F0E4A3F0A3F074FFA3F0A390
:104A0500F0E4A3F0A3F0A3F0A3F0A3F0A3F0A3F0C8
:104A1500A3F0A3F0A3F0A3F0A37412F0E4A3F0C2F3
:104A250008C209A3F090057AE0FEA3E024A8F58268
:104A350074013EF583E064016003024AFF90057A44
:104A4500A3E0FF24A9F58274013EF583E090058774
:104A5500F074AB2FF58274013EF583E0FE90057A84
:104A6500E0FCA3E0FD24AAF58274013CF583E07A1D
:104A7500002400FFEA3E900578F0A3EFF074AD2D19
:104A8500F58274013CF583E0FE90057AA3E024AC41
:104A9500F58274013CF583E02400FFEA3E9005763B
:104AA500F0A3EFF0ED2408FFE43C90057CF0FCA3B7
:104AB500EFF0FD900576E0FAA3E0FBAE027802C3C5
:104AC50033CE33CED8F92DFFEE3C90057EF0A3EF23
:104AD500F0EB2402FFE43AFEEF7802C333CE33CE87
:104AE500D8F9FF90057BE02FF090057AE03EF07B4A
:104AF500FFE4FD7F0112547F80057B44024CC29088
:104B05000578E07004A3E06405705E90057DE024FF
:104B15000EFE90057CE03400900580F0A3CEF0E415
:104B2500900573F0A3F0C3900574E0940C900573A1
:104B3500E094005034E0FEA3E0FF900581E02FFDF6
:104B4500900580E03EFC74A82DF58274013CF58348
:104B5500E0FD74F72FF58274043EF583EDF07BBB21
:104B6500E4FD7F0112547F80FE900578E07004A378
:104B7500E064066003024A2A7BCCFD7F0112547F64
:104B8500900587E06003024CC07BDDFD7F01125478
:104B95007F90057CE0FEA3E0FF24ACF58274013E26
:104BA500F583E064C26003024CB4EF240CFFE43EDD
:104BB500900582F0A3EFF09004F6E024FE606814FF
:104BC5007003024C8724026003024CAAE49005732B
:104BD500F0A3F0900573E0FEA3E0FF900583E02FBE
:104BE500FD900582E03EFC74A82DF58274013CF52C
:104BF50083E0FD74032FF58274053EF583EDF07BAC
:104C0500CCE4FD7F0112547F900574E004F070063A
:104C1500900573E004F0C3900574E0940290057369
:104C2500E0940040AE8075E4900573F0A3F0900524
:104C350073E0FEA3E0FF900583E02FFD900582E081
:104C45003EFC74A82DF58274013CF583E0FD7403E8
:104C55002FF58274053EF583EDF07BDDE4FD7F01E4
:104C650012547F900574E004F07006900573E0041B
:104C7500F0C3900574E09402900573E0940040AE93
:104C8500801AE4900503F0900582E0FEA3E024A9D4
:104C9500F58274013EF583E0900504F0900517E078
:104CA50004F0024A2AE4900516F0A3F0024A2A7B92
:104CB50022E4FD7F0112547F024A2A7B33E4FD7F03
:044CC5000112547F05
:014CC90022C8
:1065B300E4900615F0A3F0FBFAFDFC7F027E0A12BD
:1065C30062317B0C7F0312622A126226E4FBFAFD1E
:1065D300FC7F067E0A1262317B107A00E4FDFCFF29
:1065E3007EF0126231126D4C9001A8E0B40107C233
:0665F300AC1249F5D2AC28
:0165F900227F
:10648700E4900617F0A3F0FBFAFDFC7F027E0A12E8
:1064970062317B0D7A00E4FDFC7F037E0A126231D4
:1064A700126226E4FBFAFDFC7F067E0A1262317B4C
:1064B700087A00E4FDFCFF7EF0126231126D4C9009
:0D64C70001A8E0B40107C2AC1249F5D2AC47
:0164D40022A5
:1062DD00E4900619F0A3F07BFF7A4F79ED12683F39
:1062ED00E4FBFAFDFC7F027E0A1262317B0E7A001E
:1062FD00E4FDFC7F037E0A126231126226E4FBFA92
:10630D00FDFC7F067E0A1262317B077A00E4FDFCFC
:10631D00FF7EF0126231126C29126D4C9001A8E0D3
:0A632D00B40107C2AC1249F5D2AC6E
:016337002243
:10663E00E4FF900000E060379001A5E0C39408509D
:10664E0003E4FE22E4FEEEFD3395E0FC74002DF52E
:10665E008274003CF583E02FFF0EEEB407E8900045
:10666E0007E0B507057E007F0122126D3C8000E435
:02667E00FEFF1D
:0166800022F7
:10009E00EF14B42200400302233C9000B675F00327
:1000AE00A4C58325F0C5837302011C02012502013C
:1000BE002E0201300201320203A902013502014370
:1000CE0002015102015F02016D02017B02018F02EA
:1000DE0001A30201B70201F302020702026B020240
:1000EE007F0202930202A70202BB0202CF02233C4E
:1000FE0002030B0203470203A902035B02039602EB
:10010E0003A90203BC0203D40203A90203FC7FC0AD
:10011E00126DDB7F0680337F40126DDB7F03802AFA
:10012E00802F8003020347E4FF126DDBE4FF126DA4
:10013E00DB7F108058E4FF126DDBE4FF126DDB7F76
:10014E0011804AE4FF126DDBE4FF126DDBE4FF80E9
:10015E003CE4FF126DDBE4FF126DDB7F01802EE4C9
:10016E00FF126DDBE4FF126DDB7F028020E4FF12D5
:10017E006DDBE4FF126DDBE4FF126DDB7F03020328
:10018E00E5E4FF126DDBE4FF126DDB7F02126DDB27
:10019E00E4FF0203E5E4FF126DDBE4FF126DDB7F8B
:1001AE0061126DDB7F1B0203E57F01126DDBE4FF45
:1001BE00126DDB7F01126DDB7F07126DDBE4FF1228
:1001CE006DDBE4FF126DDBE4FF126DDBE4FF126DFD
:1001DE00DBE4FF126DDBE4FF126DDB7F05126DDBDE
:1001EE00E4FF0203E5E4FF126DDBE4FF126DDB7F3B
:1001FE0002126DDB7F070203E57F01126DDBE4FF68
:10020E00126DDB7F02126DDB7F07126DDB7F011239
:10021E006DDBE4FF126DDBE4FF126DDBE4FF126DAC
:10022E00DB7F01126DDBE4FF126DDB7F01126DDBF4
:10023E007F07126DDBE4FF126DDBE4FF126DDBE472
:10024E00FF126DDBE4FF126DDBE4FF126DDBE4FFEA
:10025E00126DDB7F05126DDBE4FF0203E5E4FF1296
:10026E006DDBE4FF126DDB7F04126DDB7F07020393
:10027E00E5E4FF126DDBE4FF126DDB7F05126DDB33
:10028E007F070203E5E4FF126DDBE4FF126DDB7FF7
:10029E0006126DDB7F070203E5E4FF126DDBE4FF60
:1002AE00126DDB7F07126DDB7F070203E5E4FF12A1
:1002BE006DDBE4FF126DDB7F12126DDB7F0B020331
:1002CE00E57F01126DDBE4FF126DDB7F01126DDB4A
:1002DE007F07126DDBE4FF126DDBE4FF126DDBE4D2
:1002EE00FF126DDBE4FF126DDBE4FF126DDBE4FF4A
:1002FE00126DDB7F05126DDBE4FF0203E57F011259
:10030E006DDBE4FF126DDB7F0A126DDB7F01126D78
:10031E00DB7FF8126DDB7F59126DDB7F0D126DDB0B
:10032E00E4FF126DDBE4FF126DDBE4FF126DDB7F89
:10033E0005126DDBE4FF0203E5E4FF126DDBE4FF63
:10034E00126DDB7F05126DDBE4FF0203E57F011208
:10035E006DDBE4FF126DDB7F08126DDB7F01126D2A
:10036E00DB7F01126DDB7F01126DDBE4FF126DDBB3
:10037E00E4FF126DDBE4FF126DDBE4FF126DDB7F39
:10038E0005126DDBE4FF804FE4FF126DDBE4FF121C
:10039E006DDB7F05126DDBE4FF803CE4FF126DDB4D
:1003AE00E4FF126DDB7F06126DDBE4FF80297F0117
:1003BE00126DDBE4FF126DDBE4FF126DDB7FF012DA
:1003CE006DDB7F278016E4FF126DDBE4FF126DDB21
:1003DE007F05126DDBE4FF126DDBE4FF126DDBE4D3
:1003EE00FF126DDBE4FF126DDBE4FF0223397F01A8
:1003FE00126DDBE4FF126DDB7F01126DDB7F0C12E1
:10040E006DDBE4FF126DDBE4FF126DDBE4FF126DBA
:10041E00DBE4FF126DDB7F01126DDBE4FF126DDB9F
:10042E007F02126DDB7F0C126DDB7F01126DDBE440
:10043E00FF126DDBE4FF126DDBE4FF126DDB7F015B
:10044E00126DDBE4FF126DDB7F03126DDB7F0C128E
:10045E006DDB7F70126DDB7F0D126DDB7F18126D01
:10046E00DBE4FF126DDB7F01126DDBE4FF126DDB4F
:10047E007F04126DDB7F0C126DDBE4FF126DDB7FF0
:10048E0001126DDB7F07126DDB7F14126DDB7F01B6
:10049E00126DDBE4FF126DDB7F01126DDB7F0C1240
:1004AE006DDB7F01126DDBE4FF126DDBE4FF126D7D
:1004BE00DBE4FF126DDB7F01126DDBE4FF126DDBFF
:1004CE007F02126DDB7F0C126DDB7F01126DDBE4A0
:1004DE00FF126DDBE4FF126DDBE4FF126DDB7F01BB
:1004EE00126DDBE4FF126DDB7F03126DDB7F0C12EE
:1004FE006DDB7F84126DDB7F0D126DDB7F18126D4D
:10050E00DBE4FF126DDB7F01126DDBE4FF126DDBAE
:10051E007F04126DDB7F0C126DDBE4FF126DDB7F4F
:10052E0001126DDB7F07126DDB7F14126DDB7F0115
:10053E00126DDBE4FF126DDB7F01126DDB7F0C129F
:10054E006DDB7F02126DDBE4FF126DDBE4FF126DDB
:10055E00DBE4FF126DDB7F01126DDBE4FF126DDB5E
:10056E007F02126DDB7F0C126DDB7F01126DDBE4FF
:10057E00FF126DDBE4FF126DDBE4FF126DDB7F011A
:10058E00126DDBE4FF126DDB7F03126DDB7F0C124D
:10059E006DDB7F98126DDB7F0D126DDB7F18126D98
:1005AE00DBE4FF126DDB7F01126DDBE4FF126DDB0E
:1005BE007F04126DDB7F0C126DDBE4FF126DDB7FAF
:1005CE0001126DDB7F07126DDB7F14126DDB7F0175
:1005DE00126DDBE4FF126DDB7F01126DDB7F0C12FF
:1005EE006DDB7F03126DDBE4FF126DDBE4FF126D3A
:1005FE00DBE4FF126DDB7F01126DDBE4FF126DDBBE
:10060E007F02126DDB7F0C126DDB7F01126DDBE45E
:10061E00FF126DDBE4FF126DDBE4FF126DDB7F0179
:10062E00126DDBE4FF126DDB7F03126DDB7F0C12AC
:10063E006DDB7FAC126DDB7F0D126DDB7F18126DE3
:10064E00DBE4FF126DDB7F01126DDBE4FF126DDB6D
:10065E007F04126DDB7F0C126DDBE4FF126DDB7F0E
:10066E0001126DDB7F07126DDB7F14126DDB7F01D4
:10067E00126DDBE4FF126DDB7F01126DDB7F0C125E
:10068E006DDB7F04126DDBE4FF126DDBE4FF126D98
:10069E00DBE4FF126DDB7F01126DDBE4FF126DDB1D
:1006AE007F02126DDB7F0C126DDB7F01126DDBE4BE
:1006BE00FF126DDBE4FF126DDBE4FF126DDB7F01D9
:1006CE00126DDBE4FF126DDB7F03126DDB7F0C120C
:1006DE006DDB7FC0126DDB7F0D126DDB7F18126D2F
:1006EE00DBE4FF126DDB7F01126DDBE4FF126DDBCD
:1006FE007F04126DDB7F0C126DDBE4FF126DDB7F6E
:10070E0001126DDB7F07126DDB7F14126DDB7F0133
:10071E00126DDBE4FF126DDB7F01126DDB7F0C12BD
:10072E006DDB7F05126DDBE4FF126DDBE4FF126DF6
:10073E00DBE4FF126DDB7F01126DDBE4FF126DDB7C
:10074E007F02126DDB7F0C126DDB7F01126DDBE41D
:10075E00FF126DDBE4FF126DDBE4FF126DDB7F0138
:10076E00126DDBE4FF126DDB7F03126DDB7F0C126B
:10077E006DDB7FD4126DDB7F0D126DDB7F18126D7A
:10078E00DBE4FF126DDB7F01126DDBE4FF126DDB2C
:10079E007F04126DDB7F0C126DDBE4FF126DDB7FCD
:1007AE0001126DDB7F07126DDB7F14126DDB7F0193
:1007BE00126DDBE4FF126DDB7F01126DDB7F0C121D
:1007CE006DDB7F06126DDBE4FF126DDBE4FF126D55
:1007DE00DBE4FF126DDB7F01126DDBE4FF126DDBDC
:1007EE007F02126DDB7F0C126DDB7F01126DDBE47D
:1007FE00FF126DDBE4FF126DDBE4FF126DDB7F0198
:10080E00126DDBE4FF126DDB7F03126DDB7F0C12CA
:10081E006DDB7FE8126DDB7F0D126DDB7F18126DC5
:10082E00DBE4FF126DDB7F01126DDBE4FF126DDB8B
:10083E007F04126DDB7F0C126DDBE4FF126DDB7F2C
:10084E0001126DDB7F07126DDB7F14126DDB7F01F2
:10085E00126DDBE4FF126DDB7F01126DDB7F0C127C
:10086E006DDB7F07126DDBE4FF126DDBE4FF126DB3
:10087E00DBE4FF126DDB7F01126DDBE4FF126DDB3B
:10088E007F02126DDB7F0C126DDB7F01126DDBE4DC
:10089E00FF126DDBE4FF126DDBE4FF126DDB7F01F7
:1008AE00126DDBE4FF126DDB7F03126DDB7F0C122A
:1008BE006DDB7FFC126DDB7F0D126DDB7F18126D11
:1008CE00DBE4FF126DDB7F01126DDBE4FF126DDBEB
:1008DE007F04126DDB7F0C126DDBE4FF126DDB7F8C
:1008EE0001126DDB7F07126DDB7F14126DDB7F0152
:1008FE00126DDBE4FF126DDB7F01126DDB7F0C12DC
:10090E006DDB7F08126DDBE4FF126DDBE4FF126D11
:10091E00DBE4FF126DDB7F01126DDBE4FF126DDB9A
:10092E007F02126DDB7F0C126DDB7F01126DDBE43B
:10093E00FF126DDBE4FF126DDBE4FF126DDB7F0156
:10094E00126DDBE4FF126DDB7F03126DDB7F0C1289
:10095E006DDB7F10126DDB7F0E126DDB7F18126D5B
:10096E00DBE4FF126DDB7F01126DDBE4FF126DDB4A
:10097E007F04126DDB7F0C126DDBE4FF126DDB7FEB
:10098E0001126DDB7F07126DDB7F14126DDB7F01B1
:10099E00126DDBE4FF126DDB7F01126DDB7F0C123B
:1009AE006DDB7F09126DDBE4FF126DDBE4FF126D70
:1009BE00DBE4FF126DDB7F01126DDBE4FF126DDBFA
:1009CE007F02126DDB7F0C126DDB7F01126DDBE49B
:1009DE00FF126DDBE4FF126DDBE4FF126DDB7F01B6
:1009EE00126DDBE4FF126DDB7F03126DDB7F0C12E9
:1009FE006DDB7F24126DDB7F0E126DDB7F18126DA7
:100A0E00DBE4FF126DDB7F01126DDBE4FF126DDBA9
:100A1E007F04126DDB7F0C126DDBE4FF126DDB7F4A
:100A2E0001126DDB7F07126DDB7F14126DDB7F0110
:100A3E00126DDBE4FF126DDB7F01126DDB7F0C129A
:100A4E006DDB7F0A126DDBE4FF126DDBE4FF126DCE
:100A5E00DBE4FF126DDB7F01126DDBE4FF126DDB59
:100A6E007F02126DDB7F0C126DDB7F01126DDBE4FA
:100A7E00FF126DDBE4FF126DDBE4FF126DDB7F0115
:100A8E00126DDBE4FF126DDB7F03126DDB7F0C1248
:100A9E006DDB7F38126DDB7F0E126DDB7F18126DF2
:100AAE00DBE4FF126DDB7F01126DDBE4FF126DDB09
:100ABE007F04126DDB7F0C126DDBE4FF126DDB7FAA
:100ACE0001126DDB7F07126DDB7F14126DDB7F0170
:100ADE00126DDBE4FF126DDB7F01126DDB7F0C12FA
:100AEE006DDB7F0B126DDBE4FF126DDBE4FF126D2D
:100AFE00DBE4FF126DDB7F01126DDBE4FF126DDBB9
:100B0E007F02126DDB7F0C126DDB7F01126DDBE459
:100B1E00FF126DDBE4FF126DDBE4FF126DDB7F0174
:100B2E00126DDBE4FF126DDB7F03126DDB7F0C12A7
:100B3E006DDB7F4C126DDB7F0E126DDB7F18126D3D
:100B4E00DBE4FF126DDB7F01126DDBE4FF126DDB68
:100B5E007F04126DDB7F0C126DDBE4FF126DDB7F09
:100B6E0001126DDB7F07126DDB7F14126DDB7F01CF
:100B7E00126DDBE4FF126DDB7F01126DDB7F0C1259
:100B8E006DDB7F0C126DDBE4FF126DDBE4FF126D8B
:100B9E00DBE4FF126DDB7F01126DDBE4FF126DDB18
:100BAE007F02126DDB7F0C126DDB7F01126DDBE4B9
:100BBE00FF126DDBE4FF126DDBE4FF126DDB7F01D4
:100BCE00126DDBE4FF126DDB7F03126DDB7F0C1207
:100BDE006DDB7F60126DDB7F0E126DDB7F18126D89
:100BEE00DBE4FF126DDB7F01126DDBE4FF126DDBC8
:100BFE007F04126DDB7F0C126DDBE4FF126DDB7F69
:100C0E0001126DDB7F07126DDB7F14126DDB7F012E
:100C1E00126DDBE4FF126DDB7F01126DDB7F0C12B8
:100C2E006DDB7F0D126DDBE4FF126DDBE4FF126DE9
:100C3E00DBE4FF126DDB7F01126DDBE4FF126DDB77
:100C4E007F02126DDB7F0C126DDBE4FF126DDBE4B5
:100C5E00FF126DDBE4FF126DDBE4FF126DDB7F0133
:100C6E00126DDBE4FF126DDB7F03126DDB7F0C1266
:100C7E006DDB7F60126DDB7F0E126DDB7F18126DE8
:100C8E00DBE4FF126DDB7F01126DDBE4FF126DDB27
:100C9E007F04126DDB7F0C126DDBE4FF126DDB7FC8
:100CAE0001126DDB7F07126DDB7F14126DDB7F018E
:100CBE00126DDBE4FF126DDB7F01126DDB7F0C1218
:100CCE006DDB7F0E126DDBE4FF126DDBE4FF126D48
:100CDE00DBE4FF126DDB7F01126DDBE4FF126DDBD7
:100CEE007F02126DDB7F0C126DDBE4FF126DDBE415
:100CFE00FF126DDBE4FF126DDBE4FF126DDB7F0193
:100D0E00126DDBE4FF126DDB7F03126DDB7F0C12C5
:100D1E006DDB7F60126DDB7F0E126DDB7F18126D47
:100D2E00DBE4FF126DDB7F01126DDBE4FF126DDB86
:100D3E007F04126DDB7F0C126DDBE4FF126DDB7F27
:100D4E0001126DDB7F07126DDB7F14126DDB7F01ED
:100D5E00126DDBE4FF126DDB7F01126DDB7F0C1277
:100D6E006DDB7F0F126DDBE4FF126DDBE4FF126DA6
:100D7E00DBE4FF126DDB7F01126DDBE4FF126DDB36
:100D8E007F02126DDB7F0C126DDBE4FF126DDBE474
:100D9E00FF126DDBE4FF126DDBE4FF126DDB7F01F2
:100DAE00126DDBE4FF126DDB7F03126DDB7F0C1225
:100DBE006DDB7F60126DDB7F0E126DDB7F18126DA7
:100DCE00DBE4FF126DDB7F01126DDBE4FF126DDBE6
:100DDE007F04126DDB7F0C126DDBE4FF126DDB7F87
:100DEE0001126DDB7F07126DDB7F14126DDB7F014D
:100DFE00126DDBE4FF126DDB7F01126DDB7F0C12D7
:100E0E006DDB7F10126DDBE4FF126DDBE4FF126D04
:100E1E00DBE4FF126DDB7F01126DDBE4FF126DDB95
:100E2E007F02126DDB7F0C126DDBE4FF126DDBE4D3
:100E3E00FF126DDBE4FF126DDBE4FF126DDB7F0151
:100E4E00126DDBE4FF126DDB7F03126DDB7F0C1284
:100E5E006DDB7F60126DDB7F0E126DDB7F18126D06
:100E6E00DBE4FF126DDB7F01126DDBE4FF126DDB45
:100E7E007F04126DDB7F0C126DDBE4FF126DDB7FE6
:100E8E0001126DDB7F07126DDB7F14126DDB7F01AC
:100E9E00126DDBE4FF126DDB7F01126DDB7F0C1236
:100EAE006DDB7F11126DDBE4FF126DDBE4FF126D63
:100EBE00DBE4FF126DDB7F01126DDBE4FF126DDBF5
:100ECE007F02126DDB7F0C126DDBE4FF126DDBE433
:100EDE00FF126DDBE4FF126DDBE4FF126DDB7F01B1
:100EEE00126DDBE4FF126DDB7F03126DDB7F0C12E4
:100EFE006DDB7F60126DDB7F0E126DDB7F18126D66
:100F0E00DBE4FF126DDB7F01126DDBE4FF126DDBA4
:100F1E007F04126DDB7F0C126DDBE4FF126DDB7F45
:100F2E0001126DDB7F07126DDB7F14126DDB7F010B
:100F3E00126DDBE4FF126DDB7F01126DDB7F0C1295
:100F4E006DDB7F12126DDBE4FF126DDBE4FF126DC1
:100F5E00DBE4FF126DDB7F01126DDBE4FF126DDB54
:100F6E007F02126DDB7F0C126DDBE4FF126DDBE492
:100F7E00FF126DDBE4FF126DDBE4FF126DDB7F0110
:100F8E00126DDBE4FF126DDB7F03126DDB7F0C1243
:100F9E006DDB7F60126DDB7F0E126DDB7F18126DC5
:100FAE00DBE4FF126DDB7F01126DDBE4FF126DDB04
:100FBE007F04126DDB7F0C126DDBE4FF126DDB7FA5
:100FCE0001126DDB7F07126DDB7F14126DDB7F016B
:100FDE00126DDBE4FF126DDB7F01126DDB7F0C12F5
:100FEE006DDB7F13126DDBE4FF126DDBE4FF126D20
:100FFE00DBE4FF126DDB7F01126DDBE4FF126DDBB4
:10100E007F02126DDB7F0C126DDBE4FF126DDBE4F1
:10101E00FF126DDBE4FF126DDBE4FF126DDB7F016F
:10102E00126DDBE4FF126DDB7F03126DDB7F0C12A2
:10103E006DDB7F60126DDB7F0E126DDB7F18126D24
:10104E00DBE4FF126DDB7F01126DDBE4FF126DDB63
:10105E007F04126DDB7F0C126DDBE4FF126DDB7F04
:10106E0001126DDB7F07126DDB7F14126DDB7F01CA
:10107E00126DDBE4FF126DDB7F01126DDB7F0C1254
:10108E006DDB7F14126DDBE4FF126DDBE4FF126D7E
:10109E00DBE4FF126DDB7F01126DDBE4FF126DDB13
:1010AE007F02126DDB7F0C126DDBE4FF126DDBE451
:1010BE00FF126DDBE4FF126DDBE4FF126DDB7F01CF
:1010CE00126DDBE4FF126DDB7F03126DDB7F0C1202
:1010DE006DDB7F60126DDB7F0E126DDB7F18126D84
:1010EE00DBE4FF126DDB7F01126DDBE4FF126DDBC3
:1010FE007F04126DDB7F0C126DDBE4FF126DDB7F64
:10110E0001126DDB7F07126DDB7F14126DDB7F0129
:10111E00126DDBE4FF126DDB7F01126DDB7F0C12B3
:10112E006DDB7F15126DDBE4FF126DDBE4FF126DDC
:10113E00DBE4FF126DDB7F01126DDBE4FF126DDB72
:10114E007F02126DDB7F0C126DDBE4FF126DDBE4B0
:10115E00FF126DDBE4FF126DDBE4FF126DDB7F012E
:10116E00126DDBE4FF126DDB7F03126DDB7F0C1261
:10117E006DDB7F60126DDB7F0E126DDB7F18126DE3
:10118E00DBE4FF126DDB7F01126DDBE4FF126DDB22
:10119E007F04126DDB7F0C126DDBE4FF126DDB7FC3
:1011AE0001126DDB7F07126DDB7F14126DDB7F0189
:1011BE00126DDBE4FF126DDB7F01126DDB7F0C1213
:1011CE006DDB7F16126DDBE4FF126DDBE4FF126D3B
:1011DE00DBE4FF126DDB7F01126DDBE4FF126DDBD2
:1011EE007F02126DDB7F0C126DDBE4FF126DDBE410
:1011FE00FF126DDBE4FF126DDBE4FF126DDB7F018E
:10120E00126DDBE4FF126DDB7F03126DDB7F0C12C0
:10121E006DDB7F60126DDB7F0E126DDB7F18126D42
:10122E00DBE4FF126DDB7F01126DDBE4FF126DDB81
:10123E007F04126DDB7F0C126DDBE4FF126DDB7F22
:10124E0001126DDB7F07126DDB7F14126DDB7F01E8
:10125E00126DDBE4FF126DDB7F01126DDB7F0C1272
:10126E006DDB7F17126DDBE4FF126DDBE4FF126D99
:10127E00DBE4FF126DDB7F01126DDBE4FF126DDB31
:10128E007F02126DDB7F0C126DDBE4FF126DDBE46F
:10129E00FF126DDBE4FF126DDBE4FF126DDB7F01ED
:1012AE00126DDBE4FF126DDB7F03126DDB7F0C1220
:1012BE006DDB7F60126DDB7F0E126DDB7F18126DA2
:1012CE00DBE4FF126DDB7F01126DDBE4FF126DDBE1
:1012DE007F04126DDB7F0C126DDBE4FF126DDB7F82
:1012EE0001126DDB7F07126DDB7F14126DDB7F0148
:1012FE00126DDBE4FF126DDB7F01126DDB7F0C12D2
:10130E006DDB7F18126DDBE4FF126DDBE4FF126DF7
:10131E00DBE4FF126DDB7F01126DDBE4FF126DDB90
:10132E007F02126DDB7F0C126DDBE4FF126DDBE4CE
:10133E00FF126DDBE4FF126DDBE4FF126DDB7F014C
:10134E00126DDBE4FF126DDB7F03126DDB7F0C127F
:10135E006DDB7F60126DDB7F0E126DDB7F18126D01
:10136E00DBE4FF126DDB7F01126DDBE4FF126DDB40
:10137E007F04126DDB7F0C126DDBE4FF126DDB7FE1
:10138E0001126DDB7F07126DDB7F14126DDB7F01A7
:10139E00126DDBE4FF126DDB7F01126DDB7F0C1231
:1013AE006DDB7F19126DDBE4FF126DDBE4FF126D56
:1013BE00DBE4FF126DDB7F01126DDBE4FF126DDBF0
:1013CE007F02126DDB7F0C126DDBE4FF126DDBE42E
:1013DE00FF126DDBE4FF126DDBE4FF126DDB7F01AC
:1013EE00126DDBE4FF126DDB7F03126DDB7F0C12DF
:1013FE006DDB7F60126DDB7F0E126DDB7F18126D61
:10140E00DBE4FF126DDB7F01126DDBE4FF126DDB9F
:10141E007F04126DDB7F0C126DDBE4FF126DDB7F40
:10142E0001126DDB7F07126DDB7F14126DDB7F0106
:10143E00126DDBE4FF126DDB7F01126DDB7F0C1290
:10144E006DDB7F1A126DDBE4FF126DDBE4FF126DB4
:10145E00DBE4FF126DDB7F01126DDBE4FF126DDB4F
:10146E007F02126DDB7F0C126DDBE4FF126DDBE48D
:10147E00FF126DDBE4FF126DDBE4FF126DDB7F010B
:10148E00126DDBE4FF126DDB7F03126DDB7F0C123E
:10149E006DDB7F60126DDB7F0E126DDB7F18126DC0
:1014AE00DBE4FF126DDB7F01126DDBE4FF126DDBFF
:1014BE007F04126DDB7F0C126DDBE4FF126DDB7FA0
:1014CE0001126DDB7F07126DDB7F14126DDB7F0166
:1014DE00126DDBE4FF126DDB7F01126DDB7F0C12F0
:1014EE006DDB7F1B126DDBE4FF126DDBE4FF126D13
:1014FE00DBE4FF126DDB7F01126DDBE4FF126DDBAF
:10150E007F02126DDB7F0C126DDBE4FF126DDBE4EC
:10151E00FF126DDBE4FF126DDBE4FF126DDB7F016A
:10152E00126DDBE4FF126DDB7F03126DDB7F0C129D
:10153E006DDB7F60126DDB7F0E126DDB7F18126D1F
:10154E00DBE4FF126DDB7F01126DDBE4FF126DDB5E
:10155E007F04126DDB7F0C126DDBE4FF126DDB7FFF
:10156E0001126DDB7F07126DDB7F14126DDB7F01C5
:10157E00126DDBE4FF126DDB7F01126DDB7F0C124F
:10158E006DDB7F1C126DDBE4FF126DDBE4FF126D71
:10159E00DBE4FF126DDB7F01126DDBE4FF126DDB0E
:1015AE007F02126DDB7F0C126DDBE4FF126DDBE44C
:1015BE00FF126DDBE4FF126DDBE4FF126DDB7F01CA
:1015CE00126DDBE4FF126DDB7F03126DDB7F0C12FD
:1015DE006DDB7F60126DDB7F0E126DDB7F18126D7F
:1015EE00DBE4FF126DDB7F01126DDBE4FF126DDBBE
:1015FE007F04126DDB7F0C126DDBE4FF126DDB7F5F
:10160E0001126DDB7F07126DDB7F14126DDB7F0124
:10161E00126DDBE4FF126DDB7F01126DDB7F0C12AE
:10162E006DDB7F1D126DDBE4FF126DDBE4FF126DCF
:10163E00DBE4FF126DDB7F01126DDBE4FF126DDB6D
:10164E007F02126DDB7F0C126DDBE4FF126DDBE4AB
:10165E00FF126DDBE4FF126DDBE4FF126DDB7F0129
:10166E00126DDBE4FF126DDB7F03126DDB7F0C125C
:10167E006DDB7F60126DDB7F0E126DDB7F18126DDE
:10168E00DBE4FF126DDB7F01126DDBE4FF126DDB1D
:10169E007F04126DDB7F0C126DDBE4FF126DDB7FBE
:1016AE0001126DDB7F07126DDB7F14126DDB7F0184
:1016BE00126DDBE4FF126DDB7F01126DDB7F0C120E
:1016CE006DDB7F1E126DDBE4FF126DDBE4FF126D2E
:1016DE00DBE4FF126DDB7F01126DDBE4FF126DDBCD
:1016EE007F02126DDB7F0C126DDBE4FF126DDBE40B
:1016FE00FF126DDBE4FF126DDBE4FF126DDB7F0189
:10170E00126DDBE4FF126DDB7F03126DDB7F0C12BB
:10171E006DDB7F60126DDB7F0E126DDB7F18126D3D
:10172E00DBE4FF126DDB7F01126DDBE4FF126DDB7C
:10173E007F04126DDB7F0C126DDBE4FF126DDB7F1D
:10174E0001126DDB7F07126DDB7F14126DDB7F01E3
:10175E00126DDBE4FF126DDB7F01126DDB7F0C126D
:10176E006DDB7F1F126DDBE4FF126DDBE4FF126D8C
:10177E00DBE4FF126DDB7F01126DDBE4FF126DDB2C
:10178E007F02126DDB7F0C126DDBE4FF126DDBE46A
:10179E00FF126DDBE4FF126DDBE4FF126DDB7F01E8
:1017AE00126DDBE4FF126DDB7F03126DDB7F0C121B
:1017BE006DDB7F60126DDB7F0E126DDB7F18126D9D
:1017CE00DBE4FF126DDB7F01126DDBE4FF126DDBDC
:1017DE007F04126DDB7F0C126DDBE4FF126DDB7F7D
:1017EE0001126DDB7F07126DDB7F14126DDB7F0143
:1017FE00126DDBE4FF126DDB7F01126DDB7F0C12CD
:10180E006DDB7F20126DDBE4FF126DDBE4FF126DEA
:10181E00DBE4FF126DDB7F01126DDBE4FF126DDB8B
:10182E007F02126DDB7F0C126DDBE4FF126DDBE4C9
:10183E00FF126DDBE4FF126DDBE4FF126DDB7F0147
:10184E00126DDBE4FF126DDB7F03126DDB7F0C127A
:10185E006DDB7F60126DDB7F0E126DDB7F18126DFC
:10186E00DBE4FF126DDB7F01126DDBE4FF126DDB3B
:10187E007F04126DDB7F0C126DDBE4FF126DDB7FDC
:10188E0001126DDB7F07126DDB7F14126DDB7F01A2
:10189E00126DDBE4FF126DDB7F01126DDB7F0C122C
:1018AE006DDB7F21126DDBE4FF126DDBE4FF126D49
:1018BE00DBE4FF126DDB7F01126DDBE4FF126DDBEB
:1018CE007F02126DDB7F0C126DDBE4FF126DDBE429
:1018DE00FF126DDBE4FF126DDBE4FF126DDB7F01A7
:1018EE00126DDBE4FF126DDB7F03126DDB7F0C12DA
:1018FE006DDB7F60126DDB7F0E126DDB7F18126D5C
:10190E00DBE4FF126DDB7F01126DDBE4FF126DDB9A
:10191E007F04126DDB7F0C126DDBE4FF126DDB7F3B
:10192E0001126DDB7F07126DDB7F14126DDB7F0101
:10193E00126DDBE4FF126DDB7F01126DDB7F0C128B
:10194E006DDB7F22126DDBE4FF126DDBE4FF126DA7
:10195E00DBE4FF126DDB7F01126DDBE4FF126DDB4A
:10196E007F02126DDB7F0C126DDBE4FF126DDBE488
:10197E00FF126DDBE4FF126DDBE4FF126DDB7F0106
:10198E00126DDBE4FF126DDB7F03126DDB7F0C1239
:10199E006DDB7F60126DDB7F0E126DDB7F18126DBB
:1019AE00DBE4FF126DDB7F01126DDBE4FF126DDBFA
:1019BE007F04126DDB7F0C126DDBE4FF126DDB7F9B
:1019CE0001126DDB7F07126DDB7F14126DDB7F0161
:1019DE00126DDBE4FF126DDB7F01126DDB7F0C12EB
:1019EE006DDB7F23126DDBE4FF126DDBE4FF126D06
:1019FE00DBE4FF126DDB7F01126DDBE4FF126DDBAA
:101A0E007F02126DDB7F0C126DDBE4FF126DDBE4E7
:101A1E00FF126DDBE4FF126DDBE4FF126DDB7F0165
:101A2E00126DDBE4FF126DDB7F03126DDB7F0C1298
:101A3E006DDB7F60126DDB7F0E126DDB7F18126D1A
:101A4E00DBE4FF126DDB7F01126DDBE4FF126DDB59
:101A5E007F04126DDB7F0C126DDBE4FF126DDB7FFA
:101A6E0001126DDB7F07126DDB7F14126DDB7F01C0
:101A7E00126DDBE4FF126DDB7F01126DDB7F0C124A
:101A8E006DDB7F24126DDBE4FF126DDBE4FF126D64
:101A9E00DBE4FF126DDB7F01126DDBE4FF126DDB09
:101AAE007F02126DDB7F0C126DDBE4FF126DDBE447
:101ABE00FF126DDBE4FF126DDBE4FF126DDB7F01C5
:101ACE00126DDBE4FF126DDB7F03126DDB7F0C12F8
:101ADE006DDB7F60126DDB7F0E126DDB7F18126D7A
:101AEE00DBE4FF126DDB7F01126DDBE4FF126DDBB9
:101AFE007F04126DDB7F0C126DDBE4FF126DDB7F5A
:101B0E0001126DDB7F07126DDB7F14126DDB7F011F
:101B1E00126DDBE4FF126DDB7F01126DDB7F0C12A9
:101B2E006DDB7F25126DDBE4FF126DDBE4FF126DC2
:101B3E00DBE4FF126DDB7F01126DDBE4FF126DDB68
:101B4E007F02126DDB7F0C126DDBE4FF126DDBE4A6
:101B5E00FF126DDBE4FF126DDBE4FF126DDB7F0124
:101B6E00126DDBE4FF126DDB7F03126DDB7F0C1257
:101B7E006DDB7F60126DDB7F0E126DDB7F18126DD9
:101B8E00DBE4FF126DDB7F01126DDBE4FF126DDB18
:101B9E007F04126DDB7F0C126DDBE4FF126DDB7FB9
:101BAE0001126DDB7F07126DDB7F14126DDB7F017F
:101BBE00126DDBE4FF126DDB7F01126DDB7F0C1209
:101BCE006DDB7F26126DDBE4FF126DDBE4FF126D21
:101BDE00DBE4FF126DDB7F01126DDBE4FF126DDBC8
:101BEE007F02126DDB7F0C126DDBE4FF126DDBE406
:101BFE00FF126DDBE4FF126DDBE4FF126DDB7F0184
:101C0E00126DDBE4FF126DDB7F03126DDB7F0C12B6
:101C1E006DDB7F60126DDB7F0E126DDB7F18126D38
:101C2E00DBE4FF126DDB7F01126DDBE4FF126DDB77
:101C3E007F04126DDB7F0C126DDBE4FF126DDB7F18
:101C4E0001126DDB7F07126DDB7F14126DDB7F01DE
:101C5E00126DDBE4FF126DDB7F01126DDB7F0C1268
:101C6E006DDB7F27126DDBE4FF126DDBE4FF126D7F
:101C7E00DBE4FF126DDB7F01126DDBE4FF126DDB27
:101C8E007F02126DDB7F0C126DDBE4FF126DDBE465
:101C9E00FF126DDBE4FF126DDBE4FF126DDB7F01E3
:101CAE00126DDBE4FF126DDB7F03126DDB7F0C1216
:101CBE006DDB7F60126DDB7F0E126DDB7F18126D98
:101CCE00DBE4FF126DDB7F01126DDBE4FF126DDBD7
:101CDE007F04126DDB7F0C126DDBE4FF126DDB7F78
:101CEE0001126DDB7F07126DDB7F14126DDB7F013E
:101CFE00126DDBE4FF126DDB7F01126DDB7F0C12C8
:101D0E006DDB7F28126DDBE4FF126DDBE4FF126DDD
:101D1E00DBE4FF126DDB7F01126DDBE4FF126DDB86
:101D2E007F02126DDB7F0C126DDBE4FF126DDBE4C4
:101D3E00FF126DDBE4FF126DDBE4FF126DDB7F0142
:101D4E00126DDBE4FF126DDB7F03126DDB7F0C1275
:101D5E006DDB7F60126DDB7F0E126DDB7F18126DF7
:101D6E00DBE4FF126DDB7F01126DDBE4FF126DDB36
:101D7E007F04126DDB7F0C126DDBE4FF126DDB7FD7
:101D8E0001126DDB7F07126DDB7F14126DDB7F019D
:101D9E00126DDBE4FF126DDB7F01126DDB7F0C1227
:101DAE006DDB7F29126DDBE4FF126DDBE4FF126D3C
:101DBE00DBE4FF126DDB7F01126DDBE4FF126DDBE6
:101DCE007F02126DDB7F0C126DDBE4FF126DDBE424
:101DDE00FF126DDBE4FF126DDBE4FF126DDB7F01A2
:101DEE00126DDBE4FF126DDB7F03126DDB7F0C12D5
:101DFE006DDB7F60126DDB7F0E126DDB7F18126D57
:101E0E00DBE4FF126DDB7F01126DDBE4FF126DDB95
:101E1E007F04126DDB7F0C126DDBE4FF126DDB7F36
:101E2E0001126DDB7F07126DDB7F14126DDB7F01FC
:101E3E00126DDBE4FF126DDB7F01126DDB7F0C1286
:101E4E006DDB7F2A126DDBE4FF126DDBE4FF126D9A
:101E5E00DBE4FF126DDB7F01126DDBE4FF126DDB45
:101E6E007F02126DDB7F0C126DDBE4FF126DDBE483
:101E7E00FF126DDBE4FF126DDBE4FF126DDB7F0101
:101E8E00126DDBE4FF126DDB7F03126DDB7F0C1234
:101E9E006DDB7F60126DDB7F0E126DDB7F18126DB6
:101EAE00DBE4FF126DDB7F01126DDBE4FF126DDBF5
:101EBE007F04126DDB7F0C126DDBE4FF126DDB7F96
:101ECE0001126DDB7F07126DDB7F14126DDB7F015C
:101EDE00126DDBE4FF126DDB7F01126DDB7F0C12E6
:101EEE006DDB7F2B126DDBE4FF126DDBE4FF126DF9
:101EFE00DBE4FF126DDB7F01126DDBE4FF126DDBA5
:101F0E007F02126DDB7F0C126DDBE4FF126DDBE4E2
:101F1E00FF126DDBE4FF126DDBE4FF126DDB7F0160
:101F2E00126DDBE4FF126DDB7F03126DDB7F0C1293
:101F3E006DDB7F60126DDB7F0E126DDB7F18126D15
:101F4E00DBE4FF126DDB7F01126DDBE4FF126DDB54
:101F5E007F04126DDB7F0C126DDBE4FF126DDB7FF5
:101F6E0001126DDB7F07126DDB7F14126DDB7F01BB
:101F7E00126DDBE4FF126DDB7F01126DDB7F0C1245
:101F8E006DDB7F2C126DDBE4FF126DDBE4FF126D57
:101F9E00DBE4FF126DDB7F01126DDBE4FF126DDB04
:101FAE007F02126DDB7F0C126DDBE4FF126DDBE442
:101FBE00FF126DDBE4FF126DDBE4FF126DDB7F01C0
:101FCE00126DDBE4FF126DDB7F03126DDB7F0C12F3
:101FDE006DDB7F60126DDB7F0E126DDB7F18126D75
:101FEE00DBE4FF126DDB7F01126DDBE4FF126DDBB4
:101FFE007F04126DDB7F0C126DDBE4FF126DDB7F55
:10200E0001126DDB7F07126DDB7F14126DDB7F011A
:10201E00126DDBE4FF126DDB7F01126DDB7F0C12A4
:10202E006DDB7F2D126DDBE4FF126DDBE4FF126DB5
:10203E00DBE4FF126DDB7F01126DDBE4FF126DDB63
:10204E007F02126DDB7F0C126DDBE4FF126DDBE4A1
:10205E00FF126DDBE4FF126DDBE4FF126DDB7F011F
:10206E00126DDBE4FF126DDB7F03126DDB7F0C1252
:10207E006DDB7F60126DDB7F0E126DDB7F18126DD4
:10208E00DBE4FF126DDB7F01126DDBE4FF126DDB13
:10209E007F04126DDB7F0C126DDBE4FF126DDB7FB4
:1020AE0001126DDB7F07126DDB7F14126DDB7F017A
:1020BE00126DDBE4FF126DDB7F01126DDB7F0C1204
:1020CE006DDB7F2E126DDBE4FF126DDBE4FF126D14
:1020DE00DBE4FF126DDB7F01126DDBE4FF126DDBC3
:1020EE007F02126DDB7F0C126DDBE4FF126DDBE401
:1020FE00FF126DDBE4FF126DDBE4FF126DDB7F017F
:10210E00126DDBE4FF126DDB7F03126DDB7F0C12B1
:10211E006DDB7F60126DDB7F0E126DDB7F18126D33
:10212E00DBE4FF126DDB7F01126DDBE4FF126DDB72
:10213E007F04126DDB7F0C126DDBE4FF126DDB7F13
:10214E0001126DDB7F07126DDB7F14126DDB7F01D9
:10215E00126DDBE4FF126DDB7F01126DDB7F0C1263
:10216E006DDB7F2F126DDBE4FF126DDBE4FF126D72
:10217E00DBE4FF126DDB7F01126DDBE4FF126DDB22
:10218E007F02126DDB7F0C126DDBE4FF126DDBE460
:10219E00FF126DDBE4FF126DDBE4FF126DDB7F01DE
:1021AE00126DDBE4FF126DDB7F03126DDB7F0C1211
:1021BE006DDB7F60126DDB7F0E126DDB7F18126D93
:1021CE00DBE4FF126DDB7F01126DDBE4FF126DDBD2
:1021DE007F04126DDB7F0C126DDBE4FF126DDB7F73
:1021EE0001126DDB7F07126DDB7F14126DDB7F0139
:1021FE00126DDBE4FF126DDB7F01126DDB7F0C12C3
:10220E006DDB7F30126DDBE4FF126DDBE4FF126DD0
:10221E00DBE4FF126DDB7F01126DDBE4FF126DDB81
:10222E007F02126DDB7F0C126DDBE4FF126DDBE4BF
:10223E00FF126DDBE4FF126DDBE4FF126DDB7F013D
:10224E00126DDBE4FF126DDB7F03126DDB7F0C1270
:10225E006DDB7F60126DDB7F0E126DDB7F18126DF2
:10226E00DBE4FF126DDB7F01126DDBE4FF126DDB31
:10227E007F04126DDB7F0C126DDBE4FF126DDB7FD2
:10228E0001126DDB7F07126DDB7F14126DDB7F0198
:10229E00126DDBE4FF126DDB7F01126DDB7F0C1222
:1022AE006DDB7F31126DDBE4FF126DDBE4FF126D2F
:1022BE00DBE4FF126DDB7F01126DDBE4FF126DDBE1
:1022CE007F02126DDB7F0C126DDBE4FF126DDBE41F
:1022DE00FF126DDBE4FF126DDBE4FF126DDB7F019D
:1022EE00126DDBE4FF126DDB7F03126DDB7F0C12D0
:1022FE006DDB7F60126DDB7F0E126DDB7F18126D52
:10230E00DBE4FF126DDB7F01126DDBE4FF126DDB90
:10231E007F04126DDB7F0C126DDBE4FF126DDB7F31
:0F232E0001126DDB7F07126DDB7F14126DDB2256
:05233D0090039EEFF08B
:102342009003A07424F078A17C037D017BFF7A5076
:1023520079057E00FF123DAB9003C57408F078C684
:102362007C037D017BFF7A5079297E00FF123DAB11
:102372009003CE7408F078CF7C037D017BFF7A5006
:1023820079317E00FF123DAB9003D77408F078D804
:102392007C037D017BFF7A5079397E00FF123DABD1
:1023A2009003E07408F078E17C037D017BFF7A50B2
:1023B20079417E00FF123DAB9003E97408F078EAA0
:1023C2007C037D017BFF7A5079497E00FF123DAB91
:1023D2009003F27408F078F37C037D017BFF7A505E
:1023E20079517E00FF123DAB9003FB7408F078FC3C
:1023F2007C037D017BFF7A5079597E00FF123DAB51
:102402009004047408F078057C047D017BFF7A5007
:1024120079617E00FF123DAB90040D7408F0780ED6
:102422007C047D017BFF7A5079697E00FF123DAB0F
:102432009004167408F078177C047D017BFF7A50B3
:1024420079717E00FF123DAB90041F7408F0782072
:102452007C047D017BFF7A5079797E00FF123DABCF
:102462009004287408F078297C047D017BFF7A505F
:1024720079817E00FF123DAB9004317408F078320E
:102482007C047D017BFF7A5079897E00FF123DAB8F
:1024920090043A7408F0783B7C047D017BFF7A500B
:1024A20079917E00FF123DAB9004437408F07844AA
:1024B2007C047D017BFF7A5079997E00FF123DAB4F
:1024C20090044C7408F0784D7C047D017BFF7A50B7
:1024D20079A17E00FF123DAB9004557408F0785646
:1024E2007C047D017BFF7A5079A97E00FF123DAB0F
:1024F20090045E7408F0785F7C047D017BFF7A5063
:1025020079B17E00FF123DAB9004677408F07868E1
:102512007C047D017BFF7A5079B97E00FF123DABCE
:102522009004707408F078717C047D017BFF7A500E
:1025320079C17E00FF123DAB9004797408F0787A7D
:102542007C047D017BFF7A5079C97E00FF123DAB8E
:102552009004827408F078837C047D017BFF7A50BA
:1025620079D17E00FF123DABE490048BF0788C7C35
:10257200047D017BFF7A5079D9FE7F01123DAB9039
:10258200048D7408F0788E7C047D017BFF7A50798B
:10259200DA7E00FF123DAB9004967408F078977CC7
:1025A200047D017BFF7A5079E27E00FF123DAB9001
:1025B200049F7408F078A07C047D017BFF7A507937
:1025C200EA7E00FF123DAB9004A87408F078A97C63
:1025D200047D017BFF7A5079F27E00FF123DAB90C1
:1025E20004B17408F078B27C047D017BFF7A5079E3
:1025F200FA7E00FF123DAB9004BA7408F078BB7CFF
:10260200047D017BFF7A5179027E00FF123DAB907F
:1026120004C37420F078C47C047D017BFF7A517975
:102622000A7E00FF123DAB9004E47408F078E57C6A
:10263200047D017BFF7A51792A7E00FF123DAB9027
:1026420004ED7408F078EE7C047D017BFF7A517909
:10265200327E00FF123DAB90039EE014B421004095
:102662000302304B90267475F003A4C58325F0C590
:1026720083730226D70227250227730227C1022865
:102682000F02285D0228AB0228F902294702299588
:102692000229E3022A31022A7F022ACD022B1B02DF
:1026A2002B69022BB7022C05022C53022CA1022CFF
:1026B200A4022CF2022D40022D8E022DDC022E2AC3
:1026C200022E78022EC6022F14022F62022CA102C1
:1026D2002FB0022FFDE490039FF09003A0E0FF9043
:1026E200039FE0FEC3EF6480F8EE6480984003022B
:1026F200304EE0FFFD3395E0FC74A12DF5827403AA
:102702003CF583E0FEEF3395E0FC74A82DF582746E
:10271200013CF583E06E600302303D90039FE004CC
:10272200F080B7E490039FF09003C5E0FF90039F11
:10273200E0FEC3EF6480F8EE648098400302304EFE
:10274200E0FFFD3395E0FC74C62DF58274033CF581
:1027520083E0FEEF3395E0FC74A82DF58274013C12
:10276200F583E06E600302303D90039FE004F08049
:10277200B7E490039FF09003CEE0FF90039FE0FE4A
:10278200C3EF6480F8EE648098400302304EE0FFAD
:10279200FD3395E0FC74CF2DF58274033CF583E0A4
:1027A200FEEF3395E0FC74A82DF58274013CF583AD
:1027B200E06E600302303D90039FE004F080B7E4D6
:1027C20090039FF09003D7E0FF90039FE0FEC3EFDA
:1027D2006480F8EE648098400302304EE0FFFD33DF
:1027E20095E0FC74D82DF58274033CF583E0FEEF8E
:1027F2003395E0FC74A82DF58274013CF583E06EFC
:10280200600302303D90039FE004F080B7E4900340
:102812009FF09003E0E0FF90039FE0FEC3EF64802F
:10282200F8EE648098400302304EE0FFFD3395E0FD
:10283200FC74E12DF58274033CF583E0FEEF3395E1
:10284200E0FC74A82DF58274013CF583E06E600310
:1028520002303D90039FE004F080B7E490039FF0C4
:102862009003E9E0FF90039FE0FEC3EF6480F8EE7F
:10287200648098400302304EE0FFFD3395E0FC7423
:10288200EA2DF58274033CF583E0FEEF3395E0FC1C
:1028920074A82DF58274013CF583E06E600302306A
:1028A2003D90039FE004F080B7E490039FF0900313
:1028B200F2E0FF90039FE0FEC3EF6480F8EE6480D5
:1028C20098400302304EE0FFFD3395E0FC74F32D97
:1028D200F58274033CF583E0FEEF3395E0FC74A8C7
:1028E2002DF58274013CF583E06E600302303D9069
:1028F200039FE004F080B7E490039FF09003FBE0B5
:10290200FF90039FE0FEC3EF6480F8EE648098407E
:102912000302304EE0FFFD3395E0FC74FC2DF5829E
:1029220074033CF583E0FEEF3395E0FC74A82DF5CB
:102932008274013CF583E06E600302303D90039F98
:10294200E004F080B7E490039FF0900404E0FF906D
:10295200039FE0FEC3EF6480F8EE648098400302B8
:10296200304EE0FFFD3395E0FC74052DF5827404D2
:102972003CF583E0FEEF3395E0FC74A82DF58274FC
:10298200013CF583E06E600302303D90039FE0045A
:10299200F080B7E490039FF090040DE0FF90039F56
:1029A200E0FEC3EF6480F8EE648098400302304E8C
:1029B200E0FFFD3395E0FC740E2DF58274043CF5C6
:1029C20083E0FEEF3395E0FC74A82DF58274013CA0
:1029D200F583E06E600302303D90039FE004F080D7
:1029E200B7E490039FF0900416E0FF90039FE0FE8F
:1029F200C3EF6480F8EE648098400302304EE0FF3B
:102A0200FD3395E0FC74172DF58274043CF583E0E8
:102A1200FEEF3395E0FC74A82DF58274013CF5833A
:102A2200E06E600302303D90039FE004F080B7E463
:102A320090039FF090041FE0FF90039FE0FEC3EF1E
:102A42006480F8EE648098400302304EE0FFFD336C
:102A520095E0FC74202DF58274043CF583E0FEEFD2
:102A62003395E0FC74A82DF58274013CF583E06E89
:102A7200600302303D90039FE004F080B7E49003CE
:102A82009FF0900428E0FF90039FE0FEC3EF648074
:102A9200F8EE648098400302304EE0FFFD3395E08B
:102AA200FC74292DF58274043CF583E0FEEF339526
:102AB200E0FC74A82DF58274013CF583E06E60039E
:102AC20002303D90039FE004F080B7E490039FF052
:102AD200900431E0FF90039FE0FEC3EF6480F8EEC4
:102AE200648098400302304EE0FFFD3395E0FC74B1
:102AF200322DF58274043CF583E0FEEF3395E0FC61
:102B020074A82DF58274013CF583E06E60030230F7
:102B12003D90039FE004F080B7E490039FF090049F
:102B22003AE0FF90039FE0FEC3EF6480F8EE64801A
:102B320098400302304EE0FFFD3395E0FC743B2DDC
:102B4200F58274043CF583E0FEEF3395E0FC74A853
:102B52002DF58274013CF583E06E600302303D90F6
:102B6200039FE004F080B7E490039FF0900443E0F9
:102B7200FF90039FE0FEC3EF6480F8EE648098400C
:102B82000302304EE0FFFD3395E0FC74442DF582E4
:102B920074043CF583E0FEEF3395E0FC74A82DF558
:102BA2008274013CF583E06E600302303D90039F26
:102BB200E004F080B7E490039FF090044CE0FF90B3
:102BC200039FE0FEC3EF6480F8EE64809840030246
:102BD200304EE0FFFD3395E0FC744D2DF582740418
:102BE2003CF583E0FEEF3395E0FC74A82DF582748A
:102BF200013CF583E06E600302303D90039FE004E8
:102C0200F080B7E490039FF0900455E0FF90039F9B
:102C1200E0FEC3EF6480F8EE648098400302304E19
:102C2200E0FFFD3395E0FC74562DF58274043CF50B
:102C320083E0FEEF3395E0FC74A82DF58274013C2D
:102C4200F583E06E600302303D90039FE004F08064
:102C5200B7E490039FF090045EE0FF90039FE0FED4
:102C6200C3EF6480F8EE648098400302304EE0FFC8
:102C7200FD3395E0FC745F2DF58274043CF583E02E
:102C8200FEEF3395E0FC74A82DF58274013CF583C8
:102C9200E06E600302303D90039FE004F080B77F56
:102CA2000022E490039FF0900470E0FF90039FE005
:102CB200FEC3EF6480F8EE648098400302304EE079
:102CC200FFFD3395E0FC74712DF58274043CF583AD
:102CD200E0FEEF3395E0FC74A82DF58274013CF51B
:102CE20083E06E600302303D90039FE004F080B702
:102CF200E490039FF0900479E0FF90039FE0FEC30D
:102D0200EF6480F8EE648098400302304EE0FFFDED
:102D12003395E0FC747A2DF58274043CF583E0FE71
:102D2200EF3395E0FC74A82DF58274013CF583E045
:102D32006E600302303D90039FE004F080B7E490A0
:102D4200039FF0900482E0FF90039FE0FEC3EF64D4
:102D520080F8EE648098400302304EE0FFFD339528
:102D6200E0FC74832DF58274043CF583E0FEEF33BE
:102D720095E0FC74A82DF58274013CF583E06E6049
:102D82000302303D90039FE004F080B7E490039F7C
:102D9200F090048BE0FF90039FE0FEC3EF6480F8A5
:102DA200EE648098400302304EE0FFFD3395E0FC74
:102DB200748C2DF58274043CF583E0FEEF3395E0CC
:102DC200FC74A82DF58274013CF583E06E60030269
:102DD200303D90039FE004F080B7E490039FF090B1
:102DE200048DE0FF90039FE0FEC3EF6480F8EE6481
:102DF2008098400302304EE0FFFD3395E0FC748E74
:102E02002DF58274043CF583E0FEEF3395E0FC740B
:102E1200A82DF58274013CF583E06E600302303D1B
:102E220090039FE004F080B7E490039FF090049633
:102E3200E0FF90039FE0FEC3EF6480F8EE648098A9
:102E4200400302304EE0FFFD3395E0FC74972DF510
:102E52008274043CF583E0FEEF3395E0FC74A82D08
:102E6200F58274013CF583E06E600302303D90030D
:102E72009FE004F080B7E490039FF090049FE0FF8E
:102E820090039FE0FEC3EF6480F8EE6480984003F5
:102E920002304EE0FFFD3395E0FC74A02DF5827404
:102EA200043CF583E0FEEF3395E0FC74A82DF58237
:102EB20074013CF583E06E600302303D90039FE0B5
:102EC20004F080B7E490039FF09004A8E0FF900321
:102ED2009FE0FEC3EF6480F8EE6480984003023006
:102EE2004EE0FFFD3395E0FC74A92DF58274043C9D
:102EF200F583E0FEEF3395E0FC74A82DF5827401B2
:102F02003CF583E06E600302303D90039FE004F0E5
:102F120080B7E490039FF09004B1E0FF90039FE03C
:102F2200FEC3EF6480F8EE648098400302304EE006
:102F3200FFFD3395E0FC74B22DF58274043CF583F9
:102F4200E0FEEF3395E0FC74A82DF58274013CF5A8
:102F520083E06E600302303D90039FE004F080B78F
:102F6200E490039FF09004BAE0FF90039FE0FEC359
:102F7200EF6480F8EE648098400302304EE0FFFD7B
:102F82003395E0FC74BB2DF58274043CF583E0FEBE
:102F9200EF3395E0FC74A82DF58274013CF583E0D3
:102FA2006E600302303D90039FE004F080B7E4902E
:102FB200039FF09004E4E0FF90039FE0FEC3EF6400
:102FC20080F8EE648098400302304EE0FFFD3395B6
:102FD200E0FC74E52DF58274043CF583E0FEEF33EA
:102FE20095E0FC74A82DF58274013CF583E06E60D7
:102FF20002804890039FE004F080B8E490039FF0C1
:103002009004EDE0FF90039FE0FEC3EF6480F8EED2
:103012006480985037E0FFFD3395E0FC74EE2DF5A7
:103022008274043CF583E0FEEF3395E0FC74A82D36
:10303200F58274013CF583E06E600690039EE0FF2A
:0E3042002290039FE004F080B77F00227F0001
:01305000225D
:106CFA00E4F5957596FFC2A1C2A253E1EF43E210F3
:016D0A002266
:096D1C007F0F126D25D2FC7F0FE0
:076D2500AE071FEE70FA2219
:0268D800AB070C
:1068DA007A80C2A3EDB40104C2A48002D2A4EAD38E
:1068EA0094004011C2FCEA5B24FF92A7126D1CEAD5
:0E68FA00C313FA80E9C2FCD2A7126D1CD2A310
:01690800226C
:106C3F003EF583E5822DF582E43583F583E493FFFA
:056C4F00E4FD0268D81D
:076DC4007FAE126DCB7F8D45
:056DCB007D010268D803
:105FEF00E4FFFE900563F0A3F00FBF00010EBE7536
:105FFF00F8BF30F57FAE126DCB7FD5126DCB7F80A2
:10600F00126DCB7FA8126DCB7F27126DCB7FD31272
:10601F006DCBE4FF126DCB7F40126DC67F14126DF6
:10602F00CB7FA1126DCB7FC8126DCB7FDA126DCBF8
:10603F007F12126DCB7F81126DCB7FAF126DCB7F35
:10604F00D9126DCB7F25126DCB7FDB126DCB7F20ED
:10605F00126DCB7FA4126DCB7FA6126DCB7FAF12CB
:05606F006DCB02696A1F
:106D2C00126DC47F10126DCB126DB5C2E9026DA647
:0B6DD000126DC47F10126DCBC2E922CF
:106D0B00D2E97F8D126DCB7F14126DCB7FAF026DED
:016D1B00CBAC
:066A93009005FEE004FF87
:106A9900EFD3940440087FB4126DCB7F0122EF54E9
:0A6AA9000F44B0FF126DCB7F0022F6
:0B699A0090061DE0FF126A99A3E0FFC9
:1069A500AC07ECD3946040037F012274202CFC5487
:1069B5000FFF126DCBAF04EFC4540F4410FF126DDF
:0469C500CB7F002262
:10696A00E4900565F0900565E0FFC394055020E4C6
:10697A00F9126A99E4FF1269A5E9C394605008E420
:0F698A00FF126C4F0980F2900565E004F080D693
:0169990022DB
:0B60F1009005B5EBF0A3EAF0A3E9F086
:1060FC00E4A3F0A3F0A3F0A3F0E94A70037F01221C
:10610C009005B8E0FFC394055045E4A3F0126A99DA
:10611C00E4FF1269A59005B9E0C39460502990057D
:10612C00B5E0FBA3E0FAA3E0F99005BAE475F00141
:10613C00123E9485F082F583123DEAFF126C4F906B
:10614C0005B9E004F080CE9005B8E004F080B17F92
:01615C000042
:01615D00221F
:1059B200900564EDF0A3EBF0A3EAF0A3E9F0900503
:0359C20063EFF0A0
:1059C500E4900569F0EFD39404503D900564E0FE42
:1059D50094605034A3E0FBA3E0FAA3E04A4B6028AF
:1059E500900563E0FDC39400401EEE9400401990BD
:1059F5000568E0FF900564E02FFFE433FED3EF94E4
:105A050060EE6480948040037F0122AF05126A999D
:105A1500900564E0FF1269A5900568E0FFA3E0FE2C
:105A2500C39F5037EEFF900564E02FFFE433FEC3BC
:105A3500EF9460EE648094805021A3E0FBA3E0FA2C
:105A4500A3E0F9900569E0F582758300123DEAFF50
:0D5A5500126C4F900569E004F080BD7F00E9
:015A62002221
:0B4401009005D9EBF0A3EAF0A3E9F06E
:10440C00E4A3F0A3F09005D9E0FBA3E0FAA3E0F954
:10441C00123DD1700302470B9005DCE0F9C3940CFC
:10442C0050087F01126A99E08014E9C39418400384
:10443C0002470B7F03126A999005DCE024F475F0B7
:10444C0008A4FF1269A59005D9E0FBA3E0FAA3E04C
:10445C00F9123DD1FFC3648094B0404DD3EF64801A
:10446C0094B95045E49005DDF09005DDE0FDC39472
:10447C0008400302458E9005D9E0FBA3E0FAA3E0C7
:10448C00F9123DD1FF3395E0FEEFC4F8540FC86824
:10449C00FFEEC454F048FE74312FF582742F126C69
:1044AC003F9005DDE004F080C09005D9E0FBA3E06F
:1044BC00FAA3E0F9123DD1FFC3648094E1404DD3DF
:1044CC00EF648094FA5045E49005DDF09005DDE052
:1044DC00FDC39408400302458E9005D9E0FBA3E090
:1044EC00FAA3E0F9123DD1FF3395E0FEEFC4F85486
:1044FC000FC868FFEEC454F048FE74212FF5827487
:10450C002D126C3F9005DDE004F080C09005D9E0E1
:10451C00FBA3E0FAA3E0F9123DD1FFC3648094C180
:10452C00404AD3EF648094DA5042E49005DDF09079
:10453C0005DDE0FDC3940850499005D9E0FBA3E0EC
:10454C00FAA3E0F9123DD1FF3395E0FEEFC4F85425
:10455C000FC868FFEEC454F048FE74C12FF5827486
:10456C0030126C3F9005DDE004F080C3E49005DD73
:10457C00F0E4FF126C4F9005DDE004F0E0C394080A
:10458C0040EF9005DCE0F9C3940C50087F02126AEE
:10459C0099E08014E9C39418400302470B7F04127E
:1045AC006A999005DCE024F475F008A4FF1269A563
:1045BC009005D9E0FBA3E0FAA3E0F9123DD1FFC3CB
:1045CC00648094B0404DD3EF648094B95045E4902E
:1045DC0005DDF09005DDE0FDC3940840030246F8CC
:1045EC009005D9E0FBA3E0FAA3E0F9123DD1FF332B
:1045FC0095E0FEEFC4F8540FC868FFEEC454F048C1
:10460C00FE74392FF582742F126C3F9005DDE00497
:10461C00F080C09005D9E0FBA3E0FAA3E0F9123DCD
:10462C00D1FFC3648094E1404DD3EF648094FA5081
:10463C0045E49005DDF09005DDE0FDC394084003F2
:10464C000246F89005D9E0FBA3E0FAA3E0F9123D8D
:10465C00D1FF3395E0FEEFC4F8540FC868FFEEC4E9
:10466C0054F048FE74292FF582742D126C3F90057E
:10467C00DDE004F080C09005D9E0FBA3E0FAA3E0F4
:10468C00F9123DD1FFC3648094C1404AD3EF6480DA
:10469C0094DA5042E49005DDF09005DDE0FDC39422
:1046AC000850499005D9E0FBA3E0FAA3E0F9123DCC
:1046BC00D1FF3395E0FEEFC4F8540FC868FFEEC489
:1046CC0054F048FE74C92FF5827430126C3F90057B
:1046DC00DDE004F080C3E49005DDF0E4FF126C4FE4
:1046EC009005DDE004F0E0C3940840EF9005DCE0B9
:0F46FC0004F09005DAE475F001123E7E024411DD
:01470B00228B
:08547F00A9059005FEEFF0FD08
:10548700E4FCEBC4540FA3F0EB540FA3F0EDD3945B
:10549700045005E9946040037F01229005FEE0FF78
:1054A700126A99AF011269A5E4FC9005FFE0C454A4
:1054B700F02431F582E43432F583E5822C126C4511
:1054C7000CECB408E5126A93AF011269A5E4FC90ED
:1054D70005FFE0C454F02439F582E43432F583E55E
:1054E700822C126C450CECB408E59005FEE0FF1227
:1054F7006A99E92408FF1269A5E4FCEC64079006A1
:1055070000601BE0C454F02431F582E43432F583A3
:10551700E5822CF582E43583F583E493801BE0C4B0
:1055270054F02431F582E43432F583E5822CF58298
:10553700E43583F583E4934401FF126C4F0CECB41C
:1055470008B9126A93E92408FF1269A5E4FC9006DA
:1055570000E0C454F02439F582E43432F583E5825F
:0B5567002C126C450CECB408E57F0032
:015572002216
:0E5ED9009005DEEBF0A3EAF0A3E9F0A3EDF0F4
:105EE700E4A3F09005DEE0FBA3E0FAA3E04A4B70E1
:105EF700037F01229005E1E0FFA3E0FEC39F505B13
:105F0700EEC39406501EE0FFC454F0FD9005DEE09A
:105F1700FBA3E0FAA3E0F98F82758300123DEAFB49
:105F27007F0180279005E2E0FFC3940C5022EF2405
:105F3700FAC454F0FD9005DEE0FBA3E0FAA3E0F914
:105F47008F82758300123DEAFB7F0312547F800323
:0D5F57007F01229005E2E004F080997F00B8
:015F6400221A
:04526600AA07AC05E2
:10526A00E4F9EBC4540F90061BF0EB540FA3F0EAD9
:10527A00D394045005EC946040037F0122AF0212DC
:10528A006A99AF041269A590061BE0FFC394004017
:10529A002CEFD394095026E4F990061BE075F0052B
:1052AA00A429F582E435F0F583E58224A1F582E5A7
:1052BA00833430126C4A09E9B405DE803990061B42
:1052CA00E0FFC3940A402CEFD3940F5026E4F990E0
:1052DA00061BE075F005A429F582E435F0F583E5AF
:1052EA008224C4F582E5833430126C4A09E9B40594
:1052FA00DE80037F0022E4FF126C4F90061CE0FF61
:10530A00C39400402CEFD394095026E4F990061C6C
:10531A00E075F005A429F582E435F0F583E58224E9
:10532A00A1F582E5833430126C4A09E9B405DE80BE
:10533A003990061CE0FFC3940A402CEFD3940F5017
:10534A0026E4F990061CE075F005A429F582E435F7
:10535A00F0F583E58224C4F582E5833430126C4A81
:10536A0009E9B405DE80037F00227F03126C4F7FB8
:01537A000032
:01537B00220F
:0E5817009005C2EBF0A3EAF0A3E9F0A3EDF0D8
:10582500E4A3F0A3F09005C2E0FBA3E0FAA3E04AED
:105835004B70037F01229005C5E0FFA3E0FEC39FE7
:1058450040030258F1EEC394085019EE75F00CA40C
:10585500FD9005C2E0FBA3E0FAA3E0F9123DD1FB00
:105865007F01806D9005C6E0FFC39410501BEF24A7
:10587500F875F00CA4FD9005C2E0FBA3E0FAA3E0E7
:10588500F9123DD1FB7F0280489005C6E0FFC39425
:1058950018501BEF24F075F00CA4FD9005C2E0FB39
:1058A500A3E0FAA3E0F9123DD1FB7F038023900525
:1058B500C6E0FFC39420501EEF24E875F00CA4FD4C
:1058C5009005C2E0FBA3E0FAA3E0F9123DD1FB7F0E
:1058D5000412526680037F01229005C3E475F0012E
:0E58E500123E7E9005C6E004F002583B7F00A4
:0158F3002292
:0C60740090061EEDF090061DEFF0A90351
:10608000E4FCEFD394045006A3E0946040037F0146
:1060900022E9C39420502E797F12699AE4FC75F0AE
:1060A00005E9A42CF582E435F0F583E58224B1F509
:1060B00082E583342F126C4A0CECB405E1E4FF1244
:1060C0006C4F7F012212699AE4FC75F005E9A42C5B
:1060D000F582E435F0F583E58224B1F582E5833479
:1060E0002F126C4A0CECB405E1E4FF126C4F7F00F8
:0160F000228D
:0C5DBC00900565EDF0900564EFF0A90380
:105DC800E4FCEFD394045006A3E0946040037F0101
:105DD80022E9C394205038797F90056412699DE4C4
:105DE800FC75F005E9A42CF582E435F0F583E5822D
:105DF80024B1F582E583342FF583E49325E0FF127F
:105E08006C4F0CECB405DAE4FF126C4F7F01229062
:105E1800056412699DE4FC75F005E9A42CF582E49B
:105E280035F0F583E58224B1F582E583342FF583D7
:105E3800E49325E0FF126C4F0CECB405DAE4FF1292
:045E48006C4F7F001C
:015E4C002233
:0B58F4009005C8EBF0A3EAF0A3E9F078
:1058FF00E4A3F0A3F0A3F09005C8E0FBA3E0FAA3A4
:10590F00E0F9123DD1FB70030259B19005CBE0FFD6
:10591F00C39410500AEF75F006A4FD7F01806D90BF
:10592F0005CBE0FFC39420501BEF24F075F006A4C5
:10593F00FD9005C8E0FBA3E0FAA3E0F9123DD1FB0F
:10594F007F0280489005CBE0FFC39430501BEF24BB
:10595F00E075F006A4FD9005C8E0FBA3E0FAA3E014
:10596F00F9123DD1FB7F0380239005CBE0FFC39459
:10597F0040502FEF24D075F006A4FD9005C8E0FB32
:10598F00A3E0FAA3E0F9123DD1FB7F0412607490FB
:10599F0005C9E475F001123E7E9005CBE004F002DC
:0259AF00590697
:0159B10022D3
:0269F800AC05EC
:1069FA00A904EFD394045005EC946040037F01226C
:106A0A00126A99AF041269A5E9C394605008E4FFB9
:086A1A00126C4F0980F27F00AD
:016A22002251
:106AB3007401A807088002C333D8FCF59DE4F5BD33
:0F6AC300EF4488F5BC7F02126BFBD2ADD2AF223D
:03002B00025B1461
:0D5B1400C0E0C0F0C083C082C0D075D008D2
:105B210090056AE4F0A3F0FFFEA3F0A3F0C2ADF587
:105B3100BC126D6A7F03126BE490056AE4F0A3EF77
:105B4100F0126D6A7F03126BE47E0090056AE0FC3F
:105B5100A3E0FDD39FEC9E401DED9FFBEC9EFAC39D
:105B6100EB9423EA9400504EED2FFFEE3CC313FE5D
:105B7100EF13FFA38030C3ED9FEC9E502C90056A7C
:105B8100E0FCA3E0FDC3EF9DFDEE9CFCC3ED94237F
:105B9100EC94005021E02FFF90056AE03EC313FE14
:105BA100EF13FF90056CEE800990056AE0FFA3E01A
:085BB100A3CFF0A3EFF0D2AD89
:0B5BB900D0D0D082D083D0F0D0E032FA
:106BE400E4F5BDEF4488F5BC00000000E5BC30E4EA
:076BF400FB75BC00AFBD22E0
:106A7100AC07E4123C269005E4E0F8A3E0F9A3E0BA
:106A8100FAA3E0FB1239FDE4FBFA79807843123B6B
:026A91000622DB
:106A2300E4FDFCF5BDF5BEEF4488F5BC00000000B5
:106A3300E5BC30E4FB75BC00AFBDEF75F004A4FD0D
:096A4300ACF0AFBEED4FAE04FF54
:016A4C002227
:10005E00AD07AC06E4123C219005D0E0F8A3E0F920
:10006E00A3E0FAA3E0FB1239FDE4FBFA79807844B1
:04007E00123B062209
:106BFB00AE071FEE60107C137D88ED1DAA0470019B
:066C0B001C4A60EC80F45D
:016C11002260
:1069420042039C00004101A5004101A6004101A7AC
:016952000044
:1069C90053B13F43B2C0E5A2543FF5A253877F7547
:1069D9009850438E40538EFE53890F438920758BFF
:0F69E900FA758DFAC2ABD28ED2BCD2ACD2AF222D
:096DDB002000FDEFD200F5992221
:10680C00900601EBF0A3EAF0A3E9F0900601E0FB9F
:10681C00A3E0FAA3E0F9123DD16017900601A3E4BE
:10682C0075F001123E94A9F0FA123DD1FF126DDB06
:03683C0080D922DE
:03002300026681F1
:10668100C0E0C0F0C083C082C0D075D00830981B74
:10669100C29890039CE475F001123E94FE74A82503
:1066A100F0F58274013EF583E599F0309904C299C1
:0D66B100C200D0D0D082D083D0F0D0E03233
:030043000266BE94
:1066BE00C0E0C083C082C0D075D008E59A30E01724
:1066CE00539AFE9001A5E0FF04F074002FF582E4CA
:1066DE003400F583E59BF0E59A30E105539AFDC24F
:0A66EE0001D0D0D082D083D0E0327A
:096DE4002001FDEFD201F59B2214
:10683F00900604EBF0A3EAF0A3E9F0900604E0FB66
:10684F00A3E0FAA3E0F9123DD16017900604A3E488
:10685F0075F001123E94A9F0FA123DD1FF126DE4CA
:03686F0080D922AB
:106AF1005391FC43920353BAFE759A50438E047529
:0E6B0100D7C075D6FD438E1075AF01D2AF22FE
:106C29007E027FF49001A8E4F0A3DFFCDEFAE49091
:056C3900039CF0A3F034
:016C3E002233
:0F6D3C007F64900000E4F0A3DFFCE49001A5F079
:016D4B002225
:106B630043BA0275AC1043AC4043D10275D5D0751E
:0B6B7300D4FF43D10843AF08D2AF228B
:03008B00026B996C
:106B9900C0E0E5AC30E00653ACFE85AD80E5AC3035
:0A6BA900E10553ACFDC202D0E0325A
:096DED002002FDEFD202F5AD22F7
:10687200900607EBF0A3EAF0A3E9F0900607E0FB2D
:10688200A3E0FAA3E0F9123DD16017900607A3E452
:1068920075F001123E94A9F0FA123DD1FF126DED8E
:0368A20080D92278
:106B7E0043BA0475841043844043D12075D3D07535
:0B6B8E00D2FF43D18043AF10D2AF22F2
:030093000266F80A
:1066F800C0E0C083C082C0D075D008E58430E01700
:106708005384FE9001A7E0FF04F074DD2FF582E4C6
:106718003400F583E585F0E58430E1055384FDC256
:0A67280003D0D0D082D083D0E0323D
:096DF6002003FDEFD203F5852214
:1068A50090060AEBF0A3EAF0A3E9F090060AE0FBF4
:1068B500A3E0FAA3E0F9123DD1601790060AA3E41C
:1068C50075F001123E94A9F0FA123DD1FF126DF652
:0368D50080D92245
:0D003600E4F5C7F5C5F5C675C380F5C42215
:106BCC0075C78175C5018FC4EEF5C375C65A75C6F8
:076BDC00A500AFC212003654
:016BE300228F
:106BB30075C78175C5028FC4EEF5C3AF058FC27566
:096BC300C65A75C6A50002003691
:106C540075C78175C5038FC4EEF5C375C65A75C66D
:056C6400A5000200364E
:10557300900597EEF0A3EFF090059BEBF0A3EAF014
:0B558300A3E9F0900599ECF0A3EDF017
:10558E00E490059EF0A3F0FFA3F0A3F0D3ED9420DA
:10559E00EC9400400122900597E0FCA3E0FDEC5452
:1055AE0001FEAF0590059AE02FFF900599E03EFEB3
:1055BE00D3EF9420EE940040037F0022AF05AE049B
:1055CE00126C54E490059EF0A3F0900599E0FEA3B2
:1055DE00E0FF90059EE0FCA3E0FDC39FEC9E5067AC
:1055EE00900597E0FEA3E0FF90059BE0FBA3E0FA99
:1055FE00A3E0F98D828C83123DEAFD126BB3900508
:10560E0097E0FEA3E0FF126BCC90059BE0FBA3E0BE
:10561E00FAA3E0F9A3E0FCA3E0F5828C83123DEA45
:10562E006F60061200367F0022900598E004F0703D
:10563E0006900597E004F090059FE004F0708B90C3
:0C564E00059EE004F080831200367F010E
:01565A00222D
:104E6700900588EEF0A3EFF090058CEBF0A3EAF045
:0B4E7700A3E9F090058AECF0A3EDF039
:104E8200E490058FF0A3F0A3F0A3F0A3F0A3F0A3A6
:104E9200F0A3F0D3ED9420EC940040037F00229025
:104EA2000588E0FCA3E0FDEC5401FEAF05900591FE
:104EB200F0A3EFF090058BE02FFF90058AE03EFE15
:104EC200D3EF9420EE940040037F0022EC54FEFEC8
:104ED2007F00900593F0A3EFF0A3EEF0A3EFF09024
:104EE200058FF0A3F0900595E475F001123E94AFA2
:104EF200F0FE126BCC90058FA3E02422F8A607E007
:104F020004F0700690058FE004F0C3900590E094E1
:104F12002090058FE0940040CCE490058FF0A3F040
:104F220090058AE0FEA3E0FF90058FE0FCA3E0FD80
:104F3200C39FEC9E503490058CE0FBA3E0FAA3E003
:104F4200F98D828C83123DEAFF900591E475F001A0
:104F5200123E94742225F0F8A607900590E004F022
:104F6200700690058FE004F080B6900593E0FEA3F2
:104F7200E0FF126C54900593E0FFA3E0A3CFF0A3EF
:104F8200EFF0E490058FF0A3F090058FE0FCA3E032
:104F9200FDC39420EC9400504C900595E0FEA3E0F4
:104FA200FF74222DF8E6FD126BB3900588E0FEA394
:104FB200E0FF126BCC90058FA3E02422F8E66F602D
:104FC200061200367F0022900596E004F0700690EB
:104FD2000595E004F0900590E004F0700690058FCE
:0A4FE200E004F080A41200367F0105
:014FEC0022A2
:046953004105EE32DA
:1067A100E5A254CFF5A2E4F5D8F5E9F5F975D902DA
:1067B100F5F275EA2075FA2075DA4275F34075EB4A
:1067C1002075FB2075DB4275F48075EC2075FC208B
:0667D10075DC42D2DE225D
:1064D500E4F5B4F5B343BA80F5F190FFF2F090FF1F
:1064E500F07403F0A374E8F090FF20E4F0A3F0FC4F
:1064F500FDFE7BE87A03F9F8123EAAE47B64FAF91B
:10650500F81265FA90FF22EEF0A3EFF0A37408F0FD
:0B65150043F50443F58053BA7F80FE7D
:10652000E4F5CAF5C943BA80F5F190FFF2F090FFA7
:10653000F07403F0A374E8F090FF30E4F0A3F0FCF3
:10654000FDFE7BE87A03F9F8123EAAE47B64FAF9CF
:10655000F81265FA90FF32EEF0A3EFF0A37408F0A2
:0A65600043F50843F58053BA7F228B
:106AD200EF75F064A4FFAEF0C374109F900620F02F
:0F6AE20074279E90061FF0E49005EDF0026C8E75
:03009B00025C7193
:105C7100C0E0C0F0C083C082C0D075D000C000C0F9
:105C810001C002C003C004C005C006C0079005EDF5
:105C9100E070389005F1E0FF75F012A4F404F5D539
:105CA100E4FCFDFE7B12FAF9F8123EAAC3E49FFF61
:105CB100E49EFE74019DFDE49CFC7808123F078F71
:105CC100D4D2A09005ED7401F080359005EFE0FF8E
:105CD10075F012A4F404F5D5E4FCFDFE7B12FAF98B
:105CE100F8123EAAC3E49FFFE49EFE74019DFDE409
:105CF1009CFC7808123F078FD4C2A09005EDE4F018
:105D0100D007D006D005D004D003D002D001D000F6
:0B5D1100D0D0D082D083D0F0D0E032A0
:0A565B00900563ECF0A3EDF0AB073F
:10566500A3123F2700000000EB14601914602214F8
:10567500603714602824047030900565123F274672
:10568500900000802E900565123F27462CCC0080A7
:1056950022900565123F2745ACC800801690056528
:1056A500123F2744ACC000800A900565123F27458C
:1056B5002CD0005394BF5393BF43BA80E4F5F190C7
:1056C500FFF27403F0900565E0FCA3E0FDA3E0FEA6
:1056D500A3E0FF123C5A90FFF0EEF0A3EFF090FF2D
:1056E50050E4F0A3F0FBFA79C87842900565E0FC38
:1056F500A3E0FDA3E0FEA3E0FF123B06C004C00546
:10570500C006C007900563E0FCA3E0FDE4123C2160
:10571500D003D002D001D0001239FD123C5A90FFBF
:1057250052EEF0A3EFF0A37408F043F52043F580A3
:0357350053BA7FE5
:01573800224E
:055F65009005E8EFF0DB
:105F6A00A3123F2746D800005395FB5395FB43BA2B
:105F7A0080E4F5F190FFF27407F09005E9E0FCA3E4
:105F8A00E0FDA3E0FEA3E0FF123C5A90FFF0EEF022
:105F9A00A3EFF090FF20E4F0A3F0FBFA79C878426F
:105FAA009005E9E0FCA3E0FDA3E0FEA3E0FF123BBD
:105FBA0006C004C005C006C0079005E8E0FCE4126C
:105FCA003C26D003D002D001D0001239FD123C5A2F
:105FDA0090FF22EEF0A3EFF0A3E4F043F50443F5BB
:045FEA008053BA7FA7
:015FEE002290
:105A6300900625EFF09005EEE024F6602724FB6016
:105A73003A24FB605224E2606A24D87003025B027A
:105A830024556003025B13900625E0640160030262
:105A93005B13802C900625E0B40102803F9006251D
:105AA300E0F4706C9005EE74058060900625E0B418
:105AB30001079005EE74148052900625E0F47050AF
:105AC3009005EE740A8044900625E0B40107900522
:105AD300EE74328036900625E0F470349005EE744F
:105AE3000F8028900625E0B401079005EE745A80D4
:105AF3001A900625E0B4FF189005EE7414800C90FC
:105B03000625E0B4FF0A9005EE7432F0FF125F65DC
:015B1300226F
:1063E400900621EEF0A3EFF0438E805389F09006DF
:1063F40021E0FEA3E0FFE4FCFD7B16FAF9F8123E6F
:10640400AAEFF404F58A900621E0FEA3E0FFE4FC81
:10641400FD7B16FAF9F8123EAAC3E49FFFE49EFE40
:1064240074019DFDE49CFC7808123F078F8CC28D9B
:03643400D28C22E5
:106C7C00E5A254F34404F5A2E4F5CF75CDC075CE6E
:026C8C00502294
:03004B00026E2220
:066E220075CDC0D29132D3
:0A6957004205F700004205F90000B8
:03000B0002638FFE
:10638F00C0E0C0F0C083C082C0D075D000C000C0D4
:07639F0004C005C006C007A1
:1063A60090056EE4F0A3123F27000000009005F868
:1063B600E004F070069005F7E004F09005FAE004BA
:0963C600F070069005F9E004F006
:1063CF00D007D006D005D004D000D0D0D082D08353
:0563DF00D0F0D0E03217
:106C1200538E7F5389F0C2B9E4F58A758C70C28DA8
:076C2200D28CD2A9D2AF22EF
:10656A00C39005F8E094FA9005F7E09400401A12F7
:10657A00513A9005D4123F1B9005D4123F270000D0
:10658A000000E49005F7F0A3F0C39005FAE094B890
:10659A009005F9E0940B40101261C69005D8EFF00F
:0965AA00E4F09005F9F0A3F022E1
:106C8E0053D1FD75D501E4F5D443D10843AF20D2DD
:026C9E00AF2223
:03000300020012E6
:0100120032BB
:096DFF00D2B2D288D2A8D2AF2290
:03001300020026C2
:0100260032A7
:096E0800D2B3C28AD2AAD2AF2291
:0300530002002781
:0100270032A6
:066E2800438F10D2AF22DF
:03005B0002002878
:0100280032A5
:066E2E00438F20D2AF22C9
:030083000200294F
:0100290032A4
:066E3400438F40D2AF22A3
:0300330002000EBA
:04000E005387DF3203
:086E1A005387DFD2AED2AF2294
:106CA0007D3C7C00E4FF12565B126D6A53F5DFC237
:026CB00086223A
:106CB2007D3C7C007F0312565B126D9753F5DFC259
:026CC200862228
:106CC4007D3C7C007F0312565B126D8853F5DFC256
:026CD400862216
:096E1100AD07AC067F0402565BDC
:106CD6007D3C7C007F0412565B126DA653F5DFC225
:026CE600862204
:066E3A008FAA75AB802257
:106732002055534220636861726765200A00205524
:1067420053422063686172676520002055534220DE
:10675200206F6666736574200A002055534220201C
:086762006F6666736574200088
:046961004106260ABB
:106A4D0053CBF143CC0E53CBFE53CCFEC2E9D2EA6D
:106A5D00D2EBD2E8E4F5B375B401C2C1D2E9126D3F
:046A6D00B5D2C122BB
:10573900E49005A2F0A3F0A3F0A3F0A3F0A3123F15
:105749002700000000E49005ABF0A3F07F04126A83
:10575900239005A4EEF0A3EFF0C39005A3E09F907A
:1057690005A2E09E500F9005A4E0FFA3E09005A2DA
:10577900CFF0A3EFF01200069005A6E004F0E0C315
:10578900940A40C89005A2E0FCA3E0FDE4123C2184
:10579900A804A905AA06AB077F0A7ED77DA37C4486
:1057A900123B069005A7123F1B9005A7E0FCA3E05A
:1057B900FDA3E0FEA3E0FF123C5A7C007D64123E8B
:1057C90017AC06AD07E4123C21C004C005C006C0F1
:1057D90007E4FFFE7DC87C429005A7E0F8A3E0F945
:1057E900A3E0FAA3E0FB1239FDD003D002D001D027
:1057F90000123908123C5A9005ABEEF0A3EFF09075
:0D58090005A7E0FCA3E0FDA3E0FEA3E0FF87
:01581600226F
:1061C600E49005F2F01257399005F3123F1BE4FFF5
:1061D600FEFDFC9005F3E0F8A3E0F9A3E0FAA3E0E6
:1061E600FB123BA360377FCD7ECC7D2C7CC0900517
:1061F600F3E0F8A3E0F9A3E0FAA3E0FB12390CE41C
:10620600FBFA79C878421239FD7BFE7AFF79BF78AE
:0F6216003F123B06123C5A9005F2EFF0227F0038
:016225002256
:10513A0090054D123F2700000000E4900551F0A3AE
:10514A00F0125739900553123F1B900552E0C39451
:10515A000A50247F05126A23900552E025E024397B
:10516A00F582E43405F583EEF0A3EFF01200069021
:10517A000552E004F080D3900545E0FEA3E0FF90DD
:10518A000540E02FFF90053FE03EFE90054CE02FE2
:10519A00FF90054BE03EFE7C007D03123E29AD07E1
:1051AA00AC06E4123C21900553E0F8A3E0F9A3E031
:1051BA00FAA3E0FB1239FD7BE77AFB7979783F1293
:1051CA0039FDE4FBFA79D478C312390CE4FBFA7995
:1051DA00C87840123B0690054D123F1B90054DE0E2
:1051EA00FCA3E0FDA3E0FEA3E0FF123C5A7C007D95
:1051FA0064123E17AC06AD07E4123C21C004C00598
:10520A00C006C007E4FFFE7DC87C4290054DE0F869
:10521A00A3E0F9A3E0FAA3E0FB1239FDD003D00220
:10522A00D001D000123908123C5A900551EFF0E42F
:10523A00FFFE7DAA7C4290054DE0F8A3E0F9A3E0C9
:10524A00FAA3E0FB123BA360044002C2E990054DB9
:0B525A00E0FCA3E0FDA3E0FEA3E0FFEA
:015265002226
:106909004393805394FE7BFF3087137A6779321261
:1069190068A57BFF7A6779401258F47F01227A676C
:10692900794D1268A57BFF7A67795C1258F47F006C
:01693900223B
:10470C004E4F203A20005331203A20005332203AA9
:10471C0020005333203A20005334203A20005335E4
:10472C00203A2000204D41494E204D454E55200A3F
:10473C00200020554846204D4F4445200020554828
:10474C0046204D4F4445200A2000204254204D4F16
:10475C0044452000204254204D4F4445200A20005F
:10476C002054455354204D4F44452000205445536C
:10477C0054204D4F4445200A2000204241545445BA
:10478C005254204D4F444520002042415454455230
:10479C0059204D4F4445200A200020425A204D4FAD
:1047AC004445200020425A204D4F4445200A200009
:1047BC00204F4C45445F74696D696E672073657456
:1047CC002000204F4C45445F74696D696E672073FF
:1047DC006574200A2000204F4C45445F425A2073D8
:1047EC0065742000204F4C45445F425A2073657419
:1047FC00200A2000202153797374656D5F506F7708
:10480C0065725F5663635F4F4E5F4F4646200A20CA
:10481C00002055313420706F77657220676F6F649C
:10482C0020002055313420706F77657220676F6FD0
:10483C0064200A20002055313420706F7765722077
:10484C004E47204F4350204F5450200020553134B8
:10485C0020706F776572204E47204F4350204F5485
:10486C0050200A2000204E205653454C2000202179
:10487C005653454C200A2000204E2042595020000F
:10488C002021425950200A200020424154544552C4
:10489C0059A1A14D4F444520494E2000204241547E
:1048AC0054455259A1A14D4F444520494E200A2050
:1048BC000020425A204D4F444520494E20002042B2
:1048CC005A204D4F444520494E200A2000204F4C81
:1048DC004544206765742072656164696E67207455
:1048EC00696D696E672000204F4C45445F74696D9B
:1048FC00696E67206765742072656164696E6720F4
:10490C0074696D696E67200A2000204F4C45442065
:10491C006765742077726974696E672074696D6954
:10492C006E672000204F4C45445F74696D696E675B
:10493C00206765742077726974696E672074696D7D
:10494C00696E67200A2000204F4C45445F74696DE6
:10495C00696E672073657420494E2000204F4C45CA
:10496C00445F74696D696E672073657420494E20CD
:10497C000A2000204F4C45445F425A20757020009D
:10498C00204F4C45445F425A207570200A2000206D
:10499C004F4C45445F425A20646F776E2000204F85
:1049AC004C45445F425A20646F776E200A200020E9
:1049BC004F4C45445F425A2073657420494E200089
:1049CC00204F4C45445F425A2073657420494E2059
:1049DC000A2000204E4F54205345542000204E4FA7
:0949EC005420534554200A200018
:0469650041062700C0
:105BC400E490060DF0A3F0A3F07F03126BE49006BB
:105BD4000DEFF0C394CD40037F0022126D6A7F0362
:105BE400126BE490060EEFF0126D6A7F03126BE401
:105BF40090060FEFF090060EE02FFFE433C313EF8F
:105C04001390060DF0126D6A7F03126BE4EFD394C8
:105C1400CD4002800A7F03126BE4126DDB80E690B4
:105C2400060DE0C394125006126CA07F0122900668
:105C34000DE0C3943B5006126CA07F022290060D27
:105C4400E0C394695006126CA07F032290060DE015
:105C5400C3949B5006126CA07F042290060DE0C3EF
:0C5C640094CD5006126CA07F05227F003A
:015C70002211
:104CCA00E4900610F0A3F0A3F07F03126BE49006C1
:104CDA0010EFF0C394CD4030126D6A7BFF7A4779AA
:104CEA000C12680C7FFF126DDB900610E0FF126D4C
:104CFA00DB7BFF7A47790C1268A5900610E0FF1259
:104D0A006DDB53F5DF7F0022126DA67F03126BE481
:104D1A00900611EFF0126D6A7F03126BE49006128F
:104D2A00EFF0900611E02FFFE433C313EF13900660
:104D3A0010F0C3941250337BFF7A47791212680C31
:104D4A007FFF126DDB900610E0FF126DDB7BFF7AAE
:104D5A004779121268A5900610E0FF126DDB7D3CC0
:104D6A007C007F0112565B7F0122900610E0C394FB
:104D7A003B50337BFF7A47791812680C7FFF126D1C
:104D8A00DB900610E0FF126DDB7BFF7A4779121287
:104D9A0068A5900610E0FF126DDB7D3C7C007F0267
:104DAA0012565B7F0222900610E0C3946950337B4F
:104DBA00FF7A47791E12680C7FFF126DDB9006108E
:104DCA00E0FF126DDB7BFF7A47791E1268A5900619
:104DDA0010E0FF126DDB7D3C7C007F0312565B7F87
:104DEA000322900610E0C3949B50337BFF7A4779E5
