:0300000002616535
:0C616500787FE4F6D8FD7581410261AC42
:106BFB00636F6E6E656374204F4B2000636F6E6E18
:0B6C0B00656374206572726F722000D8
:10591D00E49002EAF0A3F0A3F0A31240750000009A
:10592D0000E49002F1F0A3F0A3F0A3F0A3F0126D48
:10593D00AF126A95126CB1126C16126C31126B3675
:10594D00126DE512627B126D667BFF7A36797112EC
:10595D006451126E27126571126D26126A657F01F0
:10596D0012009E126E377F0112233DEF7BFF7006F2
:10597D007A6B79FB80047A6C79071257F99002EBF8
:10598D007401F0126D269002EBE0FF12009E126E74
:10599D00379002EBE004F0E0D3942140E6126EA0C4
:1059AD0012600D9002EAEFF01265717B017A0079B9
:1059BD00F412543DE49002F3F0126D269002EAE0E9
:1059CD0024FE60111460182402701CE49002F4F09F
:1059DD001263798012E49002F4F01266758008E487
:1059ED009002F4F01265CC9002F3E004F0E0C39461
:1059FD000540C69002EAE060A49002F5E0D3940061
:105A0D0040099002F47401F0E4A3F09002F4E06018
:105A1D000280159002F2E004F0E0C3941E4004E40D
:0E5A2D00FEFF22E4900480F012559C0259AA5C
:106D660053CB1F43CCE043CB1043CC10C2EDC2EF54
:036D7600D2EE2238
:056300009004EBEFF03A
:10630500E4A3F0A3F0126E277F01126ED57FFC1275
:106315006ED57F01126ED57F01126ED59004EBE02C
:10632500FF126ED5126E379000F1E070037FFF22E9
:106335009000F1E0FF9004ECE0FCA3E0FDC39F7446
:1063450080F8EC648098501F74002DF58274003C31
:10635500F583E0FF126ED59004EDE004F070D19066
:1063650004ECE004F080C9900002E0B401037F0171
:03637500227FFF85
:016378002202
:10693A00126E277F01126ED57FFC126ED57F02126E
:10694A006ED5E4FF126ED5126E379000F1E0640541
:10695A0060037FFF22900003E0B40104A3E0FF225A
:03696A007FFF228A
:0C0016007F547EF77D18DDFEDEFCDFFA73
:0100220022BB
:0E6E370000007F027EAF7D4BDDFEDEFCDFFA49
:016E4500222A
:0E6E460000007F0D7E9C7D53DDFEDEFCDFFA3A
:016E5400221B
:0E6E550000007F017ED87D23DDFEDEFCDFFA2B
:016E6300220C
:0E6E640000007F2B7E067DCBDDFEDEFCDFFA1C
:016E720022FD
:0E6E730000007FFD7E237DDCDDFEDEFCDFFA0D
:016E810022EE
:0E6E820000007F117ED07D1BDDFEDEFCDFFAFE
:016E900022DF
:0E6E910000007F057E347DC3DDFEDEFCDFFAEF
:016E9F0022D0
:040006007F0EDFFE8C
:01000A0022D3
:0E6EA00000007F097E687D8BDDFEDEFCDFFAE0
:016EAE0022C1
:104DDA00204E4F54205265616420434D44200020E8
:104DEA00696E64795F7265616473656E736F72630D
:104DFA006F646520656E64200020696E64795F7255
:104E0A006561647273736920656E64200020696E3F
:104E1A0064795F7265616474656D70207374617220
:104E2A0074200D0A0020696E64795F72656164748A
:104E3A00656D7020656E64200D0A0020696E6479C4
:104E4A005F7265616474656D7020656E642000240C
:104E5A000349006D00700069006E006A0053006526
:104E6A00007200690061006C004E0075006D003030
:104E7A000031004003BFFCBFFCBFFC000001001270
:104E8A0000210000001000000000000000050000E2
:104E9A0000000000000600000000000000100000F2
:104EAA000000000000110088E1F3C000000000F0DB
:104EBA00000602000001001200210000000200A00A
:104ECA0000A002000000030000000000000200A091
:104EDA0000A0020000611B0206000000000500009D
:104EEA0000000000000207010000000000050000A9
:104EFA00000000000004070000000000000507D0C1
:104F0A0007000000000607DC000000000007070099
:104F1A002000000000120BFFFF0F00000005000038
:104F2A00000000000000050000000000000005006D
:104F3A00000000000000060000000000000005005C
:104F4A00000000000000050000000000000006004C
:104F5A00000000000100000002000000270000001D
:104F6A00872E0D0001000100020000008F2E0D00A7
:104F7A00000000000000050000000000000006001C
:044F8A000000000023
:086A35004104A0FF4104A1008F
:0B6515007B027F047A00E4FDFC7E0A9C
:106520009002F8EEF0A3EFF0A3ECF0A3EDF0A3EAF5
:10653000F0A3EBF07F01126CA8E4FF126CA89002AC
:10654000F8A3E0FF126CA89002F8E0FF126CA8908C
:1065500002FCA3E0FF126CA89002FCE0FF126CA802
:106560009002FAA3E0FF126CA89002FAE0FF026C1E
:01657000A882
:1068CD009004FDEEF0A3EFF0E4FF126CA8E4FF12CC
:1068DD006CA89004FDA3E0FF126CA89004FDE0FFEE
:1068ED00126CA8E4FF126CA8E4FF126CA8E4FF126E
:0768FD006CA8E4FF026CA887
:10559C00E4FF900480E09002F7F0E49002F6F090C3
:1055AC0002F6E0FEFD3395E0FC74812DF582740467
:1055BC003CF583E0FDEEFB3395E0FA74F82BF582B5
:1055CC0074023AF583EDF09002F6E004F0E0B40CCE
:1055DC00CEE49002F6F09002F6E0FEFD3395E0FC8E
:1055EC00748D2DF58274043CF583E0FDEEFB339550
:1055FC00E0FA74042BF58274033AF583EDF0900213
:10560C00F6E004F0E0B402CE9002F6740FF09002D3
:10561C00F6E0FEC3648094A0501AEEFD3395E0FCD6
:10562C0074F72DF58274023CF583E4F09002F6E0F9
:10563C0004F080DAE49002F6F09002F6E0FEC36427
:10564C008094A0501BEEFD3395E0FC74F72DF58291
:10565C0074023CF583E02FFF9002F6E004F080D951
:10566C00EF900316F0E49002F6F09002F6E0FFC320
:10567C00648094A0504AEF3395E0FE74F72FF582C6
:10568C0074023EF583E0FF126ED59002F6E0FE75D3
:10569C00F010123EFD04FFEE75F010123EFDADF061
:1056AC009002F6E0FB3395E0FA74F72BF582740266
:1056BC003AF583E0FB125A3B9002F6E004F080AA24
:0156CC0022BB
:10657100E4900480F0FFEFFD3395E0FC74812DF58C
:106581008274043CF583E4F00FEFB40CE9E4FFEF0F
:10659100FD3395E0FC748D2DF58274043CF583E4A4
:1065A100F00FEFB402E9E4FFC3EF6480948050156B
:1065B100EFFD3395E0FC748F2DF58274043CF58377
:0A65C100E4F00F80E3E490049FF083
:0165CB0022AD
:104B43009002FA7401F0E4A3F0A3F074FFA3F0A3BE
:104B5300F0E4A3F0A3F0A3F0A3F0A3F0A3F0A3F079
:104B6300A3F0A3F0A3F0A3F0A37412F0E4A3F0C2A4
:104B730008C209A3F09002FFE0FEA3E024F4F5824B
:104B830074003EF583E064016003024DD99002FF97
:104B9300A3E0FF24F5F58274003EF583E090030C57
:104BA300F074F72FF58274003EF583E0FE9002FF68
:104BB300E0FCA3E0FD24F6F58274003CF583E07A83
:104BC300002400FFEA3E9002FDF0A3EFF074F92DFC
:104BD300F58274003CF583E0FE9002FFA3E024F825
:104BE300F58274003CF583E02400FFEA3E9002FB6B
:104BF300F0A3EFF0ED2408FFE43C900301F0FCA3E5
:104C0300EFF0FD9002FBE0FAA3E0FBAE027802C3F3
:104C130033CE33CED8F92DFFEE3C900303F0A3EF50
:104C2300F0EB2402FFE43AFEEF7802C333CE33CE37
:104C3300D8F9FF900300E02FF09002FFE03EF090E0
:104C430002FDE07004A3E064057061900302E024B8
:104C53000EFE900301E03400900305F0A3CEF0E4D0
:104C63009002F8F0A3F09002F8E0FEA3E0FF9003B7
:104C730006E02FFD900305E03EFC74F42DF58274ED
:104C8300003CF583E0FD74812FF58274043EF583C7
:104C9300EDF09002F9E004F070069002F8E004F001
:104CA3009002F8E07004A3E0640C70BA9002FDE097
:104CB3007004A3E064066003024B7890030CE06089
:104CC30003024DD9900301E0FEA3E0FF24F8F5822F
:104CD30074003EF583E064C26003024DCDEF240C03
:104CE300FFE43E900307F0A3EFF0900480E024FE7E
:104CF300605C147003024DA024026003024DC3E400
:104D03009002F8F0A3F09002F8E0FEA3E0FF900316
:104D130008E02FFD900307E03EFC74F42DF5827448
:104D2300003CF583E0FD748D2FF58274043EF5831A
:104D3300EDF09002F9E004F070069002F8E004F060
:104D43009002F8E07004A3E0640270BA8069E49012
:104D530002F8F0A3F09002F8E0FEA3E0FF9003084E
:104D6300E02FFD900307E03EFC74F42DF582740000
:104D73003CF583E0FD748D2FF58274043EF583EDDD
:104D8300F09002F9E004F070069002F8E004F0906D
:104D930002F8E07004A3E0640270BA801AE490049D
:104DA3008DF0900307E0FEA3E024F5F58274003E46
:104DB300F583E090048EF09004A1E004F0024B78B8
:104DC300E49004A0F0A3F0024B787BFF7A4D79DAEC
:064DD30012543D024B7872
:014DD90022B7
:10667500E49002F6F0A3F0FBFAFDFC7F027E0A121D
:1066850065207B0C7F03126519126515E4FBFAFD85
:10669500FC7F067E0A1265207B107A00E4FDFCFF74
:1066A5007EF01265201200169000F4E0B40107C2D6
:0F66B500AC124B43D2AC7BFF7A4D79E90257F917
:1065CC00E49002F6F0A3F0FBFAFDFC7F027E0A12C7
:1065DC0065207B0D7A00E4FDFC7F037E0A126520AA
:1065EC00126515E4FBFAFDFC7F067E0A1265207B22
:1065FC00087A00E4FDFCFF7EF01265201200169074
:10660C0000F4E0B40107C2AC124B43D2AC7BFF7A6E
:06661C004E79030257F95C
:10637900E49002F6F0A3F07BFF7A4E791712696D6B
:10638900E4FBFAFDFC7F027E0A1265207B0E7A008F
:10639900E4FDFC7F037E0A126520126515E4FBFA11
:1063A900FDFC7F067E0A1265207B077A00E4FDFC6E
:1063B900FF7EF0126520126D26126E379000F4E010
:1063C900B40107C2AC124B43D2AC7BFF7A4E792F92
:0C63D90012696D7BFF7A4E79450257F97E
:10679D00E4FF900000E060379000F1E0C3940850F2
:1067AD0003E4FE22E4FEEEFD3395E0FC74002DF5CE
:1067BD008274003CF583E02FFF0EEEB407E89000E5
:1067CD0007E0B507057E007F0122126E278000E4E9
:0267DD00FEFFBD
:0167DF002297
:10009E00EF14B42200400302233C9000B675F00327
:1000AE00A4C58325F0C5837302011C02012502013C
:1000BE002E0201300201320203A902013502014370
:1000CE0002015102015F02016D02017B02018F02EA
:1000DE0001A30201B70201F302020702026B020240
:1000EE007F0202930202A70202BB0202CF02233C4E
:1000FE0002030B0203470203A902035B02039602EB
:10010E0003A90203BC0203D40203A90203FC7FC0AD
:10011E00126CA87F0680337F40126CA87F03802A62
:10012E00802F8003020347E4FF126CA8E4FF126CD9
:10013E00A87F108058E4FF126CA8E4FF126CA87F11
:10014E0011804AE4FF126CA8E4FF126CA8E4FF8051
:10015E003CE4FF126CA8E4FF126CA87F01802EE431
:10016E00FF126CA8E4FF126CA87F028020E4FF123D
:10017E006CA8E4FF126CA8E4FF126CA87F030203C4
:10018E00E5E4FF126CA8E4FF126CA87F02126CA8C3
:10019E00E4FF0203E5E4FF126CA8E4FF126CA87FF3
:1001AE0061126CA87F1B0203E57F01126CA8E4FFAD
:1001BE00126CA87F01126CA87F07126CA8E4FF12C4
:1001CE006CA8E4FF126CA8E4FF126CA8E4FF126C9A
:1001DE00A8E4FF126CA8E4FF126CA87F05126CA8AD
:1001EE00E4FF0203E5E4FF126CA8E4FF126CA87FA3
:1001FE0002126CA87F070203E57F01126CA8E4FFD0
:10020E00126CA87F02126CA87F07126CA87F0112D5
:10021E006CA8E4FF126CA8E4FF126CA8E4FF126C49
:10022E00A87F01126CA8E4FF126CA87F01126CA8C3
:10023E007F07126CA8E4FF126CA8E4FF126CA8E40E
:10024E00FF126CA8E4FF126CA8E4FF126CA8E4FF86
:10025E00126CA87F05126CA8E4FF0203E5E4FF12FE
:10026E006CA8E4FF126CA87F04126CA87F0702032F
:10027E00E5E4FF126CA8E4FF126CA87F05126CA8CF
:10028E007F070203E5E4FF126CA8E4FF126CA87F5F
:10029E0006126CA87F070203E5E4FF126CA8E4FFC8
:1002AE00126CA87F07126CA87F070203E5E4FF1209
:1002BE006CA8E4FF126CA87F12126CA87F0B0203CD
:1002CE00E57F01126CA8E4FF126CA87F01126CA8E6
:1002DE007F07126CA8E4FF126CA8E4FF126CA8E46E
:1002EE00FF126CA8E4FF126CA8E4FF126CA8E4FFE6
:1002FE00126CA87F05126CA8E4FF0203E57F0112C1
:10030E006CA8E4FF126CA87F0A126CA87F01126C15
:10031E00A87FF8126CA87F59126CA87F0D126CA8DA
:10032E00E4FF126CA8E4FF126CA8E4FF126CA87F25
:10033E0005126CA8E4FF0203E5E4FF126CA8E4FFCB
:10034E00126CA87F05126CA8E4FF0203E57F011270
:10035E006CA8E4FF126CA87F08126CA87F01126CC7
:10036E00A87F01126CA87F01126CA8E4FF126CA882
:10037E00E4FF126CA8E4FF126CA8E4FF126CA87FD5
:10038E0005126CA8E4FF804FE4FF126CA8E4FF1284
:10039E006CA87F05126CA8E4FF803CE4FF126CA8E9
:1003AE00E4FF126CA87F06126CA8E4FF80297F017F
:1003BE00126CA8E4FF126CA8E4FF126CA87FF01276
:1003CE006CA87F278016E4FF126CA8E4FF126CA8BD
:1003DE007F05126CA8E4FF126CA8E4FF126CA8E46F
:1003EE00FF126CA8E4FF126CA8E4FF0223397F0110
:1003FE00126CA8E4FF126CA87F01126CA87F0C127D
:10040E006CA8E4FF126CA8E4FF126CA8E4FF126C57
:10041E00A8E4FF126CA87F01126CA8E4FF126CA86E
:10042E007F02126CA87F0C126CA87F01126CA8E4DC
:10043E00FF126CA8E4FF126CA8E4FF126CA87F01F7
:10044E00126CA8E4FF126CA87F03126CA87F0C122A
:10045E006CA87F70126CA87F0D126CA87F18126C9E
:10046E00A8E4FF126CA87F01126CA8E4FF126CA81E
:10047E007F04126CA87F0C126CA8E4FF126CA87F8C
:10048E0001126CA87F07126CA87F14126CA87F0152
:10049E00126CA8E4FF126CA87F01126CA87F0C12DC
:1004AE006CA87F01126CA8E4FF126CA8E4FF126C1A
:1004BE00A8E4FF126CA87F01126CA8E4FF126CA8CE
:1004CE007F02126CA87F0C126CA87F01126CA8E43C
:1004DE00FF126CA8E4FF126CA8E4FF126CA87F0157
:1004EE00126CA8E4FF126CA87F03126CA87F0C128A
:1004FE006CA87F84126CA87F0D126CA87F18126CEA
:10050E00A8E4FF126CA87F01126CA8E4FF126CA87D
:10051E007F04126CA87F0C126CA8E4FF126CA87FEB
:10052E0001126CA87F07126CA87F14126CA87F01B1
:10053E00126CA8E4FF126CA87F01126CA87F0C123B
:10054E006CA87F02126CA8E4FF126CA8E4FF126C78
:10055E00A8E4FF126CA87F01126CA8E4FF126CA82D
:10056E007F02126CA87F0C126CA87F01126CA8E49B
:10057E00FF126CA8E4FF126CA8E4FF126CA87F01B6
:10058E00126CA8E4FF126CA87F03126CA87F0C12E9
:10059E006CA87F98126CA87F0D126CA87F18126C35
:1005AE00A8E4FF126CA87F01126CA8E4FF126CA8DD
:1005BE007F04126CA87F0C126CA8E4FF126CA87F4B
:1005CE0001126CA87F07126CA87F14126CA87F0111
:1005DE00126CA8E4FF126CA87F01126CA87F0C129B
:1005EE006CA87F03126CA8E4FF126CA8E4FF126CD7
:1005FE00A8E4FF126CA87F01126CA8E4FF126CA88D
:10060E007F02126CA87F0C126CA87F01126CA8E4FA
:10061E00FF126CA8E4FF126CA8E4FF126CA87F0115
:10062E00126CA8E4FF126CA87F03126CA87F0C1248
:10063E006CA87FAC126CA87F0D126CA87F18126C80
:10064E00A8E4FF126CA87F01126CA8E4FF126CA83C
:10065E007F04126CA87F0C126CA8E4FF126CA87FAA
:10066E0001126CA87F07126CA87F14126CA87F0170
:10067E00126CA8E4FF126CA87F01126CA87F0C12FA
:10068E006CA87F04126CA8E4FF126CA8E4FF126C35
:10069E00A8E4FF126CA87F01126CA8E4FF126CA8EC
:1006AE007F02126CA87F0C126CA87F01126CA8E45A
:1006BE00FF126CA8E4FF126CA8E4FF126CA87F0175
:1006CE00126CA8E4FF126CA87F03126CA87F0C12A8
:1006DE006CA87FC0126CA87F0D126CA87F18126CCC
:1006EE00A8E4FF126CA87F01126CA8E4FF126CA89C
:1006FE007F04126CA87F0C126CA8E4FF126CA87F0A
:10070E0001126CA87F07126CA87F14126CA87F01CF
:10071E00126CA8E4FF126CA87F01126CA87F0C1259
:10072E006CA87F05126CA8E4FF126CA8E4FF126C93
:10073E00A8E4FF126CA87F01126CA8E4FF126CA84B
:10074E007F02126CA87F0C126CA87F01126CA8E4B9
:10075E00FF126CA8E4FF126CA8E4FF126CA87F01D4
:10076E00126CA8E4FF126CA87F03126CA87F0C1207
:10077E006CA87FD4126CA87F0D126CA87F18126C17
:10078E00A8E4FF126CA87F01126CA8E4FF126CA8FB
:10079E007F04126CA87F0C126CA8E4FF126CA87F69
:1007AE0001126CA87F07126CA87F14126CA87F012F
:1007BE00126CA8E4FF126CA87F01126CA87F0C12B9
:1007CE006CA87F06126CA8E4FF126CA8E4FF126CF2
:1007DE00A8E4FF126CA87F01126CA8E4FF126CA8AB
:1007EE007F02126CA87F0C126CA87F01126CA8E419
:1007FE00FF126CA8E4FF126CA8E4FF126CA87F0134
:10080E00126CA8E4FF126CA87F03126CA87F0C1266
:10081E006CA87FE8126CA87F0D126CA87F18126C62
:10082E00A8E4FF126CA87F01126CA8E4FF126CA85A
:10083E007F04126CA87F0C126CA8E4FF126CA87FC8
:10084E0001126CA87F07126CA87F14126CA87F018E
:10085E00126CA8E4FF126CA87F01126CA87F0C1218
:10086E006CA87F07126CA8E4FF126CA8E4FF126C50
:10087E00A8E4FF126CA87F01126CA8E4FF126CA80A
:10088E007F02126CA87F0C126CA87F01126CA8E478
:10089E00FF126CA8E4FF126CA8E4FF126CA87F0193
:1008AE00126CA8E4FF126CA87F03126CA87F0C12C6
:1008BE006CA87FFC126CA87F0D126CA87F18126CAE
:1008CE00A8E4FF126CA87F01126CA8E4FF126CA8BA
:1008DE007F04126CA87F0C126CA8E4FF126CA87F28
:1008EE0001126CA87F07126CA87F14126CA87F01EE
:1008FE00126CA8E4FF126CA87F01126CA87F0C1278
:10090E006CA87F08126CA8E4FF126CA8E4FF126CAE
:10091E00A8E4FF126CA87F01126CA8E4FF126CA869
:10092E007F02126CA87F0C126CA87F01126CA8E4D7
:10093E00FF126CA8E4FF126CA8E4FF126CA87F01F2
:10094E00126CA8E4FF126CA87F03126CA87F0C1225
:10095E006CA87F10126CA87F0E126CA87F18126CF8
:10096E00A8E4FF126CA87F01126CA8E4FF126CA819
:10097E007F04126CA87F0C126CA8E4FF126CA87F87
:10098E0001126CA87F07126CA87F14126CA87F014D
:10099E00126CA8E4FF126CA87F01126CA87F0C12D7
:1009AE006CA87F09126CA8E4FF126CA8E4FF126C0D
:1009BE00A8E4FF126CA87F01126CA8E4FF126CA8C9
:1009CE007F02126CA87F0C126CA87F01126CA8E437
:1009DE00FF126CA8E4FF126CA8E4FF126CA87F0152
:1009EE00126CA8E4FF126CA87F03126CA87F0C1285
:1009FE006CA87F24126CA87F0E126CA87F18126C44
:100A0E00A8E4FF126CA87F01126CA8E4FF126CA878
:100A1E007F04126CA87F0C126CA8E4FF126CA87FE6
:100A2E0001126CA87F07126CA87F14126CA87F01AC
:100A3E00126CA8E4FF126CA87F01126CA87F0C1236
:100A4E006CA87F0A126CA8E4FF126CA8E4FF126C6B
:100A5E00A8E4FF126CA87F01126CA8E4FF126CA828
:100A6E007F02126CA87F0C126CA87F01126CA8E496
:100A7E00FF126CA8E4FF126CA8E4FF126CA87F01B1
:100A8E00126CA8E4FF126CA87F03126CA87F0C12E4
:100A9E006CA87F38126CA87F0E126CA87F18126C8F
:100AAE00A8E4FF126CA87F01126CA8E4FF126CA8D8
:100ABE007F04126CA87F0C126CA8E4FF126CA87F46
:100ACE0001126CA87F07126CA87F14126CA87F010C
:100ADE00126CA8E4FF126CA87F01126CA87F0C1296
:100AEE006CA87F0B126CA8E4FF126CA8E4FF126CCA
:100AFE00A8E4FF126CA87F01126CA8E4FF126CA888
:100B0E007F02126CA87F0C126CA87F01126CA8E4F5
:100B1E00FF126CA8E4FF126CA8E4FF126CA87F0110
:100B2E00126CA8E4FF126CA87F03126CA87F0C1243
:100B3E006CA87F4C126CA87F0E126CA87F18126CDA
:100B4E00A8E4FF126CA87F01126CA8E4FF126CA837
:100B5E007F04126CA87F0C126CA8E4FF126CA87FA5
:100B6E0001126CA87F07126CA87F14126CA87F016B
:100B7E00126CA8E4FF126CA87F01126CA87F0C12F5
:100B8E006CA87F0C126CA8E4FF126CA8E4FF126C28
:100B9E00A8E4FF126CA87F01126CA8E4FF126CA8E7
:100BAE007F02126CA87F0C126CA87F01126CA8E455
:100BBE00FF126CA8E4FF126CA8E4FF126CA87F0170
:100BCE00126CA8E4FF126CA87F03126CA87F0C12A3
:100BDE006CA87F60126CA87F0E126CA87F18126C26
:100BEE00A8E4FF126CA87F01126CA8E4FF126CA897
:100BFE007F04126CA87F0C126CA8E4FF126CA87F05
:100C0E0001126CA87F07126CA87F14126CA87F01CA
:100C1E00126CA8E4FF126CA87F01126CA87F0C1254
:100C2E006CA87F0D126CA8E4FF126CA8E4FF126C86
:100C3E00A8E4FF126CA87F01126CA8E4FF126CA846
:100C4E007F02126CA87F0C126CA8E4FF126CA8E451
:100C5E00FF126CA8E4FF126CA8E4FF126CA87F01CF
:100C6E00126CA8E4FF126CA87F03126CA87F0C1202
:100C7E006CA87F60126CA87F0E126CA87F18126C85
:100C8E00A8E4FF126CA87F01126CA8E4FF126CA8F6
:100C9E007F04126CA87F0C126CA8E4FF126CA87F64
:100CAE0001126CA87F07126CA87F14126CA87F012A
:100CBE00126CA8E4FF126CA87F01126CA87F0C12B4
:100CCE006CA87F0E126CA8E4FF126CA8E4FF126CE5
:100CDE00A8E4FF126CA87F01126CA8E4FF126CA8A6
:100CEE007F02126CA87F0C126CA8E4FF126CA8E4B1
:100CFE00FF126CA8E4FF126CA8E4FF126CA87F012F
:100D0E00126CA8E4FF126CA87F03126CA87F0C1261
:100D1E006CA87F60126CA87F0E126CA87F18126CE4
:100D2E00A8E4FF126CA87F01126CA8E4FF126CA855
:100D3E007F04126CA87F0C126CA8E4FF126CA87FC3
:100D4E0001126CA87F07126CA87F14126CA87F0189
:100D5E00126CA8E4FF126CA87F01126CA87F0C1213
:100D6E006CA87F0F126CA8E4FF126CA8E4FF126C43
:100D7E00A8E4FF126CA87F01126CA8E4FF126CA805
:100D8E007F02126CA87F0C126CA8E4FF126CA8E410
:100D9E00FF126CA8E4FF126CA8E4FF126CA87F018E
:100DAE00126CA8E4FF126CA87F03126CA87F0C12C1
:100DBE006CA87F60126CA87F0E126CA87F18126C44
:100DCE00A8E4FF126CA87F01126CA8E4FF126CA8B5
:100DDE007F04126CA87F0C126CA8E4FF126CA87F23
:100DEE0001126CA87F07126CA87F14126CA87F01E9
:100DFE00126CA8E4FF126CA87F01126CA87F0C1273
:100E0E006CA87F10126CA8E4FF126CA8E4FF126CA1
:100E1E00A8E4FF126CA87F01126CA8E4FF126CA864
:100E2E007F02126CA87F0C126CA8E4FF126CA8E46F
:100E3E00FF126CA8E4FF126CA8E4FF126CA87F01ED
:100E4E00126CA8E4FF126CA87F03126CA87F0C1220
:100E5E006CA87F60126CA87F0E126CA87F18126CA3
:100E6E00A8E4FF126CA87F01126CA8E4FF126CA814
:100E7E007F04126CA87F0C126CA8E4FF126CA87F82
:100E8E0001126CA87F07126CA87F14126CA87F0148
:100E9E00126CA8E4FF126CA87F01126CA87F0C12D2
:100EAE006CA87F11126CA8E4FF126CA8E4FF126C00
:100EBE00A8E4FF126CA87F01126CA8E4FF126CA8C4
:100ECE007F02126CA87F0C126CA8E4FF126CA8E4CF
:100EDE00FF126CA8E4FF126CA8E4FF126CA87F014D
:100EEE00126CA8E4FF126CA87F03126CA87F0C1280
:100EFE006CA87F60126CA87F0E126CA87F18126C03
:100F0E00A8E4FF126CA87F01126CA8E4FF126CA873
:100F1E007F04126CA87F0C126CA8E4FF126CA87FE1
:100F2E0001126CA87F07126CA87F14126CA87F01A7
:100F3E00126CA8E4FF126CA87F01126CA87F0C1231
:100F4E006CA87F12126CA8E4FF126CA8E4FF126C5E
:100F5E00A8E4FF126CA87F01126CA8E4FF126CA823
:100F6E007F02126CA87F0C126CA8E4FF126CA8E42E
:100F7E00FF126CA8E4FF126CA8E4FF126CA87F01AC
:100F8E00126CA8E4FF126CA87F03126CA87F0C12DF
:100F9E006CA87F60126CA87F0E126CA87F18126C62
:100FAE00A8E4FF126CA87F01126CA8E4FF126CA8D3
:100FBE007F04126CA87F0C126CA8E4FF126CA87F41
:100FCE0001126CA87F07126CA87F14126CA87F0107
:100FDE00126CA8E4FF126CA87F01126CA87F0C1291
:100FEE006CA87F13126CA8E4FF126CA8E4FF126CBD
:100FFE00A8E4FF126CA87F01126CA8E4FF126CA883
:10100E007F02126CA87F0C126CA8E4FF126CA8E48D
:10101E00FF126CA8E4FF126CA8E4FF126CA87F010B
:10102E00126CA8E4FF126CA87F03126CA87F0C123E
:10103E006CA87F60126CA87F0E126CA87F18126CC1
:10104E00A8E4FF126CA87F01126CA8E4FF126CA832
:10105E007F04126CA87F0C126CA8E4FF126CA87FA0
:10106E0001126CA87F07126CA87F14126CA87F0166
:10107E00126CA8E4FF126CA87F01126CA87F0C12F0
:10108E006CA87F14126CA8E4FF126CA8E4FF126C1B
:10109E00A8E4FF126CA87F01126CA8E4FF126CA8E2
:1010AE007F02126CA87F0C126CA8E4FF126CA8E4ED
:1010BE00FF126CA8E4FF126CA8E4FF126CA87F016B
:1010CE00126CA8E4FF126CA87F03126CA87F0C129E
:1010DE006CA87F60126CA87F0E126CA87F18126C21
:1010EE00A8E4FF126CA87F01126CA8E4FF126CA892
:1010FE007F04126CA87F0C126CA8E4FF126CA87F00
:10110E0001126CA87F07126CA87F14126CA87F01C5
:10111E00126CA8E4FF126CA87F01126CA87F0C124F
:10112E006CA87F15126CA8E4FF126CA8E4FF126C79
:10113E00A8E4FF126CA87F01126CA8E4FF126CA841
:10114E007F02126CA87F0C126CA8E4FF126CA8E44C
:10115E00FF126CA8E4FF126CA8E4FF126CA87F01CA
:10116E00126CA8E4FF126CA87F03126CA87F0C12FD
:10117E006CA87F60126CA87F0E126CA87F18126C80
:10118E00A8E4FF126CA87F01126CA8E4FF126CA8F1
:10119E007F04126CA87F0C126CA8E4FF126CA87F5F
:1011AE0001126CA87F07126CA87F14126CA87F0125
:1011BE00126CA8E4FF126CA87F01126CA87F0C12AF
:1011CE006CA87F16126CA8E4FF126CA8E4FF126CD8
:1011DE00A8E4FF126CA87F01126CA8E4FF126CA8A1
:1011EE007F02126CA87F0C126CA8E4FF126CA8E4AC
:1011FE00FF126CA8E4FF126CA8E4FF126CA87F012A
:10120E00126CA8E4FF126CA87F03126CA87F0C125C
:10121E006CA87F60126CA87F0E126CA87F18126CDF
:10122E00A8E4FF126CA87F01126CA8E4FF126CA850
:10123E007F04126CA87F0C126CA8E4FF126CA87FBE
:10124E0001126CA87F07126CA87F14126CA87F0184
:10125E00126CA8E4FF126CA87F01126CA87F0C120E
:10126E006CA87F17126CA8E4FF126CA8E4FF126C36
:10127E00A8E4FF126CA87F01126CA8E4FF126CA800
:10128E007F02126CA87F0C126CA8E4FF126CA8E40B
:10129E00FF126CA8E4FF126CA8E4FF126CA87F0189
:1012AE00126CA8E4FF126CA87F03126CA87F0C12BC
:1012BE006CA87F60126CA87F0E126CA87F18126C3F
:1012CE00A8E4FF126CA87F01126CA8E4FF126CA8B0
:1012DE007F04126CA87F0C126CA8E4FF126CA87F1E
:1012EE0001126CA87F07126CA87F14126CA87F01E4
:1012FE00126CA8E4FF126CA87F01126CA87F0C126E
:10130E006CA87F18126CA8E4FF126CA8E4FF126C94
:10131E00A8E4FF126CA87F01126CA8E4FF126CA85F
:10132E007F02126CA87F0C126CA8E4FF126CA8E46A
:10133E00FF126CA8E4FF126CA8E4FF126CA87F01E8
:10134E00126CA8E4FF126CA87F03126CA87F0C121B
:10135E006CA87F60126CA87F0E126CA87F18126C9E
:10136E00A8E4FF126CA87F01126CA8E4FF126CA80F
:10137E007F04126CA87F0C126CA8E4FF126CA87F7D
:10138E0001126CA87F07126CA87F14126CA87F0143
:10139E00126CA8E4FF126CA87F01126CA87F0C12CD
:1013AE006CA87F19126CA8E4FF126CA8E4FF126CF3
:1013BE00A8E4FF126CA87F01126CA8E4FF126CA8BF
:1013CE007F02126CA87F0C126CA8E4FF126CA8E4CA
:1013DE00FF126CA8E4FF126CA8E4FF126CA87F0148
:1013EE00126CA8E4FF126CA87F03126CA87F0C127B
:1013FE006CA87F60126CA87F0E126CA87F18126CFE
:10140E00A8E4FF126CA87F01126CA8E4FF126CA86E
:10141E007F04126CA87F0C126CA8E4FF126CA87FDC
:10142E0001126CA87F07126CA87F14126CA87F01A2
:10143E00126CA8E4FF126CA87F01126CA87F0C122C
:10144E006CA87F1A126CA8E4FF126CA8E4FF126C51
:10145E00A8E4FF126CA87F01126CA8E4FF126CA81E
:10146E007F02126CA87F0C126CA8E4FF126CA8E429
:10147E00FF126CA8E4FF126CA8E4FF126CA87F01A7
:10148E00126CA8E4FF126CA87F03126CA87F0C12DA
:10149E006CA87F60126CA87F0E126CA87F18126C5D
:1014AE00A8E4FF126CA87F01126CA8E4FF126CA8CE
:1014BE007F04126CA87F0C126CA8E4FF126CA87F3C
:1014CE0001126CA87F07126CA87F14126CA87F0102
:1014DE00126CA8E4FF126CA87F01126CA87F0C128C
:1014EE006CA87F1B126CA8E4FF126CA8E4FF126CB0
:1014FE00A8E4FF126CA87F01126CA8E4FF126CA87E
:10150E007F02126CA87F0C126CA8E4FF126CA8E488
:10151E00FF126CA8E4FF126CA8E4FF126CA87F0106
:10152E00126CA8E4FF126CA87F03126CA87F0C1239
:10153E006CA87F60126CA87F0E126CA87F18126CBC
:10154E00A8E4FF126CA87F01126CA8E4FF126CA82D
:10155E007F04126CA87F0C126CA8E4FF126CA87F9B
:10156E0001126CA87F07126CA87F14126CA87F0161
:10157E00126CA8E4FF126CA87F01126CA87F0C12EB
:10158E006CA87F1C126CA8E4FF126CA8E4FF126C0E
:10159E00A8E4FF126CA87F01126CA8E4FF126CA8DD
:1015AE007F02126CA87F0C126CA8E4FF126CA8E4E8
:1015BE00FF126CA8E4FF126CA8E4FF126CA87F0166
:1015CE00126CA8E4FF126CA87F03126CA87F0C1299
:1015DE006CA87F60126CA87F0E126CA87F18126C1C
:1015EE00A8E4FF126CA87F01126CA8E4FF126CA88D
:1015FE007F04126CA87F0C126CA8E4FF126CA87FFB
:10160E0001126CA87F07126CA87F14126CA87F01C0
:10161E00126CA8E4FF126CA87F01126CA87F0C124A
:10162E006CA87F1D126CA8E4FF126CA8E4FF126C6C
:10163E00A8E4FF126CA87F01126CA8E4FF126CA83C
:10164E007F02126CA87F0C126CA8E4FF126CA8E447
:10165E00FF126CA8E4FF126CA8E4FF126CA87F01C5
:10166E00126CA8E4FF126CA87F03126CA87F0C12F8
:10167E006CA87F60126CA87F0E126CA87F18126C7B
:10168E00A8E4FF126CA87F01126CA8E4FF126CA8EC
:10169E007F04126CA87F0C126CA8E4FF126CA87F5A
:1016AE0001126CA87F07126CA87F14126CA87F0120
:1016BE00126CA8E4FF126CA87F01126CA87F0C12AA
:1016CE006CA87F1E126CA8E4FF126CA8E4FF126CCB
:1016DE00A8E4FF126CA87F01126CA8E4FF126CA89C
:1016EE007F02126CA87F0C126CA8E4FF126CA8E4A7
:1016FE00FF126CA8E4FF126CA8E4FF126CA87F0125
:10170E00126CA8E4FF126CA87F03126CA87F0C1257
:10171E006CA87F60126CA87F0E126CA87F18126CDA
:10172E00A8E4FF126CA87F01126CA8E4FF126CA84B
:10173E007F04126CA87F0C126CA8E4FF126CA87FB9
:10174E0001126CA87F07126CA87F14126CA87F017F
:10175E00126CA8E4FF126CA87F01126CA87F0C1209
:10176E006CA87F1F126CA8E4FF126CA8E4FF126C29
:10177E00A8E4FF126CA87F01126CA8E4FF126CA8FB
:10178E007F02126CA87F0C126CA8E4FF126CA8E406
:10179E00FF126CA8E4FF126CA8E4FF126CA87F0184
:1017AE00126CA8E4FF126CA87F03126CA87F0C12B7
:1017BE006CA87F60126CA87F0E126CA87F18126C3A
:1017CE00A8E4FF126CA87F01126CA8E4FF126CA8AB
:1017DE007F04126CA87F0C126CA8E4FF126CA87F19
:1017EE0001126CA87F07126CA87F14126CA87F01DF
:1017FE00126CA8E4FF126CA87F01126CA87F0C1269
:10180E006CA87F20126CA8E4FF126CA8E4FF126C87
:10181E00A8E4FF126CA87F01126CA8E4FF126CA85A
:10182E007F02126CA87F0C126CA8E4FF126CA8E465
:10183E00FF126CA8E4FF126CA8E4FF126CA87F01E3
:10184E00126CA8E4FF126CA87F03126CA87F0C1216
:10185E006CA87F60126CA87F0E126CA87F18126C99
:10186E00A8E4FF126CA87F01126CA8E4FF126CA80A
:10187E007F04126CA87F0C126CA8E4FF126CA87F78
:10188E0001126CA87F07126CA87F14126CA87F013E
:10189E00126CA8E4FF126CA87F01126CA87F0C12C8
:1018AE006CA87F21126CA8E4FF126CA8E4FF126CE6
:1018BE00A8E4FF126CA87F01126CA8E4FF126CA8BA
:1018CE007F02126CA87F0C126CA8E4FF126CA8E4C5
:1018DE00FF126CA8E4FF126CA8E4FF126CA87F0143
:1018EE00126CA8E4FF126CA87F03126CA87F0C1276
:1018FE006CA87F60126CA87F0E126CA87F18126CF9
:10190E00A8E4FF126CA87F01126CA8E4FF126CA869
:10191E007F04126CA87F0C126CA8E4FF126CA87FD7
:10192E0001126CA87F07126CA87F14126CA87F019D
:10193E00126CA8E4FF126CA87F01126CA87F0C1227
:10194E006CA87F22126CA8E4FF126CA8E4FF126C44
:10195E00A8E4FF126CA87F01126CA8E4FF126CA819
:10196E007F02126CA87F0C126CA8E4FF126CA8E424
:10197E00FF126CA8E4FF126CA8E4FF126CA87F01A2
:10198E00126CA8E4FF126CA87F03126CA87F0C12D5
:10199E006CA87F60126CA87F0E126CA87F18126C58
:1019AE00A8E4FF126CA87F01126CA8E4FF126CA8C9
:1019BE007F04126CA87F0C126CA8E4FF126CA87F37
:1019CE0001126CA87F07126CA87F14126CA87F01FD
:1019DE00126CA8E4FF126CA87F01126CA87F0C1287
:1019EE006CA87F23126CA8E4FF126CA8E4FF126CA3
:1019FE00A8E4FF126CA87F01126CA8E4FF126CA879
:101A0E007F02126CA87F0C126CA8E4FF126CA8E483
:101A1E00FF126CA8E4FF126CA8E4FF126CA87F0101
:101A2E00126CA8E4FF126CA87F03126CA87F0C1234
:101A3E006CA87F60126CA87F0E126CA87F18126CB7
:101A4E00A8E4FF126CA87F01126CA8E4FF126CA828
:101A5E007F04126CA87F0C126CA8E4FF126CA87F96
:101A6E0001126CA87F07126CA87F14126CA87F015C
:101A7E00126CA8E4FF126CA87F01126CA87F0C12E6
:101A8E006CA87F24126CA8E4FF126CA8E4FF126C01
:101A9E00A8E4FF126CA87F01126CA8E4FF126CA8D8
:101AAE007F02126CA87F0C126CA8E4FF126CA8E4E3
:101ABE00FF126CA8E4FF126CA8E4FF126CA87F0161
:101ACE00126CA8E4FF126CA87F03126CA87F0C1294
:101ADE006CA87F60126CA87F0E126CA87F18126C17
:101AEE00A8E4FF126CA87F01126CA8E4FF126CA888
:101AFE007F04126CA87F0C126CA8E4FF126CA87FF6
:101B0E0001126CA87F07126CA87F14126CA87F01BB
:101B1E00126CA8E4FF126CA87F01126CA87F0C1245
:101B2E006CA87F25126CA8E4FF126CA8E4FF126C5F
:101B3E00A8E4FF126CA87F01126CA8E4FF126CA837
:101B4E007F02126CA87F0C126CA8E4FF126CA8E442
:101B5E00FF126CA8E4FF126CA8E4FF126CA87F01C0
:101B6E00126CA8E4FF126CA87F03126CA87F0C12F3
:101B7E006CA87F60126CA87F0E126CA87F18126C76
:101B8E00A8E4FF126CA87F01126CA8E4FF126CA8E7
:101B9E007F04126CA87F0C126CA8E4FF126CA87F55
:101BAE0001126CA87F07126CA87F14126CA87F011B
:101BBE00126CA8E4FF126CA87F01126CA87F0C12A5
:101BCE006CA87F26126CA8E4FF126CA8E4FF126CBE
:101BDE00A8E4FF126CA87F01126CA8E4FF126CA897
:101BEE007F02126CA87F0C126CA8E4FF126CA8E4A2
:101BFE00FF126CA8E4FF126CA8E4FF126CA87F0120
:101C0E00126CA8E4FF126CA87F03126CA87F0C1252
:101C1E006CA87F60126CA87F0E126CA87F18126CD5
:101C2E00A8E4FF126CA87F01126CA8E4FF126CA846
:101C3E007F04126CA87F0C126CA8E4FF126CA87FB4
:101C4E0001126CA87F07126CA87F14126CA87F017A
:101C5E00126CA8E4FF126CA87F01126CA87F0C1204
:101C6E006CA87F27126CA8E4FF126CA8E4FF126C1C
:101C7E00A8E4FF126CA87F01126CA8E4FF126CA8F6
:101C8E007F02126CA87F0C126CA8E4FF126CA8E401
:101C9E00FF126CA8E4FF126CA8E4FF126CA87F017F
:101CAE00126CA8E4FF126CA87F03126CA87F0C12B2
:101CBE006CA87F60126CA87F0E126CA87F18126C35
:101CCE00A8E4FF126CA87F01126CA8E4FF126CA8A6
:101CDE007F04126CA87F0C126CA8E4FF126CA87F14
:101CEE0001126CA87F07126CA87F14126CA87F01DA
:101CFE00126CA8E4FF126CA87F01126CA87F0C1264
:101D0E006CA87F28126CA8E4FF126CA8E4FF126C7A
:101D1E00A8E4FF126CA87F01126CA8E4FF126CA855
:101D2E007F02126CA87F0C126CA8E4FF126CA8E460
:101D3E00FF126CA8E4FF126CA8E4FF126CA87F01DE
:101D4E00126CA8E4FF126CA87F03126CA87F0C1211
:101D5E006CA87F60126CA87F0E126CA87F18126C94
:101D6E00A8E4FF126CA87F01126CA8E4FF126CA805
:101D7E007F04126CA87F0C126CA8E4FF126CA87F73
:101D8E0001126CA87F07126CA87F14126CA87F0139
:101D9E00126CA8E4FF126CA87F01126CA87F0C12C3
:101DAE006CA87F29126CA8E4FF126CA8E4FF126CD9
:101DBE00A8E4FF126CA87F01126CA8E4FF126CA8B5
:101DCE007F02126CA87F0C126CA8E4FF126CA8E4C0
:101DDE00FF126CA8E4FF126CA8E4FF126CA87F013E
:101DEE00126CA8E4FF126CA87F03126CA87F0C1271
:101DFE006CA87F60126CA87F0E126CA87F18126CF4
:101E0E00A8E4FF126CA87F01126CA8E4FF126CA864
:101E1E007F04126CA87F0C126CA8E4FF126CA87FD2
:101E2E0001126CA87F07126CA87F14126CA87F0198
:101E3E00126CA8E4FF126CA87F01126CA87F0C1222
:101E4E006CA87F2A126CA8E4FF126CA8E4FF126C37
:101E5E00A8E4FF126CA87F01126CA8E4FF126CA814
:101E6E007F02126CA87F0C126CA8E4FF126CA8E41F
:101E7E00FF126CA8E4FF126CA8E4FF126CA87F019D
:101E8E00126CA8E4FF126CA87F03126CA87F0C12D0
:101E9E006CA87F60126CA87F0E126CA87F18126C53
:101EAE00A8E4FF126CA87F01126CA8E4FF126CA8C4
:101EBE007F04126CA87F0C126CA8E4FF126CA87F32
:101ECE0001126CA87F07126CA87F14126CA87F01F8
:101EDE00126CA8E4FF126CA87F01126CA87F0C1282
:101EEE006CA87F2B126CA8E4FF126CA8E4FF126C96
:101EFE00A8E4FF126CA87F01126CA8E4FF126CA874
:101F0E007F02126CA87F0C126CA8E4FF126CA8E47E
:101F1E00FF126CA8E4FF126CA8E4FF126CA87F01FC
:101F2E00126CA8E4FF126CA87F03126CA87F0C122F
:101F3E006CA87F60126CA87F0E126CA87F18126CB2
:101F4E00A8E4FF126CA87F01126CA8E4FF126CA823
:101F5E007F04126CA87F0C126CA8E4FF126CA87F91
:101F6E0001126CA87F07126CA87F14126CA87F0157
:101F7E00126CA8E4FF126CA87F01126CA87F0C12E1
:101F8E006CA87F2C126CA8E4FF126CA8E4FF126CF4
:101F9E00A8E4FF126CA87F01126CA8E4FF126CA8D3
:101FAE007F02126CA87F0C126CA8E4FF126CA8E4DE
:101FBE00FF126CA8E4FF126CA8E4FF126CA87F015C
:101FCE00126CA8E4FF126CA87F03126CA87F0C128F
:101FDE006CA87F60126CA87F0E126CA87F18126C12
:101FEE00A8E4FF126CA87F01126CA8E4FF126CA883
:101FFE007F04126CA87F0C126CA8E4FF126CA87FF1
:10200E0001126CA87F07126CA87F14126CA87F01B6
:10201E00126CA8E4FF126CA87F01126CA87F0C1240
:10202E006CA87F2D126CA8E4FF126CA8E4FF126C52
:10203E00A8E4FF126CA87F01126CA8E4FF126CA832
:10204E007F02126CA87F0C126CA8E4FF126CA8E43D
:10205E00FF126CA8E4FF126CA8E4FF126CA87F01BB
:10206E00126CA8E4FF126CA87F03126CA87F0C12EE
:10207E006CA87F60126CA87F0E126CA87F18126C71
:10208E00A8E4FF126CA87F01126CA8E4FF126CA8E2
:10209E007F04126CA87F0C126CA8E4FF126CA87F50
:1020AE0001126CA87F07126CA87F14126CA87F0116
:1020BE00126CA8E4FF126CA87F01126CA87F0C12A0
:1020CE006CA87F2E126CA8E4FF126CA8E4FF126CB1
:1020DE00A8E4FF126CA87F01126CA8E4FF126CA892
:1020EE007F02126CA87F0C126CA8E4FF126CA8E49D
:1020FE00FF126CA8E4FF126CA8E4FF126CA87F011B
:10210E00126CA8E4FF126CA87F03126CA87F0C124D
:10211E006CA87F60126CA87F0E126CA87F18126CD0
:10212E00A8E4FF126CA87F01126CA8E4FF126CA841
:10213E007F04126CA87F0C126CA8E4FF126CA87FAF
:10214E0001126CA87F07126CA87F14126CA87F0175
:10215E00126CA8E4FF126CA87F01126CA87F0C12FF
:10216E006CA87F2F126CA8E4FF126CA8E4FF126C0F
:10217E00A8E4FF126CA87F01126CA8E4FF126CA8F1
:10218E007F02126CA87F0C126CA8E4FF126CA8E4FC
:10219E00FF126CA8E4FF126CA8E4FF126CA87F017A
:1021AE00126CA8E4FF126CA87F03126CA87F0C12AD
:1021BE006CA87F60126CA87F0E126CA87F18126C30
:1021CE00A8E4FF126CA87F01126CA8E4FF126CA8A1
:1021DE007F04126CA87F0C126CA8E4FF126CA87F0F
:1021EE0001126CA87F07126CA87F14126CA87F01D5
:1021FE00126CA8E4FF126CA87F01126CA87F0C125F
:10220E006CA87F30126CA8E4FF126CA8E4FF126C6D
:10221E00A8E4FF126CA87F01126CA8E4FF126CA850
:10222E007F02126CA87F0C126CA8E4FF126CA8E45B
:10223E00FF126CA8E4FF126CA8E4FF126CA87F01D9
:10224E00126CA8E4FF126CA87F03126CA87F0C120C
:10225E006CA87F60126CA87F0E126CA87F18126C8F
:10226E00A8E4FF126CA87F01126CA8E4FF126CA800
:10227E007F04126CA87F0C126CA8E4FF126CA87F6E
:10228E0001126CA87F07126CA87F14126CA87F0134
:10229E00126CA8E4FF126CA87F01126CA87F0C12BE
:1022AE006CA87F31126CA8E4FF126CA8E4FF126CCC
:1022BE00A8E4FF126CA87F01126CA8E4FF126CA8B0
:1022CE007F02126CA87F0C126CA8E4FF126CA8E4BB
:1022DE00FF126CA8E4FF126CA8E4FF126CA87F0139
:1022EE00126CA8E4FF126CA87F03126CA87F0C126C
:1022FE006CA87F60126CA87F0E126CA87F18126CEF
:10230E00A8E4FF126CA87F01126CA8E4FF126CA85F
:10231E007F04126CA87F0C126CA8E4FF126CA87FCD
:0F232E0001126CA87F07126CA87F14126CA822F2
:05233D009002F6EFF034
:102342009002F87424F078F97C027D017BFF7A4ECA
:1023520079597E00FF123ED790031D7408F0781E53
:102362007C037D017BFF7A4E797D7E00FF123ED792
:102372009003267408F078277C037D017BFF7A4E58
:1023820079857E00FF123ED790032F7408F07830D3
:102392007C037D017BFF7A4E798D7E00FF123ED752
:1023A2009003387408F078397C037D017BFF7A4E04
:1023B20079957E00FF123ED79003417408F078426F
:1023C2007C037D017BFF7A4E799D7E00FF123ED712
:1023D20090034A7408F0784B7C037D017BFF7A4EB0
:1023E20079A57E00FF123ED79003537408F078540B
:1023F2007C037D017BFF7A4E79AD7E00FF123ED7D2
:1024020090035C7408F0785D7C037D017BFF7A4E5B
:1024120079B57E00FF123ED79003657408F07866A6
:102422007C037D017BFF7A4E79BD7E00FF123ED791
:1024320090036E7408F0786F7C037D017BFF7A4E07
:1024420079C57E00FF123ED79003777408F0787842
:102452007C037D017BFF7A4E79CD7E00FF123ED751
:102462009003807408F078817C037D017BFF7A4EB3
:1024720079D57E00FF123ED79003897408F0788ADE
:102482007C037D017BFF7A4E79DD7E00FF123ED711
:102492009003927408F078937C037D017BFF7A4E5F
:1024A20079E57E00FF123ED790039B7408F0789C7A
:1024B2007C037D017BFF7A4E79ED7E00FF123ED7D1
:1024C2009003A47408F078A57C037D017BFF7A4E0B
:1024D20079F57E00FF123ED79003AD7408F078AE16
:1024E2007C037D017BFF7A4E79FD7E00FF123ED791
:1024F2009003B67408F078B77C037D017BFF7A4FB6
:1025020079057E00FF123ED79003BF7408F078C0B1
:102512007C037D017BFF7A4F790D7E00FF123ED74F
:102522009003C87408F078C97C037D017BFF7A4F61
:1025320079157E00FF123ED79003D17408F078D24D
:102542007C037D017BFF7A4F791D7E00FF123ED70F
:102552009003DA7408F078DB7C037D017BFF7A4F0D
:1025620079257E00FF123ED7E49003E3F078E47C05
:10257200037D017BFF7A4F792DFE7F01123ED790BA
:1025820003E57408F078E67C037D017BFF7A4F79DE
:102592002E7E00FF123ED79003EE7408F078EF7C97
:1025A200037D017BFF7A4F79367E00FF123ED79082
:1025B20003F77408F078F87C037D017BFF7A4F798A
:1025C2003E7E00FF123ED79004007408F078017C32
:1025D200047D017BFF7A4F79467E00FF123ED79041
:1025E20004097408F0780A7C047D017BFF7A4F7934
:1025F2004E7E00FF123ED79004127408F078137CCE
:10260200047D017BFF7A4F79567E00FF123ED79000
:10261200041B7420F0781C7C047D017BFF7A4F79C7
:102622005E7E00FF123ED790043C7408F0783D7C39
:10263200047D017BFF7A4F797E7E00FF123ED790A8
:1026420004457408F078467C047D017BFF7A4F795B
:10265200867E00FF123ED79002F6E014B4210040BD
:102662000302304B90267475F003A4C58325F0C590
:1026720083730226D70227250227730227C1022865
:102682000F02285D0228AB0228F902294702299588
:102692000229E3022A31022A7F022ACD022B1B02DF
:1026A2002B69022BB7022C05022C53022CA1022CFF
:1026B200A4022CF2022D40022D8E022DDC022E2AC3
:1026C200022E78022EC6022F14022F62022CA102C1
:1026D2002FB0022FFDE49002F7F09002F8E0FF9095
:1026E20002F7E0FEC3EF6480F8EE648098400302D4
:1026F200304EE0FFFD3395E0FC74F92DF582740253
:102702003CF583E0FEEF3395E0FC74F42DF5827422
:10271200003CF583E06E600302303D9002F7E00476
:10272200F080B7E49002F7F090031DE0FF9002F70B
:10273200E0FEC3EF6480F8EE648098400302304EFE
:10274200E0FFFD3395E0FC741E2DF58274033CF529
:1027520083E0FEEF3395E0FC74F42DF58274003CC7
:10276200F583E06E600302303D9002F7E004F080F2
:10277200B7E49002F7F0900326E0FF9002F7E0FE44
:10278200C3EF6480F8EE648098400302304EE0FFAD
:10279200FD3395E0FC74272DF58274033CF583E04C
:1027A200FEEF3395E0FC74F42DF58274003CF58362
:1027B200E06E600302303D9002F7E004F080B7E47F
:1027C2009002F7F090032FE0FF9002F7E0FEC3EFD4
:1027D2006480F8EE648098400302304EE0FFFD33DF
:1027E20095E0FC74302DF58274033CF583E0FEEF36
:1027F2003395E0FC74F42DF58274003CF583E06EB1
:10280200600302303D9002F7E004F080B7E49002EA
:10281200F7F0900338E0FF9002F7E0FEC3EF648028
:10282200F8EE648098400302304EE0FFFD3395E0FD
:10283200FC74392DF58274033CF583E0FEEF339589
:10284200E0FC74F42DF58274003CF583E06E6003C5
:1028520002303D9002F7E004F080B7E49002F7F016
:10286200900341E0FF9002F7E0FEC3EF6480F8EED0
:10287200648098400302304EE0FFFD3395E0FC7423
:10288200422DF58274033CF583E0FEEF3395E0FCC4
:1028920074F42DF58274003CF583E06E600302301F
:1028A2003D9002F7E004F080B7E49002F7F0900365
:1028B2004AE0FF9002F7E0FEC3EF6480F8EE648026
:1028C20098400302304EE0FFFD3395E0FC744B2D3F
:1028D200F58274033CF583E0FEEF3395E0FC74F47B
:1028E2002DF58274003CF583E06E600302303D906A
:1028F20002F7E004F080B7E49002F7F0900353E0AF
:10290200FF9002F7E0FEC3EF6480F8EE6480984027
:102912000302304EE0FFFD3395E0FC74542DF58246
:1029220074033CF583E0FEEF3395E0FC74F42DF57F
:102932008274003CF583E06E600302303D9002F742
:10294200E004F080B7E49002F7F090035CE0FF90BF
:1029520002F7E0FEC3EF6480F8EE64809840030261
:10296200304EE0FFFD3395E0FC745D2DF58274037B
:102972003CF583E0FEEF3395E0FC74F42DF58274B0
:10298200003CF583E06E600302303D9002F7E00404
:10299200F080B7E49002F7F0900365E0FF9002F751
:1029A200E0FEC3EF6480F8EE648098400302304E8C
:1029B200E0FFFD3395E0FC74662DF58274033CF56F
:1029C20083E0FEEF3395E0FC74F42DF58274003C55
:1029D200F583E06E600302303D9002F7E004F08080
:1029E200B7E49002F7F090036EE0FF9002F7E0FE8A
:1029F200C3EF6480F8EE648098400302304EE0FF3B
:102A0200FD3395E0FC746F2DF58274033CF583E091
:102A1200FEEF3395E0FC74F42DF58274003CF583EF
:102A2200E06E600302303D9002F7E004F080B7E40C
:102A32009002F7F0900377E0FF9002F7E0FEC3EF19
:102A42006480F8EE648098400302304EE0FFFD336C
:102A520095E0FC74782DF58274033CF583E0FEEF7B
:102A62003395E0FC74F42DF58274003CF583E06E3E
:102A7200600302303D9002F7E004F080B7E4900278
:102A8200F7F0900380E0FF9002F7E0FEC3EF64806E
:102A9200F8EE648098400302304EE0FFFD3395E08B
:102AA200FC74812DF58274033CF583E0FEEF3395CF
:102AB200E0FC74F42DF58274003CF583E06E600353
:102AC20002303D9002F7E004F080B7E49002F7F0A4
:102AD200900389E0FF9002F7E0FEC3EF6480F8EE16
:102AE200648098400302304EE0FFFD3395E0FC74B1
:102AF2008A2DF58274033CF583E0FEEF3395E0FC0A
:102B020074F42DF58274003CF583E06E60030230AC
:102B12003D9002F7E004F080B7E49002F7F09003F2
:102B220092E0FF9002F7E0FEC3EF6480F8EE64806B
:102B320098400302304EE0FFFD3395E0FC74932D84
:102B4200F58274033CF583E0FEEF3395E0FC74F408
:102B52002DF58274003CF583E06E600302303D90F7
:102B620002F7E004F080B7E49002F7F090039BE0F4
:102B7200FF9002F7E0FEC3EF6480F8EE64809840B5
:102B82000302304EE0FFFD3395E0FC749C2DF5828C
:102B920074033CF583E0FEEF3395E0FC74F42DF50D
:102BA2008274003CF583E06E600302303D9002F7D0
:102BB200E004F080B7E49002F7F09003A4E0FF9005
:102BC20002F7E0FEC3EF6480F8EE648098400302EF
:102BD200304EE0FFFD3395E0FC74A52DF5827403C1
:102BE2003CF583E0FEEF3395E0FC74F42DF582743E
:102BF200003CF583E06E600302303D9002F7E00492
:102C0200F080B7E49002F7F09003ADE0FF9002F796
:102C1200E0FEC3EF6480F8EE648098400302304E19
:102C2200E0FFFD3395E0FC74AE2DF58274033CF5B4
:102C320083E0FEEF3395E0FC74F42DF58274003CE2
:102C4200F583E06E600302303D9002F7E004F0800D
:102C5200B7E49002F7F09003B6E0FF9002F7E0FECF
:102C6200C3EF6480F8EE648098400302304EE0FFC8
:102C7200FD3395E0FC74B72DF58274033CF583E0D7
:102C8200FEEF3395E0FC74F42DF58274003CF5837D
:102C9200E06E600302303D9002F7E004F080B77FFF
:102CA2000022E49002F7F09003C8E0FF9002F7E000
:102CB200FEC3EF6480F8EE648098400302304EE079
:102CC200FFFD3395E0FC74C92DF58274033CF58356
:102CD200E0FEEF3395E0FC74F42DF58274003CF5D0
:102CE20083E06E600302303D9002F7E004F080B7AB
:102CF200E49002F7F09003D1E0FF9002F7E0FEC308
:102D0200EF6480F8EE648098400302304EE0FFFDED
:102D12003395E0FC74D22DF58274033CF583E0FE1A
:102D2200EF3395E0FC74F42DF58274003CF583E0FA
:102D32006E600302303D9002F7E004F080B7E49049
:102D420002F7F09003DAE0FF9002F7E0FEC3EF64CF
:102D520080F8EE648098400302304EE0FFFD339528
:102D6200E0FC74DB2DF58274033CF583E0FEEF3367
:102D720095E0FC74F42DF58274003CF583E06E60FE
:102D82000302303D9002F7E004F080B7E49002F7CE
:102D9200F09003E3E0FF9002F7E0FEC3EF6480F8F7
:102DA200EE648098400302304EE0FFFD3395E0FC74
:102DB20074E42DF58274033CF583E0FEEF3395E075
:102DC200FC74F42DF58274003CF583E06E6003021E
:102DD200303D9002F7E004F080B7E49002F7F09003
:102DE20003E5E0FF9002F7E0FEC3EF6480F8EE64D3
:102DF2008098400302304EE0FFFD3395E0FC74E61C
:102E02002DF58274033CF583E0FEEF3395E0FC740C
:102E1200F42DF58274003CF583E06E600302303DD0
:102E22009002F7E004F080B7E49002F7F09003EE2E
:102E3200E0FF9002F7E0FEC3EF6480F8EE64809852
:102E4200400302304EE0FFFD3395E0FC74EF2DF5B8
:102E52008274033CF583E0FEEF3395E0FC74F42DBD
:102E6200F58274003CF583E06E600302303D90020F
:102E7200F7E004F080B7E49002F7F09003F7E0FF88
:102E82009002F7E0FEC3EF6480F8EE64809840039E
:102E920002304EE0FFFD3395E0FC74F82DF58274AC
:102EA200033CF583E0FEEF3395E0FC74F42DF582EC
:102EB20074003CF583E06E600302303D9002F7E05F
:102EC20004F080B7E49002F7F0900400E0FF900273
:102ED200F7E0FEC3EF6480F8EE64809840030230AE
:102EE2004EE0FFFD3395E0FC74012DF58274043C45
:102EF200F583E0FEEF3395E0FC74F42DF582740067
:102F02003CF583E06E600302303D9002F7E004F08E
:102F120080B7E49002F7F0900409E0FF9002F7E036
:102F2200FEC3EF6480F8EE648098400302304EE006
:102F3200FFFD3395E0FC740A2DF58274043CF583A1
:102F4200E0FEEF3395E0FC74F42DF58274003CF55D
:102F520083E06E600302303D9002F7E004F080B738
:102F6200E49002F7F0900412E0FF9002F7E0FEC353
:102F7200EF6480F8EE648098400302304EE0FFFD7B
:102F82003395E0FC74132DF58274043CF583E0FE66
:102F9200EF3395E0FC74F42DF58274003CF583E088
:102FA2006E600302303D9002F7E004F080B7E490D7
:102FB20002F7F090043CE0FF9002F7E0FEC3EF64FA
:102FC20080F8EE648098400302304EE0FFFD3395B6
:102FD200E0FC743D2DF58274043CF583E0FEEF3392
:102FE20095E0FC74F42DF58274003CF583E06E608C
:102FF2000280489002F7E004F080B8E49002F7F013
:10300200900445E0FF9002F7E0FEC3EF6480F8EE23
:103012006480985037E0FFFD3395E0FC74462DF54F
:103022008274043CF583E0FEEF3395E0FC74F42DEA
:10303200F58274003CF583E06E60069002F6E0FFD4
:0E304200229002F7E004F080B77F00227F00AA
:01305000225D
:106DE500E4F5957596FFC2A1C2A253E1EF43E21007
:016DF500227B
:096E07007F0F126E10D2FC7F0F08
:076E1000AE071FEE70FA222D
:0269D300AB0710
:1069D5007A80C2A3EDB40104C2A48002D2A4EAD392
:1069E50094004011C2FCEA5B24FF92A7126E07EAED
:0E69F500C313FA80E9C2FCD2A7126E07D2A328
:016A03002270
:106D3C003EF583E5822DF582E43583F583E493FFFC
:056D4C00E4FD0269D323
:076EBE007FAE126EC57F8D4F
:056EC5007D010269D30C
:10627B00E4FFFE9002F6F0A3F00FBF00010EBE7517
:10628B00F8BF30F57FAE126EC57FD5126EC57F801D
:10629B00126EC57FA8126EC57F27126EC57FD312F3
:1062AB006EC5E4FF126EC57F40126EC07F14126E76
:1062BB00C57FA1126EC57FC8126EC57FDA126EC57F
:1062CB007F12126EC57F81126EC57FAF126EC57FB6
:1062DB00D9126EC57F25126EC57FDB126EC57F206E
:1062EB00126EC57FA4126EC57FA6126EC57FAF124C
:0562FB006EC5026A659A
:106E1700126EBE7F10126EC5126EA0C2E9026E918D
:0B6ECA00126EBE7F10126EC5C2E922DE
:106DF600D2E97F8D126EC57F14126EC57FAF026E0B
:016E0600C5C6
:066EAF00F0EB540FA3F00C
:096EB500EF540F44B0FF026EC55A
:086B9D00FF126EB5E92408FFA8
:106BA500AC0774202CFC540FFF126EC5AF04EFC464
:086BB500540F4410FF026EC5ED
:106A6500E49002F8F09002F8E0FFC394055020E4AA
:106A7500F9126EB5E4FF126BA5E9C394605008E402
:0F6A8500FF126D4C0980F29002F8E004F080D609
:016A940022DF
:0B6451009002F6EBF0A3EAF0A3E9F0E4
:10645C00E4A3F0A3F0A3F0A3F09002F9E0FFC3943F
:10646C00055045E4A3F0126EB5E4FF126BA5900243
:10647C00FAE0C3946050299002F6E0FBA3E0FAA383
:10648C00E0F99002FBE475F001123FE285F082F531
:10649C0083123F38FF126D4C9002FAE004F080CE6C
:0864AC009002F9E004F080B158
:0164B40022C5
:0B454F009004CFEBF0A3EAF0A3E9F02A
:10455A00E4A3F0A3F09004CFE0FBA3E0FAA3E0F910
:10456A00123F1F70030248599004D2E0F9C3940C19
:10457A0050087F01126EB5E08014E9C39418400315
:10458A000248597F03126EB59004D2E024F475F004
:10459A0008A4FF126BA59004CFE0FBA3E0FAA3E006
:1045AA00F9123F1FFFC3648094B0404DD3EF64807B
:1045BA0094B95045E49004D3F09004D3E0FDC39439
:1045CA000840030246DC9004CFE0FBA3E0FAA3E034
:1045DA00F9123F1FFF3395E0FEEFC4F8540FC86885
:1045EA00FFEEC454F048FE74312FF582742F126D19
:1045FA003C9004D3E004F080C09004CFE0FBA3E039
:10460A00FAA3E0F9123F1FFFC3648094E1404DD33F
:10461A00EF648094FA5045E49004D3F09004D3E018
:10462A00FDC3940840030246DC9004CFE0FBA3E0FC
:10463A00FAA3E0F9123F1FFF3395E0FEEFC4F854E6
:10464A000FC868FFEEC454F048FE74212FF5827437
:10465A002D126D3C9004D3E004F080C09004CFE0AA
:10466A00FBA3E0FAA3E0F9123F1FFFC3648094C1E1
:10467A00404AD3EF648094DA5042E49004D3F09035
:10468A0004D3E0FDC3940850499004CFE0FBA3E0B3
:10469A00FAA3E0F9123F1FFF3395E0FEEFC4F85486
:1046AA000FC868FFEEC454F048FE74C12FF5827437
:1046BA0030126D3C9004D3E004F080C3E49004D33C
:1046CA00F0E4FF126D4C9004D3E004F0E0C39408C8
:1046DA0040EF9004D2E0F9C3940C50087F02126EA6
:1046EA00B5E08014E9C3941840030248597F0412C4
:1046FA006EB59004D2E024F475F008A4FF126BA5FD
:10470A009004CFE0FBA3E0FAA3E0F9123F1FFFC336
:10471A00648094B0404DD3EF648094B95045E490DE
:10472A0004D3F09004D3E0FDC39408400302484642
:10473A009004CFE0FBA3E0FAA3E0F9123F1FFF3396
:10474A0095E0FEEFC4F8540FC868FFEEC454F04871
:10475A00FE74392FF582742F126D3C9004D3E00455
:10476A00F080C09004CFE0FBA3E0FAA3E0F9123F87
:10477A001FFFC3648094E1404DD3EF648094FA50E4
:10478A0045E49004D3F09004D3E0FDC394084003B9
:10479A000248469004CFE0FBA3E0FAA3E0F9123FF7
:1047AA001FFF3395E0FEEFC4F8540FC868FFEEC44C
:1047BA0054F048FE74292FF582742D126D3C900432
:1047CA00D3E004F080C09004CFE0FBA3E0FAA3E0BA
:1047DA00F9123F1FFFC3648094C1404AD3EF64803B
:1047EA0094DA5042E49004D3F09004D3E0FDC394E9
:1047FA000850499004CFE0FBA3E0FAA3E0F9123F86
:10480A001FFF3395E0FEEFC4F8540FC868FFEEC4EB
:10481A0054F048FE74C92FF5827430126D3C90042E
:10482A00D3E004F080C3E49004D3F0E4FF126D4CAB
:10483A009004D3E004F0E0C3940840EF9004D2E07F
:0F484A0004F09004D0E475F001123FCC02455FFA
:01485900223C
:075DD800A9059004EEEFF0B5
:105DDF00E4FCEBC4540FA3126EAFAF01126BA5E43A
:105DEF00FC9004EFE0C454F02431F582E43432F532
:105DFF0083E5822C126D420CECB408E59004EEE0C2
:105E0F0004FF126EB5AF01126BA5E4FC9004EFE036
:105E1F00C454F02439F582E43432F583E5822C1230
:105E2F006D420CECB408E59004EEE0126B9DE4FCBF
:105E3F00EC64079004F0601BE0C454F02431F58249
:105E4F00E43432F583E5822CF582E43583F583E47F
:105E5F0093801BE0C454F02431F582E43432F5838F
:105E6F00E5822CF582E43583F583E4934401FF1238
:105E7F006D4C0CECB408B99004EEE004126B9DE489
:105E8F00FC9004F0E0C454F02439F582E43432F588
:0C5E9F0083E5822C126D420CECB408E587
:015EAB0022D4
:0B63E5009004E3EBF0A3EAF0A3E9F062
:1063F000E4A3F09004E3E0FBA3E0FAA3E0F9A3E058
:10640000FFF582758300123F38FB6044EFC39406AA
:10641000500C9004E6E0C454F0FD7F018027900406
:10642000E6E0FFC3940C5028EF24FAC454F0FD902A
:1064300004E3E0FBA3E0FAA3E0F98F827583001286
:106440003F38FB7F03125DD89004E6E004F080A3A0
:016450002229
:045A3B00AA07AC0505
:105A3F00E4F9EBC4540F900317126EAFAF04126B5F
:105A4F00A5900317E0FFC39400402BEFD3940950A8
:105A5F0025E4900317E075F005A429F582E435F0ED
:105A6F00F583E58224A1F582E5833430126D470971
:105A7F00E9B405DE803A900317E0FFC3940A5003A0
:105A8F00025B33EFD3940F4003025B33E4F99003CF
:105A9F0017E075F005A429F582E435F0F583E5826A
:105AAF0024C4F582E5833430126D4709E9B405DE6D
:105ABF00E4FF126D4C900318E0FFC39400402CEFED
:105ACF00D394095026E4F9900318E075F005A42942
:105ADF00F582E435F0F583E58224A1F582E5833480
:105AEF0030126D4709E9B405DE8034900318E0FFEA
:105AFF00C3940A402FEFD3940F5029E4F990031861
:105B0F00E075F005A429F582E435F0F583E58224EC
:105B1F00C4F582E5833430126D4709E9B405DE7FA1
:045B2F0003126D4CA4
:015B3300224F
:0B543D0090030DEBF0A3EAF0A3E9F0F0
:10544800E4126B7C90030DE0FBA3E0FAA3E0F912F1
:105458003F1FFB70030254FA900310E0FFC3940847
:10546800500AEF75F00CA4FD7F018070900310E0E6
:10547800FFC39410501BEF24F875F00CA4FD9003A3
:105488000DE0FBA3E0FAA3E0F9123F1FFB7F0280C7
:105498004B900310E0FFC39418501BEF24F075F0F5
:1054A8000CA4FD90030DE0FBA3E0FAA3E0F9123F82
:1054B8001FFB7F038026900310E0FFC39420400366
:1054C80002559BEF24E875F00CA4FD90030DE0FB5A
:1054D800A3E0FAA3E0F9123F1FFB7F04125A3B90A6
:1054E800030EE475F001123FCC900310E004F002C3
:1054F800544C900310E0FFC394085016EF7F01123C
:1055080067E0900310E00475F006A4FD7B207F019E
:105518008075900310E0FFC394105019EF24F07FBA
:10552800021267E0900310E024F175F006A4FD7BF9
:10553800207F028052900310E0FFC394185020EFA0
:1055480024E075F006A4FD7B207F031267E7900333
:1055580010E024E175F006A4FD7B207F03802890ED
:105568000310E0FFC39420502AEF24D075F006A45E
:10557800FD7B207F041267E7900310E024D175F0CB
:1055880006A4FD7B207F041267E7900310E004F077
:035598000254FAC0
:01559B0022ED
:0767E00075F006A4FD7B200B
:0767E700900457EDF0A90337
:1067EE00E4FC126EB5E0FF126BA5E4FC75F005E952
:1067FE00A42CF582E435F0F583E58224B1F582E52B
:10680E0083342F126D470CECB405E1E4FF026D4C9E
:0B57F9009002F8EBF0A3EAF0A3E9F047
:10580400E4A3F0126B7C9002F8E0FBA3E0FAA3E0BF
:10581400F9123F1FFB70030258B59002FBE0FFC36F
:105824009410500AEF75F006A4FD7F01806D90027C
:10583400FBE0FFC39420501BEF24F075F006A4FD99
:105844009002F8E0FBA3E0FAA3E0F9123F1FFB7F0C
:105854000280489002FBE0FFC39430501BEF24E029
:1058640075F006A4FD9002F8E0FBA3E0FAA3E0F9CA
:10587400123F1FFB7F0380239002FBE0FFC3944091
:10588400502FEF24D075F006A4FD9002F8E0FBA39E
:10589400E0FAA3E0F9123F1FFB7F041267E79002CE
:1058A400F9E475F001123FCC9002FBE004F00258D9
:1058B4000A9002FBE0FFC39410500CEF75F006A4AD
:1058C400FD7B207F0180469002FBE0FFC3942050C3
:1058D4000EEF24F075F006A4FD7B207F02802E904D
:1058E40002FBE0FFC39430500EEF24E075F006A4F1
:1058F400FD7B207F0380169002FBE0FFC3944050A1
:1059040017EF24D075F006A4FD7B207F041267E70F
:085914009002FBE004F0809911
:01591C002268
:066B7C00A3F0A3F0FDFFF1
:026B8200AC0560
:106B8400A904126EB5AF04126BA5E9C39460500852
:086B9400E4FF126D4C0980F2D0
:016B9C0022D6
:106BBD007401A807088002C333D8FCF59DE4F5BD28
:0F6BCD00EF4488F5BC7F02126CF8D2ADD2AF2234
:03002B00025F5D14
:0D5F5D00C0E0C0F0C083C082C0D075D00885
:105F6A0090044EE4F0A3F0FFFEA3F0A3F0C2ADF557
:105F7A00BC126E557F03126CE190044EE4F0A3EF5D
:105F8A00F0126E557F03126CE17E0090044EE0FC25
:105F9A00A3E0FDD39FEC9E401DED9FFBEC9EFAC350
:105FAA00EB9423EA9400504EED2FFFEE3CC313FE10
:105FBA00EF13FFA38030C3ED9FEC9E502C90044E4C
:105FCA00E0FCA3E0FDC3EF9DFDEE9CFCC3ED942332
:105FDA00EC94005021E02FFF90044EE03EC313FEE4
:105FEA00EF13FF900450EE800990044EE0FFA3E007
:085FFA00A3CFF0A3EFF0D2AD3C
:0B600200D0D0D082D083D0F0D0E032AC
:106CE100E4F5BDEF4488F5BC00000000E5BC30E4EC
:076CF100FB75BC00AFBD22E2
:106B5A00AC07E4123D529004D5E0F8A3E0F9A3E0B3
:106B6A00FAA3E0FB123B29E4FBFA79807843123C52
:026B7A003222C5
:106AC400E4FDFCF5BDF5BEEF4488F5BC0000000014
:106AD400E5BC30E4FB75BC00AFBDEF75F004A4FD6C
:096AE400ACF0AFBEED4FAE04FFB3
:016AED002286
:10005E00AD07AC06E4123D4D9004C6E0F8A3E0F9FE
:10006E00A3E0FAA3E0FB123B29E4FBFA7980784483
:04007E00123C3222DC
:106CF800AE071FEE60107C137D88ED1DAA0470019D
:066D08001C4A60EC80F45F
:016D0E002262
:106A3D004202E800004100F1004100F2004100F384
:016A4D000048
:106A950053B13F43B2C0E5A2543F4440F5A25387EA
:106AA5007F759850438E40538EFE53890F4389203E
:0F6AB500758BFA758DFAC2ABD28ED2ACD2AF22EE
:0F6C9900A3E475F001123FE2A9F0FA123F1FFFCA
:096CA8002000FDEFD200F5992255
:106AEE009004F1EBF0A3EAF0A3E9F09004F1E0FBDF
:106AFE00A3E0FAA3E0F9123F1F60089004F1126CB4
:046B0E009980E82260
:0300230002681E52
:10681E00C0E0C0F0C083C082C0D075D00830981BD5
:10682E00C2989002E8E475F001123FE2FE74F4257E
:10683E00F0F58274003EF583E599F0309904C29923
:0D684E00C200D0D0D082D083D0F0D0E03294
:0300430002685BF5
:10685B00C0E0C083C082C0D075D008E59A30E01785
:10686B00539AFE9000F1E0FF04F074002FF582E4E0
:10687B003400F583E59BF0E59A30E105539AFDC2B0
:0A688B0001D0D0D082D083D0E032DB
:096ED5002001FDEFD201F59B2222
:10696D009002F8EBF0A3EAF0A3E9F09002F8E0FB57
:10697D00A3E0FAA3E0F9123F1F60179002F8A3E419
:10698D0075F001123FE2A9F0FA123F1FFF126ED50A
:03699D0080D9227C
:106CB10053BAFE759A50438E0475D7C075D6FD43FD
:086CC1008E1075AF01D2AF2265
:106D26007E027FF49000F4E4F0A3DFFCDEFAE49048
:056D360002E8F0A3F0EB
:016D3B002235
:0F6E27007F64900000E4F0A3DFFCE49000F1F042
:016E36002239
:106C160043BA0275AC1043AC4043D10275D5D0756A
:0B6C2600D4FF43D10843AF08D2AF22D7
:03008B00026C4CB8
:106C4C00C0E0E5AC30E00653ACFE85AD80E5AC3081
:0A6C5C00E10553ACFDC202D0E032A6
:096EDE002002FDEFD202F5AD2205
:1069A0009004F4EBF0A3EAF0A3E9F09004F4E0FB28
:1069B000A3E0FAA3E0F9123F1F60179004F4A3E4E8
:1069C00075F001123FE2A9F0FA123F1FFF126EDECE
:0369D00080D92249
:106C310043BA0475841043844043D12075D3D07581
:0B6C4100D2FF43D18043AF10D2AF223E
:03009300026C6696
:106C6600C0E0E58430E0065384FE858580E5843007
:0A6C7600E1055384FDC203D0E032B3
:096EE7002003FDEFD203F5852222
:106B12009004F7EBF0A3EAF0A3E9F09004F7E0FBAE
:106B2200A3E0FAA3E0F9123F1F60089004F7126C89
:046B32009980E8223C
:0D003600E4F5C7F5C5F5C675C380F5C42215
:106CC90075C78175C5018FC4EEF5C375C65A75C6FA
:076CD900A500AFC212003656
:016CE0002291
:106C800075C78175C5028FC4EEF5C3AF058FC27598
:096C9000C65A75C6A500020036C3
:106D510075C78175C5038FC4EEF5C375C65A75C66F
:056D6100A50002003650
:105B34009004B1EEF0A3EFF09004B5EBF0A3EAF01B
:0B5B4400A3E9F09004B3ECF0A3EDF037
:105B4F00E49004B8F0A3F0FFA3F0A3F0D3ED9420FA
:105B5F00EC94004001229004B1E0FCA3E0FDEC5472
:105B6F0001FEAF059004B4E02FFF9004B3E03EFEBA
:105B7F00D3EF9420EE940040037F0022AF05AE04D4
:105B8F00126D51E49004B8F0A3F09004B3E0FEA3BB
:105B9F00E0FF9004B8E0FCA3E0FDC39FEC9E5067CC
:105BAF009004B1E0FEA3E0FF9004B5E0FBA3E0FAA0
:105BBF00A3E0F98D828C83123F38FD126C80900424
:105BCF00B1E0FEA3E0FF126CC99004B5E0FBA3E0C7
:105BDF00FAA3E0F9A3E0FCA3E0F5828C83123F382F
:105BEF006F60061200367F00229004B2E004F0705E
:105BFF00069004B1E004F09004B9E004F0708B90CB
:0C5C0F0004B8E004F080831200367F012E
:015C1B002266
:1052B7009004A2EEF0A3EFF09004A6EBF0A3EAF0BF
:0B52C700A3E9F09004A4ECF0A3EDF0CC
:1052D200E49004A9F0A3F0A3F0A3F0A3F0A3F0A339
:1052E200F0A3F0D3ED9420EC940040037F002290D1
:1052F20004A2E0FCA3E0FDEC5401FEAF059004AB78
:10530200F0A3EFF09004A5E02FFF9004A4E03EFE8E
:10531200D3EF9420EE940040037F0022EC54FEFE73
:105322007F009004ADF0A3EFF0A3EEF0A3EFF090B6
:1053320004A9F0A3F09004AFE475F001123FE2AFCC
:10534200F0FE126CC99004A9A3E02422F8A607E09B
:1053520004F070069004A9E004F0C39004AAE0945B
:10536200209004A9E0940040CCE49004A9F0A3F0BA
:105372009004A4E0FEA3E0FF9004A9E0FCA3E0FDFA
:10538200C39FEC9E50349004A6E0FBA3E0FAA3E096
:10539200F98D828C83123F38FF9004ABE475F001E3
:1053A200123FE2742225F0F8A6079004AAE004F066
:1053B20070069004A9E004F080B69004ADE0FEA36C
:1053C200E0FF126D519004ADE0FFA3E0A3CFF0A384
:1053D200EFF0E49004A9F0A3F09004A9E0FCA3E0AC
:1053E200FDC39420EC9400504C9004AFE0FEA3E087
:1053F200FF74222DF8E6FD126C809004A2E0FEA359
:10540200E0FF126CC99004A9A3E02422F8E66F60C1
:10541200061200367F00229004B0E004F07006907D
:1054220004AFE004F09004AAE004F070069004A92E
:0A543200E004F080A41200367F01B0
:01543C00224D
:046A4E004104DF32EE
:10690400E5A254CFF5A2E4F5D8F5E9F5F975D90275
:10691400F5F275EA2075FA2075DA4275F34075EBE5
:106924002075FB2075DB4275F48075EC2075FC2026
:0669340075DC42D2DE22F8
:1066C400E4F5B4F5B343BA80F5F190FFF2F090FF2E
:1066D400F07403F0A374E8F090FF20E4F0A3F0FC5E
:1066E400FDFE7BE87A03F9F8123FF8E47B64FAF9DB
:1066F400F812675990FF22EEF0A3EFF0A37408F0AC
:0B67040043F50443F58053BA7F80FE8C
:10670F00E4F5CAF5C943BA80F5F190FFF2F090FFB6
:10671F00F07403F0A374E8F090FF30E4F0A3F0FC02
:10672F00FDFE7BE87A03F9F8123FF8E47B64FAF98F
:10673F00F812675990FF32EEF0A3EFF0A37408F050
:0A674F0043F50843F58053BA7F229A
:106BDC00EF75F064A4FFAEF0C374109F900500F045
:0F6BEC0074279E9004FFF0E49004DEF0026D8B9E
:03009B000260BA46
:1060BA00C0E0C0F0C083C082C0D075D000C000C0AC
:1060CA0001C002C003C004C005C006C0079004DEB8
:1060DA00E070389004E2E0FF75F012A4F404F5D5FC
:1060EA00E4FCFDFE7B12FAF9F8123FF8C3E49FFFC5
:1060FA00E49EFE74019DFDE49CFC78081240558FD5
:10610A00D4D2A09004DE7401F080359004E0E0FF60
:10611A0075F012A4F404F5D5E4FCFDFE7B12FAF93D
:10612A00F8123FF8C3E49FFFE49EFE74019DFDE46C
:10613A009CFC78081240558FD4C2A09004DEE4F08B
:10614A00D007D006D005D004D003D002D001D000A9
:0B615A00D0D0D082D083D0F0D0E03253
:0A5C1C009002F9ECF0A3EDF0AB07E5
:105C2600A312407500000000EB14601914602214E2
:105C36006037146028240470309002FB12407546C9
:105C4600900000802E9002FB124075462CCC0080FE
:105C5600229002FB12407545ACC80080169002FBEC
:105C660012407544ACC000800A9002FB1240754594
:105C76002CD0005394BF5393BF43BA80E4F5F19000
:105C8600FFF27403F09002FBE0FCA3E0FDA3E0FE4C
:105C9600A3E0FF123D8690FFF0EEF0A3EFF090FF39
:105CA60050E4F0A3F0FBFA79C878429002FBE0FCDE
:105CB600A3E0FDA3E0FEA3E0FF123C32C004C00552
:105CC600C006C0079002F9E0FCA3E0FDE4123D4DDA
:105CD600D003D002D001D000123B29123D8690FF9E
:105CE60052EEF0A3EFF0A37408F043F52043F580DD
:035CF60053BA7F1F
:015CF9002288
:0561F1009004D9EFF05D
:1061F600A312407546D800005395FB5395FB43BA4E
:1062060080E4F5F190FFF27407F09004DAE0FCA365
:10621600E0FDA3E0FEA3E0FF123D8690FFF0EEF066
:10622600A3EFF090FF20E4F0A3F0FBFA79C87842E0
:106236009004DAE0FCA3E0FDA3E0FEA3E0FF123C3D
:1062460032C004C005C006C0079004D9E0FCE412C1
:106256003D52D003D002D001D000123B29123D8618
:1062660090FF22EEF0A3EFF0A3E4F043F50443F52C
:046276008053BA7F18
:01627A002201
:105EAC00900505EFF09004DFE024F6602724FB60FA
:105EBC003A24FB605224E2606A24D87003025F4BE0
:105ECC0024556003025F5C900505E06401600302E9
:105EDC005F5C802C900505E0B40102803F900505C5
:105EEC00E0F4706C9004DF74058060900505E0B4FC
:105EFC0001079004DF74148052900505E0F4705093
:105F0C009004DF740A8044900505E0B40107900406
:105F1C00DF74328036900505E0F470349004DF7441
:105F2C000F8028900505E0B401079004DF745A80B7
:105F3C001A900505E0B4FF189004DF7414800C90DF
:105F4C000505E0B4FF0A9004DF7432F0FF1261F132
:015F5C002222
:10662200900501EEF0A3EFF0438E805389F09005C0
:1066320001E0FEA3E0FFE4FCFD7B16FAF9F8123F4D
:10664200F8EFF404F58A900501E0FEA3E0FFE4FC14
:10665200FD7B16FAF9F8123FF8C3E49FFFE49EFEB1
:1066620074019DFDE49CFC78081240558F8CC28D0C
:03667200D28C22A5
:106D7900E5A254F34404F5A2E4F5CF75CDC075CE70
:026D8900502296
:03004B00026F132E
:066F130075CDC0D29132E1
:0A6A52004204E700004204E90000DE
:03000B0002512B74
:10512B00C0E0C0F0C083C082C0D075D000C000C04A
:0D513B0001C002C003C004C005C006C007CB
:10514800900452E4F0A3124075000000009004E8B7
:10515800E004F070069004E7E004F09004EAE0044C
:10516800F070069004E9E004F09004E7A3E0FF1271
:105178006CA8C39004E8E094FA9004E7E094005027
:10518800030252581256CD9004CA1240699004CABC
:10519800E0FCA3E0FDA3E0FEA3E0FF123D86EF756F
:1051A800F00A842430FBE4FD7F031267E79004CA09
:1051B800E0FCA3E0FDA3E0FEA3E0FF123D86EF754F
:1051C800F00A84E5F02430FB7D067F031267E77B55
:1051D8002E7D0C7F031267E7E4FFFE7DC87C4290BA
:1051E80004CAE0F8A3E0F9A3E0FAA3E0FB123B2924
:1051F800123D867C007D64123F777E007F0ACFCD0A
:10520800CFCECCCE123F77EF2430FB7D127F031236
:1052180067E7E4FFFE7DC87C429004CAE0F8A3E09B
:10522800F9A3E0FAA3E0FB123B29123D867C007D3E
:105238000A123F77ED2430FB7D187F031267E79051
:1052480004CA124075000000009004E7E4F0A3F0DF
:10525800C39004EAE094B89004E9E0940B40351256
:1052680064B59004CEEFF075F00A842430FBE4FDB9
:105278007F041267E79004CEE075F00A84E5F02415
:1052880030FB7D067F041267E79004CEE4F09004BB
:04529800E9F0A3F0A6
:10529C00D007D006D005D004D003D002D001D00066
:0B52AC00D0D0D082D083D0F0D0E03210
:106D0F00538E7F5389F0C2B9E4F58A758C70C28DAA
:076D1F00D28CD2A9D2AF22F1
:106D8B0053D1FD75D501E4F5D443D10843AF20D2DF
:026D9B00AF2225
:03000300020012E6
:0100120032BB
:096EF000D2B2D288D2A8D2AF229E
:03001300020026C2
:0100260032A7
:096EF900D2B3C28AD2AAD2AF22A0
:0300530002002781
:0100270032A6
:066F1900438F10D2AF22ED
:03005B0002002878
:0100280032A5
:066F1F00438F20D2AF22D7
:030083000200294F
:0100290032A4
:066F2500438F40D2AF22B1
:0300330002000EBA
:04000E005387DF3203
:086F0B005387DFD2AED2AF22A2
:106D9D007D3C7C00E4FF125C1C126E5553F5DFC286
:026DAD0086223C
:106DAF007D3C7C007F03125C1C126E8253F5DFC2A8
:026DBF0086222A
:106DC1007D3C7C007F03125C1C126E7353F5DFC2A5
:026DD100862218
:096F0200AD07AC067F04025C1C23
:106DD3007D3C7C007F04125C1C126E9153F5DFC274
:026DE300862206
:066F2B008FAA75AB802265
:106895002055534220636861726765200A002055C0
:1068A500534220636861726765200020555342207A
:1068B500206F6666736574200A00205553422020B8
:0868C5006F6666736574200024
:046A5C004105060AE0
:106B360053CBF143CC0E53CBFE53CCFEC2E9D2EA83
:106B4600D2EBD2E8E4F5B375B401C2C1D2E9126E54
:046B5600A0D2C122E6
:105CFA00E4900475F0A3F0A3F0A3F0A3F0A312407C
:105D0A007500000000E490047EF0A3F07F04126A9C
:105D1A00C4900477EEF0A3EFF0C3900476E09F906E
:105D2A000475E09E500F900477E0FFA3E09004759D
:105D3A00CFF0A3EFF0120006900479E004F0E0C37C
:105D4A00940A40C8900475E0FCA3E0FDE4123D4DBE
:105D5A00A804A905AA06AB077F0A7ED77DA37C44BF
:105D6A00123C3290047A12406990047AE0FCA3E073
:105D7A00FDA3E0FEA3E0FF123D867C007D64123F96
:105D8A0065AC06AD07E4123D4DC004C005C006C0AF
:105D9A0007E4FFFE7DC87C4290047AE0F8A3E0F9AC
:105DAA00A3E0FAA3E0FB123B29D003D002D001D032
:105DBA0000123A34123D8690047EEEF0A3EFF09082
:0D5DCA00047AE0FCA3E0FDA3E0FEA3E0FFEF
:015DD70022A9
:1064B500E4900457F0125CFA900458124069E4FF26
:1064C500FEFDFC900458E0F8A3E0F9A3E0FAA3E090
:1064D500FB123CCF60377FCD7ECC7D2C7CC09004F9
:1064E50058E0F8A3E0F9A3E0FAA3E0FB123A38E498
:1064F500FBFA79C87842123B297BFE7AFF79BF788F
:0F6505003F123C32123D86900457EFF0227F0088
:016514002264
:1056CD0090046B12407500000000E490046FF0A38D
:1056DD00F0125CFA900471124069900470E0C3946A
:1056ED000A50247F05126AC4900470E025E0245707
:1056FD00F582E43404F583EEF0A3EFF0120006908A
:10570D000470E004F080D3900463E0FEA3E0FF900A
:10571D00045EE02FFF90045DE03EFE90046AE02FF2
:10572D00FF900469E03EFE7C007D03123F77AD07DC
:10573D00AC06E4123D4D900471E0F8A3E0F9A3E04E
:10574D00FAA3E0FB123B297BE77AFB7979783F12CC
:10575D003B29E4FBFA79D478C3123A38E4FBFA79A1
:10576D00C87840123C3290046B12406990046BE093
:10577D00FCA3E0FDA3E0FEA3E0FF123D867C007DCF
:10578D0064123F65AC06AD07E4123D4DC004C00583
:10579D00C006C007E4FFFE7DC87C4290046BE0F8B4
:1057AD00A3E0F9A3E0FAA3E0FB123B29D003D0025A
:1057BD00D001D000123A34123D8690046FEFF0E420
:1057CD00FFFE7DAA7C4290046BE0F8A3E0F9A3E014
:1057DD00FAA3E0FB123CCF60044002C2E990046BD7
:0B57ED00E0FCA3E0FDA3E0FEA3E0FF52
:0157F800228E
:106A04004393805394FE7BFF3087137A6879951201
:106A14006B127BFF7A6879A31257F97F01227A6897
:106A240079B0126B127BFF7A6879BF1257F97F0035
:016A3400223F
:10485A004E4F203A20005331203A20005332203A5A
:10486A0020005333203A20005334203A2000533595
:10487A00203A2000204D41494E204D454E55200AF0
:10488A00200020554846204D4F44452000205548D9
:10489A0046204D4F4445200A2000204254204D4FC7
:1048AA0044452000204254204D4F4445200A200010
:1048BA002054455354204D4F44452000205445531D
:1048CA0054204D4F4445200A20002042415454456B
:1048DA005254204D4F4445200020424154544552E1
:1048EA0059204D4F4445200A200020425A204D4F5E
:1048FA004445200020425A204D4F4445200A2000BA
:10490A00204F4C45445F74696D696E672073657406
:10491A002000204F4C45445F74696D696E672073AF
:10492A006574200A2000204F4C45445F425A207388
:10493A0065742000204F4C45445F425A20736574C9
:10494A00200A2000202153797374656D5F506F77B8
:10495A0065725F5663635F4F4E5F4F4646200A207B
:10496A00002055313420706F77657220676F6F644D
:10497A0020002055313420706F77657220676F6F81
:10498A0064200A20002055313420706F7765722028
:10499A004E47204F4350204F545020002055313469
:1049AA0020706F776572204E47204F4350204F5436
:1049BA0050200A2000204E205653454C200020212A
:1049CA005653454C200A2000204E204259502000C0
:1049DA002021425950200A20002042415454455275
:1049EA0059A1A14D4F444520494E2000204241542F
:1049FA0054455259A1A14D4F444520494E200A2001
:104A0A000020425A204D4F444520494E2000204262
:104A1A005A204D4F444520494E200A2000204F4C31
:104A2A004544206765742072656164696E67207405
:104A3A00696D696E672000204F4C45445F74696D4B
:104A4A00696E67206765742072656164696E6720A4
:104A5A0074696D696E67200A2000204F4C45442016
:104A6A006765742077726974696E672074696D6905
:104A7A006E672000204F4C45445F74696D696E670C
:104A8A00206765742077726974696E672074696D2E
:104A9A00696E67200A2000204F4C45445F74696D97
:104AAA00696E672073657420494E2000204F4C457B
:104ABA00445F74696D696E672073657420494E207E
:104ACA000A2000204F4C45445F425A20757020004E
:104ADA00204F4C45445F425A207570200A2000201E
:104AEA004F4C45445F425A20646F776E2000204F36
:104AFA004C45445F425A20646F776E200A2000209A
:104B0A004F4C45445F425A2073657420494E200039
:104B1A00204F4C45445F425A2073657420494E2009
:104B2A000A2000204E4F54205345542000204E4F57
:094B3A005420534554200A2000C8
:046A600041050700E5
:10600D00E49002F6F0A3F0A3F07F03126CE190028E
:10601D00F6EFF0C394CD40037F0022126E557F033F
:10602D00126CE19002F7EFF0126E557F03126CE1E6
:10603D009002F8EFF09002F7E02FFFE433C313EF77
:10604D00139002F6F0126E557F03126CE1EFD394AC
:10605D00CD4002800A7F03126CE1126CA880E6909D
:10606D0002F6E0C394125006126D9D7F012290023C
:10607D00F6E0C3943B5006126D9D7F02229002F60E
:10608D00E0C394695006126D9D7F03229002F6E0E5
:10609D00C3949B5006126D9D7F04229002F6E0C3BF
:0C60AD0094CD5006126D9D7F05227F00EF
:0160B90022C4
:104F8E00E49004FAF0A3F0A3F07F03126CE1900416
:104F9E00FAEFF0C394CD4030126E557BFF7A48790C
:104FAE005A126AEE7FFF126CA89004FAE0FF126CA0
:104FBE00A87BFF7A48795A126B129004FAE0FF121E
:104FCE006CA853F5DF7F0022126E917F03126CE105
:104FDE009004FBEFF0126E557F03126CE19004FC0F
:104FEE00EFF09004FBE02FFFE433C313EF139004B4
:104FFE00FAF0C3941250337BFF7A487960126AEE4E
:10500E007FFF126CA89004FAE0FF126CA87BFF7A67
:10501E00487960126B129004FAE0FF126CA87D3C86
:10502E007C007F01125C1C7F01229004FAE0C39485
:10503E003B50337BFF7A487966126AEE7FFF126C23
:10504E00A89004FAE0FF126CA87BFF7A48796012F0
:10505E006B129004FAE0FF126CA87D3C7C007F027C
:10506E00125C1C7F02229004FAE0C3946950337BD9
:10507E00FF7A48796C126AEE7FFF126CA89004FAE0
:10508E00E0FF126CA87BFF7A48796C126B129004C9
