:030000000260405B
:0C604000787FE4F6D8FD7581420260878D
:106B83005331200A20005332200A20005333200AB5
:106B930020005334200A20004552524F52200A202D
:016BA30000F1
:1063E000E4900D18F0126DE7126ACC126CD6126CA4
:1063F0003D126B61126E1D126157125F0F900D18E6
:10640000EFF060F624FE601514601A146022146028
:106410002F240470357BFF7A6B798380337BFF7A7E
:106420006B798980067BFF7A6B798F126A118010F5
:106430007BFF7A6B7995126A11E4900DABF08004C2
:10644000900D18E0FF12448B80B07BFF7A6B799B34
:05645000126A1180A595
:0D00160053CB1F43CCE043CB1043CC102252
:05636700900D91EFF024
:10636C00E4A3F0A3F0126E3E7F01126EE57FFC12E7
:10637C006EE57F01126EE57F01126EE5900D91E0E6
:10638C00FF126EE5126E4E9008F1E070037FFF2253
:10639C009008F1E0FF900D92E0FCA3E0FDC39F7428
:1063AC0080F8EC648098501F74002DF58274083CC2
:1063BC00F583E0FF126EDC900D93E004F070D19049
:1063CC000D92E004F080C9900802E0B401037F0153
:0363DC00227FFF1E
:0163DF00229B
:10694500126E3E7F01126EE57FFC126EE57F02122C
:106955006EE5E4FF126EE5126E4E9008F1E06405F7
:1069650060037FFF22900803E0B40104A3E0FF2247
:036975007FFF227F
:0C0036007F547EF77D18DDFEDEFCDFFA53
:01004200229B
:0E6E4E0000007F027EAF7D4BDDFEDEFCDFFA32
:016E5C002213
:0E6E5D0000007F0D7E9C7D53DDFEDEFCDFFA23
:016E6B002204
:0E6E6C0000007F017ED87D23DDFEDEFCDFFA14
:016E7A0022F5
:0E6E7B0000007F2B7E067DCBDDFEDEFCDFFA05
:016E890022E6
:0E6E8A0000007FFD7E237DDCDDFEDEFCDFFAF6
:016E980022D7
:0E6E990000007F117ED07D1BDDFEDEFCDFFAE7
:016EA70022C8
:0E6EA80000007F057E347DC3DDFEDEFCDFFAD8
:016EB60022B9
:040006007F0EDFFE8C
:01000A0022D3
:0E6EB70000007F097E687D8BDDFEDEFCDFFAC9
:016EC50022AA
:105420004E4F5420205265616420434D440A0020B1
:10543000696E64795F7265616474656D7020737400
:10544000617274200D0A0020696E64795F72656173
:105450006474656D7020656E64200D0A0024034934
:10546000006D00700069006E006A005300650072F4
:1054700000690061006C004E0075006D0030003165
:10548000004003BFFCBFFCBFFC0000010012002174
:1054900000000010000000000000000500000000F7
:1054A00000000006000000000000001000000000E6
:1054B000000000110088E1F3C000000000F00006C9
:1054C00002000001001200210000000200A000A064
:1054D00002000000030000000000000200A000A085
:1054E000020000611B020600000000050000000031
:1054F000000000020701000000000005000000009D
:1055000000000004070000000000000507D00700AD
:105510000000000607DC0000000000070700200074
:10552000000000120BFFFF0F00000005000000004C
:105530000000000005000000000000000500000061
:105540000000000006000000000000000500000050
:105550000000000005000000000000000600000040
:105560000000010000000200000027000000872E5C
:105570000D0001000100020000008F2E0D00000050
:105580000000000005000000000000000600000010
:02559000000019
:0839B500410C92FF410C93004C
:0B6518007B027F047A00E4FDFC7E0A99
:10652300900D63EEF0A3EFF0A3ECF0A3EDF0A3EA7C
:10653300F0A3EBF07F01126EDCE4FF126EDC900D32
:1065430063A3E0FF126EDC900D63E0FF126EDC903C
:106553000D67A3E0FF126EDC900D67E0FF126EDCA7
:10656300900D65A3E0FF126EDC900D65E0FF026EF7
:01657300DC4B
:1068D800900DA0EEF0A3EFF0E4FF126EDCE4FF12DF
:1068E8006EDC900DA0A3E0FF126EDC900DA0E0FF1F
:1068F800126EDCE4FF126EDCE4FF126EDCE4FF12C1
:076908006EDCE4FF026EDC0F
:10593F00E4FF900C72E0900C95F0E4900C94F090D2
:10594F000C94E0FEFD3395E0FC74732DF582740C1E
:10595F003CF583E0FDEEFB3395E0FA74962BF58270
:10596F00740C3AF583EDF0900C94E004F0E0B40C75
:10597F00CEE4900C94F0900C94E0FEFD3395E0FC97
:10598F00747F2DF582740C3CF583E0FDEEFB3395AF
:10599F00E0FA74A22BF582740C3AF583EDF0900CBB
:1059AF0094E004F0E0B402CE900C94740FF0900CDD
:1059BF0094E0FEC3648094A0501AEEFD3395E0FC92
:1059CF0074952DF582740C3CF583E4F0900C94E003
:1059DF0004F080DAE4900C94F0900C94E0FEC36431
:1059EF008094A0501BEEFD3395E0FC74952DF5824D
:1059FF00740C3CF583E02FFF900C94E004F080D9F9
:105A0F00EF900CB4F0E4900C94F0900C94E0FFC382
:105A1F00648094A0501CEF3395E0FE74952FF582AF
:105A2F00740C3EF583E0FF126EE5900C94E004F0E9
:025A3F0080D80D
:015A41002242
:10657400E4900C72F0FFEFFD3395E0FC74732DF59D
:1065840082740C3CF583E4F00FEFB40CE9E4FFEF04
:10659400FD3395E0FC747F2DF582740C3CF583E4A7
:1065A400F00FEFB402E9E4FFC3EF64809480501568
:1065B400EFFD3395E0FC74812DF582740C3CF5837A
:0A65C400E4F00F80E3E4900C91F086
:0165CE0022AA
:104E6600900CF07401F0E4A3F0A3F074FFA3F0A398
:104E7600F0E4A3F0A3F0A3F0A3F0A3F0A3F0A3F053
:104E8600A3F0A3F0A3F0A3F0A37412F0E4A3F0C27E
:104E960011C212A3F0900CF5E0FEA3E024F4F58213
:104EA60074083EF583E0640160030250FC900CF543
:104EB600A3E0FF24F5F58274083EF583E0900D0229
:104EC600F074F72FF58274083EF583E0FE900CF53A
:104ED600E0FCA3E0FD24F6F58274083CF583E07A55
:104EE600002400FFEA3E900CF3F0A3EFF074F92DD6
:104EF600F58274083CF583E0FE900CF5A3E024F8F7
:104F0600F58274083CF583E02400FFEA3E900CF13C
:104F1600F0A3EFF0ED2408FFE43C900CF7F0FCA3BF
:104F2600EFF0FD900CF1E0FAA3E0FBAE027802C3CD
:104F360033CE33CED8F92DFFEE3C900CF9F0A3EF2B
:104F4600F0EB2402FFE43AFEEF7802C333CE33CE11
:104F5600D8F9FF900CF6E02FF0900CF5E03EF090BB
:104F66000CF3E07004A3E064057061900CF8E02493
:104F76000EFE900CF7E03400900CFBF0A3CEF0E4AC
:104F8600900CEEF0A3F0900CEEE0FEA3E0FF900C88
:104F9600FCE02FFD900CFBE03EFC74F42DF58274D2
:104FA600083CF583E0FD74732FF582740C3EF5839F
:104FB600EDF0900CEFE004F07006900CEEE004F0DB
:104FC600900CEEE07004A3E0640C70BA900CF3E071
:104FD6007004A3E064066003024E9B900D02E0603D
:104FE600030250FC900CF7E0FEA3E0FF24F8F582E4
:104FF60074083EF583E064C260030250F0EF240CAF
:10500600FFE43E900CFDF0A3EFF0900C72E024FE5E
:10501600605C1470030250C3240260030250E6E48D
:10502600900CEEF0A3F0900CEEE0FEA3E0FF900CE7
:10503600FEE02FFD900CFDE03EFC74F42DF582742D
:10504600083CF583E0FD747F2FF582740C3EF583F2
:10505600EDF0900CEFE004F07006900CEEE004F03A
:10506600900CEEE07004A3E0640270BA8069E490EC
:105076000CEEF0A3F0900CEEE0FEA3E0FF900CFE29
:10508600E02FFD900CFDE03EFC74F42DF5827408D3
:105096003CF583E0FD747F2FF582740C3EF583EDBD
:1050A600F0900CEFE004F07006900CEEE004F09047
:1050B6000CEEE07004A3E0640270BA801AE4900C6F
:1050C6007FF0900CFDE0FEA3E024F5F58274083E27
:1050D600F583E0900C80F0900C93E004F0024E9B78
:1050E600E4900C92F0A3F0024E9B7BFF7A54792059
:0650F6001269AB024E9BA3
:0150FC002291
:10675700E4900DA2F0A3F0FBFAFDFC7F027E0A1283
:1067670065237B0C7F0312651C126518E4FBFAFD99
:10677700FC7F067E0A1265237B107A00E4FDFCFF8E
:106787007EF01265231200369008F4E0B40107C2C8
:06679700AC124E66D2AC0C
:01679D0022D9
:10667400E4900DA4F0A3F0FBFAFDFC7F027E0A1265
:1066840065237B0D7A00E4FDFC7F037E0A126523FB
:10669400126518E4FBFAFDFC7F067E0A1265237B73
:1066A400087A00E4FDFCFF7EF012652312003690A8
:0D66B40008F4E0B40107C2AC124E66D2AC8F
:0166C10022B6
:105CEB00E4900D85F0A3F07BFF7A54792F1269AB0A
:105CFB00E4FBFAFDFC7F027E0A1265237B0E7A0021
:105D0B00E4FDFC7F037E0A126523126518E4FBFA9F
:105D1B00FDFC7F067E0A1265237B077A00E4FDFCFF
:105D2B00FF7EF0126523126D34120036900AE8A341
:105D3B00E0FF126EE5900AE8E0FFA3E0900D85CF3F
:105D4B00F0A3EFF07F55126EE5900D85A3E0FF12E7
:105D5B006EE5E4900D87F0A3F0900D85E0FEA3E0D7
:105D6B00FFA3E0FCA3E0FDC39FEE6480F8EC64802E
:105D7B0098501F74F42DF58274083CF583E0FF12E4
:105D8B006EE5900D88E004F07006900D87E004F04E
:105D9B0080C79008F4E0B40107C2AC124E66D2ACD7
:095DAB007BFF7A5479470269ABD1
:1067E200E4FF900800E060379008F1E0C39408509D
:1067F20003E4FE22E4FEEEFD3395E0FC74002DF589
:106802008274083CF583E02FFF0EEEB407E890088F
:1068120007E0B507057E007F0122126E3E8000E48C
:02682200FEFF77
:016824002251
:10009E00EF14B42200400302233C9000B675F00327
:1000AE00A4C58325F0C5837302011C02012502013C
:1000BE002E0201300201320203A902013502014370
:1000CE0002015102015F02016D02017B02018F02EA
:1000DE0001A30201B70201F302020702026B020240
:1000EE007F0202930202A70202BB0202CF02233C4E
:1000FE0002030B0203470203A902035B02039602EB
:10010E0003A90203BC0203D40203A90203FC7FC0AD
:10011E00126EDC7F0680337F40126EDC7F03802AF6
:10012E00802F8003020347E4FF126EDCE4FF126EA1
:10013E00DC7F108058E4FF126EDCE4FF126EDC7F71
:10014E0011804AE4FF126EDCE4FF126EDCE4FF80E5
:10015E003CE4FF126EDCE4FF126EDC7F01802EE4C5
:10016E00FF126EDCE4FF126EDC7F028020E4FF12D1
:10017E006EDCE4FF126EDCE4FF126EDC7F03020322
:10018E00E5E4FF126EDCE4FF126EDC7F02126EDC21
:10019E00E4FF0203E5E4FF126EDCE4FF126EDC7F87
:1001AE0061126EDC7F1B0203E57F01126EDCE4FF41
:1001BE00126EDC7F01126EDC7F07126EDCE4FF1222
:1001CE006EDCE4FF126EDCE4FF126EDCE4FF126EF6
:1001DE00DCE4FF126EDCE4FF126EDC7F05126EDCD7
:1001EE00E4FF0203E5E4FF126EDCE4FF126EDC7F37
:1001FE0002126EDC7F070203E57F01126EDCE4FF64
:10020E00126EDC7F02126EDC7F07126EDC7F011233
:10021E006EDCE4FF126EDCE4FF126EDCE4FF126EA5
:10022E00DC7F01126EDCE4FF126EDC7F01126EDCED
:10023E007F07126EDCE4FF126EDCE4FF126EDCE46C
:10024E00FF126EDCE4FF126EDCE4FF126EDCE4FFE4
:10025E00126EDC7F05126EDCE4FF0203E5E4FF1292
:10026E006EDCE4FF126EDC7F04126EDC7F0702038D
:10027E00E5E4FF126EDCE4FF126EDC7F05126EDC2D
:10028E007F070203E5E4FF126EDCE4FF126EDC7FF3
:10029E0006126EDC7F070203E5E4FF126EDCE4FF5C
:1002AE00126EDC7F07126EDC7F070203E5E4FF129D
:1002BE006EDCE4FF126EDC7F12126EDC7F0B02032B
:1002CE00E57F01126EDCE4FF126EDC7F01126EDC44
:1002DE007F07126EDCE4FF126EDCE4FF126EDCE4CC
:1002EE00FF126EDCE4FF126EDCE4FF126EDCE4FF44
:1002FE00126EDC7F05126EDCE4FF0203E57F011255
:10030E006EDCE4FF126EDC7F0A126EDC7F01126E71
:10031E00DC7FF8126EDC7F59126EDC7F0D126EDC04
:10032E00E4FF126EDCE4FF126EDCE4FF126EDC7F83
:10033E0005126EDCE4FF0203E5E4FF126EDCE4FF5F
:10034E00126EDC7F05126EDCE4FF0203E57F011204
:10035E006EDCE4FF126EDC7F08126EDC7F01126E23
:10036E00DC7F01126EDC7F01126EDCE4FF126EDCAC
:10037E00E4FF126EDCE4FF126EDCE4FF126EDC7F33
:10038E0005126EDCE4FF804FE4FF126EDCE4FF1218
:10039E006EDC7F05126EDCE4FF803CE4FF126EDC47
:1003AE00E4FF126EDC7F06126EDCE4FF80297F0113
:1003BE00126EDCE4FF126EDCE4FF126EDC7FF012D4
:1003CE006EDC7F278016E4FF126EDCE4FF126EDC1B
:1003DE007F05126EDCE4FF126EDCE4FF126EDCE4CD
:1003EE00FF126EDCE4FF126EDCE4FF0223397F01A4
:1003FE00126EDCE4FF126EDC7F01126EDC7F0C12DB
:10040E006EDCE4FF126EDCE4FF126EDCE4FF126EB3
:10041E00DCE4FF126EDC7F01126EDCE4FF126EDC98
:10042E007F02126EDC7F0C126EDC7F01126EDCE43A
:10043E00FF126EDCE4FF126EDCE4FF126EDC7F0155
:10044E00126EDCE4FF126EDC7F03126EDC7F0C1288
:10045E006EDC7F70126EDC7F0D126EDC7F18126EFA
:10046E00DCE4FF126EDC7F01126EDCE4FF126EDC48
:10047E007F04126EDC7F0C126EDCE4FF126EDC7FEA
:10048E0001126EDC7F07126EDC7F14126EDC7F01B0
:10049E00126EDCE4FF126EDC7F01126EDC7F0C123A
:1004AE006EDC7F01126EDCE4FF126EDCE4FF126E76
:1004BE00DCE4FF126EDC7F01126EDCE4FF126EDCF8
:1004CE007F02126EDC7F0C126EDC7F01126EDCE49A
:1004DE00FF126EDCE4FF126EDCE4FF126EDC7F01B5
:1004EE00126EDCE4FF126EDC7F03126EDC7F0C12E8
:1004FE006EDC7F84126EDC7F0D126EDC7F18126E46
:10050E00DCE4FF126EDC7F01126EDCE4FF126EDCA7
:10051E007F04126EDC7F0C126EDCE4FF126EDC7F49
:10052E0001126EDC7F07126EDC7F14126EDC7F010F
:10053E00126EDCE4FF126EDC7F01126EDC7F0C1299
:10054E006EDC7F02126EDCE4FF126EDCE4FF126ED4
:10055E00DCE4FF126EDC7F01126EDCE4FF126EDC57
:10056E007F02126EDC7F0C126EDC7F01126EDCE4F9
:10057E00FF126EDCE4FF126EDCE4FF126EDC7F0114
:10058E00126EDCE4FF126EDC7F03126EDC7F0C1247
:10059E006EDC7F98126EDC7F0D126EDC7F18126E91
:1005AE00DCE4FF126EDC7F01126EDCE4FF126EDC07
:1005BE007F04126EDC7F0C126EDCE4FF126EDC7FA9
:1005CE0001126EDC7F07126EDC7F14126EDC7F016F
:1005DE00126EDCE4FF126EDC7F01126EDC7F0C12F9
:1005EE006EDC7F03126EDCE4FF126EDCE4FF126E33
:1005FE00DCE4FF126EDC7F01126EDCE4FF126EDCB7
:10060E007F02126EDC7F0C126EDC7F01126EDCE458
:10061E00FF126EDCE4FF126EDCE4FF126EDC7F0173
:10062E00126EDCE4FF126EDC7F03126EDC7F0C12A6
:10063E006EDC7FAC126EDC7F0D126EDC7F18126EDC
:10064E00DCE4FF126EDC7F01126EDCE4FF126EDC66
:10065E007F04126EDC7F0C126EDCE4FF126EDC7F08
:10066E0001126EDC7F07126EDC7F14126EDC7F01CE
:10067E00126EDCE4FF126EDC7F01126EDC7F0C1258
:10068E006EDC7F04126EDCE4FF126EDCE4FF126E91
:10069E00DCE4FF126EDC7F01126EDCE4FF126EDC16
:1006AE007F02126EDC7F0C126EDC7F01126EDCE4B8
:1006BE00FF126EDCE4FF126EDCE4FF126EDC7F01D3
:1006CE00126EDCE4FF126EDC7F03126EDC7F0C1206
:1006DE006EDC7FC0126EDC7F0D126EDC7F18126E28
:1006EE00DCE4FF126EDC7F01126EDCE4FF126EDCC6
:1006FE007F04126EDC7F0C126EDCE4FF126EDC7F68
:10070E0001126EDC7F07126EDC7F14126EDC7F012D
:10071E00126EDCE4FF126EDC7F01126EDC7F0C12B7
:10072E006EDC7F05126EDCE4FF126EDCE4FF126EEF
:10073E00DCE4FF126EDC7F01126EDCE4FF126EDC75
:10074E007F02126EDC7F0C126EDC7F01126EDCE417
:10075E00FF126EDCE4FF126EDCE4FF126EDC7F0132
:10076E00126EDCE4FF126EDC7F03126EDC7F0C1265
:10077E006EDC7FD4126EDC7F0D126EDC7F18126E73
:10078E00DCE4FF126EDC7F01126EDCE4FF126EDC25
:10079E007F04126EDC7F0C126EDCE4FF126EDC7FC7
:1007AE0001126EDC7F07126EDC7F14126EDC7F018D
:1007BE00126EDCE4FF126EDC7F01126EDC7F0C1217
:1007CE006EDC7F06126EDCE4FF126EDCE4FF126E4E
:1007DE00DCE4FF126EDC7F01126EDCE4FF126EDCD5
:1007EE007F02126EDC7F0C126EDC7F01126EDCE477
:1007FE00FF126EDCE4FF126EDCE4FF126EDC7F0192
:10080E00126EDCE4FF126EDC7F03126EDC7F0C12C4
:10081E006EDC7FE8126EDC7F0D126EDC7F18126EBE
:10082E00DCE4FF126EDC7F01126EDCE4FF126EDC84
:10083E007F04126EDC7F0C126EDCE4FF126EDC7F26
:10084E0001126EDC7F07126EDC7F14126EDC7F01EC
:10085E00126EDCE4FF126EDC7F01126EDC7F0C1276
:10086E006EDC7F07126EDCE4FF126EDCE4FF126EAC
:10087E00DCE4FF126EDC7F01126EDCE4FF126EDC34
:10088E007F02126EDC7F0C126EDC7F01126EDCE4D6
:10089E00FF126EDCE4FF126EDCE4FF126EDC7F01F1
:1008AE00126EDCE4FF126EDC7F03126EDC7F0C1224
:1008BE006EDC7FFC126EDC7F0D126EDC7F18126E0A
:1008CE00DCE4FF126EDC7F01126EDCE4FF126EDCE4
:1008DE007F04126EDC7F0C126EDCE4FF126EDC7F86
:1008EE0001126EDC7F07126EDC7F14126EDC7F014C
:1008FE00126EDCE4FF126EDC7F01126EDC7F0C12D6
:10090E006EDC7F08126EDCE4FF126EDCE4FF126E0A
:10091E00DCE4FF126EDC7F01126EDCE4FF126EDC93
:10092E007F02126EDC7F0C126EDC7F01126EDCE435
:10093E00FF126EDCE4FF126EDCE4FF126EDC7F0150
:10094E00126EDCE4FF126EDC7F03126EDC7F0C1283
:10095E006EDC7F10126EDC7F0E126EDC7F18126E54
:10096E00DCE4FF126EDC7F01126EDCE4FF126EDC43
:10097E007F04126EDC7F0C126EDCE4FF126EDC7FE5
:10098E0001126EDC7F07126EDC7F14126EDC7F01AB
:10099E00126EDCE4FF126EDC7F01126EDC7F0C1235
:1009AE006EDC7F09126EDCE4FF126EDCE4FF126E69
:1009BE00DCE4FF126EDC7F01126EDCE4FF126EDCF3
:1009CE007F02126EDC7F0C126EDC7F01126EDCE495
:1009DE00FF126EDCE4FF126EDCE4FF126EDC7F01B0
:1009EE00126EDCE4FF126EDC7F03126EDC7F0C12E3
:1009FE006EDC7F24126EDC7F0E126EDC7F18126EA0
:100A0E00DCE4FF126EDC7F01126EDCE4FF126EDCA2
:100A1E007F04126EDC7F0C126EDCE4FF126EDC7F44
:100A2E0001126EDC7F07126EDC7F14126EDC7F010A
:100A3E00126EDCE4FF126EDC7F01126EDC7F0C1294
:100A4E006EDC7F0A126EDCE4FF126EDCE4FF126EC7
:100A5E00DCE4FF126EDC7F01126EDCE4FF126EDC52
:100A6E007F02126EDC7F0C126EDC7F01126EDCE4F4
:100A7E00FF126EDCE4FF126EDCE4FF126EDC7F010F
:100A8E00126EDCE4FF126EDC7F03126EDC7F0C1242
:100A9E006EDC7F38126EDC7F0E126EDC7F18126EEB
:100AAE00DCE4FF126EDC7F01126EDCE4FF126EDC02
:100ABE007F04126EDC7F0C126EDCE4FF126EDC7FA4
:100ACE0001126EDC7F07126EDC7F14126EDC7F016A
:100ADE00126EDCE4FF126EDC7F01126EDC7F0C12F4
:100AEE006EDC7F0B126EDCE4FF126EDCE4FF126E26
:100AFE00DCE4FF126EDC7F01126EDCE4FF126EDCB2
:100B0E007F02126EDC7F0C126EDC7F01126EDCE453
:100B1E00FF126EDCE4FF126EDCE4FF126EDC7F016E
:100B2E00126EDCE4FF126EDC7F03126EDC7F0C12A1
:100B3E006EDC7F4C126EDC7F0E126EDC7F18126E36
:100B4E00DCE4FF126EDC7F01126EDCE4FF126EDC61
:100B5E007F04126EDC7F0C126EDCE4FF126EDC7F03
:100B6E0001126EDC7F07126EDC7F14126EDC7F01C9
:100B7E00126EDCE4FF126EDC7F01126EDC7F0C1253
:100B8E006EDC7F0C126EDCE4FF126EDCE4FF126E84
:100B9E00DCE4FF126EDC7F01126EDCE4FF126EDC11
:100BAE007F02126EDC7F0C126EDC7F01126EDCE4B3
:100BBE00FF126EDCE4FF126EDCE4FF126EDC7F01CE
:100BCE00126EDCE4FF126EDC7F03126EDC7F0C1201
:100BDE006EDC7F60126EDC7F0E126EDC7F18126E82
:100BEE00DCE4FF126EDC7F01126EDCE4FF126EDCC1
:100BFE007F04126EDC7F0C126EDCE4FF126EDC7F63
:100C0E0001126EDC7F07126EDC7F14126EDC7F0128
:100C1E00126EDCE4FF126EDC7F01126EDC7F0C12B2
:100C2E006EDC7F0D126EDCE4FF126EDCE4FF126EE2
:100C3E00DCE4FF126EDC7F01126EDCE4FF126EDC70
:100C4E007F02126EDC7F0C126EDCE4FF126EDCE4AF
:100C5E00FF126EDCE4FF126EDCE4FF126EDC7F012D
:100C6E00126EDCE4FF126EDC7F03126EDC7F0C1260
:100C7E006EDC7F60126EDC7F0E126EDC7F18126EE1
:100C8E00DCE4FF126EDC7F01126EDCE4FF126EDC20
:100C9E007F04126EDC7F0C126EDCE4FF126EDC7FC2
:100CAE0001126EDC7F07126EDC7F14126EDC7F0188
:100CBE00126EDCE4FF126EDC7F01126EDC7F0C1212
:100CCE006EDC7F0E126EDCE4FF126EDCE4FF126E41
:100CDE00DCE4FF126EDC7F01126EDCE4FF126EDCD0
:100CEE007F02126EDC7F0C126EDCE4FF126EDCE40F
:100CFE00FF126EDCE4FF126EDCE4FF126EDC7F018D
:100D0E00126EDCE4FF126EDC7F03126EDC7F0C12BF
:100D1E006EDC7F60126EDC7F0E126EDC7F18126E40
:100D2E00DCE4FF126EDC7F01126EDCE4FF126EDC7F
:100D3E007F04126EDC7F0C126EDCE4FF126EDC7F21
:100D4E0001126EDC7F07126EDC7F14126EDC7F01E7
:100D5E00126EDCE4FF126EDC7F01126EDC7F0C1271
:100D6E006EDC7F0F126EDCE4FF126EDCE4FF126E9F
:100D7E00DCE4FF126EDC7F01126EDCE4FF126EDC2F
:100D8E007F02126EDC7F0C126EDCE4FF126EDCE46E
:100D9E00FF126EDCE4FF126EDCE4FF126EDC7F01EC
:100DAE00126EDCE4FF126EDC7F03126EDC7F0C121F
:100DBE006EDC7F60126EDC7F0E126EDC7F18126EA0
:100DCE00DCE4FF126EDC7F01126EDCE4FF126EDCDF
:100DDE007F04126EDC7F0C126EDCE4FF126EDC7F81
:100DEE0001126EDC7F07126EDC7F14126EDC7F0147
:100DFE00126EDCE4FF126EDC7F01126EDC7F0C12D1
:100E0E006EDC7F10126EDCE4FF126EDCE4FF126EFD
:100E1E00DCE4FF126EDC7F01126EDCE4FF126EDC8E
:100E2E007F02126EDC7F0C126EDCE4FF126EDCE4CD
:100E3E00FF126EDCE4FF126EDCE4FF126EDC7F014B
:100E4E00126EDCE4FF126EDC7F03126EDC7F0C127E
:100E5E006EDC7F60126EDC7F0E126EDC7F18126EFF
:100E6E00DCE4FF126EDC7F01126EDCE4FF126EDC3E
:100E7E007F04126EDC7F0C126EDCE4FF126EDC7FE0
:100E8E0001126EDC7F07126EDC7F14126EDC7F01A6
:100E9E00126EDCE4FF126EDC7F01126EDC7F0C1230
:100EAE006EDC7F11126EDCE4FF126EDCE4FF126E5C
:100EBE00DCE4FF126EDC7F01126EDCE4FF126EDCEE
:100ECE007F02126EDC7F0C126EDCE4FF126EDCE42D
:100EDE00FF126EDCE4FF126EDCE4FF126EDC7F01AB
:100EEE00126EDCE4FF126EDC7F03126EDC7F0C12DE
:100EFE006EDC7F60126EDC7F0E126EDC7F18126E5F
:100F0E00DCE4FF126EDC7F01126EDCE4FF126EDC9D
:100F1E007F04126EDC7F0C126EDCE4FF126EDC7F3F
:100F2E0001126EDC7F07126EDC7F14126EDC7F0105
:100F3E00126EDCE4FF126EDC7F01126EDC7F0C128F
:100F4E006EDC7F12126EDCE4FF126EDCE4FF126EBA
:100F5E00DCE4FF126EDC7F01126EDCE4FF126EDC4D
:100F6E007F02126EDC7F0C126EDCE4FF126EDCE48C
:100F7E00FF126EDCE4FF126EDCE4FF126EDC7F010A
:100F8E00126EDCE4FF126EDC7F03126EDC7F0C123D
:100F9E006EDC7F60126EDC7F0E126EDC7F18126EBE
:100FAE00DCE4FF126EDC7F01126EDCE4FF126EDCFD
:100FBE007F04126EDC7F0C126EDCE4FF126EDC7F9F
:100FCE0001126EDC7F07126EDC7F14126EDC7F0165
:100FDE00126EDCE4FF126EDC7F01126EDC7F0C12EF
:100FEE006EDC7F13126EDCE4FF126EDCE4FF126E19
:100FFE00DCE4FF126EDC7F01126EDCE4FF126EDCAD
:10100E007F02126EDC7F0C126EDCE4FF126EDCE4EB
:10101E00FF126EDCE4FF126EDCE4FF126EDC7F0169
:10102E00126EDCE4FF126EDC7F03126EDC7F0C129C
:10103E006EDC7F60126EDC7F0E126EDC7F18126E1D
:10104E00DCE4FF126EDC7F01126EDCE4FF126EDC5C
:10105E007F04126EDC7F0C126EDCE4FF126EDC7FFE
:10106E0001126EDC7F07126EDC7F14126EDC7F01C4
:10107E00126EDCE4FF126EDC7F01126EDC7F0C124E
:10108E006EDC7F14126EDCE4FF126EDCE4FF126E77
:10109E00DCE4FF126EDC7F01126EDCE4FF126EDC0C
:1010AE007F02126EDC7F0C126EDCE4FF126EDCE44B
:1010BE00FF126EDCE4FF126EDCE4FF126EDC7F01C9
:1010CE00126EDCE4FF126EDC7F03126EDC7F0C12FC
:1010DE006EDC7F60126EDC7F0E126EDC7F18126E7D
:1010EE00DCE4FF126EDC7F01126EDCE4FF126EDCBC
:1010FE007F04126EDC7F0C126EDCE4FF126EDC7F5E
:10110E0001126EDC7F07126EDC7F14126EDC7F0123
:10111E00126EDCE4FF126EDC7F01126EDC7F0C12AD
:10112E006EDC7F15126EDCE4FF126EDCE4FF126ED5
:10113E00DCE4FF126EDC7F01126EDCE4FF126EDC6B
:10114E007F02126EDC7F0C126EDCE4FF126EDCE4AA
:10115E00FF126EDCE4FF126EDCE4FF126EDC7F0128
:10116E00126EDCE4FF126EDC7F03126EDC7F0C125B
:10117E006EDC7F60126EDC7F0E126EDC7F18126EDC
:10118E00DCE4FF126EDC7F01126EDCE4FF126EDC1B
:10119E007F04126EDC7F0C126EDCE4FF126EDC7FBD
:1011AE0001126EDC7F07126EDC7F14126EDC7F0183
:1011BE00126EDCE4FF126EDC7F01126EDC7F0C120D
:1011CE006EDC7F16126EDCE4FF126EDCE4FF126E34
:1011DE00DCE4FF126EDC7F01126EDCE4FF126EDCCB
:1011EE007F02126EDC7F0C126EDCE4FF126EDCE40A
:1011FE00FF126EDCE4FF126EDCE4FF126EDC7F0188
:10120E00126EDCE4FF126EDC7F03126EDC7F0C12BA
:10121E006EDC7F60126EDC7F0E126EDC7F18126E3B
:10122E00DCE4FF126EDC7F01126EDCE4FF126EDC7A
:10123E007F04126EDC7F0C126EDCE4FF126EDC7F1C
:10124E0001126EDC7F07126EDC7F14126EDC7F01E2
:10125E00126EDCE4FF126EDC7F01126EDC7F0C126C
:10126E006EDC7F17126EDCE4FF126EDCE4FF126E92
:10127E00DCE4FF126EDC7F01126EDCE4FF126EDC2A
:10128E007F02126EDC7F0C126EDCE4FF126EDCE469
:10129E00FF126EDCE4FF126EDCE4FF126EDC7F01E7
:1012AE00126EDCE4FF126EDC7F03126EDC7F0C121A
:1012BE006EDC7F60126EDC7F0E126EDC7F18126E9B
:1012CE00DCE4FF126EDC7F01126EDCE4FF126EDCDA
:1012DE007F04126EDC7F0C126EDCE4FF126EDC7F7C
:1012EE0001126EDC7F07126EDC7F14126EDC7F0142
:1012FE00126EDCE4FF126EDC7F01126EDC7F0C12CC
:10130E006EDC7F18126EDCE4FF126EDCE4FF126EF0
:10131E00DCE4FF126EDC7F01126EDCE4FF126EDC89
:10132E007F02126EDC7F0C126EDCE4FF126EDCE4C8
:10133E00FF126EDCE4FF126EDCE4FF126EDC7F0146
:10134E00126EDCE4FF126EDC7F03126EDC7F0C1279
:10135E006EDC7F60126EDC7F0E126EDC7F18126EFA
:10136E00DCE4FF126EDC7F01126EDCE4FF126EDC39
:10137E007F04126EDC7F0C126EDCE4FF126EDC7FDB
:10138E0001126EDC7F07126EDC7F14126EDC7F01A1
:10139E00126EDCE4FF126EDC7F01126EDC7F0C122B
:1013AE006EDC7F19126EDCE4FF126EDCE4FF126E4F
:1013BE00DCE4FF126EDC7F01126EDCE4FF126EDCE9
:1013CE007F02126EDC7F0C126EDCE4FF126EDCE428
:1013DE00FF126EDCE4FF126EDCE4FF126EDC7F01A6
:1013EE00126EDCE4FF126EDC7F03126EDC7F0C12D9
:1013FE006EDC7F60126EDC7F0E126EDC7F18126E5A
:10140E00DCE4FF126EDC7F01126EDCE4FF126EDC98
:10141E007F04126EDC7F0C126EDCE4FF126EDC7F3A
:10142E0001126EDC7F07126EDC7F14126EDC7F0100
:10143E00126EDCE4FF126EDC7F01126EDC7F0C128A
:10144E006EDC7F1A126EDCE4FF126EDCE4FF126EAD
:10145E00DCE4FF126EDC7F01126EDCE4FF126EDC48
:10146E007F02126EDC7F0C126EDCE4FF126EDCE487
:10147E00FF126EDCE4FF126EDCE4FF126EDC7F0105
:10148E00126EDCE4FF126EDC7F03126EDC7F0C1238
:10149E006EDC7F60126EDC7F0E126EDC7F18126EB9
:1014AE00DCE4FF126EDC7F01126EDCE4FF126EDCF8
:1014BE007F04126EDC7F0C126EDCE4FF126EDC7F9A
:1014CE0001126EDC7F07126EDC7F14126EDC7F0160
:1014DE00126EDCE4FF126EDC7F01126EDC7F0C12EA
:1014EE006EDC7F1B126EDCE4FF126EDCE4FF126E0C
:1014FE00DCE4FF126EDC7F01126EDCE4FF126EDCA8
:10150E007F02126EDC7F0C126EDCE4FF126EDCE4E6
:10151E00FF126EDCE4FF126EDCE4FF126EDC7F0164
:10152E00126EDCE4FF126EDC7F03126EDC7F0C1297
:10153E006EDC7F60126EDC7F0E126EDC7F18126E18
:10154E00DCE4FF126EDC7F01126EDCE4FF126EDC57
:10155E007F04126EDC7F0C126EDCE4FF126EDC7FF9
:10156E0001126EDC7F07126EDC7F14126EDC7F01BF
:10157E00126EDCE4FF126EDC7F01126EDC7F0C1249
:10158E006EDC7F1C126EDCE4FF126EDCE4FF126E6A
:10159E00DCE4FF126EDC7F01126EDCE4FF126EDC07
:1015AE007F02126EDC7F0C126EDCE4FF126EDCE446
:1015BE00FF126EDCE4FF126EDCE4FF126EDC7F01C4
:1015CE00126EDCE4FF126EDC7F03126EDC7F0C12F7
:1015DE006EDC7F60126EDC7F0E126EDC7F18126E78
:1015EE00DCE4FF126EDC7F01126EDCE4FF126EDCB7
:1015FE007F04126EDC7F0C126EDCE4FF126EDC7F59
:10160E0001126EDC7F07126EDC7F14126EDC7F011E
:10161E00126EDCE4FF126EDC7F01126EDC7F0C12A8
:10162E006EDC7F1D126EDCE4FF126EDCE4FF126EC8
:10163E00DCE4FF126EDC7F01126EDCE4FF126EDC66
:10164E007F02126EDC7F0C126EDCE4FF126EDCE4A5
:10165E00FF126EDCE4FF126EDCE4FF126EDC7F0123
:10166E00126EDCE4FF126EDC7F03126EDC7F0C1256
:10167E006EDC7F60126EDC7F0E126EDC7F18126ED7
:10168E00DCE4FF126EDC7F01126EDCE4FF126EDC16
:10169E007F04126EDC7F0C126EDCE4FF126EDC7FB8
:1016AE0001126EDC7F07126EDC7F14126EDC7F017E
:1016BE00126EDCE4FF126EDC7F01126EDC7F0C1208
:1016CE006EDC7F1E126EDCE4FF126EDCE4FF126E27
:1016DE00DCE4FF126EDC7F01126EDCE4FF126EDCC6
:1016EE007F02126EDC7F0C126EDCE4FF126EDCE405
:1016FE00FF126EDCE4FF126EDCE4FF126EDC7F0183
:10170E00126EDCE4FF126EDC7F03126EDC7F0C12B5
:10171E006EDC7F60126EDC7F0E126EDC7F18126E36
:10172E00DCE4FF126EDC7F01126EDCE4FF126EDC75
:10173E007F04126EDC7F0C126EDCE4FF126EDC7F17
:10174E0001126EDC7F07126EDC7F14126EDC7F01DD
:10175E00126EDCE4FF126EDC7F01126EDC7F0C1267
:10176E006EDC7F1F126EDCE4FF126EDCE4FF126E85
:10177E00DCE4FF126EDC7F01126EDCE4FF126EDC25
:10178E007F02126EDC7F0C126EDCE4FF126EDCE464
:10179E00FF126EDCE4FF126EDCE4FF126EDC7F01E2
:1017AE00126EDCE4FF126EDC7F03126EDC7F0C1215
:1017BE006EDC7F60126EDC7F0E126EDC7F18126E96
:1017CE00DCE4FF126EDC7F01126EDCE4FF126EDCD5
:1017DE007F04126EDC7F0C126EDCE4FF126EDC7F77
:1017EE0001126EDC7F07126EDC7F14126EDC7F013D
:1017FE00126EDCE4FF126EDC7F01126EDC7F0C12C7
:10180E006EDC7F20126EDCE4FF126EDCE4FF126EE3
:10181E00DCE4FF126EDC7F01126EDCE4FF126EDC84
:10182E007F02126EDC7F0C126EDCE4FF126EDCE4C3
:10183E00FF126EDCE4FF126EDCE4FF126EDC7F0141
:10184E00126EDCE4FF126EDC7F03126EDC7F0C1274
:10185E006EDC7F60126EDC7F0E126EDC7F18126EF5
:10186E00DCE4FF126EDC7F01126EDCE4FF126EDC34
:10187E007F04126EDC7F0C126EDCE4FF126EDC7FD6
:10188E0001126EDC7F07126EDC7F14126EDC7F019C
:10189E00126EDCE4FF126EDC7F01126EDC7F0C1226
:1018AE006EDC7F21126EDCE4FF126EDCE4FF126E42
:1018BE00DCE4FF126EDC7F01126EDCE4FF126EDCE4
:1018CE007F02126EDC7F0C126EDCE4FF126EDCE423
:1018DE00FF126EDCE4FF126EDCE4FF126EDC7F01A1
:1018EE00126EDCE4FF126EDC7F03126EDC7F0C12D4
:1018FE006EDC7F60126EDC7F0E126EDC7F18126E55
:10190E00DCE4FF126EDC7F01126EDCE4FF126EDC93
:10191E007F04126EDC7F0C126EDCE4FF126EDC7F35
:10192E0001126EDC7F07126EDC7F14126EDC7F01FB
:10193E00126EDCE4FF126EDC7F01126EDC7F0C1285
:10194E006EDC7F22126EDCE4FF126EDCE4FF126EA0
:10195E00DCE4FF126EDC7F01126EDCE4FF126EDC43
:10196E007F02126EDC7F0C126EDCE4FF126EDCE482
:10197E00FF126EDCE4FF126EDCE4FF126EDC7F0100
:10198E00126EDCE4FF126EDC7F03126EDC7F0C1233
:10199E006EDC7F60126EDC7F0E126EDC7F18126EB4
:1019AE00DCE4FF126EDC7F01126EDCE4FF126EDCF3
:1019BE007F04126EDC7F0C126EDCE4FF126EDC7F95
:1019CE0001126EDC7F07126EDC7F14126EDC7F015B
:1019DE00126EDCE4FF126EDC7F01126EDC7F0C12E5
:1019EE006EDC7F23126EDCE4FF126EDCE4FF126EFF
:1019FE00DCE4FF126EDC7F01126EDCE4FF126EDCA3
:101A0E007F02126EDC7F0C126EDCE4FF126EDCE4E1
:101A1E00FF126EDCE4FF126EDCE4FF126EDC7F015F
:101A2E00126EDCE4FF126EDC7F03126EDC7F0C1292
:101A3E006EDC7F60126EDC7F0E126EDC7F18126E13
:101A4E00DCE4FF126EDC7F01126EDCE4FF126EDC52
:101A5E007F04126EDC7F0C126EDCE4FF126EDC7FF4
:101A6E0001126EDC7F07126EDC7F14126EDC7F01BA
:101A7E00126EDCE4FF126EDC7F01126EDC7F0C1244
:101A8E006EDC7F24126EDCE4FF126EDCE4FF126E5D
:101A9E00DCE4FF126EDC7F01126EDCE4FF126EDC02
:101AAE007F02126EDC7F0C126EDCE4FF126EDCE441
:101ABE00FF126EDCE4FF126EDCE4FF126EDC7F01BF
:101ACE00126EDCE4FF126EDC7F03126EDC7F0C12F2
:101ADE006EDC7F60126EDC7F0E126EDC7F18126E73
:101AEE00DCE4FF126EDC7F01126EDCE4FF126EDCB2
:101AFE007F04126EDC7F0C126EDCE4FF126EDC7F54
:101B0E0001126EDC7F07126EDC7F14126EDC7F0119
:101B1E00126EDCE4FF126EDC7F01126EDC7F0C12A3
:101B2E006EDC7F25126EDCE4FF126EDCE4FF126EBB
:101B3E00DCE4FF126EDC7F01126EDCE4FF126EDC61
:101B4E007F02126EDC7F0C126EDCE4FF126EDCE4A0
:101B5E00FF126EDCE4FF126EDCE4FF126EDC7F011E
:101B6E00126EDCE4FF126EDC7F03126EDC7F0C1251
:101B7E006EDC7F60126EDC7F0E126EDC7F18126ED2
:101B8E00DCE4FF126EDC7F01126EDCE4FF126EDC11
:101B9E007F04126EDC7F0C126EDCE4FF126EDC7FB3
:101BAE0001126EDC7F07126EDC7F14126EDC7F0179
:101BBE00126EDCE4FF126EDC7F01126EDC7F0C1203
:101BCE006EDC7F26126EDCE4FF126EDCE4FF126E1A
:101BDE00DCE4FF126EDC7F01126EDCE4FF126EDCC1
:101BEE007F02126EDC7F0C126EDCE4FF126EDCE400
:101BFE00FF126EDCE4FF126EDCE4FF126EDC7F017E
:101C0E00126EDCE4FF126EDC7F03126EDC7F0C12B0
:101C1E006EDC7F60126EDC7F0E126EDC7F18126E31
:101C2E00DCE4FF126EDC7F01126EDCE4FF126EDC70
:101C3E007F04126EDC7F0C126EDCE4FF126EDC7F12
:101C4E0001126EDC7F07126EDC7F14126EDC7F01D8
:101C5E00126EDCE4FF126EDC7F01126EDC7F0C1262
:101C6E006EDC7F27126EDCE4FF126EDCE4FF126E78
:101C7E00DCE4FF126EDC7F01126EDCE4FF126EDC20
:101C8E007F02126EDC7F0C126EDCE4FF126EDCE45F
:101C9E00FF126EDCE4FF126EDCE4FF126EDC7F01DD
:101CAE00126EDCE4FF126EDC7F03126EDC7F0C1210
:101CBE006EDC7F60126EDC7F0E126EDC7F18126E91
:101CCE00DCE4FF126EDC7F01126EDCE4FF126EDCD0
:101CDE007F04126EDC7F0C126EDCE4FF126EDC7F72
:101CEE0001126EDC7F07126EDC7F14126EDC7F0138
:101CFE00126EDCE4FF126EDC7F01126EDC7F0C12C2
:101D0E006EDC7F28126EDCE4FF126EDCE4FF126ED6
:101D1E00DCE4FF126EDC7F01126EDCE4FF126EDC7F
:101D2E007F02126EDC7F0C126EDCE4FF126EDCE4BE
:101D3E00FF126EDCE4FF126EDCE4FF126EDC7F013C
:101D4E00126EDCE4FF126EDC7F03126EDC7F0C126F
:101D5E006EDC7F60126EDC7F0E126EDC7F18126EF0
:101D6E00DCE4FF126EDC7F01126EDCE4FF126EDC2F
:101D7E007F04126EDC7F0C126EDCE4FF126EDC7FD1
:101D8E0001126EDC7F07126EDC7F14126EDC7F0197
:101D9E00126EDCE4FF126EDC7F01126EDC7F0C1221
:101DAE006EDC7F29126EDCE4FF126EDCE4FF126E35
:101DBE00DCE4FF126EDC7F01126EDCE4FF126EDCDF
:101DCE007F02126EDC7F0C126EDCE4FF126EDCE41E
:101DDE00FF126EDCE4FF126EDCE4FF126EDC7F019C
:101DEE00126EDCE4FF126EDC7F03126EDC7F0C12CF
:101DFE006EDC7F60126EDC7F0E126EDC7F18126E50
:101E0E00DCE4FF126EDC7F01126EDCE4FF126EDC8E
:101E1E007F04126EDC7F0C126EDCE4FF126EDC7F30
:101E2E0001126EDC7F07126EDC7F14126EDC7F01F6
:101E3E00126EDCE4FF126EDC7F01126EDC7F0C1280
:101E4E006EDC7F2A126EDCE4FF126EDCE4FF126E93
:101E5E00DCE4FF126EDC7F01126EDCE4FF126EDC3E
:101E6E007F02126EDC7F0C126EDCE4FF126EDCE47D
:101E7E00FF126EDCE4FF126EDCE4FF126EDC7F01FB
:101E8E00126EDCE4FF126EDC7F03126EDC7F0C122E
:101E9E006EDC7F60126EDC7F0E126EDC7F18126EAF
:101EAE00DCE4FF126EDC7F01126EDCE4FF126EDCEE
:101EBE007F04126EDC7F0C126EDCE4FF126EDC7F90
:101ECE0001126EDC7F07126EDC7F14126EDC7F0156
:101EDE00126EDCE4FF126EDC7F01126EDC7F0C12E0
:101EEE006EDC7F2B126EDCE4FF126EDCE4FF126EF2
:101EFE00DCE4FF126EDC7F01126EDCE4FF126EDC9E
:101F0E007F02126EDC7F0C126EDCE4FF126EDCE4DC
:101F1E00FF126EDCE4FF126EDCE4FF126EDC7F015A
:101F2E00126EDCE4FF126EDC7F03126EDC7F0C128D
:101F3E006EDC7F60126EDC7F0E126EDC7F18126E0E
:101F4E00DCE4FF126EDC7F01126EDCE4FF126EDC4D
:101F5E007F04126EDC7F0C126EDCE4FF126EDC7FEF
:101F6E0001126EDC7F07126EDC7F14126EDC7F01B5
:101F7E00126EDCE4FF126EDC7F01126EDC7F0C123F
:101F8E006EDC7F2C126EDCE4FF126EDCE4FF126E50
:101F9E00DCE4FF126EDC7F01126EDCE4FF126EDCFD
:101FAE007F02126EDC7F0C126EDCE4FF126EDCE43C
:101FBE00FF126EDCE4FF126EDCE4FF126EDC7F01BA
:101FCE00126EDCE4FF126EDC7F03126EDC7F0C12ED
:101FDE006EDC7F60126EDC7F0E126EDC7F18126E6E
:101FEE00DCE4FF126EDC7F01126EDCE4FF126EDCAD
:101FFE007F04126EDC7F0C126EDCE4FF126EDC7F4F
:10200E0001126EDC7F07126EDC7F14126EDC7F0114
:10201E00126EDCE4FF126EDC7F01126EDC7F0C129E
:10202E006EDC7F2D126EDCE4FF126EDCE4FF126EAE
:10203E00DCE4FF126EDC7F01126EDCE4FF126EDC5C
:10204E007F02126EDC7F0C126EDCE4FF126EDCE49B
:10205E00FF126EDCE4FF126EDCE4FF126EDC7F0119
:10206E00126EDCE4FF126EDC7F03126EDC7F0C124C
:10207E006EDC7F60126EDC7F0E126EDC7F18126ECD
:10208E00DCE4FF126EDC7F01126EDCE4FF126EDC0C
:10209E007F04126EDC7F0C126EDCE4FF126EDC7FAE
:1020AE0001126EDC7F07126EDC7F14126EDC7F0174
:1020BE00126EDCE4FF126EDC7F01126EDC7F0C12FE
:1020CE006EDC7F2E126EDCE4FF126EDCE4FF126E0D
:1020DE00DCE4FF126EDC7F01126EDCE4FF126EDCBC
:1020EE007F02126EDC7F0C126EDCE4FF126EDCE4FB
:1020FE00FF126EDCE4FF126EDCE4FF126EDC7F0179
:10210E00126EDCE4FF126EDC7F03126EDC7F0C12AB
:10211E006EDC7F60126EDC7F0E126EDC7F18126E2C
:10212E00DCE4FF126EDC7F01126EDCE4FF126EDC6B
:10213E007F04126EDC7F0C126EDCE4FF126EDC7F0D
:10214E0001126EDC7F07126EDC7F14126EDC7F01D3
:10215E00126EDCE4FF126EDC7F01126EDC7F0C125D
:10216E006EDC7F2F126EDCE4FF126EDCE4FF126E6B
:10217E00DCE4FF126EDC7F01126EDCE4FF126EDC1B
:10218E007F02126EDC7F0C126EDCE4FF126EDCE45A
:10219E00FF126EDCE4FF126EDCE4FF126EDC7F01D8
:1021AE00126EDCE4FF126EDC7F03126EDC7F0C120B
:1021BE006EDC7F60126EDC7F0E126EDC7F18126E8C
:1021CE00DCE4FF126EDC7F01126EDCE4FF126EDCCB
:1021DE007F04126EDC7F0C126EDCE4FF126EDC7F6D
:1021EE0001126EDC7F07126EDC7F14126EDC7F0133
:1021FE00126EDCE4FF126EDC7F01126EDC7F0C12BD
:10220E006EDC7F30126EDCE4FF126EDCE4FF126EC9
:10221E00DCE4FF126EDC7F01126EDCE4FF126EDC7A
:10222E007F02126EDC7F0C126EDCE4FF126EDCE4B9
:10223E00FF126EDCE4FF126EDCE4FF126EDC7F0137
:10224E00126EDCE4FF126EDC7F03126EDC7F0C126A
:10225E006EDC7F60126EDC7F0E126EDC7F18126EEB
:10226E00DCE4FF126EDC7F01126EDCE4FF126EDC2A
:10227E007F04126EDC7F0C126EDCE4FF126EDC7FCC
:10228E0001126EDC7F07126EDC7F14126EDC7F0192
:10229E00126EDCE4FF126EDC7F01126EDC7F0C121C
:1022AE006EDC7F31126EDCE4FF126EDCE4FF126E28
:1022BE00DCE4FF126EDC7F01126EDCE4FF126EDCDA
:1022CE007F02126EDC7F0C126EDCE4FF126EDCE419
:1022DE00FF126EDCE4FF126EDCE4FF126EDC7F0197
:1022EE00126EDCE4FF126EDC7F03126EDC7F0C12CA
:1022FE006EDC7F60126EDC7F0E126EDC7F18126E4B
:10230E00DCE4FF126EDC7F01126EDCE4FF126EDC89
:10231E007F04126EDC7F0C126EDCE4FF126EDC7F2B
:0F232E0001126EDC7F07126EDC7F14126EDC2250
:05233D00900AEAEFF038
:10234200900AEC7424F078ED7C0A7D017BFF7A54CC
:10235200795D7E00FF1236B6900B117408F0781288
:102362007C0B7D017BFF7A5479817E00FF1236B6A9
:10237200900B1A7408F0781B7C0B7D017BFF7A545A
:1023820079897E00FF1236B6900B237408F0782408
:102392007C0B7D017BFF7A5479917E00FF1236B669
:1023A200900B2C7408F0782D7C0B7D017BFF7A5406
:1023B20079997E00FF1236B6900B357408F07836A4
:1023C2007C0B7D017BFF7A5479A17E00FF1236B629
:1023D200900B3E7408F0783F7C0B7D017BFF7A54B2
:1023E20079A97E00FF1236B6900B477408F0784840
:1023F2007C0B7D017BFF7A5479B17E00FF1236B6E9
:10240200900B507408F078517C0B7D017BFF7A545D
:1024120079B97E00FF1236B6900B597408F0785ADB
:102422007C0B7D017BFF7A5479C17E00FF1236B6A8
:10243200900B627408F078637C0B7D017BFF7A5409
:1024420079C97E00FF1236B6900B6B7408F0786C77
:102452007C0B7D017BFF7A5479D17E00FF1236B668
:10246200900B747408F078757C0B7D017BFF7A54B5
:1024720079D97E00FF1236B6900B7D7408F0787E13
:102482007C0B7D017BFF7A5479E17E00FF1236B628
:10249200900B867408F078877C0B7D017BFF7A5461
:1024A20079E97E00FF1236B6900B8F7408F07890AF
:1024B2007C0B7D017BFF7A5479F17E00FF1236B6E8
:1024C200900B987408F078997C0B7D017BFF7A540D
:1024D20079F97E00FF1236B6900BA17408F078A24B
:1024E2007C0B7D017BFF7A5579017E00FF1236B6A7
:1024F200900BAA7408F078AB7C0B7D017BFF7A55B8
:1025020079097E00FF1236B6900BB37408F078B4E6
:102512007C0B7D017BFF7A5579117E00FF1236B666
:10252200900BBC7408F078BD7C0B7D017BFF7A5563
:1025320079197E00FF1236B6900BC57408F078C682
:102542007C0B7D017BFF7A5579217E00FF1236B626
:10255200900BCE7408F078CF7C0B7D017BFF7A550F
:1025620079297E00FF1236B6E4900BD7F078D87C3A
:102572000B7D017BFF7A557931FE7F011236B690D1
:102582000BD97408F078DA7C0B7D017BFF7A5579E0
:10259200327E00FF1236B6900BE27408F078E37CCC
:1025A2000B7D017BFF7A55793A7E00FF1236B69099
:1025B2000BEB7408F078EC7C0B7D017BFF7A55798C
:1025C200427E00FF1236B6900BF47408F078F57C68
:1025D2000B7D017BFF7A55794A7E00FF1236B69059
:1025E2000BFD7408F078FE7C0B7D017BFF7A557938
:1025F200527E00FF1236B6900C067408F078077C03
:102602000C7D017BFF7A55795A7E00FF1236B69017
:102612000C0F7420F078107C0C7D017BFF7A5579C9
:10262200627E00FF1236B6900C307408F078317C6E
:102632000C7D017BFF7A5579827E00FF1236B690BF
:102642000C397408F0783A7C0C7D017BFF7A55795D
:102652008A7E00FF1236B6900AEAE014B4210040E6
:102662000302305890267475F003A4C58325F0C583
:1026720083730226D70227250227730227C1022865
:102682000F02285D0228AB0228F902294702299588
:102692000229E3022A31022A7F022ACD022B1B02DF
:1026A2002B69022BB7022C12022C60022CAE022CD8
:1026B200B1022CFF022D4D022D9B022DE9022E3775
:1026C200022E85022ED3022F21022F6F022CAE0280
:1026D2002FBD02300AE4900AEBF0900AECE0FF9082
:1026E2000AEBE0FEC3EF6480F8EE648098400302D8
:1026F200305BE0FFFD3395E0FC74ED2DF582740A4A
:102702003CF583E0FEEF3395E0FC74F42DF5827422
:10271200083CF583E06E6003022C55900AEBE0045E
:10272200F080B7E4900AEBF0900B11E0FF900AEB17
:10273200E0FEC3EF6480F8EE648098400302305BF1
:10274200E0FFFD3395E0FC74122DF582740B3CF52D
:1027520083E0FEEF3395E0FC74F42DF58274083CBF
:10276200F583E06E6003022C55900AEBE004F080E2
:10277200B7E4900AEBF0900B1AE0FF900AEBE0FE50
:10278200C3EF6480F8EE648098400302305BE0FFA0
:10279200FD3395E0FC741B2DF582740B3CF583E050
:1027A200FEEF3395E0FC74F42DF58274083CF5835A
:1027B200E06E6003022C55900AEBE004F080B7E46F
:1027C200900AEBF0900B23E0FF900AEBE0FEC3EFE0
:1027D2006480F8EE648098400302305BE0FFFD33D2
:1027E20095E0FC74242DF582740B3CF583E0FEEF3A
:1027F2003395E0FC74F42DF58274083CF583E06EA9
:102802006003022C55900AEBE004F080B7E4900AD2
:10281200EBF0900B2CE0FF900AEBE0FEC3EF64803C
:10282200F8EE648098400302305BE0FFFD3395E0F0
:10283200FC742D2DF582740B3CF583E0FEEF33958D
:10284200E0FC74F42DF58274083CF583E06E6003BD
:10285200022C55900AEBE004F080B7E4900AEBF00A
:10286200900B35E0FF900AEBE0FEC3EF6480F8EED8
:10287200648098400302305BE0FFFD3395E0FC7416
:10288200362DF582740B3CF583E0FEEF3395E0FCC8
:1028920074F42DF58274083CF583E06E6003022C1B
:1028A20055900AEBE004F080B7E4900AEBF0900B4D
:1028B2003EE0FF900AEBE0FEC3EF6480F8EE648036
:1028C20098400302305BE0FFFD3395E0FC743F2D3E
:1028D200F582740B3CF583E0FEEF3395E0FC74F473
:1028E2002DF58274083CF583E06E6003022C55904E
:1028F2000AEBE004F080B7E4900AEBF0900B47E0BB
:10290200FF900AEBE0FEC3EF6480F8EE648098402B
:102912000302305BE0FFFD3395E0FC74482DF58245
:10292200740B3CF583E0FEEF3395E0FC74F42DF577
:102932008274083CF583E06E6003022C55900AEB2A
:10294200E004F080B7E4900AEBF0900B50E0FF90C7
:102952000AEBE0FEC3EF6480F8EE64809840030265
:10296200305BE0FFFD3395E0FC74512DF582740B72
:102972003CF583E0FEEF3395E0FC74F42DF58274B0
:10298200083CF583E06E6003022C55900AEBE004EC
:10299200F080B7E4900AEBF0900B59E0FF900AEB5D
:1029A200E0FEC3EF6480F8EE648098400302305B7F
:1029B200E0FFFD3395E0FC745A2DF582740B3CF573
:1029C20083E0FEEF3395E0FC74F42DF58274083C4D
:1029D200F583E06E6003022C55900AEBE004F08070
:1029E200B7E4900AEBF0900B62E0FF900AEBE0FE96
:1029F200C3EF6480F8EE648098400302305BE0FF2E
:102A0200FD3395E0FC74632DF582740B3CF583E095
:102A1200FEEF3395E0FC74F42DF58274083CF583E7
:102A2200E06E6003022C55900AEBE004F080B7E4FC
:102A3200900AEBF0900B6BE0FF900AEBE0FEC3EF25
:102A42006480F8EE648098400302305BE0FFFD335F
:102A520095E0FC746C2DF582740B3CF583E0FEEF7F
:102A62003395E0FC74F42DF58274083CF583E06E36
:102A72006003022C55900AEBE004F080B7E4900A60
:102A8200EBF0900B74E0FF900AEBE0FEC3EF648082
:102A9200F8EE648098400302305BE0FFFD3395E07E
:102AA200FC74752DF582740B3CF583E0FEEF3395D3
:102AB200E0FC74F42DF58274083CF583E06E60034B
:102AC200022C55900AEBE004F080B7E4900AEBF098
:102AD200900B7DE0FF900AEBE0FEC3EF6480F8EE1E
:102AE200648098400302305BE0FFFD3395E0FC74A4
:102AF2007E2DF582740B3CF583E0FEEF3395E0FC0E
:102B020074F42DF58274083CF583E06E6003022CA8
:102B120055900AEBE004F080B7E4900AEBF0900BDA
:102B220086E0FF900AEBE0FEC3EF6480F8EE64807B
:102B320098400302305BE0FFFD3395E0FC74872D83
:102B4200F582740B3CF583E0FEEF3395E0FC74F400
:102B52002DF58274083CF583E06E6003022C5590DB
:102B62000AEBE004F080B7E4900AEBF0900B8FE000
:102B7200FF900AEBE0FEC3EF6480F8EE64809840B9
:102B82000302305BE0FFFD3395E0FC74902DF5828B
:102B9200740B3CF583E0FEEF3395E0FC74F42DF505
:102BA2008274083CF583E06E6003022C55900AEBB8
:102BB200E004F080B7E4900AEBF0900B98E0FF900D
:102BC2000AEBE0FEC3EF6480F8EE648098400302F3
:102BD200305BE0FFFD3395E0FC74992DF582740BB8
:102BE2003CF583E0FEEF3395E0FC74F42DF582743E
:102BF200083CF583E06E60107FBB126EE5900AEB35
:102C0200E0FF126EE502304A900AEBE004F080AA7F
:102C1200E4900AEBF0900BA1E0FF900AEBE0FEC318
:102C2200EF6480F8EE648098400302305BE0FFFDC1
:102C32003395E0FC74A22DF582740B3CF583E0FE23
:102C4200EF3395E0FC74F42DF58274083CF583E0D3
:102C52006E600302304A900AEBE004F080B7E49021
:102C62000AEBF0900BAAE0FF900AEBE0FEC3EF64E0
:102C720080F8EE648098400302305BE0FFFD3395FC
:102C8200E0FC74AB2DF582740B3CF583E0FEEF3370
:102C920095E0FC74F42DF58274083CF583E06E60D7
:102CA2000302304A900AEBE004F080B77F0022E48E
:102CB200900AEBF0900BBCE0FF900AEBE0FEC3EF52
:102CC2006480F8EE648098400302305BE0FFFD33DD
:102CD20095E0FC74BD2DF582740B3CF583E0FEEFAC
:102CE2003395E0FC74F42DF58274083CF583E06EB4
:102CF200600302304A900AEBE004F080B7E4900AE5
:102D0200EBF0900BC5E0FF900AEBE0FEC3EF6480AE
:102D1200F8EE648098400302305BE0FFFD3395E0FB
:102D2200FC74C62DF582740B3CF583E0FEEF3395FF
:102D3200E0FC74F42DF58274083CF583E06E6003C8
:102D420002304A900AEBE004F080B7E4900AEBF01C
:102D5200900BCEE0FF900AEBE0FEC3EF6480F8EE4A
:102D6200648098400302305BE0FFFD3395E0FC7421
:102D7200CF2DF582740B3CF583E0FEEF3395E0FC3A
:102D820074F42DF58274083CF583E06E6003023022
:102D92004A900AEBE004F080B7E4900AEBF0900B63
:102DA200D7E0FF900AEBE0FEC3EF6480F8EE6480A8
:102DB20098400302305BE0FFFD3395E0FC74D82DB0
:102DC200F582740B3CF583E0FEEF3395E0FC74F47E
:102DD2002DF58274083CF583E06E600302304A9060
:102DE2000AEBE004F080B7E4900AEBF0900BD9E034
:102DF200FF900AEBE0FEC3EF6480F8EE6480984037
:102E02000302305BE0FFFD3395E0FC74DA2DF582BE
:102E1200740B3CF583E0FEEF3395E0FC74F42DF582
:102E22008274083CF583E06E600302304A900AEB3C
:102E3200E004F080B7E4900AEBF0900BE2E0FF9040
:102E42000AEBE0FEC3EF6480F8EE64809840030270
:102E5200305BE0FFFD3395E0FC74E32DF582740BEB
:102E62003CF583E0FEEF3395E0FC74F42DF58274BB
:102E7200083CF583E06E600302304A900AEBE004FE
:102E8200F080B7E4900AEBF0900BEBE0FF900AEBD6
:102E9200E0FEC3EF6480F8EE648098400302305B8A
:102EA200E0FFFD3395E0FC74EC2DF582740B3CF5EC
:102EB20083E0FEEF3395E0FC74F42DF58274083C58
:102EC200F583E06E600302304A900AEBE004F08082
:102ED200B7E4900AEBF0900BF4E0FF900AEBE0FE0F
:102EE200C3EF6480F8EE648098400302305BE0FF39
:102EF200FD3395E0FC74F52DF582740B3CF583E00F
:102F0200FEEF3395E0FC74F42DF58274083CF583F2
:102F1200E06E600302304A900AEBE004F080B7E40E
:102F2200900AEBF0900BFDE0FF900AEBE0FEC3EF9E
:102F32006480F8EE648098400302305BE0FFFD336A
:102F420095E0FC74FE2DF582740B3CF583E0FEEFF8
:102F52003395E0FC74F42DF58274083CF583E06E41
:102F6200600302304A900AEBE004F080B7E4900A72
:102F7200EBF0900C06E0FF900AEBE0FEC3EF6480FA
:102F8200F8EE648098400302305BE0FFFD3395E089
:102F9200FC74072DF582740C3CF583E0FEEF33954B
:102FA200E0FC74F42DF58274083CF583E06E600356
:102FB20002304A900AEBE004F080B7E4900AEBF0AA
:102FC200900C30E0FF900AEBE0FEC3EF6480F8EE75
:102FD200648098400302305BE0FFFD3395E0FC74AF
:102FE200312DF582740C3CF583E0FEEF3395E0FC65
:102FF20074F42DF58274083CF583E06E600280481B
:10300200900AEBE004F080B8E4900AEBF0900C39FF
:10301200E0FF900AEBE0FEC3EF6480F8EE64809874
:103022005037E0FFFD3395E0FC743A2DF582740CC5
:103032003CF583E0FEEF3395E0FC74F42DF58274E9
:10304200083CF583E06E6006900AEAE0FF22900AEF
:0B305200EBE004F080B77F00227F005D
:01305D002250
:1039BD0061E0062000000000000000000000000093
:1039CD0000000000000000000000000000000000EA
:1039DD0000000000000000000000000000000000DA
:1039ED000000000000004428FFAA44001000100051
:1039FD0010442810284410001000100000FF1EF085
:103A0D001EFF00FF91919A7600000000000000005B
:103A1D000000000000000000001060028C0000FE9D
:103A2D009292929292FE0000000000FC242424FC4D
:103A3D00252624FC2424240400000000000000009E
:103A4D000000000000000000010000000000000068
:103A5D000000000000000000000000000000000059
:103A6D000000000070507000008040404080000059
:103A7D0000000000000000000004047E01407E42B2
:103A8D00427E427E42427E400040308F80844C55C3
:103A9D00252525554C8080800000000000C3C30003
:103AAD000000008080808080800000808080808089
:103ABD008000000000C0C000000000808080808079
:103ACD008000000000000000003F40404031000039
:103ADD000000000000000000000404FC04040000CD
:103AED0004FC04040408F000000000606000000005
:103AFD0000000000000000000000000000000000B9
:103B0D0000000000000000000000000000000000A8
:103B1D000000000000000000000000000000000098
:103B2D000000000000000000000000000000000088
:103B3D0000000000000000000010101F1010000019
:103B4D00101F1010100807000000001818000000CA
:103B5D000010101010101000001010101010100098
:103B6D000010101010101000001010101010100088
:103B7D000010101010101000001010101010100078
:103B8D000010101010101000001010101010100068
:103B9D0000000000610001E000E010080810E000E6
:103BAD00000F102020100F0000001010F800000072
:103BBD00000020203F202000007008080808F000B9
:103BCD0000302824222130000030080808887000B9
:103BDD000018202121221C000000804030F8000038
:103BED0000060524243F242400F88888880808004E
:103BFD000019202020110E0000E010888890000090
:103C0D00000F112020201F000018080888681800D8
:103C1D000000003E01000000007088080888700058
:103C2D00001C222121221C0000F008080810E000D1
:103C3D000001122222110F000000C038E000000028
:103C4D00203C23020227382008F88888887000005D
:103C5D00203F202020110E00C03008080808380031
:103C6D00071820202010080008F808080810E000A8
:103C7D00203F202020100F0008F88888E808100049
:103C8D00203F20202320180008F88888E80810001D
:103C9D00203F200003000000634002E00000808010
:103CAD008000000000192424123F200010F0008035
:103CBD0080000000003F112020110E000000008048
:103CCD0080800000000E1120202011000000808057
:103CDD008090F000001F202020103F2000008080E9
:103CED0080800000001F242424241700008080E021
:103CFD00909020000020203F2020000000008080B8
:103D0D0080808000006B94949493600010F000808C
:103D1D0080800000203F210000203F2000809898E7
:103D2D00000000000020203F202000000000008047
:103D3D009898000000C08080807F000010F0000087
:103D4D0080808000203F240629302000001010F8CC
:103D5D00000000000020203F202000008080808097
:103D6D0080808000203F20003F20003F8080008029
:103D7D0080800000203F210000203F200000808037
:103D8D0080800000001F202020201F0080800080E8
:103D9D008000000080FF912020110E0000000080A7
:103DAD0080008000000E11202091FF808080800017
:103DBD008080800020203F212000010000008080B5
:103DCD00808080000033242424241900008080E0AA
:103DDD00808000000000001F202010008080000067
:103DED0000808000001F202020103F208080800058
:103DFD008080800000030C300C0300008080008068
:103E0D0080008080010E300C073806010080808014
:103E1D00008080000020310E2E3120008080800037
:103E2D0000808080008186781806010000808080E7
:103E3D00808080000021302C222130000000C0380D
:103E4D00E0000000203C23020227382008F8888873
:103E5D0088700000203F202020110E00C03008087F
:103E6D0008083800071820202010080008F8080856
:103E7D000810E000203F202020100F0008F888884F
:103E8D00E8081000203F20202320180008F888881B
:103E9D00E8081000203F200003000000C030080893
:103EAD000838000007182020221E020008F808001C
:103EBD000008F808203F210101213F20000808F8E3
:103ECD00080800000020203F202000000000080806
:103EDD00F8080800C08080807F00000008F888C0C6
:103EED0028180800203F20012638200008F8080077
:103EFD0000000000203F20202020300008F8F800AE
:103F0D00F8F80800203F013E013F200008F830C0BE
:103F1D000008F808203F200007183F00E0100808AF
:103F2D000810E0000F10202020100F0008F80808DE
:103F3D000808F000203F210101010000E0100808F1
:103F4D000810E0000F10282830504F0008F888881E
:103F5D0088887000203F2000030C302000708808F6
:103F6D00080838000038202121221C00180808F804
:103F7D00080818000000203F2000000008F8080085
:103F8D000008F808001F202020201F000878880056
:103F9D0000C83808000007380E01000008F800F8C6
:103FAD0000F8080000033E013E0300000818688079
:103FBD008068180820302C03032C30200838C800E6
:103FCD00C83808000000203F200000001008080835
:0C3FDD00C83808002038262120201800D9
:106BA400EF339284EFA2E69283A2E59282A2E4926A
:106BB40081A2E39280A2E292C6A2E192C51392FF5F
:016BC40022AE
:106A7500C454F024E0F582E43401F583E5822EF573
:086A850082E43583F583E0FF94
:106A8D00D2A5D2A4C2A3C2A60000126BA40000D24C
:056A9D00A600D2A322B7
:0E6B1C00126B2A7F22126B2A7F02126B2A0F45
:106B2A00C2A3C2A400C2A60000126BA40000D2A68F
:056B3A000000D2A322BF
:10645500E4900DAAF0C2A3C2A400C2A50000A2FF49
:1064650033FFA2C5E43325E04FFFA2C6E43325E0A0
:1064750025E04FFFA280E43333333354F84FFFA2B6
:1064850081E433C454F04FFFA282E433C43354E0B3
:106495004FFFA283E433C4333354C04FFFA284E4D7
:1064A50033FEC433333354804FFF0000D2A50000C0
:0564B500126EF7D2A3F6
:0164BA0022BF
:106E1D00E4F5957596FFC2A1C2A253E1EF43E210CE
:016E2D002242
:1061E100C2C1126EB7D2C1120006007FAE126B2A75
:1061F1007FD5126B2A7F80126B2A007FA8126B2A2F
:106201007F27126B2A007FD3126B2AE4FF126B2ABD
:10621100007F40126B2A7F8D126B2A7F14126B2A2A
:106221007FA1126B2A7FC8126B2A007FDA126B2AB8
:106231007F12126B2A007F81126B2A7FAF126B2AA9
:10624100007FD9126B2A7F25126B2A007FDB126B2C
:106251002A7F20126B2A007FA5126B2A000F126B76
:076261002A007FAF026B2A47
:106C8C007FAE126B2A007F8D126B2A7F10126B2A3B
:096C9C0000126EB7C2E9026EA8F5
:106D89007FAE126B2A007F8D126B2A7F10126B2A3D
:046D990000C2E92229
:106D4A00D2E9126EB77F8D126B2A7F14126B2A005A
:056D5A007FAF026B2A6F
:0E5C1700900D37EBF0A3EAF0A3E9F0A3EDF057
:105C2500E4900D3EF0A3F0A3F0A3F07F2012000E48
:105C3500E4FF12000E7F2112000E900D3AE02420A1
:105C4500FF12000E900D3BE02420FF12000E7F2274
:105C550012000E900D3CE0FF12000E900D3DE0FF8E
:105C650012000E900D3CE0900D41F0900D3DE0FFCF
:105C7500900D41E0C39F506D900D3AE0900D40F0BE
:105C8500900D3BE0FF900D40E0C39F5050900D37C5
:105C9500E0FBA3E0FAA3E0F9900D3EE0FEA3E0F5FA
:105CA500828E831236F5FF126DAC900D37E0FBA3A3
:105CB500E0FAA3E0F9900D3EE0FEA3E0F5828E83C5
:105CC5001236F5FF126EF7900D3FE004F070069066
:105CD5000D3EE004F0900D40E004F080A3900D41EE
:055CE500E004F08086E0
:015CEA002297
:0B626800900D55EBF0A3EAF0A3E9F065
:10627300E4A3F0A3F0A3F0A3F0900D58E0FFC394C0
:10628300055066126ED3E4FF126CBEE4900D59F014
:10629300900D58E0900D55701EE0FBA3E0FAA3E0CB
:1062A300F9900D5AE475F0011237B185F082F58348
:1062B3001236F54401801AE0FBA3E0FAA3E0F9905B
:1062C3000D5AE475F0011237B185F082F583123669
:1062D300F5FF126DAC900D59E004F0E0C3946040FB
:0962E300AF900D58E004F080902A
:0162EC00228F
:0D60CC00900D7CEDF0A3EBF0900D7BEFF05C
:1060D900E4900D7EF0A3F0126ED3900D7CE0FF12D8
:1060E9006CBEE4900D7FF0900D7FE0FFC3940850E3
:1060F9001E900D7DE0C454F024E0F582E43401F5EE
:1061090083E5822F126DA3900D7FE004F080D89073
:106119000D7BE004FF126ED3900D7CE0FF126CBE84
:10612900E4900D7FF0900D7FE0FFC39408501E901E
:106139000D7DE0C454F024E8F582E43401F583E5EB
:0D614900822F126DA3900D7FE004F080D82E
:016156002226
:0656FC00900D6912383820
:10570200E4FBFA79207841900D69E0FCA3E0FDA367
:10571200E0FEA3E0FF12325F1233B3900D6DEFF0A3
:10572200FCE412337FA804A905AA06AB07900D6911
:10573200E0FCA3E0FDA3E0FEA3E0FF123061123320
:10574200B3900D6EEFF0900D69E0FCA3E0FDA3E0D5
:10575200FEA3E0FF1233B37C007D0A123734AC069D
:10576200AD07E412337AC004C005C006C007E4FFE7
:10577200FE7D207C41900D69E0F8A3E0F9A3E0FAF8
:10578200A3E0FB123156D003D002D001D000123078
:10579200611233B3AD077F20126B2AE4FF126B2A2A
:1057A2007F21126B2A7F2E126B2A7F35126B1CE42B
:1057B200FEEE6406900D6D601AE0C454F024E0F52C
:1057C20082E43401F583E5822EF582E43583F583A4
:1057D200E0801AE0C454F024E0F582E43401F58359
:1057E200E5822EF582E43583F583E04401FF126AF7
:1057F2008D0EEEB410BB7F21126B2A7F36126B2AFC
:105802007F3D126B1CE4FE900D6EE0126A750EEE87
:10581200B410F47F21126B2A7F46126B2A7F4D123D
:0D5822006B1CE4FEED126A750EEEB410F77B
:01582F002256
:096E2E007F0F126E37D2FC7F0FBA
:076E3700AE071FEE70FA2206
:026A4400AB079E
:106A46007A80C2A3EDB40104C2A48002D2A4EAD320
:106A560094004011C2FCEA5B24FF92A7126E2EEA54
:0E6A6600C313FA80E9C2FCD2A7126E2ED2A38F
:016A740022FF
:0F6D9D003EF583E5822DF582E43583F583E0FF33
:056DAC00E4FD026A4451
:05000E007D01026A44BF
:10615700E4FFFE900D19F0A3F00FBF00010EBE750E
:10616700F8BF30F57FAE12000E7FD512000E7F808C
:1061770012000E7FA812000E7F2712000E7FD31287
:10618700000EE4FF12000E7F4012000E7F8D1200FA
:106197000E7F1412000E7FA112000E7FC812000E90
:1061A7007FDA12000E7F1212000E7F8112000E7F1F
:1061B700AF12000E7FD912000E7F2512000E7FDB73
:1061C70012000E7F2012000E7FA412000E7FA6126F
:0A61D700000E7FAF12000E0264BB41
:1064BB00E4900D1BF0A3F07E017FE0FD7B017A00E1
:1064CB0079001238BB900D1BE0FFC39405503DE4DF
:1064DB00A3F0126ED3E4FF126CBE900D1CE0FFC351
:1064EB0094605020900D1BE075F060A42400F582A1
:1064FB00E5F03400F583E5822F126DA3900D1CE0BF
:0C650B0004F080D6900D1BE004F080B975
:016517002261
:0B62ED00900D6FEBF0A3EAF0A3E9F0C6
:1062F800E4A3F0A3F0A3F0900D72E0FFC39405505F
:106308005DE4A3F0126ED3E4FF126CBE900D73E04F
:10631800C394605041900D6FE0FBA3E0FAA3E0F94D
:10632800900D74E0F5827583001236F5FF126EF752
:10633800900D6FE0FBA3E0FAA3E0F9900D74E0FF85
:1063480004F08F827583001236F5FF126DAC900D44
:0E63580073E004F080B6900D72E004F08099BE
:016366002214
:096ED300EF540F44B0FF02000E61
:106CBE00AC0774202CFC540FFF12000EAF04EFC46F
:086CCE00540F4410FF02000EF8
:0B484000900D1BEBF0A3EAF0A3E9F0E1
:10484B00E4A3F0A3F0900D1BE0FBA3E0FAA3E0F9C7
:10485B001236DC7003024B707FAA126EF7900D1BA1
:10486B00E0FBA3E0FAA3E0F91236DCFF126EF7903F
:10487B000D1EE0F9C3940C50087F01126ED3E0803B
:10488B0014E9C394184003024B707F03126ED3904C
:10489B000D1EE024F475F008A4FF126CBE7FBB1252
:1048AB006EF7900D1BE0FBA3E0FAA3E0F91236DCE8
:1048BB00FFC3648094B0404DD3EF648094B95045EE
:1048CB00E4900D1FF0900D1FE0FDC3940840030210
:1048DB0049E9900D1BE0FBA3E0FAA3E0F91236DCEB
:1048EB00FF3395E0FEEFC4F8540FC868FFEEC454D5
:1048FB00F048FE74E02FF58274FE126D9D900D1F33
:10490B00E004F080C0900D1BE0FBA3E0FAA3E0F9FC
:10491B001236DCFFC3648094E1404DD3EF64809486
:10492B00FA5045E4900D1FF0900D1FE0FDC3940865
:10493B0040030249E9900D1BE0FBA3E0FAA3E0F969
:10494B001236DCFF3395E0FEEFC4F8540FC868FF56
:10495B00EEC454F048FE74D02FF58274FC126D9D9A
:10496B00900D1FE004F080C0900D1BE0FBA3E0FA5C
:10497B00A3E0F91236DCFFC3648094C1404AD3EF45
:10498B00648094DA5042E4900D1FF0900D1FE0FD0F
:10499B00C394085049900D1BE0FBA3E0FAA3E0F988
:1049AB001236DCFF3395E0FEEFC4F8540FC868FFF6
:1049BB00EEC454F048FE74702FF5827400126D9D96
:1049CB00900D1FE004F080C3E4900D1FF0E4FF1284
:1049DB006DAC900D1FE004F0E0C3940840EF7FCC6A
:1049EB00126EF7900D1EE0F9C3940C50087F021263
:1049FB006ED3E08014E9C394184003024B707F041C
:104A0B00126ED3900D1EE024F475F008A4FF126C07
:104A1B00BE900D1BE0FBA3E0FAA3E0F91236DCFF1E
:104A2B00C3648094B0404DD3EF648094B95045E497
:104A3B00900D1FF0900D1FE0FDC394084003024B37
:104A4B0058900D1BE0FBA3E0FAA3E0F91236DCFF54
:104A5B003395E0FEEFC4F8540FC868FFEEC454F072
:104A6B0048FE74E82FF58274FE126D9D900D1FE0C9
:104A7B0004F080C0900D1BE0FBA3E0FAA3E0F91259
:104A8B0036DCFFC3648094E1404DD3EF648094FA2D
:104A9B005045E4900D1FF0900D1FE0FDC3940840AE
:104AAB0003024B58900D1BE0FBA3E0FAA3E0F912B5
:104ABB0036DCFF3395E0FEEFC4F8540FC868FFEE09
:104ACB00C454F048FE74D82FF58274FC126D9D907F
:104ADB000D1FE004F080C0900D1BE0FBA3E0FAA3D8
:104AEB00E0F91236DCFFC3648094C1404AD3EF6413
:104AFB008094DA5042E4900D1FF0900D1FE0FDC33F
:104B0B0094085049900D1BE0FBA3E0FAA3E0F912C7
:104B1B0036DCFF3395E0FEEFC4F8540FC868FFEEA8
:104B2B00C454F048FE74782FF5827400126D9D907A
:104B3B000D1FE004F080C3E4900D1FF0E4FF126D35
:104B4B00AC900D1FE004F0E0C3940840EF7FDD1242
:104B5B006EF7900D1EE004F0900D1CE475F0011241
:054B6B00379B024850D9
:014B70002222
:106BC5007401A807088002C333D8FCF59DE4F5BD20
:0F6BD500EF4488F5BC7F02126D1DD2ADD2AF2206
:03002B00025DB4BF
:0D5DB400C0E0C0F0C083C082C0D075D00830
:105DC100900D24E4F0A3F0FFFEA3F0A3F0C2ADF523
:105DD100BC126E6C7F03126D06900D24E4F0A3EFEC
:105DE100F0126E6C7F03126D067E00900D24E0FCB4
:105DF100A3E0FDD39FEC9E401DED9FFBEC9EFAC3FB
:105E0100EB9423EA9400504EED2FFFEE3CC313FEBA
:105E1100EF13FFA38030C3ED9FEC9E502C900D2417
:105E2100E0FCA3E0FDC3EF9DFDEE9CFCC3ED9423DC
:105E3100EC94005021E02FFF900D24E03EC313FEAF
:105E4100EF13FF900D26EE8009900D24E0FFA3E0F3
:085E5100A3CFF0A3EFF0D2ADE6
:0B5E5900D0D0D082D083D0F0D0E03257
:106D0600E4F5BDEF4488F5BC00000000E5BC30E4C6
:076D1600FB75BC00AFBD22BC
:106B3F00AC07E412337F900D81E0F8A3E0F9A3E0F6
:106B4F00FAA3E0FB123156E4FBFA79807843123254
:026B5F005F22B3
:106AA200E4FDFCF5BDF5BEEF4488F5BC0000000036
:106AB200E5BC30E4FB75BC00AFBDEF75F004A4FD8E
:096AC200ACF0AFBEED4FAE04FFD5
:016ACB0022A8
:10005E00AD07AC06E412337A900D77E0F8A3E0F921
:10006E00A3E0FAA3E0FB123156E4FBFA7980784460
:04007E0012325F22B9
:106D1D00AE071FEE60107C137D88ED1DAA04700177
:066D2D001C4A60EC80F43A
:016D3300223D
:0C3FE9004108F1004108F2004108F3001B
:106ACC00E5A2543F4440F5A253877F759850438EFE
:106ADC0040538EFE53890F438920758BFA758DFABE
:096AEC00C2ABD28ED2ACD2AF22B3
:096EDC002009FDEFD209F599220D
:10697800900D94EBF0A3EAF0A3E9F0900D94E0FBFE
:10698800A3E0FAA3E0F91236DC6017900D94A3E4B3
:1069980075F0011237B1A9F0FA1236DCFF126EDC7D
:0369A80080D92271
:030023000268254B
:10682500C0E0C0F0C083C082C0D075D00830981BCE
:10683500C298900AE8E475F0011237B1FE74F425A8
:10684500F0F58274083EF583E599F0309904C29914
:0D685500C209D0D0D082D083D0F0D0E03284
:0300430002689EB2
:10689E00C0E0C083C082C0D075D008E59A30E01742
:1068AE00539AFE9008F1E0FF04F074002FF582E495
:1068BE003408F583E59BF0E59A30E105539AFDC265
:0A68CE000AD0D0D082D083D0E0328F
:096EE500200AFDEFD20AF59B2200
:1069AB00900D97EBF0A3EAF0A3E9F0900D97E0FBC5
:1069BB00A3E0FAA3E0F91236DC6017900D97A3E47D
:1069CB0075F0011237B1A9F0FA1236DCFF126EE541
:0369DB0080D9223E
:106CD60053BAFE759A50438E0475D7C075D6FD43D8
:086CE6008E1075AF01D2AF2240
:106D34007E027FF49008F4E4F0A3DFFCDEFAE49032
:056D44000AE8F0A3F0D5
:016D49002227
:0F6E3E007F64900800E4F0A3DFFCE49008F1F01B
:016E4D002222
:106C220053BAFD75AC1043AC4043D10275D5C07563
:0B6C3200D4FD43D10843AF08D2AF22CD
:03008B00026C58AC
:106C5800C0E0E5AC30E00653ACFE85AD80E5AC3075
:0A6C6800E10553ACFDC20BD0E03291
:096EEE00200BFDEFD20BF5AD22E3
:1069DE00900D9AEBF0A3EAF0A3E9F0900D9AE0FB8C
:1069EE00A3E0FAA3E0F91236DC6017900D9AA3E447
:1069FE0075F0011237B1A9F0FA1236DCFF126EEE05
:036A0E0080D9220A
:106C3D0043BA0475841043844043D12075D3D07575
:0B6C4D00D2FF43D18043AF10D2AF2232
:03009300026C728A
:106C7200C0E0E58430E0065384FE858580E58430FB
:0A6C8200E1055384FDC20CD0E0329E
:096EF700200CFDEFD20CF5852200
:106A1100900D1BEBF0A3EAF0A3E9F0900D1BE0FB56
:106A2100A3E0FAA3E0F91236DC6017900D1BA3E492
:106A310075F0011237B1A9F0FA1236DCFF126EF7C8
:036A410080D922D7
:0D6EC600E4F5C7F5C5F5C675C380F5C42217
:106CEE0075C78175C5018FC4EEF5C375C65A75C6D5
:076CFE00A500AFC2126EC633
:016D0500226B
:106CA50075C78175C5028FC4EEF5C3AF058FC27573
:096CB500C65A75C6A500026EC6A0
:106D5F0075C78175C5038FC4EEF5C375C65A75C661
:056D6F00A500026EC644
:105B2F00900D42EEF0A3EFF0900D46EBF0A3EAF0EC
:0B5B3F00A3E9F0900D44ECF0A3EDF0A2
:105B4A00E4900D49F0A3F0FFA3F0A3F0D3ED942065
:105B5A00EC9400400122900D42E0FCA3E0FDEC54DD
:105B6A0001FEAF05900D45E02FFF900D44E03EFE8B
:105B7A00D3EF9420EE940040037F0022AF05AE04D9
:105B8A00126D5FE4900D49F0A3F0900D44E0FEA37E
:105B9A00E0FF900D49E0FCA3E0FDC39FEC9E506737
:105BAA00900D42E0FEA3E0FF900D46E0FBA3E0FA71
:105BBA00A3E0F98D828C831236F5FD126CA5900D47
:105BCA0042E0FEA3E0FF126CEE900D46E0FBA3E07C
:105BDA00FAA3E0F9A3E0FCA3E0F5828C831236F580
:105BEA006F6006126EC67F0022900D43E004F070CB
:105BFA0006900D42E004F0900D4AE004F0708B909C
:0C5C0A000D49E004F08083126EC67F019B
:015C1600226B
:10529A00900D28EEF0A3EFF0900D2CEBF0A3EAF0BE
:0B52AA00A3E9F0900D2AECF0A3EDF05A
:1052B500E4900D2FF0A3F0A3F0A3F0A3F0A3F0A3C7
:1052C500F0A3F0D3ED9420EC940040037F002290EE
:1052D5000D28E0FCA3E0FDEC5401FEAF05900D3177
:1052E500F0A3EFF0900D2BE02FFF900D2AE03EFE8E
:1052F500D3EF9420EE940040037F0022EC54FEFE91
:105305007F00900D33F0A3EFF0A3EEF0A3EFF09044
:105315000D2FF0A3F0900D35E475F0011237B1AF04
:10532500F0FE126CEE900D2FA3E02423F8A607E003
:1053350004F07006900D2FE004F0C3900D30E0945A
:1053450020900D2FE0940040CCE4900D2FF0A3F0B9
:10535500900D2AE0FEA3E0FF900D2FE0FCA3E0FDF9
:10536500C39FEC9E5034900D2CE0FBA3E0FAA3E024
:10537500F98D828C831236F5FF900D31E475F001BD
:105385001237B1742325F0F8A607900D30E004F02C
:105395007006900D2FE004F080B6900D33E0FEA36B
:1053A500E0FF126D5F900D33E0FFA3E0A3CFF0A304
:1053B500EFF0E4900D2FF0A3F0900D2FE0FCA3E0AB
:1053C500FDC39420EC9400504C900D35E0FEA3E015
:1053D500FF74232DF8E6FD126CA5900D28E0FEA3C1
:1053E500E0FF126CEE900D2FA3E02423F8E66F602A
:1053F50006126EC67F0022900D36E004F07006900E
:105405000D35E004F0900D30E004F07006900D2F9E
:0A541500E004F080A4126EC67F01CF
:01541F00226A
:10690F00E5A254CFF5A2E4F5D8F5E9F5F975D9026A
:10691F00F5F275EA2075FA2075DA4275F34075EBDA
:10692F002075FB2075DB4275F48075EC2075FC201B
:06693F0075DC42D2DE22ED
:1066C200E4F5B4F5B343BA80F5F190FFF2F090FF30
:1066D200F07403F0A374E8F090FF20E4F0A3F0FC60
:1066E200FDFE7BE87A03F9F81237C7E47B64FAF916
:1066F200F812679E90FF22EEF0A3EFF0A37408F069
:0B67020043F50443F58053BA7F80FE8E
:10670D00E4F5CAF5C943BA80F5F190FFF2F090FFB8
:10671D00F07403F0A374E8F090FF30E4F0A3F0FC04
:10672D00FDFE7BE87A03F9F81237C7E47B64FAF9CA
:10673D00F812679E90FF32EEF0A3EFF0A37408F00D
:0A674D0043F50843F58053BA7F229C
:106BE400EF75F064A4FFAEF0C374109F900DA7F08E
:0F6BF40074279E900DA6F0E4900D89F0026DC3FA
:03009B00025E649E
:105E6400C0E0C0F0C083C082C0D075D000C000C004
:105E740001C002C003C004C005C006C007900D895C
:105E8400E07038900D8CE0FF75F012A4F404F5D5A1
:105E9400E4FCFDFE7B12FAF9F81237C7C3E49FFF56
:105EA400E49EFE74019DFDE49CFC78081238248F66
:105EB400D4D2A0900D897401F08035900D8AE0FF52
:105EC40075F012A4F404F5D5E4FCFDFE7B12FAF996
:105ED400F81237C7C3E49FFFE49EFE74019DFDE4FE
:105EE4009CFC78081238248FD4C2A0900D89E4F069
:105EF400D007D006D005D004D003D002D001D00002
:0B5F0400D0D0D082D083D0F0D0E032AB
:0A5A4200900D1CECF0A3EDF0AB0793
:105A4C00A312384400000000E4900D22F0A3F0EB08
:105A5C001460191460221460371460282404703008
:105A6C00900D1E12384446900000802E900D1E1290
:105A7C003844462CCC008022900D1E12384445AC84
:105A8C00C8008016900D1E12384444ACC000800A29
:105A9C00900D1E123844452CD000E4F594F5934338
:105AAC00BA80F5F190FFF27403F0900D1EE0FCA3A8
:105ABC00E0FDA3E0FEA3E0FF1233B390FFF0EEF0A5
:105ACC00A3EFF090FF50E4F0A3F0FBFA79C8784212
:105ADC00900D1EE0FCA3E0FDA3E0FEA3E0FF12325C
:105AEC005FC004C005C006C007900D1CE0FCA3E01D
:105AFC00FDE412337AD003D002D001D0001231561B
:105B0C001233B390FF52EEF0A3EFF0900D22EEF0B3
:105B1C00A3EFF090FF547408F043F52043F5805345
:025B2C00BA7F3E
:015B2E002254
:1065CF00900DA8EEF0A3EFF0438E805389F0900D5D
:1065DF00A8E0FEA3E0FFE4FCFD7B16FAF9F8123702
:1065EF00C7EFF404F58A900DA8E0FEA3E0FFE4FCEA
:1065FF00FD7B16FAF9F81237C7C3E49FFFE49EFE3E
:10660F0074019DFDE49CFC78081238248F8CC28D98
:03661F00D28C22F8
:106DB100E5A254F34404F5A2E4F5CF75CDC075CE38
:026DC10050225E
:03004B00026F231E
:066F230075CDC0D29132D1
:0A3FF500420D8D0000420D8F000008
:03000B0002662268
:10662200C0E0C083C082C0D0900D8EE004F070063E
:10663200900D8DE004F0900D90E004F07006900D46
:106642008FE004F0900D8DE07004A3E064FA700610
:10665200900D8DF0A3F0900D8FE0B40B0CA3E0B47D
:10666200B807900D8FE4F0A3F0D0D0D082D083D0C1
:02667200E03214
:106D7400538E7F5389F0E4F58A758C70C28DD28C62
:056D8400D2A9D2AF22EC
:106DC30053D1FD75D501E4F5D443D10843AF20D2A7
:026DD300AF22ED
:0300030002002ACE
:01002A0032A3
:096F0000D2B2D288D2A8D2AF228D
:0300130002002EBA
:01002E00329F
:096F0900D2B3C28AD2AAD2AF228F
:0300530002002F79
:01002F00329E
:066F2900438F10D2AF22DD
:03005B0002003070
:01003000329D
:066F2F00438F20D2AF22C7
:0300830002003147
:01003100329C
:066F3500438F40D2AF22A1
:03003300020026A2
:040026005387DF32EB
:086F1B005387DFD2AED2AF2292
:106DD5007D3C7C00E4FF125A42126E6C53F5DFC213
:026DE500862204
:106DE7007D3C7C007F03125A42126E9953F5DFC235
:026DF7008622F2
:106DF9007D3C7C007F03125A42126E8A53F5DFC232
:026E09008622DF
:096F1200AD07AC067F04025A42EF
:106E0B007D3C7C007F04125A42126EA853F5DFC200
:026E1B008622CD
:066F3B008FAA75AB802255
:1068620042415420256425200A200020555342200D
:10687200636861726765200A002055534220206FC9
:106882006666736574200A000000000000000000C4
:0C689200000000000000000000000000FA
:043FFF00410D170A4F
:106B610053CBF143CC0E43CB0143CC01C2E9D2EA72
:106B7100D2EBE4F5B375B401C2C1D2E9126EB7D25A
:026B8100C1222F
:10583000E4900D5CF0A312384400000000E4900DE9
:1058400061F0A3F07F04126AA2900D5CE025E024D1
:1058500003F582E4340DF583EEF0A3EFF0120006B9
:10586000900D5CE004F0E0C3940A40D8900D0FE086
:10587000FEA3E0FF900D0AE02FFF900D09E03EFE31
:10588000900D16E02FFD900D15E03EFCE412337AEA
:10589000A804A905AA06AB077F0A7ED77DA37C448E
:1058A00012325FE4FBFA79407840123156900D5D78
:1058B000123838900D5DE0FCA3E0FDA3E0FEA3E00C
:1058C000FF1233B37C007D64123734AC06AD07E4BD
:1058D00012337AC004C005C006C007E4FFFE7DC8CD
:1058E0007C42900D5DE0F8A3E0F9A3E0FAA3E0FBB1
:1058F000123156D003D002D001D0001230611233E1
:10590000B3900D61EEF0A3EFF0900D5CE0FFC39457
:105910000A5018EF25E02403F582E4340DF583E402
:10592000F0A3F0900D5CE004F080DEE4900D17F041
:0E593000900D5DE0FCA3E0FDA3E0FEA3E0FF10
:01593E002246
:105FB00078D57C0C7D017BFF7A68798A7E007F141E
:105FC0001236B6E4900CE9F0125830900CEA123810
:105FD00038E4FFFEFDFC900CEAE0F8A3E0F9A3E052
:105FE000FAA3E0FB1232FC6054E4FFFE7DC87C4261
:105FF000900CEAE0F8A3E0F9A3E0FAA3E0FB123189
:10600000567B667A667986784012325F1233B39097
:106010000CE9EFF0900C4574FFF0A37468F0A374E2
:1060200062F0A3EFF07B017A0C79D512406D7B0111
:0F6030007A0C79D5126A11900CE9E0FF227F00FB
:01603F00223E
:10559200900CCB12384400000000E4900CCFF0A332
:1055A200F0125830900CD1123838900CD0E0C394DD
:1055B2000A50247F05126AA2900CD0E025E024B59F
:1055C200F582E4340CF583EEF0A3EFF012000690BE
:1055D2000CD0E004F080D3900CC1E0FEA3E0FF9079
:1055E2000CBCE02FFF900CBBE03EFE900CC8E02FFD
:1055F200FF900CC7E03EFE7C007D03123746900C04
:10560200C9EEF0A3EFF0FDAC06E412337A900CD1B0
:10561200E0F8A3E0F9A3E0FAA3E0FB1231567BE73E
:105622007AFB7979783F123156E4FBFA790378C430
:10563200123065E4FBFA79C8784012325F900CCBE5
:10564200123838900CCBE0FCA3E0FDA3E0FEA3E00F
:10565200FF1233B37C007D64123734AC06AD07E42D
:1056620012337AC004C005C006C007E4FFFE7DC83D
:105672007C42900CCBE0F8A3E0F9A3E0FAA3E0FBB4
:10568200123156D003D002D001D000123061123351
:10569200B3900CCFEFF0E4FFFE7DAA7C42900CCBDE
:1056A200E0F8A3E0F9A3E0FAA3E0FB1232FC600405
:1056B2004002C2E97FEE126EF7900CC9E0FF126E53
:1056C200F7900CC9A3E0FF126EF77FEF126EF7900E
:1056D2000CCBE0FCA3E0FDA3E0FEA3E0FF1233B39A
:1056E200126EF7900CCFE0FF126EF7900CCBE0FC3D
:0956F200A3E0FDA3E0FEA3E0FF2C
:0156FB00228C
:106C03004393805394FE7BFF30870A7A68796D1231
:0F6C13006A117F01227A68797B126A117F002251
:104B71004E4F203A20005331203A20005332203A40
:104B810020005333203A20005334203A200053357B
:104B9100203A2000204D41494E204D454E552000E0
:104BA100204D41494E204D454E55200A20002055AB
:104BB1004846204D4F4445200020554846204D4F42
:104BC1004445200A2000204254204D4F44452000F6
:104BD100204254204D4F4445200A20002054455383
:104BE10054204D4F444520002054455354204D4FEF
:104BF1004445200A20002042415454455254204D3E
:104C01004F444520002042415454455259204D4FB4
:104C11004445200A200020425A204D4F444520009F
:104C210020425A204D4F4445200A2000204F4C4538
:104C3100445F74696D696E67207365742000204F4D
:104C41004C45445F74696D696E6720736574200A11
:104C51002000204F4C45445F425A20736574200068
:104C6100204F4C45445F425A20736574200A20004E
:104C7100202153797374656D5F506F7765725F564C
:104C810063635F4F4E5F4F4646200A200020553137
:104C91003420706F77657220676F6F642000205534
:104CA100313420706F77657220676F6F64200A203E
:104CB100002055313420706F776572204E47204FA8
:104CC1004350204F545020002055313420706F77CD
:104CD1006572204E47204F4350204F5450200A20E8
