:03000000025A128F
:0C5A1200787FE4F6D8FD758142025A59F5
:10635F00E490093BF01266631263361264CD126447
:10636F001412630D1258E61266D712584590093B66
:08637F00EFF060F3B2E980EFDA
:09673D001266C81266C8C284226B
:055C32009009A2EFF053
:105C3700E4A3F0A3F01266A97F0112674F7FFC125D
:105C4700674F7F0112674F7F0112674F9009A2E0EC
:105C5700FF12674F1266B9900514E070037FFF22A9
:105C6700900514E0FF9009A3E0FCA3E0FDC39F7437
:105C770080F8EC648098501F74002DF58274053C01
:105C8700F583E0FF1267469009A4E004F070D19015
:105C970009A3E004F080C9900502E0B401037F0185
:035CA700227FFF5A
:015CAA0022D7
:106186001266A97F0112674F7FFC12674F7F0212CA
:10619600674FE4FF12674F1266B9900514E0640575
:1061A60060037FFF22900503E0B40104A3E0FF2211
:0361B6007FFF2246
:0C0016007F547EF77D18DDFEDEFCDFFA73
:0100220022BB
:0E66B90000007F027EAF7D4BDDFEDEFCDFFACF
:0166C70022B0
:0E66C80000007F0D7E9C7D53DDFEDEFCDFFAC0
:0166D60022A1
:0E66D70000007F017ED87D23DDFEDEFCDFFAB1
:0166E5002292
:0E66E60000007F2B7E067DCBDDFEDEFCDFFAA2
:0166F4002283
:0E66F50000007FFD7E237DDCDDFEDEFCDFFA93
:016703002273
:0E67040000007F117ED07D1BDDFEDEFCDFFA83
:016712002264
:0E67130000007F057E347DC3DDFEDEFCDFFA74
:016721002255
:040006007F0EDFFE8C
:01000A0022D3
:0E67220000007F097E687D8BDDFEDEFCDFFA65
:016730002246
:104B90004E4F5420205265616420434D440A00204A
:104BA000696E64795F7265616474656D7020737499
:104BB000617274200D0A0020696E64795F7265610C
:104BC0006474656D7020656E64200D0A00240349CD
:104BD000006D00700069006E006A0053006500728D
:104BE00000690061006C004E0075006D00300031FE
:104BF000004003BFFCBFFCBFFC000001001200210D
:104C0000000000100000000000000005000000008F
:104C1000000000060000000000000010000000007E
:104C2000000000110088E1F3C000000000F0000661
:104C300002000001001200210000000200A000A0FC
:104C400002000000030000000000000200A000A01D
:104C5000020000611B0206000000000500000000C9
:104C60000000000207010000000000050000000035
:104C700000000004070000000000000507D0070046
:104C80000000000607DC000000000007070020000D
:104C9000000000120BFFFF0F0000000500000000E5
:104CA00000000000050000000000000005000000FA
:104CB00000000000060000000000000005000000E9
:104CC00000000000050000000000000006000000D9
:104CD0000000010000000200000027000000872EF5
:104CE0000D0001000100020000008F2E0D000000E9
:104CF00000000000050000000000000006000000A9
:024D00000000B1
:083E22004108B5FF4108B6009C
:0B5D11007B027F047A00E4FDFC7E0AA8
:105D1C0090097FEEF0A3EFF0A3ECF0A3EDF0A3EA73
:105D2C00F0A3EBF07F01126746E4FF12674690097F
:105D3C007FA3E0FF12674690097FE0FF1267469051
:105D4C000983A3E0FF126746900983E0FF126746C0
:105D5C00900981A3E0FF126746900981E0FF02677A
:015D6C0046F0
:106119009009BAEEF0A3EFF0E4FF126746E4FF122C
:1061290067469009BAA3E0FF1267469009BAE0FFF3
:10613900126746E4FF126746E4FF126746E4FF125E
:076149006746E4FF02674610
:1050AF00E4FF900895E09008B8F0E49008B7F0900E
:1050BF0008B7E0FEFD3395E0FC74962DF582740879
:1050CF003CF583E0FDEEFB3395E0FA74B92BF582E6
:1050DF0074083AF583EDF09008B7E004F0E0B40CF3
:1050EF00CEE49008B7F09008B7E0FEFD3395E0FCF2
:1050FF0074A22DF58274083CF583E0FDEEFB339529
:10510F00E0FA74C52BF58274083AF583EDF0900838
:10511F00B7E004F0E0B402CE9008B7740FF0900837
:10512F00B7E0FEC3648094A0501AEEFD3395E0FC07
:10513F0074B82DF58274083CF583E4F09008B7E05D
:10514F0004F080DAE49008B7F09008B7E0FEC3648B
:10515F008094A0501BEEFD3395E0FC74B82DF582C2
:10516F0074083CF583E02FFF9008B7E004F080D976
:10517F00EF9008D7F0E49008B7F09008B7E0FFC3BE
:10518F00648094A0501CEF3395E0FE74B82FF58225
:10519F0074083EF583E0FF12674F9008B7E004F004
:0251AF0080D8A6
:0151B10022DB
:105D6D00E4900895F0FFEFFD3395E0FC74962DF56A
:105D7D008274083CF583E4F00FEFB40CE9E4FFEF17
:105D8D00FD3395E0FC74A22DF58274083CF583E497
:105D9D00F00FEFB402E9E4FFC3EF64809480501577
:105DAD00EFFD3395E0FC74A42DF58274083CF5836A
:0A5DBD00E4F00F80E3E49008B4F076
:015DC70022B9
:104420009009137401F0E4A3F0A3F074FFA3F0A3C8
:10443000F0E4A3F0A3F0A3F0A3F0A3F0A3F0A3F0A3
:10444000A3F0A3F0A3F0A3F0A37412F0E4A3F0C2CE
:1044500011C212A3F0900918E0FEA3E02417F58220
:1044600074053EF583E0640160030246B6900918C6
:10447000A3E0FF2418F58274053EF583E09009253A
:10448000F0741A2FF58274053EF583E0FE9009184A
:10449000E0FCA3E0FD2419F58274053CF583E07A85
:1044A000002400FFEA3E900916F0A3EFF0741C2DE3
:1044B000F58274053CF583E0FE900918A3E0241B07
:1044C000F58274053CF583E02400FFEA3E90091470
:1044D000F0A3EFF0ED2408FFE43C90091AF0FCA3F0
:1044E000EFF0FD900914E0FAA3E0FBAE027802C3FE
:1044F00033CE33CED8F92DFFEE3C90091CF0A3EF5C
:10450000F0EB2402FFE43AFEEF7802C333CE33CE61
:10451000D8F9FF900919E02FF0900918E03EF090CB
:104520000916E07004A3E06405706190091BE024A3
:104530000EFE90091AE0340090091EF0A3CEF0E4BC
:10454000900911F0A3F0900911E0FEA3E0FF90099B
:104550001FE02FFD90091EE03EFC74172DF58274BC
:10456000053CF583E0FD74962FF582E43408F5836D
:10457000EDF0900912E004F07006900911E004F0EB
:10458000900911E07004A3E0640C70BA900916E081
:104590007004A3E064066003024455900925E060BE
:1045A000030246B690091AE0FEA3E0FF241BF58241
:1045B00074053EF583E064C260030246AAEF240C52
:1045C000FFE43E900920F0A3EFF0900895E024FE70
:1045D000605C14700302467D240260030246A0E47E
:1045E000900911F0A3F0900911E0FEA3E0FF9009FB
:1045F00021E02FFD900920E03EFC74172DF5827418
:10460000053CF583E0FD74A22FF582E43408F583C0
:10461000EDF0900912E004F07006900911E004F04A
:10462000900911E07004A3E0640270BA8069E4901C
:104630000911F0A3F0900911E0FEA3E0FF90092119
:10464000E02FFD900920E03EFC74172DF5827405E3
:104650003CF583E0FD74A22FF582E43408F583ED88
:10466000F0900912E004F07006900911E004F09057
:104670000911E07004A3E0640270BA801AE49008A3
:10468000A2F0900920E0FEA3E02418F58274053E14
:10469000F583E09008A3F09008B6E004F0024455DA
:1046A000E49008B5F0A3F00244557BFF7A4B799073
:0646B0001261EC0244550A
:0146B60022E1
:105F9800E49009BCF0A3F0FBFAFDFC7F027E0A1234
:105FA8005D1C7B0C7F03125D15125D11E4FBFAFD8D
:105FB800FC7F067E0A125D1C7B107A00E4FDFCFF64
:105FC8007EF0125D1C120016900517E0B40107C29E
:065FD800AC124420D2AC23
:015FDE0022A0
:105E6D00E49009BEF0A3F0FBFAFDFC7F027E0A125E
:105E7D005D1C7B0D7A00E4FDFC7F037E0A125D1C28
:105E8D00125D11E4FBFAFDFC7F067E0A125D1C7BA0
:105E9D00087A00E4FDFCFF7EF0125D1C12001690E6
:0D5EAD000517E0B40107C2AC124420D2ACCE
:015EBA0022C5
:10555800E4900996F0A3F07BFF7A4B799F1261ECF7
:10556800E4FBFAFDFC7F027E0A125D1C7B0E7A00CA
:10557800E4FDFC7F037E0A125D1C125D11E4FBFA58
:10558800FDFC7F067E0A125D1C7B077A00E4FDFCA9
:10559800FF7EF0125D1C1265C412001690070BA363
:1055A800E0FF12674F90070BE0FFA3E0900996CF4A
:1055B800F0A3EFF07F5512674F900996A3E0FF1212
:1055C800674FE4900998F0A3F0900996E0FEA3E0F5
:1055D800FFA3E0FCA3E0FDC39FEE6480F8EC6480C9
:1055E80098501F74172DF58274053CF583E0FF125F
:1055F800674F900999E004F07006900998E004F06C
:1056080080C7900517E0B40107C2AC124420D2ACA1
:095618007BFF7A4B79B70261ECCB
:10602300E4FF900500E06037900514E0C394085046
:1060330003E4FE22E4FEEEFD3395E0FC74002DF54F
:106043008274053CF583E02FFF0EEEB407E890055C
:1060530007E0B507057E007F01221266A98000E4F0
:02606300FEFF3E
:016065002218
:10009E00EF14B42200400302233C9000B675F00327
:1000AE00A4C58325F0C5837302011C02012502013C
:1000BE002E0201300201320203A902013502014370
:1000CE0002015102015F02016D02017B02018F02EA
:1000DE0001A30201B70201F302020702026B020240
:1000EE007F0202930202A70202BB0202CF02233C4E
:1000FE0002030B0203470203A902035B02039602EB
:10010E0003A90203BC0203D40203A90203FC7FC0AD
:10011E001267467F0680337F401267467F03802A30
:10012E00802F8003020347E4FF126746E4FF126745
:10013E00467F108058E4FF126746E4FF1267467F41
:10014E0011804AE4FF126746E4FF126746E4FF801F
:10015E003CE4FF126746E4FF1267467F01802EE4FF
:10016E00FF126746E4FF1267467F028020E4FF120B
:10017E006746E4FF126746E4FF1267467F030203F9
:10018E00E5E4FF126746E4FF1267467F02126746F8
:10019E00E4FF0203E5E4FF126746E4FF1267467FC1
:1001AE00611267467F1B0203E57F01126746E4FF7B
:1001BE001267467F011267467F07126746E4FF12F9
:1001CE006746E4FF126746E4FF126746E4FF1267D4
:1001DE0046E4FF126746E4FF1267467F0512674644
:1001EE00E4FF0203E5E4FF126746E4FF1267467F71
:1001FE00021267467F070203E57F01126746E4FF9E
:10020E001267467F021267467F071267467F01120A
:10021E006746E4FF126746E4FF126746E4FF126783
:10022E00467F01126746E4FF1267467F011267465A
:10023E007F07126746E4FF126746E4FF126746E443
:10024E00FF126746E4FF126746E4FF126746E4FFBB
:10025E001267467F05126746E4FF0203E5E4FF12CC
:10026E006746E4FF1267467F041267467F07020364
:10027E00E5E4FF126746E4FF1267467F0512674604
:10028E007F070203E5E4FF126746E4FF1267467F2D
:10029E00061267467F070203E5E4FF126746E4FF96
:1002AE001267467F071267467F070203E5E4FF12D7
:1002BE006746E4FF1267467F121267467F0B020302
:1002CE00E57F01126746E4FF1267467F011267461B
:1002DE007F07126746E4FF126746E4FF126746E4A3
:1002EE00FF126746E4FF126746E4FF126746E4FF1B
:1002FE001267467F05126746E4FF0203E57F01128F
:10030E006746E4FF1267467F0A1267467F0112674F
:10031E00467FF81267467F591267467F0D12674671
:10032E00E4FF126746E4FF126746E4FF1267467F5A
:10033E0005126746E4FF0203E5E4FF126746E4FF99
:10034E001267467F05126746E4FF0203E57F01123E
:10035E006746E4FF1267467F081267467F01126701
:10036E00467F011267467F01126746E4FF12674619
:10037E00E4FF126746E4FF126746E4FF1267467F0A
:10038E0005126746E4FF804FE4FF126746E4FF1252
:10039E0067467F05126746E4FF803CE4FF1267461E
:1003AE00E4FF1267467F06126746E4FF80297F014D
:1003BE00126746E4FF126746E4FF1267467FF012AB
:1003CE0067467F278016E4FF126746E4FF126746F2
:1003DE007F05126746E4FF126746E4FF126746E4A4
:1003EE00FF126746E4FF126746E4FF0223397F01DE
:1003FE00126746E4FF1267467F011267467F0C12B2
:10040E006746E4FF126746E4FF126746E4FF126791
:10041E0046E4FF1267467F01126746E4FF12674605
:10042E007F021267467F0C1267467F01126746E411
:10043E00FF126746E4FF126746E4FF1267467F012C
:10044E00126746E4FF1267467F031267467F0C125F
:10045E0067467F701267467F0D1267467F181267D8
:10046E0046E4FF1267467F01126746E4FF126746B5
:10047E007F041267467F0C126746E4FF1267467FC1
:10048E00011267467F071267467F141267467F0187
:10049E00126746E4FF1267467F011267467F0C1211
:1004AE0067467F01126746E4FF126746E4FF126754
:1004BE0046E4FF1267467F01126746E4FF12674665
:1004CE007F021267467F0C1267467F01126746E471
:1004DE00FF126746E4FF126746E4FF1267467F018C
:1004EE00126746E4FF1267467F031267467F0C12BF
:1004FE0067467F841267467F0D1267467F18126724
:10050E0046E4FF1267467F01126746E4FF12674614
:10051E007F041267467F0C126746E4FF1267467F20
:10052E00011267467F071267467F141267467F01E6
:10053E00126746E4FF1267467F011267467F0C1270
:10054E0067467F02126746E4FF126746E4FF1267B2
:10055E0046E4FF1267467F01126746E4FF126746C4
:10056E007F021267467F0C1267467F01126746E4D0
:10057E00FF126746E4FF126746E4FF1267467F01EB
:10058E00126746E4FF1267467F031267467F0C121E
:10059E0067467F981267467F0D1267467F1812676F
:1005AE0046E4FF1267467F01126746E4FF12674674
:1005BE007F041267467F0C126746E4FF1267467F80
:1005CE00011267467F071267467F141267467F0146
:1005DE00126746E4FF1267467F011267467F0C12D0
:1005EE0067467F03126746E4FF126746E4FF126711
:1005FE0046E4FF1267467F01126746E4FF12674624
:10060E007F021267467F0C1267467F01126746E42F
:10061E00FF126746E4FF126746E4FF1267467F014A
:10062E00126746E4FF1267467F031267467F0C127D
:10063E0067467FAC1267467F0D1267467F181267BA
:10064E0046E4FF1267467F01126746E4FF126746D3
:10065E007F041267467F0C126746E4FF1267467FDF
:10066E00011267467F071267467F141267467F01A5
:10067E00126746E4FF1267467F011267467F0C122F
:10068E0067467F04126746E4FF126746E4FF12676F
:10069E0046E4FF1267467F01126746E4FF12674683
:1006AE007F021267467F0C1267467F01126746E48F
:1006BE00FF126746E4FF126746E4FF1267467F01AA
:1006CE00126746E4FF1267467F031267467F0C12DD
:1006DE0067467FC01267467F0D1267467F18126706
:1006EE0046E4FF1267467F01126746E4FF12674633
:1006FE007F041267467F0C126746E4FF1267467F3F
:10070E00011267467F071267467F141267467F0104
:10071E00126746E4FF1267467F011267467F0C128E
:10072E0067467F05126746E4FF126746E4FF1267CD
:10073E0046E4FF1267467F01126746E4FF126746E2
:10074E007F021267467F0C1267467F01126746E4EE
:10075E00FF126746E4FF126746E4FF1267467F0109
:10076E00126746E4FF1267467F031267467F0C123C
:10077E0067467FD41267467F0D1267467F18126751
:10078E0046E4FF1267467F01126746E4FF12674692
:10079E007F041267467F0C126746E4FF1267467F9E
:1007AE00011267467F071267467F141267467F0164
:1007BE00126746E4FF1267467F011267467F0C12EE
:1007CE0067467F06126746E4FF126746E4FF12672C
:1007DE0046E4FF1267467F01126746E4FF12674642
:1007EE007F021267467F0C1267467F01126746E44E
:1007FE00FF126746E4FF126746E4FF1267467F0169
:10080E00126746E4FF1267467F031267467F0C129B
:10081E0067467FE81267467F0D1267467F1812679C
:10082E0046E4FF1267467F01126746E4FF126746F1
:10083E007F041267467F0C126746E4FF1267467FFD
:10084E00011267467F071267467F141267467F01C3
:10085E00126746E4FF1267467F011267467F0C124D
:10086E0067467F07126746E4FF126746E4FF12678A
:10087E0046E4FF1267467F01126746E4FF126746A1
:10088E007F021267467F0C1267467F01126746E4AD
:10089E00FF126746E4FF126746E4FF1267467F01C8
:1008AE00126746E4FF1267467F031267467F0C12FB
:1008BE0067467FFC1267467F0D1267467F181267E8
:1008CE0046E4FF1267467F01126746E4FF12674651
:1008DE007F041267467F0C126746E4FF1267467F5D
:1008EE00011267467F071267467F141267467F0123
:1008FE00126746E4FF1267467F011267467F0C12AD
:10090E0067467F08126746E4FF126746E4FF1267E8
:10091E0046E4FF1267467F01126746E4FF12674600
:10092E007F021267467F0C1267467F01126746E40C
:10093E00FF126746E4FF126746E4FF1267467F0127
:10094E00126746E4FF1267467F031267467F0C125A
:10095E0067467F101267467F0E1267467F18126732
:10096E0046E4FF1267467F01126746E4FF126746B0
:10097E007F041267467F0C126746E4FF1267467FBC
:10098E00011267467F071267467F141267467F0182
:10099E00126746E4FF1267467F011267467F0C120C
:1009AE0067467F09126746E4FF126746E4FF126747
:1009BE0046E4FF1267467F01126746E4FF12674660
:1009CE007F021267467F0C1267467F01126746E46C
:1009DE00FF126746E4FF126746E4FF1267467F0187
:1009EE00126746E4FF1267467F031267467F0C12BA
:1009FE0067467F241267467F0E1267467F1812677E
:100A0E0046E4FF1267467F01126746E4FF1267460F
:100A1E007F041267467F0C126746E4FF1267467F1B
:100A2E00011267467F071267467F141267467F01E1
:100A3E00126746E4FF1267467F011267467F0C126B
:100A4E0067467F0A126746E4FF126746E4FF1267A5
:100A5E0046E4FF1267467F01126746E4FF126746BF
:100A6E007F021267467F0C1267467F01126746E4CB
:100A7E00FF126746E4FF126746E4FF1267467F01E6
:100A8E00126746E4FF1267467F031267467F0C1219
:100A9E0067467F381267467F0E1267467F181267C9
:100AAE0046E4FF1267467F01126746E4FF1267466F
:100ABE007F041267467F0C126746E4FF1267467F7B
:100ACE00011267467F071267467F141267467F0141
:100ADE00126746E4FF1267467F011267467F0C12CB
:100AEE0067467F0B126746E4FF126746E4FF126704
:100AFE0046E4FF1267467F01126746E4FF1267461F
:100B0E007F021267467F0C1267467F01126746E42A
:100B1E00FF126746E4FF126746E4FF1267467F0145
:100B2E00126746E4FF1267467F031267467F0C1278
:100B3E0067467F4C1267467F0E1267467F18126714
:100B4E0046E4FF1267467F01126746E4FF126746CE
:100B5E007F041267467F0C126746E4FF1267467FDA
:100B6E00011267467F071267467F141267467F01A0
:100B7E00126746E4FF1267467F011267467F0C122A
:100B8E0067467F0C126746E4FF126746E4FF126762
:100B9E0046E4FF1267467F01126746E4FF1267467E
:100BAE007F021267467F0C1267467F01126746E48A
:100BBE00FF126746E4FF126746E4FF1267467F01A5
:100BCE00126746E4FF1267467F031267467F0C12D8
:100BDE0067467F601267467F0E1267467F18126760
:100BEE0046E4FF1267467F01126746E4FF1267462E
:100BFE007F041267467F0C126746E4FF1267467F3A
:100C0E00011267467F071267467F141267467F01FF
:100C1E00126746E4FF1267467F011267467F0C1289
:100C2E0067467F0D126746E4FF126746E4FF1267C0
:100C3E0046E4FF1267467F01126746E4FF126746DD
:100C4E007F021267467F0C126746E4FF126746E486
:100C5E00FF126746E4FF126746E4FF1267467F0104
:100C6E00126746E4FF1267467F031267467F0C1237
:100C7E0067467F601267467F0E1267467F181267BF
:100C8E0046E4FF1267467F01126746E4FF1267468D
:100C9E007F041267467F0C126746E4FF1267467F99
:100CAE00011267467F071267467F141267467F015F
:100CBE00126746E4FF1267467F011267467F0C12E9
:100CCE0067467F0E126746E4FF126746E4FF12671F
:100CDE0046E4FF1267467F01126746E4FF1267463D
:100CEE007F021267467F0C126746E4FF126746E4E6
:100CFE00FF126746E4FF126746E4FF1267467F0164
:100D0E00126746E4FF1267467F031267467F0C1296
:100D1E0067467F601267467F0E1267467F1812671E
:100D2E0046E4FF1267467F01126746E4FF126746EC
:100D3E007F041267467F0C126746E4FF1267467FF8
:100D4E00011267467F071267467F141267467F01BE
:100D5E00126746E4FF1267467F011267467F0C1248
:100D6E0067467F0F126746E4FF126746E4FF12677D
:100D7E0046E4FF1267467F01126746E4FF1267469C
:100D8E007F021267467F0C126746E4FF126746E445
:100D9E00FF126746E4FF126746E4FF1267467F01C3
:100DAE00126746E4FF1267467F031267467F0C12F6
:100DBE0067467F601267467F0E1267467F1812677E
:100DCE0046E4FF1267467F01126746E4FF1267464C
:100DDE007F041267467F0C126746E4FF1267467F58
:100DEE00011267467F071267467F141267467F011E
:100DFE00126746E4FF1267467F011267467F0C12A8
:100E0E0067467F10126746E4FF126746E4FF1267DB
:100E1E0046E4FF1267467F01126746E4FF126746FB
:100E2E007F021267467F0C126746E4FF126746E4A4
:100E3E00FF126746E4FF126746E4FF1267467F0122
:100E4E00126746E4FF1267467F031267467F0C1255
:100E5E0067467F601267467F0E1267467F181267DD
:100E6E0046E4FF1267467F01126746E4FF126746AB
:100E7E007F041267467F0C126746E4FF1267467FB7
:100E8E00011267467F071267467F141267467F017D
:100E9E00126746E4FF1267467F011267467F0C1207
:100EAE0067467F11126746E4FF126746E4FF12673A
:100EBE0046E4FF1267467F01126746E4FF1267465B
:100ECE007F021267467F0C126746E4FF126746E404
:100EDE00FF126746E4FF126746E4FF1267467F0182
:100EEE00126746E4FF1267467F031267467F0C12B5
:100EFE0067467F601267467F0E1267467F1812673D
:100F0E0046E4FF1267467F01126746E4FF1267460A
:100F1E007F041267467F0C126746E4FF1267467F16
:100F2E00011267467F071267467F141267467F01DC
:100F3E00126746E4FF1267467F011267467F0C1266
:100F4E0067467F12126746E4FF126746E4FF126798
:100F5E0046E4FF1267467F01126746E4FF126746BA
:100F6E007F021267467F0C126746E4FF126746E463
:100F7E00FF126746E4FF126746E4FF1267467F01E1
:100F8E00126746E4FF1267467F031267467F0C1214
:100F9E0067467F601267467F0E1267467F1812679C
:100FAE0046E4FF1267467F01126746E4FF1267466A
:100FBE007F041267467F0C126746E4FF1267467F76
:100FCE00011267467F071267467F141267467F013C
:100FDE00126746E4FF1267467F011267467F0C12C6
:100FEE0067467F13126746E4FF126746E4FF1267F7
:100FFE0046E4FF1267467F01126746E4FF1267461A
:10100E007F021267467F0C126746E4FF126746E4C2
:10101E00FF126746E4FF126746E4FF1267467F0140
:10102E00126746E4FF1267467F031267467F0C1273
:10103E0067467F601267467F0E1267467F181267FB
:10104E0046E4FF1267467F01126746E4FF126746C9
:10105E007F041267467F0C126746E4FF1267467FD5
:10106E00011267467F071267467F141267467F019B
:10107E00126746E4FF1267467F011267467F0C1225
:10108E0067467F14126746E4FF126746E4FF126755
:10109E0046E4FF1267467F01126746E4FF12674679
:1010AE007F021267467F0C126746E4FF126746E422
:1010BE00FF126746E4FF126746E4FF1267467F01A0
:1010CE00126746E4FF1267467F031267467F0C12D3
:1010DE0067467F601267467F0E1267467F1812675B
:1010EE0046E4FF1267467F01126746E4FF12674629
:1010FE007F041267467F0C126746E4FF1267467F35
:10110E00011267467F071267467F141267467F01FA
:10111E00126746E4FF1267467F011267467F0C1284
:10112E0067467F15126746E4FF126746E4FF1267B3
:10113E0046E4FF1267467F01126746E4FF126746D8
:10114E007F021267467F0C126746E4FF126746E481
:10115E00FF126746E4FF126746E4FF1267467F01FF
:10116E00126746E4FF1267467F031267467F0C1232
:10117E0067467F601267467F0E1267467F181267BA
:10118E0046E4FF1267467F01126746E4FF12674688
:10119E007F041267467F0C126746E4FF1267467F94
:1011AE00011267467F071267467F141267467F015A
:1011BE00126746E4FF1267467F011267467F0C12E4
:1011CE0067467F16126746E4FF126746E4FF126712
:1011DE0046E4FF1267467F01126746E4FF12674638
:1011EE007F021267467F0C126746E4FF126746E4E1
:1011FE00FF126746E4FF126746E4FF1267467F015F
:10120E00126746E4FF1267467F031267467F0C1291
:10121E0067467F601267467F0E1267467F18126719
:10122E0046E4FF1267467F01126746E4FF126746E7
:10123E007F041267467F0C126746E4FF1267467FF3
:10124E00011267467F071267467F141267467F01B9
:10125E00126746E4FF1267467F011267467F0C1243
:10126E0067467F17126746E4FF126746E4FF126770
:10127E0046E4FF1267467F01126746E4FF12674697
:10128E007F021267467F0C126746E4FF126746E440
:10129E00FF126746E4FF126746E4FF1267467F01BE
:1012AE00126746E4FF1267467F031267467F0C12F1
:1012BE0067467F601267467F0E1267467F18126779
:1012CE0046E4FF1267467F01126746E4FF12674647
:1012DE007F041267467F0C126746E4FF1267467F53
:1012EE00011267467F071267467F141267467F0119
:1012FE00126746E4FF1267467F011267467F0C12A3
:10130E0067467F18126746E4FF126746E4FF1267CE
:10131E0046E4FF1267467F01126746E4FF126746F6
:10132E007F021267467F0C126746E4FF126746E49F
:10133E00FF126746E4FF126746E4FF1267467F011D
:10134E00126746E4FF1267467F031267467F0C1250
:10135E0067467F601267467F0E1267467F181267D8
:10136E0046E4FF1267467F01126746E4FF126746A6
:10137E007F041267467F0C126746E4FF1267467FB2
:10138E00011267467F071267467F141267467F0178
:10139E00126746E4FF1267467F011267467F0C1202
:1013AE0067467F19126746E4FF126746E4FF12672D
:1013BE0046E4FF1267467F01126746E4FF12674656
:1013CE007F021267467F0C126746E4FF126746E4FF
:1013DE00FF126746E4FF126746E4FF1267467F017D
:1013EE00126746E4FF1267467F031267467F0C12B0
:1013FE0067467F601267467F0E1267467F18126738
:10140E0046E4FF1267467F01126746E4FF12674605
:10141E007F041267467F0C126746E4FF1267467F11
:10142E00011267467F071267467F141267467F01D7
:10143E00126746E4FF1267467F011267467F0C1261
:10144E0067467F1A126746E4FF126746E4FF12678B
:10145E0046E4FF1267467F01126746E4FF126746B5
:10146E007F021267467F0C126746E4FF126746E45E
:10147E00FF126746E4FF126746E4FF1267467F01DC
:10148E00126746E4FF1267467F031267467F0C120F
:10149E0067467F601267467F0E1267467F18126797
:1014AE0046E4FF1267467F01126746E4FF12674665
:1014BE007F041267467F0C126746E4FF1267467F71
:1014CE00011267467F071267467F141267467F0137
:1014DE00126746E4FF1267467F011267467F0C12C1
:1014EE0067467F1B126746E4FF126746E4FF1267EA
:1014FE0046E4FF1267467F01126746E4FF12674615
:10150E007F021267467F0C126746E4FF126746E4BD
:10151E00FF126746E4FF126746E4FF1267467F013B
:10152E00126746E4FF1267467F031267467F0C126E
:10153E0067467F601267467F0E1267467F181267F6
:10154E0046E4FF1267467F01126746E4FF126746C4
:10155E007F041267467F0C126746E4FF1267467FD0
:10156E00011267467F071267467F141267467F0196
:10157E00126746E4FF1267467F011267467F0C1220
:10158E0067467F1C126746E4FF126746E4FF126748
:10159E0046E4FF1267467F01126746E4FF12674674
:1015AE007F021267467F0C126746E4FF126746E41D
:1015BE00FF126746E4FF126746E4FF1267467F019B
:1015CE00126746E4FF1267467F031267467F0C12CE
:1015DE0067467F601267467F0E1267467F18126756
:1015EE0046E4FF1267467F01126746E4FF12674624
:1015FE007F041267467F0C126746E4FF1267467F30
:10160E00011267467F071267467F141267467F01F5
:10161E00126746E4FF1267467F011267467F0C127F
:10162E0067467F1D126746E4FF126746E4FF1267A6
:10163E0046E4FF1267467F01126746E4FF126746D3
:10164E007F021267467F0C126746E4FF126746E47C
:10165E00FF126746E4FF126746E4FF1267467F01FA
:10166E00126746E4FF1267467F031267467F0C122D
:10167E0067467F601267467F0E1267467F181267B5
:10168E0046E4FF1267467F01126746E4FF12674683
:10169E007F041267467F0C126746E4FF1267467F8F
:1016AE00011267467F071267467F141267467F0155
:1016BE00126746E4FF1267467F011267467F0C12DF
:1016CE0067467F1E126746E4FF126746E4FF126705
:1016DE0046E4FF1267467F01126746E4FF12674633
:1016EE007F021267467F0C126746E4FF126746E4DC
:1016FE00FF126746E4FF126746E4FF1267467F015A
:10170E00126746E4FF1267467F031267467F0C128C
:10171E0067467F601267467F0E1267467F18126714
:10172E0046E4FF1267467F01126746E4FF126746E2
:10173E007F041267467F0C126746E4FF1267467FEE
:10174E00011267467F071267467F141267467F01B4
:10175E00126746E4FF1267467F011267467F0C123E
:10176E0067467F1F126746E4FF126746E4FF126763
:10177E0046E4FF1267467F01126746E4FF12674692
:10178E007F021267467F0C126746E4FF126746E43B
:10179E00FF126746E4FF126746E4FF1267467F01B9
:1017AE00126746E4FF1267467F031267467F0C12EC
:1017BE0067467F601267467F0E1267467F18126774
:1017CE0046E4FF1267467F01126746E4FF12674642
:1017DE007F041267467F0C126746E4FF1267467F4E
:1017EE00011267467F071267467F141267467F0114
:1017FE00126746E4FF1267467F011267467F0C129E
:10180E0067467F20126746E4FF126746E4FF1267C1
:10181E0046E4FF1267467F01126746E4FF126746F1
:10182E007F021267467F0C126746E4FF126746E49A
:10183E00FF126746E4FF126746E4FF1267467F0118
:10184E00126746E4FF1267467F031267467F0C124B
:10185E0067467F601267467F0E1267467F181267D3
:10186E0046E4FF1267467F01126746E4FF126746A1
:10187E007F041267467F0C126746E4FF1267467FAD
:10188E00011267467F071267467F141267467F0173
:10189E00126746E4FF1267467F011267467F0C12FD
:1018AE0067467F21126746E4FF126746E4FF126720
:1018BE0046E4FF1267467F01126746E4FF12674651
:1018CE007F021267467F0C126746E4FF126746E4FA
:1018DE00FF126746E4FF126746E4FF1267467F0178
:1018EE00126746E4FF1267467F031267467F0C12AB
:1018FE0067467F601267467F0E1267467F18126733
:10190E0046E4FF1267467F01126746E4FF12674600
:10191E007F041267467F0C126746E4FF1267467F0C
:10192E00011267467F071267467F141267467F01D2
:10193E00126746E4FF1267467F011267467F0C125C
:10194E0067467F22126746E4FF126746E4FF12677E
:10195E0046E4FF1267467F01126746E4FF126746B0
:10196E007F021267467F0C126746E4FF126746E459
:10197E00FF126746E4FF126746E4FF1267467F01D7
:10198E00126746E4FF1267467F031267467F0C120A
:10199E0067467F601267467F0E1267467F18126792
:1019AE0046E4FF1267467F01126746E4FF12674660
:1019BE007F041267467F0C126746E4FF1267467F6C
:1019CE00011267467F071267467F141267467F0132
:1019DE00126746E4FF1267467F011267467F0C12BC
:1019EE0067467F23126746E4FF126746E4FF1267DD
:1019FE0046E4FF1267467F01126746E4FF12674610
:101A0E007F021267467F0C126746E4FF126746E4B8
:101A1E00FF126746E4FF126746E4FF1267467F0136
:101A2E00126746E4FF1267467F031267467F0C1269
:101A3E0067467F601267467F0E1267467F181267F1
:101A4E0046E4FF1267467F01126746E4FF126746BF
:101A5E007F041267467F0C126746E4FF1267467FCB
:101A6E00011267467F071267467F141267467F0191
:101A7E00126746E4FF1267467F011267467F0C121B
:101A8E0067467F24126746E4FF126746E4FF12673B
:101A9E0046E4FF1267467F01126746E4FF1267466F
:101AAE007F021267467F0C126746E4FF126746E418
:101ABE00FF126746E4FF126746E4FF1267467F0196
:101ACE00126746E4FF1267467F031267467F0C12C9
:101ADE0067467F601267467F0E1267467F18126751
:101AEE0046E4FF1267467F01126746E4FF1267461F
:101AFE007F041267467F0C126746E4FF1267467F2B
:101B0E00011267467F071267467F141267467F01F0
:101B1E00126746E4FF1267467F011267467F0C127A
:101B2E0067467F25126746E4FF126746E4FF126799
:101B3E0046E4FF1267467F01126746E4FF126746CE
:101B4E007F021267467F0C126746E4FF126746E477
:101B5E00FF126746E4FF126746E4FF1267467F01F5
:101B6E00126746E4FF1267467F031267467F0C1228
:101B7E0067467F601267467F0E1267467F181267B0
:101B8E0046E4FF1267467F01126746E4FF1267467E
:101B9E007F041267467F0C126746E4FF1267467F8A
:101BAE00011267467F071267467F141267467F0150
:101BBE00126746E4FF1267467F011267467F0C12DA
:101BCE0067467F26126746E4FF126746E4FF1267F8
:101BDE0046E4FF1267467F01126746E4FF1267462E
:101BEE007F021267467F0C126746E4FF126746E4D7
:101BFE00FF126746E4FF126746E4FF1267467F0155
:101C0E00126746E4FF1267467F031267467F0C1287
:101C1E0067467F601267467F0E1267467F1812670F
:101C2E0046E4FF1267467F01126746E4FF126746DD
:101C3E007F041267467F0C126746E4FF1267467FE9
:101C4E00011267467F071267467F141267467F01AF
:101C5E00126746E4FF1267467F011267467F0C1239
:101C6E0067467F27126746E4FF126746E4FF126756
:101C7E0046E4FF1267467F01126746E4FF1267468D
:101C8E007F021267467F0C126746E4FF126746E436
:101C9E00FF126746E4FF126746E4FF1267467F01B4
:101CAE00126746E4FF1267467F031267467F0C12E7
:101CBE0067467F601267467F0E1267467F1812676F
:101CCE0046E4FF1267467F01126746E4FF1267463D
:101CDE007F041267467F0C126746E4FF1267467F49
:101CEE00011267467F071267467F141267467F010F
:101CFE00126746E4FF1267467F011267467F0C1299
:101D0E0067467F28126746E4FF126746E4FF1267B4
:101D1E0046E4FF1267467F01126746E4FF126746EC
:101D2E007F021267467F0C126746E4FF126746E495
:101D3E00FF126746E4FF126746E4FF1267467F0113
:101D4E00126746E4FF1267467F031267467F0C1246
:101D5E0067467F601267467F0E1267467F181267CE
:101D6E0046E4FF1267467F01126746E4FF1267469C
:101D7E007F041267467F0C126746E4FF1267467FA8
:101D8E00011267467F071267467F141267467F016E
:101D9E00126746E4FF1267467F011267467F0C12F8
:101DAE0067467F29126746E4FF126746E4FF126713
:101DBE0046E4FF1267467F01126746E4FF1267464C
:101DCE007F021267467F0C126746E4FF126746E4F5
:101DDE00FF126746E4FF126746E4FF1267467F0173
:101DEE00126746E4FF1267467F031267467F0C12A6
:101DFE0067467F601267467F0E1267467F1812672E
:101E0E0046E4FF1267467F01126746E4FF126746FB
:101E1E007F041267467F0C126746E4FF1267467F07
:101E2E00011267467F071267467F141267467F01CD
:101E3E00126746E4FF1267467F011267467F0C1257
:101E4E0067467F2A126746E4FF126746E4FF126771
:101E5E0046E4FF1267467F01126746E4FF126746AB
:101E6E007F021267467F0C126746E4FF126746E454
:101E7E00FF126746E4FF126746E4FF1267467F01D2
:101E8E00126746E4FF1267467F031267467F0C1205
:101E9E0067467F601267467F0E1267467F1812678D
:101EAE0046E4FF1267467F01126746E4FF1267465B
:101EBE007F041267467F0C126746E4FF1267467F67
:101ECE00011267467F071267467F141267467F012D
:101EDE00126746E4FF1267467F011267467F0C12B7
:101EEE0067467F2B126746E4FF126746E4FF1267D0
:101EFE0046E4FF1267467F01126746E4FF1267460B
:101F0E007F021267467F0C126746E4FF126746E4B3
:101F1E00FF126746E4FF126746E4FF1267467F0131
:101F2E00126746E4FF1267467F031267467F0C1264
:101F3E0067467F601267467F0E1267467F181267EC
:101F4E0046E4FF1267467F01126746E4FF126746BA
:101F5E007F041267467F0C126746E4FF1267467FC6
:101F6E00011267467F071267467F141267467F018C
:101F7E00126746E4FF1267467F011267467F0C1216
:101F8E0067467F2C126746E4FF126746E4FF12672E
:101F9E0046E4FF1267467F01126746E4FF1267466A
:101FAE007F021267467F0C126746E4FF126746E413
:101FBE00FF126746E4FF126746E4FF1267467F0191
:101FCE00126746E4FF1267467F031267467F0C12C4
:101FDE0067467F601267467F0E1267467F1812674C
:101FEE0046E4FF1267467F01126746E4FF1267461A
:101FFE007F041267467F0C126746E4FF1267467F26
:10200E00011267467F071267467F141267467F01EB
:10201E00126746E4FF1267467F011267467F0C1275
:10202E0067467F2D126746E4FF126746E4FF12678C
:10203E0046E4FF1267467F01126746E4FF126746C9
:10204E007F021267467F0C126746E4FF126746E472
:10205E00FF126746E4FF126746E4FF1267467F01F0
:10206E00126746E4FF1267467F031267467F0C1223
:10207E0067467F601267467F0E1267467F181267AB
:10208E0046E4FF1267467F01126746E4FF12674679
:10209E007F041267467F0C126746E4FF1267467F85
:1020AE00011267467F071267467F141267467F014B
:1020BE00126746E4FF1267467F011267467F0C12D5
:1020CE0067467F2E126746E4FF126746E4FF1267EB
:1020DE0046E4FF1267467F01126746E4FF12674629
:1020EE007F021267467F0C126746E4FF126746E4D2
:1020FE00FF126746E4FF126746E4FF1267467F0150
:10210E00126746E4FF1267467F031267467F0C1282
:10211E0067467F601267467F0E1267467F1812670A
:10212E0046E4FF1267467F01126746E4FF126746D8
:10213E007F041267467F0C126746E4FF1267467FE4
:10214E00011267467F071267467F141267467F01AA
:10215E00126746E4FF1267467F011267467F0C1234
:10216E0067467F2F126746E4FF126746E4FF126749
:10217E0046E4FF1267467F01126746E4FF12674688
:10218E007F021267467F0C126746E4FF126746E431
:10219E00FF126746E4FF126746E4FF1267467F01AF
:1021AE00126746E4FF1267467F031267467F0C12E2
:1021BE0067467F601267467F0E1267467F1812676A
:1021CE0046E4FF1267467F01126746E4FF12674638
:1021DE007F041267467F0C126746E4FF1267467F44
:1021EE00011267467F071267467F141267467F010A
:1021FE00126746E4FF1267467F011267467F0C1294
:10220E0067467F30126746E4FF126746E4FF1267A7
:10221E0046E4FF1267467F01126746E4FF126746E7
:10222E007F021267467F0C126746E4FF126746E490
:10223E00FF126746E4FF126746E4FF1267467F010E
:10224E00126746E4FF1267467F031267467F0C1241
:10225E0067467F601267467F0E1267467F181267C9
:10226E0046E4FF1267467F01126746E4FF12674697
:10227E007F041267467F0C126746E4FF1267467FA3
:10228E00011267467F071267467F141267467F0169
:10229E00126746E4FF1267467F011267467F0C12F3
:1022AE0067467F31126746E4FF126746E4FF126706
:1022BE0046E4FF1267467F01126746E4FF12674647
:1022CE007F021267467F0C126746E4FF126746E4F0
:1022DE00FF126746E4FF126746E4FF1267467F016E
:1022EE00126746E4FF1267467F031267467F0C12A1
:1022FE0067467F601267467F0E1267467F18126729
:10230E0046E4FF1267467F01126746E4FF126746F6
:10231E007F041267467F0C126746E4FF1267467F02
:0F232E00011267467F071267467F141267462227
:05233D0090070DEFF018
:1023420090070F7424F078107C077D017BFF7A4B95
:1023520079CD7E00FF1236B69007347408F07835D6
:102362007C077D017BFF7A4B79F17E00FF1236B646
:1023720090073D7408F0783E7C077D017BFF7A4B25
:1023820079F97E00FF1236B69007467408F0784756
:102392007C077D017BFF7A4C79017E00FF1236B605
:1023A20090074F7408F078507C077D017BFF7A4CD0
:1023B20079097E00FF1236B69007587408F07859F2
:1023C2007C077D017BFF7A4C79117E00FF1236B6C5
:1023D2009007617408F078627C077D017BFF7A4C7C
:1023E20079197E00FF1236B690076A7408F0786B8E
:1023F2007C077D017BFF7A4C79217E00FF1236B685
:102402009007737408F078747C077D017BFF7A4C27
:1024120079297E00FF1236B690077C7408F0787D29
:102422007C077D017BFF7A4C79317E00FF1236B644
:102432009007857408F078867C077D017BFF7A4CD3
:1024420079397E00FF1236B690078E7408F0788FC5
:102452007C077D017BFF7A4C79417E00FF1236B604
:102462009007977408F078987C077D017BFF7A4C7F
:1024720079497E00FF1236B69007A07408F078A161
:102482007C077D017BFF7A4C79517E00FF1236B6C4
:102492009007A97408F078AA7C077D017BFF7A4C2B
:1024A20079597E00FF1236B69007B27408F078B3FD
:1024B2007C077D017BFF7A4C79617E00FF1236B684
:1024C2009007BB7408F078BC7C077D017BFF7A4CD7
:1024D20079697E00FF1236B69007C47408F078C599
:1024E2007C077D017BFF7A4C79717E00FF1236B644
:1024F2009007CD7408F078CE7C077D017BFF7A4C83
:1025020079797E00FF1236B69007D67408F078D734
:102512007C077D017BFF7A4C79817E00FF1236B603
:102522009007DF7408F078E07C077D017BFF7A4C2E
:1025320079897E00FF1236B69007E87408F078E9D0
:102542007C077D017BFF7A4C79917E00FF1236B6C3
:102552009007F17408F078F27C077D017BFF7A4CDA
:1025620079997E00FF1236B6E49007FAF078FB7C88
:10257200077D017BFF7A4C79A1FE7F011236B6906E
:1025820007FC7408F078FD7C077D017BFF7A4C79AB
:10259200A27E00FF1236B69008057408F078067C19
:1025A200087D017BFF7A4C79AA7E00FF1236B69035
:1025B200080E7408F0780F7C087D017BFF7A4C7955
:1025C200B27E00FF1236B69008177408F078187CB5
:1025D200087D017BFF7A4C79BA7E00FF1236B690F5
:1025E20008207408F078217C087D017BFF7A4C7901
:1025F200C27E00FF1236B69008297408F0782A7C51
:10260200087D017BFF7A4C79CA7E00FF1236B690B4
:1026120008327420F078337C087D017BFF7A4C7994
:10262200D27E00FF1236B69008537408F078547CBC
:10263200087D017BFF7A4C79F27E00FF1236B6905C
:10264200085C7408F0785D7C087D017BFF7A4C7928
:10265200FA7E00FF1236B690070DE014B421004056
:102662000302305890267475F003A4C58325F0C583
:1026720083730226D70227250227730227C1022865
:102682000F02285D0228AB0228F902294702299588
:102692000229E3022A31022A7F022ACD022B1B02DF
:1026A2002B69022BB7022C12022C60022CAE022CD8
:1026B200B1022CFF022D4D022D9B022DE9022E3775
:1026C200022E85022ED3022F21022F6F022CAE0280
:1026D2002FBD02300AE490070EF090070FE0FF9042
:1026E200070EE0FEC3EF6480F8EE648098400302B8
:1026F200305BE0FFFD3395E0FC74102DF58274072A
:102702003CF583E0FEEF3395E0FC74172DF58274FF
:10271200053CF583E06E6003022C5590070EE00441
:10272200F080B7E490070EF0900734E0FF90070EB8
:10273200E0FEC3EF6480F8EE648098400302305BF1
:10274200E0FFFD3395E0FC74352DF58274073CF50E
:1027520083E0FEEF3395E0FC74172DF58274053C9F
:10276200F583E06E6003022C5590070EE004F080C2
:10277200B7E490070EF090073DE0FF90070EE0FEF1
:10278200C3EF6480F8EE648098400302305BE0FFA0
:10279200FD3395E0FC743E2DF58274073CF583E031
:1027A200FEEF3395E0FC74172DF58274053CF5833A
:1027B200E06E6003022C5590070EE004F080B7E44F
:1027C20090070EF0900746E0FF90070EE0FEC3EF81
:1027D2006480F8EE648098400302305BE0FFFD33D2
:1027E20095E0FC74472DF58274073CF583E0FEEF1B
:1027F2003395E0FC74172DF58274053CF583E06E89
:102802006003022C5590070EE004F080B7E49007B5
:102812000EF090074FE0FF90070EE0FEC3EF6480DA
:10282200F8EE648098400302305BE0FFFD3395E0F0
:10283200FC74502DF58274073CF583E0FEEF33956E
:10284200E0FC74172DF58274053CF583E06E60039D
:10285200022C5590070EE004F080B7E490070EF0CA
:10286200900758E0FF90070EE0FEC3EF6480F8EE99
:10287200648098400302305BE0FFFD3395E0FC7416
:10288200592DF58274073CF583E0FEEF3395E0FCA9
:1028920074172DF58274053CF583E06E6003022CFB
:1028A2005590070EE004F080B7E490070EF0900711
:1028B20061E0FF90070EE0FEC3EF6480F8EE6480F3
:1028C20098400302305BE0FFFD3395E0FC74622D1B
:1028D200F58274073CF583E0FEEF3395E0FC741754
:1028E2002DF58274053CF583E06E6003022C559051
:1028F200070EE004F080B7E490070EF090076AE05C
:10290200FF90070EE0FEC3EF6480F8EE648098400B
:102912000302305BE0FFFD3395E0FC746B2DF58222
:1029220074073CF583E0FEEF3395E0FC74172DF558
:102932008274053CF583E06E6003022C5590070E0D
:10294200E004F080B7E490070EF0900773E0FF9088
:10295200070EE0FEC3EF6480F8EE64809840030245
:10296200305BE0FFFD3395E0FC74742DF582740753
:102972003CF583E0FEEF3395E0FC74172DF582748D
:10298200053CF583E06E6003022C5590070EE004CF
:10299200F080B7E490070EF090077CE0FF90070EFE
:1029A200E0FEC3EF6480F8EE648098400302305B7F
:1029B200E0FFFD3395E0FC747D2DF58274073CF554
:1029C20083E0FEEF3395E0FC74172DF58274053C2D
:1029D200F583E06E6003022C5590070EE004F08050
:1029E200B7E490070EF0900785E0FF90070EE0FE37
:1029F200C3EF6480F8EE648098400302305BE0FF2E
:102A0200FD3395E0FC74862DF58274073CF583E076
:102A1200FEEF3395E0FC74172DF58274053CF583C7
:102A2200E06E6003022C5590070EE004F080B7E4DC
:102A320090070EF090078EE0FF90070EE0FEC3EFC6
:102A42006480F8EE648098400302305BE0FFFD335F
:102A520095E0FC748F2DF58274073CF583E0FEEF60
:102A62003395E0FC74172DF58274053CF583E06E16
:102A72006003022C5590070EE004F080B7E4900743
:102A82000EF0900797E0FF90070EE0FEC3EF648020
:102A9200F8EE648098400302305BE0FFFD3395E07E
:102AA200FC74982DF58274073CF583E0FEEF3395B4
:102AB200E0FC74172DF58274053CF583E06E60032B
:102AC200022C5590070EE004F080B7E490070EF058
:102AD2009007A0E0FF90070EE0FEC3EF6480F8EEDF
:102AE200648098400302305BE0FFFD3395E0FC74A4
:102AF200A12DF58274073CF583E0FEEF3395E0FCEF
:102B020074172DF58274053CF583E06E6003022C88
:102B12005590070EE004F080B7E490070EF090079E
:102B2200A9E0FF90070EE0FEC3EF6480F8EE648038
:102B320098400302305BE0FFFD3395E0FC74AA2D60
:102B4200F58274073CF583E0FEEF3395E0FC7417E1
:102B52002DF58274053CF583E06E6003022C5590DE
:102B6200070EE004F080B7E490070EF09007B2E0A1
:102B7200FF90070EE0FEC3EF6480F8EE6480984099
:102B82000302305BE0FFFD3395E0FC74B32DF58268
:102B920074073CF583E0FEEF3395E0FC74172DF5E6
:102BA2008274053CF583E06E6003022C5590070E9B
:102BB200E004F080B7E490070EF09007BBE0FF90CE
:102BC200070EE0FEC3EF6480F8EE648098400302D3
:102BD200305BE0FFFD3395E0FC74BC2DF582740799
:102BE2003CF583E0FEEF3395E0FC74172DF582741B
:102BF200053CF583E06E60107FBB12674F90070EB5
:102C0200E0FF12674F02304A90070EE004F080AAFC
:102C1200E490070EF09007C4E0FF90070EE0FEC3B9
:102C2200EF6480F8EE648098400302305BE0FFFDC1
:102C32003395E0FC74C52DF58274073CF583E0FE04
:102C4200EF3395E0FC74172DF58274053CF583E0B3
:102C52006E600302304A90070EE004F080B7E49001
:102C6200070EF09007CDE0FF90070EE0FEC3EF6481
:102C720080F8EE648098400302305BE0FFFD3395FC
:102C8200E0FC74CE2DF58274073CF583E0FEEF3351
:102C920095E0FC74172DF58274053CF583E06E60B7
:102CA2000302304A90070EE004F080B77F0022E46E
:102CB20090070EF09007DFE0FF90070EE0FEC3EFF3
:102CC2006480F8EE648098400302305BE0FFFD33DD
:102CD20095E0FC74E02DF58274073CF583E0FEEF8D
:102CE2003395E0FC74172DF58274053CF583E06E94
:102CF200600302304A90070EE004F080B7E49007C8
:102D02000EF09007E8E0FF90070EE0FEC3EF64804C
:102D1200F8EE648098400302305BE0FFFD3395E0FB
:102D2200FC74E92DF58274073CF583E0FEEF3395E0
:102D3200E0FC74172DF58274053CF583E06E6003A8
:102D420002304A90070EE004F080B7E490070EF0DC
:102D52009007F1E0FF90070EE0FEC3EF6480F8EE0B
:102D6200648098400302305BE0FFFD3395E0FC7421
:102D7200F22DF58274073CF583E0FEEF3395E0FC1B
:102D820074172DF58274053CF583E06E6003023002
:102D92004A90070EE004F080B7E490070EF0900727
:102DA200FAE0FF90070EE0FEC3EF6480F8EE648065
:102DB20098400302305BE0FFFD3395E0FC74FB2D8D
:102DC200F58274073CF583E0FEEF3395E0FC74175F
:102DD2002DF58274053CF583E06E600302304A9063
:102DE200070EE004F080B7E490070EF09007FCE0D5
:102DF200FF90070EE0FEC3EF6480F8EE6480984017
:102E02000302305BE0FFFD3395E0FC74FD2DF5829B
:102E120074073CF583E0FEEF3395E0FC74172DF563
:102E22008274053CF583E06E600302304A90070E1F
:102E3200E004F080B7E490070EF0900805E0FF9000
:102E4200070EE0FEC3EF6480F8EE64809840030250
:102E5200305BE0FFFD3395E0FC74062DF5827408CB
:102E62003CF583E0FEEF3395E0FC74172DF5827498
:102E7200053CF583E06E600302304A90070EE004E1
:102E8200F080B7E490070EF090080EE0FF90070E76
:102E9200E0FEC3EF6480F8EE648098400302305B8A
:102EA200E0FFFD3395E0FC740F2DF58274083CF5CC
:102EB20083E0FEEF3395E0FC74172DF58274053C38
:102EC200F583E06E600302304A90070EE004F08062
:102ED200B7E490070EF0900817E0FF90070EE0FEAF
:102EE200C3EF6480F8EE648098400302305BE0FF39
:102EF200FD3395E0FC74182DF58274083CF583E0EF
:102F0200FEEF3395E0FC74172DF58274053CF583D2
:102F1200E06E600302304A90070EE004F080B7E4EE
:102F220090070EF0900820E0FF90070EE0FEC3EF3E
:102F32006480F8EE648098400302305BE0FFFD336A
:102F420095E0FC74212DF58274083CF583E0FEEFD8
:102F52003395E0FC74172DF58274053CF583E06E21
:102F6200600302304A90070EE004F080B7E4900755
:102F72000EF0900829E0FF90070EE0FEC3EF648098
:102F8200F8EE648098400302305BE0FFFD3395E089
:102F9200FC742A2DF58274083CF583E0FEEF33952C
:102FA200E0FC74172DF58274053CF583E06E600336
:102FB20002304A90070EE004F080B7E490070EF06A
:102FC200900853E0FF90070EE0FEC3EF6480F8EE36
:102FD200648098400302305BE0FFFD3395E0FC74AF
:102FE200542DF58274083CF583E0FEEF3395E0FC46
:102FF20074172DF58274053CF583E06E60028048FB
:1030020090070EE004F080B8E490070EF090085CA0
:10301200E0FF90070EE0FEC3EF6480F8EE64809854
:103022005037E0FFFD3395E0FC745D2DF5827408A6
:103032003CF583E0FEEF3395E0FC74172DF58274C6
:10304200053CF583E06E600690070DE0FF229007D5
:0B3052000EE004F080B77F00227F003A
:01305D002250
:103E2A0060400000222AAAFFAAAAA280A2AAAAFF88
:103E3A00AA2A22008060080A6A8A8A9AAA8A8ACAF0
:103E4A000F20C000403C1010FF105020D81710104F
:103E5A00F010100002060202FF0181402116081626
:103E6A002140800061E00320000000000000000003
:103E7A000000000000000000000000000000000038
:103E8A000000000000000000000000000000000028
:103E9A00000000000000000000004428FFAA4400BF
:103EAA0010001000104428102844100010001000C0
:103EBA0000FF1EF01EFF00FF91919A76000000009D
:103ECA000000000000000000000000000010600276
:103EDA008C0000FE9292929292FE0000000000FC7A
:103EEA00242424FC252624FC242424040000000085
:103EFA0000000000000000000000000001000000B7
:103F0A0000000000000000000000000000000000A7
:103F1A000000000000000000705070000080404067
:103F2A004080000000000000000000000004047E41
:103F3A0001407E42427E427E42427E400040308FB5
:103F4A0080844C55252525554C8080800000000032
:103F5A0000C3C30000000080808080808000008051
:103F6A00808080808000000000C0C00000000080C7
:103F7A00808080808000000000000000003F4040F8
:103F8A00403100000000000000000000000404FCB2
:103F9A000404000004FC04040408F00000000060AB
:103FAA0060000000000000000000000000000000A7
:103FBA0000000000000000000000000000000000F7
:103FCA0000000000000000000000000000000000E7
:103FDA0000000000000000000000000000000000D7
:103FEA000000000000000000000000000010101F88
:103FFA0010100000101F1010100807000000001811
:10400A0018000000001010101010100000101010FE
:10401A0010101000001010101010100000101010D6
:10402A0010101000001010101010100000101010C6
:10403A0010101000001010101010100000101010B6
:10404A001010100000000000610002200007081094
:10405A001008070000F008040408F000000008082F
:10406A001F00000000000404FC040400000E1010ED
:10407A0010100F00000C142444840C00000C1010C3
:10408A0010110E0000180484844438000000010254
:10409A000C1F00000060A02424FC2424001F11111E
:1040AA001110100000980404048870000007081119
:1040BA001109000000F088040404F8000018080838
:1040CA00886818000000003E01000000000E111070
:1040DA0010110E000038448484443800000F101078
:1040EA0010080700008048444488F0000000031CC0
:1040FA0007000000043CC44040E41C04101F1111D6
:10410A00110E000004FC040404887000030C101053
:10411A0010101C00E018040404081000101F1010EE
:10412A001008070004FC04040408F000101F111111
:10413A001710080004FC0404C4041800101F11110D
:0C414A001710080004FC0400C000000076
:1063F300EF339284EFA2E69283A2E59282A2E49223
:1064030081A2E39280A2E292C6A2E192C51392FF17
:016413002266
:1062B600C454F02420F582E43402F583E5822EF5F9
:0862C60082E43583F583E0FF5B
:1062CE00D2A5D2A4C2A3C2A600001263F30000D2CC
:0562DE00A600D2A3227E
:0E63AE001263BC7F221263BC7F021263BC0F1D
:1063BC00C2A3C2A400C2A600001263F30000D2A6BE
:0563CC000000D2A32235
:105CAB00E49009C6F0C2A3C2A400C2A50000A2FFE3
:105CBB0033FFA2C5E43325E04FFFA2C6E43325E052
:105CCB0025E04FFFA280E43333333354F84FFFA268
:105CDB0081E433C454F04FFFA282E433C43354E065
:105CEB004FFFA283E433C4333354C04FFFA284E489
:105CFB0033FEC433333354804FFF0000D2A5000072
:055D0B00126761D2A344
:015D10002270
:10630D00E4F59575967FC2A1C2A253E17F43E28069
:10631D0053B3CF43B4305393E043941F53957F430E
:09632D00968053E1EF43E21022D7
:105B2600C2C1126722D2C1120006007FAE1263BC48
:105B36007FD51263BC7F801263BC007FA81263BC52
:105B46007F271263BC007FD31263BCE4FF1263BCE1
:105B5600007F401263BC7F8D1263BC7F141263BC4E
:105B66007FA11263BC7FC81263BC007FDA1263BCDC
:105B76007F121263BC007F811263BC7FAF1263BCCD
:105B8600007FD91263BC7F251263BC007FDB1263E2
:105B9600BC7F201263BC007FA51263BC000F12639A
:075BA600BC007FAF0263BCED
:10651C007FAE1263BC007F8D1263BC7F101263BC14
:09652C0000126722C2E9026713A4
:106619007FAE1263BC007F8D1263BC7F101263BC16
:0466290000C2E922A0
:1065DA00D2E91267227F8D1263BC7F141263BC005A
:0565EA007FAF0263BC5D
:0E54840090095AEBF0A3EAF0A3E9F0A3EDF0D3
:10549200E4900961F0A3F0A3F0A3F07F2012000EC4
:1054A200E4FF12000E7F2112000E90095DE024201D
:1054B200FF12000E90095EE02420FF12000E7F22F0
:1054C20012000E90095FE0FF12000E900960E0FFEB
:1054D20012000E90095FE0900964F0900960E0FF0D
:1054E200900964E0C39F506D90095DE0900963F0FC
:1054F20090095EE0FF900963E0C39F505090095A03
:10550200E0FBA3E0FAA3E0F9900961E0FEA3E0F575
:10551200828E831236F5FF12645090095AE0FBA383
:10552200E0FAA3E0F9900961E0FEA3E0F5828E8340
:105532001236F5FF126761900962E004F07006907E
:105542000961E004F0900963E004F080A39009642B
:05555200E004F080867A
:015557002231
:0B5BAD0090093EEBF0A3EAF0A3E9F042
:105BB800E4A3F0A3F0A3F0A3F0900941E0FFC3949D
:105BC800055066126734E4FF12654EE4900942F00E
:105BD800900941E090093E701EE0FBA3E0FAA3E0C3
:105BE800F9900943E475F00112379B85F082F5833B
:105BF8001236F54401801AE0FBA3E0FAA3E0F9901D
:105C08000943E475F00112379B85F082F58312365B
:105C1800F5FF126450900942E004F0E0C39460403C
:095C2800AF900941E004F0809006
:015C31002250
:0D56210090093FEDF0A3EBF090093EEFF093
:10562E00E4900941F0A3F012673490093FE0FF12B5
:10563E00654EE4900942F0900942E0FFC394085091
:10564E003D900940E0C454F02420F582E43402F584
:10565E0083E5822FF582E43583F583E0FF126761DF
:10566E00900942E0FF900940E0C454F02420F582F6
:10567E00E43402126442900942E004F080B99009C9
:10568E003EE004FF12673490093FE0FF12654EE4DE
:10569E00900942F0900942E0FFC39408503D9009F2
:1056AE0040E0C454F02428F582E43402F583E58208
:1056BE002FF582E43583F583E0FF1267619009428E
:1056CE00E0FF900940E0C454F02428F582E434024F
:0B56DE00126442900942E004F080B921
:0156E900229E
:064E6C00900985123822B6
:104E7200E4FBFA79207841900985E0FCA3E0FDA3E8
:104E8200E0FEA3E0FF12325F1233B3900989EFF024
:104E9200FCE412337FA804A905AA06AB0790098592
:104EA200E0FCA3E0FDA3E0FEA3E0FF1230611233B9
:104EB200B390098AEFF0900985E0FCA3E0FDA3E03E
:104EC200FEA3E0FF1233B37C007D0A123734AC0636
:104ED200AD07E412337AC004C005C006C007E4FF80
:104EE200FE7D207C41900985E0F8A3E0F9A3E0FA79
:104EF200A3E0FB123156D003D002D001D000123011
:104F0200611233B3AD077F201263BCE4FF1263BCAE
:104F12007F211263BC7F2E1263BC7F351263AEE425
:104F2200FEEE6406900989601AE0C454F02420F56C
:104F320082E43402F583E5822EF582E43583F5833B
:104F4200E0801AE0C454F02420F582E43402F583B0
:104F5200E5822EF582E43583F583E04401FF126297
:104F6200CE0EEEB410BB7F211263BC7F361263BC3F
:104F72007F3D1263AEE4FE90098AE01262B60EEE45
:104F8200B410F47F211263BC7F461263BC7F4D12C2
:0D4F920063AEE4FEED1262B60EEEB410F751
:014F9F0022EF
:096699007F0F1266A2D2FC7F0FF4
:0766A200AE071FEE70FA22A3
:02628500AB0765
:106287007A80C2A3EDB40104C2A48002D2A4EAD3E7
:1062970094004011C2FCEA5B24FF92A7126699EAB8
:0E62A700C313FA80E9C2FCD2A7126699D2A3F3
:0162B50022C6
:10643500E075F060A42440F582E5F03400F583E5CD
:0B644500822FF582E43583F583E0FF31
:05645000E4FD0262857D
:05000E007D0102628586
:1058E600E4FFFE90093CF0A3F00FBF00010EBE7569
:1058F600F8BF30F57FAE12000E7FD512000E7F8006
:1059060012000E7FA812000E7F2712000E7FD31200
:10591600000EE4FF12000E7F4012000E7F8D120073
:105926000E7F1412000E7FA112000E7FC812000E09
:105936007FDA12000E7F1212000E7F8112000E7F98
:10594600AF12000E7FD912000E7F2512000E7FDBEC
:1059560012000E7F2012000E7FA412000E7FA612E8
:10596600000E7FAF12000E125F507B017A03792082
:0C597600125BAD7B077D2E7F01025621E5
:105F5000E490093EF0A3F07E017FE0FD7B017A0032
:105F600079401238A590093EE0FFC39405502812ED
:105F70006731E4FF12654E90093FE0FFC394605023
:105F80000E90093E12643590093FE004F080E890DD
:075F9000093EE004F080CEA1
:015F970022E7
:105A9E00E49009A5F0A3F0A3F07E017FE07D817B69
:105AAE00017A0079401238A59009A5E0FFC394054C
:105ABE005065126731E4FF12654E9009A6E0FFC3F0
:105ACE009460504B9009A5E0FE6003B40117EFC33C
:105ADE00940850119009A7E0FF04F074902FF582FE
:105AEE00E43402801F9009A6E0FF9009A5E075F04E
:105AFE0060A42440F582E5F03400F583E5822FF5AD
:105B0E0082E4358312644C9009A6E004F080AB90D9
:075B1E0009A5E004F08091ED
:015B2500225D
:1051B200E49009A8F0A3F0A3F07E017FE07D817B5B
:1051C200017A0079401238A59009A8E0FFC394053E
:1051D200502BE4A3F0126734E4FF12654E9009A944
:1051E200E0FFC39460500E9009A81264359009A99B
:1051F200E004F080E89009A8E004F080CBE4FF121C
:1052020067347F0412654E9009AAE0FFC3941050E0
:105212001974002FF582E43400F583E04401FF1293
:1052220064509009AAE004F080DDE49009AAF090AD
:1052320009AAE0FFC39410501974202FF582E434B8
:1052420000F583E04401FF1264509009AAE004F0E3
:1052520080DD7F011267347F0412654EE49009AA53
:10526200F09009AAE0FFC39410501974102FF58230
:10527200E43400F583E04401FF1264509009AAE08F
:1052820004F080DDE49009AAF09009AAE0FFC3943B
:1052920010501974302FF582E43400F583E0440194
:0C52A200FF1264509009AAE004F080DDC7
:0152AE0022DD
:03673100E4A3F0EE
:09673400EF540F44B0FF02000E07
:10654E00AC0774202CFC540FFF12000EAF04EFC4E6
:08655E00540F4410FF02000E6F
:106455007401A807088002C333D8FCF59DE4F5BD97
:0F646500EF4488F5BC7F021265ADD2ADD2AF22F5
:03002B000256EA90
:0D56EA00C0E0C0F0C083C082C0D075D00801
:1056F700900947E4F0A3F0FFFEA3F0A3F0C2ADF5D5
:10570700BC1266D77F03126596900947E4F0A3EFB2
:10571700F01266D77F031265967E00900947E0FC7A
:10572700A3E0FDD39FEC9E401DED9FFBEC9EFAC3CB
:10573700EB9423EA9400504EED2FFFEE3CC313FE8B
:10574700EF13FFA38030C3ED9FEC9E502C900947C9
:10575700E0FCA3E0FDC3EF9DFDEE9CFCC3ED9423AD
:10576700EC94005021E02FFF900947E03EC313FE61
:10577700EF13FF900949EE8009900947E0FFA3E086
:08578700A3CFF0A3EFF0D2ADB7
:0B578F00D0D0D082D083D0F0D0E03228
:10659600E4F5BDEF4488F5BC00000000E5BC30E43E
:0765A600FB75BC00AFBD2234
:1063D100AC07E412337F900992E0F8A3E0F9A3E05F
:1063E100FAA3E0FB123156E4FBFA798078431232CA
:0263F1005F2229
:1062E300E4FDFCF5BDF5BEEF4488F5BC00000000FD
:1062F300E5BC30E4FB75BC00AFBDEF75F004A4FD55
:09630300ACF0AFBEED4FAE04FF9B
:01630C00226E
:10005E00AD07AC06E412337A90098DE0F8A3E0F90F
:10006E00A3E0FAA3E0FB123156E4FBFA7980784460
:04007E0012325F22B9
:1065AD00AE071FEE60107C137D88ED1DAA047001EF
:0665BD001C4A60EC80F4B2
:0165C30022B5
:0C4156004105140041051500410516004C
:10633600E5A2543F4440F5A253877F759850438E9B
:1063460040538EFE53890F438920758BFA758DFA5B
:09635600C2ABD28ED2ACD2AF2250
:096746002009FDEFD209F59922AA
:1061B9009009ABEBF0A3EAF0A3E9F09009ABE0FB9F
:1061C900A3E0FAA3E0F91236DC60179009ABA3E467
:1061D90075F00112379BA9F0FA1236DCFF126746F7
:0361E90080D92238
:0300230002606612
:10606600C0E0C0F0C083C082C0D075D00830981B95
:10607600C29890070BE475F00112379BFE74172542
:10608600F0F58274053EF583E599F0309904C299DE
:0D609600C209D0D0D082D083D0F0D0E0324B
:030043000260DF79
:1060DF00C0E0C083C082C0D075D008E59A30E01709
:1060EF00539AFE900514E0FF04F074002FF582E43C
:1060FF003405F583E59BF0E59A30E105539AFDC22F
:0A610F000AD0D0D082D083D0E03255
:09674F00200AFDEFD20AF59B229D
:1061EC009009AEEBF0A3EAF0A3E9F09009AEE0FB66
:1061FC00A3E0FAA3E0F91236DC60179009AEA3E431
:10620C0075F00112379BA9F0FA1236DCFF12674FBA
:03621C0080D92204
:1065660053BAFE759A50438E0475D7C075D6FD434F
:086576008E1075AF01D2AF22B7
:1065C4007E027FF4900517E4F0A3DFFCDEFAE4908A
:0565D400070BF0A3F02D
:0165D900229F
:0F66A9007F64900500E4F0A3DFFCE4900514F09B
:0166B80022BF
:1064B20053BAFD75AC1043AC4043D10275D5C075DB
:0B64C200D4FD43D10843AF08D2AF2245
:03008B000264E824
:1064E800C0E0E5AC30E00653ACFE85AD80E5AC30ED
:0A64F800E10553ACFDC20BD0E03209
:09675800200BFDEFD20BF5AD2280
:10621F009009B1EBF0A3EAF0A3E9F09009B1E0FB2C
:10622F00A3E0FAA3E0F91236DC60179009B1A3E4FA
:10623F0075F00112379BA9F0FA1236DCFF1267587E
:03624F0080D922D1
:1064CD0043BA0475841043844043D12075D3D075ED
:0B64DD00D2FF43D18043AF10D2AF22AA
:0300930002650201
:10650200C0E0E58430E0065384FE858580E5843072
:0A651200E1055384FDC20CD0E03215
:09676100200CFDEFD20CF585229D
:106252009009B4EBF0A3EAF0A3E9F09009B4E0FBF3
:10626200A3E0FAA3E0F91236DC60179009B4A3E4C4
:1062720075F00112379BA9F0FA1236DCFF12676142
:0362820080D9229E
:0D003600E4F5C7F5C5F5C675C380F5C42215
:10657E0075C78175C5018FC4EEF5C375C65A75C64C
:07658E00A500AFC2120036A8
:0165950022E3
:1065350075C78175C5028FC4EEF5C3AF058FC275EA
:09654500C65A75C6A50002003615
:1065EF0075C78175C5038FC4EEF5C375C65A75C6D9
:0565FF00A500020036BA
:10539C00900965EEF0A3EFF0900969EBF0A3EAF049
:0B53AC00A3E9F0900967ECF0A3EDF01E
:1053B700E490096CF0A3F0FFA3F0A3F0D3ED9420E1
:1053C700EC9400400122900965E0FCA3E0FDEC5459
:1053D70001FEAF05900968E02FFF900967E03EFEE8
:1053E700D3EF9420EE940040037F0022AF05AE0474
:1053F7001265EFE490096CF0A3F0900967E0FEA353
:10540700E0FF90096CE0FCA3E0FDC39FEC9E5067B2
:10541700900965E0FEA3E0FF900969E0FBA3E0FACD
:10542700A3E0F98D828C831236F5FD12653590095C
:1054370065E0FEA3E0FF12657E900969E0FBA3E04B
:10544700FAA3E0F9A3E0FCA3E0F5828C831236F51A
:105457006F60061200367F0022900966E004F07044
:1054670006900965E004F090096DE004F0708B90F8
:0C547700096CE004F080831200367F0115
:015483002206
:104A0A0090094BEEF0A3EFF090094FEBF0A3EAF018
:0B4A1A00A3E9F090094DECF0A3EDF0D3
:104A2500E4900952F0A3F0A3F0A3F0A3F0A3F0A340
:104A3500F0A3F0D3ED9420EC940040037F00229086
:104A4500094BE0FCA3E0FDEC5401FEAF05900954D1
:104A5500F0A3EFF090094EE02FFF90094DE03EFEE8
:104A6500D3EF9420EE940040037F0022EC54FEFE29
:104A75007F00900956F0A3EFF0A3EEF0A3EFF090BE
:104A85000952F0A3F0900958E475F00112379BAF75
:104A9500F0FE12657E900952A3E02423F8A607E0F4
:104AA50004F07006900952E004F0C3900953E094B5
:104AB50020900952E0940040CCE4900952F0A3F014
:104AC50090094DE0FEA3E0FF900952E0FCA3E0FD54
:104AD500C39FEC9E503490094FE0FBA3E0FAA3E09E
:104AE500F98D828C831236F5FF900954E475F00137
:104AF50012379B742325F0F8A607900953E004F0BC
:104B05007006900952E004F080B6900956E0FEA3C5
:104B1500E0FF1265EF900956E0FFA3E0A3CFF0A3F5
:104B2500EFF0E4900952F0A3F0900952E0FCA3E005
:104B3500FDC39420EC9400504C900958E0FEA3E08E
:104B4500FF74232DF8E6FD12653590094BE0FEA3B1
:104B5500E0FF12657E900952A3E02423F8E66F601A
:104B6500061200367F0022900959E004F070069085
:104B75000958E004F0900953E004F07006900952DA
:0A4B8500E004F080A41200367F0166
:014B8F002203
:10615000E5A254CFF5A2E4F5D8F5E9F5F975D90231
:10616000F5F275EA2075FA2075DA4275F34075EBA1
:106170002075FB2075DB4275F48075EC2075FC20E2
:0661800075DC42D2DE22B4
:105EBB00E4F5B4F5B343BA80F5F190FFF2F090FF3F
:105ECB00F07403F0A374E8F090FF20E4F0A3F0FC6F
:105EDB00FDFE7BE87A03F9F81237B1E47B64FAF93B
:105EEB00F8125FDF90FF22EEF0A3EFF0A37408F03F
:0B5EFB0043F50443F58053BA7F80FE9E
:105F0600E4F5CAF5C943BA80F5F190FFF2F090FFC7
:105F1600F07403F0A374E8F090FF30E4F0A3F0FC13
:105F2600FDFE7BE87A03F9F81237B1E47B64FAF9EF
:105F3600F8125FDF90FF32EEF0A3EFF0A37408F0E3
:0A5F460043F50843F58053BA7F22AB
:10647400EF75F064A4FFAEF0C374109F9009C1F0EF
:0F64840074279E9009C0F0E490099AF002663FD9
:03009B0002579A6F
:10579A00C0E0C0F0C083C082C0D075D000C000C0D5
:1057AA0001C002C003C004C005C006C00790099A20
:1057BA00E0703890099DE0FF75F012A4F404F5D565
:1057CA00E4FCFDFE7B12FAF9F81237B1C3E49FFF3D
:1057DA00E49EFE74019DFDE49CFC780812380E8F4D
:1057EA00D4D2A090099A7401F0803590099BE0FF09
:1057FA0075F012A4F404F5D5E4FCFDFE7B12FAF967
:10580A00F81237B1C3E49FFFE49EFE74019DFDE4E4
:10581A009CFC780812380E8FD4C2A090099AE4F042
:10582A00D007D006D005D004D003D002D001D000D2
:0B583A00D0D0D082D083D0F0D0E0327C
:0A52AF0090093FECF0A3EDF0AB070F
:1052B900A312382E00000000E4900945F0A3F0EB9A
:1052C90014601914602214603714602824047030A3
:1052D90090094112382E46900000802E9009411203
:1052E900382E462CCC00802290094112382E45AC2C
:1052F900C800801690094112382E44ACC000800ABB
:1053090090094112382E452CD000E4F594F59343C9
:10531900BA80F5F190FFF27403F0900941E0FCA323
:10532900E0FDA3E0FEA3E0FF1233B390FFF0EEF03F
:10533900A3EFF090FF50E4F0A3F0FBFA79C87842AC
:10534900900941E0FCA3E0FDA3E0FEA3E0FF1232D7
:105359005FC004C005C006C00790093FE0FCA3E098
:10536900FDE412337AD003D002D001D000123156B5
:105379001233B390FF52EEF0A3EFF0900945EEF02F
:10538900A3EFF090FF547408F043F52043F58053E0
:02539900BA7FD9
:01539B0022EF
:105DC8009009C2EEF0A3EFF0438E805389F090095A
:105DD800C2E0FEA3E0FFE4FCFD7B16FAF9F81237F7
:105DE800B1EFF404F58A9009C2E0FEA3E0FFE4FCF9
:105DF800FD7B16FAF9F81237B1C3E49FFFE49EFE63
:105E080074019DFDE49CFC780812380E8F8CC28DBD
:035E1800D28C2207
:10662D00E5A254F34404F5A2E4F5CF75CDC075CEC3
:02663D005022E9
:03004B0002678DBC
:06678D0075CDC0D291326F
:0A41620042099E00004209A000007F
:03000B00025E1B77
:105E1B00C0E0C083C082C0D090099FE004F0700640
:105E2B0090099EE004F09009A1E004F0700690093F
:105E3B00A0E004F090099EE07004A3E064FA700601
:105E4B0090099EF0A3F09009A0E0B40B0CA3E0B472
:105E5B00B8079009A0E4F0A3F0D0D0D082D083D0C3
:025E6B00E03223
:10660400538E7F5389F0E4F58A758C70C28DD28CD9
:05661400D2A9D2AF2263
:10663F0053D1FD75D501E4F5D443D10843AF20D232
:02664F00AF2278
:0300030002002ACE
:01002A0032A3
:09676A00D2B2D288D2A8D2AF222B
:0300130002002EBA
:01002E00329F
:09677300D2B3C28AD2AAD2AF222D
:0300530002002F79
:01002F00329E
:06679300438F10D2AF227B
:03005B0002003070
:01003000329D
:06679900438F20D2AF2265
:0300830002003147
:01003100329C
:06679F00438F40D2AF223F
:03003300020026A2
:040026005387DF32EB
:086785005387DFD2AED2AF2230
:106651007D3C7C00E4FF1252AF1266D753F5DFC2D6
:0266610086228F
:106663007D3C7C007F021252AF12670453F5DFC2F8
:0266730086227D
:106675007D3C7C007F031252AF1266F553F5DFC2F5
:0266850086226B
:09677C00AD07AC067F040252AF28
:106687007D3C7C007F041252AF12671353F5DFC2C3
:02669700862259
:0667A5008FAA75AB8022F3
:1060A30042415420256425200A20002055534220D4
:1060B300636861726765200A002055534220206F90
:1060C3006666736574200A0000000000000000008B
:0C60D300000000000000000000000000C1
:04416C0041093A0AC1
:10641400E4F5CB75CC0E43CB0143CC01C2E9D2EAFF
:10642400D2EBF5B375B401C2C1D2E9126722D2C16D
:016434002245
:104FA000E4900978F0A312382E00000000E4900984
:104FB0007DF0A3F07F041262E3900978E025E024FD
:104FC00026F582E43409F583EEF0A3EFF012000633
:104FD000900978E004F0E0C3940A40D8900932E0E8
:104FE000FEA3E0FF90092DE02FFF90092CE03EFE8C
:104FF000900939E02FFD900938E03EFCE412337A45
:10500000A804A905AA06AB077F0A7ED77DA37C4426
:1050100012325FE4FBFA79407840123156900979F8
:10502000123822900979E0FCA3E0FDA3E0FEA3E0A2
:10503000FF1233B37C007D64123734AC06AD07E455
:1050400012337AC004C005C006C007E4FFFE7DC865
:105050007C42900979E0F8A3E0F9A3E0FAA3E0FB31
:10506000123156D003D002D001D000123061123379
:10507000B390097DEEF0A3EFF0900978E0FFC394C0
:105080000A5018EF25E02426F582E43409F583E47C
:10509000F0A3F0900978E004F080DEE490093AF0A3
:0E50A000900979E0FCA3E0FDA3E0FEA3E0FF91
:0150AE0022DF
:1059820078F87C087D017BFF7A6079CB7E007F14FA
:105992001236B6E490090CF0124FA090090D12389D
:1059A20022E4FFFEFDFC90090DE0F8A3E0F9A3E07C
:1059B200FAA3E0FB1232FC6054E4FFFE7DC87C4295
:1059C20090090DE0F8A3E0F9A3E0FAA3E0FB12319D
:1059D200567B667A667986784012325F1233B390CC
:1059E200090CEFF090086874FFF0A37460F0A374E0
:1059F200A3F0A3EFF07B017A0879F8123A047B0155
:0F5A02007A0879F812625290090CE0FF227F00B7
:015A11002272
:104D02009008EE12382E00000000E49008F2F0A3A2
:104D1200F0124FA09008F41238229008F3E0C394E6
:104D22000A50247F051262E39008F3E025E024D8BC
:104D3200F582E43408F583EEF0A3EFF0120006905A
:104D420008F3E004F080D39008E4E0FEA3E0FF90D3
:104D520008DFE02FFF9008DEE03EFE9008EBE02F38
:104D6200FF9008EAE03EFE7C007D03123746900881
:104D7200ECEEF0A3EFF0FDAC06E412337A9008F407
:104D8200E0F8A3E0F9A3E0FAA3E0FB1231567BE7D7
:104D92007AFB7979783F123156E4FBFA790378C4C9
:104DA200123065E4FBFA79C8784012325F9008EE5F
:104DB2001238229008EEE0FCA3E0FDA3E0FEA3E09F
:104DC200FF1233B37C007D64123734AC06AD07E4C6
:104DD20012337AC004C005C006C007E4FFFE7DC8D6
:104DE2007C429008EEE0F8A3E0F9A3E0FAA3E0FB2E
:104DF200123156D003D002D001D0001230611233EA
:104E0200B39008F2EFF0E4FFFE7DAA7C429008EE38
:104E1200E0F8A3E0F9A3E0FAA3E0FB1232FC60049D
:104E22004002C2E97FEE1267619008ECE0FF126770
:104E3200619008ECA3E0FF1267617FEF1267619057
:104E420008EEE0FCA3E0FDA3E0FEA3E0FF1233B313
:104E52001267619008F2E0FF1267619008EEE0FCD1
:094E6200A3E0FDA3E0FEA3E0FFC4
:014E6B002224
:106493004393805394FE7BFF30870A7A6079AE1270
:0F64A30062527F01227A6079BC1262527F00221E
:1046B7004E4F203A20005331203A20005332203AFF
:1046C70020005333203A20005334203A200053353A
:1046D700203A2000204D41494E204D454E55200A95
:1046E700200020554846204D4F4445200A200020F1
:1046F7004254204D4F4445200A200020544553542E
:10470700204D4F4445200A20002042415454455231
:1047170059204D4F4445200A200020425A204D4F32
:104727004445200A2000204F4C45445F74696D6959
:104737006E6720736574200A2000204F4C45445F44
:10474700425A20736574200A20002021537973741C
:10475700656D5F506F7765725F5663635F4F4E5F3E
:104767004F4646200A20002055313420706F776568
:104777007220676F6F64200A200020553134207043
:104787006F776572204E47204F4350204F5450207B
:104797000A200020215653454C200A2000202142A0
:1047A7005950200A20002042415454455259A1A192
:1047B7004D4F444520494E200A200020425A204DA3
:1047C7004F444520494E200A2000204F4C45445F66
:1047D70074696D696E6720676574207265616469C5
:1047E7006E672074696D696E67200A2000204F4C40
:1047F70045445F74696D696E6720676574207772D9
:104807006974696E672074696D696E67200A200094
:10481700204F4C45445F74696D696E6720736574FA
:1048270020494E200A2000204F4C45445F425A2021
:104837007570200A2000204F4C45445F425A20647F
:104847006F776E200A2000204F4C45445F425A2064
:1048570073657420494E200A2000204E4F54205380
:064867004554200A200068
:044170004109C7003A
:10584500E490093CF0A3F0A3F07F0312659690095C
:105855003CEFF0C394CD40037F00221266D77F034F
:1058650012659690093DEFF01266D77F0312659693
:1058750090093EEFF090093DE02FFFE433C313EFAD
:105885001390093CF01266D77F03126596EFD39407
:10589500CD40F290093CE0C3941250061266517F48
:1058A500012290093CE0C3943B50061266517F02E9
:1058B5002290093CE0C3946950061266517F032289
:1058C50090093CE0C3949B50061266517F042290D8
:1058D500093CE0C394CD50061266517F05227F0036
:0158E50022A0
:10486D00E49009B7F0A3F0A3F07F031265969009C9
:10487D00B7EFF0C394CD40301266D77BFF7A4679FF
:10488D00B71261B97FFF1267469009B7E0FF126753
:10489D00467BFF7A4679B71262529009B7E0FF1254
:1048AD00676153F5DF7F00221267137F0312659650
:1048BD009009B8EFF01266D77F031265969009B98B
:1048CD00EFF09009B8E02FFFE433C313EF13900915
:1048DD00B7F0C3941250337BFF7A4679BD1261B99C
:1048ED007FFF1267469009B7E0FF1267467BFF7A9C
:1048FD004679BD1262529009B7E0FF1267617D3CA7
:10490D007C007F011252AF7F01229009B7E0C39462
:10491D003B50337BFF7A4679C31261B97FFF126733
:10492D00469009B7E0FF1267467BFF7A4679BD12C4
:10493D0062529009B7E0FF1267617D3C7C007F02F7
:10494D001252AF7F02229009B7E0C3946950337BB6
:10495D00FF7A4679C91261B97FFF1267469009B790
:10496D00E0FF1267467BFF7A4679C91262529009C1
:10497D00B7E0FF1267617D3C7C007F031252AF7F71
:10498D0003229009B7E0C3949B50337BFF7A46799D
:10499D00CF1261B97FFF1267469009B7E0FF12672A
:1049AD00467BFF7A4679C91262529009B7E0FF1231
:1049BD0067617D3C7C007F041252AF7F0422900919
:1049CD00B7E0C394CD50337BFF7A4679D51261B9E8
:1049DD007FFF1267469009B7E0FF1267467BFF7AAB
:1049ED004679C91262529009B7E0FF1267617D3CAA
:0C49FD007C00E4FF1252AF7F05227F0017
:014A0900228A
:104175009009C4E4F0A3EFF09009C7E012387F413D
:10418500AC0041D60541FE06423207426B0A42A405
:104195000B42DA0C43100D434F0F43AE1443B619CF
:1041A50043E61E000044169009C4E0FEA3E0FFEEBE
:1041B5007016EF24FE700302441F14700302441F9F
:1041C50024FE6002800280547BFF7A4679DB02443C
:1041D5001C9009C4E0FEA3E0FFEE7014EF24FD601F
:1041E5000D24FE700302441F24037004805F8024A5
:1041F5007BFF7A4679E902441C9009C4E0FEA3E0FE
:10420500FFEE7020EF24FD601324FE700302441FAF
:10421500240370109009C7740702433B9009C774C3
:104225000502433B7BFF7A4679F602441C9009C49C
:10423500E0FEA3E0FFEE7025EF24FD601024FE6094
:1042450014240370189009C7740502433B9009C7ED
:10425500740602433B9009C7740A02433B7BFF7A0D
:1042650047790202441C9009C4E0FEA3E0FFEE700A
:1042750025EF24FD601024FE6014240370189009B6
:10428500C7740B02433B9009C7740D02433B900969
:10429500C7740F02433B7BFF7A47791002441C9099
:1042A50009C4E0FEA3E0FFEE7022EF24FD600F24B9
:1042B500FE6012240370159009C7740A807890096E
:1042C500C7740C80719009C77414806A7BFF7A47A4
:1042D500792102441C9009C4E0FEA3E0FFEE7022A0
:1042E500EF24FD600F24FE6012240370159009C7AA
:1042F500740D80429009C7740B803B9009C77419EF
:1043050080347BFF7A47792D02441C9009C4E0FE76
:10431500A3E0FFEE702BEF24FD600F24FE60122456
:1043250003701E9009C7740A800C9009C7740C802D
:10433500059009C7741EF0E49009C4F0A3F002418A
:104345007D7BFF7A47794102441C9009C4E0FEA3B6
:10435500E0FFEE704CEF24FD602F24FE6037240350
:10436500703F7BFF7A477951126252B2E920E90327
:1043750002441F1267227BFF30E8077A47796E02F5
:10438500441C7A47798102441C7BFF7A47799A124B
:104395006252B2EA227BFF7A4779A4126252B2EBEB
:1043A500227BFF7A4779AD806E7BFF7A4779C280A1
:1043B500669009C4E0FEA3E0FFEE701DEF24FD60EA
:1043C5001024FE6055240370107BFF7A4779D18055
:1043D500467BFF7A4779F4803E7BFF7A48791780E0
:1043E500369009C4E0FEA3E0FFEE701DEF24FD60EA
:1043F5001024FE6025240370107BFF7A48792E80F7
:10440500167BFF7A48793D800E7BFF7A48794E808E
