:0300000002606D2E
:0C606D00787FE4F6D8FD7581420260B433
:1069C9005331200A20005332200A20005333200A71
:1069D90020005334200A20004552524F52200A20E9
:0169E90000AD
:10618300E4900518F0A3F0A3F0126BE6126937123E
:106193006AEA126A821269A7126C1C1260F9126B06
:1061A3009D7BFF7A3D79C91262ED125E85900518D9
:1061B300EFF060F624FE601514601A146022146078
:1061C3002F240470357BFF7A6979C980337BFF7A8A
:1061D3006979CF80067BFF7A6979D512688280104E
:1061E3007BFF7A6979DB126882E4900590F0800482
:1061F300900518E0FF12460C80B07BFF7A6979E1C5
:0562030012688280A575
:106B9D0053CB1F43CCE043CB1043CC10C2EDC2EF1F
:036BAD00D2EE2203
:05620800900574EFF0A9
:10620D00E4A3F0A3F0126C3D7F01126CD77FFC125A
:10621D006CD77F01126CD77F01126CD7900574E09B
:10622D00FF126CD7126C4D9000F1E070037FFF22CE
:10623D009000F1E0FF900575E0FCA3E0FDC39F74B5
:10624D0080F8EC648098501F74002DF58274003C2A
:10625D00F583E0FF126CE9900576E004F070D190C3
:10626D000575E004F080C9900002E0B401037F01E0
:03627D00227FFF7E
:0162800022FB
:1067B600126C3D7F01126CD77FFC126CD77F0212E0
:1067C6006CD7E4FF126CD7126C4D9000F1E06405B3
:1067D60060037FFF22900003E0B40104A3E0FF22E0
:0367E6007FFF2210
:0C0016007F547EF77D18DDFEDEFCDFFA73
:0100220022BB
:0E6C4D0000007F027EAF7D4BDDFEDEFCDFFA35
:016C5B002216
:0E6C5C0000007F0D7E9C7D53DDFEDEFCDFFA26
:016C6A002207
:0E6C6B0000007F017ED87D23DDFEDEFCDFFA17
:016C790022F8
:0E6C7A0000007F2B7E067DCBDDFEDEFCDFFA08
:016C880022E9
:0E6C890000007FFD7E237DDCDDFEDEFCDFFAF9
:016C970022DA
:0E6C980000007F117ED07D1BDDFEDEFCDFFAEA
:016CA60022CB
:0E6CA70000007F057E347DC3DDFEDEFCDFFADB
:016CB50022BC
:040006007F0EDFFE8C
:01000A0022D3
:0E6CB60000007F097E687D8BDDFEDEFCDFFACC
:016CC40022AD
:10556F004E4F5420205265616420434D440A002061
:10557F00696E64795F7265616474656D70207374B0
:10558F00617274200D0A0020696E64795F72656123
:10559F006474656D7020656E64200D0A00240349E4
:1055AF00006D00700069006E006A005300650072A4
:1055BF0000690061006C004E0075006D0030003115
:1055CF00004003BFFCBFFCBFFC0000010012002124
:1055DF0000000010000000000000000500000000A7
:1055EF000000000600000000000000100000000096
:1055FF00000000110088E1F3C000000000F0000679
:10560F0002000001001200210000000200A000A013
:10561F0002000000030000000000000200A000A034
:10562F00020000611B0206000000000500000000E0
:10563F00000000020701000000000005000000004C
:10564F0000000004070000000000000507D007005D
:10565F000000000607DC0000000000070700200024
:10566F00000000120BFFFF0F0000000500000000FC
:10567F000000000005000000000000000500000011
:10568F000000000006000000000000000500000000
:10569F0000000000050000000000000006000000F0
:1056AF000000010000000200000027000000872E0C
:1056BF000D0001000100020000008F2E0D00000000
:1056CF0000000000050000000000000006000000C0
:0256DF000000C9
:08691000410492FF41049300D1
:0B6351007B027F047A00E4FDFC7E0A62
:10635C00900553EEF0A3EFF0A3ECF0A3EDF0A3EA5D
:10636C00F0A3EBF07F01126CCEE4FF126CCE900523
:10637C0053A3E0FF126CCE900553E0FF126CCE904D
:10638C000557A3E0FF126CCE900557E0FF126CCEC0
:10639C00900555A3E0FF126CCE900555E0FF026C02
:0163AC00CE22
:10674900900586EEF0A3EFF0E4FF126CCEE4FF12A1
:106759006CCE900586A3E0FF126CCE900586E0FF13
:10676900126CCEE4FF126CCEE4FF126CCEE4FF1281
:076779006CCEE4FF026CCEC0
:10595A00E4FF900472E0900495F0E4900494F090CF
:10596A000494E0FEFD3395E0FC74732DF582740413
:10597A003CF583E0FDEEFB3395E0FA74962BF58255
:10598A0074043AF583EDF0900494E004F0E0B40C6A
:10599A00CEE4900494F0900494E0FEFD3395E0FC8C
:1059AA00747F2DF58274043CF583E0FDEEFB33959C
:1059BA00E0FA74A22BF58274043AF583EDF09004B0
:1059CA0094E004F0E0B402CE900494740FF09004D2
:1059DA0094E0FEC3648094A0501AEEFD3395E0FC77
:1059EA0074952DF58274043CF583E4F0900494E0F8
:1059FA0004F080DAE4900494F0900494E0FEC36426
:105A0A008094A0501BEEFD3395E0FC74952DF58231
:105A1A0074043CF583E02FFF900494E004F080D9ED
:105A2A00EF9004B4F0E4900494F0900494E0FFC37F
:105A3A00648094A0501CEF3395E0FE74952FF58294
:105A4A0074043EF583E0FF126CD7900494E004F0EE
:025A5A0080D8F2
:015A5C002227
:1063AD00E4900472F0FFEFFD3395E0FC74732DF56E
:1063BD008274043CF583E4F00FEFB40CE9E4FFEFD5
:1063CD00FD3395E0FC747F2DF58274043CF583E478
:1063DD00F00FEFB402E9E4FFC3EF64809480501531
:1063ED00EFFD3395E0FC74812DF58274043CF5834B
:0A63FD00E4F00F80E3E4900491F057
:016407002272
:104FB5009004F07401F0E4A3F0A3F074FFA3F0A350
:104FC500F0E4A3F0A3F0A3F0A3F0A3F0A3F0A3F003
:104FD500A3F0A3F0A3F0A3F0A37412F0E4A3F0C22E
:104FE50011C212A3F09004F5E0FEA3E024F4F582CB
:104FF50074003EF583E06401600302524B9004F5B2
:10500500A3E0FF24F5F58274003EF583E0900502E8
:10501500F074F72FF58274003EF583E0FE9004F5F9
:10502500E0FCA3E0FD24F6F58274003CF583E07A0C
:10503500002400FFEA3E9004F3F0A3EFF074F92D8D
:10504500F58274003CF583E0FE9004F5A3E024F8B6
:10505500F58274003CF583E02400FFEA3E9004F1FC
:10506500F0A3EFF0ED2408FFE43C9004F7F0FCA377
:10507500EFF0FD9004F1E0FAA3E0FBAE027802C385
:1050850033CE33CED8F92DFFEE3C9004F9F0A3EFE3
:10509500F0EB2402FFE43AFEEF7802C333CE33CEC1
:1050A500D8F9FF9004F6E02FF09004F5E03EF0907B
:1050B50004F3E07004A3E0640570619004F8E02453
:1050C5000EFE9004F7E034009004FBF0A3CEF0E46C
:1050D5009004EEF0A3F09004EEE0FEA3E0FF900450
:1050E500FCE02FFD9004FBE03EFC74F42DF582748A
:1050F500003CF583E0FD74732FF58274043EF5835F
:10510500EDF09004EFE004F070069004EEE004F09A
:105115009004EEE07004A3E0640C70BA9004F3E030
:105125007004A3E064066003024FEA900502E060A4
:105135000302524B9004F7E0FEA3E0FF24F8F5824A
:1051450074003EF583E064C2600302523FEF240C15
:10515500FFE43E9004FDF0A3EFF0900472E024FE1E
:10516500605C14700302521224026003025235E49B
:105175009004EEF0A3F09004EEE0FEA3E0FF9004AF
:10518500FEE02FFD9004FDE03EFC74F42DF58274E5
:10519500003CF583E0FD747F2FF58274043EF583B2
:1051A500EDF09004EFE004F070069004EEE004F0FA
:1051B5009004EEE07004A3E0640270BA8069E490A4
:1051C50004EEF0A3F09004EEE0FEA3E0FF9004FEF1
:1051D500E02FFD9004FDE03EFC74F42DF582740093
:1051E5003CF583E0FD747F2FF58274043EF583ED75
:1051F500F09004EFE004F070069004EEE004F09007
:1052050004EEE07004A3E0640270BA801AE490042E
:105215007FF09004FDE0FEA3E024F5F58274003EE6
:10522500F583E0900480F0900493E004F0024FEAE7
:10523500E4900492F0A3F0024FEA7BFF7A55796F70
:0652450012681C024FEA92
:01524B002240
:10659000E4900588F0A3F0FBFAFDFC7F027E0A126E
:1065A000635C7B0C7F03126355126351E4FBFAFDBD
:1065B000FC7F067E0A12635C7B107A00E4FDFCFF20
:1065C0007EF012635C1200169000F4E0B40107C282
:0665D000AC124FB5D2AC85
:0165D60022A2
:1064AD00E490058AF0A3F0FBFAFDFC7F027E0A1250
:1064BD00635C7B0D7A00E4FDFC7F037E0A12635C56
:1064CD00126351E4FBFAFDFC7F067E0A12635C7BCE
:1064DD00087A00E4FDFCFF7EF012635C120016905A
:0D64ED0000F4E0B40107C2AC124FB5D2AC10
:0164FA00227F
:105D0C00E4900564F0A3F07BFF7A55797E12681C51
:105D1C00E4FBFAFDFC7F027E0A12635C7B0E7A00C8
:105D2C00E4FDFC7F037E0A12635C126351E4FBFA10
:105D3C00FDFC7F067E0A12635C7B077A00E4FDFCA7
:105D4C00FF7EF012635C126B481200169002E8A3FF
:105D5C00E0FF126CD79002E8E0FFA3E0900564CF5F
:105D6C00F0A3EFF07F55126CD7900564A3E0FF12FF
:105D7C006CD7E4900566F0A3F0900564E0FEA3E018
:105D8C00FFA3E0FCA3E0FDC39FEE6480F8EC64800D
:105D9C0098501F74F42DF58274003CF583E0FF12CB
:105DAC006CD7900567E004F07006900566E004F08F
:105DBC0080C79000F4E0B40107C2AC124FB5D2AC6E
:095DCC007BFF7A55799602681CF0
:10661B00E4FF900000E060379000F1E0C394085075
:10662B0003E4FE22E4FEEEFD3395E0FC74002DF551
:10663B008274003CF583E02FFF0EEEB407E8900068
:10664B0007E0B507057E007F0122126C3D8000E458
:02665B00FEFF40
:01665D00221A
:10009E00EF14B42200400302233C9000B675F00327
:1000AE00A4C58325F0C5837302011C02012502013C
:1000BE002E0201300201320203A902013502014370
:1000CE0002015102015F02016D02017B02018F02EA
:1000DE0001A30201B70201F302020702026B020240
:1000EE007F0202930202A70202BB0202CF02233C4E
:1000FE0002030B0203470203A902035B02039602EB
:10010E0003A90203BC0203D40203A90203FC7FC0AD
:10011E00126CCE7F0680337F40126CCE7F03802A16
:10012E00802F8003020347E4FF126CCEE4FF126CB3
:10013E00CE7F108058E4FF126CCEE4FF126CCE7F9F
:10014E0011804AE4FF126CCEE4FF126CCEE4FF8005
:10015E003CE4FF126CCEE4FF126CCE7F01802EE4E5
:10016E00FF126CCEE4FF126CCE7F028020E4FF12F1
:10017E006CCEE4FF126CCEE4FF126CCE7F03020352
:10018E00E5E4FF126CCEE4FF126CCE7F02126CCE51
:10019E00E4FF0203E5E4FF126CCEE4FF126CCE7FA7
:1001AE0061126CCE7F1B0203E57F01126CCEE4FF61
:1001BE00126CCE7F01126CCE7F07126CCEE4FF1252
:1001CE006CCEE4FF126CCEE4FF126CCEE4FF126C28
:1001DE00CEE4FF126CCEE4FF126CCE7F05126CCE15
:1001EE00E4FF0203E5E4FF126CCEE4FF126CCE7F57
:1001FE0002126CCE7F070203E57F01126CCEE4FF84
:10020E00126CCE7F02126CCE7F07126CCE7F011263
:10021E006CCEE4FF126CCEE4FF126CCEE4FF126CD7
:10022E00CE7F01126CCEE4FF126CCE7F01126CCE2B
:10023E007F07126CCEE4FF126CCEE4FF126CCEE49C
:10024E00FF126CCEE4FF126CCEE4FF126CCEE4FF14
:10025E00126CCE7F05126CCEE4FF0203E5E4FF12B2
:10026E006CCEE4FF126CCE7F04126CCE7F070203BD
:10027E00E5E4FF126CCEE4FF126CCE7F05126CCE5D
:10028E007F070203E5E4FF126CCEE4FF126CCE7F13
:10029E0006126CCE7F070203E5E4FF126CCEE4FF7C
:1002AE00126CCE7F07126CCE7F070203E5E4FF12BD
:1002BE006CCEE4FF126CCE7F12126CCE7F0B02035B
:1002CE00E57F01126CCEE4FF126CCE7F01126CCE74
:1002DE007F07126CCEE4FF126CCEE4FF126CCEE4FC
:1002EE00FF126CCEE4FF126CCEE4FF126CCEE4FF74
:1002FE00126CCE7F05126CCEE4FF0203E57F011275
:10030E006CCEE4FF126CCE7F0A126CCE7F01126CA3
:10031E00CE7FF8126CCE7F59126CCE7F0D126CCE42
:10032E00E4FF126CCEE4FF126CCEE4FF126CCE7FB3
:10033E0005126CCEE4FF0203E5E4FF126CCEE4FF7F
:10034E00126CCE7F05126CCEE4FF0203E57F011224
:10035E006CCEE4FF126CCE7F08126CCE7F01126C55
:10036E00CE7F01126CCE7F01126CCEE4FF126CCEEA
:10037E00E4FF126CCEE4FF126CCEE4FF126CCE7F63
:10038E0005126CCEE4FF804FE4FF126CCEE4FF1238
:10039E006CCE7F05126CCEE4FF803CE4FF126CCE77
:1003AE00E4FF126CCE7F06126CCEE4FF80297F0133
:1003BE00126CCEE4FF126CCEE4FF126CCE7FF01204
:1003CE006CCE7F278016E4FF126CCEE4FF126CCE4B
:1003DE007F05126CCEE4FF126CCEE4FF126CCEE4FD
:1003EE00FF126CCEE4FF126CCEE4FF0223397F01C4
:1003FE00126CCEE4FF126CCE7F01126CCE7F0C120B
:10040E006CCEE4FF126CCEE4FF126CCEE4FF126CE5
:10041E00CEE4FF126CCE7F01126CCEE4FF126CCED6
:10042E007F02126CCE7F0C126CCE7F01126CCEE46A
:10043E00FF126CCEE4FF126CCEE4FF126CCE7F0185
:10044E00126CCEE4FF126CCE7F03126CCE7F0C12B8
:10045E006CCE7F70126CCE7F0D126CCE7F18126C2C
:10046E00CEE4FF126CCE7F01126CCEE4FF126CCE86
:10047E007F04126CCE7F0C126CCEE4FF126CCE7F1A
:10048E0001126CCE7F07126CCE7F14126CCE7F01E0
:10049E00126CCEE4FF126CCE7F01126CCE7F0C126A
:1004AE006CCE7F01126CCEE4FF126CCEE4FF126CA8
:1004BE00CEE4FF126CCE7F01126CCEE4FF126CCE36
:1004CE007F02126CCE7F0C126CCE7F01126CCEE4CA
:1004DE00FF126CCEE4FF126CCEE4FF126CCE7F01E5
:1004EE00126CCEE4FF126CCE7F03126CCE7F0C1218
:1004FE006CCE7F84126CCE7F0D126CCE7F18126C78
:10050E00CEE4FF126CCE7F01126CCEE4FF126CCEE5
:10051E007F04126CCE7F0C126CCEE4FF126CCE7F79
:10052E0001126CCE7F07126CCE7F14126CCE7F013F
:10053E00126CCEE4FF126CCE7F01126CCE7F0C12C9
:10054E006CCE7F02126CCEE4FF126CCEE4FF126C06
:10055E00CEE4FF126CCE7F01126CCEE4FF126CCE95
:10056E007F02126CCE7F0C126CCE7F01126CCEE429
:10057E00FF126CCEE4FF126CCEE4FF126CCE7F0144
:10058E00126CCEE4FF126CCE7F03126CCE7F0C1277
:10059E006CCE7F98126CCE7F0D126CCE7F18126CC3
:1005AE00CEE4FF126CCE7F01126CCEE4FF126CCE45
:1005BE007F04126CCE7F0C126CCEE4FF126CCE7FD9
:1005CE0001126CCE7F07126CCE7F14126CCE7F019F
:1005DE00126CCEE4FF126CCE7F01126CCE7F0C1229
:1005EE006CCE7F03126CCEE4FF126CCEE4FF126C65
:1005FE00CEE4FF126CCE7F01126CCEE4FF126CCEF5
:10060E007F02126CCE7F0C126CCE7F01126CCEE488
:10061E00FF126CCEE4FF126CCEE4FF126CCE7F01A3
:10062E00126CCEE4FF126CCE7F03126CCE7F0C12D6
:10063E006CCE7FAC126CCE7F0D126CCE7F18126C0E
:10064E00CEE4FF126CCE7F01126CCEE4FF126CCEA4
:10065E007F04126CCE7F0C126CCEE4FF126CCE7F38
:10066E0001126CCE7F07126CCE7F14126CCE7F01FE
:10067E00126CCEE4FF126CCE7F01126CCE7F0C1288
:10068E006CCE7F04126CCEE4FF126CCEE4FF126CC3
:10069E00CEE4FF126CCE7F01126CCEE4FF126CCE54
:1006AE007F02126CCE7F0C126CCE7F01126CCEE4E8
:1006BE00FF126CCEE4FF126CCEE4FF126CCE7F0103
:1006CE00126CCEE4FF126CCE7F03126CCE7F0C1236
:1006DE006CCE7FC0126CCE7F0D126CCE7F18126C5A
:1006EE00CEE4FF126CCE7F01126CCEE4FF126CCE04
:1006FE007F04126CCE7F0C126CCEE4FF126CCE7F98
:10070E0001126CCE7F07126CCE7F14126CCE7F015D
:10071E00126CCEE4FF126CCE7F01126CCE7F0C12E7
:10072E006CCE7F05126CCEE4FF126CCEE4FF126C21
:10073E00CEE4FF126CCE7F01126CCEE4FF126CCEB3
:10074E007F02126CCE7F0C126CCE7F01126CCEE447
:10075E00FF126CCEE4FF126CCEE4FF126CCE7F0162
:10076E00126CCEE4FF126CCE7F03126CCE7F0C1295
:10077E006CCE7FD4126CCE7F0D126CCE7F18126CA5
:10078E00CEE4FF126CCE7F01126CCEE4FF126CCE63
:10079E007F04126CCE7F0C126CCEE4FF126CCE7FF7
:1007AE0001126CCE7F07126CCE7F14126CCE7F01BD
:1007BE00126CCEE4FF126CCE7F01126CCE7F0C1247
:1007CE006CCE7F06126CCEE4FF126CCEE4FF126C80
:1007DE00CEE4FF126CCE7F01126CCEE4FF126CCE13
:1007EE007F02126CCE7F0C126CCE7F01126CCEE4A7
:1007FE00FF126CCEE4FF126CCEE4FF126CCE7F01C2
:10080E00126CCEE4FF126CCE7F03126CCE7F0C12F4
:10081E006CCE7FE8126CCE7F0D126CCE7F18126CF0
:10082E00CEE4FF126CCE7F01126CCEE4FF126CCEC2
:10083E007F04126CCE7F0C126CCEE4FF126CCE7F56
:10084E0001126CCE7F07126CCE7F14126CCE7F011C
:10085E00126CCEE4FF126CCE7F01126CCE7F0C12A6
:10086E006CCE7F07126CCEE4FF126CCEE4FF126CDE
:10087E00CEE4FF126CCE7F01126CCEE4FF126CCE72
:10088E007F02126CCE7F0C126CCE7F01126CCEE406
:10089E00FF126CCEE4FF126CCEE4FF126CCE7F0121
:1008AE00126CCEE4FF126CCE7F03126CCE7F0C1254
:1008BE006CCE7FFC126CCE7F0D126CCE7F18126C3C
:1008CE00CEE4FF126CCE7F01126CCEE4FF126CCE22
:1008DE007F04126CCE7F0C126CCEE4FF126CCE7FB6
:1008EE0001126CCE7F07126CCE7F14126CCE7F017C
:1008FE00126CCEE4FF126CCE7F01126CCE7F0C1206
:10090E006CCE7F08126CCEE4FF126CCEE4FF126C3C
:10091E00CEE4FF126CCE7F01126CCEE4FF126CCED1
:10092E007F02126CCE7F0C126CCE7F01126CCEE465
:10093E00FF126CCEE4FF126CCEE4FF126CCE7F0180
:10094E00126CCEE4FF126CCE7F03126CCE7F0C12B3
:10095E006CCE7F10126CCE7F0E126CCE7F18126C86
:10096E00CEE4FF126CCE7F01126CCEE4FF126CCE81
:10097E007F04126CCE7F0C126CCEE4FF126CCE7F15
:10098E0001126CCE7F07126CCE7F14126CCE7F01DB
:10099E00126CCEE4FF126CCE7F01126CCE7F0C1265
:1009AE006CCE7F09126CCEE4FF126CCEE4FF126C9B
:1009BE00CEE4FF126CCE7F01126CCEE4FF126CCE31
:1009CE007F02126CCE7F0C126CCE7F01126CCEE4C5
:1009DE00FF126CCEE4FF126CCEE4FF126CCE7F01E0
:1009EE00126CCEE4FF126CCE7F03126CCE7F0C1213
:1009FE006CCE7F24126CCE7F0E126CCE7F18126CD2
:100A0E00CEE4FF126CCE7F01126CCEE4FF126CCEE0
:100A1E007F04126CCE7F0C126CCEE4FF126CCE7F74
:100A2E0001126CCE7F07126CCE7F14126CCE7F013A
:100A3E00126CCEE4FF126CCE7F01126CCE7F0C12C4
:100A4E006CCE7F0A126CCEE4FF126CCEE4FF126CF9
:100A5E00CEE4FF126CCE7F01126CCEE4FF126CCE90
:100A6E007F02126CCE7F0C126CCE7F01126CCEE424
:100A7E00FF126CCEE4FF126CCEE4FF126CCE7F013F
:100A8E00126CCEE4FF126CCE7F03126CCE7F0C1272
:100A9E006CCE7F38126CCE7F0E126CCE7F18126C1D
:100AAE00CEE4FF126CCE7F01126CCEE4FF126CCE40
:100ABE007F04126CCE7F0C126CCEE4FF126CCE7FD4
:100ACE0001126CCE7F07126CCE7F14126CCE7F019A
:100ADE00126CCEE4FF126CCE7F01126CCE7F0C1224
:100AEE006CCE7F0B126CCEE4FF126CCEE4FF126C58
:100AFE00CEE4FF126CCE7F01126CCEE4FF126CCEF0
:100B0E007F02126CCE7F0C126CCE7F01126CCEE483
:100B1E00FF126CCEE4FF126CCEE4FF126CCE7F019E
:100B2E00126CCEE4FF126CCE7F03126CCE7F0C12D1
:100B3E006CCE7F4C126CCE7F0E126CCE7F18126C68
:100B4E00CEE4FF126CCE7F01126CCEE4FF126CCE9F
:100B5E007F04126CCE7F0C126CCEE4FF126CCE7F33
:100B6E0001126CCE7F07126CCE7F14126CCE7F01F9
:100B7E00126CCEE4FF126CCE7F01126CCE7F0C1283
:100B8E006CCE7F0C126CCEE4FF126CCEE4FF126CB6
:100B9E00CEE4FF126CCE7F01126CCEE4FF126CCE4F
:100BAE007F02126CCE7F0C126CCE7F01126CCEE4E3
:100BBE00FF126CCEE4FF126CCEE4FF126CCE7F01FE
:100BCE00126CCEE4FF126CCE7F03126CCE7F0C1231
:100BDE006CCE7F60126CCE7F0E126CCE7F18126CB4
:100BEE00CEE4FF126CCE7F01126CCEE4FF126CCEFF
:100BFE007F04126CCE7F0C126CCEE4FF126CCE7F93
:100C0E0001126CCE7F07126CCE7F14126CCE7F0158
:100C1E00126CCEE4FF126CCE7F01126CCE7F0C12E2
:100C2E006CCE7F0D126CCEE4FF126CCEE4FF126C14
:100C3E00CEE4FF126CCE7F01126CCEE4FF126CCEAE
:100C4E007F02126CCE7F0C126CCEE4FF126CCEE4DF
:100C5E00FF126CCEE4FF126CCEE4FF126CCE7F015D
:100C6E00126CCEE4FF126CCE7F03126CCE7F0C1290
:100C7E006CCE7F60126CCE7F0E126CCE7F18126C13
:100C8E00CEE4FF126CCE7F01126CCEE4FF126CCE5E
:100C9E007F04126CCE7F0C126CCEE4FF126CCE7FF2
:100CAE0001126CCE7F07126CCE7F14126CCE7F01B8
:100CBE00126CCEE4FF126CCE7F01126CCE7F0C1242
:100CCE006CCE7F0E126CCEE4FF126CCEE4FF126C73
:100CDE00CEE4FF126CCE7F01126CCEE4FF126CCE0E
:100CEE007F02126CCE7F0C126CCEE4FF126CCEE43F
:100CFE00FF126CCEE4FF126CCEE4FF126CCE7F01BD
:100D0E00126CCEE4FF126CCE7F03126CCE7F0C12EF
:100D1E006CCE7F60126CCE7F0E126CCE7F18126C72
:100D2E00CEE4FF126CCE7F01126CCEE4FF126CCEBD
:100D3E007F04126CCE7F0C126CCEE4FF126CCE7F51
:100D4E0001126CCE7F07126CCE7F14126CCE7F0117
:100D5E00126CCEE4FF126CCE7F01126CCE7F0C12A1
:100D6E006CCE7F0F126CCEE4FF126CCEE4FF126CD1
:100D7E00CEE4FF126CCE7F01126CCEE4FF126CCE6D
:100D8E007F02126CCE7F0C126CCEE4FF126CCEE49E
:100D9E00FF126CCEE4FF126CCEE4FF126CCE7F011C
:100DAE00126CCEE4FF126CCE7F03126CCE7F0C124F
:100DBE006CCE7F60126CCE7F0E126CCE7F18126CD2
:100DCE00CEE4FF126CCE7F01126CCEE4FF126CCE1D
:100DDE007F04126CCE7F0C126CCEE4FF126CCE7FB1
:100DEE0001126CCE7F07126CCE7F14126CCE7F0177
:100DFE00126CCEE4FF126CCE7F01126CCE7F0C1201
:100E0E006CCE7F10126CCEE4FF126CCEE4FF126C2F
:100E1E00CEE4FF126CCE7F01126CCEE4FF126CCECC
:100E2E007F02126CCE7F0C126CCEE4FF126CCEE4FD
:100E3E00FF126CCEE4FF126CCEE4FF126CCE7F017B
:100E4E00126CCEE4FF126CCE7F03126CCE7F0C12AE
:100E5E006CCE7F60126CCE7F0E126CCE7F18126C31
:100E6E00CEE4FF126CCE7F01126CCEE4FF126CCE7C
:100E7E007F04126CCE7F0C126CCEE4FF126CCE7F10
:100E8E0001126CCE7F07126CCE7F14126CCE7F01D6
:100E9E00126CCEE4FF126CCE7F01126CCE7F0C1260
:100EAE006CCE7F11126CCEE4FF126CCEE4FF126C8E
:100EBE00CEE4FF126CCE7F01126CCEE4FF126CCE2C
:100ECE007F02126CCE7F0C126CCEE4FF126CCEE45D
:100EDE00FF126CCEE4FF126CCEE4FF126CCE7F01DB
:100EEE00126CCEE4FF126CCE7F03126CCE7F0C120E
:100EFE006CCE7F60126CCE7F0E126CCE7F18126C91
:100F0E00CEE4FF126CCE7F01126CCEE4FF126CCEDB
:100F1E007F04126CCE7F0C126CCEE4FF126CCE7F6F
:100F2E0001126CCE7F07126CCE7F14126CCE7F0135
:100F3E00126CCEE4FF126CCE7F01126CCE7F0C12BF
:100F4E006CCE7F12126CCEE4FF126CCEE4FF126CEC
:100F5E00CEE4FF126CCE7F01126CCEE4FF126CCE8B
:100F6E007F02126CCE7F0C126CCEE4FF126CCEE4BC
:100F7E00FF126CCEE4FF126CCEE4FF126CCE7F013A
:100F8E00126CCEE4FF126CCE7F03126CCE7F0C126D
:100F9E006CCE7F60126CCE7F0E126CCE7F18126CF0
:100FAE00CEE4FF126CCE7F01126CCEE4FF126CCE3B
:100FBE007F04126CCE7F0C126CCEE4FF126CCE7FCF
:100FCE0001126CCE7F07126CCE7F14126CCE7F0195
:100FDE00126CCEE4FF126CCE7F01126CCE7F0C121F
:100FEE006CCE7F13126CCEE4FF126CCEE4FF126C4B
:100FFE00CEE4FF126CCE7F01126CCEE4FF126CCEEB
:10100E007F02126CCE7F0C126CCEE4FF126CCEE41B
:10101E00FF126CCEE4FF126CCEE4FF126CCE7F0199
:10102E00126CCEE4FF126CCE7F03126CCE7F0C12CC
:10103E006CCE7F60126CCE7F0E126CCE7F18126C4F
:10104E00CEE4FF126CCE7F01126CCEE4FF126CCE9A
:10105E007F04126CCE7F0C126CCEE4FF126CCE7F2E
:10106E0001126CCE7F07126CCE7F14126CCE7F01F4
:10107E00126CCEE4FF126CCE7F01126CCE7F0C127E
:10108E006CCE7F14126CCEE4FF126CCEE4FF126CA9
:10109E00CEE4FF126CCE7F01126CCEE4FF126CCE4A
:1010AE007F02126CCE7F0C126CCEE4FF126CCEE47B
:1010BE00FF126CCEE4FF126CCEE4FF126CCE7F01F9
:1010CE00126CCEE4FF126CCE7F03126CCE7F0C122C
:1010DE006CCE7F60126CCE7F0E126CCE7F18126CAF
:1010EE00CEE4FF126CCE7F01126CCEE4FF126CCEFA
:1010FE007F04126CCE7F0C126CCEE4FF126CCE7F8E
:10110E0001126CCE7F07126CCE7F14126CCE7F0153
:10111E00126CCEE4FF126CCE7F01126CCE7F0C12DD
:10112E006CCE7F15126CCEE4FF126CCEE4FF126C07
:10113E00CEE4FF126CCE7F01126CCEE4FF126CCEA9
:10114E007F02126CCE7F0C126CCEE4FF126CCEE4DA
:10115E00FF126CCEE4FF126CCEE4FF126CCE7F0158
:10116E00126CCEE4FF126CCE7F03126CCE7F0C128B
:10117E006CCE7F60126CCE7F0E126CCE7F18126C0E
:10118E00CEE4FF126CCE7F01126CCEE4FF126CCE59
:10119E007F04126CCE7F0C126CCEE4FF126CCE7FED
:1011AE0001126CCE7F07126CCE7F14126CCE7F01B3
:1011BE00126CCEE4FF126CCE7F01126CCE7F0C123D
:1011CE006CCE7F16126CCEE4FF126CCEE4FF126C66
:1011DE00CEE4FF126CCE7F01126CCEE4FF126CCE09
:1011EE007F02126CCE7F0C126CCEE4FF126CCEE43A
:1011FE00FF126CCEE4FF126CCEE4FF126CCE7F01B8
:10120E00126CCEE4FF126CCE7F03126CCE7F0C12EA
:10121E006CCE7F60126CCE7F0E126CCE7F18126C6D
:10122E00CEE4FF126CCE7F01126CCEE4FF126CCEB8
:10123E007F04126CCE7F0C126CCEE4FF126CCE7F4C
:10124E0001126CCE7F07126CCE7F14126CCE7F0112
:10125E00126CCEE4FF126CCE7F01126CCE7F0C129C
:10126E006CCE7F17126CCEE4FF126CCEE4FF126CC4
:10127E00CEE4FF126CCE7F01126CCEE4FF126CCE68
:10128E007F02126CCE7F0C126CCEE4FF126CCEE499
:10129E00FF126CCEE4FF126CCEE4FF126CCE7F0117
:1012AE00126CCEE4FF126CCE7F03126CCE7F0C124A
:1012BE006CCE7F60126CCE7F0E126CCE7F18126CCD
:1012CE00CEE4FF126CCE7F01126CCEE4FF126CCE18
:1012DE007F04126CCE7F0C126CCEE4FF126CCE7FAC
:1012EE0001126CCE7F07126CCE7F14126CCE7F0172
:1012FE00126CCEE4FF126CCE7F01126CCE7F0C12FC
:10130E006CCE7F18126CCEE4FF126CCEE4FF126C22
:10131E00CEE4FF126CCE7F01126CCEE4FF126CCEC7
:10132E007F02126CCE7F0C126CCEE4FF126CCEE4F8
:10133E00FF126CCEE4FF126CCEE4FF126CCE7F0176
:10134E00126CCEE4FF126CCE7F03126CCE7F0C12A9
:10135E006CCE7F60126CCE7F0E126CCE7F18126C2C
:10136E00CEE4FF126CCE7F01126CCEE4FF126CCE77
:10137E007F04126CCE7F0C126CCEE4FF126CCE7F0B
:10138E0001126CCE7F07126CCE7F14126CCE7F01D1
:10139E00126CCEE4FF126CCE7F01126CCE7F0C125B
:1013AE006CCE7F19126CCEE4FF126CCEE4FF126C81
:1013BE00CEE4FF126CCE7F01126CCEE4FF126CCE27
:1013CE007F02126CCE7F0C126CCEE4FF126CCEE458
:1013DE00FF126CCEE4FF126CCEE4FF126CCE7F01D6
:1013EE00126CCEE4FF126CCE7F03126CCE7F0C1209
:1013FE006CCE7F60126CCE7F0E126CCE7F18126C8C
:10140E00CEE4FF126CCE7F01126CCEE4FF126CCED6
:10141E007F04126CCE7F0C126CCEE4FF126CCE7F6A
:10142E0001126CCE7F07126CCE7F14126CCE7F0130
:10143E00126CCEE4FF126CCE7F01126CCE7F0C12BA
:10144E006CCE7F1A126CCEE4FF126CCEE4FF126CDF
:10145E00CEE4FF126CCE7F01126CCEE4FF126CCE86
:10146E007F02126CCE7F0C126CCEE4FF126CCEE4B7
:10147E00FF126CCEE4FF126CCEE4FF126CCE7F0135
:10148E00126CCEE4FF126CCE7F03126CCE7F0C1268
:10149E006CCE7F60126CCE7F0E126CCE7F18126CEB
:1014AE00CEE4FF126CCE7F01126CCEE4FF126CCE36
:1014BE007F04126CCE7F0C126CCEE4FF126CCE7FCA
:1014CE0001126CCE7F07126CCE7F14126CCE7F0190
:1014DE00126CCEE4FF126CCE7F01126CCE7F0C121A
:1014EE006CCE7F1B126CCEE4FF126CCEE4FF126C3E
:1014FE00CEE4FF126CCE7F01126CCEE4FF126CCEE6
:10150E007F02126CCE7F0C126CCEE4FF126CCEE416
:10151E00FF126CCEE4FF126CCEE4FF126CCE7F0194
:10152E00126CCEE4FF126CCE7F03126CCE7F0C12C7
:10153E006CCE7F60126CCE7F0E126CCE7F18126C4A
:10154E00CEE4FF126CCE7F01126CCEE4FF126CCE95
:10155E007F04126CCE7F0C126CCEE4FF126CCE7F29
:10156E0001126CCE7F07126CCE7F14126CCE7F01EF
:10157E00126CCEE4FF126CCE7F01126CCE7F0C1279
:10158E006CCE7F1C126CCEE4FF126CCEE4FF126C9C
:10159E00CEE4FF126CCE7F01126CCEE4FF126CCE45
:1015AE007F02126CCE7F0C126CCEE4FF126CCEE476
:1015BE00FF126CCEE4FF126CCEE4FF126CCE7F01F4
:1015CE00126CCEE4FF126CCE7F03126CCE7F0C1227
:1015DE006CCE7F60126CCE7F0E126CCE7F18126CAA
:1015EE00CEE4FF126CCE7F01126CCEE4FF126CCEF5
:1015FE007F04126CCE7F0C126CCEE4FF126CCE7F89
:10160E0001126CCE7F07126CCE7F14126CCE7F014E
:10161E00126CCEE4FF126CCE7F01126CCE7F0C12D8
:10162E006CCE7F1D126CCEE4FF126CCEE4FF126CFA
:10163E00CEE4FF126CCE7F01126CCEE4FF126CCEA4
:10164E007F02126CCE7F0C126CCEE4FF126CCEE4D5
:10165E00FF126CCEE4FF126CCEE4FF126CCE7F0153
:10166E00126CCEE4FF126CCE7F03126CCE7F0C1286
:10167E006CCE7F60126CCE7F0E126CCE7F18126C09
:10168E00CEE4FF126CCE7F01126CCEE4FF126CCE54
:10169E007F04126CCE7F0C126CCEE4FF126CCE7FE8
:1016AE0001126CCE7F07126CCE7F14126CCE7F01AE
:1016BE00126CCEE4FF126CCE7F01126CCE7F0C1238
:1016CE006CCE7F1E126CCEE4FF126CCEE4FF126C59
:1016DE00CEE4FF126CCE7F01126CCEE4FF126CCE04
:1016EE007F02126CCE7F0C126CCEE4FF126CCEE435
:1016FE00FF126CCEE4FF126CCEE4FF126CCE7F01B3
:10170E00126CCEE4FF126CCE7F03126CCE7F0C12E5
:10171E006CCE7F60126CCE7F0E126CCE7F18126C68
:10172E00CEE4FF126CCE7F01126CCEE4FF126CCEB3
:10173E007F04126CCE7F0C126CCEE4FF126CCE7F47
:10174E0001126CCE7F07126CCE7F14126CCE7F010D
:10175E00126CCEE4FF126CCE7F01126CCE7F0C1297
:10176E006CCE7F1F126CCEE4FF126CCEE4FF126CB7
:10177E00CEE4FF126CCE7F01126CCEE4FF126CCE63
:10178E007F02126CCE7F0C126CCEE4FF126CCEE494
:10179E00FF126CCEE4FF126CCEE4FF126CCE7F0112
:1017AE00126CCEE4FF126CCE7F03126CCE7F0C1245
:1017BE006CCE7F60126CCE7F0E126CCE7F18126CC8
:1017CE00CEE4FF126CCE7F01126CCEE4FF126CCE13
:1017DE007F04126CCE7F0C126CCEE4FF126CCE7FA7
:1017EE0001126CCE7F07126CCE7F14126CCE7F016D
:1017FE00126CCEE4FF126CCE7F01126CCE7F0C12F7
:10180E006CCE7F20126CCEE4FF126CCEE4FF126C15
:10181E00CEE4FF126CCE7F01126CCEE4FF126CCEC2
:10182E007F02126CCE7F0C126CCEE4FF126CCEE4F3
:10183E00FF126CCEE4FF126CCEE4FF126CCE7F0171
:10184E00126CCEE4FF126CCE7F03126CCE7F0C12A4
:10185E006CCE7F60126CCE7F0E126CCE7F18126C27
:10186E00CEE4FF126CCE7F01126CCEE4FF126CCE72
:10187E007F04126CCE7F0C126CCEE4FF126CCE7F06
:10188E0001126CCE7F07126CCE7F14126CCE7F01CC
:10189E00126CCEE4FF126CCE7F01126CCE7F0C1256
:1018AE006CCE7F21126CCEE4FF126CCEE4FF126C74
:1018BE00CEE4FF126CCE7F01126CCEE4FF126CCE22
:1018CE007F02126CCE7F0C126CCEE4FF126CCEE453
:1018DE00FF126CCEE4FF126CCEE4FF126CCE7F01D1
:1018EE00126CCEE4FF126CCE7F03126CCE7F0C1204
:1018FE006CCE7F60126CCE7F0E126CCE7F18126C87
:10190E00CEE4FF126CCE7F01126CCEE4FF126CCED1
:10191E007F04126CCE7F0C126CCEE4FF126CCE7F65
:10192E0001126CCE7F07126CCE7F14126CCE7F012B
:10193E00126CCEE4FF126CCE7F01126CCE7F0C12B5
:10194E006CCE7F22126CCEE4FF126CCEE4FF126CD2
:10195E00CEE4FF126CCE7F01126CCEE4FF126CCE81
:10196E007F02126CCE7F0C126CCEE4FF126CCEE4B2
:10197E00FF126CCEE4FF126CCEE4FF126CCE7F0130
:10198E00126CCEE4FF126CCE7F03126CCE7F0C1263
:10199E006CCE7F60126CCE7F0E126CCE7F18126CE6
:1019AE00CEE4FF126CCE7F01126CCEE4FF126CCE31
:1019BE007F04126CCE7F0C126CCEE4FF126CCE7FC5
:1019CE0001126CCE7F07126CCE7F14126CCE7F018B
:1019DE00126CCEE4FF126CCE7F01126CCE7F0C1215
:1019EE006CCE7F23126CCEE4FF126CCEE4FF126C31
:1019FE00CEE4FF126CCE7F01126CCEE4FF126CCEE1
:101A0E007F02126CCE7F0C126CCEE4FF126CCEE411
:101A1E00FF126CCEE4FF126CCEE4FF126CCE7F018F
:101A2E00126CCEE4FF126CCE7F03126CCE7F0C12C2
:101A3E006CCE7F60126CCE7F0E126CCE7F18126C45
:101A4E00CEE4FF126CCE7F01126CCEE4FF126CCE90
:101A5E007F04126CCE7F0C126CCEE4FF126CCE7F24
:101A6E0001126CCE7F07126CCE7F14126CCE7F01EA
:101A7E00126CCEE4FF126CCE7F01126CCE7F0C1274
:101A8E006CCE7F24126CCEE4FF126CCEE4FF126C8F
:101A9E00CEE4FF126CCE7F01126CCEE4FF126CCE40
:101AAE007F02126CCE7F0C126CCEE4FF126CCEE471
:101ABE00FF126CCEE4FF126CCEE4FF126CCE7F01EF
:101ACE00126CCEE4FF126CCE7F03126CCE7F0C1222
:101ADE006CCE7F60126CCE7F0E126CCE7F18126CA5
:101AEE00CEE4FF126CCE7F01126CCEE4FF126CCEF0
:101AFE007F04126CCE7F0C126CCEE4FF126CCE7F84
:101B0E0001126CCE7F07126CCE7F14126CCE7F0149
:101B1E00126CCEE4FF126CCE7F01126CCE7F0C12D3
:101B2E006CCE7F25126CCEE4FF126CCEE4FF126CED
:101B3E00CEE4FF126CCE7F01126CCEE4FF126CCE9F
:101B4E007F02126CCE7F0C126CCEE4FF126CCEE4D0
:101B5E00FF126CCEE4FF126CCEE4FF126CCE7F014E
:101B6E00126CCEE4FF126CCE7F03126CCE7F0C1281
:101B7E006CCE7F60126CCE7F0E126CCE7F18126C04
:101B8E00CEE4FF126CCE7F01126CCEE4FF126CCE4F
:101B9E007F04126CCE7F0C126CCEE4FF126CCE7FE3
:101BAE0001126CCE7F07126CCE7F14126CCE7F01A9
:101BBE00126CCEE4FF126CCE7F01126CCE7F0C1233
:101BCE006CCE7F26126CCEE4FF126CCEE4FF126C4C
:101BDE00CEE4FF126CCE7F01126CCEE4FF126CCEFF
:101BEE007F02126CCE7F0C126CCEE4FF126CCEE430
:101BFE00FF126CCEE4FF126CCEE4FF126CCE7F01AE
:101C0E00126CCEE4FF126CCE7F03126CCE7F0C12E0
:101C1E006CCE7F60126CCE7F0E126CCE7F18126C63
:101C2E00CEE4FF126CCE7F01126CCEE4FF126CCEAE
:101C3E007F04126CCE7F0C126CCEE4FF126CCE7F42
:101C4E0001126CCE7F07126CCE7F14126CCE7F0108
:101C5E00126CCEE4FF126CCE7F01126CCE7F0C1292
:101C6E006CCE7F27126CCEE4FF126CCEE4FF126CAA
:101C7E00CEE4FF126CCE7F01126CCEE4FF126CCE5E
:101C8E007F02126CCE7F0C126CCEE4FF126CCEE48F
:101C9E00FF126CCEE4FF126CCEE4FF126CCE7F010D
:101CAE00126CCEE4FF126CCE7F03126CCE7F0C1240
:101CBE006CCE7F60126CCE7F0E126CCE7F18126CC3
:101CCE00CEE4FF126CCE7F01126CCEE4FF126CCE0E
:101CDE007F04126CCE7F0C126CCEE4FF126CCE7FA2
:101CEE0001126CCE7F07126CCE7F14126CCE7F0168
:101CFE00126CCEE4FF126CCE7F01126CCE7F0C12F2
:101D0E006CCE7F28126CCEE4FF126CCEE4FF126C08
:101D1E00CEE4FF126CCE7F01126CCEE4FF126CCEBD
:101D2E007F02126CCE7F0C126CCEE4FF126CCEE4EE
:101D3E00FF126CCEE4FF126CCEE4FF126CCE7F016C
:101D4E00126CCEE4FF126CCE7F03126CCE7F0C129F
:101D5E006CCE7F60126CCE7F0E126CCE7F18126C22
:101D6E00CEE4FF126CCE7F01126CCEE4FF126CCE6D
:101D7E007F04126CCE7F0C126CCEE4FF126CCE7F01
:101D8E0001126CCE7F07126CCE7F14126CCE7F01C7
:101D9E00126CCEE4FF126CCE7F01126CCE7F0C1251
:101DAE006CCE7F29126CCEE4FF126CCEE4FF126C67
:101DBE00CEE4FF126CCE7F01126CCEE4FF126CCE1D
:101DCE007F02126CCE7F0C126CCEE4FF126CCEE44E
:101DDE00FF126CCEE4FF126CCEE4FF126CCE7F01CC
:101DEE00126CCEE4FF126CCE7F03126CCE7F0C12FF
:101DFE006CCE7F60126CCE7F0E126CCE7F18126C82
:101E0E00CEE4FF126CCE7F01126CCEE4FF126CCECC
:101E1E007F04126CCE7F0C126CCEE4FF126CCE7F60
:101E2E0001126CCE7F07126CCE7F14126CCE7F0126
:101E3E00126CCEE4FF126CCE7F01126CCE7F0C12B0
:101E4E006CCE7F2A126CCEE4FF126CCEE4FF126CC5
:101E5E00CEE4FF126CCE7F01126CCEE4FF126CCE7C
:101E6E007F02126CCE7F0C126CCEE4FF126CCEE4AD
:101E7E00FF126CCEE4FF126CCEE4FF126CCE7F012B
:101E8E00126CCEE4FF126CCE7F03126CCE7F0C125E
:101E9E006CCE7F60126CCE7F0E126CCE7F18126CE1
:101EAE00CEE4FF126CCE7F01126CCEE4FF126CCE2C
:101EBE007F04126CCE7F0C126CCEE4FF126CCE7FC0
:101ECE0001126CCE7F07126CCE7F14126CCE7F0186
:101EDE00126CCEE4FF126CCE7F01126CCE7F0C1210
:101EEE006CCE7F2B126CCEE4FF126CCEE4FF126C24
:101EFE00CEE4FF126CCE7F01126CCEE4FF126CCEDC
:101F0E007F02126CCE7F0C126CCEE4FF126CCEE40C
:101F1E00FF126CCEE4FF126CCEE4FF126CCE7F018A
:101F2E00126CCEE4FF126CCE7F03126CCE7F0C12BD
:101F3E006CCE7F60126CCE7F0E126CCE7F18126C40
:101F4E00CEE4FF126CCE7F01126CCEE4FF126CCE8B
:101F5E007F04126CCE7F0C126CCEE4FF126CCE7F1F
:101F6E0001126CCE7F07126CCE7F14126CCE7F01E5
:101F7E00126CCEE4FF126CCE7F01126CCE7F0C126F
:101F8E006CCE7F2C126CCEE4FF126CCEE4FF126C82
:101F9E00CEE4FF126CCE7F01126CCEE4FF126CCE3B
:101FAE007F02126CCE7F0C126CCEE4FF126CCEE46C
:101FBE00FF126CCEE4FF126CCEE4FF126CCE7F01EA
:101FCE00126CCEE4FF126CCE7F03126CCE7F0C121D
:101FDE006CCE7F60126CCE7F0E126CCE7F18126CA0
:101FEE00CEE4FF126CCE7F01126CCEE4FF126CCEEB
:101FFE007F04126CCE7F0C126CCEE4FF126CCE7F7F
:10200E0001126CCE7F07126CCE7F14126CCE7F0144
:10201E00126CCEE4FF126CCE7F01126CCE7F0C12CE
:10202E006CCE7F2D126CCEE4FF126CCEE4FF126CE0
:10203E00CEE4FF126CCE7F01126CCEE4FF126CCE9A
:10204E007F02126CCE7F0C126CCEE4FF126CCEE4CB
:10205E00FF126CCEE4FF126CCEE4FF126CCE7F0149
:10206E00126CCEE4FF126CCE7F03126CCE7F0C127C
:10207E006CCE7F60126CCE7F0E126CCE7F18126CFF
:10208E00CEE4FF126CCE7F01126CCEE4FF126CCE4A
:10209E007F04126CCE7F0C126CCEE4FF126CCE7FDE
:1020AE0001126CCE7F07126CCE7F14126CCE7F01A4
:1020BE00126CCEE4FF126CCE7F01126CCE7F0C122E
:1020CE006CCE7F2E126CCEE4FF126CCEE4FF126C3F
:1020DE00CEE4FF126CCE7F01126CCEE4FF126CCEFA
:1020EE007F02126CCE7F0C126CCEE4FF126CCEE42B
:1020FE00FF126CCEE4FF126CCEE4FF126CCE7F01A9
:10210E00126CCEE4FF126CCE7F03126CCE7F0C12DB
:10211E006CCE7F60126CCE7F0E126CCE7F18126C5E
:10212E00CEE4FF126CCE7F01126CCEE4FF126CCEA9
:10213E007F04126CCE7F0C126CCEE4FF126CCE7F3D
:10214E0001126CCE7F07126CCE7F14126CCE7F0103
:10215E00126CCEE4FF126CCE7F01126CCE7F0C128D
:10216E006CCE7F2F126CCEE4FF126CCEE4FF126C9D
:10217E00CEE4FF126CCE7F01126CCEE4FF126CCE59
:10218E007F02126CCE7F0C126CCEE4FF126CCEE48A
:10219E00FF126CCEE4FF126CCEE4FF126CCE7F0108
:1021AE00126CCEE4FF126CCE7F03126CCE7F0C123B
:1021BE006CCE7F60126CCE7F0E126CCE7F18126CBE
:1021CE00CEE4FF126CCE7F01126CCEE4FF126CCE09
:1021DE007F04126CCE7F0C126CCEE4FF126CCE7F9D
:1021EE0001126CCE7F07126CCE7F14126CCE7F0163
:1021FE00126CCEE4FF126CCE7F01126CCE7F0C12ED
:10220E006CCE7F30126CCEE4FF126CCEE4FF126CFB
:10221E00CEE4FF126CCE7F01126CCEE4FF126CCEB8
:10222E007F02126CCE7F0C126CCEE4FF126CCEE4E9
:10223E00FF126CCEE4FF126CCEE4FF126CCE7F0167
:10224E00126CCEE4FF126CCE7F03126CCE7F0C129A
:10225E006CCE7F60126CCE7F0E126CCE7F18126C1D
:10226E00CEE4FF126CCE7F01126CCEE4FF126CCE68
:10227E007F04126CCE7F0C126CCEE4FF126CCE7FFC
:10228E0001126CCE7F07126CCE7F14126CCE7F01C2
:10229E00126CCEE4FF126CCE7F01126CCE7F0C124C
:1022AE006CCE7F31126CCEE4FF126CCEE4FF126C5A
:1022BE00CEE4FF126CCE7F01126CCEE4FF126CCE18
:1022CE007F02126CCE7F0C126CCEE4FF126CCEE449
:1022DE00FF126CCEE4FF126CCEE4FF126CCE7F01C7
:1022EE00126CCEE4FF126CCE7F03126CCE7F0C12FA
:1022FE006CCE7F60126CCE7F0E126CCE7F18126C7D
:10230E00CEE4FF126CCE7F01126CCEE4FF126CCEC7
:10231E007F04126CCE7F0C126CCEE4FF126CCE7F5B
:0F232E0001126CCE7F07126CCE7F14126CCE2280
:05233D009002EAEFF040
:102342009002EC7424F078ED7C027D017BFF7A55DB
:1023520079AC7E00FF1236B69003117408F0781241
:102362007C037D017BFF7A5579D07E00FF1236B661
:1023720090031A7408F0781B7C037D017BFF7A5569
:1023820079D87E00FF1236B69003237408F07824C1
:102392007C037D017BFF7A5579E07E00FF1236B621
:1023A20090032C7408F0782D7C037D017BFF7A5515
:1023B20079E87E00FF1236B69003357408F078365D
:1023C2007C037D017BFF7A5579F07E00FF1236B6E1
:1023D20090033E7408F0783F7C037D017BFF7A55C1
:1023E20079F87E00FF1236B69003477408F07848F9
:1023F2007C037D017BFF7A5679007E00FF1236B6A0
:102402009003507408F078517C037D017BFF7A566B
:1024120079087E00FF1236B69003597408F0785A94
:102422007C037D017BFF7A5679107E00FF1236B65F
:102432009003627408F078637C037D017BFF7A5617
:1024420079187E00FF1236B690036B7408F0786C30
:102452007C037D017BFF7A5679207E00FF1236B61F
:102462009003747408F078757C037D017BFF7A56C3
:1024720079287E00FF1236B690037D7408F0787ECC
:102482007C037D017BFF7A5679307E00FF1236B6DF
:102492009003867408F078877C037D017BFF7A566F
:1024A20079387E00FF1236B690038F7408F0789068
:1024B2007C037D017BFF7A5679407E00FF1236B69F
:1024C2009003987408F078997C037D017BFF7A561B
:1024D20079487E00FF1236B69003A17408F078A204
:1024E2007C037D017BFF7A5679507E00FF1236B65F
:1024F2009003AA7408F078AB7C037D017BFF7A56C7
:1025020079587E00FF1236B69003B37408F078B49F
:102512007C037D017BFF7A5679607E00FF1236B61E
:102522009003BC7408F078BD7C037D017BFF7A5672
:1025320079687E00FF1236B69003C57408F078C63B
:102542007C037D017BFF7A5679707E00FF1236B6DE
:102552009003CE7408F078CF7C037D017BFF7A561E
:1025620079787E00FF1236B6E49003D7F078D87CF3
:10257200037D017BFF7A567980FE7F011236B69089
:1025820003D97408F078DA7C037D017BFF7A5679EF
:10259200817E00FF1236B69003E27408F078E37C85
:1025A200037D017BFF7A5679897E00FF1236B69051
:1025B20003EB7408F078EC7C037D017BFF7A56799B
:1025C200917E00FF1236B69003F47408F078F57C21
:1025D200037D017BFF7A5679997E00FF1236B69011
:1025E20003FD7408F078FE7C037D017BFF7A567947
:1025F200A17E00FF1236B69004067408F078077CBC
:10260200047D017BFF7A5679A97E00FF1236B690CF
:10261200040F7420F078107C047D017BFF7A5679D8
:10262200B17E00FF1236B69004307408F078317C27
:10263200047D017BFF7A5679D17E00FF1236B69077
:1026420004397408F0783A7C047D017BFF7A56796C
:10265200D97E00FF1236B69002EAE014B42100409F
:102662000302305890267475F003A4C58325F0C583
:1026720083730226D70227250227730227C1022865
:102682000F02285D0228AB0228F902294702299588
:102692000229E3022A31022A7F022ACD022B1B02DF
:1026A2002B69022BB7022C12022C60022CAE022CD8
:1026B200B1022CFF022D4D022D9B022DE9022E3775
:1026C200022E85022ED3022F21022F6F022CAE0280
:1026D2002FBD02300AE49002EBF09002ECE0FF9092
:1026E20002EBE0FEC3EF6480F8EE648098400302E0
:1026F200305BE0FFFD3395E0FC74ED2DF582740252
:102702003CF583E0FEEF3395E0FC74F42DF5827422
:10271200003CF583E06E6003022C559002EBE0046E
:10272200F080B7E49002EBF0900311E0FF9002EB2F
:10273200E0FEC3EF6480F8EE648098400302305BF1
:10274200E0FFFD3395E0FC74122DF58274033CF535
:1027520083E0FEEF3395E0FC74F42DF58274003CC7
:10276200F583E06E6003022C559002EBE004F080EA
:10277200B7E49002EBF090031AE0FF9002EBE0FE68
:10278200C3EF6480F8EE648098400302305BE0FFA0
:10279200FD3395E0FC741B2DF58274033CF583E058
:1027A200FEEF3395E0FC74F42DF58274003CF58362
:1027B200E06E6003022C559002EBE004F080B7E477
:1027C2009002EBF0900323E0FF9002EBE0FEC3EFF8
:1027D2006480F8EE648098400302305BE0FFFD33D2
:1027E20095E0FC74242DF58274033CF583E0FEEF42
:1027F2003395E0FC74F42DF58274003CF583E06EB1
:102802006003022C559002EBE004F080B7E49002E2
:10281200EBF090032CE0FF9002EBE0FEC3EF64804C
:10282200F8EE648098400302305BE0FFFD3395E0F0
:10283200FC742D2DF58274033CF583E0FEEF339595
:10284200E0FC74F42DF58274003CF583E06E6003C5
:10285200022C559002EBE004F080B7E49002EBF01A
:10286200900335E0FF9002EBE0FEC3EF6480F8EEE8
:10287200648098400302305BE0FFFD3395E0FC7416
:10288200362DF58274033CF583E0FEEF3395E0FCD0
:1028920074F42DF58274003CF583E06E6003022C23
:1028A200559002EBE004F080B7E49002EBF0900365
:1028B2003EE0FF9002EBE0FEC3EF6480F8EE64803E
:1028C20098400302305BE0FFFD3395E0FC743F2D3E
:1028D200F58274033CF583E0FEEF3395E0FC74F47B
:1028E2002DF58274003CF583E06E6003022C559056
:1028F20002EBE004F080B7E49002EBF0900347E0D3
:10290200FF9002EBE0FEC3EF6480F8EE6480984033
:102912000302305BE0FFFD3395E0FC74482DF58245
:1029220074033CF583E0FEEF3395E0FC74F42DF57F
:102932008274003CF583E06E6003022C559002EB3A
:10294200E004F080B7E49002EBF0900350E0FF90D7
:1029520002EBE0FEC3EF6480F8EE6480984003026D
:10296200305BE0FFFD3395E0FC74512DF58274037A
:102972003CF583E0FEEF3395E0FC74F42DF58274B0
:10298200003CF583E06E6003022C559002EBE004FC
:10299200F080B7E49002EBF0900359E0FF9002EB75
:1029A200E0FEC3EF6480F8EE648098400302305B7F
:1029B200E0FFFD3395E0FC745A2DF58274033CF57B
:1029C20083E0FEEF3395E0FC74F42DF58274003C55
:1029D200F583E06E6003022C559002EBE004F08078
:1029E200B7E49002EBF0900362E0FF9002EBE0FEAE
:1029F200C3EF6480F8EE648098400302305BE0FF2E
:102A0200FD3395E0FC74632DF58274033CF583E09D
:102A1200FEEF3395E0FC74F42DF58274003CF583EF
:102A2200E06E6003022C559002EBE004F080B7E404
:102A32009002EBF090036BE0FF9002EBE0FEC3EF3D
:102A42006480F8EE648098400302305BE0FFFD335F
:102A520095E0FC746C2DF58274033CF583E0FEEF87
:102A62003395E0FC74F42DF58274003CF583E06E3E
:102A72006003022C559002EBE004F080B7E4900270
:102A8200EBF0900374E0FF9002EBE0FEC3EF648092
:102A9200F8EE648098400302305BE0FFFD3395E07E
:102AA200FC74752DF58274033CF583E0FEEF3395DB
:102AB200E0FC74F42DF58274003CF583E06E600353
:102AC200022C559002EBE004F080B7E49002EBF0A8
:102AD20090037DE0FF9002EBE0FEC3EF6480F8EE2E
:102AE200648098400302305BE0FFFD3395E0FC74A4
:102AF2007E2DF58274033CF583E0FEEF3395E0FC16
:102B020074F42DF58274003CF583E06E6003022CB0
:102B1200559002EBE004F080B7E49002EBF09003F2
:102B220086E0FF9002EBE0FEC3EF6480F8EE648083
:102B320098400302305BE0FFFD3395E0FC74872D83
:102B4200F58274033CF583E0FEEF3395E0FC74F408
:102B52002DF58274003CF583E06E6003022C5590E3
:102B620002EBE004F080B7E49002EBF090038FE018
:102B7200FF9002EBE0FEC3EF6480F8EE64809840C1
:102B82000302305BE0FFFD3395E0FC74902DF5828B
:102B920074033CF583E0FEEF3395E0FC74F42DF50D
:102BA2008274003CF583E06E6003022C559002EBC8
:102BB200E004F080B7E49002EBF0900398E0FF901D
:102BC20002EBE0FEC3EF6480F8EE648098400302FB
:102BD200305BE0FFFD3395E0FC74992DF5827403C0
:102BE2003CF583E0FEEF3395E0FC74F42DF582743E
:102BF200003CF583E06E60107FBB126CD79002EB55
:102C0200E0FF126CD702304A9002EBE004F080AA97
:102C1200E49002EBF09003A1E0FF9002EBE0FEC330
:102C2200EF6480F8EE648098400302305BE0FFFDC1
:102C32003395E0FC74A22DF58274033CF583E0FE2B
:102C4200EF3395E0FC74F42DF58274003CF583E0DB
:102C52006E600302304A9002EBE004F080B7E49029
:102C620002EBF09003AAE0FF9002EBE0FEC3EF64F8
:102C720080F8EE648098400302305BE0FFFD3395FC
:102C8200E0FC74AB2DF58274033CF583E0FEEF3378
:102C920095E0FC74F42DF58274003CF583E06E60DF
:102CA2000302304A9002EBE004F080B77F0022E496
:102CB2009002EBF09003BCE0FF9002EBE0FEC3EF6A
:102CC2006480F8EE648098400302305BE0FFFD33DD
:102CD20095E0FC74BD2DF58274033CF583E0FEEFB4
:102CE2003395E0FC74F42DF58274003CF583E06EBC
:102CF200600302304A9002EBE004F080B7E49002F5
:102D0200EBF09003C5E0FF9002EBE0FEC3EF6480BE
:102D1200F8EE648098400302305BE0FFFD3395E0FB
:102D2200FC74C62DF58274033CF583E0FEEF339507
:102D3200E0FC74F42DF58274003CF583E06E6003D0
:102D420002304A9002EBE004F080B7E49002EBF02C
:102D52009003CEE0FF9002EBE0FEC3EF6480F8EE5A
:102D6200648098400302305BE0FFFD3395E0FC7421
:102D7200CF2DF58274033CF583E0FEEF3395E0FC42
:102D820074F42DF58274003CF583E06E600302302A
:102D92004A9002EBE004F080B7E49002EBF090037B
:102DA200D7E0FF9002EBE0FEC3EF6480F8EE6480B0
:102DB20098400302305BE0FFFD3395E0FC74D82DB0
:102DC200F58274033CF583E0FEEF3395E0FC74F486
:102DD2002DF58274003CF583E06E600302304A9068
:102DE20002EBE004F080B7E49002EBF09003D9E04C
:102DF200FF9002EBE0FEC3EF6480F8EE648098403F
:102E02000302305BE0FFFD3395E0FC74DA2DF582BE
:102E120074033CF583E0FEEF3395E0FC74F42DF58A
:102E22008274003CF583E06E600302304A9002EB4C
:102E3200E004F080B7E49002EBF09003E2E0FF9050
:102E420002EBE0FEC3EF6480F8EE64809840030278
:102E5200305BE0FFFD3395E0FC74E32DF5827403F3
:102E62003CF583E0FEEF3395E0FC74F42DF58274BB
:102E7200003CF583E06E600302304A9002EBE0040E
:102E8200F080B7E49002EBF09003EBE0FF9002EBEE
:102E9200E0FEC3EF6480F8EE648098400302305B8A
:102EA200E0FFFD3395E0FC74EC2DF58274033CF5F4
:102EB20083E0FEEF3395E0FC74F42DF58274003C60
:102EC200F583E06E600302304A9002EBE004F0808A
:102ED200B7E49002EBF09003F4E0FF9002EBE0FE27
:102EE200C3EF6480F8EE648098400302305BE0FF39
:102EF200FD3395E0FC74F52DF58274033CF583E017
:102F0200FEEF3395E0FC74F42DF58274003CF583FA
:102F1200E06E600302304A9002EBE004F080B7E416
:102F22009002EBF09003FDE0FF9002EBE0FEC3EFB6
:102F32006480F8EE648098400302305BE0FFFD336A
:102F420095E0FC74FE2DF58274033CF583E0FEEF00
:102F52003395E0FC74F42DF58274003CF583E06E49
:102F6200600302304A9002EBE004F080B7E4900282
:102F7200EBF0900406E0FF9002EBE0FEC3EF64800A
:102F8200F8EE648098400302305BE0FFFD3395E089
:102F9200FC74072DF58274043CF583E0FEEF339553
:102FA200E0FC74F42DF58274003CF583E06E60035E
:102FB20002304A9002EBE004F080B7E49002EBF0BA
:102FC200900430E0FF9002EBE0FEC3EF6480F8EE85
:102FD200648098400302305BE0FFFD3395E0FC74AF
:102FE200312DF58274043CF583E0FEEF3395E0FC6D
:102FF20074F42DF58274003CF583E06E6002804823
:103002009002EBE004F080B8E49002EBF090043917
:10301200E0FF9002EBE0FEC3EF6480F8EE6480987C
:103022005037E0FFFD3395E0FC743A2DF5827404CD
:103032003CF583E0FEEF3395E0FC74F42DF58274E9
:10304200003CF583E06E60069002EAE0FF22900207
:0B305200EBE004F080B77F00227F005D
:01305D002250
:106C1C00E4F5957596FFC2A1C2A253E1EF43E210D1
:016C2C002245
:096C2D007F0F126C36D2FC7F0FC0
:076C3600AE071FEE70FA2209
:0268B500AB072F
:1068B7007A80C2A3EDB40104C2A48002D2A4EAD3B1
:1068C70094004011C2FCEA5B24FF92A7126C2DEAE8
:0E68D700C313FA80E9C2FCD2A7126C2DD2A323
:0168E5002290
:106B5E003EF583E5822DF582E43583F583E493FFDC
:056B6E00E4FD0268B522
:05000E007D010268B550
:1060F900E4FFFE90051BF0A3F00FBF00010EBE7573
:10610900F8BF30F57FAE12000E7FD512000E7F80EA
:1061190012000E7FA812000E7F2712000E7FD312E5
:10612900000EE4FF12000E7F4012000E7F8D120058
:106139000E7F1412000E7FA112000E7FC812000EEE
:106149007FDA12000E7F1212000E7F8112000E7F7D
:10615900AF12000E7FD912000E7F2512000E7FDBD1
:1061690012000E7F2012000E7FA412000E7FA612CD
:0A617900000E7FAF12000E02671146
:10671100E490051DF0A3F090051DE0FFC394055022
:1067210026E4A3F0126CC5E4FF1269F290051EE0A5
:10673100C39460500AE4FF126B6EE004F080ED90A8
:07674100051DE004F080D00B
:01674800222E
:0B62ED0090051DEBF0A3EAF0A3E9F020
:1062F800E4A3F0A3F0A3F0A3F0900520E0FFC3947B
:10630800055045E4A3F0126CC5E4FF1269F290054C
:1063180021E0C39460502990051DE0FBA3E0FAA397
:10632800E0F9900522E475F0011237B185F082F5A5
:10633800831236F5FF126B6E900521E004F080CED3
:08634800900520E004F080B193
:01635000222A
:096CC500EF540F44B0FF02000E71
:0869EA00FF126CC5E92408FF4F
:1069F200AC0774202CFC540FFF12000EAF04EFC43E
:086A0200540F4410FF02000EC6
:0B49C10090051DEBF0A3EAF0A3E9F065
:1049CC00E4A3F0A3F090051DE0FBA3E0FAA3E0F94B
:1049DC001236DC7003024CCB900520E0F9C3940C2A
:1049EC0050087F01126CC5E08014E9C39418400391
:1049FC00024CCB7F03126CC5900520E024F475F0BB
:104A0C0008A4FF1269F290051DE0FBA3E0FAA3E0F5
:104A1C00F91236DCFFC3648094B0404DD3EF648050
:104A2C0094B95045E4900521F0900521E0FDC39424
:104A3C00084003024B4E90051DE0FBA3E0FAA3E0F7
:104A4C00F91236DCFF3395E0FEEFC4F8540FC8685A
:104A5C00FFEEC454F048FE74892FF5827436126B45
:104A6C005E900521E004F080C090051DE0FBA3E002
:104A7C00FAA3E0F91236DCFFC3648094E1404DD315
:104A8C00EF648094FA5045E4900521F0900521E004
:104A9C00FDC394084003024B4E90051DE0FBA3E0C0
:104AAC00FAA3E0F91236DCFF3395E0FEEFC4F854BC
:104ABC000FC868FFEEC454F048FE74792FF5827469
:104ACC0034126B5E900521E004F080C090051DE06F
:104ADC00FBA3E0FAA3E0F91236DCFFC3648094C1B7
:104AEC00404AD3EF648094DA5042E4900521F09070
:104AFC000521E0FDC39408504990051DE0FBA3E09F
:104B0C00FAA3E0F91236DCFF3395E0FEEFC4F8545B
:104B1C000FC868FFEEC454F048FE74192FF5827468
:104B2C0038126B5E900521E004F080C3E4900521FF
:104B3C00F0E4FF126B6E900521E004F0E0C39408E2
:104B4C0040EF900520E0F9C3940C50087F02126CE2
:104B5C00C5E08014E9C394184003024CCB7F0412C7
:104B6C006CC5900520E024F475F008A4FF1269F2DE
:104B7C0090051DE0FBA3E0FAA3E0F91236DCFFC3BD
:104B8C00648094B0404DD3EF648094B95045E49068
:104B9C000521F0900521E0FDC394084003024CB8B8
:104BAC0090051DE0FBA3E0FAA3E0F91236DCFF331D
:104BBC0095E0FEEFC4F8540FC868FFEEC454F048FB
:104BCC00FE74912FF5827436126B5E900521E00411
:104BDC00F080C090051DE0FBA3E0FAA3E0F91236CB
:104BEC00DCFFC3648094E1404DD3EF648094FA50B1
:104BFC0045E4900521F0900521E0FDC394084003A5
:104C0C00024CB890051DE0FBA3E0FAA3E0F91236C4
:104C1C00DCFF3395E0FEEFC4F8540FC868FFEEC418
:104C2C0054F048FE74812FF5827434126B5E90053B
:104C3C0021E004F080C090051DE0FBA3E0FAA3E0A6
:104C4C00F91236DCFFC3648094C1404AD3EF648010
:104C5C0094DA5042E4900521F0900521E0FDC394D4
:104C6C0008504990051DE0FBA3E0FAA3E0F91236C9
:104C7C00DCFF3395E0FEEFC4F8540FC868FFEEC4B8
:104C8C0054F048FE74212FF5827438126B5E900537
:104C9C0021E004F080C3E4900521F0E4FF126B6E78
:104CAC00900521E004F0E0C3940840EF900520E06B
:0F4CBC0004F090051EE475F00112379B0249D1F8
:014CCB0022C6
:075C3200A905900577EFF0D2
:105C3900E4FCEBC4540FA3F0EB540FA3F0126CC5B2
:105C4900AF011269F2E4FC900578E0C454F02489AC
:105C5900F582E43439F583E5822C126B640CECB4DB
:105C690008E5900577E004FF126CC5AF011269F2EF
:105C7900E4FC900578E0C454F02491F582E43439C9
:105C8900F583E5822C126B640CECB408E59005777A
:105C9900E01269EAE4FCEC6407900579601BE0C452
:105CA90054F02489F582E43439F583E5822CF582B0
:105CB900E43583F583E493801BE0C454F02489F52B
:105CC90082E43439F583E5822CF582E43583F58362
:105CD900E4934401FF126B6E0CECB408B99005779C
:105CE900E0041269EAE4FC900579E0C454F02491D7
:105CF900F582E43439F583E5822C126B640CECB43B
:025D090008E5AB
:015D0B002275
:0B628100900568EBF0A3EAF0A3E9F041
:10628C00E4A3F0900568E0FBA3E0FAA3E0F9A3E037
:10629C00FFF5827583001236F5FB6044EFC394065C
:1062AC00500C90056BE0C454F0FD7F0180279005E5
:1062BC006BE0FFC3940C5028EF24FAC454F0FD900B
:1062CC000568E0FBA3E0FAA3E0F98F827583001266
:1062DC0036F5FB7F03125C3290056BE004F080A373
:0162EC00228F
:106A0A007401A807088002C333D8FCF59DE4F5BDDC
:0F6A1A00EF4488F5BC7F02126B31D2ADD2AF22B0
:03002B00025DD59E
:0D5DD500C0E0C0F0C083C082C0D075D0080F
:105DE200900526E4F0A3F0FFFEA3F0A3F0C2ADF508
:105DF200BC126C6B7F03126B1A900526E4F0A3EFC2
:105E0200F0126C6B7F03126B1A7E00900526E0FC89
:105E1200A3E0FDD39FEC9E401DED9FFBEC9EFAC3D9
:105E2200EB9423EA9400504EED2FFFEE3CC313FE99
:105E3200EF13FFA38030C3ED9FEC9E502C900526FC
:105E4200E0FCA3E0FDC3EF9DFDEE9CFCC3ED9423BB
:105E5200EC94005021E02FFF900526E03EC313FE94
:105E6200EF13FF900528EE8009900526E0FFA3E0DE
:085E7200A3CFF0A3EFF0D2ADC5
:0B5E7A00D0D0D082D083D0F0D0E03236
:106B1A00E4F5BDEF4488F5BC00000000E5BC30E4B4
:076B2A00FB75BC00AFBD22AA
:10698500AC07E412337F900560E0F8A3E0F9A3E0DB
:10699500FAA3E0FB123156E4FBFA79807843123210
:0269A5005F226F
:1068E600E4FDFCF5BDF5BEEF4488F5BC00000000F4
:1068F600E5BC30E4FB75BC00AFBDEF75F004A4FD4C
:09690600ACF0AFBEED4FAE04FF92
:01690F002265
:10005E00AD07AC06E412337A90055BE0F8A3E0F945
:10006E00A3E0FAA3E0FB123156E4FBFA7980784460
:04007E0012325F22B9
:106B3100AE071FEE60107C137D88ED1DAA04700165
:066B41001C4A60EC80F428
:016B4700222B
:0C6918004100F1004100F2004100F300DA
:10693700E5A2543FF5A253877F759850438E405385
:106947008EFE53890F438920758BFA758DFAC2AB7A
:07695700D28ED2ACD2AF22B8
:096CCE002009FDEFD209F599221D
:1067E90090057AEBF0A3EAF0A3E9F090057AE0FBD3
:1067F900A3E0FAA3E0F91236DC601790057AA3E466
:1068090075F0011237B1A9F0FA1236DCFF126CCE1D
:0368190080D92201
:0300230002665E14
:10665E00C0E0C0F0C083C082C0D075D00830981B97
:10666E00C2989002E8E475F0011237B1FE74F42579
:10667E00F0F58274003EF583E599F0309904C299E5
:0D668E00C209D0D0D082D083D0F0D0E0324D
:030043000266D77B
:1066D700C0E0C083C082C0D075D008E59A30E0170B
:1066E700539AFE9000F1E0FF04F074002FF582E466
:1066F7003400F583E59BF0E59A30E105539AFDC236
:0A6707000AD0D0D082D083D0E03257
:096CD700200AFDEFD20AF59B2210
:10681C0090057DEBF0A3EAF0A3E9F090057DE0FB99
:10682C00A3E0FAA3E0F91236DC601790057DA3E42F
:10683C0075F0011237B1A9F0FA1236DCFF126CD7E1
:03684C0080D922CE
:106AEA0053BAFE759A50438E0475D7C075D6FD43C6
:086AFA008E1075AF01D2AF222E
:106B48007E027FF49000F4E4F0A3DFFCDEFAE49028
:056B580002E8F0A3F0CB
:016B5D002215
:0F6C3D007F64900000E4F0A3DFFCE49000F1F02E
:016C4C002225
:106A670053BAFD75AC1043AC4043D10275D5C07520
:0B6A7700D4FD43D10843AF08D2AF228A
:03008B00026A9D69
:106A9D00C0E0E5AC30E00653ACFE85AD80E5AC3032
:0A6AAD00E10553ACFDC20BD0E0324E
:096CE000200BFDEFD20BF5AD22F3
:10684F00900580EBF0A3EAF0A3E9F0900580E0FB60
:10685F00A3E0FAA3E0F91236DC6017900580A3E4F9
:10686F0075F0011237B1A9F0FA1236DCFF126CE0A5
:03687F0080D9229B
:106A820043BA0475841043844043D12075D3D07532
:0B6A9200D2FF43D18043AF10D2AF22EF
:03009300026AB747
:106AB700C0E0E58430E0065384FE858580E58430B8
:0A6AC700E1055384FDC20CD0E0325B
:096CE900200CFDEFD20CF5852210
:1068820090051DEBF0A3EAF0A3E9F090051DE0FBF3
:10689200A3E0FAA3E0F91236DC601790051DA3E429
:1068A20075F0011237B1A9F0FA1236DCFF126CE969
:0368B20080D92268
:0D003600E4F5C7F5C5F5C675C380F5C42215
:106B020075C78175C5018FC4EEF5C375C65A75C6C2
:076B1200A500AFC21200361E
:016B19002259
:106AD10075C78175C5028FC4EEF5C3AF058FC27549
:096AE100C65A75C6A50002003674
:106B730075C78175C5038FC4EEF5C375C65A75C64F
:056B8300A50002003630
:105B4A00900539EEF0A3EFF090053DEBF0A3EAF0F3
:0B5B5A00A3E9F090053BECF0A3EDF098
:105B6500E4900540F0A3F0FFA3F0A3F0D3ED94205B
:105B7500EC9400400122900539E0FCA3E0FDEC54D3
:105B850001FEAF0590053CE02FFF90053BE03EFE92
:105B9500D3EF9420EE940040037F0022AF05AE04BE
:105BA500126B73E4900540F0A3F090053BE0FEA373
:105BB500E0FF900540E0FCA3E0FDC39FEC9E50672D
:105BC500900539E0FEA3E0FF90053DE0FBA3E0FA78
:105BD500A3E0F98D828C831236F5FD126AD190050A
:105BE50039E0FEA3E0FF126B0290053DE0FBA3E068
:105BF500FAA3E0F9A3E0FCA3E0F5828C831236F565
:105C05006F60061200367F002290053AE004F070BE
:105C150006900539E004F0900541E004F0708B90A2
:0C5C25000540E004F080831200367F018F
:015C31002250
:1053E90090052AEEF0A3EFF090052EEBF0A3EAF07A
:0B53F900A3E9F090052CECF0A3EDF010
:10540400E4900531F0A3F0A3F0A3F0A3F0A3F0A37C
:10541400F0A3F0D3ED9420EC940040037F0022909D
:10542400052AE0FCA3E0FDEC5401FEAF0590053332
:10543400F0A3EFF090052DE02FFF90052CE03EFE49
:10544400D3EF9420EE940040037F0022EC54FEFE40
:105454007F00900535F0A3EFF0A3EEF0A3EFF090FA
:105464000531F0A3F0900537E475F0011237B1AFC0
:10547400F0FE126B02900531A3E02423F8A607E0A6
:1054840004F07006900531E004F0C3900532E09416
:1054940020900531E0940040CCE4900531F0A3F075
:1054A40090052CE0FEA3E0FF900531E0FCA3E0FDB5
:1054B400C39FEC9E503490052EE0FBA3E0FAA3E0DA
:1054C400F98D828C831236F5FF900533E475F00173
:1054D4001237B1742325F0F8A607900532E004F0E2
:1054E4007006900531E004F080B6900535E0FEA327
:1054F400E0FF126B73900535E0FFA3E0A3CFF0A3A8
:10550400EFF0E4900531F0A3F0900531E0FCA3E066
:10551400FDC39420EC9400504C900537E0FEA3E0CA
:10552400FF74232DF8E6FD126AD190052AE0FEA34C
:10553400E0FF126B02900531A3E02423F8E66F60CC
:10554400061200367F0022900538E004F0700690C1
:105554000537E004F0900532E004F0700690053160
:0A556400E004F080A41200367F017D
:01556E00221A
:10678000E5A254CFF5A2E4F5D8F5E9F5F975D902FB
:10679000F5F275EA2075FA2075DA4275F34075EB6B
:1067A0002075FB2075DB4275F48075EC2075FC20AC
:0667B00075DC42D2DE227E
:1064FB00E4F5B4F5B343BA80F5F190FFF2F090FFF9
:10650B00F07403F0A374E8F090FF20E4F0A3F0FC28
:10651B00FDFE7BE87A03F9F81237C7E47B64FAF9DE
:10652B00F81265D790FF22EEF0A3EFF0A37408F0FA
:0B653B0043F50443F58053BA7F80FE57
:10654600E4F5CAF5C943BA80F5F190FFF2F090FF81
:10655600F07403F0A374E8F090FF30E4F0A3F0FCCD
:10656600FDFE7BE87A03F9F81237C7E47B64FAF993
:10657600F81265D790FF32EEF0A3EFF0A37408F09F
:0A65860043F50843F58053BA7F2265
:106A2900EF75F064A4FFAEF0C374109F90058DF06C
:0F6A390074279E90058CF0E490056CF0026BC200
:03009B00025F32CF
:105F3200C0E0C0F0C083C082C0D075D000C000C035
:105F420001C002C003C004C005C006C00790056CB2
:105F5200E0703890056FE0FF75F012A4F404F5D5F7
:105F6200E4FCFDFE7B12FAF9F81237C7C3E49FFF87
:105F7200E49EFE74019DFDE49CFC78081238248F97
:105F8200D4D2A090056C7401F0803590056DE0FFCD
:105F920075F012A4F404F5D5E4FCFDFE7B12FAF9C7
:105FA200F81237C7C3E49FFFE49EFE74019DFDE42F
:105FB2009CFC78081238248FD4C2A090056CE4F0BF
:105FC200D007D006D005D004D003D002D001D00033
:0B5FD200D0D0D082D083D0F0D0E032DD
:0A5A5D0090051EECF0A3EDF0AB077E
:105A6700A312384400000000E4900524F0A3F0EBF3
:105A770014601914602214603714602824047030ED
:105A870090052012384446900000802E9005201281
:105A97003844462CCC00802290052012384445AC6F
:105AA700C800801690052012384444ACC000800A14
:105AB700900520123844452CD000E4F594F5934323
:105AC700BA80F5F190FFF27403F0900520E0FCA393
:105AD700E0FDA3E0FEA3E0FF1233B390FFF0EEF08A
:105AE700A3EFF090FF50E4F0A3F0FBFA79C87842F7
:105AF700900520E0FCA3E0FDA3E0FEA3E0FF123247
:105B07005FC004C005C006C00790051EE0FCA3E007
:105B1700FDE412337AD003D002D001D000123156FF
:105B27001233B390FF52EEF0A3EFF0900524EEF09E
:105B3700A3EFF090FF547408F043F52043F580532A
:025B4700BA7F23
:015B49002239
:1064080090058EEEF0A3EFF0438E805389F090054F
:106418008EE0FEA3E0FFE4FCFD7B16FAF9F81237E4
:10642800C7EFF404F58A90058EE0FEA3E0FFE4FCD4
:10643800FD7B16FAF9F81237C7C3E49FFFE49EFE06
:1064480074019DFDE49CFC78081238248F8CC28D61
:03645800D28C22C1
:106BB000E5A254F34404F5A2E4F5CF75CDC075CE3B
:026BC000502261
:03004B00026D152E
:066D150075CDC0D29132E1
:0A69240042057000004205720000F9
:03000B0002645B31
:10645B00C0E0C083C082C0D0900571E004F070062C
:10646B00900570E004F0900573E004F07006900561
:10647B0072E004F0900570E07004A3E064FA70061B
:10648B00900570F0A3F0900572E0B40B0CA3E0B490
:10649B00B807900572E4F0A3F0D0D0D082D083D0AF
:0264AB00E032DD
:106B8800538E7F5389F0E4F58A758C70C28DD28C50
:056B9800D2A9D2AF22DA
:106BC20053D1FD75D501E4F5D443D10843AF20D2AA
:026BD200AF22F0
:0300030002002ACE
:01002A0032A3
:096CF200D2B2D288D2A8D2AF229E
:0300130002002EBA
:01002E00329F
:096CFB00D2B3C28AD2AAD2AF22A0
:0300530002002F79
:01002F00329E
:066D1B00438F10D2AF22ED
:03005B0002003070
:01003000329D
:066D2100438F20D2AF22D7
:0300830002003147
:01003100329C
:066D2700438F40D2AF22B1
:03003300020026A2
:040026005387DF32EB
:086D0D005387DFD2AED2AF22A2
:106BD4007D3C7C00E4FF125A5D126C6B53F5DFC2FE
:026BE400862207
:106BE6007D3C7C007F03125A5D126C9853F5DFC220
:026BF6008622F5
:106BF8007D3C7C007F03125A5D126C8953F5DFC21D
:026C08008622E2
:096D0400AD07AC067F04025A5DE4
:106C0A007D3C7C007F04125A5D126CA753F5DFC2EB
:026C1A008622D0
:066D2D008FAA75AB802265
:10669B0042415420256425200A20002055534220D6
:1066AB00636861726765200A002055534220206F92
:1066BB006666736574200A0000000000000000008D
:0C66CB00000000000000000000000000C3
:04692E004105170AFE
:1069A70053CBF143CC0E43CB0143CC01C2E9D2EA2E
:1069B700D2EBE4F5B375B401C2C1D2E9126CB6D219
:0269C700C122EB
:10584B00E490054CF0A312384400000000E49005EE
:10585B0051F0A3F07F041268E690054CE025E0249C
:10586B0003F582E43405F583EEF0A3EFF0120006A6
:10587B0090054CE004F0E0C3940A40D890050FE08B
:10588B00FEA3E0FF90050AE02FFF900509E03EFE26
:10589B00900516E02FFD900515E03EFCE412337ADF
:1058AB00A804A905AA06AB077F0A7ED77DA37C4473
:1058BB0012325FE4FBFA7940784012315690054D75
:1058CB0012383890054DE0FCA3E0FDA3E0FEA3E009
:1058DB00FF1233B37C007D64123734AC06AD07E4A2
:1058EB0012337AC004C005C006C007E4FFFE7DC8B2
:1058FB007C4290054DE0F8A3E0F9A3E0FAA3E0FBAE
:10590B00123156D003D002D001D0001230611233C5
:10591B00B3900551EEF0A3EFF090054CE0FFC3946C
:10592B000A5018EF25E02403F582E43405F583E4EF
:10593B00F0A3F090054CE004F080DEE4900517F046
:0E594B0090054DE0FCA3E0FDA3E0FEA3E0FF0D
:01595900222B
:105FDD0078D57C047D017BFF7A6679C37E007F14C2
:105FED001236B6E49004E9F012584B9004EA1238D8
:105FFD0038E4FFFEFDFC9004EAE0F8A3E0F9A3E02D
:10600D00FAA3E0FB1232FC6054E4FFFE7DC87C4233
:10601D009004EAE0F8A3E0F9A3E0FAA3E0FB123163
:10602D00567B667A667986784012325F1233B3906A
:10603D0004E9EFF090044574FFF0A37466F0A374C7
:10604D009BF0A3EFF07B017A0479D51241EE7B0131
:0F605D007A0479D51268829004E9E0FF227F006F
:01606C002211
:1056E1009004CB12384400000000E49004CFF0A3F2
:1056F100F012584B9004D11238389004D0E0C39482
:105701000A50247F051268E69004D0E025E024B514
:10571100F582E43404F583EEF0A3EFF01200069075
:1057210004D0E004F080D39004C1E0FEA3E0FF9038
:1057310004BCE02FFF9004BBE03EFE9004C8E02FC4
:10574100FF9004C7E03EFE7C007D031237469004C3
:10575100C9EEF0A3EFF0FDAC06E412337A9004D168
:10576100E0F8A3E0F9A3E0FAA3E0FB1231567BE7EE
:105771007AFB7979783F123156E4FBFA790378C4E0
:10578100123065E4FBFA79C8784012325F9004CB9D
:105791001238389004CBE0FCA3E0FDA3E0FEA3E0C7
:1057A100FF1233B37C007D64123734AC06AD07E4DD
:1057B10012337AC004C005C006C007E4FFFE7DC8ED
:1057C1007C429004CBE0F8A3E0F9A3E0FAA3E0FB6C
:1057D100123156D003D002D001D000123061123301
:1057E100B39004CFEFF0E4FFFE7DAA7C429004CB9E
:1057F100E0F8A3E0F9A3E0FAA3E0FB1232FC6004B5
:105801004002C2E97FEE126CE99004C9E0FF126C1C
:10581100E99004C9A3E0FF126CE97FEF126CE990F3
:1058210004CBE0FCA3E0FDA3E0FEA3E0FF1233B351
:10583100126CE99004CFE0FF126CE99004CBE0FC1C
:09584100A3E0FDA3E0FEA3E0FFDB
:01584A00223B
:106A48004393805394FE7BFF30870A7A6679A612B7
:0F6A580068827F01227A6679B41268827F0022F9
:104CCC004E4F203A20005331203A20005332203AE4
:104CDC0020005333203A20005334203A200053351F
:104CEC00203A2000204D41494E204D454E55200A7A
:104CFC00200020554846204D4F4445200020554863
:104D0C0046204D4F4445200A2000204254204D4F50
:104D1C0044452000204254204D4F4445200A200099
:104D2C002054455354204D4F4445200020544553A6
:104D3C0054204D4F4445200A2000204241545445F4
:104D4C005254204D4F44452000204241545445526A
:104D5C0059204D4F4445200A200020425A204D4FE7
:104D6C004445200020425A204D4F4445200A200043
:104D7C00204F4C45445F74696D696E672073657490
:104D8C002000204F4C45445F74696D696E67207339
:104D9C006574200A2000204F4C45445F425A207312
:104DAC0065742000204F4C45445F425A2073657453
:104DBC00200A2000202153797374656D5F506F7742
:104DCC0065725F5663635F4F4E5F4F4646200A2005
:104DDC00002055313420706F77657220676F6F64D7
:104DEC0020002055313420706F77657220676F6F0B
:104DFC0064200A20002055313420706F77657220B2
:104E0C004E47204F4350204F5450200020553134F2
:104E1C0020706F776572204E47204F4350204F54BF
:104E2C0050200A2000204E205653454C20002021B3
:104E3C005653454C200A2000204E20425950200049
:104E4C002021425950200A200020424154544552FE
:104E5C0059A1A14D4F444520494E200020424154B8
:104E6C0054455259A1A14D4F444520494E200A208A
:104E7C000020425A204D4F444520494E20002042EC
:104E8C005A204D4F444520494E200A2000204F4CBB
:104E9C004544206765742072656164696E6720748F
:104EAC00696D696E672000204F4C45445F74696DD5
:104EBC00696E67206765742072656164696E67202E
:104ECC0074696D696E67200A2000204F4C454420A0
:104EDC006765742077726974696E672074696D698F
:104EEC006E672000204F4C45445F74696D696E6796
:104EFC00206765742077726974696E672074696DB8
:104F0C00696E67200A2000204F4C45445F74696D20
:104F1C00696E672073657420494E2000204F4C4504
:104F2C00445F74696D696E672073657420494E2007
:104F3C000A2000204F4C45445F425A2075702000D7
:104F4C00204F4C45445F425A207570200A200020A7
:104F5C004F4C45445F425A20646F776E2000204FBF
:104F6C004C45445F425A20646F776E200A20002023
:104F7C004F4C45445F425A2073657420494E2000C3
:104F8C00204F4C45445F425A2073657420494E2093
:104F9C000A2000204E4F54205345542000204E4FE1
:094FAC005420534554200A200052
:04693200410590008B
:105E8500E490051BF0A3F0A3F07F03126B1A9005B5
:105E95001BEFF0C394CD40037F0022126C6B7F0390
:105EA500126B1A90051CEFF0126C6B7F03126B1AC4
:105EB50090051DEFF090051CE02FFFE433C313EFB1
:105EC5001390051BF0126C6B7F03126B1AEFD394C2
:105ED500CD4002800A7F03126B1A126CCE80E690C9
:105EE500051BE0C394125006126BD47F0122900566
:105EF5001BE0C3943B5006126BD47F022290051B16
:105F0500E0C394695006126BD47F032290051BE011
:105F1500C3949B5006126BD47F042290051BE0C3EB
:0C5F250094CD5006126BD47F05227F0043
:015F3100224D
:10524C00E4900583F0A3F0A3F07F03126B1A900592
:10525C0083EFF0C394CD4030126C6B7BFF7A4C79AA
:10526C00CC1267E97FFF126CCE900583E0FF126CC5
:10527C00CE7BFF7A4C79CC126882900583E0FF12CA
:10528C006CE953F5DF7F0022126CA77F03126B1AB7
:10529C00900584EFF0126C6B7F03126B1A900585EE
:1052AC00EFF0900584E02FFFE433C313EF13900568
:1052BC0083F0C3941250337BFF7A4C79D21267E996
:1052CC007FFF126CCE900583E0FF126CCE7BFF7AD1
:1052DC004C79D2126882900583E0FF126CE97D3C18
:1052EC007C007F01125A5D7F0122900583E0C394FC
:1052FC003B50337BFF7A4C79D81267E97FFF126CF5
:10530C00CE900583E0FF126CCE7BFF7A4C79D212E3
:10531C006882900583E0FF126CE97D3C7C007F0283
:10532C00125A5D7F0222900583E0C3946950337B4F
:10533C00FF7A4C79DE1267E97FFF126CCE90058301
:10534C00E0FF126CCE7BFF7A4C79DE1268829005FE
:10535C0083E0FF126CE97D3C7C007F03125A5D7F79
:10536C000322900583E0C3949B50337BFF7A4C79E6
:10537C00E41267E97FFF126CCE900583E0FF126C9C
:10538C00CE7BFF7A4C79DE126882900583E0FF12A7
:10539C006CE97D3C7C007F04125A5D7F04229005F1
:1053AC0083E0C394CD50337BFF7A4C79EA1267E9E2
:1053BC007FFF126CCE900583E0FF126CCE7BFF7AE0
:1053CC004C79DE126882900583E0FF126CE97D3C1B
:0C53DC007C00E4FF125A5D7F05227F0078
:0153E80022A2
:10460C0090051BE4F0A3EFF0900590E0123895466E
:10461C00430046790546AD0646ED0747320A477713
:10462C000B47BC0C47FE0D48490F48EA1448FF19CC
:10463C0049571E000049AB90051BE0FEA3E0FFEEBE
:10464C007016EF24FE70030249C01470030249C0B7
:10465C0024FE60028002806C1267117BFF7A3D7928
:10466C00C91262ED7BFF7A4C79F00249BD90051BB3
:10467C00E0FEA3E0FFEE7014EF24FD600D24FE704D
:10468C00030249C024037004807780301267117BC9
:10469C00FF7A4C79FE1249C17BFF7A4D79090249A8
:1046AC00BD90051BE0FEA3E0FFEE7020EF24FD6043
:1046BC001324FE70030249C02403701090059074FB
:1046CC000702482990059074050248291267117B4E
:1046DC00FF7A4D79161249C17BFF7A4D7920024938
:1046EC00BD90051BE0FEA3E0FFEE7025EF24FD60FE
:1046FC001024FE6014240370189005907405024871
:10470C00299005907406024829900590740A024875
:10471C00291267117BFF7A4D792C1249C17BFF7AE4
:10472C004D79380249BD90051BE0FEA3E0FFEE7009
:10473C0025EF24FD601024FE6014240370189005EE
:10474C0090740B024829900590740D02482990052D
:10475C0090740F0248291267117BFF7A4D7946122B
:10476C0049C17BFF7A4D79550249BD90051BE0FE8E
:10477C00A3E0FFEE7025EF24FD601024FE601424EE
:10478C00037018900590740C024829900590740AD7
:10479C0002482990059074140248291267117BFF76
:1047AC007A4D79661249C17BFF7A4D79700249BD09
:1047BC0090051BE0FEA3E0FFEE7022EF24FD600FDE
:1047CC0024FE601224037015900590740D804E9099
:1047DC000590740B804790059074198040126711F6
:1047EC007BFF7A4D797C1249C17BFF7A4D798E0221
:1047FC0049BD90051BE0FEA3E0FFEE702BEF24FDFE
:10480C00600F24FE60122403701E900590740A80C1
:10481C000C900590740C8005900590741EF0E4903B
:10482C00051BF0A3F00246141267117BFF7A4D7939
:10483C00A21249C17BFF7A4D79B00249BD90051B8C
:10484C00E0FEA3E0FFEE60030248D5EF24FD6049D3
:10485C0024FE605D240370717BFF7A4D79C0126871
:10486C0082B2E920E9030249C0126CB630E8151295
:10487C0067117BFF7A4D79DD1249C17BFF7A4D7947
:10488C00EE0249BD1267117BFF7A4E79011249C1C4
:10489C007BFF7A4E79180249BD1267117BFF7A4E65
:1048AC0079311249C17BFF7A4E793A126882B2EAA9
:1048BC00221267117BFF7A4E79441249C17BFF7A31
:1048CC004E794C126882B2EB221267117BFF7A4E42
:1048DC0079551249C17BFF7A4E79680249BD12673E
:1048EC00117BFF7A4E797D1249C17BFF7A4E798A12
:1048FC000249BD90051BE0FEA3E0FFEE7039EF24EA
:10490C00FD602024FE70030249C024037029126745
:10491C00117BFF7A4E79991249C17BFF7A4E79B39C
:10492C000249BD1267117BFF7A4E79D61249C17BC1
:10493C00FF7A4E79F0807A1267117BFF7A4F7913E8
:10494C001249C17BFF7A4F7928806690051BE0FEE7
:10495C00A3E0FFEE7035EF24FD601C24FE605524AF
:10496C000370281267117BFF7A4F793F1249C17B84
:10497C00FF7A4F794C803A1267117BFF7A4F795B43
:10498C001249C17BFF7A4F796A80261267117BFF2F
:10499C007A4F797B1249C17BFF7A4F798C80121246
:1049AC0067117BFF7A4F799F1249C17BFF7A4F7950
:0449BC00A912688252
:0149C00022D4
:1039890000E010080810E000000F102020100F00C0
:1039990000001010F8000000000020203F20200047
:1039A900007008080808F00000302824222130009F
:1039B90000300808088870000018202121221C0006
:1039C9000000804030F8000000060524243F24242C
:1039D90000F88888880808000019202020110E00A6
:1039E90000E0108888900000000F112020201F009F
:1039F90000180808886818000000003E010000004F
:103A09000070880808887000001C222121221C00EF
:103A190000F008080810E0000001122222110F002E
:103A29000000C038E0000000203C230202273820B3
:103A390008F8888888700000203F202020110E0097
:103A4900C03008080808380007182020201008008E
:103A590008F808080810E000203F202020100F0077
:103A690008F88888E8081000203F20202320180043
:103A790008F88888E8081000203F200003000000AB
:103A8900000080808000000000192424123F2000DB
:103A990010F0008080000000003F112020110E006E
:103AA9000000008080800000000E112020201100FD
:103AB900000080808090F000001F202020103F200F
:103AC9000000808080800000001F24242424170027
:103AD900008080E0909020000020203F20200000FE
:103AE9000000808080808000006B94949493600033
:103AF90010F0008080800000203F210000203F203E
:103B090000809898000000000020203F202000003D
:103B1900000000809898000000C08080807F00002D
:103B290010F0000080808000203F2406293020000A
:103B3900001010F8000000000020203F20200000A5
:103B49008080808080808000203F20003F20003FCF
:103B59008080008080800000203F210000203F20DD
:103B69000000808080800000001F202020201F008E
:103B7900808000808000000080FF912020110E00CD
:103B89000000008080008000000E11202091FF803D
:103B9900808080008080800020203F21200001005B
:103BA90000008080808080000033242424241900B0
:103BB900008080E0808000000000001F20201000AD
:103BC9008080000000808000001F202020103F20FE
:103BD900808080008080800000030C300C0300008E
:103BE9008080008080008080010E300C073806013B
