:03000000024AE7CA
:0C4AE700787FE4F6D8FD758141024B2E6B
:1051E000E490069DF012515212525C7F091255074D
:1051F00012544E12491E90069DEFF060F3B2E98002
:01520000EFBE
:0900360012543F12543FC284220F
:054B73009006FCEFF0CC
:104B7800E4A3F0A3F01254107F011254B17FFC1289
:104B880054B17F011254B17F011254B19006FCE078
:104B9800FF1254B11254309002F4E070037FFF22E8
:104BA8009002F4E0FF9006FDE0FCA3E0FDC39F74D3
:104BB80080F8EC648098501F74E02DF58274023CF4
:104BC800F583E0FF1254A89006FEE004F070D1903F
:104BD80006FDE004F080C99002E2E0B401037F0121
:034BE800227FFF2A
:014BEB0022A7
:104FFC001254107F011254B17FFC1254B17F021273
:10500C0054B1E4FF1254B11254309002F4E0640530
:10501C0060037FFF229002E3E0B40104A3E0FF22CF
:03502C007FFF22E1
:0C0006007F547EF77D18DDFEDEFCDFFA83
:0100120022CB
:0E54300000007F027EAF7D4BDDFEDEFCDFFA6A
:01543E00224B
:0E543F0000007F0D7E9C7D53DDFEDEFCDFFA5B
:01544D00223C
:0E544E0000007F017ED87D23DDFEDEFCDFFA4C
:01545C00222D
:0E545D0000007F2B7E067DCBDDFEDEFCDFFA3D
:01546B00221E
:0E546C0000007FFD7E237DDCDDFEDEFCDFFA2E
:01547A00220F
:0E547B0000007F117ED07D1BDDFEDEFCDFFA1F
:015489002200
:0E548A0000007F057E347DC3DDFEDEFCDFFA10
:0154980022F1
:040026007F0EDFFE6C
:01002A0022B3
:0E54990000007F097E687D8BDDFEDEFCDFFA01
:0154A70022E2
:104125004E4F5420205265616420434D440A0020BF
:10413500696E64795F7265616474656D702073740E
:10414500617274200D0A0020696E64795F72656181
:104155006474656D7020656E64200D0A0024034942
:10416500006D00700069006E006A00530065007202
:1041750000690061006C004E0075006D0030003173
:10418500004003BFFCBFFCBFFC0000010012002182
:104195000000001000000000000000050000000005
:1041A50000000006000000000000001000000000F4
:1041B500000000110088E1F3C000000000F00006D7
:1041C50002000001001200210000000200A000A072
:1041D50002000000030000000000000200A000A093
:1041E500020000611B02060000000005000000003F
:1041F50000000002070100000000000500000000AB
:1042050000000004070000000000000507D00700BB
:104215000000000607DC0000000000070700200082
:10422500000000120BFFFF0F00000005000000005A
:10423500000000000500000000000000050000006F
:10424500000000000600000000000000050000005E
:10425500000000000500000000000000060000004E
:104265000000010000000200000027000000872E6A
:104275000D0001000100020000008F2E0D0000005E
:10428500000000000500000000000000060000001E
:02429500000027
:08369300410665FF41066600D7
:0B4C5D007B027F047A00E4FDFC7E0A6D
:104C68009006D8EEF0A3EFF0A3ECF0A3EDF0A3EAE2
:104C7800F0A3EBF07F011254A8E4FF1254A89006A9
:104C8800D8A3E0FF1254A89006D8E0FF1254A890C9
:104C980006DCA3E0FF1254A89006DCE0FF1254A83B
:104CA8009006DAA3E0FF1254A89006DAE0FF025457
:014CB800A853
:104F8F0090070EEEF0A3EFF0E4FF1254A8E4FF1227
:104F9F0054A890070EA3E0FF1254A890070EE0FF4D
:104FAF001254A8E4FF1254A8E4FF1254A8E4FF120D
:074FBF0054A8E4FF0254A80E
:1043CB00E4FF900645E0900668F0E4900667F090F5
:1043DB000667E0FEFD3395E0FC74462DF58274060E
:1043EB003CF583E0FDEEFB3395E0FA74692BF58227
:1043FB0074063AF583EDF0900667E004F0E0B40C38
:10440B00CEE4900667F0900667E0FEFD3395E0FC86
:10441B0074522DF58274063CF583E0FDEEFB33956B
:10442B00E0FA74752BF58274063AF583EDF090067D
:10443B0067E004F0E0B402CE900667740FF09006CC
:10444B0067E0FEC3648094A0501AEEFD3395E0FC48
:10445B0074682DF58274063CF583E4F0900667E0F2
:10446B0004F080DAE4900667F0900667E0FEC36420
:10447B008094A0501BEEFD3395E0FC74682DF58203
:10448B0074063CF583E02FFF900667E004F080D9BB
:10449B00EF900687F0E4900667F0900667E0FFC3A5
:1044AB00648094A0501CEF3395E0FE74682FF58266
:1044BB0074063EF583E0FF1254B1900667E004F0FA
:0244CB0080D897
:0144CD0022CC
:104CB900E4900645F0FFEFFD3395E0FC74462DF5D1
:104CC9008274063CF583E4F00FEFB40CE9E4FFEFDE
:104CD900FD3395E0FC74522DF58274063CF583E4AE
:104CE900F00FEFB402E9E4FFC3EF6480948050153C
:104CF900EFFD3395E0FC74542DF58274063CF58381
:0A4D0900E4F00F80E3E4900664F08C
:014D1300227D
:1039940090068A7401F0E4A3F0A3F074FFA3F0A3EB
:1039A400F0E4A3F0A3F0A3F0A3F0A3F0A3F0A3F03A
:1039B400A3F0A3F0A3F0A3F0A37412F0E4A3F0C265
:1039C40008C209A3F090068FE0FEA3E024F7F58275
:1039D40074023EF583E064016003023C2A90068F82
:1039E400A3E0FF24F8F58274023EF583E090069C80
:1039F400F074FA2FF58274023EF583E0FE90068F90
:103A0400E0FCA3E0FD24F9F58274023CF583E07A3E
:103A1400002400FFEA3E90068DF0A3EFF074FC2D25
:103A2400F58274023CF583E0FE90068FA3E024FB4C
:103A3400F58274023CF583E02400FFEA3E90068B95
:103A4400F0A3EFF0ED2408FFE43C900691F0FCA312
:103A5400EFF0FD90068BE0FAA3E0FBAE027802C320
:103A640033CE33CED8F92DFFEE3C900693F0A3EF7E
:103A7400F0EB2402FFE43AFEEF7802C333CE33CEF8
:103A8400D8F9FF900690E02FF090068FE03EF0907A
:103A9400068DE07004A3E064057061900692E02452
:103AA4000EFE900691E03400900695F0A3CEF0E46B
:103AB400900688F0A3F0900688E0FEA3E0FF90064D
:103AC40096E02FFD900695E03EFC74F72DF5827488
:103AD400023CF583E0FD74462FF582E43406F58359
:103AE400EDF0900689E004F07006900688E004F09A
:103AF400900688E07004A3E0640C70BA90068DE030
:103B04007004A3E0640660030239C990069CE06077
:103B140003023C2A900691E0FEA3E0FF24FBF58219
:103B240074023EF583E064C26003023C1EEF240C81
:103B3400FFE43E900697F0A3EFF0900645E024FEE4
:103B4400605C147003023BF124026003023C14E441
:103B5400900688F0A3F0900688E0FEA3E0FF9006AC
:103B640098E02FFD900697E03EFC74F72DF58274E3
:103B7400023CF583E0FD74522FF582E43406F583AC
:103B8400EDF0900689E004F07006900688E004F0F9
:103B9400900688E07004A3E0640270BA8069E4903F
:103BA4000688F0A3F0900688E0FEA3E0FF90069854
:103BB400E02FFD900697E03EFC74F72DF582740229
:103BC4003CF583E0FD74522FF582E43406F583ED71
:103BD400F0900689E004F07006900688E004F09006
:103BE4000688E07004A3E0640270BA801AE49006C8
:103BF40052F0900697E0FEA3E024F8F58274023EAA
:103C0400F583E0900653F0900666E004F00239C9AB
:103C1400E4900665F0A3F00239C97BFF7A41792567
:063C24001250620239C9D2
:013C2A002277
:104E4A00E4900710F0A3F0FBFAFDFC7F027E0A1241
:104E5A004C687B0C7F03124C61124C5DE4FBFAFD3B
:104E6A00FC7F067E0A124C687B107A00E4FDFCFF88
:104E7A007EF0124C681200069002F7E0B40107C2F5
:064E8A00AC123994D2AC19
:014E900022FF
:104D6700E4900712F0A3F0FBFAFDFC7F027E0A1223
:104D77004C687B0D7A00E4FDFC7F037E0A124C68C9
:104D8700124C5DE4FBFAFDFC7F067E0A124C687B41
:104D9700087A00E4FDFCFF7EF0124C6812000690D2
:0D4DA70002F7E0B40107C2AC123994D2AC9F
:014DB40022DC
:1047A500E49006F4F0A3F07BFF7A4179341250626D
:1047B500E4FBFAFDFC7F027E0A124C687B0E7A0050
:1047C500E4FDFC7F037E0A124C68124C5DE4FBFAA3
:1047D500FDFC7F067E0A124C687B077A00E4FDFC2F
:1047E500FF7EF0124C6812533B1200069004EBA3B7
:1047F500E0FF1254B19004EBE0FFA3E09006F4CF84
:10480500F0A3EFF07F551254B19006F4A3E0FF1228
:1048150054B1E49006F6F0A3F09006F4E0FEA3E0B0
:10482500FFA3E0FCA3E0FDC39FEE6480F8EC648089
:1048350098501F74F72DF58274023CF583E0FF1242
:1048450054B19006F7E004F070069006F6E004F027
:1048550080C79002F7E0B40107C2AC123994D2AC1C
:094865007BFF7A41794C0250629C
:104ED500E4FF9002E0E060379002F4E0C3940850EC
:104EE50003E4FE22E4FEEEFD3395E0FC74E02DF5CF
:104EF5008274023CF583E02FFF0EEEB407E89002C2
:104F0500E7E0B507057E007F01221254108000E41A
:024F1500FEFF9D
:014F17002277
:10009600EF14B4220040030223349000AE75F0033F
:1000A600A4C58325F0C5837302011402011D020154
:1000B6002602012802012A0203A102012D02013BA8
:1000C600020149020157020165020173020187021A
:1000D600019B0201AF0201EB0201FF020263020271
:1000E6007702028B02029F0202B30202C702233486
:1000F60002030302033F0203A102035302038E021B
:1001060003A10203B40203CC0203A10203F47FC0DD
:100116001254A87F0680337F401254A87F03802A9A
:10012600802F800302033FE4FF1254A8E4FF125419
:10013600A87F108058E4FF1254A8E4FF1254A87F49
:1001460011804AE4FF1254A8E4FF1254A8E4FF8089
:100156003CE4FF1254A8E4FF1254A87F01802EE469
:10016600FF1254A8E4FF1254A87F028020E4FF1275
:1001760054A8E4FF1254A8E4FF1254A87F03020314
:10018600DDE4FF1254A8E4FF1254A87F021254A81B
:10019600E4FF0203DDE4FF1254A8E4FF1254A87F33
:1001A600611254A87F1B0203DD7F011254A8E4FFED
:1001B6001254A87F011254A87F071254A8E4FF1214
:1001C60054A8E4FF1254A8E4FF1254A8E4FF125402
:1001D600A8E4FF1254A8E4FF1254A87F051254A8FD
:1001E600E4FF0203DDE4FF1254A8E4FF1254A87FE3
:1001F600021254A87F070203DD7F011254A8E4FF10
:100206001254A87F021254A87F071254A87F011225
:1002160054A8E4FF1254A8E4FF1254A8E4FF1254B1
:10022600A87F011254A8E4FF1254A87F011254A813
:100236007F071254A8E4FF1254A8E4FF1254A8E45E
:10024600FF1254A8E4FF1254A8E4FF1254A8E4FFD6
:100256001254A87F051254A8E4FF0203DDE4FF123E
:1002660054A8E4FF1254A87F041254A87F0702037F
:10027600DDE4FF1254A8E4FF1254A87F051254A827
:100286007F070203DDE4FF1254A8E4FF1254A87F9F
:10029600061254A87F070203DDE4FF1254A8E4FF08
:1002A6001254A87F071254A87F070203DDE4FF1249
:1002B60054A8E4FF1254A87F121254A87F0B02031D
:1002C600DD7F011254A8E4FF1254A87F011254A83E
:1002D6007F071254A8E4FF1254A8E4FF1254A8E4BE
:1002E600FF1254A8E4FF1254A8E4FF1254A8E4FF36
:1002F6001254A87F051254A8E4FF0203DD7F011201
:1003060054A8E4FF1254A87F0A1254A87F0112547D
:10031600A87FF81254A87F591254A87F0D1254A82A
:10032600E4FF1254A8E4FF1254A8E4FF1254A87F75
:10033600051254A8E4FF0203DDE4FF1254A8E4FF0B
:100346001254A87F051254A8E4FF0203DD7F0112B0
:1003560054A8E4FF1254A87F081254A87F0112542F
:10036600A87F011254A87F011254A8E4FF1254A8D2
:10037600E4FF1254A8E4FF1254A8E4FF1254A87F25
:10038600051254A8E4FF804FE4FF1254A8E4FF12BC
:1003960054A87F051254A8E4FF803CE4FF1254A839
:1003A600E4FF1254A87F061254A8E4FF80297F01B7
:1003B6001254A8E4FF1254A8E4FF1254A87FF012C6
:1003C60054A87F278016E4FF1254A8E4FF1254A80D
:1003D6007F051254A8E4FF1254A8E4FF1254A8E4BF
:1003E600FF1254A8E4FF1254A8E4FF0223317F0150
:1003F6001254A8E4FF1254A87F011254A87F0C12CD
:1004060054A8E4FF1254A8E4FF1254A8E4FF1254BF
:10041600A8E4FF1254A87F011254A8E4FF1254A8BE
:100426007F021254A87F0C1254A87F011254A8E42C
:10043600FF1254A8E4FF1254A8E4FF1254A87F0147
:100446001254A8E4FF1254A87F031254A87F0C127A
:1004560054A87F701254A87F0D1254A87F18125406
:10046600A8E4FF1254A87F011254A8E4FF1254A86E
:100476007F041254A87F0C1254A8E4FF1254A87FDC
:10048600011254A87F071254A87F141254A87F01A2
:100496001254A8E4FF1254A87F011254A87F0C122C
:1004A60054A87F011254A8E4FF1254A8E4FF125482
:1004B600A8E4FF1254A87F011254A8E4FF1254A81E
:1004C6007F021254A87F0C1254A87F011254A8E48C
:1004D600FF1254A8E4FF1254A8E4FF1254A87F01A7
:1004E6001254A8E4FF1254A87F031254A87F0C12DA
:1004F60054A87F841254A87F0D1254A87F18125452
:10050600A8E4FF1254A87F011254A8E4FF1254A8CD
:100516007F041254A87F0C1254A8E4FF1254A87F3B
:10052600011254A87F071254A87F141254A87F0101
:100536001254A8E4FF1254A87F011254A87F0C128B
:1005460054A87F021254A8E4FF1254A8E4FF1254E0
:10055600A8E4FF1254A87F011254A8E4FF1254A87D
:100566007F021254A87F0C1254A87F011254A8E4EB
:10057600FF1254A8E4FF1254A8E4FF1254A87F0106
:100586001254A8E4FF1254A87F031254A87F0C1239
:1005960054A87F981254A87F0D1254A87F1812549D
:1005A600A8E4FF1254A87F011254A8E4FF1254A82D
:1005B6007F041254A87F0C1254A8E4FF1254A87F9B
:1005C600011254A87F071254A87F141254A87F0161
:1005D6001254A8E4FF1254A87F011254A87F0C12EB
:1005E60054A87F031254A8E4FF1254A8E4FF12543F
:1005F600A8E4FF1254A87F011254A8E4FF1254A8DD
:100606007F021254A87F0C1254A87F011254A8E44A
:10061600FF1254A8E4FF1254A8E4FF1254A87F0165
:100626001254A8E4FF1254A87F031254A87F0C1298
:1006360054A87FAC1254A87F0D1254A87F181254E8
:10064600A8E4FF1254A87F011254A8E4FF1254A88C
:100656007F041254A87F0C1254A8E4FF1254A87FFA
:10066600011254A87F071254A87F141254A87F01C0
:100676001254A8E4FF1254A87F011254A87F0C124A
:1006860054A87F041254A8E4FF1254A8E4FF12549D
:10069600A8E4FF1254A87F011254A8E4FF1254A83C
:1006A6007F021254A87F0C1254A87F011254A8E4AA
:1006B600FF1254A8E4FF1254A8E4FF1254A87F01C5
:1006C6001254A8E4FF1254A87F031254A87F0C12F8
:1006D60054A87FC01254A87F0D1254A87F18125434
:1006E600A8E4FF1254A87F011254A8E4FF1254A8EC
:1006F6007F041254A87F0C1254A8E4FF1254A87F5A
:10070600011254A87F071254A87F141254A87F011F
:100716001254A8E4FF1254A87F011254A87F0C12A9
:1007260054A87F051254A8E4FF1254A8E4FF1254FB
:10073600A8E4FF1254A87F011254A8E4FF1254A89B
:100746007F021254A87F0C1254A87F011254A8E409
:10075600FF1254A8E4FF1254A8E4FF1254A87F0124
:100766001254A8E4FF1254A87F031254A87F0C1257
:1007760054A87FD41254A87F0D1254A87F1812547F
:10078600A8E4FF1254A87F011254A8E4FF1254A84B
:100796007F041254A87F0C1254A8E4FF1254A87FB9
:1007A600011254A87F071254A87F141254A87F017F
:1007B6001254A8E4FF1254A87F011254A87F0C1209
:1007C60054A87F061254A8E4FF1254A8E4FF12545A
:1007D600A8E4FF1254A87F011254A8E4FF1254A8FB
:1007E6007F021254A87F0C1254A87F011254A8E469
:1007F600FF1254A8E4FF1254A8E4FF1254A87F0184
:100806001254A8E4FF1254A87F031254A87F0C12B6
:1008160054A87FE81254A87F0D1254A87F181254CA
:10082600A8E4FF1254A87F011254A8E4FF1254A8AA
:100836007F041254A87F0C1254A8E4FF1254A87F18
:10084600011254A87F071254A87F141254A87F01DE
:100856001254A8E4FF1254A87F011254A87F0C1268
:1008660054A87F071254A8E4FF1254A8E4FF1254B8
:10087600A8E4FF1254A87F011254A8E4FF1254A85A
:100886007F021254A87F0C1254A87F011254A8E4C8
:10089600FF1254A8E4FF1254A8E4FF1254A87F01E3
:1008A6001254A8E4FF1254A87F031254A87F0C1216
:1008B60054A87FFC1254A87F0D1254A87F18125416
:1008C600A8E4FF1254A87F011254A8E4FF1254A80A
:1008D6007F041254A87F0C1254A8E4FF1254A87F78
:1008E600011254A87F071254A87F141254A87F013E
:1008F6001254A8E4FF1254A87F011254A87F0C12C8
:1009060054A87F081254A8E4FF1254A8E4FF125416
:10091600A8E4FF1254A87F011254A8E4FF1254A8B9
:100926007F021254A87F0C1254A87F011254A8E427
:10093600FF1254A8E4FF1254A8E4FF1254A87F0142
:100946001254A8E4FF1254A87F031254A87F0C1275
:1009560054A87F101254A87F0E1254A87F18125460
:10096600A8E4FF1254A87F011254A8E4FF1254A869
:100976007F041254A87F0C1254A8E4FF1254A87FD7
:10098600011254A87F071254A87F141254A87F019D
:100996001254A8E4FF1254A87F011254A87F0C1227
:1009A60054A87F091254A8E4FF1254A8E4FF125475
:1009B600A8E4FF1254A87F011254A8E4FF1254A819
:1009C6007F021254A87F0C1254A87F011254A8E487
:1009D600FF1254A8E4FF1254A8E4FF1254A87F01A2
:1009E6001254A8E4FF1254A87F031254A87F0C12D5
:1009F60054A87F241254A87F0E1254A87F181254AC
:100A0600A8E4FF1254A87F011254A8E4FF1254A8C8
:100A16007F041254A87F0C1254A8E4FF1254A87F36
:100A2600011254A87F071254A87F141254A87F01FC
:100A36001254A8E4FF1254A87F011254A87F0C1286
:100A460054A87F0A1254A8E4FF1254A8E4FF1254D3
:100A5600A8E4FF1254A87F011254A8E4FF1254A878
:100A66007F021254A87F0C1254A87F011254A8E4E6
:100A7600FF1254A8E4FF1254A8E4FF1254A87F0101
:100A86001254A8E4FF1254A87F031254A87F0C1234
:100A960054A87F381254A87F0E1254A87F181254F7
:100AA600A8E4FF1254A87F011254A8E4FF1254A828
:100AB6007F041254A87F0C1254A8E4FF1254A87F96
:100AC600011254A87F071254A87F141254A87F015C
:100AD6001254A8E4FF1254A87F011254A87F0C12E6
:100AE60054A87F0B1254A8E4FF1254A8E4FF125432
:100AF600A8E4FF1254A87F011254A8E4FF1254A8D8
:100B06007F021254A87F0C1254A87F011254A8E445
:100B1600FF1254A8E4FF1254A8E4FF1254A87F0160
:100B26001254A8E4FF1254A87F031254A87F0C1293
:100B360054A87F4C1254A87F0E1254A87F18125442
:100B4600A8E4FF1254A87F011254A8E4FF1254A887
:100B56007F041254A87F0C1254A8E4FF1254A87FF5
:100B6600011254A87F071254A87F141254A87F01BB
:100B76001254A8E4FF1254A87F011254A87F0C1245
:100B860054A87F0C1254A8E4FF1254A8E4FF125490
:100B9600A8E4FF1254A87F011254A8E4FF1254A837
:100BA6007F021254A87F0C1254A87F011254A8E4A5
:100BB600FF1254A8E4FF1254A8E4FF1254A87F01C0
:100BC6001254A8E4FF1254A87F031254A87F0C12F3
:100BD60054A87F601254A87F0E1254A87F1812548E
:100BE600A8E4FF1254A87F011254A8E4FF1254A8E7
:100BF6007F041254A87F0C1254A8E4FF1254A87F55
:100C0600011254A87F071254A87F141254A87F011A
:100C16001254A8E4FF1254A87F011254A87F0C12A4
:100C260054A87F0D1254A8E4FF1254A8E4FF1254EE
:100C3600A8E4FF1254A87F011254A8E4FF1254A896
:100C46007F021254A87F0C1254A8E4FF1254A8E4A1
:100C5600FF1254A8E4FF1254A8E4FF1254A87F011F
:100C66001254A8E4FF1254A87F031254A87F0C1252
:100C760054A87F601254A87F0E1254A87F181254ED
:100C8600A8E4FF1254A87F011254A8E4FF1254A846
:100C96007F041254A87F0C1254A8E4FF1254A87FB4
:100CA600011254A87F071254A87F141254A87F017A
:100CB6001254A8E4FF1254A87F011254A87F0C1204
:100CC60054A87F0E1254A8E4FF1254A8E4FF12544D
:100CD600A8E4FF1254A87F011254A8E4FF1254A8F6
:100CE6007F021254A87F0C1254A8E4FF1254A8E401
:100CF600FF1254A8E4FF1254A8E4FF1254A87F017F
:100D06001254A8E4FF1254A87F031254A87F0C12B1
:100D160054A87F601254A87F0E1254A87F1812544C
:100D2600A8E4FF1254A87F011254A8E4FF1254A8A5
:100D36007F041254A87F0C1254A8E4FF1254A87F13
:100D4600011254A87F071254A87F141254A87F01D9
:100D56001254A8E4FF1254A87F011254A87F0C1263
:100D660054A87F0F1254A8E4FF1254A8E4FF1254AB
:100D7600A8E4FF1254A87F011254A8E4FF1254A855
:100D86007F021254A87F0C1254A8E4FF1254A8E460
:100D9600FF1254A8E4FF1254A8E4FF1254A87F01DE
:100DA6001254A8E4FF1254A87F031254A87F0C1211
:100DB60054A87F601254A87F0E1254A87F181254AC
:100DC600A8E4FF1254A87F011254A8E4FF1254A805
:100DD6007F041254A87F0C1254A8E4FF1254A87F73
:100DE600011254A87F071254A87F141254A87F0139
:100DF6001254A8E4FF1254A87F011254A87F0C12C3
:100E060054A87F101254A8E4FF1254A8E4FF125409
:100E1600A8E4FF1254A87F011254A8E4FF1254A8B4
:100E26007F021254A87F0C1254A8E4FF1254A8E4BF
:100E3600FF1254A8E4FF1254A8E4FF1254A87F013D
:100E46001254A8E4FF1254A87F031254A87F0C1270
:100E560054A87F601254A87F0E1254A87F1812540B
:100E6600A8E4FF1254A87F011254A8E4FF1254A864
:100E76007F041254A87F0C1254A8E4FF1254A87FD2
:100E8600011254A87F071254A87F141254A87F0198
:100E96001254A8E4FF1254A87F011254A87F0C1222
:100EA60054A87F111254A8E4FF1254A8E4FF125468
:100EB600A8E4FF1254A87F011254A8E4FF1254A814
:100EC6007F021254A87F0C1254A8E4FF1254A8E41F
:100ED600FF1254A8E4FF1254A8E4FF1254A87F019D
:100EE6001254A8E4FF1254A87F031254A87F0C12D0
:100EF60054A87F601254A87F0E1254A87F1812546B
:100F0600A8E4FF1254A87F011254A8E4FF1254A8C3
:100F16007F041254A87F0C1254A8E4FF1254A87F31
:100F2600011254A87F071254A87F141254A87F01F7
:100F36001254A8E4FF1254A87F011254A87F0C1281
:100F460054A87F121254A8E4FF1254A8E4FF1254C6
:100F5600A8E4FF1254A87F011254A8E4FF1254A873
:100F66007F021254A87F0C1254A8E4FF1254A8E47E
:100F7600FF1254A8E4FF1254A8E4FF1254A87F01FC
:100F86001254A8E4FF1254A87F031254A87F0C122F
:100F960054A87F601254A87F0E1254A87F181254CA
:100FA600A8E4FF1254A87F011254A8E4FF1254A823
:100FB6007F041254A87F0C1254A8E4FF1254A87F91
:100FC600011254A87F071254A87F141254A87F0157
:100FD6001254A8E4FF1254A87F011254A87F0C12E1
:100FE60054A87F131254A8E4FF1254A8E4FF125425
:100FF600A8E4FF1254A87F011254A8E4FF1254A8D3
:101006007F021254A87F0C1254A8E4FF1254A8E4DD
:10101600FF1254A8E4FF1254A8E4FF1254A87F015B
:101026001254A8E4FF1254A87F031254A87F0C128E
:1010360054A87F601254A87F0E1254A87F18125429
:10104600A8E4FF1254A87F011254A8E4FF1254A882
:101056007F041254A87F0C1254A8E4FF1254A87FF0
:10106600011254A87F071254A87F141254A87F01B6
:101076001254A8E4FF1254A87F011254A87F0C1240
:1010860054A87F141254A8E4FF1254A8E4FF125483
:10109600A8E4FF1254A87F011254A8E4FF1254A832
:1010A6007F021254A87F0C1254A8E4FF1254A8E43D
:1010B600FF1254A8E4FF1254A8E4FF1254A87F01BB
:1010C6001254A8E4FF1254A87F031254A87F0C12EE
:1010D60054A87F601254A87F0E1254A87F18125489
:1010E600A8E4FF1254A87F011254A8E4FF1254A8E2
:1010F6007F041254A87F0C1254A8E4FF1254A87F50
:10110600011254A87F071254A87F141254A87F0115
:101116001254A8E4FF1254A87F011254A87F0C129F
:1011260054A87F151254A8E4FF1254A8E4FF1254E1
:10113600A8E4FF1254A87F011254A8E4FF1254A891
:101146007F021254A87F0C1254A8E4FF1254A8E49C
:10115600FF1254A8E4FF1254A8E4FF1254A87F011A
:101166001254A8E4FF1254A87F031254A87F0C124D
:1011760054A87F601254A87F0E1254A87F181254E8
:10118600A8E4FF1254A87F011254A8E4FF1254A841
:101196007F041254A87F0C1254A8E4FF1254A87FAF
:1011A600011254A87F071254A87F141254A87F0175
:1011B6001254A8E4FF1254A87F011254A87F0C12FF
:1011C60054A87F161254A8E4FF1254A8E4FF125440
:1011D600A8E4FF1254A87F011254A8E4FF1254A8F1
:1011E6007F021254A87F0C1254A8E4FF1254A8E4FC
:1011F600FF1254A8E4FF1254A8E4FF1254A87F017A
:101206001254A8E4FF1254A87F031254A87F0C12AC
:1012160054A87F601254A87F0E1254A87F18125447
:10122600A8E4FF1254A87F011254A8E4FF1254A8A0
:101236007F041254A87F0C1254A8E4FF1254A87F0E
:10124600011254A87F071254A87F141254A87F01D4
:101256001254A8E4FF1254A87F011254A87F0C125E
:1012660054A87F171254A8E4FF1254A8E4FF12549E
:10127600A8E4FF1254A87F011254A8E4FF1254A850
:101286007F021254A87F0C1254A8E4FF1254A8E45B
:10129600FF1254A8E4FF1254A8E4FF1254A87F01D9
:1012A6001254A8E4FF1254A87F031254A87F0C120C
:1012B60054A87F601254A87F0E1254A87F181254A7
:1012C600A8E4FF1254A87F011254A8E4FF1254A800
:1012D6007F041254A87F0C1254A8E4FF1254A87F6E
:1012E600011254A87F071254A87F141254A87F0134
:1012F6001254A8E4FF1254A87F011254A87F0C12BE
:1013060054A87F181254A8E4FF1254A8E4FF1254FC
:10131600A8E4FF1254A87F011254A8E4FF1254A8AF
:101326007F021254A87F0C1254A8E4FF1254A8E4BA
:10133600FF1254A8E4FF1254A8E4FF1254A87F0138
:101346001254A8E4FF1254A87F031254A87F0C126B
:1013560054A87F601254A87F0E1254A87F18125406
:10136600A8E4FF1254A87F011254A8E4FF1254A85F
:101376007F041254A87F0C1254A8E4FF1254A87FCD
:10138600011254A87F071254A87F141254A87F0193
:101396001254A8E4FF1254A87F011254A87F0C121D
:1013A60054A87F191254A8E4FF1254A8E4FF12545B
:1013B600A8E4FF1254A87F011254A8E4FF1254A80F
:1013C6007F021254A87F0C1254A8E4FF1254A8E41A
:1013D600FF1254A8E4FF1254A8E4FF1254A87F0198
:1013E6001254A8E4FF1254A87F031254A87F0C12CB
:1013F60054A87F601254A87F0E1254A87F18125466
:10140600A8E4FF1254A87F011254A8E4FF1254A8BE
:101416007F041254A87F0C1254A8E4FF1254A87F2C
:10142600011254A87F071254A87F141254A87F01F2
:101436001254A8E4FF1254A87F011254A87F0C127C
:1014460054A87F1A1254A8E4FF1254A8E4FF1254B9
:10145600A8E4FF1254A87F011254A8E4FF1254A86E
:101466007F021254A87F0C1254A8E4FF1254A8E479
:10147600FF1254A8E4FF1254A8E4FF1254A87F01F7
:101486001254A8E4FF1254A87F031254A87F0C122A
:1014960054A87F601254A87F0E1254A87F181254C5
:1014A600A8E4FF1254A87F011254A8E4FF1254A81E
:1014B6007F041254A87F0C1254A8E4FF1254A87F8C
:1014C600011254A87F071254A87F141254A87F0152
:1014D6001254A8E4FF1254A87F011254A87F0C12DC
:1014E60054A87F1B1254A8E4FF1254A8E4FF125418
:1014F600A8E4FF1254A87F011254A8E4FF1254A8CE
:101506007F021254A87F0C1254A8E4FF1254A8E4D8
:10151600FF1254A8E4FF1254A8E4FF1254A87F0156
:101526001254A8E4FF1254A87F031254A87F0C1289
:1015360054A87F601254A87F0E1254A87F18125424
:10154600A8E4FF1254A87F011254A8E4FF1254A87D
:101556007F041254A87F0C1254A8E4FF1254A87FEB
:10156600011254A87F071254A87F141254A87F01B1
:101576001254A8E4FF1254A87F011254A87F0C123B
:1015860054A87F1C1254A8E4FF1254A8E4FF125476
:10159600A8E4FF1254A87F011254A8E4FF1254A82D
:1015A6007F021254A87F0C1254A8E4FF1254A8E438
:1015B600FF1254A8E4FF1254A8E4FF1254A87F01B6
:1015C6001254A8E4FF1254A87F031254A87F0C12E9
:1015D60054A87F601254A87F0E1254A87F18125484
:1015E600A8E4FF1254A87F011254A8E4FF1254A8DD
:1015F6007F041254A87F0C1254A8E4FF1254A87F4B
:10160600011254A87F071254A87F141254A87F0110
:101616001254A8E4FF1254A87F011254A87F0C129A
:1016260054A87F1D1254A8E4FF1254A8E4FF1254D4
:10163600A8E4FF1254A87F011254A8E4FF1254A88C
:101646007F021254A87F0C1254A8E4FF1254A8E497
:10165600FF1254A8E4FF1254A8E4FF1254A87F0115
:101666001254A8E4FF1254A87F031254A87F0C1248
:1016760054A87F601254A87F0E1254A87F181254E3
:10168600A8E4FF1254A87F011254A8E4FF1254A83C
:101696007F041254A87F0C1254A8E4FF1254A87FAA
:1016A600011254A87F071254A87F141254A87F0170
:1016B6001254A8E4FF1254A87F011254A87F0C12FA
:1016C60054A87F1E1254A8E4FF1254A8E4FF125433
:1016D600A8E4FF1254A87F011254A8E4FF1254A8EC
:1016E6007F021254A87F0C1254A8E4FF1254A8E4F7
:1016F600FF1254A8E4FF1254A8E4FF1254A87F0175
:101706001254A8E4FF1254A87F031254A87F0C12A7
:1017160054A87F601254A87F0E1254A87F18125442
:10172600A8E4FF1254A87F011254A8E4FF1254A89B
:101736007F041254A87F0C1254A8E4FF1254A87F09
:10174600011254A87F071254A87F141254A87F01CF
:101756001254A8E4FF1254A87F011254A87F0C1259
:1017660054A87F1F1254A8E4FF1254A8E4FF125491
:10177600A8E4FF1254A87F011254A8E4FF1254A84B
:101786007F021254A87F0C1254A8E4FF1254A8E456
:10179600FF1254A8E4FF1254A8E4FF1254A87F01D4
:1017A6001254A8E4FF1254A87F031254A87F0C1207
:1017B60054A87F601254A87F0E1254A87F181254A2
:1017C600A8E4FF1254A87F011254A8E4FF1254A8FB
:1017D6007F041254A87F0C1254A8E4FF1254A87F69
:1017E600011254A87F071254A87F141254A87F012F
:1017F6001254A8E4FF1254A87F011254A87F0C12B9
:1018060054A87F201254A8E4FF1254A8E4FF1254EF
:10181600A8E4FF1254A87F011254A8E4FF1254A8AA
:101826007F021254A87F0C1254A8E4FF1254A8E4B5
:10183600FF1254A8E4FF1254A8E4FF1254A87F0133
:101846001254A8E4FF1254A87F031254A87F0C1266
:1018560054A87F601254A87F0E1254A87F18125401
:10186600A8E4FF1254A87F011254A8E4FF1254A85A
:101876007F041254A87F0C1254A8E4FF1254A87FC8
:10188600011254A87F071254A87F141254A87F018E
:101896001254A8E4FF1254A87F011254A87F0C1218
:1018A60054A87F211254A8E4FF1254A8E4FF12544E
:1018B600A8E4FF1254A87F011254A8E4FF1254A80A
:1018C6007F021254A87F0C1254A8E4FF1254A8E415
:1018D600FF1254A8E4FF1254A8E4FF1254A87F0193
:1018E6001254A8E4FF1254A87F031254A87F0C12C6
:1018F60054A87F601254A87F0E1254A87F18125461
:10190600A8E4FF1254A87F011254A8E4FF1254A8B9
:101916007F041254A87F0C1254A8E4FF1254A87F27
:10192600011254A87F071254A87F141254A87F01ED
:101936001254A8E4FF1254A87F011254A87F0C1277
:1019460054A87F221254A8E4FF1254A8E4FF1254AC
:10195600A8E4FF1254A87F011254A8E4FF1254A869
:101966007F021254A87F0C1254A8E4FF1254A8E474
:10197600FF1254A8E4FF1254A8E4FF1254A87F01F2
:101986001254A8E4FF1254A87F031254A87F0C1225
:1019960054A87F601254A87F0E1254A87F181254C0
:1019A600A8E4FF1254A87F011254A8E4FF1254A819
:1019B6007F041254A87F0C1254A8E4FF1254A87F87
:1019C600011254A87F071254A87F141254A87F014D
:1019D6001254A8E4FF1254A87F011254A87F0C12D7
:1019E60054A87F231254A8E4FF1254A8E4FF12540B
:1019F600A8E4FF1254A87F011254A8E4FF1254A8C9
:101A06007F021254A87F0C1254A8E4FF1254A8E4D3
:101A1600FF1254A8E4FF1254A8E4FF1254A87F0151
:101A26001254A8E4FF1254A87F031254A87F0C1284
:101A360054A87F601254A87F0E1254A87F1812541F
:101A4600A8E4FF1254A87F011254A8E4FF1254A878
:101A56007F041254A87F0C1254A8E4FF1254A87FE6
:101A6600011254A87F071254A87F141254A87F01AC
:101A76001254A8E4FF1254A87F011254A87F0C1236
:101A860054A87F241254A8E4FF1254A8E4FF125469
:101A9600A8E4FF1254A87F011254A8E4FF1254A828
:101AA6007F021254A87F0C1254A8E4FF1254A8E433
:101AB600FF1254A8E4FF1254A8E4FF1254A87F01B1
:101AC6001254A8E4FF1254A87F031254A87F0C12E4
:101AD60054A87F601254A87F0E1254A87F1812547F
:101AE600A8E4FF1254A87F011254A8E4FF1254A8D8
:101AF6007F041254A87F0C1254A8E4FF1254A87F46
:101B0600011254A87F071254A87F141254A87F010B
:101B16001254A8E4FF1254A87F011254A87F0C1295
:101B260054A87F251254A8E4FF1254A8E4FF1254C7
:101B3600A8E4FF1254A87F011254A8E4FF1254A887
:101B46007F021254A87F0C1254A8E4FF1254A8E492
:101B5600FF1254A8E4FF1254A8E4FF1254A87F0110
:101B66001254A8E4FF1254A87F031254A87F0C1243
:101B760054A87F601254A87F0E1254A87F181254DE
:101B8600A8E4FF1254A87F011254A8E4FF1254A837
:101B96007F041254A87F0C1254A8E4FF1254A87FA5
:101BA600011254A87F071254A87F141254A87F016B
:101BB6001254A8E4FF1254A87F011254A87F0C12F5
:101BC60054A87F261254A8E4FF1254A8E4FF125426
:101BD600A8E4FF1254A87F011254A8E4FF1254A8E7
:101BE6007F021254A87F0C1254A8E4FF1254A8E4F2
:101BF600FF1254A8E4FF1254A8E4FF1254A87F0170
:101C06001254A8E4FF1254A87F031254A87F0C12A2
:101C160054A87F601254A87F0E1254A87F1812543D
:101C2600A8E4FF1254A87F011254A8E4FF1254A896
:101C36007F041254A87F0C1254A8E4FF1254A87F04
:101C4600011254A87F071254A87F141254A87F01CA
:101C56001254A8E4FF1254A87F011254A87F0C1254
:101C660054A87F271254A8E4FF1254A8E4FF125484
:101C7600A8E4FF1254A87F011254A8E4FF1254A846
:101C86007F021254A87F0C1254A8E4FF1254A8E451
:101C9600FF1254A8E4FF1254A8E4FF1254A87F01CF
:101CA6001254A8E4FF1254A87F031254A87F0C1202
:101CB60054A87F601254A87F0E1254A87F1812549D
:101CC600A8E4FF1254A87F011254A8E4FF1254A8F6
:101CD6007F041254A87F0C1254A8E4FF1254A87F64
:101CE600011254A87F071254A87F141254A87F012A
:101CF6001254A8E4FF1254A87F011254A87F0C12B4
:101D060054A87F281254A8E4FF1254A8E4FF1254E2
:101D1600A8E4FF1254A87F011254A8E4FF1254A8A5
:101D26007F021254A87F0C1254A8E4FF1254A8E4B0
:101D3600FF1254A8E4FF1254A8E4FF1254A87F012E
:101D46001254A8E4FF1254A87F031254A87F0C1261
:101D560054A87F601254A87F0E1254A87F181254FC
:101D6600A8E4FF1254A87F011254A8E4FF1254A855
:101D76007F041254A87F0C1254A8E4FF1254A87FC3
:101D8600011254A87F071254A87F141254A87F0189
:101D96001254A8E4FF1254A87F011254A87F0C1213
:101DA60054A87F291254A8E4FF1254A8E4FF125441
:101DB600A8E4FF1254A87F011254A8E4FF1254A805
:101DC6007F021254A87F0C1254A8E4FF1254A8E410
:101DD600FF1254A8E4FF1254A8E4FF1254A87F018E
:101DE6001254A8E4FF1254A87F031254A87F0C12C1
:101DF60054A87F601254A87F0E1254A87F1812545C
:101E0600A8E4FF1254A87F011254A8E4FF1254A8B4
:101E16007F041254A87F0C1254A8E4FF1254A87F22
:101E2600011254A87F071254A87F141254A87F01E8
:101E36001254A8E4FF1254A87F011254A87F0C1272
:101E460054A87F2A1254A8E4FF1254A8E4FF12549F
:101E5600A8E4FF1254A87F011254A8E4FF1254A864
:101E66007F021254A87F0C1254A8E4FF1254A8E46F
:101E7600FF1254A8E4FF1254A8E4FF1254A87F01ED
:101E86001254A8E4FF1254A87F031254A87F0C1220
:101E960054A87F601254A87F0E1254A87F181254BB
:101EA600A8E4FF1254A87F011254A8E4FF1254A814
:101EB6007F041254A87F0C1254A8E4FF1254A87F82
:101EC600011254A87F071254A87F141254A87F0148
:101ED6001254A8E4FF1254A87F011254A87F0C12D2
:101EE60054A87F2B1254A8E4FF1254A8E4FF1254FE
:101EF600A8E4FF1254A87F011254A8E4FF1254A8C4
:101F06007F021254A87F0C1254A8E4FF1254A8E4CE
:101F1600FF1254A8E4FF1254A8E4FF1254A87F014C
:101F26001254A8E4FF1254A87F031254A87F0C127F
:101F360054A87F601254A87F0E1254A87F1812541A
:101F4600A8E4FF1254A87F011254A8E4FF1254A873
:101F56007F041254A87F0C1254A8E4FF1254A87FE1
:101F6600011254A87F071254A87F141254A87F01A7
:101F76001254A8E4FF1254A87F011254A87F0C1231
:101F860054A87F2C1254A8E4FF1254A8E4FF12545C
:101F9600A8E4FF1254A87F011254A8E4FF1254A823
:101FA6007F021254A87F0C1254A8E4FF1254A8E42E
:101FB600FF1254A8E4FF1254A8E4FF1254A87F01AC
:101FC6001254A8E4FF1254A87F031254A87F0C12DF
:101FD60054A87F601254A87F0E1254A87F1812547A
:101FE600A8E4FF1254A87F011254A8E4FF1254A8D3
:101FF6007F041254A87F0C1254A8E4FF1254A87F41
:10200600011254A87F071254A87F141254A87F0106
:102016001254A8E4FF1254A87F011254A87F0C1290
:1020260054A87F2D1254A8E4FF1254A8E4FF1254BA
:10203600A8E4FF1254A87F011254A8E4FF1254A882
:102046007F021254A87F0C1254A8E4FF1254A8E48D
:10205600FF1254A8E4FF1254A8E4FF1254A87F010B
:102066001254A8E4FF1254A87F031254A87F0C123E
:1020760054A87F601254A87F0E1254A87F181254D9
:10208600A8E4FF1254A87F011254A8E4FF1254A832
:102096007F041254A87F0C1254A8E4FF1254A87FA0
:1020A600011254A87F071254A87F141254A87F0166
:1020B6001254A8E4FF1254A87F011254A87F0C12F0
:1020C60054A87F2E1254A8E4FF1254A8E4FF125419
:1020D600A8E4FF1254A87F011254A8E4FF1254A8E2
:1020E6007F021254A87F0C1254A8E4FF1254A8E4ED
:1020F600FF1254A8E4FF1254A8E4FF1254A87F016B
:102106001254A8E4FF1254A87F031254A87F0C129D
:1021160054A87F601254A87F0E1254A87F18125438
:10212600A8E4FF1254A87F011254A8E4FF1254A891
:102136007F041254A87F0C1254A8E4FF1254A87FFF
:10214600011254A87F071254A87F141254A87F01C5
:102156001254A8E4FF1254A87F011254A87F0C124F
:1021660054A87F2F1254A8E4FF1254A8E4FF125477
:10217600A8E4FF1254A87F011254A8E4FF1254A841
:102186007F021254A87F0C1254A8E4FF1254A8E44C
:10219600FF1254A8E4FF1254A8E4FF1254A87F01CA
:1021A6001254A8E4FF1254A87F031254A87F0C12FD
:1021B60054A87F601254A87F0E1254A87F18125498
:1021C600A8E4FF1254A87F011254A8E4FF1254A8F1
:1021D6007F041254A87F0C1254A8E4FF1254A87F5F
:1021E600011254A87F071254A87F141254A87F0125
:1021F6001254A8E4FF1254A87F011254A87F0C12AF
:1022060054A87F301254A8E4FF1254A8E4FF1254D5
:10221600A8E4FF1254A87F011254A8E4FF1254A8A0
:102226007F021254A87F0C1254A8E4FF1254A8E4AB
:10223600FF1254A8E4FF1254A8E4FF1254A87F0129
:102246001254A8E4FF1254A87F031254A87F0C125C
:1022560054A87F601254A87F0E1254A87F181254F7
:10226600A8E4FF1254A87F011254A8E4FF1254A850
:102276007F041254A87F0C1254A8E4FF1254A87FBE
:10228600011254A87F071254A87F141254A87F0184
:102296001254A8E4FF1254A87F011254A87F0C120E
:1022A60054A87F311254A8E4FF1254A8E4FF125434
:1022B600A8E4FF1254A87F011254A8E4FF1254A800
:1022C6007F021254A87F0C1254A8E4FF1254A8E40B
:1022D600FF1254A8E4FF1254A8E4FF1254A87F0189
:1022E6001254A8E4FF1254A87F031254A87F0C12BC
:1022F60054A87F601254A87F0E1254A87F18125457
:10230600A8E4FF1254A87F011254A8E4FF1254A8AF
:102316007F041254A87F0C1254A8E4FF1254A87F1D
:0F232600011254A87F071254A87F141254A82242
:052335009004EDEFF043
:10233A009004EF7424F078F07C047D017BFF7A41ED
:10234A0079627E00FF1234839005147408F07815C0
:10235A007C057D017BFF7A4179867E00FF123483FA
:10236A0090051D7408F0781E7C057D017BFF7A417B
:10237A00798E7E00FF1234839005267408F0782740
:10238A007C057D017BFF7A4179967E00FF123483BA
:10239A0090052F7408F078307C057D017BFF7A4127
:1023AA00799E7E00FF1234839005387408F07839DC
:1023BA007C057D017BFF7A4179A67E00FF1234837A
:1023CA009005417408F078427C057D017BFF7A41D3
:1023DA0079AE7E00FF12348390054A7408F0784B78
:1023EA007C057D017BFF7A4179B67E00FF1234833A
:1023FA009005537408F078547C057D017BFF7A417F
:10240A0079BE7E00FF12348390055C7408F0785D13
:10241A007C057D017BFF7A4179C67E00FF123483F9
:10242A009005657408F078667C057D017BFF7A412A
:10243A0079CE7E00FF12348390056E7408F0786FAF
:10244A007C057D017BFF7A4179D67E00FF123483B9
:10245A009005777408F078787C057D017BFF7A41D6
:10246A0079DE7E00FF1234839005807408F078814B
:10247A007C057D017BFF7A4179E67E00FF12348379
:10248A009005897408F0788A7C057D017BFF7A4182
:10249A0079EE7E00FF1234839005927408F07893E7
:1024AA007C057D017BFF7A4179F67E00FF12348339
:1024BA0090059B7408F0789C7C057D017BFF7A412E
:1024CA0079FE7E00FF1234839005A47408F078A583
:1024DA007C057D017BFF7A4279067E00FF123483F8
:1024EA009005AD7408F078AE7C057D017BFF7A42D9
:1024FA00790E7E00FF1234839005B67408F078B71F
:10250A007C057D017BFF7A4279167E00FF123483B7
:10251A009005BF7408F078C07C057D017BFF7A4284
:10252A00791E7E00FF1234839005C87408F078C9BA
:10253A007C057D017BFF7A4279267E00FF12348377
:10254A009005D17408F078D27C057D017BFF7A4230
:10255A00792E7E00FF123483E49005DAF078DB7C72
:10256A00057D017BFF7A427936FE7F011234839022
:10257A0005DC7408F078DD7C057D017BFF7A427901
:10258A00377E00FF1234839005E57408F078E67C04
:10259A00057D017BFF7A42793F7E00FF12348390EA
:1025AA0005EE7408F078EF7C057D017BFF7A4279AD
:1025BA00477E00FF1234839005F77408F078F87CA0
:1025CA00057D017BFF7A42794F7E00FF12348390AA
:1025DA0006007408F078017C067D017BFF7A427957
:1025EA00577E00FF1234839006097408F0780A7C3B
:1025FA00067D017BFF7A42795F7E00FF1234839069
:10260A0006127420F078137C067D017BFF7A4279EA
:10261A00677E00FF1234839006337408F078347CA6
:10262A00067D017BFF7A4279877E00FF1234839010
:10263A00063C7408F0783D7C067D017BFF7A42797E
:10264A008F7E00FF1234839004EDE014B421004021
:10265A000302305090266C75F003A4C58325F0C59B
:10266A0083730226CF02271D02276B0227B902288D
:10267A00070228550228A30228F102293F02298DC0
:10268A000229DB022A29022A77022AC5022B13020F
:10269A002B61022BAF022C0A022C58022CA6022C08
:1026AA00A9022CF7022D45022D93022DE1022E2FAD
:1026BA00022E7D022ECB022F19022F67022CA602B0
:1026CA002FB5023002E49004EEF09004EFE0FF90A0
:1026DA0004EEE0FEC3EF6480F8EE648098400302E3
:1026EA003053E0FFFD3395E0FC74F02DF58274045D
:1026FA003CF583E0FEEF3395E0FC74F72DF5827428
:10270A00023CF583E06E6003022C4D9004EEE00477
:10271A00F080B7E49004EEF0900514E0FF9004EE28
:10272A00E0FEC3EF6480F8EE648098400302305301
:10273A00E0FFFD3395E0FC74152DF58274053CF538
:10274A0083E0FEEF3395E0FC74F72DF58274023CCA
:10275A00F583E06E6003022C4D9004EEE004F080F5
:10276A00B7E49004EEF090051DE0FF9004EEE0FE61
:10277A00C3EF6480F8EE6480984003023053E0FFB0
:10278A00FD3395E0FC741E2DF58274053CF583E05B
:10279A00FEEF3395E0FC74F72DF58274023CF58365
:1027AA00E06E6003022C4D9004EEE004F080B7E482
:1027BA009004EEF0900526E0FF9004EEE0FEC3EFF1
:1027CA006480F8EE6480984003023053E0FFFD33E2
:1027DA0095E0FC74272DF58274053CF583E0FEEF45
:1027EA003395E0FC74F72DF58274023CF583E06EB4
:1027FA006003022C4D9004EEE004F080B7E49004EC
:10280A00EEF090052FE0FF9004EEE0FEC3EF648047
:10281A00F8EE6480984003023053E0FFFD3395E000
:10282A00FC74302DF58274053CF583E0FEEF339598
:10283A00E0FC74F72DF58274023CF583E06E6003C8
:10284A00022C4D9004EEE004F080B7E49004EEF020
:10285A00900538E0FF9004EEE0FEC3EF6480F8EEE6
:10286A006480984003023053E0FFFD3395E0FC7426
:10287A00392DF58274053CF583E0FEEF3395E0FCD3
:10288A0074F72DF58274023CF583E06E6003022C26
:10289A004D9004EEE004F080B7E49004EEF0900569
:1028AA0041E0FF9004EEE0FEC3EF6480F8EE64803E
:1028BA00984003023053E0FFFD3395E0FC74422D4B
:1028CA00F58274053CF583E0FEEF3395E0FC74F77E
:1028DA002DF58274023CF583E06E6003022C4D9064
:1028EA0004EEE004F080B7E49004EEF090054AE0CC
:1028FA00FF9004EEE0FEC3EF6480F8EE6480984037
:10290A0003023053E0FFFD3395E0FC744B2DF58252
:10291A0074053CF583E0FEEF3395E0FC74F72DF582
:10292A008274023CF583E06E6003022C4D9004EE43
:10293A00E004F080B7E49004EEF0900553E0FF90D5
:10294A0004EEE0FEC3EF6480F8EE64809840030270
:10295A003053E0FFFD3395E0FC74542DF582740585
:10296A003CF583E0FEEF3395E0FC74F72DF58274B5
:10297A00023CF583E06E6003022C4D9004EEE00405
:10298A00F080B7E49004EEF090055CE0FF9004EE6E
:10299A00E0FEC3EF6480F8EE64809840030230538F
:1029AA00E0FFFD3395E0FC745D2DF58274053CF57E
:1029BA0083E0FEEF3395E0FC74F72DF58274023C58
:1029CA00F583E06E6003022C4D9004EEE004F08083
:1029DA00B7E49004EEF0900565E0FF9004EEE0FEA7
:1029EA00C3EF6480F8EE6480984003023053E0FF3E
:1029FA00FD3395E0FC74662DF58274053CF583E0A1
:102A0A00FEEF3395E0FC74F72DF58274023CF583F2
:102A1A00E06E6003022C4D9004EEE004F080B7E40F
:102A2A009004EEF090056EE0FF9004EEE0FEC3EF36
:102A3A006480F8EE6480984003023053E0FFFD336F
:102A4A0095E0FC746F2DF58274053CF583E0FEEF8A
:102A5A003395E0FC74F72DF58274023CF583E06E41
:102A6A006003022C4D9004EEE004F080B7E4900479
:102A7A00EEF0900577E0FF9004EEE0FEC3EF64808D
:102A8A00F8EE6480984003023053E0FFFD3395E08E
:102A9A00FC74782DF58274053CF583E0FEEF3395DE
:102AAA00E0FC74F72DF58274023CF583E06E600356
:102ABA00022C4D9004EEE004F080B7E49004EEF0AE
:102ACA00900580E0FF9004EEE0FEC3EF6480F8EE2C
:102ADA006480984003023053E0FFFD3395E0FC74B4
:102AEA00812DF58274053CF583E0FEEF3395E0FC19
:102AFA0074F72DF58274023CF583E06E6003022CB4
:102B0A004D9004EEE004F080B7E49004EEF09005F6
:102B1A0089E0FF9004EEE0FEC3EF6480F8EE648083
:102B2A00984003023053E0FFFD3395E0FC748A2D90
:102B3A00F58274053CF583E0FEEF3395E0FC74F70B
:102B4A002DF58274023CF583E06E6003022C4D90F1
:102B5A0004EEE004F080B7E49004EEF0900592E011
:102B6A00FF9004EEE0FEC3EF6480F8EE64809840C4
:102B7A0003023053E0FFFD3395E0FC74932DF58298
:102B8A0074053CF583E0FEEF3395E0FC74F72DF510
:102B9A008274023CF583E06E6003022C4D9004EED1
:102BAA00E004F080B7E49004EEF090059BE0FF901B
:102BBA0004EEE0FEC3EF6480F8EE648098400302FE
:102BCA003053E0FFFD3395E0FC749C2DF5827405CB
:102BDA003CF583E0FEEF3395E0FC74F72DF5827443
:102BEA00023CF583E06E60107FBB1254B19004EE94
:102BFA00E0FF1254B10230429004EEE004F080AAE1
:102C0A00E49004EEF09005A4E0FF9004EEE0FEC329
:102C1A00EF6480F8EE6480984003023053E0FFFDD1
:102C2A003395E0FC74A52DF58274053CF583E0FE2E
:102C3A00EF3395E0FC74F72DF58274023CF583E0DE
:102C4A006E60030230429004EEE004F080B7E49034
:102C5A0004EEF09005ADE0FF9004EEE0FEC3EF64F1
:102C6A0080F8EE6480984003023053E0FFFD33950C
:102C7A00E0FC74AE2DF58274053CF583E0FEEF337B
:102C8A0095E0FC74F72DF58274023CF583E06E60E2
:102C9A00030230429004EEE004F080B77F0022E4A1
:102CAA009004EEF09005BFE0FF9004EEE0FEC3EF63
:102CBA006480F8EE6480984003023053E0FFFD33ED
:102CCA0095E0FC74C02DF58274053CF583E0FEEFB7
:102CDA003395E0FC74F72DF58274023CF583E06EBF
:102CEA0060030230429004EEE004F080B7E49004FE
:102CFA00EEF09005C8E0FF9004EEE0FEC3EF6480BA
:102D0A00F8EE6480984003023053E0FFFD3395E00B
:102D1A00FC74C92DF58274053CF583E0FEEF33950A
:102D2A00E0FC74F72DF58274023CF583E06E6003D3
:102D3A000230429004EEE004F080B7E49004EEF032
:102D4A009005D1E0FF9004EEE0FEC3EF6480F8EE58
:102D5A006480984003023053E0FFFD3395E0FC7431
:102D6A00D22DF58274053CF583E0FEEF3395E0FC45
:102D7A0074F72DF58274023CF583E06E600302302D
:102D8A00429004EEE004F080B7E49004EEF090057F
:102D9A00DAE0FF9004EEE0FEC3EF6480F8EE6480B0
:102DAA00984003023053E0FFFD3395E0FC74DB2DBD
:102DBA00F58274053CF583E0FEEF3395E0FC74F789
:102DCA002DF58274023CF583E06E60030230429076
:102DDA0004EEE004F080B7E49004EEF09005DCE045
:102DEA00FF9004EEE0FEC3EF6480F8EE6480984042
:102DFA0003023053E0FFFD3395E0FC74DD2DF582CC
:102E0A0074053CF583E0FEEF3395E0FC74F72DF58D
:102E1A008274023CF583E06E60030230429004EE55
:102E2A00E004F080B7E49004EEF09005E5E0FF904E
:102E3A0004EEE0FEC3EF6480F8EE6480984003027B
:102E4A003053E0FFFD3395E0FC74E62DF5827405FE
:102E5A003CF583E0FEEF3395E0FC74F72DF58274C0
:102E6A00023CF583E06E60030230429004EEE00417
:102E7A00F080B7E49004EEF09005EEE0FF9004EEE7
:102E8A00E0FEC3EF6480F8EE64809840030230539A
:102E9A00E0FFFD3395E0FC74EF2DF58274053CF5F7
:102EAA0083E0FEEF3395E0FC74F72DF58274023C63
:102EBA00F583E06E60030230429004EEE004F08095
:102ECA00B7E49004EEF09005F7E0FF9004EEE0FE20
:102EDA00C3EF6480F8EE6480984003023053E0FF49
:102EEA00FD3395E0FC74F82DF58274053CF583E01A
:102EFA00FEEF3395E0FC74F72DF58274023CF583FE
:102F0A00E06E60030230429004EEE004F080B7E421
:102F1A009004EEF0900600E0FF9004EEE0FEC3EFAE
:102F2A006480F8EE6480984003023053E0FFFD337A
:102F3A0095E0FC74012DF58274063CF583E0FEEF02
:102F4A003395E0FC74F72DF58274023CF583E06E4C
:102F5A0060030230429004EEE004F080B7E490048B
:102F6A00EEF0900609E0FF9004EEE0FEC3EF648005
:102F7A00F8EE6480984003023053E0FFFD3395E099
:102F8A00FC740A2DF58274063CF583E0FEEF339556
:102F9A00E0FC74F72DF58274023CF583E06E600361
:102FAA000230429004EEE004F080B7E49004EEF0C0
:102FBA00900633E0FF9004EEE0FEC3EF6480F8EE83
:102FCA006480984003023053E0FFFD3395E0FC74BF
:102FDA00342DF58274063CF583E0FEEF3395E0FC70
:102FEA0074F72DF58274023CF583E06E6002804826
:102FFA009004EEE004F080B8E49004EEF090063C11
:10300A00E0FF9004EEE0FEC3EF6480F8EE6480987F
:10301A005037E0FFFD3395E0FC743D2DF5827406D0
:10302A003CF583E0FEEF3395E0FC74F72DF58274EE
:10303A00023CF583E06E60069004EDE0FF22900406
:0B304A00EEE004F080B77F00227F0062
:013055002258
:10369B0061E00100000000000000000000000000DD
:1036AB00000000000000000000000000000000000F
:1036BB0000000000000000000000000000000000FF
:1036CB000000000000002214FF5522000800080033
:1036DB00082214081422080008000800007F3C0789
:1036EB003C7F007F44442C370000000000000000AA
:1036FB000000000000000000000806403100007FC1
:10370B0049494949497F00000000003F2424243FD8
:10371B00A464243F242424200000000000000000A7
:10372B00000000000000000080000000000000000E
:10373B00000000000000000000000000008000807E
:10374B00008000808E8A8E000001020202010000C0
:10375B0000000000000000000020207E80027E425E
:10376B00427E427E42427E0200020CF1012132AACD
:10377B00A4A4A4AA320101010000000000C3C300ED
:10378B000000000101010101010000010101010123
:10379B000100000000030300000000010101010112
:1037AB00010000000000000000FC0202028C00007F
:1037BB0000000000000000000020203F202000003F
:1037CB00203F202020100F00000000060600000004
:1037DB0000000000000000000000000000000000DE
:1037EB0000000000000000000000000000000000CE
:1037FB0000000000000000000000000000000000BE
:10380B0000000000000000000000000000000000AD
:10381B000000000000000000000808F80808000085
:10382B0008F808080810E000000000181800000055
:10383B00000808080808080000080808080808001D
:10384B00000808080808080000080808080808000D
:10385B0000080808080808000008080808080800FD
:10386B0000080808080808000008080808080800ED
:10387B00000000006100000000070810100807009E
:10388B0000F008040408F000000008081F00000006
:10389B0000000404FC040400000E101010100F00B4
:1038AB00000C142444840C00000C101010110E009A
:1038BB000018048484443800000001020C1F00002F
:1038CB000060A02424FC2424001F111111101000EF
:1038DB000098040404887000000708111109000007
:1038EB0000F088040404F8000018101011161800DA
:1038FB000000007C80000000000E111010110E0063
:10390B000038448484443800000F1010100807005E
:10391B00008048444488F0000000031C07000000AE
:10392B00043CC44040E41C04101F1111110E000094
:10393B0004FC040404887000030C101010101C000D
:10394B00E018040404081000101F101010080700E2
:10395B0004FC04040408F000101F111117100800D8
:10396B0004FC0404C4041800101F111117100800E4
:08397B0004FC0400C000000080
:10520100EF339284EFA2E69283A2E59282A2E49226
:1052110081A2E39280A2E292C6A2E192C51392FF1B
:01522100226A
:1050FB00C454F02400F582E43400F583E5822EF5E8
:08510B0082E43583F583E0FF27
:10511300D2A5D2A4C2A3C2A600001252010000D29B
:05512300A600D2A3224A
:0E5179001251877F221251877F021251870F39
:10518700D2A5C2A4C2A3C2A600001252010000D237
:05519700A600D2A322D6
:104A5400E4F595759601F5B375B401C2C112549984
:104A6400D2C1120026007FAE1251877FD512518722
:104A74007F80125187007FA81251877F27125187A8
:104A8400007FD3125187E4FF125187007F401251F7
:104A9400877F8D1251877F141251877FA11251870E
:104AA4007FC8125187007FDA1251877F1212518713
:104AB400007F811251877FAF125187007FD9125135
:104AC400877F25125187007FDB1251877F20125187
:104AD40087007FA4125187007FA6125187007FAF01
:034AE400025187F5
:1052AB007FAE125187007F8D1251877F101251876D
:0952BB0000125499C2E902548A60
:10537B007FAE125187007F8D1251877F101251879C
:04538B0000C2E92251
:10535100D2E91254997F8D1251877F14125187001F
:055361007FAF0251873F
:0E49BF009006C7EBF0A3EAF0A3E9F0A3EDF039
:1049CD00E49006CEF0A3F0FEFD7F20125187E4FFA8
:1049DD001251877F211251879006CAE0FF1251872D
:1049ED00A3E0FF1251877F22125187A3E0FF1251DE
:1049FD0087A3E0FF1251879006CCE0FD9006CDE035
:104A0D00FFEDD39F50409006CAE0FE9006CBE0FF2D
:104A1D00EED39F502E9006C7E0FBA3E0FAA3E0F97A
:104A2D009006CEE0F8A3E0F58288831234C2FF121F
:104A3D0051139006CFE004F070069006CEE004F01E
:064A4D000E80C80D80B6CA
:014A53002240
:064297009006DE123588DE
:10429D00E4FBFA792078419006DEE0FCA3E0FDA373
:1042AD00E0FEA3E0FF1232571233329006E2EFF038
:1042BD00FCE41232FEA804A905AA06AB079006DE9F
:1042CD00E0FCA3E0FDA3E0FEA3E0FF1230591233A2
:1042DD00329006E3EFF09006DEE0FCA3E0FDA3E0F4
:1042ED00FEA3E0FF1233327C007D0A1234EFAC06E0
:1042FD00AD07E41232F9C004C005C006C007E4FFE3
:10430D00FE7D207C419006DEE0F8A3E0F9A3E0FA03
:10431D00A3E0FB12314ED003D002D001D0001230F9
:10432D0059123332AD077F20125187E4FF125187A6
:10433D007F211251877F2E1251877F35125179E4DB
:10434D00FEEE64069006E2601AE0C454F02400F517
:10435D0082E43400F583E5822EF582E43583F5831E
:10436D00E0801AE0C454F02400F582E43400F583B3
:10437D00E5822EF582E43583F583E04401FF125189
:10438D00130EEEB410BB7F211251877F3612518769
:10439D007F3D125179E4FE9006E3E01250FB0EEEE4
:1043AD00B410F47F211251877F461251877F4D1231
:0D43BD005179E4FEED1250FB0EEEB410F746
:0143CA0022D0
:105222007401A807088002C333D8FCF59DE4F5BDDC
:0F523200EF4488F5BC7F02125324D2ADD2AF22D5
:03002B0002486E1A
:0D486E00C0E0C0F0C083C082C0D075D0088B
:10487B009006A9E4F0A3F0FFFEA3F0A3F0C2ADF500
:10488B00BC12544E7F0312530D9006A9E4F0A3EF14
:10489B00F012544E7F0312530D7E009006A9E0FCDC
:1048AB00A3E0FDD39FEC9E401DED9FFBEC9EFAC356
:1048BB00EB9423EA9400504EED2FFFEE3CC313FE16
:1048CB00EF13FFA38030C3ED9FEC9E502C9006A9F5
:1048DB00E0FCA3E0FDC3EF9DFDEE9CFCC3ED942338
:1048EB00EC94005021E02FFF9006A9E03EC313FE8D
:1048FB00EF13FF9006ABEE80099006A9E0FFA3E053
:08490B00A3CFF0A3EFF0D2AD41
:0B491300D0D0D082D083D0F0D0E032B2
:10530D00E4F5BDEF4488F5BC00000000E5BC30E4D9
:07531D00FB75BC00AFBD22CF
:10519C00AC07E41232FE9006EBE0F8A3E0F9A3E0D2
:1051AC00FAA3E0FB12314EE4FBFA79807843123219
:0251BC00572278
:10512800E4FDFCF5BDF5BEEF4488F5BC00000000C9
:10513800E5BC30E4FB75BC00AFBDEF75F004A4FD21
:09514800ACF0AFBEED4FAE04FF68
:01515100223B
:10005E00AD07AC06E41232F99006E6E0F8A3E0F93B
:10006E00A3E0FAA3E0FB12314EE4FBFA7980784468
:04007E0012325722C1
:10532400AE071FEE60107C137D88ED1DAA0470018A
:065334001C4A60EC80F44D
:01533A002250
:0C3983004102F4004102F5004102F60090
:10515200E5A2543FF5A253877F759850438E405382
:105162008EFE53890F438920758BFA758DFAC2AB77
:07517200D28ED2ACD2AF22B5
:0954A8002000FDEFD200F599226D
:10502F009006FFEBF0A3EAF0A3E9F09006FFE0FB98
:10503F00A3E0FAA3E0F91234A960179006FFA3E4E6
:10504F0075F001123501A9F0FA1234A9FF1254A814
:03505F0080D922D3
:03002300024F1871
:104F1800C0E0C0F0C083C082C0D075D00830981BF4
:104F2800C2989004EBE475F001123501FE74F72580
:104F3800F0F58274023EF583E599F0309904C29940
:0D4F4800C200D0D0D082D083D0F0D0E032B3
:03004300024F5514
:104F5500C0E0C083C082C0D075D008E59A30E017A4
:104F6500539AFE9002F4E0FF04F074E02FF582E41A
:104F75003402F583E59BF0E59A30E105539AFDC2CD
:0A4F850001D0D0D082D083D0E032FA
:0954B1002001FDEFD201F59B2260
:10506200900702EBF0A3EAF0A3E9F0900702E0FB5D
:10507200A3E0FAA3E0F91234A96017900702A3E4AF
:1050820075F001123501A9F0FA1234A9FF1254B1D8
:0350920080D922A0
:1052DD0053BAFE759A50438E0475D7C075D6FD43EB
:0852ED008E1075AF01D2AF2253
:10533B007E027FF49002F7E4F0A3DFFCDEFAE49048
:05534B0004EBF0A3F0EB
:01535000223A
:0F5410007F649002E0E4F0A3DFFCE49002F4F08C
:01541F00226A
:1052410053BAFD75AC1043AC4043D10275D5C0755E
:0B525100D4FD43D10843AF08D2AF22C8
:03008B00025277A7
:10527700C0E0E5AC30E00653ACFE85AD80E5AC3070
:0A528700E10553ACFDC202D0E03295
:0954BA002002FDEFD202F5AD2243
:10509500900705EBF0A3EAF0A3E9F0900705E0FB24
:1050A500A3E0FAA3E0F91234A96017900705A3E479
:1050B50075F001123501A9F0FA1234A9FF1254BA9C
:0350C50080D9226D
:10525C0043BA0475841043844043D12075D3C07580
:0B526C00D2FD43D18043AF10D2AF222F
:0300930002529185
:10529100C0E0E58430E0065384FE858580E58430F6
:0A52A100E1055384FDC203D0E032A2
:0954C3002003FDEFD203F5852260
:1050C800900708EBF0A3EAF0A3E9F0900708E0FBEB
:1050D800A3E0FAA3E0F91234A96017900708A3E443
:1050E80075F001123501A9F0FA1234A9FF1254C360
:0350F80080D9223A
:0D001600E4F5C7F5C5F5C675C380F5C42235
:1052F50075C78175C5018FC4EEF5C375C65A75C6E8
:07530500A500AFC212001663
:01530C00227E
:1052C40075C78175C5028FC4EEF5C3AF058FC2756E
:0952D400C65A75C6A500020016B9
:1053660075C78175C5038FC4EEF5C375C65A75C674
:05537600A50002001675
:1046BD009006BCEEF0A3EFF09006C0EBF0A3EAF08D
:0B46CD00A3E9F09006BEECF0A3EDF0B6
:1046D800E49006C3F0A3F0FFA3F0A3F0D3ED942079
:1046E800EC94004001229006BCE0FCA3E0FDEC54F1
:1046F80001FEAF059006BFE02FFF9006BEE03EFE2C
:10470800D3EF9420EE940040037F0022AF05AE045F
:10471800125366E49006C3F0A3F09006BEE0FEA331
:10472800E0FF9006C3E0FCA3E0FDC39FEC9E50674A
:104738009006BCE0FEA3E0FF9006C0E0FBA3E0FA11
:10474800A3E0F98D828C831234C2FD1252C4900604
:10475800BCE0FEA3E0FF1252F59006C0E0FBA3E028
:10476800FAA3E0F9A3E0FCA3E0F5828C831234C23B
:104778006F60061200167F00229006BDE004F070FC
:10478800069006BCE004F09006C4E004F0708B903C
:0C47980006C3E004F080831200167F01CD
:0147A40022F2
:103F9F009006ADEEF0A3EFF09006B1EBF0A3EAF0D0
:0B3FAF00A3E9F09006AFECF0A3EDF0EA
:103FBA00E49006B4F0A3F0A3F0A3F0A3F0A3F0A357
:103FCA00F0A3F0D3ED9420EC940040037F002290FC
:103FDA0006ADE0FCA3E0FDEC5401FEAF059006B689
:103FEA00F0A3EFF09006B0E02FFF9006AFE03EFEA0
:103FFA00D3EF9420EE940040037F0022EC54FEFE9F
:10400A007F009006B8F0A3EFF0A3EEF0A3EFF090D4
:10401A0006B4F0A3F09006BAE475F001123501AFC8
:10402A00F0FE1252F59006B4A3E02422F8A607E0A7
:10403A0004F070069006B4E004F0C39006B5E0946C
:10404A00209006B4E0940040CCE49006B4F0A3F0CB
:10405A009006AFE0FEA3E0FF9006B4E0FCA3E0FD0B
:10406A00C39FEC9E50349006B1E0FBA3E0FAA3E0B4
:10407A00F98D828C831234C2FF9006B6E475F00182
:10408A00123501742225F0F8A6079006B5E004F06F
:10409A0070069006B4E004F080B69006B8E0FEA37D
:1040AA00E0FF1253669006B8E0FFA3E0A3CFF0A3A7
:1040BA00EFF0E49006B4F0A3F09006B4E0FCA3E0BD
:1040CA00FDC39420EC9400504C9006BAE0FEA3E0A5
:1040DA00FF74222DF8E6FD1252C49006ADE0FEA34D
:1040EA00E0FF1252F59006B4A3E02422F8E66F60CE
:1040FA00061200167F00229006BBE004F0700690BC
:10410A0006BAE004F09006B5E004F070069006B432
:0A411A00E004F080A41200167F01FB
:014124002278
:104FC600E5A254CFF5A2E4F5D8F5E9F5F975D902CD
:104FD600F5F275EA2075FA2075DA4275F34075EB3D
:104FE6002075FB2075DB4275F48075EC2075FC207E
:064FF60075DC42D2DE2250
:104DB500E4F5B4F5B343BA80F5F190FFF2F090FF56
:104DC500F07403F0A374E8F090FF20E4F0A3F0FC86
:104DD500FDFE7BE87A03F9F8123517E47B64FAF9EE
:104DE500F8124E9190FF22EEF0A3EFF0A37408F0B5
:0B4DF50043F50443F58053BA7F80FEB5
:104E0000E4F5CAF5C943BA80F5F190FFF2F090FFDE
:104E1000F07403F0A374E8F090FF30E4F0A3F0FC2A
:104E2000FDFE7BE87A03F9F8123517E47B64FAF9A2
:104E3000F8124E9190FF32EEF0A3EFF0A37408F059
:0A4E400043F50843F58053BA7F22C2
:0A45D0009006A1ECF0A3EDF0AB079C
:1045DA00A312359400000000E49006A7F0A3F0EBC4
:1045EA00146019146022146037146028240470308F
:1045FA009006A312359446900000802E9006A312CE
:10460A003594462CCC0080229006A312359445ACF2
:10461A00C80080169006A312359444ACC000800AE4
:10462A009006A3123594452CD000E4F594F59343F3
:10463A00BA80F5F190FFF27403F09006A3E0FCA3B0
:10464A00E0FDA3E0FEA3E0FF12333290FFF0EEF0AC
:10465A00A3EFF090FF50E4F0A3F0FBFA79C8784298
:10466A009006A3E0FCA3E0FDA3E0FEA3E0FF123264
:10467A0057C004C005C006C0079006A1E0FCA3E02D
:10468A00FDE41232F9D003D002D001D00012314E2B
:10469A0012333290FF52EEF0A3EFF09006A7EEF03D
:1046AA00A3EFF090FF547408F043F52043F58053CC
:0246BA00BA7FC5
:0146BC0022DB
:104D1400900714EEF0A3EFF0438E805389F09007D0
:104D240014E0FEA3E0FFE4FCFD7B16FAF9F812356B
:104D340017EFF404F58A900714E0FEA3E0FFE4FC07
:104D4400FD7B16FAF9F8123517C3E49FFFE49EFEC3
:104D540074019DFDE49CFC78081235748F8CC28D1F
:034D6400D28C22CC
:10542000E5A254F3F5A2E4F5CF75CDC075CE5022B8
:03004B000254EF6D
:0654EF0075CDC0D2913220
:10538F00438E805389F0758A01758C01D28CD2A916
:03539F00D2AF2268
:03000300020032C6
:01003200329B
:0954CC00D2B2D288D2A8D2AF22DC
:0300130002003FA9
:01003F00328E
:0954D500D2B3C28AD2AAD2AF22DE
:0300530002004068
:01004000328D
:0654F500438F10D2AF222C
:03005B000200415F
:01004100328C
:0654FB00438F20D2AF2216
:0300830002004236
:01004200328B
:06550100438F40D2AF22EF
:0300330002002E9A
:04002E005387DF32E3
:0854E7005387DFD2AED2AF22E1
:1053C8007D3C7C00E4FF1245D012544E53F5DFC2F9
:0253D80086222B
:1053DA007D3C7C007F021245D012547B53F5DFC21C
:0253EA00862219
:1053EC007D3C7C007F031245D012546C53F5DFC218
:0253FC00862207
:0954DE00AD07AC067F040245D0C5
:1053FE007D3C7C007F041245D012548A53F5DFC2E7
:02540E008622F4
:065507008FAA75AB8022A3
:1053B50020626174746572795363616E20696E2031
:0353C5000A2000BB
:1053A200E4F5CB75CC0E43CB0143CC01C2E9D2EA82
:0353B200D2EB2219
:104BEC00E49006EFF0A3123594000000007BFF7AEE
:104BFC005379B51250C87F0412530D9006EFEFF0A5
:104C0C00FCE41232FEA804A905AA06AB077F0A7EB3
:104C1C00D77DA37C431232579006F01235887FFF64
:104C2C001254C39006EFE0FF1254C39006F0E0FC60
:104C3C00A3E0FDA3E0FEA3E0FF1233321254C390B5
:104C4C0006F0E0FCA3E0FDA3E0FEA3E0FF1233328C
:014C5C002235
:1051BE00E4900718F07F0512530D900718EFF07F5B
:1051CE00FF1254C3900718E0FF1254C3900718E063
:0151DE00FFD1
:0151DF0022AD
:1044CE004E4F203A20005331203A20005332203AEA
:1044DE0020005333203A20005334203A2000533525
:1044EE00203A2000204D41494E204D454E55200A80
:1044FE00200020554846204D4F4445200A200020DC
:10450E004254204D4F4445200A2000205445535418
:10451E00204D4F4445200A2000204241545445521C
:10452E0059204D4F4445200A200020425A204D4F1D
:10453E004445200A2000202153797374656D5F5025
:10454E006F7765725F5663635F4F4E5F4F464620CF
:10455E000A20002055313420706F77657220676F06
:10456E006F64200A20002055313420706F776572F9
:10457E00204E47204F4350204F5450200A200020F9
:10458E00215653454C200A20002021425950200A22
:10459E0020002042415454455259A1A14D4F44454B
:1045AE0020494E200A200020425A204D4F444520DB
:1045BE00494E200A2000204E4F5420534554200AC5
:0245CE002000CB
:04398F0041071900D3
:10491E00E490069EF0A3F0A3F07F0312530D9006D1
:10492E009EEFF0C394CD40037F002212544E7F03BE
:10493E0012530D90069FEFF012544E7F0312530D3B
:10494E009006A0EFF090069FE02FFFE433C313EF25
:10495E001390069EF012544E7F0312530DEFD39414
:10496E00CD40F290069EE0C3941250061253C87FBB
:10497E00012290069EE0C3943B50061253C87F025C
:10498E002290069EE0C3946950061253C87F0322FC
:10499E0090069EE0C3949B50061253C87F0422904B
:1049AE00069EE0C394CD50061253C87F05227F00A9
:0149BE0022D6
:103E0200E490070BF0A3F0A3F07F0312530D900789
:103E12000BEFF0C394CD403012544E7BFF7A4479BD
:103E2200CE12502F7FFF1254A890070BE0FF1254BE
:103E3200A87BFF7A4479CE1250C890070BE0FF129C
:103E420054C353F5DF7F002212548A7F0312530DAD
:103E520090070CEFF012544E7F0312530D90070D92
:103E6200EFF090070CE02FFFE433C313EF1390073A
:103E72000BF0C3941250337BFF7A4479D412502F43
:103E82007FFF1254A890070BE0FF1254A87BFF7A21
:103E92004479D41250C890070BE0FF1254C37D3C02
:103EA2007C007F011245D07F012290070BE0C39472
:103EB2003B50337BFF7A4479DA12502F7FFF125442
:103EC200A890070BE0FF1254A87BFF7A4479D41222
:103ED20050C890070BE0FF1254C37D3C7C007F0268
:103EE2001245D07F022290070BE0C3946950337BC6
:103EF200FF7A4479E012502F7FFF1254A890070BEB
:103F0200E0FF1254A87BFF7A4479E01250C8900770
:103F12000BE0FF1254C37D3C7C007F031245D07F2F
:103F2200032290070BE0C3949B50337BFF7A4479C2
:103F3200E612502F7FFF1254A890070BE0FF125495
:103F4200A87BFF7A4479E01250C890070BE0FF1279
:103F520054C37D3C7C007F041245D07F042290072D
:103F62000BE0C394CD50337BFF7A4479EC12502F8F
:103F72007FFF1254A890070BE0FF1254A87BFF7A30
:103F82004479E01250C890070BE0FF1254C37D3C05
:0C3F92007C00E4FF1245D07F05227F0078
:013F9E002200
:103C2B00900716E4F0A3EFF0900719E024FB605522
:103C3B0014607A147003023CEC24FD7003023D22E5
:103C4B00147003023D5824FC7003023D9624FB7054
:103C5B0003023DF024146003023DF8900716E0FECA
:103C6B00A3E0FFEE7016EF24FE7003023E0114700A
:103C7B0003023E0124FE6002800280547BFF7A44E3
:103C8B0079F2023DFE900716E0FEA3E0FFEE701402
:103C9B00EF24FD600D24FE7003023E01240370042B
:103CAB00805E80247BFF7A457900023DFE900716EB
:103CBB00E0FEA3E0FFEE7020EF24FD601324FE7006
:103CCB0003023E01240370109007197407023D8311
:103CDB009007197405023D837BFF7A45790D023DF0
:103CEB00FE900716E0FEA3E0FFEE7022EF24FD60CE
:103CFB000F24FE6012240370159007197405807849
:103D0B0090071974068071900719740A806A7BFFFB
:103D1B007A457919023DFE900716E0FEA3E0FFEE0F
:103D2B007022EF24FD600F24FE60122403701590A7
:103D3B000719740B8042900719740B803B9007197D
:103D4B00740F80347BFF7A457927023DFE9007166E
:103D5B00E0FEA3E0FFEE702BEF24FD600F24FE606E
:103D6B00122403701E900719740A800C90071974A3
:103D7B000A80059007197414F0E4900716F0A3F06D
:103D8B00023C337BFF7A4579388068900716E0FE5A
:103D9B00A3E0FFEE7047EF24FD602A24FE6032247F
:103DAB0003703A7BFF7A4579441250C8B2E930E987
:103DBB00451254997BFF30E8067A45796180347A55
:103DCB00457974802E7BFF7A45798D1250C8B2EA03
:103DDB00227BFF7A4579971250C8B2EB227BFF7A90
:103DEB004579A0800E7BFF7A4579B580067BFF7AFB
:063DFB004579C41250C816
:013E0100229E
:1030560002339EE86480F8E933E83360110460F0D7
:10306600ED33EC337009E8FCE9FDEAFEEBFF2204E0
:1030760060DED3EB9FEA9EE99DE8C2E78CF0C2F7DB
:1030860095F0400CE8CCF8E9CDF9EACEFAEBCFFBA7
:1030960012336985D0F05804700320D5B3E8047064
:1030A600075002B2D50233A892D5EC0460F7E4CCFF
:1030B600C0E0C398F8603B94186008400DD0E0FB70
:1030C600023380E4FBFAC9FC8028E830E406E4C950
:1030D600FBE4CAFCE830E305E4C9CACBFCE85407C4
:1030E6006010F8C3E913F9EA13FAEB13FBEC13FCCF
:1030F600D8F130F52FC3E49CFCEF9BFFEE9AFEED72
:1031060099FDD0E0FBEF4E4D4C701222DB030233EB
:10311600A5EC2CFCEF33FFEE33FEED33FDED30E78F
:10312600EB023380EF2BFFEE3AFEED39FDD0E0FBEC
:1031360050130BBB00030233A8ED13FDEE13FEEF95
:0831460013FFEC13FC023380BF
:10314E00EC4D6011E8497017ED33EC3304600DE47B
:10315E00FCFFFEFD22E933E8330470F802339E12C1
:10316E00336958046009E4CC2481500628500902C2
:10317E0033A82840030233A5C0E0EB4A7044B9805F
:10318E0006D0E0FB023394EF4E701CBD8008EBFFBF
:10319E00EAFEE9FD80EBE98DF0A4FEE5F0023237A0
:1031AE00E9CDF9EAFEEBFFEF89F0A4FCE5F0CE895C
:1031BE00F0A42EFFE435F0CD89F0A42DFEE435F019
:1031CE008067EF4E7005BD80D780C3EF8BF0A4AC47
:1031DE00F0EE8BF0A42CFCE435F0F8EF8AF0A42C82
:1031EE00E5F038FCE433CB8DF0A42CFCE5F03BF895
:1031FE00EE8AF0A42CFCE5F038F8E433CF89F0A485
:10320E002CFCE5F038CF3400CE89F0A42FFFE5F08A
:10321E003EFEE433C98DF0A42EFEE5F039CD8AF0E2
:10322E00A42FFFE5F03EFEE43DFD33D0E0FB50075A
:10323E000BBB000F0233A8EC2CFCEF33FFEE33FE7A
:06324E00ED33FD023380A8
:103254000233A8EC5D046005E85904700302339E50
:10326400123369580460F6EC4860F2EC7004FDFE19
:10327400FF22C860DB2481C85009C398600250064D
:103284000233A59850CAF582E9294B4A7005AB82EE
:1032940002339475F0007C1A7880C3EF9BEE9AEDAC
:1032A40099400DC3EF9BFFEE9AFEED99FDE842F0C5
:1032B400DC23ACF0D0E0FFD0E0FED0E0FDAB822018
:1032C400E7101BEB60BAEC2CFCEF33FFEE33FEEDA2
:1032D40033FD023380E803F830E705C0F075F000F1
:1032E400EF2FFFEE33FEED33FD40B830E7C280AA86
:1032F40075F020800E75F010800575F0087D007E55
:10330400007F003392D530D503123566EC3340107C
:10331400EF33FFEE33FEED33FDEC33FCD5F0ED225D
:0E332400E5F0247EA2D513CC92E7CDCEFF2299
:10333200EDD2E7CD33EC3392D524814006E4FFFE93
:10334200FDFC22FCE4CFCECDCC24E0501174FF80F2
:10335200EDC3CC13CCCD13CDCE13CECF13CF04708F
:07336200F030D5DE023566F4
:10336900E9D2E7C933E833F892D5EDD2E7CD33ECAA
:0733790033FC5002B2D52223
:10338000EC30E7100FBF000C0EBE00080DBD0004AE
:103390000BEB6014A2D5EB13FCED92E7FD2274FF5A
:1033A000FCFDFEFF22E480F8A2D574FF13FC7D80B3
:0333B000E480EFC7
:104AF3000251E0E493A3F8E493A34003F68001F2A8
:104B030008DFF48029E493A3F85407240CC8C333C3
:104B1300C4540F4420C8834004F456800146F6DF92
:104B2300E4800B0102040810204080903693E47E59
:104B3300019360BCA3FF543F30E509541FFEE49387
:104B4300A360010ECF54C025E060A840B8E493A34E
:104B5300FAE493A3F8E493A3C8C582C8CAC583CA79
:104B6300F0A3C8C582C8CAC583CADFE9DEE780BE31
:013993000033
:1033B300E709F608DFFA8046E709F208DFFA803EFC
:1033C30088828C83E709F0A3DFFA8032E309F608E9
:1033D300DFFA8078E309F208DFFA807088828C8351
:1033E300E309F0A3DFFA806489828A83E0A3F60805
:1033F300DFFA805889828A83E0A3F208DFFA804CDF
:1034030080D280FA80C680D4806980F280338010B5
:1034130080A680EA809A80A880DA80E280CA80331E
:1034230089828A83ECFAE493A3C8C582C8CCC58396
:10343300CCF0A3C8C582C8CCC583CCDFE9DEE78066
:103443000D89828A83E493A3F608DFF9ECFAA9F0E5
:10345300EDFB2289828A83ECFAE0A3C8C582C8CC3B
:10346300C583CCF0A3C8C582C8CCC583CCDFEADE54
:10347300E880DB89828A83E493A3F208DFF980CCB6
:1034830088F0EF60010E4E60C388F0ED2402B404AF
:103493000050B9F582EB2402B4040050AF23234556
:0634A30082239034037344
:1034A900BB010689828A83E0225002E722BBFE0221
:0934B900E32289828A83E4932254
:1034C200BB010CE58229F582E5833AF583E02250BF
:1034D20006E92582F8E622BBFE06E92582F8E22209
:0D34E200E58229F582E5833AF583E4932223
:1034EF00EF8DF0A4A8F0CF8CF0A428CE8DF0A42EF1
:0234FF00FE22AB
:10350100A3F8E0C5F025F0F0E5821582700215837D
:06351100E0C838F0E822DA
:10351700E88FF0A4CC8BF0A42CFCE98EF0A42CFC53
:103527008AF0EDA42CFCEA8EF0A4CDA8F08BF0A4D1
:103537002DCC3825F0FDE98FF0A42CCD35F0FCEB30
:103547008EF0A4FEA9F0EB8FF0A4CFC5F02ECD39F5
:0F355700FEE43CFCEAA42DCE35F0FDE43CFC2262
:104E9100C2D5E830E70FB2D5E4C39BFBE49AFAE44C
:104EA10099F9E498F8EC30E717B2D5124EC71236EB
:104EB10001E4C39BFBE49AFAE499F9E498F88003CE
:104EC10012360130D50DE4C39FFFE49EFEE49DFD43
:044ED100E49CFC223F
:0E356600C3E49FFFE49EFEE49DFDE49CFC2276
:10357400E86010ECA2E713FCED13FDEE13FEEF136D
:04358400FFD8F0225A
:0C358800ECF0A3EDF0A3EEF0A3EFF022B6
:10359400A8828583F0D083D0821235AB1235AB126A
:1035A40035AB1235ABE473E493A3C583C5F0C5838F
:1035B400C8C582C8F0A3C583C5F0C583C8C582C881
:0135C40022E4
:1035C50075F008758200EF2FFFEE33FECD33CDCCBD
:1035D50033CCC58233C5829BED9AEC99E582984040
:1035E5000CF582EE9BFEED9AFDEC99FC0FD5F0D61D
:1035F500E4CEFBE4CDFAE4CCF9A88222B800C1B947
:103605000059BA002DEC8BF084CFCECDFCE5F0CB84
:10361500F97818EF2FFFEE33FEED33FDEC33FCEBBD
:1036250033FB10D703994004EB99FB0FD8E5E4F978
:10363500FA227818EF2FFFEE33FEED33FDEC33FC65
:10364500C933C910D7059BE99A4007EC9BFCE99A59
:10365500F90FD8E0E4C9FAE4CCFB2275F010EF2F9E
:10366500FFEE33FEED33FDCC33CCC833C810D7079E
:103675009BEC9AE899400AED9BFDEC9AFCE899F8D9
:0E3685000FD5F0DAE4CDFBE4CCFAE4C8F9226C
:00000001FF
