:0300000002504D5E
:0C504D00787FE4F6D8FD75814102509494
:10572A00E4900645F0125A0B125701125885125A84
:10573A007F124FAC900645EFF06002B2E91248FAC8
:08574A0012515212462B80E6B9
:095AD900125A70125A70C28422A4
:0550D90090072EEFF02E
:1050DE00E4A3F0A3F0125A417F01125AEB7FFC12A7
:1050EE005AEB7F01125AEB7F01125AEB90072EE01A
:1050FE00FF125AEB125A619002F4E070037FFF2206
:10510E009002F4E0FF90072FE0FCA3E0FDC39F7434
:10511E0080F8EC648098501F74E02DF58274023C88
:10512E00F583E0FF125AE2900730E004F070D19060
:10513E00072FE004F080C99002E2E0B401037F0182
:03514E00227FFFBE
:01515100223B
:1055AA00125A417F01125AEB7FFC125AEB7F021208
:1055BA005AEBE4FF125AEB125A619002F4E06405C6
:1055CA0060037FFF229002E3E0B40104A3E0FF221C
:0355DA007FFF222E
:0C0016007F547EF77D18DDFEDEFCDFFA73
:0100220022BB
:0E5A610000007F027EAF7D4BDDFEDEFCDFFA33
:015A6F002214
:0E5A700000007F0D7E9C7D53DDFEDEFCDFFA24
:015A7E002205
:0E5A7F0000007F017ED87D23DDFEDEFCDFFA15
:015A8D0022F6
:0E5A8E0000007F2B7E067DCBDDFEDEFCDFFA06
:015A9C0022E7
:0E5A9D0000007FFD7E237DDCDDFEDEFCDFFAF7
:015AAB0022D8
:0E5AAC0000007F117ED07D1BDDFEDEFCDFFAE8
:015ABA0022C9
:0E5ABB0000007F057E347DC3DDFEDEFCDFFAD9
:015AC90022BA
:040006007F0EDFFE8C
:01000A0022D3
:0E5ACA0000007F097E687D8BDDFEDEFCDFFACA
:015AD80022AB
:1044B9004E4F5420205265616420434D440A002028
:1044C900696E64795F7265616474656D7020737477
:1044D900617274200D0A0020696E64795F726561EA
:1044E9006474656D7020656E64200D0A00240349AB
:1044F900006D00700069006E006A0053006500726B
:1045090000690061006C004E0075006D00300031DB
:10451900004003BFFCBFFCBFFC00000100120021EA
:10452900000000100000000000000005000000006D
:10453900000000060000000000000010000000005C
:10454900000000110088E1F3C000000000F000063F
:1045590002000001001200210000000200A000A0DA
:1045690002000000030000000000000200A000A0FB
:10457900020000611B0206000000000500000000A7
:104589000000000207010000000000050000000013
:1045990000000004070000000000000507D0070024
:1045A9000000000607DC00000000000707002000EB
:1045B900000000120BFFFF0F0000000500000000C3
:1045C90000000000050000000000000005000000D8
:1045D90000000000060000000000000005000000C7
:1045E90000000000050000000000000006000000B7
:1045F9000000010000000200000027000000872ED3
:104609000D0001000100020000008F2E0D000000C6
:104619000000000005000000000000000600000086
:0246290000008F
:08378F00410691FF4106920082
:0B51B9007B027F047A00E4FDFC7E0A0C
:1051C400900711EEF0A3EFF0A3ECF0A3EDF0A3EA47
:1051D400F0A3EBF07F01125AE2E4FF125AE29007C7
:1051E40011A3E0FF125AE2900711E0FF125AE29075
:1051F4000715A3E0FF125AE2900715E0FF125AE2E6
:10520400900713A3E0FF125AE2900713E0FF025A3B
:01521400E2B7
:10553D00900740EEF0A3EFF0E4FF125AE2E4FF1201
:10554D005AE2900740A3E0FF125AE2900740E0FFB5
:10555D00125AE2E4FF125AE2E4FF125AE2E4FF1299
:07556D005AE2E4FF025AE2DA
:104A0900E4FF900671E0900694F0E4900693F0902C
:104A19000693E0FEFD3395E0FC74722DF582740671
:104A29003CF583E0FDEEFB3395E0FA74952BF582B6
:104A390074063AF583EDF0900693E004F0E0B40CC7
:104A4900CEE4900693F0900693E0FEFD3395E0FCEA
:104A5900747E2DF58274063CF583E0FDEEFB3395FB
:104A6900E0FA74A12BF58274063AF583EDF090060D
:104A790093E004F0E0B402CE900693740FF0900630
:104A890093E0FEC3648094A0501AEEFD3395E0FCD8
:104A990074942DF58274063CF583E4F0900693E056
:104AA90004F080DAE4900693F0900693E0FEC36484
:104AB9008094A0501BEEFD3395E0FC74942DF58293
:104AC90074063CF583E02FFF900693E004F080D94B
:104AD900EF9006B3F0E4900693F0900693E0FFC3DD
:104AE900648094A0501CEF3395E0FE74942FF582F6
:104AF90074063EF583E0FF125AEB900693E004F04A
:024B090080D852
:014B0B002287
:10521500E4900671F0FFEFFD3395E0FC74722DF517
:105225008274063CF583E4F00FEFB40CE9E4FFEF7C
:10523500FD3395E0FC747E2DF58274063CF583E420
:10524500F00FEFB402E9E4FFC3EF648094805015DA
:10525500EFFD3395E0FC74802DF58274063CF583F3
:0A526500E4F00F80E3E4900690F0FF
:01526F00221C
:103D49009006B67401F0E4A3F0A3F074FFA3F0A306
:103D5900F0E4A3F0A3F0A3F0A3F0A3F0A3F0A3F081
:103D6900A3F0A3F0A3F0A3F0A37412F0E4A3F0C2AC
:103D790008C209A3F09006BBE0FEA3E024F7F58290
:103D890074023EF583E064016003023FDF9006BBE5
:103D9900A3E0FF24F8F58274023EF583E09006C89B
:103DA900F074FA2FF58274023EF583E0FE9006BBAB
:103DB900E0FCA3E0FD24F9F58274023CF583E07A86
:103DC900002400FFEA3E9006B9F0A3EFF074FC2D41
:103DD900F58274023CF583E0FE9006BBA3E024FB68
:103DE900F58274023CF583E02400FFEA3E9006B7B1
:103DF900F0A3EFF0ED2408FFE43C9006BDF0FCA32E
:103E0900EFF0FD9006B7E0FAA3E0FBAE027802C33B
:103E190033CE33CED8F92DFFEE3C9006BFF0A3EF99
:103E2900F0EB2402FFE43AFEEF7802C333CE33CE3F
:103E3900D8F9FF9006BCE02FF09006BBE03EF09069
:103E490006B9E07004A3E0640570619006BEE02441
:103E59000EFE9006BDE034009006C1F0A3CEF0E45A
:103E69009006B4F0A3F09006B4E0FEA3E0FF90063C
:103E7900C2E02FFD9006C1E03EFC74F72DF5827477
:103E8900023CF583E0FD74722FF582E43406F58374
:103E9900EDF09006B5E004F070069006B4E004F089
:103EA9009006B4E07004A3E0640C70BA9006B9E01F
:103EB9007004A3E064066003023D7E9006C8E060DA
:103EC90003023FDF9006BDE0FEA3E0FF24FBF5827D
:103ED90074023EF583E064C26003023FD3EF240C11
:103EE900FFE43E9006C3F0A3EFF0900671E024FED4
:103EF900605C147003023FA624026003023FC9E418
:103F09009006B4F0A3F09006B4E0FEA3E0FF90069B
:103F1900C4E02FFD9006C3E03EFC74F72DF58274D2
:103F2900023CF583E0FD747E2FF582E43406F583C7
:103F3900EDF09006B5E004F070069006B4E004F0E8
:103F49009006B4E07004A3E0640270BA8069E4905A
:103F590006B4F0A3F09006B4E0FEA3E0FF9006C417
:103F6900E02FFD9006C3E03EFC74F72DF582740244
:103F79003CF583E0FD747E2FF582E43406F583ED8C
:103F8900F09006B5E004F070069006B4E004F090F5
:103F990006B4E07004A3E0640270BA801AE49006E3
:103FA9007EF09006C3E0FEA3E024F8F58274023E99
:103FB900F583E090067FF0900692E004F0023D7EE2
:103FC900E4900691F0A3F0023D7E7BFF7A4479B933
:063FD900125610023D7EAD
:013FDF0022BF
:1053F800E4900742F0A3F0FBFAFDFC7F027E0A125C
:1054080051C47B0C7F031251BD1251B9E4FBFAFD64
:10541800FC7F067E0A1251C47B107A00E4FDFCFF73
:105428007EF01251C41200169002F7E0B40107C2D0
:06543800AC123D49D2ACAC
:01543E00224B
:10531500E4900744F0A3F0FBFAFDFC7F027E0A123D
:1053250051C47B0D7A00E4FDFC7F037E0A1251C453
:105335001251B9E4FBFAFDFC7F067E0A1251C47BCB
:10534500087A00E4FDFCFF7EF01251C412001690AD
:0D53550002F7E0B40107C2AC123D49D2AC32
:015362002228
:104CE100E4900722F0A3F07BFF7A4479C8125610B2
:104CF100E4FBFAFDFC7F027E0A1251C47B0E7A00AE
:104D0100E4FDFC7F037E0A1251C41251B9E4FBFA9F
:104D1100FDFC7F067E0A1251C47B077A00E4FDFC8C
:104D2100FF7EF01251C412597E1200169004EBA3BB
:104D3100E0FF125AEB9004EBE0FFA3E0900722CFD3
:104D4100F0A3EFF07F55125AEB900722A3E0FF1278
:104D51005AEBE4900724F0A3F0900722E0FEA3E0D1
:104D6100FFA3E0FCA3E0FDC39FEE6480F8EC648048
:104D710098501F74F72DF58274023CF583E0FF1201
:104D81005AEB900725E004F07006900724E004F048
:104D910080C79002F7E0B40107C2AC123D49D2AC22
:094DA1007BFF7A4479E002561010
:10548300E4FF9002E0E060379002F4E0C394085038
:1054930003E4FE22E4FEEEFD3395E0FC74E02DF51B
:1054A3008274023CF583E02FFF0EEEB407E890020E
:1054B300E7E0B507057E007F0122125A418000E430
:0254C300FEFFEA
:0154C50022C4
:10009E00EF14B42200400302233C9000B675F00327
:1000AE00A4C58325F0C5837302011C02012502013C
:1000BE002E0201300201320203A902013502014370
:1000CE0002015102015F02016D02017B02018F02EA
:1000DE0001A30201B70201F302020702026B020240
:1000EE007F0202930202A70202BB0202CF02233C4E
:1000FE0002030B0203470203A902035B02039602EB
:10010E0003A90203BC0203D40203A90203FC7FC0AD
:10011E00125AE27F0680337F40125AE27F03802A12
:10012E00802F8003020347E4FF125AE2E4FF125AC3
:10013E00E27F108058E4FF125AE2E4FF125AE27F87
:10014E0011804AE4FF125AE2E4FF125AE2E4FF8001
:10015E003CE4FF125AE2E4FF125AE27F01802EE4E1
:10016E00FF125AE2E4FF125AE27F028020E4FF12ED
:10017E005AE2E4FF125AE2E4FF125AE27F0302034C
:10018E00E5E4FF125AE2E4FF125AE27F02125AE24B
:10019E00E4FF0203E5E4FF125AE2E4FF125AE27FA3
:1001AE0061125AE27F1B0203E57F01125AE2E4FF5D
:1001BE00125AE27F01125AE27F07125AE2E4FF124C
:1001CE005AE2E4FF125AE2E4FF125AE2E4FF125A34
:1001DE00E2E4FF125AE2E4FF125AE27F05125AE2FB
:1001EE00E4FF0203E5E4FF125AE2E4FF125AE27F53
:1001FE0002125AE27F070203E57F01125AE2E4FF80
:10020E00125AE27F02125AE27F07125AE27F01125D
:10021E005AE2E4FF125AE2E4FF125AE2E4FF125AE3
:10022E00E27F01125AE2E4FF125AE27F01125AE211
:10023E007F07125AE2E4FF125AE2E4FF125AE2E496
:10024E00FF125AE2E4FF125AE2E4FF125AE2E4FF0E
:10025E00125AE27F05125AE2E4FF0203E5E4FF12AE
:10026E005AE2E4FF125AE27F04125AE27F070203B7
:10027E00E5E4FF125AE2E4FF125AE27F05125AE257
:10028E007F070203E5E4FF125AE2E4FF125AE27F0F
:10029E0006125AE27F070203E5E4FF125AE2E4FF78
:1002AE00125AE27F07125AE27F070203E5E4FF12B9
:1002BE005AE2E4FF125AE27F12125AE27F0B020355
:1002CE00E57F01125AE2E4FF125AE27F01125AE26E
:1002DE007F07125AE2E4FF125AE2E4FF125AE2E4F6
:1002EE00FF125AE2E4FF125AE2E4FF125AE2E4FF6E
:1002FE00125AE27F05125AE2E4FF0203E57F011271
:10030E005AE2E4FF125AE27F0A125AE27F01125AAF
:10031E00E27FF8125AE27F59125AE27F0D125AE228
:10032E00E4FF125AE2E4FF125AE2E4FF125AE27FAD
:10033E0005125AE2E4FF0203E5E4FF125AE2E4FF7B
:10034E00125AE27F05125AE2E4FF0203E57F011220
:10035E005AE2E4FF125AE27F08125AE27F01125A61
:10036E00E27F01125AE27F01125AE2E4FF125AE2D0
:10037E00E4FF125AE2E4FF125AE2E4FF125AE27F5D
:10038E0005125AE2E4FF804FE4FF125AE2E4FF1234
:10039E005AE27F05125AE2E4FF803CE4FF125AE271
:1003AE00E4FF125AE27F06125AE2E4FF80297F012F
:1003BE00125AE2E4FF125AE2E4FF125AE27FF012FE
:1003CE005AE27F278016E4FF125AE2E4FF125AE245
:1003DE007F05125AE2E4FF125AE2E4FF125AE2E4F7
:1003EE00FF125AE2E4FF125AE2E4FF0223397F01C0
:1003FE00125AE2E4FF125AE27F01125AE27F0C1205
:10040E005AE2E4FF125AE2E4FF125AE2E4FF125AF1
:10041E00E2E4FF125AE27F01125AE2E4FF125AE2BC
:10042E007F02125AE27F0C125AE27F01125AE2E464
:10043E00FF125AE2E4FF125AE2E4FF125AE27F017F
:10044E00125AE2E4FF125AE27F03125AE27F0C12B2
:10045E005AE27F70125AE27F0D125AE27F18125A38
:10046E00E2E4FF125AE27F01125AE2E4FF125AE26C
:10047E007F04125AE27F0C125AE2E4FF125AE27F14
:10048E0001125AE27F07125AE27F14125AE27F01DA
:10049E00125AE2E4FF125AE27F01125AE27F0C1264
:1004AE005AE27F01125AE2E4FF125AE2E4FF125AB4
:1004BE00E2E4FF125AE27F01125AE2E4FF125AE21C
:1004CE007F02125AE27F0C125AE27F01125AE2E4C4
:1004DE00FF125AE2E4FF125AE2E4FF125AE27F01DF
:1004EE00125AE2E4FF125AE27F03125AE27F0C1212
:1004FE005AE27F84125AE27F0D125AE27F18125A84
:10050E00E2E4FF125AE27F01125AE2E4FF125AE2CB
:10051E007F04125AE27F0C125AE2E4FF125AE27F73
:10052E0001125AE27F07125AE27F14125AE27F0139
:10053E00125AE2E4FF125AE27F01125AE27F0C12C3
:10054E005AE27F02125AE2E4FF125AE2E4FF125A12
:10055E00E2E4FF125AE27F01125AE2E4FF125AE27B
:10056E007F02125AE27F0C125AE27F01125AE2E423
:10057E00FF125AE2E4FF125AE2E4FF125AE27F013E
:10058E00125AE2E4FF125AE27F03125AE27F0C1271
:10059E005AE27F98125AE27F0D125AE27F18125ACF
:1005AE00E2E4FF125AE27F01125AE2E4FF125AE22B
:1005BE007F04125AE27F0C125AE2E4FF125AE27FD3
:1005CE0001125AE27F07125AE27F14125AE27F0199
:1005DE00125AE2E4FF125AE27F01125AE27F0C1223
:1005EE005AE27F03125AE2E4FF125AE2E4FF125A71
:1005FE00E2E4FF125AE27F01125AE2E4FF125AE2DB
:10060E007F02125AE27F0C125AE27F01125AE2E482
:10061E00FF125AE2E4FF125AE2E4FF125AE27F019D
:10062E00125AE2E4FF125AE27F03125AE27F0C12D0
:10063E005AE27FAC125AE27F0D125AE27F18125A1A
:10064E00E2E4FF125AE27F01125AE2E4FF125AE28A
:10065E007F04125AE27F0C125AE2E4FF125AE27F32
:10066E0001125AE27F07125AE27F14125AE27F01F8
:10067E00125AE2E4FF125AE27F01125AE27F0C1282
:10068E005AE27F04125AE2E4FF125AE2E4FF125ACF
:10069E00E2E4FF125AE27F01125AE2E4FF125AE23A
:1006AE007F02125AE27F0C125AE27F01125AE2E4E2
:1006BE00FF125AE2E4FF125AE2E4FF125AE27F01FD
:1006CE00125AE2E4FF125AE27F03125AE27F0C1230
:1006DE005AE27FC0125AE27F0D125AE27F18125A66
:1006EE00E2E4FF125AE27F01125AE2E4FF125AE2EA
:1006FE007F04125AE27F0C125AE2E4FF125AE27F92
:10070E0001125AE27F07125AE27F14125AE27F0157
:10071E00125AE2E4FF125AE27F01125AE27F0C12E1
:10072E005AE27F05125AE2E4FF125AE2E4FF125A2D
:10073E00E2E4FF125AE27F01125AE2E4FF125AE299
:10074E007F02125AE27F0C125AE27F01125AE2E441
:10075E00FF125AE2E4FF125AE2E4FF125AE27F015C
:10076E00125AE2E4FF125AE27F03125AE27F0C128F
:10077E005AE27FD4125AE27F0D125AE27F18125AB1
:10078E00E2E4FF125AE27F01125AE2E4FF125AE249
:10079E007F04125AE27F0C125AE2E4FF125AE27FF1
:1007AE0001125AE27F07125AE27F14125AE27F01B7
:1007BE00125AE2E4FF125AE27F01125AE27F0C1241
:1007CE005AE27F06125AE2E4FF125AE2E4FF125A8C
:1007DE00E2E4FF125AE27F01125AE2E4FF125AE2F9
:1007EE007F02125AE27F0C125AE27F01125AE2E4A1
:1007FE00FF125AE2E4FF125AE2E4FF125AE27F01BC
:10080E00125AE2E4FF125AE27F03125AE27F0C12EE
:10081E005AE27FE8125AE27F0D125AE27F18125AFC
:10082E00E2E4FF125AE27F01125AE2E4FF125AE2A8
:10083E007F04125AE27F0C125AE2E4FF125AE27F50
:10084E0001125AE27F07125AE27F14125AE27F0116
:10085E00125AE2E4FF125AE27F01125AE27F0C12A0
:10086E005AE27F07125AE2E4FF125AE2E4FF125AEA
:10087E00E2E4FF125AE27F01125AE2E4FF125AE258
:10088E007F02125AE27F0C125AE27F01125AE2E400
:10089E00FF125AE2E4FF125AE2E4FF125AE27F011B
:1008AE00125AE2E4FF125AE27F03125AE27F0C124E
:1008BE005AE27FFC125AE27F0D125AE27F18125A48
:1008CE00E2E4FF125AE27F01125AE2E4FF125AE208
:1008DE007F04125AE27F0C125AE2E4FF125AE27FB0
:1008EE0001125AE27F07125AE27F14125AE27F0176
:1008FE00125AE2E4FF125AE27F01125AE27F0C1200
:10090E005AE27F08125AE2E4FF125AE2E4FF125A48
:10091E00E2E4FF125AE27F01125AE2E4FF125AE2B7
:10092E007F02125AE27F0C125AE27F01125AE2E45F
:10093E00FF125AE2E4FF125AE2E4FF125AE27F017A
:10094E00125AE2E4FF125AE27F03125AE27F0C12AD
:10095E005AE27F10125AE27F0E125AE27F18125A92
:10096E00E2E4FF125AE27F01125AE2E4FF125AE267
:10097E007F04125AE27F0C125AE2E4FF125AE27F0F
:10098E0001125AE27F07125AE27F14125AE27F01D5
:10099E00125AE2E4FF125AE27F01125AE27F0C125F
:1009AE005AE27F09125AE2E4FF125AE2E4FF125AA7
:1009BE00E2E4FF125AE27F01125AE2E4FF125AE217
:1009CE007F02125AE27F0C125AE27F01125AE2E4BF
:1009DE00FF125AE2E4FF125AE2E4FF125AE27F01DA
:1009EE00125AE2E4FF125AE27F03125AE27F0C120D
:1009FE005AE27F24125AE27F0E125AE27F18125ADE
:100A0E00E2E4FF125AE27F01125AE2E4FF125AE2C6
:100A1E007F04125AE27F0C125AE2E4FF125AE27F6E
:100A2E0001125AE27F07125AE27F14125AE27F0134
:100A3E00125AE2E4FF125AE27F01125AE27F0C12BE
:100A4E005AE27F0A125AE2E4FF125AE2E4FF125A05
:100A5E00E2E4FF125AE27F01125AE2E4FF125AE276
:100A6E007F02125AE27F0C125AE27F01125AE2E41E
:100A7E00FF125AE2E4FF125AE2E4FF125AE27F0139
:100A8E00125AE2E4FF125AE27F03125AE27F0C126C
:100A9E005AE27F38125AE27F0E125AE27F18125A29
:100AAE00E2E4FF125AE27F01125AE2E4FF125AE226
:100ABE007F04125AE27F0C125AE2E4FF125AE27FCE
:100ACE0001125AE27F07125AE27F14125AE27F0194
:100ADE00125AE2E4FF125AE27F01125AE27F0C121E
:100AEE005AE27F0B125AE2E4FF125AE2E4FF125A64
:100AFE00E2E4FF125AE27F01125AE2E4FF125AE2D6
:100B0E007F02125AE27F0C125AE27F01125AE2E47D
:100B1E00FF125AE2E4FF125AE2E4FF125AE27F0198
:100B2E00125AE2E4FF125AE27F03125AE27F0C12CB
:100B3E005AE27F4C125AE27F0E125AE27F18125A74
:100B4E00E2E4FF125AE27F01125AE2E4FF125AE285
:100B5E007F04125AE27F0C125AE2E4FF125AE27F2D
:100B6E0001125AE27F07125AE27F14125AE27F01F3
:100B7E00125AE2E4FF125AE27F01125AE27F0C127D
:100B8E005AE27F0C125AE2E4FF125AE2E4FF125AC2
:100B9E00E2E4FF125AE27F01125AE2E4FF125AE235
:100BAE007F02125AE27F0C125AE27F01125AE2E4DD
:100BBE00FF125AE2E4FF125AE2E4FF125AE27F01F8
:100BCE00125AE2E4FF125AE27F03125AE27F0C122B
:100BDE005AE27F60125AE27F0E125AE27F18125AC0
:100BEE00E2E4FF125AE27F01125AE2E4FF125AE2E5
:100BFE007F04125AE27F0C125AE2E4FF125AE27F8D
:100C0E0001125AE27F07125AE27F14125AE27F0152
:100C1E00125AE2E4FF125AE27F01125AE27F0C12DC
:100C2E005AE27F0D125AE2E4FF125AE2E4FF125A20
:100C3E00E2E4FF125AE27F01125AE2E4FF125AE294
:100C4E007F02125AE27F0C125AE2E4FF125AE2E4D9
:100C5E00FF125AE2E4FF125AE2E4FF125AE27F0157
:100C6E00125AE2E4FF125AE27F03125AE27F0C128A
:100C7E005AE27F60125AE27F0E125AE27F18125A1F
:100C8E00E2E4FF125AE27F01125AE2E4FF125AE244
:100C9E007F04125AE27F0C125AE2E4FF125AE27FEC
:100CAE0001125AE27F07125AE27F14125AE27F01B2
:100CBE00125AE2E4FF125AE27F01125AE27F0C123C
:100CCE005AE27F0E125AE2E4FF125AE2E4FF125A7F
:100CDE00E2E4FF125AE27F01125AE2E4FF125AE2F4
:100CEE007F02125AE27F0C125AE2E4FF125AE2E439
:100CFE00FF125AE2E4FF125AE2E4FF125AE27F01B7
:100D0E00125AE2E4FF125AE27F03125AE27F0C12E9
:100D1E005AE27F60125AE27F0E125AE27F18125A7E
:100D2E00E2E4FF125AE27F01125AE2E4FF125AE2A3
:100D3E007F04125AE27F0C125AE2E4FF125AE27F4B
:100D4E0001125AE27F07125AE27F14125AE27F0111
:100D5E00125AE2E4FF125AE27F01125AE27F0C129B
:100D6E005AE27F0F125AE2E4FF125AE2E4FF125ADD
:100D7E00E2E4FF125AE27F01125AE2E4FF125AE253
:100D8E007F02125AE27F0C125AE2E4FF125AE2E498
:100D9E00FF125AE2E4FF125AE2E4FF125AE27F0116
:100DAE00125AE2E4FF125AE27F03125AE27F0C1249
:100DBE005AE27F60125AE27F0E125AE27F18125ADE
:100DCE00E2E4FF125AE27F01125AE2E4FF125AE203
:100DDE007F04125AE27F0C125AE2E4FF125AE27FAB
:100DEE0001125AE27F07125AE27F14125AE27F0171
:100DFE00125AE2E4FF125AE27F01125AE27F0C12FB
:100E0E005AE27F10125AE2E4FF125AE2E4FF125A3B
:100E1E00E2E4FF125AE27F01125AE2E4FF125AE2B2
:100E2E007F02125AE27F0C125AE2E4FF125AE2E4F7
:100E3E00FF125AE2E4FF125AE2E4FF125AE27F0175
:100E4E00125AE2E4FF125AE27F03125AE27F0C12A8
:100E5E005AE27F60125AE27F0E125AE27F18125A3D
:100E6E00E2E4FF125AE27F01125AE2E4FF125AE262
:100E7E007F04125AE27F0C125AE2E4FF125AE27F0A
:100E8E0001125AE27F07125AE27F14125AE27F01D0
:100E9E00125AE2E4FF125AE27F01125AE27F0C125A
:100EAE005AE27F11125AE2E4FF125AE2E4FF125A9A
:100EBE00E2E4FF125AE27F01125AE2E4FF125AE212
:100ECE007F02125AE27F0C125AE2E4FF125AE2E457
:100EDE00FF125AE2E4FF125AE2E4FF125AE27F01D5
:100EEE00125AE2E4FF125AE27F03125AE27F0C1208
:100EFE005AE27F60125AE27F0E125AE27F18125A9D
:100F0E00E2E4FF125AE27F01125AE2E4FF125AE2C1
:100F1E007F04125AE27F0C125AE2E4FF125AE27F69
:100F2E0001125AE27F07125AE27F14125AE27F012F
:100F3E00125AE2E4FF125AE27F01125AE27F0C12B9
:100F4E005AE27F12125AE2E4FF125AE2E4FF125AF8
:100F5E00E2E4FF125AE27F01125AE2E4FF125AE271
:100F6E007F02125AE27F0C125AE2E4FF125AE2E4B6
:100F7E00FF125AE2E4FF125AE2E4FF125AE27F0134
:100F8E00125AE2E4FF125AE27F03125AE27F0C1267
:100F9E005AE27F60125AE27F0E125AE27F18125AFC
:100FAE00E2E4FF125AE27F01125AE2E4FF125AE221
:100FBE007F04125AE27F0C125AE2E4FF125AE27FC9
:100FCE0001125AE27F07125AE27F14125AE27F018F
:100FDE00125AE2E4FF125AE27F01125AE27F0C1219
:100FEE005AE27F13125AE2E4FF125AE2E4FF125A57
:100FFE00E2E4FF125AE27F01125AE2E4FF125AE2D1
:10100E007F02125AE27F0C125AE2E4FF125AE2E415
:10101E00FF125AE2E4FF125AE2E4FF125AE27F0193
:10102E00125AE2E4FF125AE27F03125AE27F0C12C6
:10103E005AE27F60125AE27F0E125AE27F18125A5B
:10104E00E2E4FF125AE27F01125AE2E4FF125AE280
:10105E007F04125AE27F0C125AE2E4FF125AE27F28
:10106E0001125AE27F07125AE27F14125AE27F01EE
:10107E00125AE2E4FF125AE27F01125AE27F0C1278
:10108E005AE27F14125AE2E4FF125AE2E4FF125AB5
:10109E00E2E4FF125AE27F01125AE2E4FF125AE230
:1010AE007F02125AE27F0C125AE2E4FF125AE2E475
:1010BE00FF125AE2E4FF125AE2E4FF125AE27F01F3
:1010CE00125AE2E4FF125AE27F03125AE27F0C1226
:1010DE005AE27F60125AE27F0E125AE27F18125ABB
:1010EE00E2E4FF125AE27F01125AE2E4FF125AE2E0
:1010FE007F04125AE27F0C125AE2E4FF125AE27F88
:10110E0001125AE27F07125AE27F14125AE27F014D
:10111E00125AE2E4FF125AE27F01125AE27F0C12D7
:10112E005AE27F15125AE2E4FF125AE2E4FF125A13
:10113E00E2E4FF125AE27F01125AE2E4FF125AE28F
:10114E007F02125AE27F0C125AE2E4FF125AE2E4D4
:10115E00FF125AE2E4FF125AE2E4FF125AE27F0152
:10116E00125AE2E4FF125AE27F03125AE27F0C1285
:10117E005AE27F60125AE27F0E125AE27F18125A1A
:10118E00E2E4FF125AE27F01125AE2E4FF125AE23F
:10119E007F04125AE27F0C125AE2E4FF125AE27FE7
:1011AE0001125AE27F07125AE27F14125AE27F01AD
:1011BE00125AE2E4FF125AE27F01125AE27F0C1237
:1011CE005AE27F16125AE2E4FF125AE2E4FF125A72
:1011DE00E2E4FF125AE27F01125AE2E4FF125AE2EF
:1011EE007F02125AE27F0C125AE2E4FF125AE2E434
:1011FE00FF125AE2E4FF125AE2E4FF125AE27F01B2
:10120E00125AE2E4FF125AE27F03125AE27F0C12E4
:10121E005AE27F60125AE27F0E125AE27F18125A79
:10122E00E2E4FF125AE27F01125AE2E4FF125AE29E
:10123E007F04125AE27F0C125AE2E4FF125AE27F46
:10124E0001125AE27F07125AE27F14125AE27F010C
:10125E00125AE2E4FF125AE27F01125AE27F0C1296
:10126E005AE27F17125AE2E4FF125AE2E4FF125AD0
:10127E00E2E4FF125AE27F01125AE2E4FF125AE24E
:10128E007F02125AE27F0C125AE2E4FF125AE2E493
:10129E00FF125AE2E4FF125AE2E4FF125AE27F0111
:1012AE00125AE2E4FF125AE27F03125AE27F0C1244
:1012BE005AE27F60125AE27F0E125AE27F18125AD9
:1012CE00E2E4FF125AE27F01125AE2E4FF125AE2FE
:1012DE007F04125AE27F0C125AE2E4FF125AE27FA6
:1012EE0001125AE27F07125AE27F14125AE27F016C
:1012FE00125AE2E4FF125AE27F01125AE27F0C12F6
:10130E005AE27F18125AE2E4FF125AE2E4FF125A2E
:10131E00E2E4FF125AE27F01125AE2E4FF125AE2AD
:10132E007F02125AE27F0C125AE2E4FF125AE2E4F2
:10133E00FF125AE2E4FF125AE2E4FF125AE27F0170
:10134E00125AE2E4FF125AE27F03125AE27F0C12A3
:10135E005AE27F60125AE27F0E125AE27F18125A38
:10136E00E2E4FF125AE27F01125AE2E4FF125AE25D
:10137E007F04125AE27F0C125AE2E4FF125AE27F05
:10138E0001125AE27F07125AE27F14125AE27F01CB
:10139E00125AE2E4FF125AE27F01125AE27F0C1255
:1013AE005AE27F19125AE2E4FF125AE2E4FF125A8D
:1013BE00E2E4FF125AE27F01125AE2E4FF125AE20D
:1013CE007F02125AE27F0C125AE2E4FF125AE2E452
:1013DE00FF125AE2E4FF125AE2E4FF125AE27F01D0
:1013EE00125AE2E4FF125AE27F03125AE27F0C1203
:1013FE005AE27F60125AE27F0E125AE27F18125A98
:10140E00E2E4FF125AE27F01125AE2E4FF125AE2BC
:10141E007F04125AE27F0C125AE2E4FF125AE27F64
:10142E0001125AE27F07125AE27F14125AE27F012A
:10143E00125AE2E4FF125AE27F01125AE27F0C12B4
:10144E005AE27F1A125AE2E4FF125AE2E4FF125AEB
:10145E00E2E4FF125AE27F01125AE2E4FF125AE26C
:10146E007F02125AE27F0C125AE2E4FF125AE2E4B1
:10147E00FF125AE2E4FF125AE2E4FF125AE27F012F
:10148E00125AE2E4FF125AE27F03125AE27F0C1262
:10149E005AE27F60125AE27F0E125AE27F18125AF7
:1014AE00E2E4FF125AE27F01125AE2E4FF125AE21C
:1014BE007F04125AE27F0C125AE2E4FF125AE27FC4
:1014CE0001125AE27F07125AE27F14125AE27F018A
:1014DE00125AE2E4FF125AE27F01125AE27F0C1214
:1014EE005AE27F1B125AE2E4FF125AE2E4FF125A4A
:1014FE00E2E4FF125AE27F01125AE2E4FF125AE2CC
:10150E007F02125AE27F0C125AE2E4FF125AE2E410
:10151E00FF125AE2E4FF125AE2E4FF125AE27F018E
:10152E00125AE2E4FF125AE27F03125AE27F0C12C1
:10153E005AE27F60125AE27F0E125AE27F18125A56
:10154E00E2E4FF125AE27F01125AE2E4FF125AE27B
:10155E007F04125AE27F0C125AE2E4FF125AE27F23
:10156E0001125AE27F07125AE27F14125AE27F01E9
:10157E00125AE2E4FF125AE27F01125AE27F0C1273
:10158E005AE27F1C125AE2E4FF125AE2E4FF125AA8
:10159E00E2E4FF125AE27F01125AE2E4FF125AE22B
:1015AE007F02125AE27F0C125AE2E4FF125AE2E470
:1015BE00FF125AE2E4FF125AE2E4FF125AE27F01EE
:1015CE00125AE2E4FF125AE27F03125AE27F0C1221
:1015DE005AE27F60125AE27F0E125AE27F18125AB6
:1015EE00E2E4FF125AE27F01125AE2E4FF125AE2DB
:1015FE007F04125AE27F0C125AE2E4FF125AE27F83
:10160E0001125AE27F07125AE27F14125AE27F0148
:10161E00125AE2E4FF125AE27F01125AE27F0C12D2
:10162E005AE27F1D125AE2E4FF125AE2E4FF125A06
:10163E00E2E4FF125AE27F01125AE2E4FF125AE28A
:10164E007F02125AE27F0C125AE2E4FF125AE2E4CF
:10165E00FF125AE2E4FF125AE2E4FF125AE27F014D
:10166E00125AE2E4FF125AE27F03125AE27F0C1280
:10167E005AE27F60125AE27F0E125AE27F18125A15
:10168E00E2E4FF125AE27F01125AE2E4FF125AE23A
:10169E007F04125AE27F0C125AE2E4FF125AE27FE2
:1016AE0001125AE27F07125AE27F14125AE27F01A8
:1016BE00125AE2E4FF125AE27F01125AE27F0C1232
:1016CE005AE27F1E125AE2E4FF125AE2E4FF125A65
:1016DE00E2E4FF125AE27F01125AE2E4FF125AE2EA
:1016EE007F02125AE27F0C125AE2E4FF125AE2E42F
:1016FE00FF125AE2E4FF125AE2E4FF125AE27F01AD
:10170E00125AE2E4FF125AE27F03125AE27F0C12DF
:10171E005AE27F60125AE27F0E125AE27F18125A74
:10172E00E2E4FF125AE27F01125AE2E4FF125AE299
:10173E007F04125AE27F0C125AE2E4FF125AE27F41
:10174E0001125AE27F07125AE27F14125AE27F0107
:10175E00125AE2E4FF125AE27F01125AE27F0C1291
:10176E005AE27F1F125AE2E4FF125AE2E4FF125AC3
:10177E00E2E4FF125AE27F01125AE2E4FF125AE249
:10178E007F02125AE27F0C125AE2E4FF125AE2E48E
:10179E00FF125AE2E4FF125AE2E4FF125AE27F010C
:1017AE00125AE2E4FF125AE27F03125AE27F0C123F
:1017BE005AE27F60125AE27F0E125AE27F18125AD4
:1017CE00E2E4FF125AE27F01125AE2E4FF125AE2F9
:1017DE007F04125AE27F0C125AE2E4FF125AE27FA1
:1017EE0001125AE27F07125AE27F14125AE27F0167
:1017FE00125AE2E4FF125AE27F01125AE27F0C12F1
:10180E005AE27F20125AE2E4FF125AE2E4FF125A21
:10181E00E2E4FF125AE27F01125AE2E4FF125AE2A8
:10182E007F02125AE27F0C125AE2E4FF125AE2E4ED
:10183E00FF125AE2E4FF125AE2E4FF125AE27F016B
:10184E00125AE2E4FF125AE27F03125AE27F0C129E
:10185E005AE27F60125AE27F0E125AE27F18125A33
:10186E00E2E4FF125AE27F01125AE2E4FF125AE258
:10187E007F04125AE27F0C125AE2E4FF125AE27F00
:10188E0001125AE27F07125AE27F14125AE27F01C6
:10189E00125AE2E4FF125AE27F01125AE27F0C1250
:1018AE005AE27F21125AE2E4FF125AE2E4FF125A80
:1018BE00E2E4FF125AE27F01125AE2E4FF125AE208
:1018CE007F02125AE27F0C125AE2E4FF125AE2E44D
:1018DE00FF125AE2E4FF125AE2E4FF125AE27F01CB
:1018EE00125AE2E4FF125AE27F03125AE27F0C12FE
:1018FE005AE27F60125AE27F0E125AE27F18125A93
:10190E00E2E4FF125AE27F01125AE2E4FF125AE2B7
:10191E007F04125AE27F0C125AE2E4FF125AE27F5F
:10192E0001125AE27F07125AE27F14125AE27F0125
:10193E00125AE2E4FF125AE27F01125AE27F0C12AF
:10194E005AE27F22125AE2E4FF125AE2E4FF125ADE
:10195E00E2E4FF125AE27F01125AE2E4FF125AE267
:10196E007F02125AE27F0C125AE2E4FF125AE2E4AC
:10197E00FF125AE2E4FF125AE2E4FF125AE27F012A
:10198E00125AE2E4FF125AE27F03125AE27F0C125D
:10199E005AE27F60125AE27F0E125AE27F18125AF2
:1019AE00E2E4FF125AE27F01125AE2E4FF125AE217
:1019BE007F04125AE27F0C125AE2E4FF125AE27FBF
:1019CE0001125AE27F07125AE27F14125AE27F0185
:1019DE00125AE2E4FF125AE27F01125AE27F0C120F
:1019EE005AE27F23125AE2E4FF125AE2E4FF125A3D
:1019FE00E2E4FF125AE27F01125AE2E4FF125AE2C7
:101A0E007F02125AE27F0C125AE2E4FF125AE2E40B
:101A1E00FF125AE2E4FF125AE2E4FF125AE27F0189
:101A2E00125AE2E4FF125AE27F03125AE27F0C12BC
:101A3E005AE27F60125AE27F0E125AE27F18125A51
:101A4E00E2E4FF125AE27F01125AE2E4FF125AE276
:101A5E007F04125AE27F0C125AE2E4FF125AE27F1E
:101A6E0001125AE27F07125AE27F14125AE27F01E4
:101A7E00125AE2E4FF125AE27F01125AE27F0C126E
:101A8E005AE27F24125AE2E4FF125AE2E4FF125A9B
:101A9E00E2E4FF125AE27F01125AE2E4FF125AE226
:101AAE007F02125AE27F0C125AE2E4FF125AE2E46B
:101ABE00FF125AE2E4FF125AE2E4FF125AE27F01E9
:101ACE00125AE2E4FF125AE27F03125AE27F0C121C
:101ADE005AE27F60125AE27F0E125AE27F18125AB1
:101AEE00E2E4FF125AE27F01125AE2E4FF125AE2D6
:101AFE007F04125AE27F0C125AE2E4FF125AE27F7E
:101B0E0001125AE27F07125AE27F14125AE27F0143
:101B1E00125AE2E4FF125AE27F01125AE27F0C12CD
:101B2E005AE27F25125AE2E4FF125AE2E4FF125AF9
:101B3E00E2E4FF125AE27F01125AE2E4FF125AE285
:101B4E007F02125AE27F0C125AE2E4FF125AE2E4CA
:101B5E00FF125AE2E4FF125AE2E4FF125AE27F0148
:101B6E00125AE2E4FF125AE27F03125AE27F0C127B
:101B7E005AE27F60125AE27F0E125AE27F18125A10
:101B8E00E2E4FF125AE27F01125AE2E4FF125AE235
:101B9E007F04125AE27F0C125AE2E4FF125AE27FDD
:101BAE0001125AE27F07125AE27F14125AE27F01A3
:101BBE00125AE2E4FF125AE27F01125AE27F0C122D
:101BCE005AE27F26125AE2E4FF125AE2E4FF125A58
:101BDE00E2E4FF125AE27F01125AE2E4FF125AE2E5
:101BEE007F02125AE27F0C125AE2E4FF125AE2E42A
:101BFE00FF125AE2E4FF125AE2E4FF125AE27F01A8
:101C0E00125AE2E4FF125AE27F03125AE27F0C12DA
:101C1E005AE27F60125AE27F0E125AE27F18125A6F
:101C2E00E2E4FF125AE27F01125AE2E4FF125AE294
:101C3E007F04125AE27F0C125AE2E4FF125AE27F3C
:101C4E0001125AE27F07125AE27F14125AE27F0102
:101C5E00125AE2E4FF125AE27F01125AE27F0C128C
:101C6E005AE27F27125AE2E4FF125AE2E4FF125AB6
:101C7E00E2E4FF125AE27F01125AE2E4FF125AE244
:101C8E007F02125AE27F0C125AE2E4FF125AE2E489
:101C9E00FF125AE2E4FF125AE2E4FF125AE27F0107
:101CAE00125AE2E4FF125AE27F03125AE27F0C123A
:101CBE005AE27F60125AE27F0E125AE27F18125ACF
:101CCE00E2E4FF125AE27F01125AE2E4FF125AE2F4
:101CDE007F04125AE27F0C125AE2E4FF125AE27F9C
:101CEE0001125AE27F07125AE27F14125AE27F0162
:101CFE00125AE2E4FF125AE27F01125AE27F0C12EC
:101D0E005AE27F28125AE2E4FF125AE2E4FF125A14
:101D1E00E2E4FF125AE27F01125AE2E4FF125AE2A3
:101D2E007F02125AE27F0C125AE2E4FF125AE2E4E8
:101D3E00FF125AE2E4FF125AE2E4FF125AE27F0166
:101D4E00125AE2E4FF125AE27F03125AE27F0C1299
:101D5E005AE27F60125AE27F0E125AE27F18125A2E
:101D6E00E2E4FF125AE27F01125AE2E4FF125AE253
:101D7E007F04125AE27F0C125AE2E4FF125AE27FFB
:101D8E0001125AE27F07125AE27F14125AE27F01C1
:101D9E00125AE2E4FF125AE27F01125AE27F0C124B
:101DAE005AE27F29125AE2E4FF125AE2E4FF125A73
:101DBE00E2E4FF125AE27F01125AE2E4FF125AE203
:101DCE007F02125AE27F0C125AE2E4FF125AE2E448
:101DDE00FF125AE2E4FF125AE2E4FF125AE27F01C6
:101DEE00125AE2E4FF125AE27F03125AE27F0C12F9
:101DFE005AE27F60125AE27F0E125AE27F18125A8E
:101E0E00E2E4FF125AE27F01125AE2E4FF125AE2B2
:101E1E007F04125AE27F0C125AE2E4FF125AE27F5A
:101E2E0001125AE27F07125AE27F14125AE27F0120
:101E3E00125AE2E4FF125AE27F01125AE27F0C12AA
:101E4E005AE27F2A125AE2E4FF125AE2E4FF125AD1
:101E5E00E2E4FF125AE27F01125AE2E4FF125AE262
:101E6E007F02125AE27F0C125AE2E4FF125AE2E4A7
:101E7E00FF125AE2E4FF125AE2E4FF125AE27F0125
:101E8E00125AE2E4FF125AE27F03125AE27F0C1258
:101E9E005AE27F60125AE27F0E125AE27F18125AED
:101EAE00E2E4FF125AE27F01125AE2E4FF125AE212
:101EBE007F04125AE27F0C125AE2E4FF125AE27FBA
:101ECE0001125AE27F07125AE27F14125AE27F0180
:101EDE00125AE2E4FF125AE27F01125AE27F0C120A
:101EEE005AE27F2B125AE2E4FF125AE2E4FF125A30
:101EFE00E2E4FF125AE27F01125AE2E4FF125AE2C2
:101F0E007F02125AE27F0C125AE2E4FF125AE2E406
:101F1E00FF125AE2E4FF125AE2E4FF125AE27F0184
:101F2E00125AE2E4FF125AE27F03125AE27F0C12B7
:101F3E005AE27F60125AE27F0E125AE27F18125A4C
:101F4E00E2E4FF125AE27F01125AE2E4FF125AE271
:101F5E007F04125AE27F0C125AE2E4FF125AE27F19
:101F6E0001125AE27F07125AE27F14125AE27F01DF
:101F7E00125AE2E4FF125AE27F01125AE27F0C1269
:101F8E005AE27F2C125AE2E4FF125AE2E4FF125A8E
:101F9E00E2E4FF125AE27F01125AE2E4FF125AE221
:101FAE007F02125AE27F0C125AE2E4FF125AE2E466
:101FBE00FF125AE2E4FF125AE2E4FF125AE27F01E4
:101FCE00125AE2E4FF125AE27F03125AE27F0C1217
:101FDE005AE27F60125AE27F0E125AE27F18125AAC
:101FEE00E2E4FF125AE27F01125AE2E4FF125AE2D1
:101FFE007F04125AE27F0C125AE2E4FF125AE27F79
:10200E0001125AE27F07125AE27F14125AE27F013E
:10201E00125AE2E4FF125AE27F01125AE27F0C12C8
:10202E005AE27F2D125AE2E4FF125AE2E4FF125AEC
:10203E00E2E4FF125AE27F01125AE2E4FF125AE280
:10204E007F02125AE27F0C125AE2E4FF125AE2E4C5
:10205E00FF125AE2E4FF125AE2E4FF125AE27F0143
:10206E00125AE2E4FF125AE27F03125AE27F0C1276
:10207E005AE27F60125AE27F0E125AE27F18125A0B
:10208E00E2E4FF125AE27F01125AE2E4FF125AE230
:10209E007F04125AE27F0C125AE2E4FF125AE27FD8
:1020AE0001125AE27F07125AE27F14125AE27F019E
:1020BE00125AE2E4FF125AE27F01125AE27F0C1228
:1020CE005AE27F2E125AE2E4FF125AE2E4FF125A4B
:1020DE00E2E4FF125AE27F01125AE2E4FF125AE2E0
:1020EE007F02125AE27F0C125AE2E4FF125AE2E425
:1020FE00FF125AE2E4FF125AE2E4FF125AE27F01A3
:10210E00125AE2E4FF125AE27F03125AE27F0C12D5
:10211E005AE27F60125AE27F0E125AE27F18125A6A
:10212E00E2E4FF125AE27F01125AE2E4FF125AE28F
:10213E007F04125AE27F0C125AE2E4FF125AE27F37
:10214E0001125AE27F07125AE27F14125AE27F01FD
:10215E00125AE2E4FF125AE27F01125AE27F0C1287
:10216E005AE27F2F125AE2E4FF125AE2E4FF125AA9
:10217E00E2E4FF125AE27F01125AE2E4FF125AE23F
:10218E007F02125AE27F0C125AE2E4FF125AE2E484
:10219E00FF125AE2E4FF125AE2E4FF125AE27F0102
:1021AE00125AE2E4FF125AE27F03125AE27F0C1235
:1021BE005AE27F60125AE27F0E125AE27F18125ACA
:1021CE00E2E4FF125AE27F01125AE2E4FF125AE2EF
:1021DE007F04125AE27F0C125AE2E4FF125AE27F97
:1021EE0001125AE27F07125AE27F14125AE27F015D
:1021FE00125AE2E4FF125AE27F01125AE27F0C12E7
:10220E005AE27F30125AE2E4FF125AE2E4FF125A07
:10221E00E2E4FF125AE27F01125AE2E4FF125AE29E
:10222E007F02125AE27F0C125AE2E4FF125AE2E4E3
:10223E00FF125AE2E4FF125AE2E4FF125AE27F0161
:10224E00125AE2E4FF125AE27F03125AE27F0C1294
:10225E005AE27F60125AE27F0E125AE27F18125A29
:10226E00E2E4FF125AE27F01125AE2E4FF125AE24E
:10227E007F04125AE27F0C125AE2E4FF125AE27FF6
:10228E0001125AE27F07125AE27F14125AE27F01BC
:10229E00125AE2E4FF125AE27F01125AE27F0C1246
:1022AE005AE27F31125AE2E4FF125AE2E4FF125A66
:1022BE00E2E4FF125AE27F01125AE2E4FF125AE2FE
:1022CE007F02125AE27F0C125AE2E4FF125AE2E443
:1022DE00FF125AE2E4FF125AE2E4FF125AE27F01C1
:1022EE00125AE2E4FF125AE27F03125AE27F0C12F4
:1022FE005AE27F60125AE27F0E125AE27F18125A89
:10230E00E2E4FF125AE27F01125AE2E4FF125AE2AD
:10231E007F04125AE27F0C125AE2E4FF125AE27F55
:0F232E0001125AE27F07125AE27F14125AE2227A
:05233D009004EDEFF03B
:102342009004EF7424F078F07C047D017BFF7A44E2
:1023520079F67E00FF1235049005147408F07815A2
:102362007C057D017BFF7A45791A7E00FF123504D8
:1023720090051D7408F0781E7C057D017BFF7A456F
:1023820079227E00FF1235049005267408F0782722
:102392007C057D017BFF7A45792A7E00FF12350498
:1023A20090052F7408F078307C057D017BFF7A451B
:1023B20079327E00FF1235049005387408F07839BE
:1023C2007C057D017BFF7A45793A7E00FF12350458
:1023D2009005417408F078427C057D017BFF7A45C7
:1023E20079427E00FF12350490054A7408F0784B5A
:1023F2007C057D017BFF7A45794A7E00FF12350418
:102402009005537408F078547C057D017BFF7A4572
:1024120079527E00FF12350490055C7408F0785DF5
:102422007C057D017BFF7A45795A7E00FF123504D7
:102432009005657408F078667C057D017BFF7A451E
:1024420079627E00FF12350490056E7408F0786F91
:102452007C057D017BFF7A45796A7E00FF12350497
:102462009005777408F078787C057D017BFF7A45CA
:1024720079727E00FF1235049005807408F078812D
:102482007C057D017BFF7A45797A7E00FF12350457
:102492009005897408F0788A7C057D017BFF7A4576
:1024A20079827E00FF1235049005927408F07893C9
:1024B2007C057D017BFF7A45798A7E00FF12350417
:1024C20090059B7408F0789C7C057D017BFF7A4522
:1024D20079927E00FF1235049005A47408F078A565
:1024E2007C057D017BFF7A45799A7E00FF123504D7
:1024F2009005AD7408F078AE7C057D017BFF7A45CE
:1025020079A27E00FF1235049005B67408F078B700
:102512007C057D017BFF7A4579AA7E00FF12350496
:102522009005BF7408F078C07C057D017BFF7A4579
:1025320079B27E00FF1235049005C87408F078C99C
:102542007C057D017BFF7A4579BA7E00FF12350456
:102552009005D17408F078D27C057D017BFF7A4525
:1025620079C27E00FF123504E49005DAF078DB7C54
:10257200057D017BFF7A4579CAFE7F011235049001
:1025820005DC7408F078DD7C057D017BFF7A4579F6
:10259200CB7E00FF1235049005E57408F078E67CE6
:1025A200057D017BFF7A4579D37E00FF12350490C9
:1025B20005EE7408F078EF7C057D017BFF7A4579A2
:1025C200DB7E00FF1235049005F77408F078F87C82
:1025D200057D017BFF7A4579E37E00FF1235049089
:1025E20006007408F078017C067D017BFF7A45794C
:1025F200EB7E00FF1235049006097408F0780A7C1D
:10260200067D017BFF7A4579F37E00FF1235049047
:1026120006127420F078137C067D017BFF7A4579DF
:10262200FB7E00FF1235049006337408F078347C88
:10263200067D017BFF7A46791B7E00FF12350490EE
:10264200063C7408F0783D7C067D017BFF7A467972
:10265200237E00FF1235049004EDE014B421004003
:102662000302305890267475F003A4C58325F0C583
:1026720083730226D70227250227730227C1022865
:102682000F02285D0228AB0228F902294702299588
:102692000229E3022A31022A7F022ACD022B1B02DF
:1026A2002B69022BB7022C12022C60022CAE022CD8
:1026B200B1022CFF022D4D022D9B022DE9022E3775
:1026C200022E85022ED3022F21022F6F022CAE0280
:1026D2002FBD02300AE49004EEF09004EFE0FF9088
:1026E20004EEE0FEC3EF6480F8EE648098400302DB
:1026F200305BE0FFFD3395E0FC74F02DF58274044D
:102702003CF583E0FEEF3395E0FC74F72DF582741F
:10271200023CF583E06E6003022C559004EEE00467
:10272200F080B7E49004EEF0900514E0FF9004EE20
:10273200E0FEC3EF6480F8EE648098400302305BF1
:10274200E0FFFD3395E0FC74152DF58274053CF530
:1027520083E0FEEF3395E0FC74F72DF58274023CC2
:10276200F583E06E6003022C559004EEE004F080E5
:10277200B7E49004EEF090051DE0FF9004EEE0FE59
:10278200C3EF6480F8EE648098400302305BE0FFA0
:10279200FD3395E0FC741E2DF58274053CF583E053
:1027A200FEEF3395E0FC74F72DF58274023CF5835D
:1027B200E06E6003022C559004EEE004F080B7E472
:1027C2009004EEF0900526E0FF9004EEE0FEC3EFE9
:1027D2006480F8EE648098400302305BE0FFFD33D2
:1027E20095E0FC74272DF58274053CF583E0FEEF3D
:1027F2003395E0FC74F72DF58274023CF583E06EAC
:102802006003022C559004EEE004F080B7E49004DB
:10281200EEF090052FE0FF9004EEE0FEC3EF64803F
:10282200F8EE648098400302305BE0FFFD3395E0F0
:10283200FC74302DF58274053CF583E0FEEF339590
:10284200E0FC74F72DF58274023CF583E06E6003C0
:10285200022C559004EEE004F080B7E49004EEF010
:10286200900538E0FF9004EEE0FEC3EF6480F8EEDE
:10287200648098400302305BE0FFFD3395E0FC7416
:10288200392DF58274053CF583E0FEEF3395E0FCCB
:1028920074F72DF58274023CF583E06E6003022C1E
:1028A200559004EEE004F080B7E49004EEF0900559
:1028B20041E0FF9004EEE0FEC3EF6480F8EE648036
:1028C20098400302305BE0FFFD3395E0FC74422D3B
:1028D200F58274053CF583E0FEEF3395E0FC74F776
:1028E2002DF58274023CF583E06E6003022C559054
:1028F20004EEE004F080B7E49004EEF090054AE0C4
:10290200FF9004EEE0FEC3EF6480F8EE648098402E
:102912000302305BE0FFFD3395E0FC744B2DF58242
:1029220074053CF583E0FEEF3395E0FC74F72DF57A
:102932008274023CF583E06E6003022C559004EE33
:10294200E004F080B7E49004EEF0900553E0FF90CD
:1029520004EEE0FEC3EF6480F8EE64809840030268
:10296200305BE0FFFD3395E0FC74542DF582740575
:102972003CF583E0FEEF3395E0FC74F72DF58274AD
:10298200023CF583E06E6003022C559004EEE004F5
:10299200F080B7E49004EEF090055CE0FF9004EE66
:1029A200E0FEC3EF6480F8EE648098400302305B7F
:1029B200E0FFFD3395E0FC745D2DF58274053CF576
:1029C20083E0FEEF3395E0FC74F72DF58274023C50
:1029D200F583E06E6003022C559004EEE004F08073
:1029E200B7E49004EEF0900565E0FF9004EEE0FE9F
:1029F200C3EF6480F8EE648098400302305BE0FF2E
:102A0200FD3395E0FC74662DF58274053CF583E098
:102A1200FEEF3395E0FC74F72DF58274023CF583EA
:102A2200E06E6003022C559004EEE004F080B7E4FF
:102A32009004EEF090056EE0FF9004EEE0FEC3EF2E
:102A42006480F8EE648098400302305BE0FFFD335F
:102A520095E0FC746F2DF58274053CF583E0FEEF82
:102A62003395E0FC74F72DF58274023CF583E06E39
:102A72006003022C559004EEE004F080B7E4900469
:102A8200EEF0900577E0FF9004EEE0FEC3EF648085
:102A9200F8EE648098400302305BE0FFFD3395E07E
:102AA200FC74782DF58274053CF583E0FEEF3395D6
:102AB200E0FC74F72DF58274023CF583E06E60034E
:102AC200022C559004EEE004F080B7E49004EEF09E
:102AD200900580E0FF9004EEE0FEC3EF6480F8EE24
:102AE200648098400302305BE0FFFD3395E0FC74A4
:102AF200812DF58274053CF583E0FEEF3395E0FC11
:102B020074F72DF58274023CF583E06E6003022CAB
:102B1200559004EEE004F080B7E49004EEF09005E6
:102B220089E0FF9004EEE0FEC3EF6480F8EE64807B
:102B320098400302305BE0FFFD3395E0FC748A2D80
:102B4200F58274053CF583E0FEEF3395E0FC74F703
:102B52002DF58274023CF583E06E6003022C5590E1
:102B620004EEE004F080B7E49004EEF0900592E009
:102B7200FF9004EEE0FEC3EF6480F8EE64809840BC
:102B82000302305BE0FFFD3395E0FC74932DF58288
:102B920074053CF583E0FEEF3395E0FC74F72DF508
:102BA2008274023CF583E06E6003022C559004EEC1
:102BB200E004F080B7E49004EEF090059BE0FF9013
:102BC20004EEE0FEC3EF6480F8EE648098400302F6
:102BD200305BE0FFFD3395E0FC749C2DF5827405BB
:102BE2003CF583E0FEEF3395E0FC74F72DF582743B
:102BF200023CF583E06E60107FBB125AEB9004EE4C
:102C0200E0FF125AEB02304A9004EEE004F080AA90
:102C1200E49004EEF09005A4E0FF9004EEE0FEC321
:102C2200EF6480F8EE648098400302305BE0FFFDC1
:102C32003395E0FC74A52DF58274053CF583E0FE26
:102C4200EF3395E0FC74F72DF58274023CF583E0D6
:102C52006E600302304A9004EEE004F080B7E49024
:102C620004EEF09005ADE0FF9004EEE0FEC3EF64E9
:102C720080F8EE648098400302305BE0FFFD3395FC
:102C8200E0FC74AE2DF58274053CF583E0FEEF3373
:102C920095E0FC74F72DF58274023CF583E06E60DA
:102CA2000302304A9004EEE004F080B77F0022E491
:102CB2009004EEF09005BFE0FF9004EEE0FEC3EF5B
:102CC2006480F8EE648098400302305BE0FFFD33DD
:102CD20095E0FC74C02DF58274053CF583E0FEEFAF
:102CE2003395E0FC74F72DF58274023CF583E06EB7
:102CF200600302304A9004EEE004F080B7E49004EE
:102D0200EEF09005C8E0FF9004EEE0FEC3EF6480B1
:102D1200F8EE648098400302305BE0FFFD3395E0FB
:102D2200FC74C92DF58274053CF583E0FEEF339502
:102D3200E0FC74F72DF58274023CF583E06E6003CB
:102D420002304A9004EEE004F080B7E49004EEF022
:102D52009005D1E0FF9004EEE0FEC3EF6480F8EE50
:102D6200648098400302305BE0FFFD3395E0FC7421
:102D7200D22DF58274053CF583E0FEEF3395E0FC3D
:102D820074F72DF58274023CF583E06E6003023025
:102D92004A9004EEE004F080B7E49004EEF090056F
:102DA200DAE0FF9004EEE0FEC3EF6480F8EE6480A8
:102DB20098400302305BE0FFFD3395E0FC74DB2DAD
:102DC200F58274053CF583E0FEEF3395E0FC74F781
:102DD2002DF58274023CF583E06E600302304A9066
:102DE20004EEE004F080B7E49004EEF09005DCE03D
:102DF200FF9004EEE0FEC3EF6480F8EE648098403A
:102E02000302305BE0FFFD3395E0FC74DD2DF582BB
:102E120074053CF583E0FEEF3395E0FC74F72DF585
:102E22008274023CF583E06E600302304A9004EE45
:102E3200E004F080B7E49004EEF09005E5E0FF9046
:102E420004EEE0FEC3EF6480F8EE64809840030273
:102E5200305BE0FFFD3395E0FC74E62DF5827405EE
:102E62003CF583E0FEEF3395E0FC74F72DF58274B8
:102E7200023CF583E06E600302304A9004EEE00407
:102E8200F080B7E49004EEF09005EEE0FF9004EEDF
:102E9200E0FEC3EF6480F8EE648098400302305B8A
:102EA200E0FFFD3395E0FC74EF2DF58274053CF5EF
:102EB20083E0FEEF3395E0FC74F72DF58274023C5B
:102EC200F583E06E600302304A9004EEE004F08085
:102ED200B7E49004EEF09005F7E0FF9004EEE0FE18
:102EE200C3EF6480F8EE648098400302305BE0FF39
:102EF200FD3395E0FC74F82DF58274053CF583E012
:102F0200FEEF3395E0FC74F72DF58274023CF583F5
:102F1200E06E600302304A9004EEE004F080B7E411
:102F22009004EEF0900600E0FF9004EEE0FEC3EFA6
:102F32006480F8EE648098400302305BE0FFFD336A
:102F420095E0FC74012DF58274063CF583E0FEEFFA
:102F52003395E0FC74F72DF58274023CF583E06E44
:102F6200600302304A9004EEE004F080B7E490047B
:102F7200EEF0900609E0FF9004EEE0FEC3EF6480FD
:102F8200F8EE648098400302305BE0FFFD3395E089
:102F9200FC740A2DF58274063CF583E0FEEF33954E
:102FA200E0FC74F72DF58274023CF583E06E600359
:102FB20002304A9004EEE004F080B7E49004EEF0B0
:102FC200900633E0FF9004EEE0FEC3EF6480F8EE7B
:102FD200648098400302305BE0FFFD3395E0FC74AF
:102FE200342DF58274063CF583E0FEEF3395E0FC68
:102FF20074F72DF58274023CF583E06E600280481E
:103002009004EEE004F080B8E49004EEF090063C08
:10301200E0FF9004EEE0FEC3EF6480F8EE64809877
:103022005037E0FFFD3395E0FC743D2DF5827406C8
:103032003CF583E0FEEF3395E0FC74F72DF58274E6
:10304200023CF583E06E60069004EDE0FF229004FE
:0B305200EEE004F080B77F00227F005A
:01305D002250
:1037970061E00100000000000000000000000000E0
:1037A7000000000000000000000000000000000012
:1037B7000000000000000000000000000000000002
:1037C7000000000000002214FF5522000800080036
:1037D700082214081422080008000800007F3C078C
:1037E7003C7F007F44442C370000000000000000AD
:1037F7000000000000000000000806403100007FC4
:1038070049494949497F00000000003F2424243FDB
:10381700A464243F242424200000000000000000AA
:103827000000000000000000800000000000000011
:103837000000000000000000000000000080008081
:10384700008000808E8A8E000001020202010000C3
:1038570000000000000000000020207E80027E4261
:10386700427E427E42427E0200020CF1012132AAD0
:10387700A4A4A4AA320101010000000000C3C300F0
:103887000000000101010101010000010101010126
:103897000100000000030300000000010101010115
:1038A700010000000000000000FC0202028C000082
:1038B70000000000000000000020203F2020000042
:1038C700203F202020100F00000000060600000007
:1038D70000000000000000000000000000000000E1
:1038E70000000000000000000000000000000000D1
:1038F70000000000000000000000000000000000C1
:1039070000000000000000000000000000000000B0
:103917000000000000000000000808F80808000088
:1039270008F808080810E000000000181800000058
:103937000008080808080800000808080808080020
:103947000008080808080800000808080808080010
:103957000008080808080800000808080808080000
:1039670000080808080808000008080808080800F0
:1039770000000000610000000007081010080700A1
:1039870000F008040408F000000008081F00000009
:1039970000000404FC040400000E101010100F00B7
:1039A700000C142444840C00000C101010110E009D
:1039B7000018048484443800000001020C1F000032
:1039C7000060A02424FC2424001F111111101000F2
:1039D700009804040488700000070811110900000A
:1039E70000F088040404F8000018101011161800DD
:1039F7000000007C80000000000E111010110E0066
:103A07000038448484443800000F10101008070061
:103A1700008048444488F0000000031C07000000B1
:103A2700043CC44040E41C04101F1111110E000097
:103A370004FC040404887000030C101010101C0010
:103A4700E018040404081000101F101010080700E5
:103A570004FC04040408F000101F111117100800DB
:103A670004FC0404C4041800101F111117100800E7
:083A770004FC0400C000000083
:10577400EF339284EFA2E69283A2E59282A2E492AE
:1057840081A2E39280A2E292C6A2E192C51392FFA3
:0157940022F2
:1056A900E0C454F02400F582E43400F583E5822E49
:0956B900F582E43583F583E0FF7E
:1056C200D2A5D2A4C2A3C2A600001257740000D26F
:0556D200A600D2A32296
:1058A000D2A5C2A4C2A300C2A6000012577412005F
:0A58B000160000D2A60000D2A322C9
:10581300E4F59575967FD2A1D2A253E17F43E2804E
:0D58230053B3CF43B4305393E043941F229E
:10583000C2C100120006D2C11200067F8D1258A00C
:0D5840007F141258A07FAF1258A0025ACA60
:1058EE007FAE1258A0007F8D1258A07F101258A0C4
:0958FE0000125ACAC2E9025ABBA9
:1059D3007FAE1258A0007F8D1258A07F101258A0DE
:0459E30000C2E922F3
:10599400D2E9125ACA7F8D1258A07F141258A0005F
:0559A4007FAF0258A0D6
:0E4F05009006F8EBF0A3EAF0A3E9F0A3EDF0BC
:104F1300E49006FFF0A3F0A3F0FE7F201258A0E474
:104F2300FF1258A07F211258A09006FBE0FF1258F1
:104F3300A09006FCE0FF1258A07F221258A0900612
:104F4300FDE0FF1258A09006FEE0FF1258A0900665
:104F5300FDE0FE9006FEE0FFEED39F504B9006FB74
:104F6300E0900701F09006FCE0FF900701E0D39F7B
:104F730050339006F8E0FBA3E0FAA3E0F99006FFB4
:104F8300E0FCA3E0F5828C83123543FF1256C290F6
:104F93000700E004F070069006FFE004F0900701BC
:084FA300E004F080C00E80ABB9
:014FAB0022E3
:0647950090070A12365ED7
:10479B00E4FBFA7920784190070AE0FCA3E0FDA343
:1047AB00E0FEA3E0FF12325F1233B390070EEFF07F
:1047BB00FCE412337FA804A905AA06AB0790070AED
:1047CB00E0FCA3E0FDA3E0FEA3E0FF123061123397
:1047DB00B390070FEFF090070AE0FCA3E0FDA3E016
:1047EB00FEA3E0FF1233B37C007D0A123570AC06DA
:1047FB00AD07E412337AC004C005C006C007E4FF5E
:10480B00FE7D207C4190070AE0F8A3E0F9A3E0FAD3
:10481B00A3E0FB123156D003D002D001D0001230EE
:10482B00611233B3900710EFF07F201258A0E4FF12
:10483B001258A07F211258A07F2E1258A07F35123C
:10484B0058A07F221258A07F021258A07F03125843
:10485B00A0E4FEEE640690070E601AE0C454F02448
:10486B0000F582E43400F583E5822EF582E435838E
:10487B00F583E0801AE0C454F02400F582E43400A0
:10488B00F583E5822EF582E43583F583E04401FF61
:10489B001256C20EEEB410BB7F211258A07F3612F7
:1048AB0058A07F3D1258A07F221258A07F021258A9
:1048BB00A07F031258A0E4FE90070F1256A90EEE2C
:1048CB00B410F57F211258A07F461258A07F4D12CD
:1048DB0058A07F221258A07F021258A07F031258B3
:0E48EB00A0E4FE9007101256A90EEEB410F5D0
:0148F900229C
:1057B6007401A807088002C333D8FCF59DE4F5BD43
:0F57C600EF4488F5BC7F02125967D2ADD2AF22F3
:03002B00024DAAD9
:0D4DAA00C0E0C0F0C083C082C0D075D0084A
:104DB70090066DE4F0A3F0FFFEA3F0A3F0C2ADF5FB
:104DC700BC125A7F7F0312595090066DE4F0A3EF8F
:104DD700F0125A7F7F031259507E0090066DE0FC57
:104DE700A3E0FDD39FEC9E401DED9FFBEC9EFAC315
:104DF700EB9423EA9400504EED2FFFEE3CC313FED5
:104E0700EF13FFA38030C3ED9FEC9E502C90066DEF
:104E1700E0FCA3E0FDC3EF9DFDEE9CFCC3ED9423F6
:104E2700EC94005021E02FFF90066DE03EC313FE87
:104E3700EF13FF90066FEE800990066DE0FFA3E089
:084E4700A3CFF0A3EFF0D2AD00
:0B4E4F00D0D0D082D083D0F0D0E03271
:10595000E4F5BDEF4488F5BC00000000E5BC30E490
:07596000FB75BC00AFBD2286
:10575200AC07E412337F90071EE0F8A3E0F9A3E060
:10576200FAA3E0FB123156E4FBFA79807843123255
:025772005F22B4
:1056D700E4FDFCF5BDF5BEEF4488F5BC0000000015
:1056E700E5BC30E4FB75BC00AFBDEF75F004A4FD6D
:0956F700ACF0AFBEED4FAE04FFB4
:015700002286
:10005E00AD07AC06E412337A900719E0F8A3E0F985
:10006E00A3E0FAA3E0FB123156E4FBFA7980784460
:04007E0012325F22B9
:10596700AE071FEE60107C137D88ED1DAA04700141
:065977001C4A60EC80F404
:01597D002207
:0C3A7F004102F4004102F5004102F60093
:10570100E5A2543F4440F5A253877F759850438EDC
:1057110040538EFE53890F438920758BFA758DFA9C
:09572100C2ABD28ED2ACD2AF2291
:095AE2002000FDEFD200F599222D
:1055DD00900731EBF0A3EAF0A3E9F0900731E0FB7F
:1055ED00A3E0FAA3E0F912352A6017900731A3E47E
:1055FD0075F0011235D7A9F0FA12352AFF125AE2C9
:03560D0080D9221F
:030023000254C6BE
:1054C600C0E0C0F0C083C082C0D075D00830981B41
:1054D600C2989004EBE475F0011235D7FE74F725F7
:1054E600F0F58274023EF583E599F0309904C2998D
:0D54F600C200D0D0D082D083D0F0D0E03200
:0300430002550360
:10550300C0E0C083C082C0D075D008E59A30E017F0
:10551300539AFE9002F4E0FF04F074E02FF582E466
:105523003402F583E59BF0E59A30E105539AFDC219
:0A55330001D0D0D082D083D0E03246
:095AEB002001FDEFD201F59B2220
:10561000900734EBF0A3EAF0A3E9F0900734E0FB45
:10562000A3E0FAA3E0F912352A6017900734A3E447
:1056300075F0011235D7A9F0FA12352AFF125AEB8C
:0356400080D922EC
:1059200053BAFE759A50438E0475D7C075D6FD43A1
:085930008E1075AF01D2AF2209
:10597E007E027FF49002F7E4F0A3DFFCDEFAE490FF
:05598E0004EBF0A3F0A2
:0159930022F1
:0F5A41007F649002E0E4F0A3DFFCE49002F4F055
:015A50002233
:10586A0053BAFD75AC1043AC4043D10275D5C0752F
:0B587A00D4FD43D10843AF08D2AF2299
:03008B000258BA5E
:1058BA00C0E0E5AC30E00653ACFE85AD80E5AC3027
:0A58CA00E10553ACFDC202D0E0324C
:095AF4002002FDEFD202F5AD2203
:10564300900737EBF0A3EAF0A3E9F0900737E0FB0C
:10565300A3E0FAA3E0F912352A6017900737A3E411
:1056630075F0011235D7A9F0FA12352AFF125AF450
:0356730080D922B9
:1058850043BA0475841043844043D12075D3D07541
:0B589500D2FF43D18043AF10D2AF22FE
:030093000258D43C
:1058D400C0E0E58430E0065384FE858580E58430AD
:0A58E400E1055384FDC203D0E03259
:095AFD002003FDEFD203F5852220
:1056760090073AEBF0A3EAF0A3E9F090073AE0FBD3
:10568600A3E0FAA3E0F912352A601790073AA3E4DB
:1056960075F0011235D7A9F0FA12352AFF125AFD14
:0356A60080D92286
:0D003600E4F5C7F5C5F5C675C380F5C42215
:1059380075C78175C5018FC4EEF5C375C65A75C69E
:07594800A500AFC2120036FA
:01594F002235
:1059070075C78175C5028FC4EEF5C3AF058FC27524
:09591700C65A75C6A5000200364F
:1059A90075C78175C5038FC4EEF5C375C65A75C62B
:0559B900A5000200360C
:104BF9009006EDEEF0A3EFF09006F1EBF0A3EAF0EA
:0B4C0900A3E9F09006EFECF0A3EDF043
:104C1400E49006F4F0A3F0FFA3F0A3F0D3ED942006
:104C2400EC94004001229006EDE0FCA3E0FDEC547E
:104C340001FEAF059006F0E02FFF9006EFE03EFE88
:104C4400D3EF9420EE940040037F0022AF05AE041E
:104C54001259A9E49006F4F0A3F09006EFE0FEA345
:104C6400E0FF9006F4E0FCA3E0FDC39FEC9E5067D8
:104C74009006EDE0FEA3E0FF9006F1E0FBA3E0FA6E
:104C8400A3E0F98D828C83123543FD1259079006F7
:104C9400EDE0FEA3E0FF1259389006F1E0FBA3E03B
:104CA400FAA3E0F9A3E0FCA3E0F5828C8312354378
:104CB4006F60061200367F00229006EEE004F0706A
:104CC400069006EDE004F09006F5E004F0708B9099
:0C4CD40006F4E004F080831200367F013B
:014CE00022B1
:104333009006DEEEF0A3EFF09006E2EBF0A3EAF0D6
:0B434300A3E9F09006E0ECF0A3EDF021
:10434E00E49006E5F0A3F0A3F0A3F0A3F0A3F0A38E
:10435E00F0A3F0D3ED9420EC940040037F00229064
:10436E0006DEE0FCA3E0FDEC5401FEAF059006E78F
:10437E00F0A3EFF09006E1E02FFF9006E0E03EFEA6
:10438E00D3EF9420EE940040037F0022EC54FEFE07
:10439E007F009006E9F0A3EFF0A3EEF0A3EFF0900C
:1043AE0006E5F0A3F09006EBE475F0011235D7AFF9
:1043BE00F0FE1259389006E5A3E02422F8A607E095
:1043CE0004F070069006E5E004F0C39006E6E09473
:1043DE00209006E5E0940040CCE49006E5F0A3F0D2
:1043EE009006E0E0FEA3E0FF9006E5E0FCA3E0FD12
:1043FE00C39FEC9E50349006E2E0FBA3E0FAA3E0EC
:10440E00F98D828C83123543FF9006E7E475F00137
:10441E001235D7742225F0F8A6079006E6E004F0D0
:10442E0070069006E5E004F080B69006E9E0FEA383
:10443E00E0FF1259A99006E9E0FFA3E0A3CFF0A395
:10444E00EFF0E49006E5F0A3F09006E5E0FCA3E0C3
:10445E00FDC39420EC9400504C9006EBE0FEA3E0DC
:10446E00FF74222DF8E6FD1259079006DEE0FEA33A
:10447E00E0FF1259389006E5A3E02422F8E66F60BB
:10448E00061200367F00229006ECE004F0700690D3
:10449E0006EBE004F09006E6E004F070069006E508
:0A44AE00E004F080A41200367F0144
:0144B80022E1
:10557400E5A254CFF5A2E4F5D8F5E9F5F975D90219
:10558400F5F275EA2075FA2075DA4275F34075EB89
:105594002075FB2075DB4275F48075EC2075FC20CA
:0655A40075DC42D2DE229C
:10536300E4F5B4F5B343BA80F5F190FFF2F090FFA2
:10537300F07403F0A374E8F090FF20E4F0A3F0FCD2
:10538300FDFE7BE87A03F9F81235EDE47B64FAF964
:10539300F812543F90FF22EEF0A3EFF0A37408F04D
:0B53A30043F50443F58053BA7F80FE01
:1053AE00E4F5CAF5C943BA80F5F190FFF2F090FF2B
:1053BE00F07403F0A374E8F090FF30E4F0A3F0FC77
:1053CE00FDFE7BE87A03F9F81235EDE47B64FAF919
:1053DE00F812543F90FF32EEF0A3EFF0A37408F0F2
:0A53EE0043F50843F58053BA7F220F
:1057D500EF75F064A4FFAEF0C374109F900747F017
:0F57E50074279E900746F0E4900726F00259E7DC
:03009B00024E5AB8
:104E5A00C0E0C0F0C083C082C0D075D000C000C01E
:104E6A0001C002C003C004C005C006C007900726DF
:104E7A00E07038900729E0FF75F012A4F404F5D524
:104E8A00E4FCFDFE7B12FAF9F81235EDC3E49FFF4C
:104E9A00E49EFE74019DFDE49CFC780812364A8F5C
:104EAA00D4D2A09007267401F08035900727E0FF3E
:104EBA0075F012A4F404F5D5E4FCFDFE7B12FAF9B0
:104ECA00F81235EDC3E49FFFE49EFE74019DFDE4F4
:104EDA009CFC780812364A8FD4C2A0900726E4F0C8
:104EEA00D007D006D005D004D003D002D001D0001C
:0B4EFA00D0D0D082D083D0F0D0E032C6
:0A4B0C00900649ECF0A3EDF0AB07B2
:104B1600A312366A00000000E490064FF0A3F0EB03
:104B2600146019146022146037146028240470304D
:104B360090064B12366A46900000802E90064B1265
:104B4600366A462CCC00802290064B12366A45AC5B
:104B5600C800801690064B12366A44ACC000800A24
:104B660090064B12366A452CD000E4F594F5934333
:104B7600BA80F5F190FFF27403F090064BE0FCA3C7
:104B8600E0FDA3E0FEA3E0FF1233B390FFF0EEF0EA
:104B9600A3EFF090FF50E4F0A3F0FBFA79C8784257
:104BA60090064BE0FCA3E0FDA3E0FEA3E0FF12327B
:104BB6005FC004C005C006C007900649E0FCA3E03C
:104BC600FDE412337AD003D002D001D00012315660
:104BD6001233B390FF52EEF0A3EFF090064FEEF0D3
:104BE600A3EFF090FF547408F043F52043F580538B
:024BF600BA7F84
:014BF800229A
:10527000900748EEF0A3EFF0438E805389F090073B
:1052800048E0FEA3E0FFE4FCFD7B16FAF9F81235D6
:10529000EDEFF404F58A900748E0FEA3E0FFE4FC9C
:1052A000FD7B16FAF9F81235EDC3E49FFFE49EFE8C
:1052B00074019DFDE49CFC780812364A8F8CC28DE7
:0352C000D28C226B
:105A5100E5A254F3F5A2E4F5CF75CDC075CE502281
:03004B00025B292C
:065B290075CDC0D29132DF
:0A3A8B0042072A000042072C000049
:03000B000252C3DB
:1052C300C0E0C083C082C0D090072BE004F070061A
:1052D30090072AE004F090072DE004F07006900791
:1052E3002CE004F090072AE07004A3E064FA70064F
:1052F30090072AF0A3F090072CE0B40B0CA3E0B4C2
:10530300B80790072CE4F0A3F0D0D0D082D083D09C
:02531300E03286
:1059BE00538E7F5389F0E4F58A758C70C28DD28C2C
:0559CE00D2A9D2AF22B6
:1059E70053D1FD75D501E4F5D443D10843AF20D297
:0259F700AF22DD
:03000300020012E6
:0100120032BB
:095B0600D2B2D288D2A8D2AF229B
:03001300020026C2
:0100260032A7
:095B0F00D2B3C28AD2AAD2AF229D
:0300530002002781
:0100270032A6
:065B2F00438F10D2AF22EB
:03005B0002002878
:0100280032A5
:065B3500438F20D2AF22D5
:030083000200294F
:0100290032A4
:065B3B00438F40D2AF22AF
:0300330002000EBA
:04000E005387DF3203
:085B21005387DFD2AED2AF22A0
:1059F9007D3C7C00E4FF124B0C125A7F53F5DFC249
:025A09008622F3
:105A0B007D3C7C007F02124B0C125AAC53F5DFC26B
:025A1B008622E1
:105A1D007D3C7C007F03124B0C125A9D53F5DFC267
:025A2D008622CF
:095B1800AD07AC067F04024B0C42
:105A2F007D3C7C007F04124B0C125ABB53F5DFC236
:025A3F008622BD
:065B41008FAA75AB802263
:10584D002055534220636861726765200A00205518
:0D585D00534220206F6666736574200A00B8
:043A95004106DD0AFF
:10579500E4F5CB75CC0E43CB0143CC01C2E9D2EA8B
:1057A500D2EBF5B375B401C2C1D2E9125ACAD2C15E
:0157B50022D1
:1048FA00E4900666F0A312366A00000000E490060F
:10490A006BF0A3F07F041256D7900666E025E024E8
:10491A00C9F582E43406F583EEF0A3EFF01200063F
:10492A00900666E004F0E0C3940A40D89006D5E009
:10493A00FEA3E0FF9006D0E02FFF9006CFE03EFEF8
:10494A009006DCE02FFD9006DBE03EFCE412337AB1
:10495A00A804A905AA06AB077F0A7ED77DA37C44D3
:10496A0012325FE4FBFA79407840123156900667BA
:10497A0012365E900667E0FCA3E0FDA3E0FEA3E02A
:10498A00FF1233B37C007D64123570AC06AD07E4C8
:10499A0012337AC004C005C006C007E4FFFE7DC812
:1049AA007C42900667E0F8A3E0F9A3E0FAA3E0FBF3
:1049BA00123156D003D002D001D000123061123326
:1049CA00B390066BEEF0A3EFF0900666E0FFC39497
:1049DA000A5018EF25E024C9F582E43406F583E489
:1049EA00F0A3F0900666E004F080DEE49006DDF0C5
:0E49FA00900667E0FCA3E0FDA3E0FEA3E0FF53
:014A0800228B
:10515200E4900646F01248FA90064712365EE4FFE3
:10516200FEFDFC900647E0F8A3E0F9A3E0FAA3E015
:10517200FB1232FC603EE4FFFE7DC87C4290064793
:10518200E0F8A3E0F9A3E0FAA3E0FB1231567B6654
:105192007A667986784012325F1233B3900646EF10
:1051A200F07FFF125AFD900646E0FF125AFD90066C
:0651B20046E0FF227F0031
:0151B80022D4
:10462B0090065C12366A00000000E4900660F0A36E
:10463B00F01248FA90066212365E900661E0C3945F
:10464B000A50247F051256D7900661E025E02446D8
:10465B00F582E43406F583EEF0A3EFF0120006903A
:10466B000661E004F080D3900652E0FEA3E0FF90D9
:10467B00064DE02FFF90064CE03EFE900659E02FD2
:10468B00FF900658E03EFE7C007D031235829006BB
:10469B005AEEF0A3EFF0FDAC06E412337A9006620B
:1046AB00E0F8A3E0F9A3E0FAA3E0FB1231567BE7B5
:1046BB007AFB7979783F123156E4FBFA790378C4A7
:1046CB00123065E4FBFA79C8784012325F90065CD1
:1046DB0012365E90065CE0FCA3E0FDA3E0FEA3E0D7
:1046EB00FF1233B37C007D64123570AC06AD07E46A
:1046FB0012337AC004C005C006C007E4FFFE7DC8B4
:10470B007C4290065CE0F8A3E0F9A3E0FAA3E0FB9F
:10471B00123156D003D002D001D0001230611233C7
:10472B00B3900660EFF0E4FFFE7DAA7C4290065C3E
:10473B00E0F8A3E0F9A3E0FAA3E0FB1232FC60047B
:10474B004002C2E97FEE125AFD90065AE0FF125A60
:10475B00FD90065AA3E0FF125AFD7FEF125AFD900F
:10476B00065CE0FCA3E0FDA3E0FEA3E0FF1233B385
:10477B00125AFD900660E0FF125AFD90065CE0FCB9
:09478B00A3E0FDA3E0FEA3E0FFA2
:014794002202
:1057F4004393805394FE7BFF30870A7A58794D1285
:0F58040056767F01227A58795B1256767F002202
:103FE0004E4F203A20005331203A20005332203ADD
:103FF00020005333203A20005334203A2000533518
:10400000203A2000204D41494E204D454E55200A72
:10401000200020554846204D4F4445200A200020CE
:104020004254204D4F4445200A200020544553540B
:10403000204D4F4445200A2000204241545445520F
:1040400059204D4F4445200A200020425A204D4F10
:104050004445200A2000204F4C45445F74696D6937
:104060006E6720736574200A2000204F4C45445F22
:10407000425A20736574200A2000202153797374FA
:10408000656D5F506F7765725F5663635F4F4E5F1C
:104090004F4646200A20002055313420706F776546
:1040A0007220676F6F64200A200020553134207021
:1040B0006F776572204E47204F4350204F54502059
:1040C0000A200020215653454C200A20002021427E
:1040D0005950200A20002042415454455259A1A170
:1040E0004D4F444520494E200A200020425A204D81
:1040F0004F444520494E200A2000204F4C45445F44
:1041000074696D696E6720676574207265616469A2
:104110006E672074696D696E67200A2000204F4C1D
:1041200045445F74696D696E6720676574207772B6
:104130006974696E672074696D696E67200A200072
:10414000204F4C45445F74696D696E6720736574D8
:1041500020494E200A2000204F4C45445F425A20FF
:104160007570200A2000204F4C45445F425A20645D
:104170006F776E200A2000204F4C45445F425A2042
:1041800073657420494E200A2000204E4F5420535E
:064190004554200A200046
:043A990041074C0095
:104FAC00E4900646F0A3F0A3F07F0312595090064C
:104FBC0046EFF0C394CD40037F0022125A7F7F034B
:104FCC00125950900647EFF0125A7F7F0312595036
:104FDC00900648EFF0900647E02FFFE433C313EF41
:104FEC0013900646F0125A7F7F03125950EFD39458
:104FFC00CD40F2900646E0C3941250061259F97F48
:10500C000122900646E0C3943B50061259F97F02E8
:10501C0022900646E0C3946950061259F97F032288
:10502C00900646E0C3949B50061259F97F042290D7
:10503C000646E0C394CD50061259F97F05227F0035
:01504C002241
:10419600E490073DF0A3F0A3F07F03125950900777
:1041A6003DEFF0C394CD4030125A7F7BFF7A3F79C2
:1041B600E01255DD7FFF125AE290073DE0FF125AEA
:1041C600E27BFF7A3F79E012567690073DE0FF12D8
:1041D6005AFD53F5DF7F0022125ABB7F0312595056
:1041E60090073EEFF0125A7F7F0312595090073F17
:1041F600EFF090073EE02FFFE433C313EF13900771
:104206003DF0C3941250337BFF7A3F79E61255DDB9
:104216007FFF125AE290073DE0FF125AE27BFF7AD7
:104226003F79E612567690073DE0FF125AFD7D3C37
:104236007C007F01124B0C7F012290073DE0C39466
:104246003B50337BFF7A3F79EC1255DD7FFF125AE4
:10425600E290073DE0FF125AE27BFF7A3F79E612D1
:10426600567690073DE0FF125AFD7D3C7C007F02AA
:10427600124B0C7F022290073DE0C3946950337BBA
:10428600FF7A3F79F21255DD7FFF125AE290073D21
:10429600E0FF125AE27BFF7A3F79F21256769007D8
:1042A6003DE0FF125AFD7D3C7C007F03124B0C7FE4
:1042B600032290073DE0C3949B50337BFF7A3F79FE
:1042C600F81255DD7FFF125AE290073DE0FF125AC1
:1042D600E27BFF7A3F79F212567690073DE0FF12B5
:1042E6005AFD7D3C7C007F04124B0C7F0422900714
:1042F6003DE0C394CD50337BFF7A3F79FE1255DD06
:104306007FFF125AE290073DE0FF125AE27BFF7AE6
:104316003F79F212567690073DE0FF125AFD7D3C3A
:0C4326007C00E4FF124B0C7F05227F009E
:014332002268
:103A9E0090074AE4F0A3EFF090074CE012369B3A01
:103AAE00D5003AFF053B27063B5B073B940A3BCD0F
:103ABE000B3C030C3C390D3C780F3CD7143CDF1902
:103ACE003D0F1E00003D3F90074AE0FEA3E0FFEED3
:103ADE007016EF24FE7003023D48147003023D4839
:103AEE0024FE6002800280547BFF7A407904023DFE
:103AFE004590074AE0FEA3E0FFEE7014EF24FD6050
:103B0E000D24FE7003023D4824037004805F802460
:103B1E007BFF7A407912023D4590074AE0FEA3E012
:103B2E00FFEE7020EF24FD601324FE7003023D486B
:103B3E002403701090074C7407023C6490074C7479
:103B4E0005023C647BFF7A40791F023D4590074A8F
:103B5E00E0FEA3E0FFEE7025EF24FD601024FE6072
:103B6E00142403701890074C7405023C6490074CA3
:103B7E007406023C6490074C740A023C647BFF7A24
:103B8E0040792B023D4590074AE0FEA3E0FFEE7020
:103B9E0025EF24FD601024FE601424037018900796
:103BAE004C740B023C6490074C740D023C649007FD
:103BBE004C740F023C647BFF7A407939023D45908C
:103BCE00074AE0FEA3E0FFEE7022EF24FD600F2413
:103BDE00FE60122403701590074C740A80789007CB
:103BEE004C740C807190074C7414806A7BFF7A4081
:103BFE00794A023D4590074AE0FEA3E0FFEE7022AF
:103C0E00EF24FD600F24FE60122403701590074C04
:103C1E00740D804290074C740B803B90074C7419C6
:103C2E0080347BFF7A407956023D4590074AE0FE8C
:103C3E00A3E0FFEE702BEF24FD600F24FE60122434
:103C4E0003701E90074C740A800C90074C740C8005
:103C5E000590074C741EF0E490074AF0A3F0023A68
:103C6E00A67BFF7A40796A023D4590074AE0FEA3A3
:103C7E00E0FFEE704CEF24FD602F24FE603724032E
:103C8E00703F7BFF7A40797A125676B2E920E903CB
:103C9E00023D48125ACA7BFF30E8077A40799702F4
:103CAE003D457A4079AA023D457BFF7A4079C312A1
:103CBE005676B2EA227BFF7A4079CD125676B2EB77
:103CCE00227BFF7A4079D6806E7BFF7A4079EB803B
:103CDE006690074AE0FEA3E0FFEE701DEF24FD6044
:103CEE001024FE6055240370107BFF7A4079FA8011
:103CFE00467BFF7A41791D803E7BFF7A4179408079
:103D0E003690074AE0FEA3E0FFEE701DEF24FD6043
:103D1E001024FE6025240370107BFF7A41795780B2
:103D2E00167BFF7A417966800E7BFF7A4179778028
:0A3D3E00067BFF7A41798A1256765F
:013D48002258
:10305E0002341FE86480F8E933E83360110460F04D
:10306E00ED33EC337009E8FCE9FDEAFEEBFF2204D8
:10307E0060DED3EB9FEA9EE99DE8C2E78CF0C2F7D3
:10308E0095F0400CE8CCF8E9CDF9EACEFAEBCFFB9F
:10309E001233EA85D0F05804700320D5B3E80470DB
:1030AE00075002B2D502342992D5EC0460F7E4CC75
:1030BE00C0E0C398F8603B94186008400DD0E0FB68
:1030CE00023401E4FBFAC9FC8028E830E406E4C9C6
:1030DE00FBE4CAFCE830E305E4C9CACBFCE85407BC
:1030EE006010F8C3E913F9EA13FAEB13FBEC13FCC7
:1030FE00D8F130F52FC3E49CFCEF9BFFEE9AFEED6A
:10310E0099FDD0E0FBEF4E4D4C701222DB030234E2
:10311E0026EC2CFCEF33FFEE33FEED33FDED30E706
:10312E00EB023401EF2BFFEE3AFEED39FDD0E0FB62
:10313E0050130BBB0003023429ED13FDEE13FEEF0B
:08314E0013FFEC13FC02340135
:10315600EC4D6011E8497017ED33EC3304600DE473
:10316600FCFFFEFD22E933E8330470F802341F1237
:1031760033EA58046009E4CC248150062850090239
:103186003429284003023426C0E0EB4A7044B98053
:1031960006D0E0FB023415EF4E701CBD8008EBFF35
:1031A600EAFEE9FD80EBE98DF0A4FEE5F002323F90
:1031B600E9CDF9EAFEEBFFEF89F0A4FCE5F0CE8954
:1031C600F0A42EFFE435F0CD89F0A42DFEE435F011
:1031D6008067EF4E7005BD80D780C3EF8BF0A4AC3F
:1031E600F0EE8BF0A42CFCE435F0F8EF8AF0A42C7A
:1031F600E5F038FCE433CB8DF0A42CFCE5F03BF88D
:10320600EE8AF0A42CFCE5F038F8E433CF89F0A47C
:103216002CFCE5F038CF3400CE89F0A42FFFE5F082
:103226003EFEE433C98DF0A42EFEE5F039CD8AF0DA
:10323600A42FFFE5F03EFEE43DFD33D0E0FB500752
:103246000BBB000F023429EC2CFCEF33FFEE33FEF0
:06325600ED33FD0234011E
:10325C00023429EC5D046005E85904700302341F44
:10326C001233EA580460F6EC4860F2EC7004FDFE90
:10327C00FF22C860DB2481C85009C3986002500645
:10328C000234269850CAF582E9294B4A7005AB8264
:10329C0002341575F0007C1A7880C3EF9BEE9AED22
:1032AC0099400DC3EF9BFFEE9AFEED99FDE842F0BD
:1032BC00DC23ACF0D0E0FFD0E0FED0E0FDAB822010
:1032CC00E7101BEB60BAEC2CFCEF33FFEE33FEED9A
:1032DC0033FD023401E803F830E705C0F075F00067
:1032EC00EF2FFFEE33FEED33FD40B830E7C280AA7E
:1032FC0074F8CC6480CCC86480C8F58204604FC379
:10330C00EB9FF5F0EA9E42F0E99D42F0E89C45F017
:10331C00603C501DE5825FFFE582D313CB5BCBF4A1
:10332C002B5582FB50280ABA002409B900200880CA
:10333C001DE5825BFBE582D313CF5FCFF4C3132F64
:10334C005582FF50090EBE00050DBD00010CC3EBEC
:10335C009FF5F0EA9E42F0E99D42F0E89C45F06052
:09336C0007CC4820E701B3EC2274
:1033750075F020800E75F010800575F0087D007ED3
:10338500007F003392D530D50312363CEC33401024
:10339500EF33FFEE33FEED33FDEC33FCD5F0ED22DC
:0E33A500E5F0247EA2D513CC92E7CDCEFF2218
:1033B300EDD2E7CD33EC3392D524814006E4FFFE12
:1033C300FDFC22FCE4CFCECDCC24E0501174FF8071
:1033D300EDC3CC13CCCD13CDCE13CECF13CF04700E
:0733E300F030D5DE02363C9C
:1033EA00E9D2E7C933E833F892D5EDD2E7CD33EC29
:0733FA0033FC5002B2D522A2
:10340100EC30E7100FBF000C0EBE00080DBD00042C
:103411000BEB6014A2D5EB13FCED92E7FD2274FFD8
:10342100FCFDFEFF22E480F8A2D574FF13FC7D8031
:03343100E480EF45
:1050590002572AE493A3F8E493A34003F68001F2EC
:1050690008DFF48029E493A3F85407240CC8C33358
:10507900C4540F4420C8834004F456800146F6DF27
:10508900E4800B010204081020408090378FE47EF1
:10509900019360BCA3FF543F30E509541FFEE4931C
:1050A900A360010ECF54C025E060A840B8E493A3E3
:1050B900FAE493A3F8E493A3C8C582C8CAC583CA0E
:1050C900F0A3C8C582C8CAC583CADFE9DEE780BEC6
:013A9D000028
:10343400E709F608DFFA8046E709F208DFFA803E7A
:1034440088828C83E709F0A3DFFA8032E309F60867
:10345400DFFA8078E309F208DFFA807088828C83CF
:10346400E309F0A3DFFA806489828A83E0A3F60883
:10347400DFFA805889828A83E0A3F208DFFA804C5D
:1034840080D280FA80C680D4806980F28033801034
:1034940080A680EA809A80A880DA80E280CA80339D
:1034A40089828A83ECFAE493A3C8C582C8CCC58315
:1034B400CCF0A3C8C582C8CCC583CCDFE9DEE780E5
:1034C4000D89828A83E493A3F608DFF9ECFAA9F064
:1034D400EDFB2289828A83ECFAE0A3C8C582C8CCBA
:1034E400C583CCF0A3C8C582C8CCC583CCDFEADED3
:1034F400E880DB89828A83E493A3F208DFF980CC35
:1035040088F0EF60010E4E60C388F0ED2402B4042D
:103514000050B9F582EB2402B4040050AF232345D4
:0635240082239034847341
:10352A00BB010689828A83E0225002E722BBFE029F
:09353A00E32289828A83E49322D2
:10354300BB010CE58229F582E5833AF583E022503D
:1035530006E92582F8E622BBFE06E92582F8E22287
:0D356300E58229F582E5833AF583E49322A1
:10357000EF8DF0A4A8F0CF8CF0A428CE8DF0A42E6F
:02358000FE2229
:10358200BC000BBE0029EF8DF084FFADF022E4CC2D
:10359200F875F008EF2FFFEE33FEEC33FCEE9DECF6
