:030000000260E2B9
:0C60E200787FE4F6D8FD75814102612949
:10604700E49004F6F0A3F0A3F0A31240750000005B
:1060570000E49004FDF0A3F0A3F0A3F0A3F0126D09
:1060670037126AB2126C39126BD0126BEB126B0BD0
:10607700126D6D1261F8126CEE126E0AE49004F75D
:10608700F0A3F090039CE07002A3E060289004F76F
:10609700E024A8F582E43401F583E0FF126E5D90F9
:1060A70004F7E004F090039DE024FFF090039CE0E8
:1060B70034FFF080CE9001A7E060BE9004F8E024A2
:1060C700DDF582E43400F583E0FF126E789004F882
:0B60D700E004F09001A7E014F080DA74
:106CEE0053CB1F43CCE043CB1043CC10C2EDC2EFCD
:036CFE00D2EE22B1
:05627D009005F3EFF0B5
:10628200E4A3F0A3F0126DAF7F01126E667FFC12E1
:106292006E667F01126E667F01126E669005F3E0F4
:1062A200FF126E66126DBF9001A5E070037FFF22A0
:1062B2009001A5E0FF9005F4E0FCA3E0FDC39F740C
:1062C20080F8EC648098501F74002DF58274003CB5
:1062D200F583E0FF126E669005F5E004F070D19050
:1062E20005F4E004F080C9900002E0B401037F01EC
:0362F200227FFF09
:0162F5002286
:1068F100126DAF7F01126E667FFC126E667F02120F
:106901006E66E4FF126E66126DBF9001A5E064052C
:1069110060037FFF22900003E0B40104A3E0FF22A3
:036921007FFF22D3
:0C0016007F547EF77D18DDFEDEFCDFFA73
:0100220022BB
:0E6DBF0000007F027EAF7D4BDDFEDEFCDFFAC2
:016DCD0022A3
:0E6DCE0000007F0D7E9C7D53DDFEDEFCDFFAB3
:016DDC002294
:0E6DDD0000007F017ED87D23DDFEDEFCDFFAA4
:016DEB002285
:0E6DEC0000007F2B7E067DCBDDFEDEFCDFFA95
:016DFA002276
:0E6DFB0000007FFD7E237DDCDDFEDEFCDFFA86
:016E09002266
:0E6E0A0000007F117ED07D1BDDFEDEFCDFFA76
:016E18002257
:0E6E190000007F057E347DC3DDFEDEFCDFFA67
:016E27002248
:040006007F0EDFFE8C
:01000A0022D3
:0E6E280000007F097E687D8BDDFEDEFCDFFA58
:016E36002239
:104DDA00204E4F54205265616420434D44200020E8
:104DEA00696E64795F7265616473656E736F72630D
:104DFA006F646520656E64200020696E64795F7255
:104E0A006561647273736920656E64200020696E3F
:104E1A0064795F7265616474656D70207374617220
:104E2A0074200D0A0020696E64795F72656164748A
:104E3A00656D7020656E64200D0A0020696E6479C4
:104E4A005F7265616474656D7020656E642000240C
:104E5A000349006D00700069006E006A0053006526
:104E6A00007200690061006C004E0075006D003030
:104E7A000031004003BFFCBFFCBFFC000001001270
:104E8A0000210000001000000000000000050000E2
:104E9A0000000000000600000000000000100000F2
:104EAA000000000000110088E1F3C000000000F0DB
:104EBA00000602000001001200210000000200A00A
:104ECA0000A002000000030000000000000200A091
:104EDA0000A0020000611B0206000000000500009D
:104EEA0000000000000207010000000000050000A9
:104EFA00000000000004070000000000000507D0C1
:104F0A0007000000000607DC000000000007070099
:104F1A002000000000120BFFFF0F00000005000038
:104F2A00000000000000050000000000000005006D
:104F3A00000000000000060000000000000005005C
:104F4A00000000000000050000000000000006004C
:104F5A00000000000100000002000000270000001D
:104F6A00872E0D0001000100020000008F2E0D00A7
:104F7A00000000000000050000000000000006001C
:044F8A000000000023
:086A520041055AFF41055B00FC
:0B6492007B027F047A00E4FDFC7E0A20
:10649D009005BBEEF0A3EFF0A3ECF0A3EDF0A3EAB3
:1064AD00F0A3EBF07F01126E5DE4FF126E5D9005BF
:1064BD00BBA3E0FF126E5D9005BBE0FF126E5D9019
:1064CD0005BFA3E0FF126E5D9005BFE0FF126E5D8C
:1064DD009005BDA3E0FF126E5D9005BDE0FF026E5D
:0164ED005D51
:1068840090060BEEF0A3EFF0E4FF126E5DE4FF124E
:106894006E5D90060BA3E0FF126E5D90060BE0FFA9
:1068A400126E5DE4FF126E5DE4FF126E5DE4FF1292
:0768B4006E5DE4FF026E5D62
:10559C00E4FF90053AE090055DF0E490055CF09036
:1055AC00055CE0FEFD3395E0FC743B2DF582740543
:1055BC003CF583E0FDEEFB3395E0FA745E2BF5824F
:1055CC0074053AF583EDF090055CE004F0E0B40C62
:1055DC00CEE490055CF090055CE0FEFD3395E0FCBC
:1055EC0074472DF58274053CF583E0FDEEFB339595
:1055FC00E0FA746A2BF58274053AF583EDF09005A8
:10560C005CE004F0E0B402CE90055C740FF0900501
:10561C005CE0FEC3648094A0501AEEFD3395E0FC70
:10562C00745D2DF58274053CF583E4F090055CE027
:10563C0004F080DAE490055CF090055CE0FEC36455
:10564C008094A0501BEEFD3395E0FC745D2DF5822B
:10565C0074053CF583E02FFF90055CE004F080D9E5
:10566C00EF90057CF0E490055CF090055CE0FFC3E6
:10567C00648094A0504AEF3395E0FE745D2FF58260
:10568C0074053EF583E0FF126E6690055CE0FE75D6
:10569C00F010123EFD04FFEE75F010123EFDADF061
:1056AC0090055CE0FB3395E0FA745D2BF582740594
:1056BC003AF583E0FB12591D90055CE004F080AADA
:0156CC0022BB
:1064EE00E490053AF0FFEFFD3395E0FC743B2DF59B
:1064FE008274053CF583E4F00FEFB40CE9E4FFEF92
:10650E00FD3395E0FC74472DF58274053CF583E46C
:10651E00F00FEFB402E9E4FFC3EF648094805015EE
:10652E00EFFD3395E0FC74492DF58274053CF5833F
:0A653E00E4F00F80E3E4900559F04B
:016548002230
:104B430090057F7401F0E4A3F0A3F074FFA3F0A336
:104B5300F0E4A3F0A3F0A3F0A3F0A3F0A3F0A3F079
:104B6300A3F0A3F0A3F0A3F0A37412F0E4A3F0C2A4
:104B730008C209A3F0900584E0FEA3E024A8F5820F
:104B830074013EF583E064016003024DD99005840E
:104B9300A3E0FF24A9F58274013EF583E09005911B
:104BA300F074AB2FF58274013EF583E0FE9005842B
:104BB300E0FCA3E0FD24AAF58274013CF583E07ACE
:104BC300002400FFEA3E900582F0A3EFF074AD2DC0
:104BD300F58274013CF583E0FE900584A3E024ACE8
:104BE300F58274013CF583E02400FFEA3E900580E2
:104BF300F0A3EFF0ED2408FFE43C900586F0FCA35E
:104C0300EFF0FD900580E0FAA3E0FBAE027802C36B
:104C130033CE33CED8F92DFFEE3C900588F0A3EFC9
:104C2300F0EB2402FFE43AFEEF7802C333CE33CE37
:104C3300D8F9FF900585E02FF0900584E03EF090D1
:104C43000582E07004A3E064057061900587E024A9
:104C53000EFE900586E0340090058AF0A3CEF0E4C2
:104C630090057DF0A3F090057DE0FEA3E0FF9005A5
:104C73008BE02FFD90058AE03EFC74A82DF582742D
:104C8300013CF583E0FD743B2FF58274053EF5830B
:104C9300EDF090057EE004F0700690057DE004F0F1
:104CA30090057DE07004A3E0640C70BA900582E087
:104CB3007004A3E064066003024B78900591E06002
:104CC30003024DD9900586E0FEA3E0FF24ACF582F4
:104CD30074013EF583E064C26003024DCDEF240C02
:104CE300FFE43E90058CF0A3EFF090053AE024FE3C
:104CF300605C147003024DA024026003024DC3E400
:104D030090057DF0A3F090057DE0FEA3E0FF900504
:104D13008DE02FFD90058CE03EFC74A82DF5827488
:104D2300013CF583E0FD74472FF58274053EF5835E
:104D3300EDF090057EE004F0700690057DE004F050
:104D430090057DE07004A3E0640270BA8069E4908A
:104D5300057DF0A3F090057DE0FEA3E0FF90058DB7
:104D6300E02FFD90058CE03EFC74A82DF5827401C4
:104D73003CF583E0FD74472FF58274053EF583ED22
:104D8300F090057EE004F0700690057DE004F0905D
:104D9300057DE07004A3E0640270BA801AE4900514
:104DA30047F090058CE0FEA3E024A9F58274013E50
:104DB300F583E0900548F090055BE004F0024B7842
:104DC300E490055AF0A3F0024B787BFF7A4D79DA31
:064DD30012543D024B7872
:014DD90022B7
:1065F200E490060DF0A3F0FBFAFDFC7F027E0A1286
:10660200649D7B0C7F03126496126492E4FBFAFD94
:10661200FC7F067E0A12649D7B107A00E4FDFCFF7B
:106622007EF012649D1200169001A8E0B40107C228
:0F663200AC124B43D2AC7BFF7A4D79E90257F99A
:10654900E490060FF0A3F0FBFAFDFC7F027E0A122D
:10655900649D7B0D7A00E4FDFC7F037E0A12649D35
:10656900126492E4FBFAFDFC7F067E0A12649D7BAD
:10657900087A00E4FDFCFF7EF012649D120016907B
:1065890001A8E0B40107C2AC124B43D2AC7BFF7A3D
:066599004E79030257F9E0
:1062F600E4900611F0A3F07BFF7A4E7917126957E6
:10630600E4FBFAFDFC7F027E0A12649D7B0E7A0096
:10631600E4FDFC7F037E0A12649D126492E4FBFA9C
:10632600FDFC7F067E0A12649D7B077A00E4FDFC75
:10633600FF7EF012649D126CAE126DBF9001A8E054
:10634600B40107C2AC124B43D2AC7BFF7A4E792F15
:0C6356001269577BFF7A4E79450257F917
:10671A00E4FF900000E060379001A5E0C3940850C0
:10672A0003E4FE22E4FEEEFD3395E0FC74002DF551
:10673A008274003CF583E02FFF0EEEB407E8900068
:10674A0007E0B507057E007F0122126DAF8000E4E5
:02675A00FEFF40
:01675C00221A
:10009E00EF14B42200400302233C9000B675F00327
:1000AE00A4C58325F0C5837302011C02012502013C
:1000BE002E0201300201320203A902013502014370
:1000CE0002015102015F02016D02017B02018F02EA
:1000DE0001A30201B70201F302020702026B020240
:1000EE007F0202930202A70202BB0202CF02233C4E
:1000FE0002030B0203470203A902035B02039602EB
:10010E0003A90203BC0203D40203A90203FC7FC0AD
:10011E00126E5D7F0680337F40126E5D7F03802AF4
:10012E00802F8003020347E4FF126E5DE4FF126E20
:10013E005D7F108058E4FF126E5DE4FF126E5D7FEE
:10014E0011804AE4FF126E5DE4FF126E5DE4FF80E3
:10015E003CE4FF126E5DE4FF126E5D7F01802EE4C3
:10016E00FF126E5DE4FF126E5D7F028020E4FF12CF
:10017E006E5DE4FF126E5DE4FF126E5D7F0302039F
:10018E00E5E4FF126E5DE4FF126E5D7F02126E5D9E
:10019E00E4FF0203E5E4FF126E5DE4FF126E5D7F85
:1001AE0061126E5D7F1B0203E57F01126E5DE4FF3F
:1001BE00126E5D7F01126E5D7F07126E5DE4FF129F
:1001CE006E5DE4FF126E5DE4FF126E5DE4FF126E73
:1001DE005DE4FF126E5DE4FF126E5D7F05126E5DD3
:1001EE00E4FF0203E5E4FF126E5DE4FF126E5D7F35
:1001FE0002126E5D7F070203E57F01126E5DE4FF62
:10020E00126E5D7F02126E5D7F07126E5D7F0112B0
:10021E006E5DE4FF126E5DE4FF126E5DE4FF126E22
:10022E005D7F01126E5DE4FF126E5D7F01126E5DE9
:10023E007F07126E5DE4FF126E5DE4FF126E5DE4E9
:10024E00FF126E5DE4FF126E5DE4FF126E5DE4FF61
:10025E00126E5D7F05126E5DE4FF0203E5E4FF1290
:10026E006E5DE4FF126E5D7F04126E5D7F0702030A
:10027E00E5E4FF126E5DE4FF126E5D7F05126E5DAA
:10028E007F070203E5E4FF126E5DE4FF126E5D7FF1
:10029E0006126E5D7F070203E5E4FF126E5DE4FF5A
:1002AE00126E5D7F07126E5D7F070203E5E4FF129B
:1002BE006E5DE4FF126E5D7F12126E5D7F0B0203A8
:1002CE00E57F01126E5DE4FF126E5D7F01126E5DC1
:1002DE007F07126E5DE4FF126E5DE4FF126E5DE449
:1002EE00FF126E5DE4FF126E5DE4FF126E5DE4FFC1
:1002FE00126E5D7F05126E5DE4FF0203E57F011253
:10030E006E5DE4FF126E5D7F0A126E5D7F01126EEE
:10031E005D7FF8126E5D7F59126E5D7F0D126E5D00
:10032E00E4FF126E5DE4FF126E5DE4FF126E5D7F00
:10033E0005126E5DE4FF0203E5E4FF126E5DE4FF5D
:10034E00126E5D7F05126E5DE4FF0203E57F011202
:10035E006E5DE4FF126E5D7F08126E5D7F01126EA0
:10036E005D7F01126E5D7F01126E5DE4FF126E5DA8
:10037E00E4FF126E5DE4FF126E5DE4FF126E5D7FB0
:10038E0005126E5DE4FF804FE4FF126E5DE4FF1216
:10039E006E5D7F05126E5DE4FF803CE4FF126E5DC4
:1003AE00E4FF126E5D7F06126E5DE4FF80297F0111
:1003BE00126E5DE4FF126E5DE4FF126E5D7FF01251
:1003CE006E5D7F278016E4FF126E5DE4FF126E5D98
:1003DE007F05126E5DE4FF126E5DE4FF126E5DE44A
:1003EE00FF126E5DE4FF126E5DE4FF0223397F01A2
:1003FE00126E5DE4FF126E5D7F01126E5D7F0C1258
:10040E006E5DE4FF126E5DE4FF126E5DE4FF126E30
:10041E005DE4FF126E5D7F01126E5DE4FF126E5D94
:10042E007F02126E5D7F0C126E5D7F01126E5DE4B7
:10043E00FF126E5DE4FF126E5DE4FF126E5D7F01D2
:10044E00126E5DE4FF126E5D7F03126E5D7F0C1205
:10045E006E5D7F70126E5D7F0D126E5D7F18126E77
:10046E005DE4FF126E5D7F01126E5DE4FF126E5D44
:10047E007F04126E5D7F0C126E5DE4FF126E5D7F67
:10048E0001126E5D7F07126E5D7F14126E5D7F012D
:10049E00126E5DE4FF126E5D7F01126E5D7F0C12B7
:1004AE006E5D7F01126E5DE4FF126E5DE4FF126EF3
:1004BE005DE4FF126E5D7F01126E5DE4FF126E5DF4
:1004CE007F02126E5D7F0C126E5D7F01126E5DE417
:1004DE00FF126E5DE4FF126E5DE4FF126E5D7F0132
:1004EE00126E5DE4FF126E5D7F03126E5D7F0C1265
:1004FE006E5D7F84126E5D7F0D126E5D7F18126EC3
:10050E005DE4FF126E5D7F01126E5DE4FF126E5DA3
:10051E007F04126E5D7F0C126E5DE4FF126E5D7FC6
:10052E0001126E5D7F07126E5D7F14126E5D7F018C
:10053E00126E5DE4FF126E5D7F01126E5D7F0C1216
:10054E006E5D7F02126E5DE4FF126E5DE4FF126E51
:10055E005DE4FF126E5D7F01126E5DE4FF126E5D53
:10056E007F02126E5D7F0C126E5D7F01126E5DE476
:10057E00FF126E5DE4FF126E5DE4FF126E5D7F0191
:10058E00126E5DE4FF126E5D7F03126E5D7F0C12C4
:10059E006E5D7F98126E5D7F0D126E5D7F18126E0E
:1005AE005DE4FF126E5D7F01126E5DE4FF126E5D03
:1005BE007F04126E5D7F0C126E5DE4FF126E5D7F26
:1005CE0001126E5D7F07126E5D7F14126E5D7F01EC
:1005DE00126E5DE4FF126E5D7F01126E5D7F0C1276
:1005EE006E5D7F03126E5DE4FF126E5DE4FF126EB0
:1005FE005DE4FF126E5D7F01126E5DE4FF126E5DB3
:10060E007F02126E5D7F0C126E5D7F01126E5DE4D5
:10061E00FF126E5DE4FF126E5DE4FF126E5D7F01F0
:10062E00126E5DE4FF126E5D7F03126E5D7F0C1223
:10063E006E5D7FAC126E5D7F0D126E5D7F18126E59
:10064E005DE4FF126E5D7F01126E5DE4FF126E5D62
:10065E007F04126E5D7F0C126E5DE4FF126E5D7F85
:10066E0001126E5D7F07126E5D7F14126E5D7F014B
:10067E00126E5DE4FF126E5D7F01126E5D7F0C12D5
:10068E006E5D7F04126E5DE4FF126E5DE4FF126E0E
:10069E005DE4FF126E5D7F01126E5DE4FF126E5D12
:1006AE007F02126E5D7F0C126E5D7F01126E5DE435
:1006BE00FF126E5DE4FF126E5DE4FF126E5D7F0150
:1006CE00126E5DE4FF126E5D7F03126E5D7F0C1283
:1006DE006E5D7FC0126E5D7F0D126E5D7F18126EA5
:1006EE005DE4FF126E5D7F01126E5DE4FF126E5DC2
:1006FE007F04126E5D7F0C126E5DE4FF126E5D7FE5
:10070E0001126E5D7F07126E5D7F14126E5D7F01AA
:10071E00126E5DE4FF126E5D7F01126E5D7F0C1234
:10072E006E5D7F05126E5DE4FF126E5DE4FF126E6C
:10073E005DE4FF126E5D7F01126E5DE4FF126E5D71
:10074E007F02126E5D7F0C126E5D7F01126E5DE494
:10075E00FF126E5DE4FF126E5DE4FF126E5D7F01AF
:10076E00126E5DE4FF126E5D7F03126E5D7F0C12E2
:10077E006E5D7FD4126E5D7F0D126E5D7F18126EF0
:10078E005DE4FF126E5D7F01126E5DE4FF126E5D21
:10079E007F04126E5D7F0C126E5DE4FF126E5D7F44
:1007AE0001126E5D7F07126E5D7F14126E5D7F010A
:1007BE00126E5DE4FF126E5D7F01126E5D7F0C1294
:1007CE006E5D7F06126E5DE4FF126E5DE4FF126ECB
:1007DE005DE4FF126E5D7F01126E5DE4FF126E5DD1
:1007EE007F02126E5D7F0C126E5D7F01126E5DE4F4
:1007FE00FF126E5DE4FF126E5DE4FF126E5D7F010F
:10080E00126E5DE4FF126E5D7F03126E5D7F0C1241
:10081E006E5D7FE8126E5D7F0D126E5D7F18126E3B
:10082E005DE4FF126E5D7F01126E5DE4FF126E5D80
:10083E007F04126E5D7F0C126E5DE4FF126E5D7FA3
:10084E0001126E5D7F07126E5D7F14126E5D7F0169
:10085E00126E5DE4FF126E5D7F01126E5D7F0C12F3
:10086E006E5D7F07126E5DE4FF126E5DE4FF126E29
:10087E005DE4FF126E5D7F01126E5DE4FF126E5D30
:10088E007F02126E5D7F0C126E5D7F01126E5DE453
:10089E00FF126E5DE4FF126E5DE4FF126E5D7F016E
:1008AE00126E5DE4FF126E5D7F03126E5D7F0C12A1
:1008BE006E5D7FFC126E5D7F0D126E5D7F18126E87
:1008CE005DE4FF126E5D7F01126E5DE4FF126E5DE0
:1008DE007F04126E5D7F0C126E5DE4FF126E5D7F03
:1008EE0001126E5D7F07126E5D7F14126E5D7F01C9
:1008FE00126E5DE4FF126E5D7F01126E5D7F0C1253
:10090E006E5D7F08126E5DE4FF126E5DE4FF126E87
:10091E005DE4FF126E5D7F01126E5DE4FF126E5D8F
:10092E007F02126E5D7F0C126E5D7F01126E5DE4B2
:10093E00FF126E5DE4FF126E5DE4FF126E5D7F01CD
:10094E00126E5DE4FF126E5D7F03126E5D7F0C1200
:10095E006E5D7F10126E5D7F0E126E5D7F18126ED1
:10096E005DE4FF126E5D7F01126E5DE4FF126E5D3F
:10097E007F04126E5D7F0C126E5DE4FF126E5D7F62
:10098E0001126E5D7F07126E5D7F14126E5D7F0128
:10099E00126E5DE4FF126E5D7F01126E5D7F0C12B2
:1009AE006E5D7F09126E5DE4FF126E5DE4FF126EE6
:1009BE005DE4FF126E5D7F01126E5DE4FF126E5DEF
:1009CE007F02126E5D7F0C126E5D7F01126E5DE412
:1009DE00FF126E5DE4FF126E5DE4FF126E5D7F012D
:1009EE00126E5DE4FF126E5D7F03126E5D7F0C1260
:1009FE006E5D7F24126E5D7F0E126E5D7F18126E1D
:100A0E005DE4FF126E5D7F01126E5DE4FF126E5D9E
:100A1E007F04126E5D7F0C126E5DE4FF126E5D7FC1
:100A2E0001126E5D7F07126E5D7F14126E5D7F0187
:100A3E00126E5DE4FF126E5D7F01126E5D7F0C1211
:100A4E006E5D7F0A126E5DE4FF126E5DE4FF126E44
:100A5E005DE4FF126E5D7F01126E5DE4FF126E5D4E
:100A6E007F02126E5D7F0C126E5D7F01126E5DE471
:100A7E00FF126E5DE4FF126E5DE4FF126E5D7F018C
:100A8E00126E5DE4FF126E5D7F03126E5D7F0C12BF
:100A9E006E5D7F38126E5D7F0E126E5D7F18126E68
:100AAE005DE4FF126E5D7F01126E5DE4FF126E5DFE
:100ABE007F04126E5D7F0C126E5DE4FF126E5D7F21
:100ACE0001126E5D7F07126E5D7F14126E5D7F01E7
:100ADE00126E5DE4FF126E5D7F01126E5D7F0C1271
:100AEE006E5D7F0B126E5DE4FF126E5DE4FF126EA3
:100AFE005DE4FF126E5D7F01126E5DE4FF126E5DAE
:100B0E007F02126E5D7F0C126E5D7F01126E5DE4D0
:100B1E00FF126E5DE4FF126E5DE4FF126E5D7F01EB
:100B2E00126E5DE4FF126E5D7F03126E5D7F0C121E
:100B3E006E5D7F4C126E5D7F0E126E5D7F18126EB3
:100B4E005DE4FF126E5D7F01126E5DE4FF126E5D5D
:100B5E007F04126E5D7F0C126E5DE4FF126E5D7F80
:100B6E0001126E5D7F07126E5D7F14126E5D7F0146
:100B7E00126E5DE4FF126E5D7F01126E5D7F0C12D0
:100B8E006E5D7F0C126E5DE4FF126E5DE4FF126E01
:100B9E005DE4FF126E5D7F01126E5DE4FF126E5D0D
:100BAE007F02126E5D7F0C126E5D7F01126E5DE430
:100BBE00FF126E5DE4FF126E5DE4FF126E5D7F014B
:100BCE00126E5DE4FF126E5D7F03126E5D7F0C127E
:100BDE006E5D7F60126E5D7F0E126E5D7F18126EFF
:100BEE005DE4FF126E5D7F01126E5DE4FF126E5DBD
:100BFE007F04126E5D7F0C126E5DE4FF126E5D7FE0
:100C0E0001126E5D7F07126E5D7F14126E5D7F01A5
:100C1E00126E5DE4FF126E5D7F01126E5D7F0C122F
:100C2E006E5D7F0D126E5DE4FF126E5DE4FF126E5F
:100C3E005DE4FF126E5D7F01126E5DE4FF126E5D6C
:100C4E007F02126E5D7F0C126E5DE4FF126E5DE42C
:100C5E00FF126E5DE4FF126E5DE4FF126E5D7F01AA
:100C6E00126E5DE4FF126E5D7F03126E5D7F0C12DD
:100C7E006E5D7F60126E5D7F0E126E5D7F18126E5E
:100C8E005DE4FF126E5D7F01126E5DE4FF126E5D1C
:100C9E007F04126E5D7F0C126E5DE4FF126E5D7F3F
:100CAE0001126E5D7F07126E5D7F14126E5D7F0105
:100CBE00126E5DE4FF126E5D7F01126E5D7F0C128F
:100CCE006E5D7F0E126E5DE4FF126E5DE4FF126EBE
:100CDE005DE4FF126E5D7F01126E5DE4FF126E5DCC
:100CEE007F02126E5D7F0C126E5DE4FF126E5DE48C
:100CFE00FF126E5DE4FF126E5DE4FF126E5D7F010A
:100D0E00126E5DE4FF126E5D7F03126E5D7F0C123C
:100D1E006E5D7F60126E5D7F0E126E5D7F18126EBD
:100D2E005DE4FF126E5D7F01126E5DE4FF126E5D7B
:100D3E007F04126E5D7F0C126E5DE4FF126E5D7F9E
:100D4E0001126E5D7F07126E5D7F14126E5D7F0164
:100D5E00126E5DE4FF126E5D7F01126E5D7F0C12EE
:100D6E006E5D7F0F126E5DE4FF126E5DE4FF126E1C
:100D7E005DE4FF126E5D7F01126E5DE4FF126E5D2B
:100D8E007F02126E5D7F0C126E5DE4FF126E5DE4EB
:100D9E00FF126E5DE4FF126E5DE4FF126E5D7F0169
:100DAE00126E5DE4FF126E5D7F03126E5D7F0C129C
:100DBE006E5D7F60126E5D7F0E126E5D7F18126E1D
:100DCE005DE4FF126E5D7F01126E5DE4FF126E5DDB
:100DDE007F04126E5D7F0C126E5DE4FF126E5D7FFE
:100DEE0001126E5D7F07126E5D7F14126E5D7F01C4
:100DFE00126E5DE4FF126E5D7F01126E5D7F0C124E
:100E0E006E5D7F10126E5DE4FF126E5DE4FF126E7A
:100E1E005DE4FF126E5D7F01126E5DE4FF126E5D8A
:100E2E007F02126E5D7F0C126E5DE4FF126E5DE44A
:100E3E00FF126E5DE4FF126E5DE4FF126E5D7F01C8
:100E4E00126E5DE4FF126E5D7F03126E5D7F0C12FB
:100E5E006E5D7F60126E5D7F0E126E5D7F18126E7C
:100E6E005DE4FF126E5D7F01126E5DE4FF126E5D3A
:100E7E007F04126E5D7F0C126E5DE4FF126E5D7F5D
:100E8E0001126E5D7F07126E5D7F14126E5D7F0123
:100E9E00126E5DE4FF126E5D7F01126E5D7F0C12AD
:100EAE006E5D7F11126E5DE4FF126E5DE4FF126ED9
:100EBE005DE4FF126E5D7F01126E5DE4FF126E5DEA
:100ECE007F02126E5D7F0C126E5DE4FF126E5DE4AA
:100EDE00FF126E5DE4FF126E5DE4FF126E5D7F0128
:100EEE00126E5DE4FF126E5D7F03126E5D7F0C125B
:100EFE006E5D7F60126E5D7F0E126E5D7F18126EDC
:100F0E005DE4FF126E5D7F01126E5DE4FF126E5D99
:100F1E007F04126E5D7F0C126E5DE4FF126E5D7FBC
:100F2E0001126E5D7F07126E5D7F14126E5D7F0182
:100F3E00126E5DE4FF126E5D7F01126E5D7F0C120C
:100F4E006E5D7F12126E5DE4FF126E5DE4FF126E37
:100F5E005DE4FF126E5D7F01126E5DE4FF126E5D49
:100F6E007F02126E5D7F0C126E5DE4FF126E5DE409
:100F7E00FF126E5DE4FF126E5DE4FF126E5D7F0187
:100F8E00126E5DE4FF126E5D7F03126E5D7F0C12BA
:100F9E006E5D7F60126E5D7F0E126E5D7F18126E3B
:100FAE005DE4FF126E5D7F01126E5DE4FF126E5DF9
:100FBE007F04126E5D7F0C126E5DE4FF126E5D7F1C
:100FCE0001126E5D7F07126E5D7F14126E5D7F01E2
:100FDE00126E5DE4FF126E5D7F01126E5D7F0C126C
:100FEE006E5D7F13126E5DE4FF126E5DE4FF126E96
:100FFE005DE4FF126E5D7F01126E5DE4FF126E5DA9
:10100E007F02126E5D7F0C126E5DE4FF126E5DE468
:10101E00FF126E5DE4FF126E5DE4FF126E5D7F01E6
:10102E00126E5DE4FF126E5D7F03126E5D7F0C1219
:10103E006E5D7F60126E5D7F0E126E5D7F18126E9A
:10104E005DE4FF126E5D7F01126E5DE4FF126E5D58
:10105E007F04126E5D7F0C126E5DE4FF126E5D7F7B
:10106E0001126E5D7F07126E5D7F14126E5D7F0141
:10107E00126E5DE4FF126E5D7F01126E5D7F0C12CB
:10108E006E5D7F14126E5DE4FF126E5DE4FF126EF4
:10109E005DE4FF126E5D7F01126E5DE4FF126E5D08
:1010AE007F02126E5D7F0C126E5DE4FF126E5DE4C8
:1010BE00FF126E5DE4FF126E5DE4FF126E5D7F0146
:1010CE00126E5DE4FF126E5D7F03126E5D7F0C1279
:1010DE006E5D7F60126E5D7F0E126E5D7F18126EFA
:1010EE005DE4FF126E5D7F01126E5DE4FF126E5DB8
:1010FE007F04126E5D7F0C126E5DE4FF126E5D7FDB
:10110E0001126E5D7F07126E5D7F14126E5D7F01A0
:10111E00126E5DE4FF126E5D7F01126E5D7F0C122A
:10112E006E5D7F15126E5DE4FF126E5DE4FF126E52
:10113E005DE4FF126E5D7F01126E5DE4FF126E5D67
:10114E007F02126E5D7F0C126E5DE4FF126E5DE427
:10115E00FF126E5DE4FF126E5DE4FF126E5D7F01A5
:10116E00126E5DE4FF126E5D7F03126E5D7F0C12D8
:10117E006E5D7F60126E5D7F0E126E5D7F18126E59
:10118E005DE4FF126E5D7F01126E5DE4FF126E5D17
:10119E007F04126E5D7F0C126E5DE4FF126E5D7F3A
:1011AE0001126E5D7F07126E5D7F14126E5D7F0100
:1011BE00126E5DE4FF126E5D7F01126E5D7F0C128A
:1011CE006E5D7F16126E5DE4FF126E5DE4FF126EB1
:1011DE005DE4FF126E5D7F01126E5DE4FF126E5DC7
:1011EE007F02126E5D7F0C126E5DE4FF126E5DE487
:1011FE00FF126E5DE4FF126E5DE4FF126E5D7F0105
:10120E00126E5DE4FF126E5D7F03126E5D7F0C1237
:10121E006E5D7F60126E5D7F0E126E5D7F18126EB8
:10122E005DE4FF126E5D7F01126E5DE4FF126E5D76
:10123E007F04126E5D7F0C126E5DE4FF126E5D7F99
:10124E0001126E5D7F07126E5D7F14126E5D7F015F
:10125E00126E5DE4FF126E5D7F01126E5D7F0C12E9
:10126E006E5D7F17126E5DE4FF126E5DE4FF126E0F
:10127E005DE4FF126E5D7F01126E5DE4FF126E5D26
:10128E007F02126E5D7F0C126E5DE4FF126E5DE4E6
:10129E00FF126E5DE4FF126E5DE4FF126E5D7F0164
:1012AE00126E5DE4FF126E5D7F03126E5D7F0C1297
:1012BE006E5D7F60126E5D7F0E126E5D7F18126E18
:1012CE005DE4FF126E5D7F01126E5DE4FF126E5DD6
:1012DE007F04126E5D7F0C126E5DE4FF126E5D7FF9
:1012EE0001126E5D7F07126E5D7F14126E5D7F01BF
:1012FE00126E5DE4FF126E5D7F01126E5D7F0C1249
:10130E006E5D7F18126E5DE4FF126E5DE4FF126E6D
:10131E005DE4FF126E5D7F01126E5DE4FF126E5D85
:10132E007F02126E5D7F0C126E5DE4FF126E5DE445
:10133E00FF126E5DE4FF126E5DE4FF126E5D7F01C3
:10134E00126E5DE4FF126E5D7F03126E5D7F0C12F6
:10135E006E5D7F60126E5D7F0E126E5D7F18126E77
:10136E005DE4FF126E5D7F01126E5DE4FF126E5D35
:10137E007F04126E5D7F0C126E5DE4FF126E5D7F58
:10138E0001126E5D7F07126E5D7F14126E5D7F011E
:10139E00126E5DE4FF126E5D7F01126E5D7F0C12A8
:1013AE006E5D7F19126E5DE4FF126E5DE4FF126ECC
:1013BE005DE4FF126E5D7F01126E5DE4FF126E5DE5
:1013CE007F02126E5D7F0C126E5DE4FF126E5DE4A5
:1013DE00FF126E5DE4FF126E5DE4FF126E5D7F0123
:1013EE00126E5DE4FF126E5D7F03126E5D7F0C1256
:1013FE006E5D7F60126E5D7F0E126E5D7F18126ED7
:10140E005DE4FF126E5D7F01126E5DE4FF126E5D94
:10141E007F04126E5D7F0C126E5DE4FF126E5D7FB7
:10142E0001126E5D7F07126E5D7F14126E5D7F017D
:10143E00126E5DE4FF126E5D7F01126E5D7F0C1207
:10144E006E5D7F1A126E5DE4FF126E5DE4FF126E2A
:10145E005DE4FF126E5D7F01126E5DE4FF126E5D44
:10146E007F02126E5D7F0C126E5DE4FF126E5DE404
:10147E00FF126E5DE4FF126E5DE4FF126E5D7F0182
:10148E00126E5DE4FF126E5D7F03126E5D7F0C12B5
:10149E006E5D7F60126E5D7F0E126E5D7F18126E36
:1014AE005DE4FF126E5D7F01126E5DE4FF126E5DF4
:1014BE007F04126E5D7F0C126E5DE4FF126E5D7F17
:1014CE0001126E5D7F07126E5D7F14126E5D7F01DD
:1014DE00126E5DE4FF126E5D7F01126E5D7F0C1267
:1014EE006E5D7F1B126E5DE4FF126E5DE4FF126E89
:1014FE005DE4FF126E5D7F01126E5DE4FF126E5DA4
:10150E007F02126E5D7F0C126E5DE4FF126E5DE463
:10151E00FF126E5DE4FF126E5DE4FF126E5D7F01E1
:10152E00126E5DE4FF126E5D7F03126E5D7F0C1214
:10153E006E5D7F60126E5D7F0E126E5D7F18126E95
:10154E005DE4FF126E5D7F01126E5DE4FF126E5D53
:10155E007F04126E5D7F0C126E5DE4FF126E5D7F76
:10156E0001126E5D7F07126E5D7F14126E5D7F013C
:10157E00126E5DE4FF126E5D7F01126E5D7F0C12C6
:10158E006E5D7F1C126E5DE4FF126E5DE4FF126EE7
:10159E005DE4FF126E5D7F01126E5DE4FF126E5D03
:1015AE007F02126E5D7F0C126E5DE4FF126E5DE4C3
:1015BE00FF126E5DE4FF126E5DE4FF126E5D7F0141
:1015CE00126E5DE4FF126E5D7F03126E5D7F0C1274
:1015DE006E5D7F60126E5D7F0E126E5D7F18126EF5
:1015EE005DE4FF126E5D7F01126E5DE4FF126E5DB3
:1015FE007F04126E5D7F0C126E5DE4FF126E5D7FD6
:10160E0001126E5D7F07126E5D7F14126E5D7F019B
:10161E00126E5DE4FF126E5D7F01126E5D7F0C1225
:10162E006E5D7F1D126E5DE4FF126E5DE4FF126E45
:10163E005DE4FF126E5D7F01126E5DE4FF126E5D62
:10164E007F02126E5D7F0C126E5DE4FF126E5DE422
:10165E00FF126E5DE4FF126E5DE4FF126E5D7F01A0
:10166E00126E5DE4FF126E5D7F03126E5D7F0C12D3
:10167E006E5D7F60126E5D7F0E126E5D7F18126E54
:10168E005DE4FF126E5D7F01126E5DE4FF126E5D12
:10169E007F04126E5D7F0C126E5DE4FF126E5D7F35
:1016AE0001126E5D7F07126E5D7F14126E5D7F01FB
:1016BE00126E5DE4FF126E5D7F01126E5D7F0C1285
:1016CE006E5D7F1E126E5DE4FF126E5DE4FF126EA4
:1016DE005DE4FF126E5D7F01126E5DE4FF126E5DC2
:1016EE007F02126E5D7F0C126E5DE4FF126E5DE482
:1016FE00FF126E5DE4FF126E5DE4FF126E5D7F0100
:10170E00126E5DE4FF126E5D7F03126E5D7F0C1232
:10171E006E5D7F60126E5D7F0E126E5D7F18126EB3
:10172E005DE4FF126E5D7F01126E5DE4FF126E5D71
:10173E007F04126E5D7F0C126E5DE4FF126E5D7F94
:10174E0001126E5D7F07126E5D7F14126E5D7F015A
:10175E00126E5DE4FF126E5D7F01126E5D7F0C12E4
:10176E006E5D7F1F126E5DE4FF126E5DE4FF126E02
:10177E005DE4FF126E5D7F01126E5DE4FF126E5D21
:10178E007F02126E5D7F0C126E5DE4FF126E5DE4E1
:10179E00FF126E5DE4FF126E5DE4FF126E5D7F015F
:1017AE00126E5DE4FF126E5D7F03126E5D7F0C1292
:1017BE006E5D7F60126E5D7F0E126E5D7F18126E13
:1017CE005DE4FF126E5D7F01126E5DE4FF126E5DD1
:1017DE007F04126E5D7F0C126E5DE4FF126E5D7FF4
:1017EE0001126E5D7F07126E5D7F14126E5D7F01BA
:1017FE00126E5DE4FF126E5D7F01126E5D7F0C1244
:10180E006E5D7F20126E5DE4FF126E5DE4FF126E60
:10181E005DE4FF126E5D7F01126E5DE4FF126E5D80
:10182E007F02126E5D7F0C126E5DE4FF126E5DE440
:10183E00FF126E5DE4FF126E5DE4FF126E5D7F01BE
:10184E00126E5DE4FF126E5D7F03126E5D7F0C12F1
:10185E006E5D7F60126E5D7F0E126E5D7F18126E72
:10186E005DE4FF126E5D7F01126E5DE4FF126E5D30
:10187E007F04126E5D7F0C126E5DE4FF126E5D7F53
:10188E0001126E5D7F07126E5D7F14126E5D7F0119
:10189E00126E5DE4FF126E5D7F01126E5D7F0C12A3
:1018AE006E5D7F21126E5DE4FF126E5DE4FF126EBF
:1018BE005DE4FF126E5D7F01126E5DE4FF126E5DE0
:1018CE007F02126E5D7F0C126E5DE4FF126E5DE4A0
:1018DE00FF126E5DE4FF126E5DE4FF126E5D7F011E
:1018EE00126E5DE4FF126E5D7F03126E5D7F0C1251
:1018FE006E5D7F60126E5D7F0E126E5D7F18126ED2
:10190E005DE4FF126E5D7F01126E5DE4FF126E5D8F
:10191E007F04126E5D7F0C126E5DE4FF126E5D7FB2
:10192E0001126E5D7F07126E5D7F14126E5D7F0178
:10193E00126E5DE4FF126E5D7F01126E5D7F0C1202
:10194E006E5D7F22126E5DE4FF126E5DE4FF126E1D
:10195E005DE4FF126E5D7F01126E5DE4FF126E5D3F
:10196E007F02126E5D7F0C126E5DE4FF126E5DE4FF
:10197E00FF126E5DE4FF126E5DE4FF126E5D7F017D
:10198E00126E5DE4FF126E5D7F03126E5D7F0C12B0
:10199E006E5D7F60126E5D7F0E126E5D7F18126E31
:1019AE005DE4FF126E5D7F01126E5DE4FF126E5DEF
:1019BE007F04126E5D7F0C126E5DE4FF126E5D7F12
:1019CE0001126E5D7F07126E5D7F14126E5D7F01D8
:1019DE00126E5DE4FF126E5D7F01126E5D7F0C1262
:1019EE006E5D7F23126E5DE4FF126E5DE4FF126E7C
:1019FE005DE4FF126E5D7F01126E5DE4FF126E5D9F
:101A0E007F02126E5D7F0C126E5DE4FF126E5DE45E
:101A1E00FF126E5DE4FF126E5DE4FF126E5D7F01DC
:101A2E00126E5DE4FF126E5D7F03126E5D7F0C120F
:101A3E006E5D7F60126E5D7F0E126E5D7F18126E90
:101A4E005DE4FF126E5D7F01126E5DE4FF126E5D4E
:101A5E007F04126E5D7F0C126E5DE4FF126E5D7F71
:101A6E0001126E5D7F07126E5D7F14126E5D7F0137
:101A7E00126E5DE4FF126E5D7F01126E5D7F0C12C1
:101A8E006E5D7F24126E5DE4FF126E5DE4FF126EDA
:101A9E005DE4FF126E5D7F01126E5DE4FF126E5DFE
:101AAE007F02126E5D7F0C126E5DE4FF126E5DE4BE
:101ABE00FF126E5DE4FF126E5DE4FF126E5D7F013C
:101ACE00126E5DE4FF126E5D7F03126E5D7F0C126F
:101ADE006E5D7F60126E5D7F0E126E5D7F18126EF0
:101AEE005DE4FF126E5D7F01126E5DE4FF126E5DAE
:101AFE007F04126E5D7F0C126E5DE4FF126E5D7FD1
:101B0E0001126E5D7F07126E5D7F14126E5D7F0196
:101B1E00126E5DE4FF126E5D7F01126E5D7F0C1220
:101B2E006E5D7F25126E5DE4FF126E5DE4FF126E38
:101B3E005DE4FF126E5D7F01126E5DE4FF126E5D5D
:101B4E007F02126E5D7F0C126E5DE4FF126E5DE41D
:101B5E00FF126E5DE4FF126E5DE4FF126E5D7F019B
:101B6E00126E5DE4FF126E5D7F03126E5D7F0C12CE
:101B7E006E5D7F60126E5D7F0E126E5D7F18126E4F
:101B8E005DE4FF126E5D7F01126E5DE4FF126E5D0D
:101B9E007F04126E5D7F0C126E5DE4FF126E5D7F30
:101BAE0001126E5D7F07126E5D7F14126E5D7F01F6
:101BBE00126E5DE4FF126E5D7F01126E5D7F0C1280
:101BCE006E5D7F26126E5DE4FF126E5DE4FF126E97
:101BDE005DE4FF126E5D7F01126E5DE4FF126E5DBD
:101BEE007F02126E5D7F0C126E5DE4FF126E5DE47D
:101BFE00FF126E5DE4FF126E5DE4FF126E5D7F01FB
:101C0E00126E5DE4FF126E5D7F03126E5D7F0C122D
:101C1E006E5D7F60126E5D7F0E126E5D7F18126EAE
:101C2E005DE4FF126E5D7F01126E5DE4FF126E5D6C
:101C3E007F04126E5D7F0C126E5DE4FF126E5D7F8F
:101C4E0001126E5D7F07126E5D7F14126E5D7F0155
:101C5E00126E5DE4FF126E5D7F01126E5D7F0C12DF
:101C6E006E5D7F27126E5DE4FF126E5DE4FF126EF5
:101C7E005DE4FF126E5D7F01126E5DE4FF126E5D1C
:101C8E007F02126E5D7F0C126E5DE4FF126E5DE4DC
:101C9E00FF126E5DE4FF126E5DE4FF126E5D7F015A
:101CAE00126E5DE4FF126E5D7F03126E5D7F0C128D
:101CBE006E5D7F60126E5D7F0E126E5D7F18126E0E
:101CCE005DE4FF126E5D7F01126E5DE4FF126E5DCC
:101CDE007F04126E5D7F0C126E5DE4FF126E5D7FEF
:101CEE0001126E5D7F07126E5D7F14126E5D7F01B5
:101CFE00126E5DE4FF126E5D7F01126E5D7F0C123F
:101D0E006E5D7F28126E5DE4FF126E5DE4FF126E53
:101D1E005DE4FF126E5D7F01126E5DE4FF126E5D7B
:101D2E007F02126E5D7F0C126E5DE4FF126E5DE43B
:101D3E00FF126E5DE4FF126E5DE4FF126E5D7F01B9
:101D4E00126E5DE4FF126E5D7F03126E5D7F0C12EC
:101D5E006E5D7F60126E5D7F0E126E5D7F18126E6D
:101D6E005DE4FF126E5D7F01126E5DE4FF126E5D2B
:101D7E007F04126E5D7F0C126E5DE4FF126E5D7F4E
:101D8E0001126E5D7F07126E5D7F14126E5D7F0114
:101D9E00126E5DE4FF126E5D7F01126E5D7F0C129E
:101DAE006E5D7F29126E5DE4FF126E5DE4FF126EB2
:101DBE005DE4FF126E5D7F01126E5DE4FF126E5DDB
:101DCE007F02126E5D7F0C126E5DE4FF126E5DE49B
:101DDE00FF126E5DE4FF126E5DE4FF126E5D7F0119
:101DEE00126E5DE4FF126E5D7F03126E5D7F0C124C
:101DFE006E5D7F60126E5D7F0E126E5D7F18126ECD
:101E0E005DE4FF126E5D7F01126E5DE4FF126E5D8A
:101E1E007F04126E5D7F0C126E5DE4FF126E5D7FAD
:101E2E0001126E5D7F07126E5D7F14126E5D7F0173
:101E3E00126E5DE4FF126E5D7F01126E5D7F0C12FD
:101E4E006E5D7F2A126E5DE4FF126E5DE4FF126E10
:101E5E005DE4FF126E5D7F01126E5DE4FF126E5D3A
:101E6E007F02126E5D7F0C126E5DE4FF126E5DE4FA
:101E7E00FF126E5DE4FF126E5DE4FF126E5D7F0178
:101E8E00126E5DE4FF126E5D7F03126E5D7F0C12AB
:101E9E006E5D7F60126E5D7F0E126E5D7F18126E2C
:101EAE005DE4FF126E5D7F01126E5DE4FF126E5DEA
:101EBE007F04126E5D7F0C126E5DE4FF126E5D7F0D
:101ECE0001126E5D7F07126E5D7F14126E5D7F01D3
:101EDE00126E5DE4FF126E5D7F01126E5D7F0C125D
:101EEE006E5D7F2B126E5DE4FF126E5DE4FF126E6F
:101EFE005DE4FF126E5D7F01126E5DE4FF126E5D9A
:101F0E007F02126E5D7F0C126E5DE4FF126E5DE459
:101F1E00FF126E5DE4FF126E5DE4FF126E5D7F01D7
:101F2E00126E5DE4FF126E5D7F03126E5D7F0C120A
:101F3E006E5D7F60126E5D7F0E126E5D7F18126E8B
:101F4E005DE4FF126E5D7F01126E5DE4FF126E5D49
:101F5E007F04126E5D7F0C126E5DE4FF126E5D7F6C
:101F6E0001126E5D7F07126E5D7F14126E5D7F0132
:101F7E00126E5DE4FF126E5D7F01126E5D7F0C12BC
:101F8E006E5D7F2C126E5DE4FF126E5DE4FF126ECD
:101F9E005DE4FF126E5D7F01126E5DE4FF126E5DF9
:101FAE007F02126E5D7F0C126E5DE4FF126E5DE4B9
:101FBE00FF126E5DE4FF126E5DE4FF126E5D7F0137
:101FCE00126E5DE4FF126E5D7F03126E5D7F0C126A
:101FDE006E5D7F60126E5D7F0E126E5D7F18126EEB
:101FEE005DE4FF126E5D7F01126E5DE4FF126E5DA9
:101FFE007F04126E5D7F0C126E5DE4FF126E5D7FCC
:10200E0001126E5D7F07126E5D7F14126E5D7F0191
:10201E00126E5DE4FF126E5D7F01126E5D7F0C121B
:10202E006E5D7F2D126E5DE4FF126E5DE4FF126E2B
:10203E005DE4FF126E5D7F01126E5DE4FF126E5D58
:10204E007F02126E5D7F0C126E5DE4FF126E5DE418
:10205E00FF126E5DE4FF126E5DE4FF126E5D7F0196
:10206E00126E5DE4FF126E5D7F03126E5D7F0C12C9
:10207E006E5D7F60126E5D7F0E126E5D7F18126E4A
:10208E005DE4FF126E5D7F01126E5DE4FF126E5D08
:10209E007F04126E5D7F0C126E5DE4FF126E5D7F2B
:1020AE0001126E5D7F07126E5D7F14126E5D7F01F1
:1020BE00126E5DE4FF126E5D7F01126E5D7F0C127B
:1020CE006E5D7F2E126E5DE4FF126E5DE4FF126E8A
:1020DE005DE4FF126E5D7F01126E5DE4FF126E5DB8
:1020EE007F02126E5D7F0C126E5DE4FF126E5DE478
:1020FE00FF126E5DE4FF126E5DE4FF126E5D7F01F6
:10210E00126E5DE4FF126E5D7F03126E5D7F0C1228
:10211E006E5D7F60126E5D7F0E126E5D7F18126EA9
:10212E005DE4FF126E5D7F01126E5DE4FF126E5D67
:10213E007F04126E5D7F0C126E5DE4FF126E5D7F8A
:10214E0001126E5D7F07126E5D7F14126E5D7F0150
:10215E00126E5DE4FF126E5D7F01126E5D7F0C12DA
:10216E006E5D7F2F126E5DE4FF126E5DE4FF126EE8
:10217E005DE4FF126E5D7F01126E5DE4FF126E5D17
:10218E007F02126E5D7F0C126E5DE4FF126E5DE4D7
:10219E00FF126E5DE4FF126E5DE4FF126E5D7F0155
:1021AE00126E5DE4FF126E5D7F03126E5D7F0C1288
:1021BE006E5D7F60126E5D7F0E126E5D7F18126E09
:1021CE005DE4FF126E5D7F01126E5DE4FF126E5DC7
:1021DE007F04126E5D7F0C126E5DE4FF126E5D7FEA
:1021EE0001126E5D7F07126E5D7F14126E5D7F01B0
:1021FE00126E5DE4FF126E5D7F01126E5D7F0C123A
:10220E006E5D7F30126E5DE4FF126E5DE4FF126E46
:10221E005DE4FF126E5D7F01126E5DE4FF126E5D76
:10222E007F02126E5D7F0C126E5DE4FF126E5DE436
:10223E00FF126E5DE4FF126E5DE4FF126E5D7F01B4
:10224E00126E5DE4FF126E5D7F03126E5D7F0C12E7
:10225E006E5D7F60126E5D7F0E126E5D7F18126E68
:10226E005DE4FF126E5D7F01126E5DE4FF126E5D26
:10227E007F04126E5D7F0C126E5DE4FF126E5D7F49
:10228E0001126E5D7F07126E5D7F14126E5D7F010F
:10229E00126E5DE4FF126E5D7F01126E5D7F0C1299
:1022AE006E5D7F31126E5DE4FF126E5DE4FF126EA5
:1022BE005DE4FF126E5D7F01126E5DE4FF126E5DD6
:1022CE007F02126E5D7F0C126E5DE4FF126E5DE496
:1022DE00FF126E5DE4FF126E5DE4FF126E5D7F0114
:1022EE00126E5DE4FF126E5D7F03126E5D7F0C1247
:1022FE006E5D7F60126E5D7F0E126E5D7F18126EC8
:10230E005DE4FF126E5D7F01126E5DE4FF126E5D85
:10231E007F04126E5D7F0C126E5DE4FF126E5D7FA8
:0F232E0001126E5D7F07126E5D7F14126E5D22CD
:05233D0090039EEFF08B
:102342009003A07424F078A17C037D017BFF7A4E78
:1023520079597E00FF123ED79003C57408F078C603
:102362007C037D017BFF7A4E797D7E00FF123ED792
:102372009003CE7408F078CF7C037D017BFF7A4E08
:1023820079857E00FF123ED79003D77408F078D883
:102392007C037D017BFF7A4E798D7E00FF123ED752
:1023A2009003E07408F078E17C037D017BFF7A4EB4
:1023B20079957E00FF123ED79003E97408F078EA1F
:1023C2007C037D017BFF7A4E799D7E00FF123ED712
:1023D2009003F27408F078F37C037D017BFF7A4E60
:1023E20079A57E00FF123ED79003FB7408F078FCBB
:1023F2007C037D017BFF7A4E79AD7E00FF123ED7D2
:102402009004047408F078057C047D017BFF7A4E09
:1024120079B57E00FF123ED790040D7408F0780E55
:102422007C047D017BFF7A4E79BD7E00FF123ED790
:102432009004167408F078177C047D017BFF7A4EB5
:1024420079C57E00FF123ED790041F7408F07820F1
:102452007C047D017BFF7A4E79CD7E00FF123ED750
:102462009004287408F078297C047D017BFF7A4E61
:1024720079D57E00FF123ED79004317408F078328D
:102482007C047D017BFF7A4E79DD7E00FF123ED710
:1024920090043A7408F0783B7C047D017BFF7A4E0D
:1024A20079E57E00FF123ED79004437408F0784429
:1024B2007C047D017BFF7A4E79ED7E00FF123ED7D0
:1024C20090044C7408F0784D7C047D017BFF7A4EB9
:1024D20079F57E00FF123ED79004557408F07856C5
:1024E2007C047D017BFF7A4E79FD7E00FF123ED790
:1024F20090045E7408F0785F7C047D017BFF7A4F64
:1025020079057E00FF123ED79004677408F0786860
:102512007C047D017BFF7A4F790D7E00FF123ED74E
:102522009004707408F078717C047D017BFF7A4F0F
:1025320079157E00FF123ED79004797408F0787AFC
:102542007C047D017BFF7A4F791D7E00FF123ED70E
:102552009004827408F078837C047D017BFF7A4FBB
:1025620079257E00FF123ED7E490048BF0788C7CB4
:10257200047D017BFF7A4F792DFE7F01123ED790B9
:10258200048D7408F0788E7C047D017BFF7A4F798C
:102592002E7E00FF123ED79004967408F078977C46
:1025A200047D017BFF7A4F79367E00FF123ED79081
:1025B200049F7408F078A07C047D017BFF7A4F7938
:1025C2003E7E00FF123ED79004A87408F078A97CE2
:1025D200047D017BFF7A4F79467E00FF123ED79041
:1025E20004B17408F078B27C047D017BFF7A4F79E4
:1025F2004E7E00FF123ED79004BA7408F078BB7C7E
:10260200047D017BFF7A4F79567E00FF123ED79000
:1026120004C37420F078C47C047D017BFF7A4F7977
:102622005E7E00FF123ED79004E47408F078E57CE9
:10263200047D017BFF7A4F797E7E00FF123ED790A8
:1026420004ED7408F078EE7C047D017BFF7A4F790B
:10265200867E00FF123ED790039EE014B421004014
:102662000302304B90267475F003A4C58325F0C590
:1026720083730226D70227250227730227C1022865
:102682000F02285D0228AB0228F902294702299588
:102692000229E3022A31022A7F022ACD022B1B02DF
:1026A2002B69022BB7022C05022C53022CA1022CFF
:1026B200A4022CF2022D40022D8E022DDC022E2AC3
:1026C200022E78022EC6022F14022F62022CA102C1
:1026D2002FB0022FFDE490039FF09003A0E0FF9043
:1026E200039FE0FEC3EF6480F8EE6480984003022B
:1026F200304EE0FFFD3395E0FC74A12DF5827403AA
:102702003CF583E0FEEF3395E0FC74A82DF582746E
:10271200013CF583E06E600302303D90039FE004CC
:10272200F080B7E490039FF09003C5E0FF90039F11
:10273200E0FEC3EF6480F8EE648098400302304EFE
:10274200E0FFFD3395E0FC74C62DF58274033CF581
:1027520083E0FEEF3395E0FC74A82DF58274013C12
:10276200F583E06E600302303D90039FE004F08049
:10277200B7E490039FF09003CEE0FF90039FE0FE4A
:10278200C3EF6480F8EE648098400302304EE0FFAD
:10279200FD3395E0FC74CF2DF58274033CF583E0A4
:1027A200FEEF3395E0FC74A82DF58274013CF583AD
:1027B200E06E600302303D90039FE004F080B7E4D6
:1027C20090039FF09003D7E0FF90039FE0FEC3EFDA
:1027D2006480F8EE648098400302304EE0FFFD33DF
:1027E20095E0FC74D82DF58274033CF583E0FEEF8E
:1027F2003395E0FC74A82DF58274013CF583E06EFC
:10280200600302303D90039FE004F080B7E4900340
:102812009FF09003E0E0FF90039FE0FEC3EF64802F
:10282200F8EE648098400302304EE0FFFD3395E0FD
:10283200FC74E12DF58274033CF583E0FEEF3395E1
:10284200E0FC74A82DF58274013CF583E06E600310
:1028520002303D90039FE004F080B7E490039FF0C4
:102862009003E9E0FF90039FE0FEC3EF6480F8EE7F
:10287200648098400302304EE0FFFD3395E0FC7423
:10288200EA2DF58274033CF583E0FEEF3395E0FC1C
:1028920074A82DF58274013CF583E06E600302306A
:1028A2003D90039FE004F080B7E490039FF0900313
:1028B200F2E0FF90039FE0FEC3EF6480F8EE6480D5
:1028C20098400302304EE0FFFD3395E0FC74F32D97
:1028D200F58274033CF583E0FEEF3395E0FC74A8C7
:1028E2002DF58274013CF583E06E600302303D9069
:1028F200039FE004F080B7E490039FF09003FBE0B5
:10290200FF90039FE0FEC3EF6480F8EE648098407E
:102912000302304EE0FFFD3395E0FC74FC2DF5829E
:1029220074033CF583E0FEEF3395E0FC74A82DF5CB
:102932008274013CF583E06E600302303D90039F98
:10294200E004F080B7E490039FF0900404E0FF906D
:10295200039FE0FEC3EF6480F8EE648098400302B8
:10296200304EE0FFFD3395E0FC74052DF5827404D2
:102972003CF583E0FEEF3395E0FC74A82DF58274FC
:10298200013CF583E06E600302303D90039FE0045A
:10299200F080B7E490039FF090040DE0FF90039F56
:1029A200E0FEC3EF6480F8EE648098400302304E8C
:1029B200E0FFFD3395E0FC740E2DF58274043CF5C6
:1029C20083E0FEEF3395E0FC74A82DF58274013CA0
:1029D200F583E06E600302303D90039FE004F080D7
:1029E200B7E490039FF0900416E0FF90039FE0FE8F
:1029F200C3EF6480F8EE648098400302304EE0FF3B
:102A0200FD3395E0FC74172DF58274043CF583E0E8
:102A1200FEEF3395E0FC74A82DF58274013CF5833A
:102A2200E06E600302303D90039FE004F080B7E463
:102A320090039FF090041FE0FF90039FE0FEC3EF1E
:102A42006480F8EE648098400302304EE0FFFD336C
:102A520095E0FC74202DF58274043CF583E0FEEFD2
:102A62003395E0FC74A82DF58274013CF583E06E89
:102A7200600302303D90039FE004F080B7E49003CE
:102A82009FF0900428E0FF90039FE0FEC3EF648074
:102A9200F8EE648098400302304EE0FFFD3395E08B
:102AA200FC74292DF58274043CF583E0FEEF339526
:102AB200E0FC74A82DF58274013CF583E06E60039E
:102AC20002303D90039FE004F080B7E490039FF052
:102AD200900431E0FF90039FE0FEC3EF6480F8EEC4
:102AE200648098400302304EE0FFFD3395E0FC74B1
:102AF200322DF58274043CF583E0FEEF3395E0FC61
:102B020074A82DF58274013CF583E06E60030230F7
:102B12003D90039FE004F080B7E490039FF090049F
:102B22003AE0FF90039FE0FEC3EF6480F8EE64801A
:102B320098400302304EE0FFFD3395E0FC743B2DDC
:102B4200F58274043CF583E0FEEF3395E0FC74A853
:102B52002DF58274013CF583E06E600302303D90F6
:102B6200039FE004F080B7E490039FF0900443E0F9
:102B7200FF90039FE0FEC3EF6480F8EE648098400C
:102B82000302304EE0FFFD3395E0FC74442DF582E4
:102B920074043CF583E0FEEF3395E0FC74A82DF558
:102BA2008274013CF583E06E600302303D90039F26
:102BB200E004F080B7E490039FF090044CE0FF90B3
:102BC200039FE0FEC3EF6480F8EE64809840030246
:102BD200304EE0FFFD3395E0FC744D2DF582740418
:102BE2003CF583E0FEEF3395E0FC74A82DF582748A
:102BF200013CF583E06E600302303D90039FE004E8
:102C0200F080B7E490039FF0900455E0FF90039F9B
:102C1200E0FEC3EF6480F8EE648098400302304E19
:102C2200E0FFFD3395E0FC74562DF58274043CF50B
:102C320083E0FEEF3395E0FC74A82DF58274013C2D
:102C4200F583E06E600302303D90039FE004F08064
:102C5200B7E490039FF090045EE0FF90039FE0FED4
:102C6200C3EF6480F8EE648098400302304EE0FFC8
:102C7200FD3395E0FC745F2DF58274043CF583E02E
:102C8200FEEF3395E0FC74A82DF58274013CF583C8
:102C9200E06E600302303D90039FE004F080B77F56
:102CA2000022E490039FF0900470E0FF90039FE005
:102CB200FEC3EF6480F8EE648098400302304EE079
:102CC200FFFD3395E0FC74712DF58274043CF583AD
:102CD200E0FEEF3395E0FC74A82DF58274013CF51B
:102CE20083E06E600302303D90039FE004F080B702
:102CF200E490039FF0900479E0FF90039FE0FEC30D
:102D0200EF6480F8EE648098400302304EE0FFFDED
:102D12003395E0FC747A2DF58274043CF583E0FE71
:102D2200EF3395E0FC74A82DF58274013CF583E045
:102D32006E600302303D90039FE004F080B7E490A0
:102D4200039FF0900482E0FF90039FE0FEC3EF64D4
:102D520080F8EE648098400302304EE0FFFD339528
:102D6200E0FC74832DF58274043CF583E0FEEF33BE
:102D720095E0FC74A82DF58274013CF583E06E6049
:102D82000302303D90039FE004F080B7E490039F7C
:102D9200F090048BE0FF90039FE0FEC3EF6480F8A5
:102DA200EE648098400302304EE0FFFD3395E0FC74
:102DB200748C2DF58274043CF583E0FEEF3395E0CC
:102DC200FC74A82DF58274013CF583E06E60030269
:102DD200303D90039FE004F080B7E490039FF090B1
:102DE200048DE0FF90039FE0FEC3EF6480F8EE6481
:102DF2008098400302304EE0FFFD3395E0FC748E74
:102E02002DF58274043CF583E0FEEF3395E0FC740B
:102E1200A82DF58274013CF583E06E600302303D1B
:102E220090039FE004F080B7E490039FF090049633
:102E3200E0FF90039FE0FEC3EF6480F8EE648098A9
:102E4200400302304EE0FFFD3395E0FC74972DF510
:102E52008274043CF583E0FEEF3395E0FC74A82D08
:102E6200F58274013CF583E06E600302303D90030D
:102E72009FE004F080B7E490039FF090049FE0FF8E
:102E820090039FE0FEC3EF6480F8EE6480984003F5
:102E920002304EE0FFFD3395E0FC74A02DF5827404
:102EA200043CF583E0FEEF3395E0FC74A82DF58237
:102EB20074013CF583E06E600302303D90039FE0B5
:102EC20004F080B7E490039FF09004A8E0FF900321
:102ED2009FE0FEC3EF6480F8EE6480984003023006
:102EE2004EE0FFFD3395E0FC74A92DF58274043C9D
:102EF200F583E0FEEF3395E0FC74A82DF5827401B2
:102F02003CF583E06E600302303D90039FE004F0E5
:102F120080B7E490039FF09004B1E0FF90039FE03C
:102F2200FEC3EF6480F8EE648098400302304EE006
:102F3200FFFD3395E0FC74B22DF58274043CF583F9
:102F4200E0FEEF3395E0FC74A82DF58274013CF5A8
:102F520083E06E600302303D90039FE004F080B78F
:102F6200E490039FF09004BAE0FF90039FE0FEC359
:102F7200EF6480F8EE648098400302304EE0FFFD7B
:102F82003395E0FC74BB2DF58274043CF583E0FEBE
:102F9200EF3395E0FC74A82DF58274013CF583E0D3
:102FA2006E600302303D90039FE004F080B7E4902E
:102FB200039FF09004E4E0FF90039FE0FEC3EF6400
:102FC20080F8EE648098400302304EE0FFFD3395B6
:102FD200E0FC74E52DF58274043CF583E0FEEF33EA
:102FE20095E0FC74A82DF58274013CF583E06E60D7
:102FF20002804890039FE004F080B8E490039FF0C1
:103002009004EDE0FF90039FE0FEC3EF6480F8EED2
:103012006480985037E0FFFD3395E0FC74EE2DF5A7
:103022008274043CF583E0FEEF3395E0FC74A82D36
:10303200F58274013CF583E06E600690039EE0FF2A
:0E3042002290039FE004F080B77F00227F0001
:01305000225D
:106D6D00E4F5957596FFC2A1C2A253E1EF43E2107F
:016D7D0022F3
:096D8F007F0F126D98D2FC7F0FFA
:076D9800AE071FEE70FA22A6
:0269F000AB07F3
:1069F2007A80C2A3EDB40104C2A48002D2A4EAD375
:106A020094004011C2FCEA5B24FF92A7126D8FEA48
:0E6A1200C313FA80E9C2FCD2A7126D8FD2A383
:016A20002253
:106CC4003EF583E5822DF582E43583F583E493FF75
:056CD400E4FD0269F07F
:076E46007FAE126E4D7F8D3F
:056E4D007D010269F067
:1061F800E4FFFE900502F0A3F00FBF00010EBE758C
:10620800F8BF30F57FAE126E4D7FD5126E4D7F8090
:10621800126E4D7FA8126E4D7F27126E4D7FD312DE
:106228006E4DE4FF126E4D7F40126E487F14126E61
:106238004D7FA1126E4D7FC8126E4D7FDA126E4DE2
:106248007F12126E4D7F81126E4D7FAF126E4D7FA1
:10625800D9126E4D7F25126E4D7FDB126E4D7F2059
:10626800126E4D7FA4126E4D7FA6126E4D7FAF1237
:056278006E4D026A8278
:106D9F00126E467F10126E4D126E28C2E9026E19E6
:0B6E5200126E467F10126E4DC2E92246
:106D7E00D2E97F8D126E4D7F14126E4D7FAF026E73
:016D8E004DB7
:066E3700F0EB540FA3F084
:096E3D00EF540F44B0FF026E4D4A
:086B7200FF126E3DE92408FF4B
:106B7A00AC0774202CFC540FFF126E4DAF04EFC407
:086B8A00540F4410FF026E4D90
:106A8200E4900504F0900504E0FFC394055020E46F
:106A9200F9126E3DE4FF126B7AE9C394605008E488
:0F6AA200FF126CD40980F2900504E004F080D656
:016AB10022C2
:0B63CE009005B4EBF0A3EAF0A3E9F0A7
:1063D900E4A3F0A3F0A3F0A3F09005B7E0FFC39402
:1063E900055045E4A3F0126E3DE4FF126B7A900567
:1063F900B8E0C3946050299005B4E0FBA3E0FAA388
:10640900E0F99005B9E475F001123FE285F082F5F3
:1064190083123F38FF126CD49005B8E004F080CEA7
:086429009005B7E004F080B11A
:016431002248
:0B454F009005D2EBF0A3EAF0A3E9F026
:10455A00E4A3F0A3F09005D2E0FBA3E0FAA3E0F90C
:10456A00123F1F70030248599005D5E0F9C3940C15
:10457A0050087F01126E3DE08014E9C3941840038D
:10458A000248597F03126E3D9005D5E024F475F078
:10459A0008A4FF126B7A9005D2E0FBA3E0FAA3E02D
:1045AA00F9123F1FFFC3648094B0404DD3EF64807B
:1045BA0094B95045E49005D6F09005D6E0FDC39431
:1045CA000840030246DC9005D2E0FBA3E0FAA3E030
:1045DA00F9123F1FFF3395E0FEEFC4F8540FC86885
:1045EA00FFEEC454F048FE74312FF582742F126C1A
:1045FA00C49005D6E004F080C09005D2E0FBA3E0A9
:10460A00FAA3E0F9123F1FFFC3648094E1404DD33F
:10461A00EF648094FA5045E49005D6F09005D6E010
:10462A00FDC3940840030246DC9005D2E0FBA3E0F8
:10463A00FAA3E0F9123F1FFF3395E0FEEFC4F854E6
:10464A000FC868FFEEC454F048FE74212FF5827437
:10465A002D126CC49005D6E004F080C09005D2E01B
:10466A00FBA3E0FAA3E0F9123F1FFFC3648094C1E1
:10467A00404AD3EF648094DA5042E49005D6F09031
:10468A0005D6E0FDC3940850499005D2E0FBA3E0AB
:10469A00FAA3E0F9123F1FFF3395E0FEEFC4F85486
:1046AA000FC868FFEEC454F048FE74C12FF5827437
:1046BA0030126CC49005D6E004F080C3E49005D6AD
:1046CA00F0E4FF126CD49005D6E004F0E0C394083D
:1046DA0040EF9005D5E0F9C3940C50087F02126EA2
:1046EA003DE08014E9C3941840030248597F04123C
:1046FA006E3D9005D5E024F475F008A4FF126B7A9C
:10470A009005D2E0FBA3E0FAA3E0F9123F1FFFC332
:10471A00648094B0404DD3EF648094B95045E490DE
:10472A0005D6F09005D6E0FDC3940840030248463A
:10473A009005D2E0FBA3E0FAA3E0F9123F1FFF3392
:10474A0095E0FEEFC4F8540FC868FFEEC454F04871
:10475A00FE74392FF582742F126CC49005D6E004CA
:10476A00F080C09005D2E0FBA3E0FAA3E0F9123F83
:10477A001FFFC3648094E1404DD3EF648094FA50E4
:10478A0045E49005D6F09005D6E0FDC394084003B1
:10479A000248469005D2E0FBA3E0FAA3E0F9123FF3
:1047AA001FFF3395E0FEEFC4F8540FC868FFEEC44C
:1047BA0054F048FE74292FF582742D126CC49005AA
:1047CA00D6E004F080C09005D2E0FBA3E0FAA3E0B3
:1047DA00F9123F1FFFC3648094C1404AD3EF64803B
:1047EA0094DA5042E49005D6F09005D6E0FDC394E1
:1047FA000850499005D2E0FBA3E0FAA3E0F9123F82
:10480A001FFF3395E0FEEFC4F8540FC868FFEEC4EB
:10481A0054F048FE74C92FF5827430126CC49005A6
:10482A00D6E004F080C3E49005D6F0E4FF126CD41D
:10483A009005D6E004F0E0C3940840EF9005D5E077
:0F484A0004F09005D3E475F001123FCC02455FF6
:01485900223C
:075CBA00A9059005F6EFF0CB
:105CC100E4FCEBC4540FA3126E37AF01126B7AE4FC
:105CD100FC9005F7E0C454F02431F582E43432F548
:105CE10083E5822C126CCA0CECB408E59005F6E051
:105CF10004FF126E3DAF01126B7AE4FC9005F7E0F0
:105D0100C454F02439F582E43432F583E5822C124F
:105D11006CCA0CECB408E59005F6E0126B72E4FC79
:105D2100EC64079005F8601BE0C454F02431F5825F
:105D3100E43432F583E5822CF582E43583F583E49E
:105D410093801BE0C454F02431F582E43432F583AE
:105D5100E5822CF582E43583F583E4934401FF1257
:105D61006CD40CECB408B99005F6E004126B72E443
:105D7100FC9005F8E0C454F02439F582E43432F59E
:0C5D810083E5822C126CCA0CECB408E51F
:015D8D0022F3
:0B6362009005EBEBF0A3EAF0A3E9F0DC
:10636D00E4A3F09005EBE0FBA3E0FAA3E0F9A3E0D2
:10637D00FFF582758300123F38FB6044EFC394062E
:10638D00500C9005EEE0C454F0FD7F018027900580
:10639D00EEE0FFC3940C5028EF24FAC454F0FD90A6
:1063AD0005EBE0FBA3E0FAA3E0F98F827583001201
:1063BD003F38FB7F03125CBA9005EEE004F080A33A
:0163CD0022AD
:04591D00AA07AC0524
:10592100E4F9EBC4540F900613126E37AF04126BF7
:105931007A900613E0FFC39400402BEFD3940950F3
:1059410025E4900613E075F005A429F582E435F00D
:10595100F583E58224A1F582E5833430126CCF0909
:10596100E9B405DE803A900613E0FFC3940A5003C0
:10597100025A15EFD3940F4003025A15E4F9900629
:1059810013E075F005A429F582E435F0F583E5828D
:1059910024C4F582E5833430126CCF09E9B405DE05
:1059A100E4FF126CD4900614E0FFC39400402CEF86
:1059B100D394095026E4F9900614E075F005A42962
:1059C100F582E435F0F583E58224A1F582E583349F
:1059D10030126CCF09E9B405DE8034900614E0FF83
:1059E100C3940A402FEFD3940F5029E4F990061481
:1059F100E075F005A429F582E435F0F583E582240C
:105A0100C4F582E5833430126CCF09E9B405DE7F39
:045A110003126CD43C
:015A1500226E
:0B543D009005D7EBF0A3EAF0A3E9F024
:10544800E4126B519005D7E0FBA3E0FAA3E0F91250
:105458003F1FFB70030254FA9005DAE0FFC394087B
:10546800500AEF75F00CA4FD7F0180709005DAE01A
:10547800FFC39410501BEF24F875F00CA4FD9005A1
:10548800D7E0FBA3E0FAA3E0F9123F1FFB7F0280FD
:105498004B9005DAE0FFC39418501BEF24F075F029
:1054A8000CA4FD9005D7E0FBA3E0FAA3E0F9123FB6
:1054B8001FFB7F0380269005DAE0FFC3942040039A
:1054C80002559BEF24E875F00CA4FD9005D7E0FB8E
:1054D800A3E0FAA3E0F9123F1FFB7F0412591D90C5
:1054E80005D8E475F001123FCC9005DAE004F0022B
:1054F800544C9005DAE0FFC394085016EF7F011270
:10550800675D9005DAE00475F006A4FD7B207F0155
:1055180080759005DAE0FFC394105019EF24F07FEE
:105528000212675D9005DAE024F175F006A4FD7BB0
:10553800207F0280529005DAE0FFC394185020EFD4
:1055480024E075F006A4FD7B207F031267649005B4
:10555800DAE024E175F006A4FD7B207F0380289023
:1055680005DAE0FFC39420502AEF24D075F006A492
:10557800FD7B207F041267649005DAE024D175F082
:1055880006A4FD7B207F041267649005DAE004F02E
:035598000254FAC0
:01559B0022ED
:07675D0075F006A4FD7B208E
:07676400900511EDF0A903FF
:10676B00E4FC126E3DE0FF126B7AE4FC75F005E978
:10677B00A42CF582E435F0F583E58224B1F582E5AE
:10678B0083342F126CCF0CECB405E1E4FF026CD414
:0B57F9009005C1EBF0A3EAF0A3E9F07B
:10580400E4A3F0126B519005C1E0FBA3E0FAA3E01E
:10581400F9123F1FFB70030258B59005C4E0FFC3A3
:105824009410500AEF75F006A4FD7F01806D900579
:10583400C4E0FFC39420501BEF24F075F006A4FDD0
:105844009005C1E0FBA3E0FAA3E0F9123F1FFB7F40
:105854000280489005C4E0FFC39430501BEF24E05D
:1058640075F006A4FD9005C1E0FBA3E0FAA3E0F9FE
:10587400123F1FFB7F0380239005C4E0FFC39440C5
:10588400502FEF24D075F006A4FD9005C1E0FBA3D2
:10589400E0FAA3E0F9123F1FFB7F0412676490054E
:1058A400C2E475F001123FCC9005C4E004F0025844
:1058B4000A9005C4E0FFC39410500CEF75F006A4E1
:1058C400FD7B207F0180469005C4E0FFC3942050F7
:1058D4000EEF24F075F006A4FD7B207F02802E904D
:1058E40005C4E0FFC39430500EEF24E075F006A425
:1058F400FD7B207F0380169005C4E0FFC3944050D5
:1059040017EF24D075F006A4FD7B207F0412676492
:085914009005C4E004F0809945
:01591C002268
:066B5100A3F0A3F0FDFF1C
:026B5700AC058B
:106B5900A904126E3DAF04126B7AE9C39460500820
:086B6900E4FF126CD40980F274
:016B71002201
:106B92007401A807088002C333D8FCF59DE4F5BD53
:0F6BA200EF4488F5BC7F02126C80D2ADD2AF22D7
:03002B00025E3F33
:0D5E3F00C0E0C0F0C083C082C0D075D008A4
:105E4C00900508E4F0A3F0FFFEA3F0A3F0C2ADF5BB
:105E5C00BC126DDD7F03126C69900508E4F0A3EFB2
:105E6C00F0126DDD7F03126C697E00900508E0FC7A
:105E7C00A3E0FDD39FEC9E401DED9FFBEC9EFAC36F
:105E8C00EB9423EA9400504EED2FFFEE3CC313FE2F
:105E9C00EF13FFA38030C3ED9FEC9E502C900508B0
:105EAC00E0FCA3E0FDC3EF9DFDEE9CFCC3ED942351
:105EBC00EC94005021E02FFF900508E03EC313FE48
:105ECC00EF13FF90050AEE8009900508E0FFA3E0B0
:085EDC00A3CFF0A3EFF0D2AD5B
:0B5EE400D0D0D082D083D0F0D0E032CC
:106C6900E4F5BDEF4488F5BC00000000E5BC30E464
:076C7900FB75BC00AFBD225A
:106B2F00AC07E4123D529005DDE0F8A3E0F9A3E0D5
:106B3F00FAA3E0FB123B29E4FBFA79807843123C7D
:026B4F003222F0
:106AE100E4FDFCF5BDF5BEEF4488F5BC00000000F7
:106AF100E5BC30E4FB75BC00AFBDEF75F004A4FD4F
:096B0100ACF0AFBEED4FAE04FF95
:016B0A002268
:10005E00AD07AC06E4123D4D9005C9E0F8A3E0F9FA
:10006E00A3E0FAA3E0FB123B29E4FBFA7980784483
:04007E00123C3222DC
:106C8000AE071FEE60107C137D88ED1DAA04700115
:066C90001C4A60EC80F4D8
:016C960022DB
:106A5A0042039C00004101A5004101A6004101A793
:016A6A00002B
:106AB20053B13F43B2C0E5A2543F4440F5A25387CD
:106AC2007F759850438E40538EFE53890F43892021
:0F6AD200758BFA758DFAC2ABD28ED2ACD2AF22D1
:096E5D002000FDEFD200F599229E
:106924009005F9EBF0A3EAF0A3E9F09005F9E0FB98
:10693400A3E0FAA3E0F9123F1F60179005F9A3E45E
:1069440075F001123FE2A9F0FA123F1FFF126E5DCB
:0369540080D922C5
:0300230002679BD6
:10679B00C0E0C0F0C083C082C0D075D00830981B59
:1067AB00C29890039CE475F001123FE2FE74A82599
:1067BB00F0F58274013EF583E599F0309904C299A6
:0D67CB00C200D0D0D082D083D0F0D0E03218
:030043000267D879
:1067D800C0E0C083C082C0D075D008E59A30E01709
:1067E800539AFE9001A5E0FF04F074002FF582E4AF
:1067F8003400F583E59BF0E59A30E105539AFDC234
:0A68080001D0D0D082D083D0E0325E
:096E66002001FDEFD201F59B2291
:106957009005FCEBF0A3EAF0A3E9F09005FCE0FB5F
:10696700A3E0FAA3E0F9123F1F60179005FCA3E428
:1069770075F001123FE2A9F0FA123F1FFF126E668F
:0369870080D92292
:106C390053BAFE759A50438E0475D7C075D6FD4375
:086C49008E1075AF01D2AF22DD
:106CAE007E027FF49001A8E4F0A3DFFCDEFAE4900C
:056CBE00039CF0A3F0AF
:016CC30022AE
:0F6DAF007F64900000E4F0A3DFFCE49001A5F006
:016DBE0022B2
:106BD00043BA0275AC1043AC4043D10275D5D075B1
:0B6BE000D4FF43D10843AF08D2AF221E
:03008B00026C06FE
:106C0600C0E0E5AC30E00653ACFE85AD80E5AC30C7
:0A6C1600E10553ACFDC202D0E032EC
:096E6F002002FDEFD202F5AD2274
:10698A009005FFEBF0A3EAF0A3E9F09005FFE0FB26
:10699A00A3E0FAA3E0F9123F1F60179005FFA3E4F2
:1069AA0075F001123FE2A9F0FA123F1FFF126E6F53
:0369BA0080D9225F
:106BEB0043BA0475841043844043D12075D3D075C8
:0B6BFB00D2FF43D18043AF10D2AF2285
:03009300026812EE
:10681200C0E0C083C082C0D075D008E58430E017E4
:106822005384FE9001A7E0FF04F074DD2FF582E4AB
:106832003400F583E585F0E58430E1055384FDC23B
:0A68420003D0D0D082D083D0E03222
:096E78002003FDEFD203F5852291
:1069BD00900602EBF0A3EAF0A3E9F0900602E0FBEB
:1069CD00A3E0FAA3E0F9123F1F6017900602A3E4BB
:1069DD0075F001123FE2A9F0FA123F1FFF126E7817
:0369ED0080D9222C
:0D003600E4F5C7F5C5F5C675C380F5C42215
:106C510075C78175C5018FC4EEF5C375C65A75C672
:076C6100A500AFC2120036CE
:016C68002209
:106C200075C78175C5028FC4EEF5C3AF058FC275F8
:096C3000C65A75C6A50002003623
:106CD90075C78175C5038FC4EEF5C375C65A75C6E8
:056CE900A500020036C9
:105A16009005A1EEF0A3EFF09005A5EBF0A3EAF058
:0B5A2600A3E9F09005A3ECF0A3EDF065
:105A3100E49005A8F0A3F0FFA3F0A3F0D3ED942028
:105A4100EC94004001229005A1E0FCA3E0FDEC54A0
:105A510001FEAF059005A4E02FFF9005A3E03EFEF7
:105A6100D3EF9420EE940040037F0022AF05AE04F3
:105A7100126CD9E49005A8F0A3F09005A3E0FEA371
:105A8100E0FF9005A8E0FCA3E0FDC39FEC9E5067FA
:105A91009005A1E0FEA3E0FF9005A5E0FBA3E0FADD
:105AA100A3E0F98D828C83123F38FD126C209005A2
:105AB100A1E0FEA3E0FF126C519005A5E0FBA3E07D
:105AC100FAA3E0F9A3E0FCA3E0F5828C83123F384E
:105AD1006F60061200367F00229005A2E004F0708C
:105AE100069005A1E004F09005A9E004F0708B9008
:0C5AF10005A8E004F080831200367F015D
:015AFD002286
:1052B700900592EEF0A3EFF0900596EBF0A3EAF0DD
:0B52C700A3E9F0900594ECF0A3EDF0DB
:1052D200E4900599F0A3F0A3F0A3F0A3F0A3F0A348
:1052E200F0A3F0D3ED9420EC940040037F002290D1
:1052F2000592E0FCA3E0FDEC5401FEAF0590059B96
:10530200F0A3EFF0900595E02FFF900594E03EFEAC
:10531200D3EF9420EE940040037F0022EC54FEFE73
:105322007F0090059DF0A3EFF0A3EEF0A3EFF090C5
:105332000599F0A3F090059FE475F001123FE2AFEA
:10534200F0FE126C51900599A3E02422F8A607E022
:1053520004F07006900599E004F0C390059AE09479
:1053620020900599E0940040CCE4900599F0A3F0D8
:10537200900594E0FEA3E0FF900599E0FCA3E0FD18
:10538200C39FEC9E5034900596E0FBA3E0FAA3E0A5
:10539200F98D828C83123F38FF90059BE475F001F2
:1053A200123FE2742225F0F8A60790059AE004F075
:1053B2007006900599E004F080B690059DE0FEA38A
:1053C200E0FF126CD990059DE0FFA3E0A3CFF0A30C
:1053D200EFF0E4900599F0A3F0900599E0FCA3E0CA
:1053E200FDC39420EC9400504C90059FE0FEA3E096
:1053F200FF74222DF8E6FD126C20900592E0FEA3C8
:10540200E0FF126C51900599A3E02422F8E66F6048
:10541200061200367F00229005A0E004F07006908C
:10542200059FE004F090059AE004F070069005995B
:0A543200E004F080A41200367F01B0
:01543C00224D
:046A6B004105E732C8
:1068BB00E5A254CFF5A2E4F5D8F5E9F5F975D902BF
:1068CB00F5F275EA2075FA2075DA4275F34075EB2F
:1068DB002075FB2075DB4275F48075EC2075FC2070
:0668EB0075DC42D2DE2242
:10664100E4F5B4F5B343BA80F5F190FFF2F090FFB1
:10665100F07403F0A374E8F090FF20E4F0A3F0FCE1
:10666100FDFE7BE87A03F9F8123FF8E47B64FAF95E
:10667100F81266D690FF22EEF0A3EFF0A37408F0B3
:0B66810043F50443F58053BA7F80FE10
:10668C00E4F5CAF5C943BA80F5F190FFF2F090FF3A
:10669C00F07403F0A374E8F090FF30E4F0A3F0FC86
:1066AC00FDFE7BE87A03F9F8123FF8E47B64FAF913
:1066BC00F81266D690FF32EEF0A3EFF0A37408F058
:0A66CC0043F50843F58053BA7F221E
:106BB100EF75F064A4FFAEF0C374109F900616F059
:0F6BC10074279E900615F0E49005E6F0026D1320
:03009B00025F9C65
:105F9C00C0E0C0F0C083C082C0D075D000C000C0CB
:105FAC0001C002C003C004C005C006C0079005E6CE
:105FBC00E070389005EAE0FF75F012A4F404F5D512
:105FCC00E4FCFDFE7B12FAF9F8123FF8C3E49FFFE4
:105FDC00E49EFE74019DFDE49CFC78081240558FF4
:105FEC00D4D2A09005E67401F080359005E8E0FF6E
:105FFC0075F012A4F404F5D5E4FCFDFE7B12FAF95D
:10600C00F8123FF8C3E49FFFE49EFE74019DFDE48B
:10601C009CFC78081240558FD4C2A09005E6E4F0A1
:10602C00D007D006D005D004D003D002D001D000C8
:0B603C00D0D0D082D083D0F0D0E03272
:0A5AFE00900502ECF0A3EDF0AB07F9
:105B0800A312407500000000EB1460191460221401
:105B180060371460282404703090050412407546DC
:105B2800900000802E900504124075462CCC008011
:105B38002290050412407545ACC8008016900504F3
:105B480012407544ACC000800A90050412407545A7
:105B58002CD0005394BF5393BF43BA80E4F5F1901F
:105B6800FFF27403F0900504E0FCA3E0FDA3E0FE5F
:105B7800A3E0FF123D8690FFF0EEF0A3EFF090FF58
:105B880050E4F0A3F0FBFA79C87842900504E0FCF1
:105B9800A3E0FDA3E0FEA3E0FF123C32C004C00571
:105BA800C006C007900502E0FCA3E0FDE4123D4DED
:105BB800D003D002D001D000123B29123D8690FFBD
:105BC80052EEF0A3EFF0A37408F043F52043F580FC
:035BD80053BA7F3E
:015BDB0022A7
:05616E009005E1EFF0D7
:10617300A312407546D800005395FB5395FB43BAD1
:1061830080E4F5F190FFF27407F09005E2E0FCA3E0
:10619300E0FDA3E0FEA3E0FF123D8690FFF0EEF0EA
:1061A300A3EFF090FF20E4F0A3F0FBFA79C8784264
:1061B3009005E2E0FCA3E0FDA3E0FEA3E0FF123CB8
:1061C30032C004C005C006C0079005E1E0FCE4123C
:1061D3003D52D003D002D001D000123B29123D869C
:1061E30090FF22EEF0A3EFF0A3E4F043F50443F5B0
:0461F3008053BA7F9C
:0161F7002285
:105D8E0090061BEFF09005E7E024F6602724FB60F9
:105D9E003A24FB605224E2606A24D87003025E2D1E
:105DAE0024556003025E3E90061BE0640160030210
:105DBE005E3E802C90061BE0B40102803F90061BD5
:105DCE00E0F4706C9005E77405806090061BE0B4FB
:105DDE0001079005E77414805290061BE0F4705092
:105DEE009005E7740A804490061BE0B40107900505
:105DFE00E77432803690061BE0F470349005E77439
:105E0E000F802890061BE0B401079005E7745A80B6
:105E1E001A90061BE0B4FF189005E77414800C90DE
:105E2E00061BE0B4FF0A9005E77432F0FF12616EB4
:015E3E002241
:10659F00900617EEF0A3EFF0438E805389F090062C
:1065AF0017E0FEA3E0FFE4FCFD7B16FAF9F8123FBB
:1065BF00F8EFF404F58A900617E0FEA3E0FFE4FC81
:1065CF00FD7B16FAF9F8123FF8C3E49FFFE49EFE35
:1065DF0074019DFDE49CFC78081240558F8CC28D90
:0365EF00D28C2229
:106D0100E5A254F34404F5A2E4F5CF75CDC075CEE8
:026D110050220E
:03004B00026EA49E
:066EA40075CDC0D2913251
:0A6A6F004205EF00004205F10000AF
:03000B0002512B74
:10512B00C0E0C0F0C083C082C0D075D000C000C04A
:0D513B0001C002C003C004C005C006C007CB
:1051480090050CE4F0A3124075000000009005F0F3
:10515800E004F070069005EFE004F09005F2E0043A
:10516800F070069005F1E004F09005EFA3E0FF125F
:105178006E5DC39005F0E094FA9005EFE09400505E
:10518800030252581256CD9005CD1240699005CDB4
:10519800E0FCA3E0FDA3E0FEA3E0FF123D86EF756F
:1051A800F00A842430FBE4FD7F031267649005CD88
:1051B800E0FCA3E0FDA3E0FEA3E0FF123D86EF754F
:1051C800F00A84E5F02430FB7D067F031267647BD8
:1051D8002E7D0C7F03126764E4FFFE7DC87C42903D
:1051E80005CDE0F8A3E0F9A3E0FAA3E0FB123B2920
:1051F800123D867C007D64123F777E007F0ACFCD0A
:10520800CFCECCCE123F77EF2430FB7D127F031236
:105218006764E4FFFE7DC87C429005CDE0F8A3E01A
:10522800F9A3E0FAA3E0FB123B29123D867C007D3E
:105238000A123F77ED2430FB7D187F0312676490D4
:1052480005CD124075000000009005EFE4F0A3F0D2
:10525800C39005F2E094B89005F1E0940B40351244
:1052680064329005D1EFF075F00A842430FBE4FD38
:105278007F041267649005D1E075F00A84E5F02494
:1052880030FB7D067F041267649005D1E4F0900539
:04529800F1F0A3F09E
:10529C00D007D006D005D004D003D002D001D00066
:0B52AC00D0D0D082D083D0F0D0E03210
:106C9700538E7F5389F0C2B9E4F58A758C70C28D23
:076CA700D28CD2A9D2AF226A
:106D130053D1FD75D501E4F5D443D10843AF20D257
:026D2300AF229D
:03000300020012E6
:0100120032BB
:096E8100D2B2D288D2A8D2AF220D
:03001300020026C2
:0100260032A7
:096E8A00D2B3C28AD2AAD2AF220F
:0300530002002781
:0100270032A6
:066EAA00438F10D2AF225D
:03005B0002002878
:0100280032A5
:066EB000438F20D2AF2247
:030083000200294F
:0100290032A4
:066EB600438F40D2AF2221
:0300330002000EBA
:04000E005387DF3203
:086E9C005387DFD2AED2AF2212
:106D25007D3C7C00E4FF125AFE126DDD53F5DFC297
:026D35008622B4
:106D37007D3C7C007F03125AFE126E0A53F5DFC2B8
:026D47008622A2
:106D49007D3C7C007F03125AFE126DFB53F5DFC2B6
:026D5900862290
:096E9300AD07AC067F04025AFEB3
:106D5B007D3C7C007F04125AFE126E1953F5DFC284
:026D6B0086227E
:066EBC008FAA75AB8022D5
:10684C002055534220636861726765200A00205509
:10685C0053422063686172676520002055534220C3
:10686C00206F6666736574200A0020555342202001
:08687C006F666673657420006D
:046A790041061C0AAC
:106B0B0053CBF143CC0E53CBFE53CCFEC2E9D2EAAE
:106B1B00D2EBD2E8E4F5B375B401C2C1D2E9126E7F
:046B2B0028D2C12289
:105BDC00E490052FF0A3F0A3F0A3F0A3F0A31240E0
:105BEC007500000000E4900538F0A3F07F04126A01
:105BFC00E1900531EEF0A3EFF0C3900530E09F90FB
:105C0C00052FE09E500F900531E0FFA3E090052F8B
:105C1C00CFF0A3EFF0120006900533E004F0E0C3E0
:105C2C00940A40C890052FE0FCA3E0FDE4123D4D22
:105C3C00A804A905AA06AB077F0A7ED77DA37C44DE
:105C4C00123C32900534124069900534E0FCA3E01C
:105C5C00FDA3E0FEA3E0FF123D867C007D64123FB5
:105C6C0065AC06AD07E4123D4DC004C005C006C0CE
:105C7C0007E4FFFE7DC87C42900534E0F8A3E0F910
:105C8C00A3E0FAA3E0FB123B29D003D002D001D051
:105C9C0000123A34123D86900538EEF0A3EFF090E6
:0D5CAC000534E0FCA3E0FDA3E0FEA3E0FF53
:015CB90022C8
:10643200E4900511F0125BDC900512124069E4FF52
:10644200FEFDFC900512E0F8A3E0F9A3E0FAA3E058
:10645200FB123CCF60377FCD7ECC7D2C7CC090057B
:1064620012E0F8A3E0F9A3E0FAA3E0FB123A38E461
:10647200FBFA79C87842123B297BFE7AFF79BF7812
:0F6482003F123C32123D86900511EFF0227F0051
:0164910022E8
:1056CD0090052512407500000000E4900529F0A317
:1056DD00F0125BDC90052B12406990052AE0C39413
:1056ED000A50247F05126AE190052AE025E0241175
:1056FD00F582E43405F583EEF0A3EFF01200069089
:10570D00052AE004F080D390051DE0FEA3E0FF9094
:10571D000518E02FFF900517E03EFE900524E02FC1
:10572D00FF900523E03EFE7C007D03123F77AD0721
:10573D00AC06E4123D4D90052BE0F8A3E0F9A3E093
:10574D00FAA3E0FB123B297BE77AFB7979783F12CC
:10575D003B29E4FBFA79D478C3123A38E4FBFA79A1
:10576D00C87840123C32900525124069900525E01D
:10577D00FCA3E0FDA3E0FEA3E0FF123D867C007DCF
:10578D0064123F65AC06AD07E4123D4DC004C00583
:10579D00C006C007E4FFFE7DC87C42900525E0F8F9
:1057AD00A3E0F9A3E0FAA3E0FB123B29D003D0025A
:1057BD00D001D000123A34123D86900529EFF0E465
:1057CD00FFFE7DAA7C42900525E0F8A3E0F9A3E059
:1057DD00FAA3E0FB123CCF60044002C2E99005251C
:0B57ED00E0FCA3E0FDA3E0FEA3E0FF52
:0157F800228E
:106A21004393805394FE7BFF3087137A68794C122D
:106A310069BD7BFF7A68795A1257F97F01227A681A
:106A410079671269BD7BFF7A6879761257F97F0001
:016A51002222
:10485A004E4F203A20005331203A20005332203A5A
:10486A0020005333203A20005334203A2000533595
:10487A00203A2000204D41494E204D454E55200AF0
:10488A00200020554846204D4F44452000205548D9
:10489A0046204D4F4445200A2000204254204D4FC7
:1048AA0044452000204254204D4F4445200A200010
:1048BA002054455354204D4F44452000205445531D
:1048CA0054204D4F4445200A20002042415454456B
:1048DA005254204D4F4445200020424154544552E1
:1048EA0059204D4F4445200A200020425A204D4F5E
:1048FA004445200020425A204D4F4445200A2000BA
:10490A00204F4C45445F74696D696E672073657406
:10491A002000204F4C45445F74696D696E672073AF
:10492A006574200A2000204F4C45445F425A207388
:10493A0065742000204F4C45445F425A20736574C9
:10494A00200A2000202153797374656D5F506F77B8
:10495A0065725F5663635F4F4E5F4F4646200A207B
:10496A00002055313420706F77657220676F6F644D
:10497A0020002055313420706F77657220676F6F81
:10498A0064200A20002055313420706F7765722028
:10499A004E47204F4350204F545020002055313469
:1049AA0020706F776572204E47204F4350204F5436
:1049BA0050200A2000204E205653454C200020212A
:1049CA005653454C200A2000204E204259502000C0
:1049DA002021425950200A20002042415454455275
:1049EA0059A1A14D4F444520494E2000204241542F
:1049FA0054455259A1A14D4F444520494E200A2001
:104A0A000020425A204D4F444520494E2000204262
:104A1A005A204D4F444520494E200A2000204F4C31
:104A2A004544206765742072656164696E67207405
:104A3A00696D696E672000204F4C45445F74696D4B
:104A4A00696E67206765742072656164696E6720A4
:104A5A0074696D696E67200A2000204F4C45442016
:104A6A006765742077726974696E672074696D6905
:104A7A006E672000204F4C45445F74696D696E670C
:104A8A00206765742077726974696E672074696D2E
:104A9A00696E67200A2000204F4C45445F74696D97
:104AAA00696E672073657420494E2000204F4C457B
:104ABA00445F74696D696E672073657420494E207E
:104ACA000A2000204F4C45445F425A20757020004E
:104ADA00204F4C45445F425A207570200A2000201E
:104AEA004F4C45445F425A20646F776E2000204F36
:104AFA004C45445F425A20646F776E200A2000209A
:104B0A004F4C45445F425A2073657420494E200039
:104B1A00204F4C45445F425A2073657420494E2009
:104B2A000A2000204E4F54205345542000204E4F57
:094B3A005420534554200A2000C8
:046A7D0041061D00B1
:105EEF00E4900605F0A3F0A3F07F03126C6990060F
:105EFF0005EFF0C394CD40037F0022126DDD7F03C9
:105F0F00126C69900606EFF0126DDD7F03126C695B
:105F1F00900607EFF0900606E02FFFE433C313EF70
:105F2F0013900605F0126DDD7F03126C69EFD394A9
:105F3F00CD4002800A7F03126C69126E5D80E6907D
:105F4F000605E0C394125006126D257F01229006BC
:105F5F0005E0C3943B5006126D257F022290060583
:105F6F00E0C394695006126D257F0322900605E069
:105F7F00C3949B5006126D257F0422900605E0C343
:0C5F8F0094CD5006126D257F05227F0086
:015F9B0022E3
:104F8E00E4900608F0A3F0A3F07F03126C6990067C
:104F9E0008EFF0C394CD4030126DDD7BFF7A487977
:104FAE005A1269247FFF126E5D900608E0FF126EA2
:104FBE005D7BFF7A48795A1269BD900608E0FF12B0
:104FCE006E5D53F5DF7F0022126E197F03126C693E
:104FDE00900609EFF0126DDD7F03126C6990060AE0
:104FEE00EFF0900609E02FFFE433C313EF139006A2
:104FFE0008F0C3941250337BFF7A4879601269240B
:10500E007FFF126E5D900608E0FF126E5D7BFF7AE9
:10501E004879601269BD900608E0FF126E5D7D3C16
:10502E007C007F01125AFE7F0122900608E0C39495
:10503E003B50337BFF7A4879661269247FFF126EEC
:10504E005D900608E0FF126E5D7BFF7A4879601274
:10505E0069BD900608E0FF126E5D7D3C7C007F020C
:10506E00125AFE7F0222900608E0C3946950337BE9
:10507E00FF7A48796C1269247FFF126E5D900608E4
:10508E00E0FF126E5D7BFF7A48796C1269BD900667
:10509E0008E0FF126E5D7D3C7C007F03125AFE7F9E
:1050AE000322900608E0C3949B50337BFF7A487925
:1050BE00721269247FFF126E5D900608E0FF126E79
:1050CE005D7BFF7A48796C1269BD900608E0FF128D
:1050DE006E5D7D3C7C007F04125AFE7F042290069A
:1050EE0008E0C394CD50337BFF7A48797812692457
:1050FE007FFF126E5D900608E0FF126E5D7BFF7AF9
