:03000000025EDEBF
:0C5EDE00787FE4F6D8FD758141025F2555
:1065AD00E4900442F0A3F0A3F0A3124060000000B9
:1065BD0000E4900449F0126A171267A412691912C7
:1065CD0068B1126816126A4D125F6A1269CE1267AF
:0665DD004912001680F8CF
:1069CE0053CB1F43CCE043CB1043CC10C2EDC2EFF0
:0369DE00D2EE22D4
:055FF400900571EFF0C3
:105FF900E4A3F0A3F0126A6E7F01126B0E7FFC120C
:106009006B0E7F01126B0E7F01126B0E900571E012
:10601900FF126B0E126A7E9000F1E070037FFF227F
:106029009000F1E0FF900572E0FCA3E0FDC39F74CE
:1060390080F8EC648098501F74002DF58274003C40
:10604900F583E0FF126B20900573E004F070D190A6
:106059000572E004F080C9900002E0B401037F01F9
:03606900227FFF94
:01606C002211
:10661900126A6E7F01126B0E7FFC126B0E7F0212E3
:106629006B0EE4FF126B0E126A7E9000F1E06405B6
:1066390060037FFF22900003E0B40104A3E0FF227E
:036649007FFF22AE
:0C0016007F547EF77D18DDFEDEFCDFFA73
:0100220022BB
:0E6A7E0000007F027EAF7D4BDDFEDEFCDFFA06
:016A8C0022E7
:0E6A8D0000007F0D7E9C7D53DDFEDEFCDFFAF7
:016A9B0022D8
:0E6A9C0000007F017ED87D23DDFEDEFCDFFAE8
:016AAA0022C9
:0E6AAB0000007F2B7E067DCBDDFEDEFCDFFAD9
:016AB90022BA
:0E6ABA0000007FFD7E237DDCDDFEDEFCDFFACA
:016AC80022AB
:0E6AC90000007F117ED07D1BDDFEDEFCDFFABB
:016AD700229C
:0E6AD80000007F057E347DC3DDFEDEFCDFFAAC
:016AE600228D
:040006007F0EDFFE8C
:01000A0022D3
:0E6AE70000007F097E687D8BDDFEDEFCDFFA9D
:016AF500227E
:105274004E4F5420205265616420434D440A00205F
:10528400696E64795F7265616474656D70207374AE
:10529400617274200D0A0020696E64795F72656121
:1052A4006474656D7020656E64200D0A00240349E2
:1052B400006D00700069006E006A005300650072A2
:1052C40000690061006C004E0075006D0030003113
:1052D400004003BFFCBFFCBFFC0000010012002122
:1052E40000000010000000000000000500000000A5
:1052F4000000000600000000000000100000000094
:10530400000000110088E1F3C000000000F0000676
:1053140002000001001200210000000200A000A011
:1053240002000000030000000000000200A000A032
:10533400020000611B0206000000000500000000DE
:10534400000000020701000000000005000000004A
:1053540000000004070000000000000507D007005B
:105364000000000607DC0000000000070700200022
:10537400000000120BFFFF0F0000000500000000FA
:10538400000000000500000000000000050000000F
:1053940000000000060000000000000005000000FE
:1053A40000000000050000000000000006000000EE
:1053B4000000010000000200000027000000872E0A
:1053C4000D0001000100020000008F2E0D000000FE
:1053D40000000000050000000000000006000000BE
:0253E4000000C7
:0867CD004104E0FF4104E1007A
:0B619D007B027F047A00E4FDFC7E0A18
:1061A800900541EEF0A3EFF0A3ECF0A3EDF0A3EA25
:1061B800F0A3EBF07F01126B05E4FF126B0590056D
:1061C80041A3E0FF126B05900541E0FF126B0590BB
:1061D8000545A3E0FF126B05900545E0FF126B052E
:1061E800900543A3E0FF126B05900543E0FF026BA7
:0161F80005A1
:10653F00900586EEF0A3EFF0E4FF126B05E4FF1277
:10654F006B05900586A3E0FF126B05900586E0FFB3
:10655F00126B05E4FF126B05E4FF126B05E4FF12EB
:07656F006B05E4FF026B0560
:10551200E4FF9004C0E09004E3F0E49004E2F09031
:1055220004E2E0FEFD3395E0FC74C12DF5827404C3
:105532003CF583E0FDEEFB3395E0FA74E42BF58253
:1055420074043AF583EDF09004E2E004F0E0B40C68
:10555200CEE49004E2F09004E2E0FEFD3395E0FC3C
:1055620074CD2DF58274043CF583E0FDEEFB33959A
:10557200E0FA74F02BF58274043AF583EDF09004AE
:10558200E2E004F0E0B402CE9004E2740FF0900482
:10559200E2E0FEC3648094A0501AEEFD3395E0FC75
:1055A20074E32DF58274043CF583E4F09004E2E0A8
:1055B20004F080DAE49004E2F09004E2E0FEC364D6
:1055C2008094A0501BEEFD3395E0FC74E32DF58230
:1055D20074043CF583E02FFF9004E2E004F080D9EC
:1055E200EF900502F0E49004E2F09004E2E0FFC3E1
:1055F200648094A0501CEF3395E0FE74E32FF58293
:1056020074043EF583E0FF126B0E9004E2E004F0B6
:0256120080D83E
:015614002273
:1061F900E49004C0F0FFEFFD3395E0FC74C12DF588
:106209008274043CF583E4F00FEFB40CE9E4FFEF8A
:10621900FD3395E0FC74CD2DF58274043CF583E4DF
:10622900F00FEFB402E9E4FFC3EF648094805015E6
:10623900EFFD3395E0FC74CF2DF58274043CF583B2
:0A624900E4F00F80E3E49004DFF0BE
:016253002228
:104B2E009005057401F0E4A3F0A3F074FFA3F0A3C5
:104B3E00F0E4A3F0A3F0A3F0A3F0A3F0A3F0A3F08E
:104B4E00A3F0A3F0A3F0A3F0A37412F0E4A3F0C2B9
:104B5E0008C209A3F090050AE0FEA3E024F4F58252
:104B6E0074003EF583E064016003024DC490050AB3
:104B7E00A3E0FF24F5F58274003EF583E09005175F
:104B8E00F074F72FF58274003EF583E0FE90050A6F
:104B9E00E0FCA3E0FD24F6F58274003CF583E07A98
:104BAE00002400FFEA3E900508F0A3EFF074F92D03
:104BBE00F58274003CF583E0FE90050AA3E024F82C
:104BCE00F58274003CF583E02400FFEA3E90050672
:104BDE00F0A3EFF0ED2408FFE43C90050CF0FCA3ED
:104BEE00EFF0FD900506E0FAA3E0FBAE027802C3FB
:104BFE0033CE33CED8F92DFFEE3C90050EF0A3EF59
:104C0E00F0EB2402FFE43AFEEF7802C333CE33CE4C
:104C1E00D8F9FF90050BE02FF090050AE03EF090DA
:104C2E000508E07004A3E06405706190050DE024B2
:104C3E000EFE90050CE03400900510F0A3CEF0E4CB
:104C4E00900503F0A3F0900503E0FEA3E0FF9005AE
:104C5E0011E02FFD900510E03EFC74F42DF58274EA
:104C6E00003CF583E0FD74C12FF58274043EF5839C
:104C7E00EDF0900504E004F07006900503E004F0FA
:104C8E00900503E07004A3E0640C70BA900508E090
:104C9E007004A3E064066003024B63900517E060A6
:104CAE0003024DC490050CE0FEA3E0FF24F8F5824C
:104CBE0074003EF583E064C26003024DB8EF240C2D
:104CCE00FFE43E900512F0A3EFF09004C0E024FE46
:104CDE00605C147003024D8B24026003024DAEE43F
:104CEE00900503F0A3F0900503E0FEA3E0FF90050E
:104CFE0013E02FFD900512E03EFC74F42DF5827446
:104D0E00003CF583E0FD74CD2FF58274043EF583EF
:104D1E00EDF0900504E004F07006900503E004F059
:104D2E00900503E07004A3E0640270BA8069E49019
:104D3E000503F0A3F0900503E0FEA3E0FF9005133A
:104D4E00E02FFD900512E03EFC74F42DF582740008
:104D5E003CF583E0FD74CD2FF58274043EF583EDB2
:104D6E00F0900504E004F07006900503E004F09066
:104D7E000503E07004A3E0640270BA801AE49004A4
:104D8E00CDF0900512E0FEA3E024F5F58274003E0E
:104D9E00F583E09004CEF09004E1E004F0024B6362
:104DAE00E49004E0F0A3F0024B637BFF7A52797437
:064DBE0012667F024B6348
:014DC40022CC
:10638A00E4900588F0A3F0FBFAFDFC7F027E0A1276
:10639A0061A87B0C7F031261A112619DE4FBFAFDE7
:1063AA00FC7F067E0A1261A87B107A00E4FDFCFFDE
:1063BA007EF01261A81200169000F4E0B40107C240
:0663CA00AC124B2ED2AC18
:0163D00022AA
:1062A700E490058AF0A3F0FBFAFDFC7F027E0A1258
:1062B70061A87B0D7A00E4FDFC7F037E0A1261A8CA
:1062C70012619DE4FBFAFDFC7F067E0A1261A87B42
:1062D700087A00E4FDFCFF7EF01261A81200169018
:0D62E70000F4E0B40107C2AC124B2ED2ACA3
:0162F4002287
:105A9500E4900561F0A3F07BFF7A52798312667F6B
:105AA500E4FBFAFDFC7F027E0A1261A87B0E7A00F8
:105AB500E4FDFC7F037E0A1261A812619DE4FBFAF6
:105AC500FDFC7F067E0A1261A87B077A00E4FDFCD7
:105AD500FF7EF01261A812698E1200169002E8A3EB
:105AE500E0FF126B0E9002E8E0FFA3E0900561CFA6
:105AF500F0A3EFF07F55126B0E900561A3E0FF1246
:105B05006B0EE4900563F0A3F0900561E0FEA3E061
:105B1500FFA3E0FCA3E0FDC39FEE6480F8EC648086
:105B250098501F74F42DF58274003CF583E0FF1244
:105B35006B0E900564E004F07006900563E004F0D8
:105B450080C79000F4E0B40107C2AC124B2ED2AC72
:095B55007BFF7A52799B02667F06
:10641500E4FF900000E060379000F1E0C39408507D
:1064250003E4FE22E4FEEEFD3395E0FC74002DF559
:106435008274003CF583E02FFF0EEEB407E8900070
:1064450007E0B507057E007F0122126A6E8000E431
:02645500FEFF48
:016457002222
:10009E00EF14B42200400302233C9000B675F00327
:1000AE00A4C58325F0C5837302011C02012502013C
:1000BE002E0201300201320203A902013502014370
:1000CE0002015102015F02016D02017B02018F02EA
:1000DE0001A30201B70201F302020702026B020240
:1000EE007F0202930202A70202BB0202CF02233C4E
:1000FE0002030B0203470203A902035B02039602EB
:10010E0003A90203BC0203D40203A90203FC7FC0AD
:10011E00126B057F0680337F40126B057F03802AAA
:10012E00802F8003020347E4FF126B05E4FF126B7E
:10013E00057F108058E4FF126B05E4FF126B057FFC
:10014E0011804AE4FF126B05E4FF126B05E4FF8099
:10015E003CE4FF126B05E4FF126B057F01802EE479
:10016E00FF126B05E4FF126B057F028020E4FF1285
:10017E006B05E4FF126B05E4FF126B057F030203B0
:10018E00E5E4FF126B05E4FF126B057F02126B05AF
:10019E00E4FF0203E5E4FF126B05E4FF126B057F3B
:1001AE0061126B057F1B0203E57F01126B05E4FFF5
:1001BE00126B057F01126B057F07126B05E4FF12B0
:1001CE006B05E4FF126B05E4FF126B05E4FF126B87
:1001DE0005E4FF126B05E4FF126B057F05126B053C
:1001EE00E4FF0203E5E4FF126B05E4FF126B057FEB
:1001FE0002126B057F070203E57F01126B05E4FF18
:10020E00126B057F02126B057F07126B057F0112C1
:10021E006B05E4FF126B05E4FF126B05E4FF126B36
:10022E00057F01126B05E4FF126B057F01126B0552
:10023E007F07126B05E4FF126B05E4FF126B05E4FA
:10024E00FF126B05E4FF126B05E4FF126B05E4FF72
:10025E00126B057F05126B05E4FF0203E5E4FF1246
:10026E006B05E4FF126B057F04126B057F0702031B
:10027E00E5E4FF126B05E4FF126B057F05126B05BB
:10028E007F070203E5E4FF126B05E4FF126B057FA7
:10029E0006126B057F070203E5E4FF126B05E4FF10
:1002AE00126B057F07126B057F070203E5E4FF1251
:1002BE006B05E4FF126B057F12126B057F0B0203B9
:1002CE00E57F01126B05E4FF126B057F01126B05D2
:1002DE007F07126B05E4FF126B05E4FF126B05E45A
:1002EE00FF126B05E4FF126B05E4FF126B05E4FFD2
:1002FE00126B057F05126B05E4FF0203E57F011209
:10030E006B05E4FF126B057F0A126B057F01126B02
:10031E00057FF8126B057F59126B057F0D126B0569
:10032E00E4FF126B05E4FF126B05E4FF126B057F11
:10033E0005126B05E4FF0203E5E4FF126B05E4FF13
:10034E00126B057F05126B05E4FF0203E57F0112B8
:10035E006B05E4FF126B057F08126B057F01126BB4
:10036E00057F01126B057F01126B05E4FF126B0511
:10037E00E4FF126B05E4FF126B05E4FF126B057FC1
:10038E0005126B05E4FF804FE4FF126B05E4FF12CC
:10039E006B057F05126B05E4FF803CE4FF126B05D5
:1003AE00E4FF126B057F06126B05E4FF80297F01C7
:1003BE00126B05E4FF126B05E4FF126B057FF01262
:1003CE006B057F278016E4FF126B05E4FF126B05A9
:1003DE007F05126B05E4FF126B05E4FF126B05E45B
:1003EE00FF126B05E4FF126B05E4FF0223397F0158
:1003FE00126B05E4FF126B057F01126B057F0C1269
:10040E006B05E4FF126B05E4FF126B05E4FF126B44
:10041E0005E4FF126B057F01126B05E4FF126B05FD
:10042E007F02126B057F0C126B057F01126B05E4C8
:10043E00FF126B05E4FF126B05E4FF126B057F01E3
:10044E00126B05E4FF126B057F03126B057F0C1216
:10045E006B057F70126B057F0D126B057F18126B8B
:10046E0005E4FF126B057F01126B05E4FF126B05AD
:10047E007F04126B057F0C126B05E4FF126B057F78
:10048E0001126B057F07126B057F14126B057F013E
:10049E00126B05E4FF126B057F01126B057F0C12C8
:1004AE006B057F01126B05E4FF126B05E4FF126B07
:1004BE0005E4FF126B057F01126B05E4FF126B055D
:1004CE007F02126B057F0C126B057F01126B05E428
:1004DE00FF126B05E4FF126B05E4FF126B057F0143
:1004EE00126B05E4FF126B057F03126B057F0C1276
:1004FE006B057F84126B057F0D126B057F18126BD7
:10050E0005E4FF126B057F01126B05E4FF126B050C
:10051E007F04126B057F0C126B05E4FF126B057FD7
:10052E0001126B057F07126B057F14126B057F019D
:10053E00126B05E4FF126B057F01126B057F0C1227
:10054E006B057F02126B05E4FF126B05E4FF126B65
:10055E0005E4FF126B057F01126B05E4FF126B05BC
:10056E007F02126B057F0C126B057F01126B05E487
:10057E00FF126B05E4FF126B05E4FF126B057F01A2
:10058E00126B05E4FF126B057F03126B057F0C12D5
:10059E006B057F98126B057F0D126B057F18126B22
:1005AE0005E4FF126B057F01126B05E4FF126B056C
:1005BE007F04126B057F0C126B05E4FF126B057F37
:1005CE0001126B057F07126B057F14126B057F01FD
:1005DE00126B05E4FF126B057F01126B057F0C1287
:1005EE006B057F03126B05E4FF126B05E4FF126BC4
:1005FE0005E4FF126B057F01126B05E4FF126B051C
:10060E007F02126B057F0C126B057F01126B05E4E6
:10061E00FF126B05E4FF126B05E4FF126B057F0101
:10062E00126B05E4FF126B057F03126B057F0C1234
:10063E006B057FAC126B057F0D126B057F18126B6D
:10064E0005E4FF126B057F01126B05E4FF126B05CB
:10065E007F04126B057F0C126B05E4FF126B057F96
:10066E0001126B057F07126B057F14126B057F015C
:10067E00126B05E4FF126B057F01126B057F0C12E6
:10068E006B057F04126B05E4FF126B05E4FF126B22
:10069E0005E4FF126B057F01126B05E4FF126B057B
:1006AE007F02126B057F0C126B057F01126B05E446
:1006BE00FF126B05E4FF126B05E4FF126B057F0161
:1006CE00126B05E4FF126B057F03126B057F0C1294
:1006DE006B057FC0126B057F0D126B057F18126BB9
:1006EE0005E4FF126B057F01126B05E4FF126B052B
:1006FE007F04126B057F0C126B05E4FF126B057FF6
:10070E0001126B057F07126B057F14126B057F01BB
:10071E00126B05E4FF126B057F01126B057F0C1245
:10072E006B057F05126B05E4FF126B05E4FF126B80
:10073E0005E4FF126B057F01126B05E4FF126B05DA
:10074E007F02126B057F0C126B057F01126B05E4A5
:10075E00FF126B05E4FF126B05E4FF126B057F01C0
:10076E00126B05E4FF126B057F03126B057F0C12F3
:10077E006B057FD4126B057F0D126B057F18126B04
:10078E0005E4FF126B057F01126B05E4FF126B058A
:10079E007F04126B057F0C126B05E4FF126B057F55
:1007AE0001126B057F07126B057F14126B057F011B
:1007BE00126B05E4FF126B057F01126B057F0C12A5
:1007CE006B057F06126B05E4FF126B05E4FF126BDF
:1007DE0005E4FF126B057F01126B05E4FF126B053A
:1007EE007F02126B057F0C126B057F01126B05E405
:1007FE00FF126B05E4FF126B05E4FF126B057F0120
:10080E00126B05E4FF126B057F03126B057F0C1252
:10081E006B057FE8126B057F0D126B057F18126B4F
:10082E0005E4FF126B057F01126B05E4FF126B05E9
:10083E007F04126B057F0C126B05E4FF126B057FB4
:10084E0001126B057F07126B057F14126B057F017A
:10085E00126B05E4FF126B057F01126B057F0C1204
:10086E006B057F07126B05E4FF126B05E4FF126B3D
:10087E0005E4FF126B057F01126B05E4FF126B0599
:10088E007F02126B057F0C126B057F01126B05E464
:10089E00FF126B05E4FF126B05E4FF126B057F017F
:1008AE00126B05E4FF126B057F03126B057F0C12B2
:1008BE006B057FFC126B057F0D126B057F18126B9B
:1008CE0005E4FF126B057F01126B05E4FF126B0549
:1008DE007F04126B057F0C126B05E4FF126B057F14
:1008EE0001126B057F07126B057F14126B057F01DA
:1008FE00126B05E4FF126B057F01126B057F0C1264
:10090E006B057F08126B05E4FF126B05E4FF126B9B
:10091E0005E4FF126B057F01126B05E4FF126B05F8
:10092E007F02126B057F0C126B057F01126B05E4C3
:10093E00FF126B05E4FF126B05E4FF126B057F01DE
:10094E00126B05E4FF126B057F03126B057F0C1211
:10095E006B057F10126B057F0E126B057F18126BE5
:10096E0005E4FF126B057F01126B05E4FF126B05A8
:10097E007F04126B057F0C126B05E4FF126B057F73
:10098E0001126B057F07126B057F14126B057F0139
:10099E00126B05E4FF126B057F01126B057F0C12C3
:1009AE006B057F09126B05E4FF126B05E4FF126BFA
:1009BE0005E4FF126B057F01126B05E4FF126B0558
:1009CE007F02126B057F0C126B057F01126B05E423
:1009DE00FF126B05E4FF126B05E4FF126B057F013E
:1009EE00126B05E4FF126B057F03126B057F0C1271
:1009FE006B057F24126B057F0E126B057F18126B31
:100A0E0005E4FF126B057F01126B05E4FF126B0507
:100A1E007F04126B057F0C126B05E4FF126B057FD2
:100A2E0001126B057F07126B057F14126B057F0198
:100A3E00126B05E4FF126B057F01126B057F0C1222
:100A4E006B057F0A126B05E4FF126B05E4FF126B58
:100A5E0005E4FF126B057F01126B05E4FF126B05B7
:100A6E007F02126B057F0C126B057F01126B05E482
:100A7E00FF126B05E4FF126B05E4FF126B057F019D
:100A8E00126B05E4FF126B057F03126B057F0C12D0
:100A9E006B057F38126B057F0E126B057F18126B7C
:100AAE0005E4FF126B057F01126B05E4FF126B0567
:100ABE007F04126B057F0C126B05E4FF126B057F32
:100ACE0001126B057F07126B057F14126B057F01F8
:100ADE00126B05E4FF126B057F01126B057F0C1282
:100AEE006B057F0B126B05E4FF126B05E4FF126BB7
:100AFE0005E4FF126B057F01126B05E4FF126B0517
:100B0E007F02126B057F0C126B057F01126B05E4E1
:100B1E00FF126B05E4FF126B05E4FF126B057F01FC
:100B2E00126B05E4FF126B057F03126B057F0C122F
:100B3E006B057F4C126B057F0E126B057F18126BC7
:100B4E0005E4FF126B057F01126B05E4FF126B05C6
:100B5E007F04126B057F0C126B05E4FF126B057F91
:100B6E0001126B057F07126B057F14126B057F0157
:100B7E00126B05E4FF126B057F01126B057F0C12E1
:100B8E006B057F0C126B05E4FF126B05E4FF126B15
:100B9E0005E4FF126B057F01126B05E4FF126B0576
:100BAE007F02126B057F0C126B057F01126B05E441
:100BBE00FF126B05E4FF126B05E4FF126B057F015C
:100BCE00126B05E4FF126B057F03126B057F0C128F
:100BDE006B057F60126B057F0E126B057F18126B13
:100BEE0005E4FF126B057F01126B05E4FF126B0526
:100BFE007F04126B057F0C126B05E4FF126B057FF1
:100C0E0001126B057F07126B057F14126B057F01B6
:100C1E00126B05E4FF126B057F01126B057F0C1240
:100C2E006B057F0D126B05E4FF126B05E4FF126B73
:100C3E0005E4FF126B057F01126B05E4FF126B05D5
:100C4E007F02126B057F0C126B05E4FF126B05E43D
:100C5E00FF126B05E4FF126B05E4FF126B057F01BB
:100C6E00126B05E4FF126B057F03126B057F0C12EE
:100C7E006B057F60126B057F0E126B057F18126B72
:100C8E0005E4FF126B057F01126B05E4FF126B0585
:100C9E007F04126B057F0C126B05E4FF126B057F50
:100CAE0001126B057F07126B057F14126B057F0116
:100CBE00126B05E4FF126B057F01126B057F0C12A0
:100CCE006B057F0E126B05E4FF126B05E4FF126BD2
:100CDE0005E4FF126B057F01126B05E4FF126B0535
:100CEE007F02126B057F0C126B05E4FF126B05E49D
:100CFE00FF126B05E4FF126B05E4FF126B057F011B
:100D0E00126B05E4FF126B057F03126B057F0C124D
:100D1E006B057F60126B057F0E126B057F18126BD1
:100D2E0005E4FF126B057F01126B05E4FF126B05E4
:100D3E007F04126B057F0C126B05E4FF126B057FAF
:100D4E0001126B057F07126B057F14126B057F0175
:100D5E00126B05E4FF126B057F01126B057F0C12FF
:100D6E006B057F0F126B05E4FF126B05E4FF126B30
:100D7E0005E4FF126B057F01126B05E4FF126B0594
:100D8E007F02126B057F0C126B05E4FF126B05E4FC
:100D9E00FF126B05E4FF126B05E4FF126B057F017A
:100DAE00126B05E4FF126B057F03126B057F0C12AD
:100DBE006B057F60126B057F0E126B057F18126B31
:100DCE0005E4FF126B057F01126B05E4FF126B0544
:100DDE007F04126B057F0C126B05E4FF126B057F0F
:100DEE0001126B057F07126B057F14126B057F01D5
:100DFE00126B05E4FF126B057F01126B057F0C125F
:100E0E006B057F10126B05E4FF126B05E4FF126B8E
:100E1E0005E4FF126B057F01126B05E4FF126B05F3
:100E2E007F02126B057F0C126B05E4FF126B05E45B
:100E3E00FF126B05E4FF126B05E4FF126B057F01D9
:100E4E00126B05E4FF126B057F03126B057F0C120C
:100E5E006B057F60126B057F0E126B057F18126B90
:100E6E0005E4FF126B057F01126B05E4FF126B05A3
:100E7E007F04126B057F0C126B05E4FF126B057F6E
:100E8E0001126B057F07126B057F14126B057F0134
:100E9E00126B05E4FF126B057F01126B057F0C12BE
:100EAE006B057F11126B05E4FF126B05E4FF126BED
:100EBE0005E4FF126B057F01126B05E4FF126B0553
:100ECE007F02126B057F0C126B05E4FF126B05E4BB
:100EDE00FF126B05E4FF126B05E4FF126B057F0139
:100EEE00126B05E4FF126B057F03126B057F0C126C
:100EFE006B057F60126B057F0E126B057F18126BF0
:100F0E0005E4FF126B057F01126B05E4FF126B0502
:100F1E007F04126B057F0C126B05E4FF126B057FCD
:100F2E0001126B057F07126B057F14126B057F0193
:100F3E00126B05E4FF126B057F01126B057F0C121D
:100F4E006B057F12126B05E4FF126B05E4FF126B4B
:100F5E0005E4FF126B057F01126B05E4FF126B05B2
:100F6E007F02126B057F0C126B05E4FF126B05E41A
:100F7E00FF126B05E4FF126B05E4FF126B057F0198
:100F8E00126B05E4FF126B057F03126B057F0C12CB
:100F9E006B057F60126B057F0E126B057F18126B4F
:100FAE0005E4FF126B057F01126B05E4FF126B0562
:100FBE007F04126B057F0C126B05E4FF126B057F2D
:100FCE0001126B057F07126B057F14126B057F01F3
:100FDE00126B05E4FF126B057F01126B057F0C127D
:100FEE006B057F13126B05E4FF126B05E4FF126BAA
:100FFE0005E4FF126B057F01126B05E4FF126B0512
:10100E007F02126B057F0C126B05E4FF126B05E479
:10101E00FF126B05E4FF126B05E4FF126B057F01F7
:10102E00126B05E4FF126B057F03126B057F0C122A
:10103E006B057F60126B057F0E126B057F18126BAE
:10104E0005E4FF126B057F01126B05E4FF126B05C1
:10105E007F04126B057F0C126B05E4FF126B057F8C
:10106E0001126B057F07126B057F14126B057F0152
:10107E00126B05E4FF126B057F01126B057F0C12DC
:10108E006B057F14126B05E4FF126B05E4FF126B08
:10109E0005E4FF126B057F01126B05E4FF126B0571
:1010AE007F02126B057F0C126B05E4FF126B05E4D9
:1010BE00FF126B05E4FF126B05E4FF126B057F0157
:1010CE00126B05E4FF126B057F03126B057F0C128A
:1010DE006B057F60126B057F0E126B057F18126B0E
:1010EE0005E4FF126B057F01126B05E4FF126B0521
:1010FE007F04126B057F0C126B05E4FF126B057FEC
:10110E0001126B057F07126B057F14126B057F01B1
:10111E00126B05E4FF126B057F01126B057F0C123B
:10112E006B057F15126B05E4FF126B05E4FF126B66
:10113E0005E4FF126B057F01126B05E4FF126B05D0
:10114E007F02126B057F0C126B05E4FF126B05E438
:10115E00FF126B05E4FF126B05E4FF126B057F01B6
:10116E00126B05E4FF126B057F03126B057F0C12E9
:10117E006B057F60126B057F0E126B057F18126B6D
:10118E0005E4FF126B057F01126B05E4FF126B0580
:10119E007F04126B057F0C126B05E4FF126B057F4B
:1011AE0001126B057F07126B057F14126B057F0111
:1011BE00126B05E4FF126B057F01126B057F0C129B
:1011CE006B057F16126B05E4FF126B05E4FF126BC5
:1011DE0005E4FF126B057F01126B05E4FF126B0530
:1011EE007F02126B057F0C126B05E4FF126B05E498
:1011FE00FF126B05E4FF126B05E4FF126B057F0116
:10120E00126B05E4FF126B057F03126B057F0C1248
:10121E006B057F60126B057F0E126B057F18126BCC
:10122E0005E4FF126B057F01126B05E4FF126B05DF
:10123E007F04126B057F0C126B05E4FF126B057FAA
:10124E0001126B057F07126B057F14126B057F0170
:10125E00126B05E4FF126B057F01126B057F0C12FA
:10126E006B057F17126B05E4FF126B05E4FF126B23
:10127E0005E4FF126B057F01126B05E4FF126B058F
:10128E007F02126B057F0C126B05E4FF126B05E4F7
:10129E00FF126B05E4FF126B05E4FF126B057F0175
:1012AE00126B05E4FF126B057F03126B057F0C12A8
:1012BE006B057F60126B057F0E126B057F18126B2C
:1012CE0005E4FF126B057F01126B05E4FF126B053F
:1012DE007F04126B057F0C126B05E4FF126B057F0A
:1012EE0001126B057F07126B057F14126B057F01D0
:1012FE00126B05E4FF126B057F01126B057F0C125A
:10130E006B057F18126B05E4FF126B05E4FF126B81
:10131E0005E4FF126B057F01126B05E4FF126B05EE
:10132E007F02126B057F0C126B05E4FF126B05E456
:10133E00FF126B05E4FF126B05E4FF126B057F01D4
:10134E00126B05E4FF126B057F03126B057F0C1207
:10135E006B057F60126B057F0E126B057F18126B8B
:10136E0005E4FF126B057F01126B05E4FF126B059E
:10137E007F04126B057F0C126B05E4FF126B057F69
:10138E0001126B057F07126B057F14126B057F012F
:10139E00126B05E4FF126B057F01126B057F0C12B9
:1013AE006B057F19126B05E4FF126B05E4FF126BE0
:1013BE0005E4FF126B057F01126B05E4FF126B054E
:1013CE007F02126B057F0C126B05E4FF126B05E4B6
:1013DE00FF126B05E4FF126B05E4FF126B057F0134
:1013EE00126B05E4FF126B057F03126B057F0C1267
:1013FE006B057F60126B057F0E126B057F18126BEB
:10140E0005E4FF126B057F01126B05E4FF126B05FD
:10141E007F04126B057F0C126B05E4FF126B057FC8
:10142E0001126B057F07126B057F14126B057F018E
:10143E00126B05E4FF126B057F01126B057F0C1218
:10144E006B057F1A126B05E4FF126B05E4FF126B3E
:10145E0005E4FF126B057F01126B05E4FF126B05AD
:10146E007F02126B057F0C126B05E4FF126B05E415
:10147E00FF126B05E4FF126B05E4FF126B057F0193
:10148E00126B05E4FF126B057F03126B057F0C12C6
:10149E006B057F60126B057F0E126B057F18126B4A
:1014AE0005E4FF126B057F01126B05E4FF126B055D
:1014BE007F04126B057F0C126B05E4FF126B057F28
:1014CE0001126B057F07126B057F14126B057F01EE
:1014DE00126B05E4FF126B057F01126B057F0C1278
:1014EE006B057F1B126B05E4FF126B05E4FF126B9D
:1014FE0005E4FF126B057F01126B05E4FF126B050D
:10150E007F02126B057F0C126B05E4FF126B05E474
:10151E00FF126B05E4FF126B05E4FF126B057F01F2
:10152E00126B05E4FF126B057F03126B057F0C1225
:10153E006B057F60126B057F0E126B057F18126BA9
:10154E0005E4FF126B057F01126B05E4FF126B05BC
:10155E007F04126B057F0C126B05E4FF126B057F87
:10156E0001126B057F07126B057F14126B057F014D
:10157E00126B05E4FF126B057F01126B057F0C12D7
:10158E006B057F1C126B05E4FF126B05E4FF126BFB
:10159E0005E4FF126B057F01126B05E4FF126B056C
:1015AE007F02126B057F0C126B05E4FF126B05E4D4
:1015BE00FF126B05E4FF126B05E4FF126B057F0152
:1015CE00126B05E4FF126B057F03126B057F0C1285
:1015DE006B057F60126B057F0E126B057F18126B09
:1015EE0005E4FF126B057F01126B05E4FF126B051C
:1015FE007F04126B057F0C126B05E4FF126B057FE7
:10160E0001126B057F07126B057F14126B057F01AC
:10161E00126B05E4FF126B057F01126B057F0C1236
:10162E006B057F1D126B05E4FF126B05E4FF126B59
:10163E0005E4FF126B057F01126B05E4FF126B05CB
:10164E007F02126B057F0C126B05E4FF126B05E433
:10165E00FF126B05E4FF126B05E4FF126B057F01B1
:10166E00126B05E4FF126B057F03126B057F0C12E4
:10167E006B057F60126B057F0E126B057F18126B68
:10168E0005E4FF126B057F01126B05E4FF126B057B
:10169E007F04126B057F0C126B05E4FF126B057F46
:1016AE0001126B057F07126B057F14126B057F010C
:1016BE00126B05E4FF126B057F01126B057F0C1296
:1016CE006B057F1E126B05E4FF126B05E4FF126BB8
:1016DE0005E4FF126B057F01126B05E4FF126B052B
:1016EE007F02126B057F0C126B05E4FF126B05E493
:1016FE00FF126B05E4FF126B05E4FF126B057F0111
:10170E00126B05E4FF126B057F03126B057F0C1243
:10171E006B057F60126B057F0E126B057F18126BC7
:10172E0005E4FF126B057F01126B05E4FF126B05DA
:10173E007F04126B057F0C126B05E4FF126B057FA5
:10174E0001126B057F07126B057F14126B057F016B
:10175E00126B05E4FF126B057F01126B057F0C12F5
:10176E006B057F1F126B05E4FF126B05E4FF126B16
:10177E0005E4FF126B057F01126B05E4FF126B058A
:10178E007F02126B057F0C126B05E4FF126B05E4F2
:10179E00FF126B05E4FF126B05E4FF126B057F0170
:1017AE00126B05E4FF126B057F03126B057F0C12A3
:1017BE006B057F60126B057F0E126B057F18126B27
:1017CE0005E4FF126B057F01126B05E4FF126B053A
:1017DE007F04126B057F0C126B05E4FF126B057F05
:1017EE0001126B057F07126B057F14126B057F01CB
:1017FE00126B05E4FF126B057F01126B057F0C1255
:10180E006B057F20126B05E4FF126B05E4FF126B74
:10181E0005E4FF126B057F01126B05E4FF126B05E9
:10182E007F02126B057F0C126B05E4FF126B05E451
:10183E00FF126B05E4FF126B05E4FF126B057F01CF
:10184E00126B05E4FF126B057F03126B057F0C1202
:10185E006B057F60126B057F0E126B057F18126B86
:10186E0005E4FF126B057F01126B05E4FF126B0599
:10187E007F04126B057F0C126B05E4FF126B057F64
:10188E0001126B057F07126B057F14126B057F012A
:10189E00126B05E4FF126B057F01126B057F0C12B4
:1018AE006B057F21126B05E4FF126B05E4FF126BD3
:1018BE0005E4FF126B057F01126B05E4FF126B0549
:1018CE007F02126B057F0C126B05E4FF126B05E4B1
:1018DE00FF126B05E4FF126B05E4FF126B057F012F
:1018EE00126B05E4FF126B057F03126B057F0C1262
:1018FE006B057F60126B057F0E126B057F18126BE6
:10190E0005E4FF126B057F01126B05E4FF126B05F8
:10191E007F04126B057F0C126B05E4FF126B057FC3
:10192E0001126B057F07126B057F14126B057F0189
:10193E00126B05E4FF126B057F01126B057F0C1213
:10194E006B057F22126B05E4FF126B05E4FF126B31
:10195E0005E4FF126B057F01126B05E4FF126B05A8
:10196E007F02126B057F0C126B05E4FF126B05E410
:10197E00FF126B05E4FF126B05E4FF126B057F018E
:10198E00126B05E4FF126B057F03126B057F0C12C1
:10199E006B057F60126B057F0E126B057F18126B45
:1019AE0005E4FF126B057F01126B05E4FF126B0558
:1019BE007F04126B057F0C126B05E4FF126B057F23
:1019CE0001126B057F07126B057F14126B057F01E9
:1019DE00126B05E4FF126B057F01126B057F0C1273
:1019EE006B057F23126B05E4FF126B05E4FF126B90
:1019FE0005E4FF126B057F01126B05E4FF126B0508
:101A0E007F02126B057F0C126B05E4FF126B05E46F
:101A1E00FF126B05E4FF126B05E4FF126B057F01ED
:101A2E00126B05E4FF126B057F03126B057F0C1220
:101A3E006B057F60126B057F0E126B057F18126BA4
:101A4E0005E4FF126B057F01126B05E4FF126B05B7
:101A5E007F04126B057F0C126B05E4FF126B057F82
:101A6E0001126B057F07126B057F14126B057F0148
:101A7E00126B05E4FF126B057F01126B057F0C12D2
:101A8E006B057F24126B05E4FF126B05E4FF126BEE
:101A9E0005E4FF126B057F01126B05E4FF126B0567
:101AAE007F02126B057F0C126B05E4FF126B05E4CF
:101ABE00FF126B05E4FF126B05E4FF126B057F014D
:101ACE00126B05E4FF126B057F03126B057F0C1280
:101ADE006B057F60126B057F0E126B057F18126B04
:101AEE0005E4FF126B057F01126B05E4FF126B0517
:101AFE007F04126B057F0C126B05E4FF126B057FE2
:101B0E0001126B057F07126B057F14126B057F01A7
:101B1E00126B05E4FF126B057F01126B057F0C1231
:101B2E006B057F25126B05E4FF126B05E4FF126B4C
:101B3E0005E4FF126B057F01126B05E4FF126B05C6
:101B4E007F02126B057F0C126B05E4FF126B05E42E
:101B5E00FF126B05E4FF126B05E4FF126B057F01AC
:101B6E00126B05E4FF126B057F03126B057F0C12DF
:101B7E006B057F60126B057F0E126B057F18126B63
:101B8E0005E4FF126B057F01126B05E4FF126B0576
:101B9E007F04126B057F0C126B05E4FF126B057F41
:101BAE0001126B057F07126B057F14126B057F0107
:101BBE00126B05E4FF126B057F01126B057F0C1291
:101BCE006B057F26126B05E4FF126B05E4FF126BAB
:101BDE0005E4FF126B057F01126B05E4FF126B0526
:101BEE007F02126B057F0C126B05E4FF126B05E48E
:101BFE00FF126B05E4FF126B05E4FF126B057F010C
:101C0E00126B05E4FF126B057F03126B057F0C123E
:101C1E006B057F60126B057F0E126B057F18126BC2
:101C2E0005E4FF126B057F01126B05E4FF126B05D5
:101C3E007F04126B057F0C126B05E4FF126B057FA0
:101C4E0001126B057F07126B057F14126B057F0166
:101C5E00126B05E4FF126B057F01126B057F0C12F0
:101C6E006B057F27126B05E4FF126B05E4FF126B09
:101C7E0005E4FF126B057F01126B05E4FF126B0585
:101C8E007F02126B057F0C126B05E4FF126B05E4ED
:101C9E00FF126B05E4FF126B05E4FF126B057F016B
:101CAE00126B05E4FF126B057F03126B057F0C129E
:101CBE006B057F60126B057F0E126B057F18126B22
:101CCE0005E4FF126B057F01126B05E4FF126B0535
:101CDE007F04126B057F0C126B05E4FF126B057F00
:101CEE0001126B057F07126B057F14126B057F01C6
:101CFE00126B05E4FF126B057F01126B057F0C1250
:101D0E006B057F28126B05E4FF126B05E4FF126B67
:101D1E0005E4FF126B057F01126B05E4FF126B05E4
:101D2E007F02126B057F0C126B05E4FF126B05E44C
:101D3E00FF126B05E4FF126B05E4FF126B057F01CA
:101D4E00126B05E4FF126B057F03126B057F0C12FD
:101D5E006B057F60126B057F0E126B057F18126B81
:101D6E0005E4FF126B057F01126B05E4FF126B0594
:101D7E007F04126B057F0C126B05E4FF126B057F5F
:101D8E0001126B057F07126B057F14126B057F0125
:101D9E00126B05E4FF126B057F01126B057F0C12AF
:101DAE006B057F29126B05E4FF126B05E4FF126BC6
:101DBE0005E4FF126B057F01126B05E4FF126B0544
:101DCE007F02126B057F0C126B05E4FF126B05E4AC
:101DDE00FF126B05E4FF126B05E4FF126B057F012A
:101DEE00126B05E4FF126B057F03126B057F0C125D
:101DFE006B057F60126B057F0E126B057F18126BE1
:101E0E0005E4FF126B057F01126B05E4FF126B05F3
:101E1E007F04126B057F0C126B05E4FF126B057FBE
:101E2E0001126B057F07126B057F14126B057F0184
:101E3E00126B05E4FF126B057F01126B057F0C120E
:101E4E006B057F2A126B05E4FF126B05E4FF126B24
:101E5E0005E4FF126B057F01126B05E4FF126B05A3
:101E6E007F02126B057F0C126B05E4FF126B05E40B
:101E7E00FF126B05E4FF126B05E4FF126B057F0189
:101E8E00126B05E4FF126B057F03126B057F0C12BC
:101E9E006B057F60126B057F0E126B057F18126B40
:101EAE0005E4FF126B057F01126B05E4FF126B0553
:101EBE007F04126B057F0C126B05E4FF126B057F1E
:101ECE0001126B057F07126B057F14126B057F01E4
:101EDE00126B05E4FF126B057F01126B057F0C126E
:101EEE006B057F2B126B05E4FF126B05E4FF126B83
:101EFE0005E4FF126B057F01126B05E4FF126B0503
:101F0E007F02126B057F0C126B05E4FF126B05E46A
:101F1E00FF126B05E4FF126B05E4FF126B057F01E8
:101F2E00126B05E4FF126B057F03126B057F0C121B
:101F3E006B057F60126B057F0E126B057F18126B9F
:101F4E0005E4FF126B057F01126B05E4FF126B05B2
:101F5E007F04126B057F0C126B05E4FF126B057F7D
:101F6E0001126B057F07126B057F14126B057F0143
:101F7E00126B05E4FF126B057F01126B057F0C12CD
:101F8E006B057F2C126B05E4FF126B05E4FF126BE1
:101F9E0005E4FF126B057F01126B05E4FF126B0562
:101FAE007F02126B057F0C126B05E4FF126B05E4CA
:101FBE00FF126B05E4FF126B05E4FF126B057F0148
:101FCE00126B05E4FF126B057F03126B057F0C127B
:101FDE006B057F60126B057F0E126B057F18126BFF
:101FEE0005E4FF126B057F01126B05E4FF126B0512
:101FFE007F04126B057F0C126B05E4FF126B057FDD
:10200E0001126B057F07126B057F14126B057F01A2
:10201E00126B05E4FF126B057F01126B057F0C122C
:10202E006B057F2D126B05E4FF126B05E4FF126B3F
:10203E0005E4FF126B057F01126B05E4FF126B05C1
:10204E007F02126B057F0C126B05E4FF126B05E429
:10205E00FF126B05E4FF126B05E4FF126B057F01A7
:10206E00126B05E4FF126B057F03126B057F0C12DA
:10207E006B057F60126B057F0E126B057F18126B5E
:10208E0005E4FF126B057F01126B05E4FF126B0571
:10209E007F04126B057F0C126B05E4FF126B057F3C
:1020AE0001126B057F07126B057F14126B057F0102
:1020BE00126B05E4FF126B057F01126B057F0C128C
:1020CE006B057F2E126B05E4FF126B05E4FF126B9E
:1020DE0005E4FF126B057F01126B05E4FF126B0521
:1020EE007F02126B057F0C126B05E4FF126B05E489
:1020FE00FF126B05E4FF126B05E4FF126B057F0107
:10210E00126B05E4FF126B057F03126B057F0C1239
:10211E006B057F60126B057F0E126B057F18126BBD
:10212E0005E4FF126B057F01126B05E4FF126B05D0
:10213E007F04126B057F0C126B05E4FF126B057F9B
:10214E0001126B057F07126B057F14126B057F0161
:10215E00126B05E4FF126B057F01126B057F0C12EB
:10216E006B057F2F126B05E4FF126B05E4FF126BFC
:10217E0005E4FF126B057F01126B05E4FF126B0580
:10218E007F02126B057F0C126B05E4FF126B05E4E8
:10219E00FF126B05E4FF126B05E4FF126B057F0166
:1021AE00126B05E4FF126B057F03126B057F0C1299
:1021BE006B057F60126B057F0E126B057F18126B1D
:1021CE0005E4FF126B057F01126B05E4FF126B0530
:1021DE007F04126B057F0C126B05E4FF126B057FFB
:1021EE0001126B057F07126B057F14126B057F01C1
:1021FE00126B05E4FF126B057F01126B057F0C124B
:10220E006B057F30126B05E4FF126B05E4FF126B5A
:10221E0005E4FF126B057F01126B05E4FF126B05DF
:10222E007F02126B057F0C126B05E4FF126B05E447
:10223E00FF126B05E4FF126B05E4FF126B057F01C5
:10224E00126B05E4FF126B057F03126B057F0C12F8
:10225E006B057F60126B057F0E126B057F18126B7C
:10226E0005E4FF126B057F01126B05E4FF126B058F
:10227E007F04126B057F0C126B05E4FF126B057F5A
:10228E0001126B057F07126B057F14126B057F0120
:10229E00126B05E4FF126B057F01126B057F0C12AA
:1022AE006B057F31126B05E4FF126B05E4FF126BB9
:1022BE0005E4FF126B057F01126B05E4FF126B053F
:1022CE007F02126B057F0C126B05E4FF126B05E4A7
:1022DE00FF126B05E4FF126B05E4FF126B057F0125
:1022EE00126B05E4FF126B057F03126B057F0C1258
:1022FE006B057F60126B057F0E126B057F18126BDC
:10230E0005E4FF126B057F01126B05E4FF126B05EE
:10231E007F04126B057F0C126B05E4FF126B057FB9
:0F232E0001126B057F07126B057F14126B0522DE
:05233D009002EAEFF040
:102342009002EC7424F078ED7C027D017BFF7A52DE
:1023520079B17E00FF123EE49003117408F0781206
:102362007C037D017BFF7A5279D57E00FF123EE429
:1023720090031A7408F0781B7C037D017BFF7A526C
:1023820079DD7E00FF123EE49003237408F0782486
:102392007C037D017BFF7A5279E57E00FF123EE4E9
:1023A20090032C7408F0782D7C037D017BFF7A5218
:1023B20079ED7E00FF123EE49003357408F0783622
:1023C2007C037D017BFF7A5279F57E00FF123EE4A9
:1023D20090033E7408F0783F7C037D017BFF7A52C4
:1023E20079FD7E00FF123EE49003477408F07848BE
:1023F2007C037D017BFF7A5379057E00FF123EE468
:102402009003507408F078517C037D017BFF7A536E
:10241200790D7E00FF123EE49003597408F0785A59
:102422007C037D017BFF7A5379157E00FF123EE427
:102432009003627408F078637C037D017BFF7A531A
:10244200791D7E00FF123EE490036B7408F0786CF5
:102452007C037D017BFF7A5379257E00FF123EE4E7
:102462009003747408F078757C037D017BFF7A53C6
:10247200792D7E00FF123EE490037D7408F0787E91
:102482007C037D017BFF7A5379357E00FF123EE4A7
:102492009003867408F078877C037D017BFF7A5372
:1024A200793D7E00FF123EE490038F7408F078902D
:1024B2007C037D017BFF7A5379457E00FF123EE467
:1024C2009003987408F078997C037D017BFF7A531E
:1024D200794D7E00FF123EE49003A17408F078A2C9
:1024E2007C037D017BFF7A5379557E00FF123EE427
:1024F2009003AA7408F078AB7C037D017BFF7A53CA
:10250200795D7E00FF123EE49003B37408F078B464
:102512007C037D017BFF7A5379657E00FF123EE4E6
:102522009003BC7408F078BD7C037D017BFF7A5375
:10253200796D7E00FF123EE49003C57408F078C600
:102542007C037D017BFF7A5379757E00FF123EE4A6
:102552009003CE7408F078CF7C037D017BFF7A5321
:10256200797D7E00FF123EE4E49003D7F078D87CB8
:10257200037D017BFF7A537985FE7F01123EE49051
:1025820003D97408F078DA7C037D017BFF7A5379F2
:10259200867E00FF123EE49003E27408F078E37C4A
:1025A200037D017BFF7A53798E7E00FF123EE49019
:1025B20003EB7408F078EC7C037D017BFF7A53799E
:1025C200967E00FF123EE49003F47408F078F57CE6
:1025D200037D017BFF7A53799E7E00FF123EE490D9
:1025E20003FD7408F078FE7C037D017BFF7A53794A
:1025F200A67E00FF123EE49004067408F078077C81
:10260200047D017BFF7A5379AE7E00FF123EE49097
:10261200040F7420F078107C047D017BFF7A5379DB
:10262200B67E00FF123EE49004307408F078317CEC
:10263200047D017BFF7A5379D67E00FF123EE4903F
:1026420004397408F0783A7C047D017BFF7A53796F
:10265200DE7E00FF123EE49002EAE014B421004064
:102662000302305890267475F003A4C58325F0C583
:1026720083730226D70227250227730227C1022865
:102682000F02285D0228AB0228F902294702299588
:102692000229E3022A31022A7F022ACD022B1B02DF
:1026A2002B69022BB7022C12022C60022CAE022CD8
:1026B200B1022CFF022D4D022D9B022DE9022E3775
:1026C200022E85022ED3022F21022F6F022CAE0280
:1026D2002FBD02300AE49002EBF09002ECE0FF9092
:1026E20002EBE0FEC3EF6480F8EE648098400302E0
:1026F200305BE0FFFD3395E0FC74ED2DF582740252
:102702003CF583E0FEEF3395E0FC74F42DF5827422
:10271200003CF583E06E6003022C559002EBE0046E
:10272200F080B7E49002EBF0900311E0FF9002EB2F
:10273200E0FEC3EF6480F8EE648098400302305BF1
:10274200E0FFFD3395E0FC74122DF58274033CF535
:1027520083E0FEEF3395E0FC74F42DF58274003CC7
:10276200F583E06E6003022C559002EBE004F080EA
:10277200B7E49002EBF090031AE0FF9002EBE0FE68
:10278200C3EF6480F8EE648098400302305BE0FFA0
:10279200FD3395E0FC741B2DF58274033CF583E058
:1027A200FEEF3395E0FC74F42DF58274003CF58362
:1027B200E06E6003022C559002EBE004F080B7E477
:1027C2009002EBF0900323E0FF9002EBE0FEC3EFF8
:1027D2006480F8EE648098400302305BE0FFFD33D2
:1027E20095E0FC74242DF58274033CF583E0FEEF42
:1027F2003395E0FC74F42DF58274003CF583E06EB1
:102802006003022C559002EBE004F080B7E49002E2
:10281200EBF090032CE0FF9002EBE0FEC3EF64804C
:10282200F8EE648098400302305BE0FFFD3395E0F0
:10283200FC742D2DF58274033CF583E0FEEF339595
:10284200E0FC74F42DF58274003CF583E06E6003C5
:10285200022C559002EBE004F080B7E49002EBF01A
:10286200900335E0FF9002EBE0FEC3EF6480F8EEE8
:10287200648098400302305BE0FFFD3395E0FC7416
:10288200362DF58274033CF583E0FEEF3395E0FCD0
:1028920074F42DF58274003CF583E06E6003022C23
:1028A200559002EBE004F080B7E49002EBF0900365
:1028B2003EE0FF9002EBE0FEC3EF6480F8EE64803E
:1028C20098400302305BE0FFFD3395E0FC743F2D3E
:1028D200F58274033CF583E0FEEF3395E0FC74F47B
:1028E2002DF58274003CF583E06E6003022C559056
:1028F20002EBE004F080B7E49002EBF0900347E0D3
:10290200FF9002EBE0FEC3EF6480F8EE6480984033
:102912000302305BE0FFFD3395E0FC74482DF58245
:1029220074033CF583E0FEEF3395E0FC74F42DF57F
:102932008274003CF583E06E6003022C559002EB3A
:10294200E004F080B7E49002EBF0900350E0FF90D7
:1029520002EBE0FEC3EF6480F8EE6480984003026D
:10296200305BE0FFFD3395E0FC74512DF58274037A
:102972003CF583E0FEEF3395E0FC74F42DF58274B0
:10298200003CF583E06E6003022C559002EBE004FC
:10299200F080B7E49002EBF0900359E0FF9002EB75
:1029A200E0FEC3EF6480F8EE648098400302305B7F
:1029B200E0FFFD3395E0FC745A2DF58274033CF57B
:1029C20083E0FEEF3395E0FC74F42DF58274003C55
:1029D200F583E06E6003022C559002EBE004F08078
:1029E200B7E49002EBF0900362E0FF9002EBE0FEAE
:1029F200C3EF6480F8EE648098400302305BE0FF2E
:102A0200FD3395E0FC74632DF58274033CF583E09D
:102A1200FEEF3395E0FC74F42DF58274003CF583EF
:102A2200E06E6003022C559002EBE004F080B7E404
:102A32009002EBF090036BE0FF9002EBE0FEC3EF3D
:102A42006480F8EE648098400302305BE0FFFD335F
:102A520095E0FC746C2DF58274033CF583E0FEEF87
:102A62003395E0FC74F42DF58274003CF583E06E3E
:102A72006003022C559002EBE004F080B7E4900270
:102A8200EBF0900374E0FF9002EBE0FEC3EF648092
:102A9200F8EE648098400302305BE0FFFD3395E07E
:102AA200FC74752DF58274033CF583E0FEEF3395DB
:102AB200E0FC74F42DF58274003CF583E06E600353
:102AC200022C559002EBE004F080B7E49002EBF0A8
:102AD20090037DE0FF9002EBE0FEC3EF6480F8EE2E
:102AE200648098400302305BE0FFFD3395E0FC74A4
:102AF2007E2DF58274033CF583E0FEEF3395E0FC16
:102B020074F42DF58274003CF583E06E6003022CB0
:102B1200559002EBE004F080B7E49002EBF09003F2
:102B220086E0FF9002EBE0FEC3EF6480F8EE648083
:102B320098400302305BE0FFFD3395E0FC74872D83
:102B4200F58274033CF583E0FEEF3395E0FC74F408
:102B52002DF58274003CF583E06E6003022C5590E3
:102B620002EBE004F080B7E49002EBF090038FE018
:102B7200FF9002EBE0FEC3EF6480F8EE64809840C1
:102B82000302305BE0FFFD3395E0FC74902DF5828B
:102B920074033CF583E0FEEF3395E0FC74F42DF50D
:102BA2008274003CF583E06E6003022C559002EBC8
:102BB200E004F080B7E49002EBF0900398E0FF901D
:102BC20002EBE0FEC3EF6480F8EE648098400302FB
:102BD200305BE0FFFD3395E0FC74992DF5827403C0
:102BE2003CF583E0FEEF3395E0FC74F42DF582743E
:102BF200003CF583E06E60107FBB126B0E9002EB1F
:102C0200E0FF126B0E02304A9002EBE004F080AA61
:102C1200E49002EBF09003A1E0FF9002EBE0FEC330
:102C2200EF6480F8EE648098400302305BE0FFFDC1
:102C32003395E0FC74A22DF58274033CF583E0FE2B
:102C4200EF3395E0FC74F42DF58274003CF583E0DB
:102C52006E600302304A9002EBE004F080B7E49029
:102C620002EBF09003AAE0FF9002EBE0FEC3EF64F8
:102C720080F8EE648098400302305BE0FFFD3395FC
:102C8200E0FC74AB2DF58274033CF583E0FEEF3378
:102C920095E0FC74F42DF58274003CF583E06E60DF
:102CA2000302304A9002EBE004F080B77F0022E496
:102CB2009002EBF09003BCE0FF9002EBE0FEC3EF6A
:102CC2006480F8EE648098400302305BE0FFFD33DD
:102CD20095E0FC74BD2DF58274033CF583E0FEEFB4
:102CE2003395E0FC74F42DF58274003CF583E06EBC
:102CF200600302304A9002EBE004F080B7E49002F5
:102D0200EBF09003C5E0FF9002EBE0FEC3EF6480BE
:102D1200F8EE648098400302305BE0FFFD3395E0FB
:102D2200FC74C62DF58274033CF583E0FEEF339507
:102D3200E0FC74F42DF58274003CF583E06E6003D0
:102D420002304A9002EBE004F080B7E49002EBF02C
:102D52009003CEE0FF9002EBE0FEC3EF6480F8EE5A
:102D6200648098400302305BE0FFFD3395E0FC7421
:102D7200CF2DF58274033CF583E0FEEF3395E0FC42
:102D820074F42DF58274003CF583E06E600302302A
:102D92004A9002EBE004F080B7E49002EBF090037B
:102DA200D7E0FF9002EBE0FEC3EF6480F8EE6480B0
:102DB20098400302305BE0FFFD3395E0FC74D82DB0
:102DC200F58274033CF583E0FEEF3395E0FC74F486
:102DD2002DF58274003CF583E06E600302304A9068
:102DE20002EBE004F080B7E49002EBF09003D9E04C
:102DF200FF9002EBE0FEC3EF6480F8EE648098403F
:102E02000302305BE0FFFD3395E0FC74DA2DF582BE
:102E120074033CF583E0FEEF3395E0FC74F42DF58A
:102E22008274003CF583E06E600302304A9002EB4C
:102E3200E004F080B7E49002EBF09003E2E0FF9050
:102E420002EBE0FEC3EF6480F8EE64809840030278
:102E5200305BE0FFFD3395E0FC74E32DF5827403F3
:102E62003CF583E0FEEF3395E0FC74F42DF58274BB
:102E7200003CF583E06E600302304A9002EBE0040E
:102E8200F080B7E49002EBF09003EBE0FF9002EBEE
:102E9200E0FEC3EF6480F8EE648098400302305B8A
:102EA200E0FFFD3395E0FC74EC2DF58274033CF5F4
:102EB20083E0FEEF3395E0FC74F42DF58274003C60
:102EC200F583E06E600302304A9002EBE004F0808A
:102ED200B7E49002EBF09003F4E0FF9002EBE0FE27
:102EE200C3EF6480F8EE648098400302305BE0FF39
:102EF200FD3395E0FC74F52DF58274033CF583E017
:102F0200FEEF3395E0FC74F42DF58274003CF583FA
:102F1200E06E600302304A9002EBE004F080B7E416
:102F22009002EBF09003FDE0FF9002EBE0FEC3EFB6
:102F32006480F8EE648098400302305BE0FFFD336A
:102F420095E0FC74FE2DF58274033CF583E0FEEF00
:102F52003395E0FC74F42DF58274003CF583E06E49
:102F6200600302304A9002EBE004F080B7E4900282
:102F7200EBF0900406E0FF9002EBE0FEC3EF64800A
:102F8200F8EE648098400302305BE0FFFD3395E089
:102F9200FC74072DF58274043CF583E0FEEF339553
:102FA200E0FC74F42DF58274003CF583E06E60035E
:102FB20002304A9002EBE004F080B7E49002EBF0BA
:102FC200900430E0FF9002EBE0FEC3EF6480F8EE85
:102FD200648098400302305BE0FFFD3395E0FC74AF
:102FE200312DF58274043CF583E0FEEF3395E0FC6D
:102FF20074F42DF58274003CF583E06E6002804823
:103002009002EBE004F080B8E49002EBF090043917
:10301200E0FF9002EBE0FEC3EF6480F8EE6480987C
:103022005037E0FFFD3395E0FC743A2DF5827404CD
:103032003CF583E0FEEF3395E0FC74F42DF58274E9
:10304200003CF583E06E60069002EAE0FF22900207
:0B305200EBE004F080B77F00227F005D
:01305D002250
:106A4D00E4F5957596FFC2A1C2A253E1EF43E210A2
:016A5D002216
:096A5E007F0F126A67D2FC7F0F62
:076A6700AE071FEE70FA22DA
:02671800AB07CD
:10671A007A80C2A3EDB40104C2A48002D2A4EAD34F
:10672A0094004011C2FCEA5B24FF92A7126A5EEA57
:0E673A00C313FA80E9C2FCD2A7126A5ED2A392
:01674800222E
:1069A4003EF583E5822DF582E43583F583E493FF98
:0569B400E4FD0267187C
:05000E007D01026718EE
:105F6A00E4FFFE900486F0A3F00FBF00010EBE7599
:105F7A00F8BF30F57FAE12000E7FD512000E7F807B
:105F8A0012000E7FA812000E7F2712000E7FD31276
:105F9A00000EE4FF12000E7F4012000E7F8D1200E9
:105FAA000E7F1412000E7FA112000E7FC812000E7F
:105FBA007FDA12000E7F1212000E7F8112000E7F0E
:105FCA00AF12000E7FD912000E7F2512000E7FDB62
:105FDA0012000E7F2012000E7FA412000E7FA6125E
:0A5FEA00000E7FAF12000E0264CF1C
:1064CF00E4900488F0A3F0900488E0FFC394055093
:1064DF0026E4A3F0126AFCE4FF126840900489E0FE
:1064EF00C39460500AE4FF1269B4E004F080ED90A9
:0764FF000488E004F080D0E6
:016506002272
:0B60D90090053AEBF0A3EAF0A3E9F019
:1060E400E4A3F0A3F0A3F0A3F090053DE0FFC39474
:1060F400055045E4A3F0126AFCE4FF1268409005E1
:106104003EE0C39460502990053AE0FBA3E0FAA373
:10611400E0F990053FE475F001123FCD85F082F57A
:1061240083123F23FF1269B490053EE004F080CE51
:0861340090053DE004F080B18C
:01613C002240
:066AF600F0EB540FA3F0C9
:096AFC00EF540F44B0FF02000E3C
:08683800FF126AFCE92408FFCD
:10684000AC0774202CFC540FFF12000EAF04EFC4F1
:08685000540F4410FF02000E7A
:0B453A00900552EBF0A3EAF0A3E9F0BB
:10454500E4A3F0A3F0900552E0FBA3E0FAA3E0F9A1
:10455500123F0A7003024844900555E0F9C3940CD4
:1045650050087F01126AFCE08014E9C394184003E7
:104575000248447F03126AFC900555E024F475F067
:1045850008A4FF126840900552E0FBA3E0FAA3E0FF
:10459500F9123F0AFFC3648094B0404DD3EF6480A5
:1045A50094B95045E4900556F0900556E0FDC39446
:1045B5000840030246C7900552E0FBA3E0FAA3E0DA
:1045C500F9123F0AFF3395E0FEEFC4F8540FC868AF
:1045D500FFEEC454F048FE743E2FF582742F126925
:1045E500A4900556E004F080C0900552E0FBA3E0DE
:1045F500FAA3E0F9123F0AFFC3648094E1404DD36A
:10460500EF648094FA5045E4900556F0900556E025
:10461500FDC3940840030246C7900552E0FBA3E0A2
:10462500FAA3E0F9123F0AFF3395E0FEEFC4F85410
:104635000FC868FFEEC454F048FE742E2FF582743F
:104645002D1269A4900556E004F080C0900552E053
:10465500FBA3E0FAA3E0F9123F0AFFC3648094C10B
:10466500404AD3EF648094DA5042E4900556F090C6
:104675000556E0FDC394085049900552E0FBA3E0C0
:10468500FAA3E0F9123F0AFF3395E0FEEFC4F854B0
:104695000FC868FFEEC454F048FE74CE2FF582743F
:1046A500301269A4900556E004F080C3E4900556E5
:1046B500F0E4FF1269B4900556E004F0E0C39408F5
:1046C50040EF900555E0F9C3940C50087F02126A3B
:1046D500FCE08014E9C3941840030248447F0412A7
:1046E5006AFC900555E024F475F008A4FF126840B3
:1046F500900552E0FBA3E0FAA3E0F9123F0AFFC3DD
:10470500648094B0404DD3EF648094B95045E490F3
:104715000556F0900556E0FDC39408400302483164
:10472500900552E0FBA3E0FAA3E0F9123F0AFF333C
:1047350095E0FEEFC4F8540FC868FFEEC454F04886
:10474500FE74462FF582742F1269A4900556E00475
:10475500F080C0900552E0FBA3E0FAA3E0F9123F18
:104765000AFFC3648094E1404DD3EF648094FA500E
:1047750045E4900556F0900556E0FDC394084003C6
:10478500024831900552E0FBA3E0FAA3E0F9123F9D
:104795000AFF3395E0FEEFC4F8540FC868FFEEC476
:1047A50054F048FE74362FF582742D1269A49005D5
:1047B50056E004F080C0900552E0FBA3E0FAA3E0C8
:1047C500F9123F0AFFC3648094C1404AD3EF648065
:1047D50094DA5042E4900556F0900556E0FDC394F6
:1047E500085049900552E0FBA3E0FAA3E0F9123F17
:1047F5000AFF3395E0FEEFC4F8540FC868FFEEC416
:1048050054F048FE74D62FF58274301269A49005D1
:1048150056E004F080C3E4900556F0E4FF1269B455
:10482500900556E004F0E0C3940840EF900555E08C
:0F48350004F0900553E475F001123FB702454AB5
:014844002251
:0759C100A905900574EFF049
:1059C800E4FCEBC4540FA3126AF6AF01126840E47A
:1059D800FC900575E0C454F0243EF582E43432F5B9
:1059E80083E5822C1269AA0CECB408E5900574E0F2
:1059F80004FF126AFCAF01126840E4FC900575E0F0
:105A0800C454F02446F582E43432F583E5822C123E
:105A180069AA0CECB408E5900574E0126838E4FC57
:105A2800EC6407900576601BE0C454F0243EF582D0
:105A3800E43432F583E5822CF582E43583F583E49A
:105A480093801BE0C454F0243EF582E43432F5839D
:105A5800E5822CF582E43583F583E4934401FF1253
:105A680069B40CECB408B9900574E004126838E421
:105A7800FC900576E0C454F02446F582E43432F50F
:0C5A880083E5822C1269AA0CECB408E53E
:015A940022EF
:0B606D00900565EBF0A3EAF0A3E9F05A
:10607800E4A3F0900565E0FBA3E0FAA3E0F9A3E050
:10608800FFF582758300123F23FB6044EFC394063B
:10609800500C900568E0C454F0FD7F0180279005FE
:1060A80068E0FFC3940C5028EF24FAC454F0FD9024
:1060B8000565E0FBA3E0FAA3E0F98F82758300127F
:1060C8003F23FB7F031259C1900568E004F080A3C9
:0160D80022A5
:04561500AA07AC052F
:10561900E4F9EBC4540F90058C126AF6AF041268D2
:105629004090058CE0FFC39400402BEFD3940950C0
:1056390025E490058CE075F005A429F582E435F0A0
:10564900F583E58224AEF582E58334301269AF092A
:10565900E9B405DE803A90058CE0FFC3940A500353
:1056690002570DEFD3940F400302570DE4F990054B
:105679008CE075F005A429F582E435F0F583E5821F
:1056890024D1F582E58334301269AF09E9B405DE26
:10569900E4FF1269B490058DE0FFC39400402CEF3C
:1056A900D394095026E4F990058DE075F005A429F5
:1056B900F582E435F0F583E58224AEF582E583349D
:1056C900301269AF09E9B405DE803490058DE0FF39
:1056D900C3940A402FEFD3940F5029E4F990058D14
:1056E900E075F005A429F582E435F0F583E5822417
:1056F900D1F582E58334301269AF09E9B405DE7F5B
:04570900031269B46A
:01570D002279
:0B5B5E00900557EBF0A3EAF0A3E9F07C
:105B6900E4A3F0A3F0900557E0FBA3E0FAA3E0F962
:105B7900123F0AFB7003025C1990055AE0FFC394B7
:105B890008500AEF75F00CA4FD7F01806D90055A4D
:105B9900E0FFC39410501BEF24F875F00CA4FD909E
:105BA9000557E0FBA3E0FAA3E0F9123F0AFB7F02E5
:105BB900804890055AE0FFC39418501BEF24F075F4
:105BC900F00CA4FD900557E0FBA3E0FAA3E0F9125D
:105BD9003F0AFB7F03802390055AE0FFC3942050BE
:105BE9002FEF24E875F00CA4FD900557E0FBA3E026
:105BF900FAA3E0F9123F0AFB7F04125615900558E3
:105C0900E475F001123FB790055AE004F0025B6EAB
:015C19002268
:07657600900497EDF0A9036A
:10657D00E4FC126AFCE0FF126840E4FC75F005E9EA
:10658D00A42CF582E435F0F583E58224BEF582E591
:10659D0083342F1269AF0CECB405E1E4FF0269B44A
:0B5C1A00900486EBF0A3EAF0A3E9F091
:105C2500E4A3F0A3F0900486E0FBA3E0FAA3E0F977
:105C3500123F0AFB7003025CD5900489E0FFC39410
:105C450010500AEF75F006A4FD7F01806D90048960
:105C5500E0FFC39420501BEF24F075F006A4FD90DF
:105C65000486E0FBA3E0FAA3E0F9123F0AFB7F02FA
:105C75008048900489E0FFC39430501BEF24E07501
:105C8500F006A4FD900486E0FBA3E0FAA3E0F91278
:105C95003F0AFB7F038023900489E0FFC3944050B3
:105CA5002FEF24D075F006A4FD900486E0FBA3E059
:105CB500FAA3E0F9123F0AFB7F0412657690048788
:105CC500E475F001123FB7900489E004F0025C2A04
:015CD50022AC
:106858007401A807088002C333D8FCF59DE4F5BD90
:0F686800EF4488F5BC7F02126960D2ADD2AF2237
:03002B00025CD69E
:0D5CD600C0E0C0F0C083C082C0D075D0080F
:105CE30090048EE4F0A3F0FFFEA3F0A3F0C2ADF5A1
:105CF300BC126A9C7F0312694990048EE4F0A3EFFF
:105D0300F0126A9C7F031269497E0090048EE0FCC6
:105D1300A3E0FDD39FEC9E401DED9FFBEC9EFAC3D9
:105D2300EB9423EA9400504EED2FFFEE3CC313FE99
:105D3300EF13FFA38030C3ED9FEC9E502C90048E95
:105D4300E0FCA3E0FDC3EF9DFDEE9CFCC3ED9423BB
:105D5300EC94005021E02FFF90048EE03EC313FE2D
:105D6300EF13FF900490EE800990048EE0FFA3E010
:085D7300A3CFF0A3EFF0D2ADC5
:0B5D7B00D0D0D082D083D0F0D0E03236
:10694900E4F5BDEF4488F5BC00000000E5BC30E487
:07695900FB75BC00AFBD227D
:1067F400AC07E4123D5F90055DE0F8A3E0F9A3E087
:10680400FAA3E0FB123B36E4FBFA79807843123CAE
:026814003F2221
:10677A00E4FDFCF5BDF5BEEF4488F5BC0000000061
:10678A00E5BC30E4FB75BC00AFBDEF75F004A4FDB9
:09679A00ACF0AFBEED4FAE04FF00
:0167A30022D3
:10005E00AD07AC06E4123D5A900549E0F8A3E0F96D
:10006E00A3E0FAA3E0FB123B36E4FBFA7980784476
:04007E00123C3F22CF
:10696000AE071FEE60107C137D88ED1DAA04700138
:066970001C4A60EC80F4FB
:0169760022FE
:0C67D5004100F1004100F2004100F3001F
:1067A400E5A2543F4440F5A253877F759850438E29
:1067B40040538EFE53890F438920758BFA758DFAE9
:0967C400C2ABD28ED2ACD2AF22DE
:096B05002000FDEFD200F59922F9
:10664C00900577EBF0A3EAF0A3E9F0900577E0FB77
:10665C00A3E0FAA3E0F9123F0A6017900577A3E4D0
:10666C0075F001123FCDA9F0FA123F0AFF126B052B
:03667C0080D922A0
:030023000264581C
:10645800C0E0C0F0C083C082C0D075D00830981B9F
:10646800C2989002E8E475F001123FCDFE74F4255D
:10647800F0F58274003EF583E599F0309904C299ED
:0D648800C200D0D0D082D083D0F0D0E0325E
:03004300026495BF
:10649500C0E0C083C082C0D075D008E59A30E0174F
:1064A500539AFE9000F1E0FF04F074002FF582E4AA
:1064B5003400F583E59BF0E59A30E105539AFDC27A
:0A64C50001D0D0D082D083D0E032A5
:096B0E002001FDEFD201F59B22EC
:10667F0090057AEBF0A3EAF0A3E9F090057AE0FB3E
:10668F00A3E0FAA3E0F9123F0A601790057AA3E49A
:10669F0075F001123FCDA9F0FA123F0AFF126B0EEF
:0366AF0080D9226D
:1069190053BAFE759A50438E0475D7C075D6FD4398
:086929008E1075AF01D2AF2200
:10698E007E027FF49000F4E4F0A3DFFCDEFAE490E4
:05699E0002E8F0A3F087
:0169A30022D1
:0F6A6E007F64900000E4F0A3DFFCE49000F1F0FF
:016A7D0022F6
:1068960053BAFD75AC1043AC4043D10275D5C075F3
:0B68A600D4FD43D10843AF08D2AF225D
:03008B000268CC3C
:1068CC00C0E0E5AC30E00653ACFE85AD80E5AC3005
:0A68DC00E10553ACFDC202D0E0322A
:096B17002002FDEFD202F5AD22CF
:1066B20090057DEBF0A3EAF0A3E9F090057DE0FB05
:1066C200A3E0FAA3E0F9123F0A601790057DA3E464
:1066D20075F001123FCDA9F0FA123F0AFF126B17B3
:0366E20080D9223A
:1068B10043BA0475841043844043D12075D3D07505
:0B68C100D2FF43D18043AF10D2AF22C2
:030093000268E61A
:1068E600C0E0E58430E0065384FE858580E584308B
:0A68F600E1055384FDC203D0E03237
:096B20002003FDEFD203F58522EC
:1066E500900486EBF0A3EAF0A3E9F0900486E0FBC2
:1066F500A3E0FAA3E0F9123F0A6017900486A3E429
:1067050075F001123FCDA9F0FA123F0AFF126B2076
:0367150080D92206
:0D003600E4F5C7F5C5F5C675C380F5C42215
:1069310075C78175C5018FC4EEF5C375C65A75C695
:07694100A500AFC2120036F1
:01694800222C
:1069000075C78175C5028FC4EEF5C3AF058FC2751B
:09691000C65A75C6A50002003646
:1069B90075C78175C5038FC4EEF5C375C65A75C60B
:0569C900A500020036EC
:1057FB00900527EEF0A3EFF090052BEBF0A3EAF06A
:0B580B00A3E9F0900529ECF0A3EDF0FC
:10581600E490052EF0A3F0FFA3F0A3F0D3ED9420BF
:10582600EC9400400122900527E0FCA3E0FDEC5437
:1058360001FEAF0590052AE02FFF900529E03EFE08
:10584600D3EF9420EE940040037F0022AF05AE0410
:105856001269B9E490052EF0A3F0900529E0FEA3A5
:10586600E0FF90052EE0FCA3E0FDC39FEC9E506791
:10587600900527E0FEA3E0FF90052BE0FBA3E0FAEE
:10588600A3E0F98D828C83123F23FD1269009005F7
:1058960027E0FEA3E0FF12693190052BE0FBA3E0B1
:1058A600FAA3E0F9A3E0FCA3E0F5828C83123F2380
:1058B6006F60061200367F0022900528E004F07023
:1058C60006900527E004F090052FE004F0708B9019
:0C58D600052EE004F080831200367F01F4
:0158E20022A3
:1050EE00900518EEF0A3EFF090051CEBF0A3EAF09C
:0B50FE00A3E9F090051AECF0A3EDF020
:10510900E490051FF0A3F0A3F0A3F0A3F0A3F0A38C
:10511900F0A3F0D3ED9420EC940040037F0022909B
:105129000518E0FCA3E0FDEC5401FEAF0590052154
:10513900F0A3EFF090051BE02FFF90051AE03EFE6B
:10514900D3EF9420EE940040037F0022EC54FEFE3E
:105159007F00900523F0A3EFF0A3EEF0A3EFF0900A
:10516900051FF0A3F0900525E475F001123FCDAFBE
:10517900F0FE12693190051FA3E02422F8A607E08A
:1051890004F0700690051FE004F0C3900520E09438
:105199002090051FE0940040CCE490051FF0A3F097
:1051A90090051AE0FEA3E0FF90051FE0FCA3E0FDD7
:1051B900C39FEC9E503490051CE0FBA3E0FAA3E0EA
:1051C900F98D828C83123F23FF900521E475F0014C
:1051D900123FCD742225F0F8A607900520E004F0CF
:1051E900700690051FE004F080B6900523E0FEA349
:1051F900E0FF1269B9900523E0FFA3E0A3CFF0A374
:10520900EFF0E490051FF0A3F090051FE0FCA3E088
:10521900FDC39420EC9400504C900525E0FEA3E0DA
:10522900FF74222DF8E6FD126900900518E0FEA32F
:10523900E0FF12693190051FA3E02422F8E66F60B0
:10524900061200367F0022900526E004F0700690D1
:105259000525E004F0900520E004F0700690051F94
:0A526900E004F080A41200367F017B
:015273002218
:1065E300E5A254CFF5A2E4F5D8F5E9F5F975D9029A
:1065F300F5F275EA2075FA2075DA4275F34075EB0A
:106603002075FB2075DB4275F48075EC2075FC204A
:0666130075DC42D2DE221C
:1062F500E4F5B4F5B343BA80F5F190FFF2F090FF01
:10630500F07403F0A374E8F090FF20E4F0A3F0FC30
:10631500FDFE7BE87A03F9F8123FE3E47B64FAF9C2
:10632500F81263D190FF22EEF0A3EFF0A37408F00A
:0B63350043F50443F58053BA7F80FE5F
:10634000E4F5CAF5C943BA80F5F190FFF2F090FF89
:10635000F07403F0A374E8F090FF30E4F0A3F0FCD5
:10636000FDFE7BE87A03F9F8123FE3E47B64FAF977
:10637000F81263D190FF32EEF0A3EFF0A37408F0AF
:0A63800043F50843F58053BA7F226D
:10687700EF75F064A4FFAEF0C374109F90058FF01E
:0F68870074279E90058EF0E4900569F00269F386
:03009B00025E33CF
:105E3300C0E0C0F0C083C082C0D075D000C000C035
:105E430001C002C003C004C005C006C007900569B5
:105E5300E0703890056CE0FF75F012A4F404F5D5FA
:105E6300E4FCFDFE7B12FAF9F8123FE3C3E49FFF63
:105E7300E49EFE74019DFDE49CFC78081240408F73
:105E8300D4D2A09005697401F0803590056AE0FFD3
:105E930075F012A4F404F5D5E4FCFDFE7B12FAF9C7
:105EA300F8123FE3C3E49FFFE49EFE74019DFDE40B
:105EB3009CFC78081240408FD4C2A0900569E4F09E
:105EC300D007D006D005D004D003D002D001D00033
:0B5ED300D0D0D082D083D0F0D0E032DD
:0A570E00900486ECF0A3EDF0AB0769
:10571800A312406000000000E490048CF0A3F0EBBA
:10572800146019146022146037146028240470303F
:1057380090048812406046900000802E90048812E1
:105748004060462CCC00802290048812406045AC12
:10575800C800801690048812406044ACC000800ADB
:10576800900488124060452CD000E4F594F59343EA
:10577800BA80F5F190FFF27403F0900488E0FCA37E
:10578800E0FDA3E0FEA3E0FF123D9390FFF0EEF0F2
:10579800A3EFF090FF50E4F0A3F0FBFA79C8784249
:1057A800900488E0FCA3E0FDA3E0FEA3E0FF123C28
:1057B8003FC004C005C006C007900486E0FCA3E013
:1057C800FDE4123D5AD003D002D001D000123B367E
:1057D800123D9390FF52EEF0A3EFF090048CEEF0A0
:1057E800A3EFF090FF547408F043F52043F580537D
:0257F800BA7F76
:0157FA00228C
:10625400900590EEF0A3EFF0438E805389F0900503
:1062640090E0FEA3E0FFE4FCFD7B16FAF9F8123F90
:10627400E3EFF404F58A900590E0FEA3E0FFE4FC6C
:10628400FD7B16FAF9F8123FE3C3E49FFFE49EFE98
:1062940074019DFDE49CFC78081240408F8CC28DF3
:0362A400D28C2277
:1069E100E5A254F34404F5A2E4F5CF75CDC075CE0C
:0269F100502232
:03004B00026B4CF9
:066B4C0075CDC0D29132AC
:0A67E10042056D000042056F000044
:03000B00024F623F
:104F6200C0E0C0F0C083C082C0D075D000C000C015
:0D4F720001C002C003C004C005C006C00796
:104F7F00900492E4F0A31240600000000090056ED0
:104F8F00E004F0700690056DE004F0900570E00409
:104F9F00F0700690056FE004F090056DA3E0FF122E
:104FAF006B20C390056EE094FA90056DE09400506D
:104FBF000302508F1253E690054D12405490054D49
:104FCF00E0FCA3E0FDA3E0FEA3E0FF123D93EF752D
:104FDF00F00A842430FBE4FD7F0312657690054DC3
:104FEF00E0FCA3E0FDA3E0FEA3E0FF123D93EF750D
:104FFF00F00A84E5F02430FB7D067F031265767B93
:10500F002E7D0C7F03126576E4FFFE7DC87C4290F7
:10501F00054DE0F8A3E0F9A3E0FAA3E0FB123B365D
:10502F00123D937C007D64123F627E007F0ACFCDDC
:10503F00CFCECCCE123F62EF2430FB7D127F031216
:10504F006576E4FFFE7DC87C4290054DE0F8A3E055
:10505F00F9A3E0FAA3E0FB123B36123D937C007DEF
:10506F000A123F62ED2430FB7D187F0312657690A4
:10507F00054D1240600000000090056DE4F0A3F0B4
:10508F00C3900570E094B890056FE0940B40351213
:10509F00613D900551EFF075F00A842430FBE4FD7B
:1050AF007F04126576900551E075F00A84E5F024CF
:1050BF0030FB7D067F04126576900551E4F0900574
:0450CF006FF0A3F0EB
:1050D300D007D006D005D004D003D002D001D00031
:0B50E300D0D0D082D083D0F0D0E032DB
:10697700538E7F5389F0C2B9E4F58A758C70C28D46
:07698700D28CD2A9D2AF228D
:1069F30053D1FD75D501E4F5D443D10843AF20D27B
:026A0300AF22C0
:0300030002002ACE
:01002A0032A3
:096B2900D2B2D288D2A8D2AF2268
:0300130002002EBA
:01002E00329F
:096B3200D2B3C28AD2AAD2AF226A
:0300530002002F79
:01002F00329E
:066B5200438F10D2AF22B8
:03005B0002003070
:01003000329D
:066B5800438F20D2AF22A2
:0300830002003147
:01003100329C
:066B5E00438F40D2AF227C
:03003300020026A2
:040026005387DF32EB
:086B44005387DFD2AED2AF226D
:106A05007D3C7C00E4FF12570E126A9C53F5DFC2F1
:026A15008622D7
:106A17007D3C7C007F0312570E126AC953F5DFC213
:026A27008622C5
:106A29007D3C7C007F0312570E126ABA53F5DFC210
:026A39008622B3
:096B3B00AD07AC067F0402570E01
:106A3B007D3C7C007F0412570E126AD853F5DFC2DF
:026A4B008622A1
:066B64008FAA75AB802230
:106507002055534220636861726765200A00205551
:10651700534220636861726765200020555342200B
:10652700206F6666736574200A0020555342202049
:086537006F66667365742000B5
:0467EB004105940AC6
:1068160053CBF143CC0E43CB0143CC01C2E9D2EAC0
:10682600D2EBE4F5B375B401C2C1D2E9126AE7D27C
:02683600C1227D
:1058E300E49004B5F0A3F0A3F0A3F0A3F0A3124057
:1058F3006000000000E49004BEF0A3F07F04126790
:105903007A9004B7EEF0A3EFF0C39004B6E09F9053
:1059130004B5E09E500F9004B7E0FFA3E09004B5F8
:10592300CFF0A3EFF01200069004B9E004F0E0C357
:10593300940A40C89004B5E0FCA3E0FDE4123D5A8C
:10594300A804A905AA06AB077F0A7ED77DA37C44DA
:10595300123C3F9004BA1240549004BAE0FCA3E016
:10596300FDA3E0FEA3E0FF123D937C007D64123FA4
:1059730050AC06AD07E4123D5AC004C005C006C0D2
:1059830007E4FFFE7DC87C429004BAE0F8A3E0F987
:10599300A3E0FAA3E0FB123B36D003D002D001D040
:1059A30000123A41123D939004BEEEF0A3EFF09043
:0D59B30004BAE0FCA3E0FDA3E0FEA3E0FFCA
:0159C00022C4
:10613D00E4900497F01258E3900498124054E4FF51
:10614D00FEFDFC900498E0F8A3E0F9A3E0FAA3E0CB
:10615D00FB123CDC60377FCD7ECC7D2C7CC0900467
:10616D0098E0F8A3E0F9A3E0FAA3E0FB123A45E4C6
:10617D00FBFA79C87842123B367BFE7AFF79BF78FD
:0F618D003F123C3F123D93900497EFF0227F00AA
:01619C0022E0
:1053E6009004AB12406000000000E49004AFF0A30C
:1053F600F01258E39004B11240549004B0E0C39404
:105406000A50247F0512677A9004B0E025E02497BD
:10541600F582E43404F583EEF0A3EFF01200069073
:1054260004B0E004F080D39004A3E0FEA3E0FF9074
:10543600049EE02FFF90049DE03EFE9004AAE02F1C
:10544600FF9004A9E03EFE7C007D03123F62AD079B
:10545600AC06E4123D5A9004B1E0F8A3E0F9A3E0EB
:10546600FAA3E0FB123B367BE77AFB7979783F12A9
:105476003B36E4FBFA79D478C3123A45E4FBFA7971
:10548600C87840123C3F9004AB1240549004ABE005
:10549600FCA3E0FDA3E0FEA3E0FF123D937C007DAC
:1054A60064123F50AC06AD07E4123D5AC004C00575
:1054B600C006C007E4FFFE7DC87C429004ABE0F85E
:1054C600A3E0F9A3E0FAA3E0FB123B36D003D00237
:1054D600D001D000123A41123D939004AFEFF0E4B0
:1054E600FFFE7DAA7C429004ABE0F8A3E0F9A3E0BE
:1054F600FAA3E0FB123CDC60044002C2E99004AB74
:0B550600E0FCA3E0FDA3E0FEA3E0FF3B
:015511002277
:106749004393805394FE7BFF3087137A6579071250
:1067590066E57BFF7A657915125C1A7F01227A65F5
:1067690079221266E57BFF7A657931125C1A7F001E
:0167790022FD
:104845004E4F203A20005331203A20005332203A6F
:1048550020005333203A20005334203A20005335AA
:10486500203A2000204D41494E204D454E55200A05
:10487500200020554846204D4F44452000205548EE
:1048850046204D4F4445200A2000204254204D4FDC
:1048950044452000204254204D4F4445200A200025
:1048A5002054455354204D4F444520002054455332
:1048B50054204D4F4445200A200020424154544580
:1048C5005254204D4F4445200020424154544552F6
:1048D50059204D4F4445200A200020425A204D4F73
:1048E5004445200020425A204D4F4445200A2000CF
:1048F500204F4C45445F74696D696E67207365741C
:104905002000204F4C45445F74696D696E672073C4
:104915006574200A2000204F4C45445F425A20739D
:1049250065742000204F4C45445F425A20736574DE
:10493500200A2000202153797374656D5F506F77CD
:1049450065725F5663635F4F4E5F4F4646200A2090
:10495500002055313420706F77657220676F6F6462
:1049650020002055313420706F77657220676F6F96
:1049750064200A20002055313420706F776572203D
:104985004E47204F4350204F54502000205531347E
:1049950020706F776572204E47204F4350204F544B
:1049A50050200A2000204E205653454C200020213F
:1049B5005653454C200A2000204E204259502000D5
:1049C5002021425950200A2000204241545445528A
:1049D50059A1A14D4F444520494E20002042415444
:1049E50054455259A1A14D4F444520494E200A2016
:1049F5000020425A204D4F444520494E2000204278
:104A05005A204D4F444520494E200A2000204F4C46
:104A15004544206765742072656164696E6720741A
:104A2500696D696E672000204F4C45445F74696D60
:104A3500696E67206765742072656164696E6720B9
:104A450074696D696E67200A2000204F4C4544202B
:104A55006765742077726974696E672074696D691A
:104A65006E672000204F4C45445F74696D696E6721
:104A7500206765742077726974696E672074696D43
:104A8500696E67200A2000204F4C45445F74696DAC
:104A9500696E672073657420494E2000204F4C4590
:104AA500445F74696D696E672073657420494E2093
:104AB5000A2000204F4C45445F425A207570200063
:104AC500204F4C45445F425A207570200A20002033
:104AD5004F4C45445F425A20646F776E2000204F4B
:104AE5004C45445F425A20646F776E200A200020AF
:104AF5004F4C45445F425A2073657420494E20004F
:104B0500204F4C45445F425A2073657420494E201E
:104B15000A2000204E4F54205345542000204E4F6C
:094B25005420534554200A2000DD
:0467EF0041059500CB
:105D8600E4900580F0A3F0A3F07F03126949900523
:105D960080EFF0C394CD40037F0022126A9C7F03FC
:105DA600126949900581EFF0126A9C7F03126949D6
:105DB600900582EFF0900581E02FFFE433C313EFE7
:105DC60013900580F0126A9C7F03126949EFD39401
:105DD600CD4002800A7F03126949126B0580E69066
:105DE6000580E0C394125006126A057F01229005D1
:105DF60080E0C3943B5006126A057F02229005801C
:105E0600E0C394695006126A057F0322900580E07C
:105E1600C3949B5006126A057F0422900580E0C356
:0C5E260094CD5006126A057F05227F0013
:015E3200224D
:104DC500E4900583F0A3F0A3F07F031269499005F1
:104DD50083EFF0C394CD4030126A9C7BFF7A48790B
:104DE5004512664C7FFF126B05900583E0FF126B41
:104DF500057BFF7A4879451266E5900583E0FF1249
:104E05006B2053F5DF7F0022126AD87F03126949B0
:104E1500900584EFF0126A9C7F031269499005851D
:104E2500EFF0900584E02FFFE433C313EF139005F3
:104E350083F0C3941250337BFF7A48794B12664C4A
:104E45007FFF126B05900583E0FF126B057BFF7AF0
:104E550048794B1266E5900583E0FF126B207D3C97
:104E65007C007F0112570E7F0122900583E0C394D9
:104E75003B50337BFF7A48795112664C7FFF126BAA
:104E850005900583E0FF126B057BFF7A48794B128D
:104E950066E5900583E0FF126B207D3C7C007F0278
:104EA50012570E7F0222900583E0C3946950337B2D
:104EB500FF7A48795712664C7FFF126B0590058380
:104EC500E0FF126B057BFF7A4879571266E590057E
:104ED50083E0FF126B207D3C7C007F0312570E7F21
:104EE5000322900583E0C3949B50337BFF7A487976
:104EF5005D12664C7FFF126B05900583E0FF126B18
:104F0500057BFF7A4879571266E5900583E0FF1225
:104F15006B207D3C7C007F0412570E7F0422900598
:104F250083E0C394CD50337BFF7A48796312664C96
:104F35007FFF126B05900583E0FF126B057BFF7AFF
:104F45004879571266E5900583E0FF126B207D3C9A
:0C4F55007C00E4FF12570E7F05227F0055
:014F6100222D
:10418500900592E4F0A3EFF0900595E0124091417F
:10419500BC0041F20542260642660742AB0A42F0E0
:1041A5000B43350C43770D43C20F44631444781910
:1041B50044D01E00004524900592E0FEA3E0FFEEEA
:1041C5007016EF24FE700302453914700302453959
:1041D50024FE60028002806C1264CF7BFF7A367900
:1041E5007E1260D97BFF7A4879690245369005923F
:1041F500E0FEA3E0FFEE7014EF24FD600D24FE70D9
:104205000302453924037004807780301264CF7B24
:10421500FF7A48797712453A7BFF7A4879820245D9
:1042250036900592E0FEA3E0FFEE7020EF24FD60DE
:104235001324FE700302453924037010900595740C
:10424500070243A290059574050243A21264CF7B31
:10425500FF7A48798F12453A7BFF7A48799902456A
:1042650036900592E0FEA3E0FFEE7025EF24FD6099
:104275001024FE60142403701890059574050243FC
:10428500A290059574060243A2900595740A02430F
:10429500A21264CF7BFF7A4879A512453A7BFF7A53
:1042A5004879B1024536900592E0FEA3E0FFEE7035
:1042B50025EF24FD601024FE60142403701890057A
:1042C50095740B0243A2900595740D0243A29005C7
:1042D50095740F0243A21264CF7BFF7A4879BF120F
:1042E500453A7BFF7A4879CE024536900592E0FE45
:1042F500A3E0FFEE7025EF24FD601024FE6014247A
:10430500037018900595740C0243A2900595740AE4
:104315000243A290059574140243A21264CF7BFF59
:104325007A4879DF12453A7BFF7A4879E9024536C2
:10433500900592E0FEA3E0FFEE7022EF24FD600FF2
:1043450024FE601224037015900595740D804E901F
:104355000595740B8047900595741980401264CFBC
:104365007BFF7A4879F512453A7BFF7A497907024E
:104375004536900592E0FEA3E0FFEE702BEF24FD9D
:10438500600F24FE60122403701E900595740A8048
:104395000C900595740C8005900595741EF0E490BD
:1043A5000592F0A3F002418D1264CF7BFF7A497923
:1043B5001B12453A7BFF7A497929024536900592C9
:1043C500E0FEA3E0FFEE600302444EEF24FD6049EA
:1043D50024FE605D240370717BFF7A49793912668A
:1043E500E5B2E920E903024539126AE730E815121A
:1043F50064CF7BFF7A49795612453A7BFF7A497932
:10440500670245361264CF7BFF7A49797A12453ABD
:104415007BFF7A4979910245361264CF7BFF7A4951
:1044250079AA12453A7BFF7A4979B31266E5B2EA71
:10443500221264CF7BFF7A4979BD12453A7BFF7A18
:104445004979C51266E5B2EB221264CF7BFF7A4942
:1044550079CE12453A7BFF7A4979E10245361264F5
:10446500CF7BFF7A4979F612453A7BFF7A4A790381
:10447500024536900592E0FEA3E0FFEE7039EF2489
:10448500FD602024FE70030245392403702912645F
:10449500CF7BFF7A4A791212453A7BFF7A4A792C0B
:1044A5000245361264CF7BFF7A4A794F12453A7B33
